:020000040800F2
:10C80000388000209DC90008AB550108AD550108CE
:10C81000AF550108B1550108B355010800000000EB
:10C82000000000000000000000000000B5550108F5
:10C83000B755010800000000B955010875540108FA
:10C84000B7C90008B7C90008B7C90008B7C90008C8
:10C85000B7C90008B7C90008B9520108B7C900082C
:10C86000B7C90008B7C90008B7C90008B7C90008A8
:10C87000B7C90008B7C90008B7C90008B7C9000898
:10C88000B7C900083D540108B7C90008B7C9000876
:10C89000B7C90008B7C90008B7C90008B7C9000878
:10C8A000B7C90008B7C90008B7C90008B7C9000868
:10C8B0000D520108B7C90008B7C90008B7C9000878
:10C8C000B7C90008B7C90008B7C90008B7C9000848
:10C8D000B7C900080D5401087B530108DD53010856
:10C8E000B7C90008B7C90008B7C90008B7C9000828
:10C8F000B7C90008B7C90008B7C90008B7C9000818
:10C90000000000000000000000000000B7C900089F
:10C910004F530108A7530108B7C90008B7C9000859
:10C92000B7C90008B7C90008B7C90008B7C90008E7
:10C93000B7C90008B7C900080000000000000000E7
:10C94000B7C90008B7C90008B7C90008000000004F
:10C9500000000000000000000000000000000000D7
:10C960000000000000000000B7C90008B7C90008B7
:10C97000B7C900080000000000000000000000002F
:10C9800000000000B7C90008DFF80CD02AF06EFCE8
:10C99000004800476F47010838800020064880475C
:10C9A00006480047FEE7FEE7FEE7FEE7FEE7FEE794
:10C9B000FEE7FEE7FEE7FEE753CA000889C9000864
:10C9C0000CB50022019200925248016841F4803176
:10C9D00001604FF4A043016801F400310091019916
:10C9E000491C0191009911B901999942F3D101684B
:10C9F000890302D50121009100E0009200990129EC
:10CA000026D1454A12211160416841604168416068
:10CA1000416841F480614160416821F47C114160CA
:10CA2000416841F4E8114160016841F080710160A2
:10CA300001688901FCD5416821F00301416041682A
:10CA400041F0020141604168C1F381010229FAD13C
:10CA50000CBD10B53148016841F4700101602D48EA
:10CA6000016841F00101016041682D4A11404160B7
:10CA700001682C4A11400160016821F480210160A5
:10CA8000416821F4FE014160C16A21F00F01C162D9
:10CA9000016B254A1140016300218160FFF790FF7F
:10CAA0001E494FF000608039086010BD30B5194B49
:10CAB000586800F00C001D4A1D4900280ED00428BB
:10CAC0000ED008280ED00A605868194AC0F3031027
:10CAD000121D105C0A68C2400A6030BD0A60F3E7AC
:10CAE0000A60F1E7586800F470105C6804F4803460
:10CAF000022505EB904044B1DC6A04F00F04641C8D
:10CB0000B2FBF4F242430A60DEE70A4A504308608F
:10CB1000DAE70000001002400020024088ED00E04B
:10CB20000CC07FF8FFFFF6FECCFC00FF00127A007D
:10CB30000000002000093D0010B5B0F1A04F02D068
:10CB4000F94988420AD101210C07204601F056FC20
:10CB50002046BDE81040002101F050BCF349884256
:10CB600002D0F34988420AD101214C07204601F046
:10CB700045FC2046BDE81040002101F03FBC10BD3F
:10CB800030B5C368EB4A1340D1E900242243D1E910
:10CB900002452C4322430C6922434C6922438C6991
:10CBA00022431A43C260026B22F00F02097F491E22
:10CBB0001143016330BD0021016041608160C160AB
:10CBC00001614161816101210177704710B5C26C3B
:10CBD000D1E900231A430B7ACC685B1E43EA042395
:10CBE0001A430B6942EA83328B8A097E42EA035276
:10CBF00042EA8161C16410BD0021016041600121F0
:10CC00000172C1600161416181617047F0B54FF00F
:10CC1000A043C94DC44CC94E984201D0A04203D193
:10CC2000D3F808232A4001E032682A40D1E90057AE
:10CC30003D43D1E9027C47EA0C37097C3D4345EA94
:10CC400001211143984201D0A04202D1C3F8081338
:10CC5000F0BD3160F0BD0021016041608160C160C4
:10CC600001747047002904D0816841F0010181609E
:10CC70007047816841F0020181607047816841F02E
:10CC8000004181607047D0F8B4007047C0F8B4101C
:10CC90007047826822F08042826082680A43826024
:10CCA0007047014600208968002900DA012070479A
:10CCB000816841F002018160704701460020896867
:10CCC000890700D501207047826822F040528260B7
:10CCD000002904D0816841F08051816070478168EB
:10CCE00041F000518160704701238B40002A04D03D
:10CCF00050F8B01F19430160704750F8B01F9943B6
:10CD000001607047002904D0C16841F40011C1607E
:10CD10007047C16821F40011C1607047002904D038
:10CD2000C16841F48041C1607047C16821F480410D
:10CD3000C1607047C26822F0E0720A43C260704767
:10CD400010B5036A7E4C23400362036A43EA014143
:10CD50000162016A6FF30B010162016A1143016212
:10CD600010BD436A23F47F034362436A43EA0141EF
:10CD70004162416A21F0FF014162416A114341620F
:10CD80007047836A23F47F038362836A43EA014125
:10CD90008162816A21F0FF018162816A11438162AF
:10CDA0007047C26822F0F84242EA8161C160704770
:10CDB00050F8A02F634B1A4001238B4013430168A6
:10CDC00019430160704750F8A42F5E4B1A400123AD
:10CDD0008B40134301681943016070474FF0A04036
:10CDE000002906D0D0F8081341F40001C0F8081358
:10CDF0007047D0F8081321F40001C0F808137047F9
:10CE00004FF0A042904202D0474B98420ED131B130
:10CE1000D2F8080340F48000C2F808037047D2F843
:10CE2000080320F48000C2F808037047434821B18A
:10CE3000016841F4800101607047016821F48001BC
:10CE4000016070474FF0A040002906D0D0F80813C9
:10CE500041F08071C0F808137047D0F8081321F032
:10CE60008071C0F80813704730B51F24052A0AD214
:10CE7000056B02EB420252009440A54301FA02F412
:10CE80002543056326E00A2A0BD2456B521F02EBAD
:10CE9000420252009440A54301FA02F4254345633F
:10CEA00018E00F2A0BD2856B0A3A02EB42025200BD
:10CEB0009440A54301FA02F4254385630AE0C56B5B
:10CEC0000F3A02EB420252009440A54301FA02F4E9
:10CED0002543C56309290DD982690A3901EB41014E
:10CEE00007228A4084699443846182698B401A4393
:10CEF000826130BD42694A1E02EB42043822A240E0
:10CF0000446994434461426901EB41018B401A43F7
:10CF1000426130BD026B22F00F020263026B491EB8
:10CF20000A430263704700000001005000040050F3
:10CF30000005005007C0FFFDE010FCFF080700508F
:10CF4000FFFF00F00100F8FFC36823F47C63C360B7
:10CF5000C3680A431343C360E4E7816841F00401F6
:10CF60008160DFE70146002089684907DAD50120A2
:10CF7000D8E7816841F010018160D3E7C26822F4EC
:10CF80006022491E42EA4141C160CBE7002904D03A
:10CF9000C16841F48031C160C4E7C16821F48031C7
:10CFA000C160BFE7006C80B2BCE74FF0A04188428F
:10CFB00002D0954A904202D1D1F80C03B2E79348CF
:10CFC0000068AFE7036E23F0F8430366036E43EA9D
:10CFD00081610166016E6FF30B010166016E114301
:10CFE00001669FE7436E23F0F8434366436E43EACE
:10CFF00081614166416E6FF30B014166416E1143E1
:10D0000041668FE7836E23F0F8438366836E43EABD
:10D0100081618166816E6FF30B018166816E1143C0
:10D0200081667FE7C36E23F0F843C366C36E43EAAD
:10D030008161C166C16E6FF30B01C166C16E1143A0
:10D04000C1666FE7002904D0016E41F0004101661E
:10D0500068E7016E21F00041016663E7002904D012
:10D06000416E41F0004141665CE7416E21F00041B4
:10D07000416657E7002904D0816E41F00041816686
:10D0800050E7816E21F0004181664BE7002904D012
:10D09000C16E41F00041C16644E7C16E21F000411C
:10D0A000C1663FE7002904D0C16841F00101C160B9
:10D0B00038E7C16821F00101C16033E7C26822F09E
:10D0C0000202C260C2680A43C2602BE710B5092998
:10D0D0000CD90A3901EB410107238B4084699C4339
:10D0E000846183698A401343836110BD4B1E03EB47
:10D0F00043043823A34044699C434461436901EBE2
:10D1000041018A401343436110BD816841F0080129
:10D11000816007E7816841F02001816002E70146F4
:10D1200000208968090700D50120FBE6002904D00A
:10D13000C16841F00071C160F4E6C16821F000717E
:10D14000C160EFE6002904D0C16841F48011C160DC
:10D15000E8E6C16821F48011C160E3E608B50090FB
:10D160000098491E00EB8100803000900098006814
:10D1700080B208BD002A03D042680A434260D1E66B
:10D1800042688A434260CDE60246002012680A42A5
:10D1900000D00120C6E60160C4E610B502460020BA
:10D1A0004FF0A0439A4202D0174CA24202D1D3F8CA
:10D1B000002302E0154A0C3A12680A4200D001200E
:10D1C00010BD4FF0A042904202D00F4B984205D1C3
:10D1D000D2F800030843C2F80003A3E60B480C385A
:10D1E00002680A4302609DE602460020136889B285
:10D1F0000B4052680A40002B02D0002A00D00120C8
:10D2000090E601608EE60000000100500C0700501F
:10D2100001684FF6FE72114001600021016041601B
:10D220008160C1607249724A0839904204D14868ED
:10D2300040F00F00486070476D4A1432904204D1AC
:10D24000486840F0F00048607047694A28329042D0
:10D2500004D1486840F4706048607047644A3C32CA
:10D26000904204D1486840F4704048607047604A7A
:10D270005032904204D1486840F4702048607047B2
:10D280005B4A6432904204D1486840F470004860C0
:10D290007047574A7832904204D1486840F0706035
:10D2A00048607047534A111F904204D1086840F00B
:10D2B0000F00086070474F4A1432904204D108684A
:10D2C00040F0F000086070474A4A2832904204D18A
:10D2D000086840F4706008607047464A3C329042EB
:10D2E00004D1086840F4704008607047414A5032E9
:10D2F0009042FAD1086840F470200860704730B559
:10D30000026847F6F0739A430C6A8B682343D1E9AD
:10D3100004452C4323438C692343CC6923434C6A43
:10D3200023438C6A2343134303608A8942600A685B
:10D3300082604968C16030BD002101604160816048
:10D340008181016141618161C161016241628162EA
:10D350007047002904D0016841F001010160704765
:10D3600001684FF6FE7211400160704741607047DE
:10D37000406880B27047002A03D002680A43026006
:10D38000704702688A430260704702460020D1005D
:10D3900003D518490839096802E0154908390968B0
:10D3A000114200D001207047C10003D51149091F67
:10D3B000086070470E4908394860704702460020EF
:10D3C000D10003D50B490839096802E0084908393A
:10D3D0000968114200D001207047C10003D50549FA
:10D3E000091F08607047024908394860704700000B
:10D3F000080002400804024072494FF0FC500860E7
:10D400000020091D0860091D0860091D0860091D2C
:10D4100008606C4A6FF0FC5114321160694A0C21AB
:10D4200020321160111D0860091D0860091D086087
:10D43000091D08600320091D08607047F0B5614AA6
:10D440000368857903F01F04012606FA04F123F02E
:10D450001F03002D64D05C4D2B44D3F800448C4353
:10D46000C3F80044036823F01F014C19D4F80414D6
:10D4700003F01F0306FA03F39943C4F80414046885
:10D48000037924F01F07B9180B44196804F01F042E
:10D4900006FA04F421431960036823F01F014C19B4
:10D4A000D4F8081403F01F0306FA03F39943C4F8F1
:10D4B0000814016821F01F032B44D3F80C4401F039
:10D4C0001F0706FA07F18C43C3F80C444179102971
:10D4D0000BD0036823F01F0010440844016803F0D8
:10D4E0001F02964031430160F0BD016821F01F0228
:10D4F0002A44D2F8083401F01F0134468E403343E9
:10D50000C2F80834016821F01F002844D0F80C2428
:10D5100001F01F0104FA01F63243C0F80C24F0BDFB
:10D5200000791A44104402688A430260F0BD002169
:10D53000016001711022427181717047224920F00F
:10D540001F021144D1F8102400F01F03012098405D
:10D550000243C1F810247047014600201A4B21F005
:10D560001F021A44D2F8142401F01F03012199402C
:10D570000A4200D00120704700F01F0201219140B3
:10D58000114A20F01F001044C0F8141470470146DF
:10D5900000200D4B21F01F021A44D2F8142401F090
:10D5A0001F03012199400A4200D00120704700F07A
:10D5B0001F0201219140044A20F01F001044C0F8CE
:10D5C000141470470004014000000140FD4A116836
:10D5D00021F00301014311607047FA49002804D08B
:10D5E000086840F0080008607047086820F00800EC
:10D5F00008607047F349002804D0086840F0100024
:10D6000008607047086820F0100008607047ED4817
:10D610000169090603D5EC494160EC494160704756
:10D62000E848016941F08001016170470420E54943
:10D63000CA68D20701D001207047CA68D20601D556
:10D6400002207047C9684907FBD50320704700B521
:10D650000346FFF7EBFF02E0FFF7E8FF5B1E012840
:10D6600001D1002BF8D1002B00D1052000BD70B5F1
:10D6700005464FF430263046FFF7E9FF042810D165
:10D68000D04C206940F0020020616561206940F0C3
:10D69000400020613046FFF7DAFF216921F00201E6
:10D6A000216170BD30B54FF430252846FFF7CFFF1C
:10D6B00004280FD1C34C206940F004002061206988
:10D6C00040F0400020612846FFF7C1FF216921F0AA
:10D6D0000401216130BDF8B505460E4600200090DA
:10D6E0004FF430273846FFF7B2FF04280ED1B54C6F
:10D6F000206940F0010020612E803846FFF7A7FF27
:10D70000042804D0216921F001012161F8BDAD1C7C
:10D7100000950098310C01803846FFF798FF216989
:10D7200021F001012161F8BDF0B506460D464FF428
:10D7300030273846FFF78BFF04280CD1A14C206915
:10D7400040F00100206135803846FFF780FF2169F5
:10D7500021F001012161F0BD9A480169890503D4D6
:10D76000994981609949816070479648016921F41F
:10D770000071016170479348016941F400510161F2
:10D78000704700208F49C96911F0060F00D00120B1
:10D79000704770B5AA24FFF7F4FF00B100244FF4DE
:10D7A00030263046FFF753FF042813D1854D2869F2
:10D7B00040F020002861286940F040002861304690
:10D7C000FFF745FF042806D0052803D0296921F07A
:10D7D0001001296170BD286920F0200028612869A6
:10D7E00040F0100028617A4804803046FFF72FFF90
:10D7F0000528EFD0296921F01001296170BD2DE9BC
:10D80000F043C043C4B2C0F30725C0F30746070E78
:10D810004FF430294846FFF71AFF042835D1DFF8C6
:10D82000A481D8F8101041F01001C8F81010FF2C96
:10D8300005D06748083004804846FFF708FF0428F1
:10D8400007D1FF2D05D062480A3005804846FFF712
:10D85000FEFE042807D1FF2E05D05D480C3006805F
:10D860004846FFF7F4FE042807D1FF2F05D058489B
:10D870000E3007804846FFF7EAFE052805D0D8F8A5
:10D88000101021F01001C8F81010BDE8F08370B539
:10D8900005464FF430263046FFF7D9FE042813D151
:10D8A000484C206940F020002061206940F0400091
:10D8B00020613046FFF7CBFE042806D0052803D0B0
:10D8C000216921F02001216170BD206920F0200034
:10D8D0002061206940F0100020613D4805803046FD
:10D8E000FFF7B5FE0528EFD0216921F01001216175
:10D8F00070BD2DE9F04105460E461746314C3248C1
:10D90000A0603248A0604FF430284046FFF79FFEE9
:10D91000042813D1206940F01000206135432C49C0
:10D920003D43891C45F0F80008804046FFF78FFE14
:10D93000052803D0216921F010012161BDE8F081A3
:10D9400070B505461F4C2048A0602048A0604FF4E9
:10D9500030263046FFF77BFE042811D1206940F0C5
:10D96000100020611A4945F0EF00891C08803046FC
:10D97000FFF76DFE052803D0216921F01001216118
:10D9800070BD70B505460F4C0F48A0600F48A060F1
:10D990004FF430263046FFF75AFE042811D1206993
:10D9A00040F0100020610A4945F0DF00891C088022
:10D9B0003046FFF74CFE052803D0216921F0100105
:10D9C000216170BD0020024023016745AB89EFCD86
:10D9D00000F8FF1F70B505464FF430263046FFF7BC
:10D9E00036FE0428EDD1354C206940F0100020614E
:10D9F000334845F0BF0101803046FFF728FE052877
:10DA0000DFD0216921F010012161DAE770B5054608
:10DA10002A4C2C48A0602C48A0604FF43026304699
:10DA2000FFF715FE0428CCD1206940F010002061DA
:10DA3000234945F0880008803046FFF708FE052896
:10DA4000BFD0216921F010012161BAE7F0B5064687
:10DA50000D464FF430273846FFF7F9FD04280ED164
:10DA6000164C206940F01000206135803846FFF7E1
:10DA7000EEFD052803D0216921F010012161F0BDE0
:10DA80000E48C069C0F3072070470C48006A704711
:10DA90000A4A002903D011690143116170471169D5
:10DAA00081431161704701460020044AD2680A424E
:10DAB00000D0012070470149C86070470020024033
:10DAC00002F8FF1F23016745AB89EFCD10B5B0F118
:10DAD000904F0DD07349884215D104020121204690
:10DAE00000F08CFC2046BDE81040002100F086BC10
:10DAF00001214C04204600F081FC2046BDE8104086
:10DB0000002100F07BBC684988420AD1040201214F
:10DB1000204600F073FC2046BDE81040002100F0D4
:10DB20006DBC624988420AD101210C05204600F0F3
:10DB300065FC2046BDE81040002100F05FBC5C4958
:10DB400088420AD144020121204600F057FC2046B9
:10DB5000BDE81040002100F051BC564988420AD16E
:10DB600001218C05204600F049FC2046BDE810400C
:10DB7000002100F043BC504988420AD10121CC0564
:10DB8000204600F03BFC2046BDE81040002100F09C
:10DB900035BC4A4988420AD101210C04204600F0D4
:10DBA0002DFC2046BDE81040002100F027BC10BD30
:10DBB000F0B500220127032607FA02F30C681C4087
:10DBC0009C422BD10D79012D01D0022D13D18468F7
:10DBD000550006FA05FC24EA0C0484604C79AC403C
:10DBE00085682C43846084889C43848084888B79F6
:10DBF00093401C4384800568530006FA03F4A54350
:10DC000005600D79D0F800C09D4045EA0C0505601F
:10DC1000C568A543CC799C402C43C460521C102A93
:10DC2000CAD3F0BD4FF6FF710160002101710222DD
:10DC300042718171C171704741F48032C261C1612A
:10DC4000C261C169C069704702460020128A0A4257
:10DC500000D001207047008A704702460020928A57
:10DC60000A4200D001207047808A70478161704766
:10DC700001857047002A01D0816170470185704796
:10DC80008182704710B54B07DB0E9A40C90800EB44
:10DC90008100016A0F249C40A1430162016A114383
:10DCA000016210BD0004004800080048000C004854
:10DCB000001000480014004800180048001C0048EC
:10DCC0000E49086070470D49486070470B498860ED
:10DCD00070470A494AF6AA20086070470749086158
:10DCE000704706494CF6CC4008607047014600205A
:10DCF000024AD2680A4200D001207047003000403A
:10DD00002A4908432A490860704770B50F23C27832
:10DD100001260178002A1ED0254A126802F4E0622A
:10DD2000C2F5E062120AC2F10404D3404578A5406E
:10DD300082781A402A43120101F1E02181F800247F
:10DD4000007800F01F018E404009800000F1E020C3
:10DD5000C0F8006170BD01F01F00864048098000D6
:10DD600000F1E020C0F8806170BD124A114001430B
:10DD70000F48001F016070470D4A121D002903D093
:10DD80001168014311607047116881431160704749
:10DD90004FF0E021042804D0086920F00400086155
:10DDA0007047086940F00400086170470000FA05F8
:10DDB0000CED00E080FFFF1FF748016841F0010112
:10DDC00001604168F54A114041600168F44A114020
:10DDD0000160016821F480210160416821F4FE01A5
:10DDE0004160C16A6FF30D01C162016BED4A1140E0
:10DDF0000163002181607047E74900228A708870C2
:10DE00007047034600205909E34A00290CD0012934
:10DE10000CD004290CD0516A03F01F020123934057
:10DE20000B4200D0012070471168F5E7116AF3E753
:10DE30005168F1E718B5002000904FF4A04411207C
:10DE4000FFF7DFFF0099491C00910099A14201D022
:10DE50000028F4D01120FFF7D4FF08B1012018BD2D
:10DE6000002018BDCC4A116821F0F80141EAC00039
:10DE700010607047CC4908607047C7490A6A22F0B1
:10DE800001020A620A6A22F004020A620A6A024372
:10DE90000A627047C0490A6A22F018020A620A6AD6
:10DEA00002430A627047C14908607047BA4A536822
:10DEB00023F474135360536808430343536070475B
:10DEC000B94908667047B44AD16A21F00F0101438D
:10DED000D1627047B449C8647047AF4A516821F0B5
:10DEE000074141EA006050607047AB4A516821F039
:10DEF0000301014351607047A748406800F00C00DF
:10DF00007047A54A516821F0F00101435160704704
:10DF1000A14A516821F4E0610143516070479E4A73
:10DF2000516821F4605141EAC000506070472DE90A
:10DF3000F0470021DFF86082D8F8042002F00C02DC
:10DF40009B4E002A3AD0042A3AD0082A3AD00660DA
:10DF5000D8F8042002F0F0021209964CA55C026881
:10DF600022FA05F34360D8F8047007F4E0673F0A2B
:10DF700014F807C023FA0CF78760D8F804C00CF433
:10DF8000605C4FEADC2C14F80C40E340C360D8F826
:10DF90002CC04FEA1C1CDFF81CA20CF00F090AF180
:10DFA000100A3AF819905FEACC6C24D5B9F1000F49
:10DFB00021D0B1FBF9FCC0F810C01DE00660C7E736
:10DFC0000660C5E7D8F8041001F47011D8F80420F1
:10DFD00002F48032022303EB91414AB1D8F82C209D
:10DFE00002F00F02521CB6FBF2F251430160AFE7A0
:10DFF000714A5143FAE70261D8F82CC04FEA5C2C11
:10E000000CF00F093AF819905FEACC6C07D5B9F11A
:10E01000000F04D0B1FBF9FCC0F814C000E042616D
:10E02000D8F830C05FEACC6C01D4866100E0826130
:10E03000D8F830C05FEA8C6C01D4C66100E0C261E0
:10E04000D8F830C05FEA4C6C01D4066200E002628E
:10E05000D8F830C05FEACC5C08D58A4206D1AC4221
:10E0600004D14FEA410CC0F824C000E04362D8F864
:10E0700030C05FEACC4C08D58A4206D1AC4204D10C
:10E080004FEA410CC0F828C000E08362D8F830C0E5
:10E090005FEA8C5C08D58A4206D1AC4204D14FEAD3
:10E0A000410CC0F82CC000E0C362D8F830C05FEA71
:10E0B0004C5C08D58A4206D1AC4204D14FEA410CEF
:10E0C000C0F84CC000E0C364D8F830C05FEA0C5C14
:10E0D00008D58A4206D1AC4204D14FEA410CC0F8BF
:10E0E00050C000E00365D8F830C05FEA8C4C08D51A
:10E0F0008A4206D1AC4204D14FEA410CC0F854C068
:10E1000000E00365D8F830C05FEA0C4C06D58A42BF
:10E1100004D1AC4202D14900816500E08365D8F8A2
:10E1200030108C074FF4004111D0D8F8303003F094
:10E130000303012B0DD0D8F8303003F00303022B7A
:10E1400009D0D8F83030DB439B0706D006E0836364
:10E1500004E0826302E0816300E08663D8F8303037
:10E1600013F4403F12D0D8F83030C3F30143012BF1
:10E170000ED0D8F83030C3F30143022B0AD0D8F8C0
:10E180003030C3F30143032B18D018E0C76316E007
:10E19000C26314E0C16312E00010024000C0FFF847
:10E1A000FFFFF6FECCEC000F00004242800442422A
:10E1B00000127A001400002000093D00C663D8F860
:10E1C000303013F4402F12D0D8F83030C3F38143ED
:10E1D000012B0ED0D8F83030C3F38143022B0AD084
:10E1E000D8F83030C3F38143032B06D006E0076430
:10E1F00004E0026402E0016400E00664D8F8303014
:10E2000013F4401F12D0D8F83030C3F30153012B60
:10E210000ED0D8F83030C3F30153022B0AD0D8F80F
:10E220003030C3F30153032B06D006E0476404E00B
:10E23000426402E0416400E04664D8F8303013F4F0
:10E24000400F14D0D8F83030C3F38153012B10D0D5
:10E25000D8F83020C2F38152022A0CD0D8F83010FE
:10E26000C1F38151032900D18664BDE8F08787643A
:10E27000FBE78264F9E78164F7E7020F7E49002A31
:10E2800004D0CA6A22F47852CA6203E0CA6A22F44D
:10E29000F872CA62CA6A0243CA627047010F764ABC
:10E2A000002904D0012907D002290ED109E0116B01
:10E2B00021F01001116308E0116B21F020011163BE
:10E2C00003E0116B21F040011163116B01431163F5
:10E2D0007047020F6849082A2AD2DFE802F00409D1
:10E2E0000E13181D21250A6B22F480720A631FE0A9
:10E2F0000A6B22F400720A631AE00A6B22F480624D
:10E300000A6315E00A6B22F400620A6310E00A6BEC
:10E3100022F400520A630BE00A6B22F400420A6303
:10E320000A6B22F080720A630A6B22F000720A63A1
:10E330000A6B02430A6370474F490A6B22F480520A
:10E340000A630A6B02430A637047020F4A49062AAE
:10E350001CD2DFE802F01B03080D12170A6B22F033
:10E3600003020A6312E00A6B22F440320A630DE0F2
:10E370000A6B22F440220A6308E00A6B22F440127E
:10E380000A6303E00A6B22F440020A630A6B024349
:10E390000A63704739490860704737490A6A02437F
:10E3A0000A6270473549091D0860704734490860A2
:10E3B00070473349091D086070472F4A002903D070
:10E3C00051690143516170475169814351617047FF
:10E3D000294A002903D091690143916170479169ED
:10E3E000814391617047244A002903D0D1690143D8
:10E3F000D1617047D1698143D16170471E4A0029BC
:10E4000003D0916A014391627047916A814391629E
:10E410007047194A002903D0D1680143D160704781
:10E42000D1688143D1607047134A002903D0116934
:10E4300001431161704711698143116170470E4AB0
:10E44000002903D0517A014351727047517A8143B8
:10E45000517270470848416A41F0807141627047CB
:10E4600001460020044A92680A4200D00120704709
:10E47000014988727047000000100240D8004242F3
:10E480003C04424218B500200090F948006880061C
:10E4900001D5012018BDF64BCA201C33186053204B
:10E4A0001860F34A121D106820F0A0001060D41309
:10E4B000106800F020000099491C00910099A142C9
:10E4C00001D00028F4D01068800601D5012000E0BA
:10E4D0000020FF21196018BD08B500200090E44914
:10E4E000091D0868400615D44FF0FF3008604B1432
:10E4F000086800F04000009A521C0092009A9A426C
:10E5000001D00028F4D00868400601D5012008BDDC
:10E51000002008BD012008BD78B500240094002526
:10E52000D34ECA201C36306053203060FFF7D4FF32
:10E53000E8B3CF4808380460CD4942F20110091F02
:10E5400008600B1D186800F0070018604D14191DB5
:10E55000086800F00400009A521C0092009AAA4237
:10E5600001D00028F4D00868400701D4002523E03A
:10E5700018681C60BE4A4FF6FF700C321060121F04
:10E58000BC481060BA4814300460001D0460B848EC
:10E5900024300460B64834300460B5483C30046030
:10E5A000001D04600C60B2483830046000E003E0F5
:10E5B000FFF768FF20B10125FF203060284678BDB5
:10E5C0000025F9E7AA48001D016821F080010160DB
:10E5D000704770B504460025A54ECA201C36306031
:10E5E00053203060FFF778FFA0B1A148016821F007
:10E5F0004001016001682268114301609C48A168E4
:10E60000083001600168A28841EA02410160FFF719
:10E61000D9FF0125FF203060284670BD0021016030
:10E620007F214160FF218160704791491C310028A2
:10E6300002D0FF2008607047CA200860532008609D
:10E64000704770B506460024894DCA201C352860E5
:10E6500053202860FFF740FF68B1854826B1016864
:10E6600041F01001016003E0016821F01001016038
:10E67000FFF7A8FF0124FF202860204670BD7C4AD8
:10E68000CA211C321160532111607949002804D03D
:10E69000086840F02000086003E0086800F0DF0030
:10E6A0000860FF2010607047002103E0491CC9B2D8
:10E6B0000A38C0B20A28F9D2090740EA1160704747
:10E6C000010901EB8101490000F00F000844C0B2CC
:10E6D00070472DE9F04105460C4600260020644FA6
:10E6E000002D06D03968490608D52078FFF7E8FFE5
:10E6F00005E03968490602D4E07000E0E07055B1E9
:10E70000A078217840EA01456078E178000240EA8B
:10E71000014005430FE02078FFF7C6FF050460784D
:10E72000FFF7C2FF45EA0025A078FFF7BDFF0543CC
:10E73000E07845EA00454E4CCA201C342060532046
:10E740002060FFF7C9FE78B14B48054048480838BB
:10E750000560FFF737FF3868800604D4FFF792FEA4
:10E7600010B1012600E00126FF2020603046BDE800
:10E77000F0810021C170017041708170704710B547
:10E7800002460C463A48083801683B480140C1F34C
:10E7900005402070C1F30623637001F07F03A3706E
:10E7A00001F48001090CE170002A0AD1FFF788FF0B
:10E7B00020706078FFF784FF6070A078FFF780FF1B
:10E7C000A07010BD2A48203000682949091F096837
:10E7D000704770B505460C460026002D06D16078BE
:10E7E000C10603D520F010000A3060702DB16078AA
:10E7F000FFF766FFA078FFF763FF55B1A078E178D7
:10E8000040EA014560782178000240EA4130054342
:10E810000FE0E078FFF748FF05046078FFF744FF5A
:10E8200045EA0025A078FFF73FFF0543207845EA39
:10E8300040350F4CCA201C34206053202060FFF765
:10E840004BFE80B10D4805400948001F0560FFF7E9
:10E85000B9FE07480068800604D4FFF713FE10B124
:10E86000012600E00126FF202060304670BD000038
:10E8700008280040FF007F007F7F7F003FFFFF00F0
:10E8800001210170817041700021C170704710B585
:10E8900002460C46FE480168FE480140080CE07044
:10E8A000C1F30423637001F03F03A370C1F342314D
:10E8B0002170002A0AD1FFF703FFE0706078FFF7AC
:10E8C000FFFE6070A078FFF7FBFEA07010BD70B572
:10E8D00005460E461446EE490020091D002D06D0BF
:10E8E0000968490608D52078FFF7EAFE05E00968BF
:10E8F000490607D4E07005E0E070A068A8B1207B6D
:10E90000FFF7DEFEADB1A0782178E27840EA014061
:10E910006178090241EA02410843217B40EA016033
:10E92000A1680843616808431CE0207BFFF7C8FE2C
:10E93000E8E72078FFF7B8FE05046078FFF7B4FE3B
:10E9400045EA0025A078FFF7AFFE0543E07845EAE9
:10E950000045207BFFF7A8FEA16845EA0060084358
:10E9600061680843CA49CA2220310A6053220A60FA
:10E97000B6F5807F04D00A1F1060FF20086075E79D
:10E98000C34A18321060F8E70021C170017041706D
:10E9900081708160012202734160704710B50346A7
:10E9A0001446B1F5807F2AD0B9481C300168C1F304
:10E9B00005402070C1F30622627001F07F02A27050
:10E9C00001F48002120CE270C1F30562227301F0BF
:10E9D0008042A26001F080316160002B0ED1FFF710
:10E9E0006FFE20706078FFF76BFE6070A078FFF715
:10E9F00067FEA070207BFFF763FE207310BDA44864
:10EA000018300168D3E738B500220092A04CCA2222
:10EA100020342260532222609D4A121D002904D016
:10EA2000116801431160012015E0116881431160F4
:10EA3000974A08325514116801EA1021009B5B1CAB
:10EA40000093009BAB4201D00029F4D0116811EA79
:10EA5000102F03D00120FF21216038BD0020FAE7EC
:10EA600010B58B4BCA2420331C6053241C60114307
:10EA7000B0F5807F05D0864844300160FF201860E3
:10EA800010BD834840300160F8E7B0F5807F05D0C5
:10EA90007F4844300068C0F30E0070477C48403027
:10EAA0000068C0F30E007047794ACA212032116015
:10EAB000532111607649091D0B6823F007030B6091
:10EAC0000B6803430B60FF20106070477049CA2237
:10EAD00020310A6053220A606D4A10321060FF2014
:10EAE000086070476A481030006880B2704718B5F7
:10EAF00000210091664BCA2120331960532119600F
:10EB00006349091D002805D0086840F4806008604A
:10EB1000012017E0086820F4806008605C4A083231
:10EB20005414106800F004000099491C00910099E9
:10EB3000A14201D00028F4D01068400701D4002081
:10EB400000E00120FF21196018BD10B5504BCA220A
:10EB500020331A6053221A604D4A121D146824F49F
:10EB6000802414601468084304431460FF20186074
:10EB700010BD4748001D006800F48020704710B5A4
:10EB8000434BCA2220331A6053221A60404A121D96
:10EB9000146824F4E0041460146808430443146007
:10EBA000FF20186010BD3A4ACA212032116053215B
:10EBB00011603749091D002804D0086840F400009E
:10EBC000086003E0086820F400000860FF2010607F
:10EBD00070472F4ACA2120321160532111602C49FD
:10EBE000091D0B6823F400230B600B6803430B60C3
:10EBF000FF2010607047F0B50023254ECA24203650
:10EC0000346053243460224C08342568ED0307D562
:10EC1000A71400E05B1C2568ED0301D5BB42F9D1C8
:10EC20002368DB0306D408431949104338310860D0
:10EC3000012000E00020FF213160F0BD10B5144B31
:10EC40001B1D1A6840F60804A243002903D00243A2
:10EC500042F4006200E002430D48CA212030016006
:10EC6000532101601A60FF21016010BD70B50C4690
:10EC7000154607492C310968074A1140044A3032C9
:10EC800012684FF63F731A40C1F30543237005E045
:10EC9000042800403FFFFF007F7F7F00C1F3062371
:10ECA000637001F07F03A37001F48001090CE1702F
:10ECB0000021E970C2F30421697002F03F01A970DC
:10ECC000C2F342312970002817D12078FFF7F8FCF1
:10ECD00020706078FFF7F4FC6070A078FFF7F0FC1C
:10ECE000A0706878FFF7ECFC6870A878FFF7E8FC84
:10ECF000A8702878FFF7E4FC2870B7E58248006820
:10ED00007047814A0832002904D0116841EA400066
:10ED100010607047116821EA4000106070477A4A1D
:10ED20000832002903D0116801431160704711684F
:10ED3000814311607047744908310A6822F4C05257
:10ED40000A600A6802430A6070476F4908310A681E
:10ED500022F4E0620A600A6802430A6070476A4966
:10ED600008310A6822F4C0420A600A6802430A6055
:10ED7000704765490831002804D0086840F08000D9
:10ED800008607047086820F08000086070475E499E
:10ED90000831002804D0086820F40040086070475B
:10EDA000086840F400400860704708B5564A1832B9
:10EDB00002EB800000900098016008BD08B5524940
:10EDC000183101EB800000900098006808BD4E49A2
:10EDD00008310A6822F480220A600A6802430A6045
:10EDE000704770B50022484DCA23143D2B60532351
:10EDF0002B60454B2C3B1C68240707D55E1400E0B4
:10EE0000521C1C68240701D5B242F9D11A681207B6
:10EE100011D43D4A303A1268D2060AD401433A4826
:10EE20000C380160FFF72EFB08B1012004E0002040
:10EE300002E0002000E00020FF21296016E530B547
:10EE4000314DCA22143D2A6053222A602E4C2E4B8B
:10EE5000303C20F00402083300F00400002906D002
:10EE600021681143216019680143196005E0216898
:10EE700091432160196881431960FF20286030BDEB
:10EE80000246002020492C390968204B19401142C4
:10EE900000D001207047C0F3100040F08000C14353
:10EEA00019482C38026802F0800211430160704753
:10EEB00010B50021144A0832126802F00403124A05
:10EEC000303A1268840C20FA04F4024003EAD43386
:10EED0001A430D4B2C3B1B6803EA1010002A03D089
:10EEE0000004000C00D00121084610BD000980B2CA
:10EEF00040F08000C14304482C38026802F08002D0
:10EF00001143016070470000382800407FFF010076
:10EF100010B5E94988420AD1841401212046FFF73F
:10EF200078FA2046BDE810400021FFF772BAE349A5
:10EF300088420AD1041401212046FFF775FA2046C1
:10EF4000BDE810400021FFF76FBADD49CC138842BD
:10EF500009D101212046FFF767FA2046BDE810409D
:10EF60000021FFF761BAD749884209D10121204623
:10EF7000FFF74FFA2046BDE810400021FFF749BADD
:10EF800010BD0021018041804FF4E0628280C18089
:10EF9000018141818181C18107210182704730B5A2
:10EFA0004A88B2F5827F1ED0828822F470638A88F4
:10EFB0001A438280028802F44153CA880C898D89E1
:10EFC00022434C892C43CD892C4322430C884D8805
:10EFD0002C4322431A430280828B22F400628283F4
:10EFE000098A018230BD028802F44153CA880C8923
:10EFF0008D8922434C892C43CD892C4322430C8894
:10F0000044F4827422431A430280828822F470639B
:10F010008A881A438280DFE7002101804180818055
:10F02000C1800222826081817047F0B597B00546A9
:10F030000C46022000210126AA8B4FF240031A4001
:10F04000AA8302222A84AF8BA268022A21D0A08838
:10F0500000B102266846FEF76AFF0098E188B1F524
:10F06000007F2CD07101B0FBF1F000EB8000A168B3
:10F070004000B0FBF1F0401D80B20A21B0FBF1F07E
:10F0800000F00101401AC0F34F004FF6FF7202EA90
:10F090000121821EFE2A01D302200021E2880843BA
:10F0A00002432A8420886188A2890843A1881143E9
:10F0B0000843384340F40060A88317B0F0BD000A4D
:10F0C00000EB8000A1684000B0FBF1F0401D80B271
:10F0D000D3E7002904D0018841F040010180704746
:10F0E000018821F0400101807047002904D0818807
:10F0F00041F0100181807047818821F010018180EA
:10F100007047002904D0818B41F48061818370476E
:10F11000818B21F4806181837047828822F4706240
:10F120000A4382807047828822F4805282808288DB
:10F130000A4382807047B1F5804F04D0018821F4E2
:10F14000804101807047018841F48041018070470F
:10F15000A1F57E42FF3A04D0018841F4807101801C
:10F160007047018821F480710180704730B5002319
:10F17000828B4FF240042240828302220284848BDD
:10F180000A884FF48075B2F5007F00D002B92B4693
:10F190004A888D8889892A4319430A43224342F4C5
:10F1A0000061818330BD002904D0818841F00401D1
:10F1B00081807047818821F0040181807047002997
:10F1C00004D0818841F0080181807047818821F056
:10F1D0000801818070470173704781817047007B0F
:10F1E000704780897047028822F40062028002889A
:10F1F0000A4302807047002904D0018841F400517D
:10F2000001807047018821F4005101807047018816
:10F2100041F4805101807047012901D0008B704773
:10F22000808A7047008A7047002A03D082880A4388
:10F230008280704782888A4382807047828822F465
:10F24000C042828082880A43828070470909012374
:10F250008B4099B2002A03D082880A43828070478B
:10F2600082888A4382807047008900F4C0507047CA
:10F27000008900F4C06070470246002012890A42EB
:10F2800000D001207047C9430181704730B5024664
:10F29000002001F00F03012505FA03F4A3B20909C8
:10F2A00005FA01F4A4B29188214012891A4202D0D1
:10F2B000002900D0012030BD00300140003800405E
:10F2C000003C0040003C01404D48016801F007014E
:10F2D0000160016841F0F8410160002141608160F6
:10F2E000C160016141618161016581647047444A87
:10F2F000116821F00701014311607047404A00285E
:10F3000008DB19B11168014311607047116881432E
:10F310001160704719B1116D014311657047116D8E
:10F32000814311657047364A002808DB19B111681E
:10F33000014311607047116881431160704719B132
:10F34000116D014311657047116D8143116570475F
:10F350002B490A6822F440020A600A6802430A60E4
:10F360007047284948617047254A002903D0116831
:10F370000143116070471168814311607047204A52
:10F38000002903D01168014311607047116881435F
:10F390001160704710B58A07120F0F23934021F0B8
:10F3A0000304174921448C689C438C608B6890400F
:10F3B00003438B6010BD12498A6902438A6170471A
:10F3C00011490120086070470D4A002903D0916C53
:10F3D000014391647047916C81439164704708497F
:10F3E0004A6802434A607047002005498969C90597
:10F3F00000D50120704702498A6902438A6170473B
:10F4000000000140000020421003204210B5FE49D8
:10F4100088420AD1C41401212046FEF7FAFF204693
:10F42000BDE810400021FEF7F4BFB0F1804F0CD0D2
:10F43000F649884213D101210220FEF7F5FF002191
:10F44000BDE810400220FEF7EFBF01210846FEF79D
:10F45000EBFF0021BDE810400120FEF7E5BFEC49BD
:10F46000884209D101210420FEF7DEFF0021BDE81A
:10F4700010400420FEF7D8BFE649884209D1012197
:10F480001020FEF7D1FF0021BDE810401020FEF74C
:10F49000CBBFE149884209D101212020FEF7C4FFFA
:10F4A0000021BDE810402020FEF7BEBFDB498842A6
:10F4B0000AD1441401212046FEF7ABFF2046BDE8E7
:10F4C00010400021FEF7A5BFD54988420AD101218D
:10F4D0000C042046FEF79DFF2046BDE810400021A9
:10F4E000FEF797BFCF4988420AD101214C0420463C
:10F4F000FEF78FFF2046BDE810400021FEF789BFD0
:10F50000C94988420AD101218C042046FEF781FFB7
:10F510002046BDE810400021FEF77BBFC34988426A
:10F520000AD101210C052046FEF773FF2046BDE8F5
:10F5300010400021FEF76DBF10BD70B50288B24CBF
:10F54000B64DBA4EA0420CD0A8420AD0B0F1804FBE
:10F5500007D0AE4B984204D0AD4B984201D0B04298
:10F5600003D122F070034A881A43AA4B984206D06E
:10F57000A94B984203D022F440730A891A430280AF
:10F580004A68C2620A880285A0420CD0A8420AD00A
:10F59000A34A904207D0A34A904204D0A24A904284
:10F5A00001D0B04201D1498901860121416170BD7C
:10F5B0004FF0FF3141600021018001814180418194
:10F5C0007047018542617047028822F070020A4349
:10F5D0000280704741627047C1627047406A70475D
:10F5E000008D7047002904D0018841F0020101809C
:10F5F0007047018821F0020101807047002904D082
:10F60000018841F0040101807047018821F0040164
:10F6100001807047002904D0018841F40061018015
:10F620007047018821F4006101807047002904D0EF
:10F63000018841F0800101807047018821F080013C
:10F6400001807047028822F00802028002880A4383
:10F6500002807047028822F44072028002880A43C6
:10F6600002807047002904D0018841F00101018027
:10F670007047018821F001010180704730B5026AAE
:10F6800022F001020262056A43688269684C2240E6
:10F6900022F003020C68144325F002028D89154301
:10F6A0008A882A43584DA8420BD05C4DA84208D006
:10F6B0005B4DA84205D05B4DA84202D05A4DA842EE
:10F6C0000FD122F00805CA892A4322F00405CA880E
:10F6D0002A4323F4807323F400730D8A1D434B8A5D
:10F6E0002B434360846189684163026230BD30B559
:10F6F000026A22F010020262056A426883694D4C78
:10F70000234023F440730C6843EA042425F02003CB
:10F710008D8943EA05138D8843EA05133A4DA842C3
:10F7200002D03E4DA84213D123F08003CD8943EA95
:10F73000051323F04003CD8843EA051322F48062C9
:10F7400022F400620D8A42EA85024D8A42EA85026D
:10F750004260846189688163036230BD30B5026AAA
:10F7600022F480720262026A4368C46924F0700461
:10F7700024F003050C682C4322F400728D8942EAC0
:10F7800005228D8842EA05221F4DA84202D0234D52
:10F79000A84213D122F40062CD8942EA052222F464
:10F7A0008062CD8842EA052223F4805323F400537B
:10F7B0000D8A43EA05134D8A43EA05134360C46189
:10F7C0008968C163026230BD30B5026A22F480529A
:10F7D0000262036A4268C46924F4E04424F4407479
:10F7E0000D6844EA052423F400538D8943EA053368
:10F7F0008D8843EA0533044DA84202D0074DA84244
:10F800001DD122F4804217E0002C0140000400408A
:10F810000008004000100040001400400034014087
:10F8200000400140004401400048014000500140B8
:10F830008FFFFEFFFF8FFFFE0D8A42EA85124260B6
:10F84000C46189680164036230BD30B5026A22F484
:10F8500080320262046A4268436D23F070050B68CF
:10F860002B4324F400348D8944EA05448D8844EA0E
:10F870000544F84DA84202D0F74DA84204D122F425
:10F8800080320D8A42EA054242604365896881659B
:10F89000046230BD30B5026A22F480120262036A4B
:10F8A0004268446D24F4E0440D6844EA052423F4DE
:10F8B00000138D8943EA05538D8843EA0553E54DCE
:10F8C000A84202D0E44DA84201D122F400324260A5
:10F8D00044658968C165036230BD002904D0816D2B
:10F8E00041F0005181657047816D21F000518165C3
:10F8F0007047002904D0816D41F0804181657047D7
:10F90000816D21F0804181657047002904D0816DAF
:10F9100041F0004181657047816D21F000418165B2
:10F920007047002101608180C18081608181C18137
:10F9300001824182704730B500F1180301248C40E8
:10F94000056AE443A4B22540056200290DD00829C8
:10F950000BD0091F03EB51000168C04B1940016037
:10F96000016841EA0221016030BD03EB51000168EA
:10F97000BB4B1940016001681143016030BD416318
:10F98000704781637047C163704701647047816548
:10F990007047C16570478269B14B1A400A43826162
:10F9A00070478269AD4B1A4042EA0121816170477C
:10F9B000C26922F070020A43C2617047C26922F430
:10F9C000E04242EA0121C1617047426D22F07002BB
:10F9D0000A4342657047426D22F4E04242EA012147
:10F9E00041657047826922F008020A4382617047CC
:10F9F000826922F4006242EA012181617047C26992
:10FA000022F008020A43C2617047C26922F4006210
:10FA100042EA0121C1617047426D22F008020A43A7
:10FA200042657047426D22F4006242EA012141655D
:10FA30007047826922F004020A438261704782693A
:10FA400022F4806242EA012181617047C26922F09A
:10FA500004020A43C2617047C26922F4806242EA2A
:10FA60000121C1617047826922F080020A438261EC
:10FA70007047826922F4004242EA012181617047A5
:10FA8000C26922F080020A43C2617047C26922F44F
:10FA9000004242EA0121C1617047426D22F08002BA
:10FAA0000A4342657047426D22F4004242EA012156
:10FAB0004165704782684FF6F7731A40826082682A
:10FAC0000A4382607047026A22F002020A4302621D
:10FAD0007047026A22F008020A4302627047026A13
:10FAE00022F0200242EA011101627047026A22F00C
:10FAF000800242EA011101627047026A22F4007238
:10FB000042EA012101627047026A22F4006242EA7D
:10FB1000012101627047026A22F4005242EA013177
:10FB200001627047026A22F4003242EA0141016236
:10FB30007047026A22F4001242EA015101627047E2
:10FB400010B501238B40046A9C430462036A8A4017
:10FB50001343036210BD10B504238B40046A9C4319
:10FB60000462036A8A401343036210BDC2694FF204
:10FB7000FF331A40C261C2694FF6FF7303EA0121E5
:10FB80000A43C2617047F0B5046A4EF6FF752C4017
:10FB90000462C469A7B2046AA5B24FF6FF7404EA0E
:10FBA000013627F4734704EA0221394304EA033299
:10FBB0000A4325F42041314341F48051C26101627E
:10FBC000F0BDC2694FF6F3731A40C261C2690A43BD
:10FBD000C2617047F0B5046A4FF6FF652C400462BD
:10FBE000C469A4B2056AAEB24FF6FF7707EA0125F1
:10FBF00024F0F30407EA03111143214326F42062A1
:10FC00002A4342F48072C1610262F0BD826922F42B
:10FC100040628261826942EA01218161704770B568
:10FC2000046A4FF6EF752C4004628569046A4FF64A
:10FC3000FF7606EA011125F4734545EA033343EAEA
:10FC400002224FF65F731C4041F010012143826194
:10FC5000016270BD002C014000340140FF8FFFFEA7
:10FC60008FFFFEFF826922F00C02826182690A43E3
:10FC70008261704730B5046A24F00104046285692A
:10FC8000046A25F0F30542EA03122A4324F00A032A
:10FC90000B4343F001018261016230BD70B506463D
:10FCA0000C4625886188A2882389002D0BD0042D5D
:10FCB00011D0082D17D03046FFF765FFE188304698
:10FCC000BDE8704052E73046FFF7D4FFE188304688
:10FCD000BDE87040C6E73046FFF7A1FFE188304637
:10FCE000BDE8704092E73046FFF774FFE188304688
:10FCF000BDE8704065E700210180418001228280DB
:10FD0000C180018170472DE9F04107460C4600256E
:10FD100001266188002900D10225A288012A00D18C
:10FD200002262088238988B13846FFF778FFE188CA
:10FD30003846FFF76BFF2389324629463846FFF7DE
:10FD400099FFE1883846BDE8F0418BE73846FFF778
:10FD500091FFE1883846FFF785FF2389324629461F
:10FD60003846FFF75CFFE1883846BDE8F0414DE7D3
:10FD7000406B7047806B7047C06B7047006C70477A
:10FD800010B50A884B88CC881A438B8823431A43C2
:10FD90000B891A434B8989891A430A43426410BD6F
:10FDA000436C23F472234364436C41EA02410B43E6
:10FDB00043647047436C23F03C734364436C41EAF3
:10FDC00002510B4343647047002904D0416C41F455
:10FDD000805141647047416C21F480514164704707
:10FDE000002904D0416C41F0807141647047416C3E
:10FDF00021F0807141647047002101804180818041
:10FE0000C1800181418181817047002904D0416C0A
:10FE100041F4004141647047416CC1F30E014164FB
:10FE20007047002904D0416841F0040141607047E7
:10FE300041684FF6FB72114041607047002904D0C1
:10FE4000416841F001014160704741684FF6FE7220
:10FE5000114041607047002A03D0C2680A43C26063
:10FE60007047C268C94389B20A40C26070474161A5
:10FE700070470246002012690A4200D001207047F4
:10FE8000C94389B2016170470246002013690B40E3
:10FE9000D2680A40002B02D0002A00D0012070470F
:10FEA000C94389B2016170471143A0F848107047F7
:10FEB000002A03D0C2680A43C2607047C268C943BF
:10FEC00089B20A40C2607047002904D0416841F0FD
:10FED00008014160704741684FF6F7721140416078
:10FEE000704781684FF6F8721140816070478268F0
:10FEF00092B222F070020A438260704700B5034656
:10FF00001846FFF7F4FF986840F00700986000BDBE
:10FF100070B50D4604461146602D0CD001222046D6
:10FF2000FFF7A8FE29462046FFF7E1FFA06840F052
:10FF30000700A0608DE601222046FFF770FEF1E782
:10FF400030B58468E4B24FF6FF7505EA0323134326
:10FF50000B432343836030BD10B504462046FFF7B2
:10FF6000EFFFA06880B220F0070040F0070020F00B
:10FF7000700040F07000A06010BD10B5044620462F
:10FF8000FFF7DEFFA06840F48040A06010BD42682B
:10FF90004FF68F731A40426042680A4342607047CE
:10FFA000426822F47002426042680A43426070472D
:10FFB00082681E4B1A40826082680A4382607047E2
:10FFC00082684FF67F731A40826082680A438260BB
:10FFD000704770B58468A5B28469A4B2066AB6B2E7
:10FFE00025F007050D434FF6FC410C4040F201118E
:10FFF0000C4326F022064FF6FF7101EA031111436C
:020000040801F1
:10000000314385608461016223E6002904D04168A0
:1000100041F080014160704741684FF67F721140A6
:1000200041607047A0F8501070470000F8FFFEFFD5
:1000300010B5F74988420AD101218C032046FEF70A
:10004000E8F92046BDE810400021FEF7E2B9F14989
:1000500088420AD101214C042046FEF7E5F92046EA
:10006000BDE810400021FEF7DFB9EB4988420AD114
:1000700001218C042046FEF7D7F92046BDE8104048
:100080000021FEF7D1B9E54988420AD10121CC040B
:100090002046FEF7C9F92046BDE810400021FEF7D2
:1000A000C3B9DF4988420AD101210C052046FEF779
:1000B000BBF92046BDE810400021FEF7B5B910BDE0
:1000C00030B597B004460D46206820F0010020604E
:1000D000606820F44051A86808436060206841F2DD
:1000E0000C618843EA68696811432A690243114335
:1000F0002160A06820F4407069690143A1606846EE
:10010000FDF715FFC248844201D10E990FE0C148A6
:10011000844201D10F990AE0BF48844201D110996D
:1001200005E0BE48844201D1119900E0129920688F
:10013000000408D52A684900B1FBF2F0B1FBF2F3E4
:1001400002FB131106E02A68B1FBF2F0B1FBF2F3F7
:1001500002FB13112A68B1EB520F00D3401C216837
:10016000090405D5C0F342014FF6F0721040084370
:10017000A08117B030BD4FF41651016000214160DD
:100180008160C1600C2202614161704710B5426814
:1001900022F47062D1E900342343D1E902410C43D7
:1001A00023431343436010BD00210160416081601F
:1001B000C1607047002904D0016841F0010101606D
:1001C0007047016821F0010101607047002A03D0E7
:1001D00002680A430260704702688A4302607047FF
:1001E000002904D0016841F40041016070470168B2
:1001F00021F4004101607047002904D0816841F476
:10020000006181607047816821F4006181607047FE
:10021000002904D0416841F40021416070474168E1
:1002200021F4002141607047002904D0416841F465
:10023000802141607047416821F48021416070470E
:10024000002A03D042680A434260704742688A43EA
:1002500042607047002904D0416841F40041416088
:100260007047416821F4004141607047002904D083
:10027000416841F4000141607047416821F4000188
:1002800041607047426902F07F42426142690A431D
:1002900042617047028A02F47F420282028A0A4364
:1002A00002827047002904D0016841F00201016018
:1002B0007047016821F0020101607047826822F4F2
:1002C0004012826082680A4382607047002904D02D
:1002D000416841F4801141607047416821F4801108
:1002E00041607047426822F4C002426042680A439B
:1002F00042607047C1F3080101857047808CC0F3EC
:1003000008007047426822F07F424260426842EA39
:10031000016141607047002904D0016841F4005137
:1003200001607047016821F4005101607047026864
:1003300022F40062026002680A4302607047426869
:1003400022F01002426042680A43426070474268ED
:1003500022F02002426042680A434260704700294E
:1003600004D0416841F4804141607047416821F404
:10037000804141607047002904D0816841F0080144
:1003800081607047816821F0080181607047028AAE
:10039000D2B20282028A42EA012101827047002918
:1003A00004D0816841F0200181607047816821F0AC
:1003B000200181607047002904D0816841F010015C
:1003C00081607047816821F0100181607047826808
:1003D00022F460228260826842EA41418160704773
:1003E000426922F07F424261426942EA0161416111
:1003F0007047826822F00402826082680A43826049
:10040000704700290ED0816841F002018160704779
:10041000003801400044004000480040004C0040CB
:1004200000500040816821F002018160EFE700295F
:1004300004D0816841F480418160E8E7816821F45B
:1004400080418160E3E7826822F400428260826832
:100450000A438260DBE7026822F078720260026879
:1004600042EA41510160D2E7026822F4F8120260C8
:10047000026842EA01410160C9E7002A03D08268AC
:100480000A438260C3E782688A438260BFE782686A
:1004900022F40052826082680A438260B7E710B596
:1004A000C1F3072401238B40022C02D0032C02D07D
:1004B00002E0001D00E008301AB101681943016034
:1004C00010BD01689943016010BD002A03D0028B62
:1004D0000A4302839BE7028B8A43028397E7826881
:1004E00022F48052826082680A4382608FE702466B
:1004F0000020D2690A428AD0012088E7016286E79B
:1005000030B50024C1F30723012505FA01F2012BC0
:100510000CD0022B0DD083681340090C8D40C069AC
:1005200028400BB100B10124204630BD03681340C0
:10053000F3E743681340F0E7090C01228A400262A6
:1005400065E7000010B501210C072046FDF76CFFA0
:100550002046BDE810400021FDF766BF294908622A
:100560007047294A116821F0E0010143116070478A
:10057000244908617047244A002903D05168014387
:100580005160704751688143516070471F490A6844
:1005900022F004020A60012803D040BF20BF20BF20
:1005A000704730BF7047184B1A6822F003020243AD
:1005B0001A601648026842F004020260012905D060
:1005C00020BF016821F004010160704730BFF8E7E7
:1005D0000D48016841F0020101600C48016841F0DA
:1005E0000401016030BF704701460020064A52688E
:1005F0000A4200D00120704703490A6842EA80009D
:100600000860704700000E420070004010ED00E0EE
:1006100070477FB501210846FDF7E5FE4FF08045A4
:100620002846FEF7F3FE40F2CF71029140F26711C7
:10063000ADF804100024ADF80C40ADF8064001A957
:100640002846FEF77AFF01212846FFF719FC012210
:1006500011462846FFF7FFFB01212846FFF702F865
:100660004FF44070FDF74CFB1C208DF80000052076
:100670008DF801008DF8024001208DF803006846D6
:10068000FDF743FB7FBD3EB501210420FDF7ABFE26
:10069000D34C2046FEF7BAFE44F61F61019140F6A6
:1006A0000F61ADF800100021ADF80810ADF8021090
:1006B00069462046FEF741FF00212046FEF7D2FFA3
:1006C00000212046FEF786FF01212046FFF7D8FBD8
:1006D00001212046FEF7C6FF3EBD10B5FFF7D3FF50
:1006E000BDE8104018F04BBB10B5044645F255501C
:1006F000FDF7E6FA0620FDF7E6FA40F6FF70FDF793
:10070000E5FAFDF7E6FAFDF7ECFAB649216010BD0F
:1007100030B587B0B448007B01282FD002282FD0F5
:1007200004282FD008282FD010282FD020282FD0F1
:1007300040282FD0ADA1AF4C94F8590002282BD0FF
:1007400094F85900002877D094F84A00002866D021
:1007500094F84A00012864D094F84A00022863D033
:1007600094F84A00032861D094F84A0004285FD026
:1007700094F84A0005285DD09FA05EE0A0A1DAE7CA
:10078000A3A1D8E7A5A1D6E7A7A1D4E7A9A1D2E75D
:10079000ACA1D0E7AFA1CEE794F84A0048B394F8F3
:1007A0004A00012827D094F84A00022825D094F85E
:1007B0004A00032823D094F84A00042821D094F852
:1007C0004A0005281FD094F84A0006281DD094F846
:1007D0004A0007281BD094F84A00082819D094F83A
:1007E0004A00092817D094F84A000A2815D082A098
:1007F00023E09BA021E0A1A01FE0A7A01DE0ACA0EA
:100800001BE0ABA019E0AEA017E0B1A015E0B4A0CA
:1008100013E0B9A011E0BDA00FE0C0A00DE0C3A09F
:100820000BE0CAA009E007E0D0A006E0D5A004E0F4
:10083000D9A002E0DDA000E0E2A094F84C20012A5B
:1008400011D0E2A2684D903DAB6893F8A03063B13F
:10085000DEA3CDE90232CDE90401686890F83200E8
:1008600028B196A004E095A2ECE794A3F1E7D7A005
:1008700060491C39CDE90010206803792068C278EE
:1008800020688178D34826F061FF07B030BD2DE99C
:10089000F0472DED028B8AB00024DFF858A1DAF87A
:1008A000140090F82E0005285DD0DAF8140090F8B6
:1008B0002E00012859D0DAF8140090F82E000328F1
:1008C00055D0DAF8140090F82E00022851D0DAF84A
:1008D000140090F82E0004284DD0BFA2DFF8089134
:1008E000A9F19009D9F80810BDA0523126F02EFFC9
:1008F000C64BC7A09A1F02F10E0126F027FF9AF8F7
:100900005E209AF85C10A9F5C873C8A026F01EFFF7
:100910009AF85F10D2A026F019FF9AF85B00012820
:100920002BD0D6A2DAF85410D6A026F00FFFD9F8B3
:100930002000818DB022DBA026F008FF9AF8360057
:10094000800720D5D9F8200090F82E00400616D553
:10095000DAF87400DAF87010DAF87420411AD8A0C6
:1009600026F0F4FE19E0DFA2B8E7E1A2B6E7E2A2C2
:10097000B4E7E3A2B2E7E4A2B0E7E9A2D2E7EAA0D3
:1009800026F0E4FE09E0DAF87400DAF87010DAF81C
:100990007420411ACAA026F0D9FE9C4D423D298AF6
:1009A000E8A026F0D3FE698AECA026F0CFFE9AF8E4
:1009B0006D00122810D0EFA1EFA026F0C7FEDAF8E4
:1009C0004010F3A026F0C2FED9F80400007E28B142
:1009D000F6A026F0BBFEFEE1FBA1EDE7F8E100008A
:1009E00000080040D3DC000874090020556E6B6ECF
:1009F0006F770000F4060020554E4B4E4F57000015
:100A0000436F6E6669674661696C6564000000004B
:100A1000536F667452657365740000004957445201
:100A20006573657400000000575744526573657420
:100A3000000000004C505752525354526573657475
:100A400000000000506F7765724F6E5265736574D9
:100A500000000000436F6E666967204F4B00000086
:100A6000494D475F5245535F57414954494E475F8F
:100A700053454E44494E475F434D4400494D475FFF
:100A80005245535F57414954494E475F5245505F65
:100A90005041434B41474500494D475F5245535FE5
:100AA000434845434B53554D5F4552524F5200000A
:100AB000494D475F5245535F5049435F4F4B0000DC
:100AC000494D475F5245535F54494D454F5554007A
:100AD000494D475F5245535F5049435F45520000BF
:100AE000494D475F5245535F57524954494E475FFE
:100AF0004641494C00000000494D475F5245535F55
:100B000057524954494E475F4F4B0000494D475F8C
:100B10005245535F53454E44494E4700494D475F48
:100B20005245535F5049435F415600004655454C7E
:100B30005F5245535F57414954494E475F53454EB5
:100B400044494E475F434D44000000004655454C24
:100B50005F5245535F57414954494E475F52455391
:100B6000504F4E53455F56414C5545004655454CF8
:100B70005F5245535F434845434B53554D5F455284
:100B8000524F52004655454C5F5245535F524553B4
:100B9000554C545F4F4B00004655454C5F524553F2
:100BA0005F54494D454F5554000000004655454C93
:100BB0005F5245535F5041434B4147455F45525259
:100BC0004F5200004E4F5420555345004661756CFE
:100BD00074000000EC860308554E4B4E4F574E00F4
:100BE0005B54473130322D547261636B65722C2037
:100BF000496E7374616E7420766965776572202D15
:100C0000202573202D2025735D0A0000860000201A
:100C100056657273696F6E202020202020202020CE
:100C2000203A20257325732E25730A0052657374AC
:100C300061727420696E666F20202020203A202582
:100C4000642C206175746F20696E74657276616CB6
:100C50003A2025642C206C6173743A2025730A00B5
:100C600057616B655570496E74657276616C2020B2
:100C7000203A202564286D696E290A00756E73611B
:100C80006665000052756E6E696E672074696D65E9
:100C900020202020203A202564202868292C202587
:100CA000730A000054656D70657261747572652019
:100CB00020202020203A2025642563430A000000DC
:100CC0004D656D6F72792875736167652F4361702B
:100CD0006163697479293A2025642F2564202842AC
:100CE000290A0000534F494C442053544F500000F0
:100CF00052455354494E470053544F5050454400B9
:100D000052554E4E494E470052554E4E494E472081
:100D1000494E204F5645525350454544000000006F
:100D200073616665000000005344206361726420B3
:100D30006973206E6F7420696E73657274656421C7
:100D40000A0000005461736B312072756E6E696E1B
:100D500067202020203A2025640A00005461736B2C
:100D6000322072756E6E696E67202020203A202531
:100D7000640A00006F66660044617461206C6F67EE
:100D80006765722020202020203A2025730A000069
:100D900053797374656D2E53757370656E6420207E
:100DA000203A20307825780A000000004750532070
:100DB0007369676E616C202020202020203A204734
:100DC0006F6F640A0000000077726974696E6700D3
:100DD000C3A026F0BBFCD9F80400C07E00287CD05C
:100DE000D9F80400C07E012878D0D9F80400C07E6C
:100DF000022874D0D9F80400C07E042870D0D9F835
:100E00000400C07E03286CD0AFF21441BCA026F0D1
:100E10009DFCD9F80400017DBFA026F097FCD9F80D
:100E2000080090F88C10C2A026F090FCD9F80800B9
:100E300090F88A10C5A026F089FCBAF84820DAF8A4
:100E40000800C189C7A026F081FCDAF85010CCA0B8
:100E500026F07CFCD9F808008D3017F025FB014600
:100E6000CFA026F073FCD9F80800923017F01CFBD5
:100E70000146D2A026F06AFCD9F808004068418DEE
:100E8000D5A026F063FCD9F808004168DBA0491C16
:100E900026F05CFCD9F80800406890F82000022891
:100EA0005ED0DCA3DAF82020DAF8201039321531D0
:100EB000DCA026F04BFC9AF87D00002852D0DCA084
:100EC0000090D9F80800406890F8210002284BD023
:100ED000D0A3DAF82020643204E037E038E039E0CB
:100EE0003AE03BE0DAF82010D4A0403126F02EFCA6
:100EF0009AF8590098B19AF8590002280FD09AF838
:100F0000590004280BD0D1489AF85910C28FD0A0AC
:100F100026F01CFC9AF84A10D3A026F017FC9AF889
:100F20003500800622D5D6A026F010FCDAF8100095
:100F3000407910B1D9A026F009FCDAF81000007948
:100F4000002816D0DCA026F001FC12E0E1A15DE74C
:100F5000E4A15BE7E8A159E7ECA157E7EEA155E76B
:100F6000ADA39FE7F2A0ABE7ABA3B2E7F4A026F0F6
:100F7000EDFBDAF80800806825F0C7FE0546DAF8D0
:100F800008000E46406825F0C0FE0746D9F8280044
:100F90008846006825F0B9FE41EC100BD9F828000E
:100FA000407A04287ED0D9F82800407A03287AD0E5
:100FB000D9F82800407A012876D0D9F82800407A5C
:100FC000022872D0E5A0CDE90278CDE9045606905A
:100FD000DAF80C00C079D9F82010C989CDE90010E1
:100FE00053EC102BE14826F0B1FBD9F828004068FB
:100FF00025F08BFE41EC100BD9F82800007A04286C
:101000006AD0D9F82800007A032866D0D9F82800D9
:10101000007A012862D0D9F82800007A02285ED030
:10102000CEA0DAF80810DAF80820497B127BDAF84B
:101030000C301B7ACDE90132CDE90310D9F820003C
:101040008089009053EC102BC94826F07FFBD9F81B
:101050002000008900EE100AB8EE400A9FEDC58A14
:1010600020EE080A10EE100A25F04FFE41EC100B9E
:10107000D9F82000018953EC102BBFA026F066FBA5
:10108000D9F82000408900EE100AB8EE400A20EEA0
:10109000080A10EE100A25F038FE41EC100BD9F8C2
:1010A000200003E0A5E1A6E1A7E1A8E1418953EC16
:1010B000102BBAA026F04AFBD9F82000828CD9F870
:1010C00020004169BEA026F041FBD9F82000C28C67
:1010D000D9F82000C16981E193E194E195E196E1BD
:1010E000475053207369676E616C202020202020B8
:1010F000203A206E6F7420676F6F640A0000000052
:101100004750534F7065726174696F6E4D6F6465BF
:10111000203A2025730A0000536174656C6C697471
:101120006573206E756D6265723A2025640A000051
:1011300047534D206E6574776F726B206E616D65DD
:10114000203A205B25645D0A0000000047534D20D3
:101150007369676E616C20737472656E673A2025DF
:10116000640A0000534D5320636F756E74657220DE
:1011700020202020203A2025642F25640A0000002A
:1011800042797465436F6E7574657220202020204B
:10119000203A202564202862797465290A0000001D
:1011A0004C4253207C5F204C4143202020202020B3
:1011B000203A20307825780A0000000020202020E6
:1011C0007C5F20434944202020202020203A2030EA
:1011D0007825780A00000000475052532020202034
:1011E0002020202020202020203A20617661696C78
:1011F00061626C652C2025640A0000004C6F6361FD
:101200006C2049502020202020202020203A20251A
:10121000730A00006E6F7420636F6E6E6563746591
:101220006400000025732F25733A2025730A0000FF
:1012300041637469766174656400000025732F252D
:10124000733A2025732D25730A000000D007002073
:101250004675656C2073656E736F725B25645D20E7
:10126000203A2025640A0000455854525332333244
:101270005F315F5374617475733A2025640A00000E
:1012800042757A7A6572202020202020202020209C
:10129000203A20696E207573650A0000416C617206
:1012A0006D20436F6E74692044726976696E673A87
:1012B000204F6E0A00000000416C61726D204F7675
:1012C00065722073706565642020203A204F6E0A95
:1012D000000000004750535F4E4F4D414C5F4D4F53
:1012E000444500004750535F5354414E4442595FB8
:1012F0004D4F4445000000004750535F5045524950
:101300004F4449435F4D4F44450000004750535FF1
:101310004641554C540000004750535F414C5741E3
:10132000594C4F434154455F4D4F44450000000028
:101330006E6F742061637469766174656400000087
:1013400042757A7A657220202020202020202020DB
:10135000203A206E6F74207573650A00564F4C5FFB
:10136000494E5F52414E474500000000A4860308E5
:10137000608603088FFC413B4144432031203132D9
:10138000562D2D2D2D2D2D2D2D3A202564203C2D33
:101390003E2025322E336620560A00004144432069
:1013A00032203132562D2D2D2D2D2D2D2D3A20254B
:1013B00064203C2D3E2025322E336620560A000044
:1013C00050756C736531436E742F46312020202098
:1013D000203A2025642F25640A000000B0A026F0E2
:1013E000B5F9D9F8200090F82E00400711D5B3A127
:1013F00010E0B3A0E7E5B5A0E5E5B7A0E3E5BCA044
:10140000E1E5AFA00DE6C0A00BE6B3A009E6B8A0E9
:1014100007E6C2A1C2A026F099F9D9F8200090F8F9
:101420002E00800601D5A5A100E0BCA1C2A026F037
:101430008DF9D9F8200090F82E00800701D5C4A1BD
:1014400000E0C5A1C6A026F081F9D9F8200090F8E7
:101450002E00C00701D099A100E0B0A1C6A026F0DF
:1014600075F9D9F8200090F82E00000701D593A156
:1014700000E0AAA1C6A026F069F9D9F804008068A6
:10148000006890B120F050FA0278D9F80400806822
:10149000006803789AF8380010F00C0F01D0C2A150
:1014A00000E0C3A1C4A026F051F9DAF814004068A6
:1014B00090F85C0001287CD0DAF81400406890F8BD
:1014C0005C00022876D0DAF81400406890F85C00DE
:1014D000032870D0BEA1C1A026F038F9DAF81400B4
:1014E00040680078002867D0DAF81400406890F867
:1014F0005C00012877D0BFA2DAF81400406890F8A9
:101500003300022870D0DAF81400406890F83300F5
:1015100001286AD0B8A1BDA026F018F9DAF81400A5
:101520004168C1A0103126F011F9C5A026F00EF9CE
:10153000DAF81400416804F10800095CC5A026F03F
:1015400005F9641CE4B2082CF2D35BA026F0FEF887
:10155000DAF81400406890F84320DAF81400406884
:1015600090F84200DAF81410496891F84110DAF85E
:1015700014305B6893F84030CDE90531CDE90702BE
:10158000DAF81400406890F83F10DAF81400406868
:1015900090F83E00DAF81420526892F83D20DAF80C
:1015A00014305B6893F83C30CDE90132CDE903019A
:1015B00003E043E044E045E01BE0DAF81400406853
:1015C00090F83B000090DAF81400406890F83A3048
:1015D000DAF81400406890F83920DAF8140040680E
:1015E00090F8381002E02FE030E031E09BA026F0C8
:1015F000ADF8DAF814004068C18EA5A026F0A6F870
:10160000DAF814004068818EA9A026F09FF8DAF875
:1016100000000388DAF81400C28BDAF81400018C99
:10162000ABA026F093F8DAF81400816A0AB0B2A0F1
:10163000BDEC028BBDE8F04726F088B8B5A14AE7BB
:10164000B8A148E7BBA146E7BEA255E7BEA162E745
:10165000C3A160E710B5C8A026F078F83B21CDA063
:1016600026F074F86421D3A026F070F83021D9A0B8
:1016700026F06CF85C21DFA026F068F82021E5A0B8
:1016800026F064F82421EBA026F060F82421F1A0D4
:1016900026F05CF89321F7A026F058F80C21F9E128
:1016A00050756C736532436E742F463220202020B3
:1016B000203A2025642F25640A0000004F4E0000C8
:1016C000564F4C5F554E4B4E4F570000564F4C5F98
:1016D000444F574E00000000564F4C5F4C45465457
:1016E0005F4F55545F4F465F52414E4745000000E3
:1016F000564F4C5F52494748545F4F55545F4F46D1
:101700005F52414E47450000564F4C5F444953439A
:101710004F4E4E4543544544000000004F4646009E
:1017200056652D2D2D2D2D2D2D2D2D2D2D2D41435E
:10173000433A2025730A000056652D2D2D2D2D2DA1
:101740002D2D416972436F6E2B3A2025730A0000DC
:101750004F50454E00000000434C4F5345000000E1
:1017600056652D2D2D2D2D2D2D2D2D2D446F6F7268
:101770002D3A2025730A000056652D2D2D2D2D2D77
:101780002D2D2D2D2D2D534F533A2025730A00005A
:1017900056652D2D2D2D2D2D2D2D2D2D2D2D454EDF
:1017A000473A2025730A000020206770730000006C
:1017B00070756C73650000005370656564202825A2
:1017C00073292825303264293A2025640A00000054
:1017D000445F554E4B4E4F570000000054726970E5
:1017E000202020202020202020202020203A2025DA
:1017F000730A00003000000053544154455F4452C6
:10180000495645525F554E4B4E4F570044726976CC
:10181000657220202020202020202020203A202512
:1018200073282573290A00004E616D652020202051
:101830002020202020202020203A2025730A00008C
:101840004472697665722054616720202020202030
:10185000203A2000253032780000000054696D6580
:10186000202020202020202020202020203A202559
:101870006325633A256325633A25632563202D207C
:10188000256325633A256325633A256325630A00AA
:1018900044726976696E672074696D652020202026
:1018A000203A20256420286D696E290A0000000076
:1018B000436F6E742044726976696E672074696D37
:1018C000653A20256420286D696E290A0000000011
:1018D0005265737465642020202020202020202061
:1018E000203A20256420286D696E2920282564204F
:1018F0003F202564290A000044697374616E6365A2
:101900002020202020202020203A20256420286D1F
:10191000290A0000445F53544152545F415F5452BE
:1019200049500000445F50415553455F415F545258
:1019300049500000445F46494E4953485F415F5457
:10194000524950003100000053544154455F445205
:10195000495645525F44524956494E4700000000DF
:1019600053544154455F4452495645525F52455382
:1019700054494E4700000000434845434B2053491B
:101980005A45204F46204441544120545950455314
:101990000A0000002D2053697A65206F6620746765
:1019A0003130327061636B6167655F6465663A20F0
:1019B00025640A002D2053697A65206F66204472E1
:1019C000697665725F6465662020203A2025640A86
:1019D000000000002D2053697A65206F662056654F
:1019E0006869636C655F64656620203A2025640A37
:1019F000000000002D2053697A65206F6620447234
:101A0000697665724D73675F6465663A2025642B5D
:101A100031390A002D2053697A65206F662053748E
:101A20006F704D73675F646566203A2025642B31C3
:101A3000390A00002D2053697A65206F6620446FB3
:101A40006F724D73675F646566203A2025642B31A1
:101A5000390A00002D2053697A65206F662053688B
:101A60006966744D73675F6465663A2025642B313F
:101A7000390A00002D2053697A65206F6620535083
:101A80006565644D73675F6465663A2025640A0A7C
:101A9000000000008CA025F059FE0C2191A025F03B
:101AA00055FE342196A025F051FE80219EA025F000
:101AB0004DFE6421A5A025F049FE4021ACA025F0F3
:101AC00045FE0C21B3A025F041FE0621BAA025F069
:101AD0003DFE0821C1A025F039FEBDE810402021BF
:101AE000C7A025F033BEFEB50024CE4DCEA025F014
:101AF0002DFED3A025F02AFED94BDAA09A1F02F1C1
:101B00000E0125F023FED5E90032DDA0A96825F0FD
:101B10001DFEE34D95F83900800601D5E1A100E0F6
:101B2000E6A1EBA025F012FEEF4E70680068017987
:101B300070680068C078726812689278CDE90020F9
:101B4000029170684068037970684068C278706874
:101B500040688178E5A025F0F9FD95F85C10F1A0CA
:101B600025F0F4FDA6F5C871F4A025F0EFFD06F10F
:101B70009000037B012B16D0022B17D0042B18D01A
:101B8000082B19D0102B1AD0202B1BD0402B1CD087
:101B9000F04AD549F0A09D3125F0D8FDB048423833
:101BA000017AA9B134E0EB4A1432F2E7E94A24326F
:101BB000EFE7E84A3032ECE7E64A3C32E9E7E54A4B
:101BC0004832E6E7E34A5832E3E7E24A6832E0E7C0
:101BD00001210172B24860300021016041608160E2
:101BE0007168496851F8052F0260898881807068A2
:101BF000AB490068643150F8052FC1F80220808895
:101C0000C880DD4BA64A80211B684FF4916098473D
:101C100095F86D0000283ED0D8A025F097FDDA4851
:101C2000FCF785F9D84ED9A0316825F08FFDDEA0EC
:101C3000716825F08BFDE3A0B16825F087FDE8A071
:101C4000F16825F083FDEDA0316B25F07FFDF2A05A
:101C500025F07CFD95F86D0001282DD095F86D00DC
:101C600002282AD095F86D00032827D095F86D003A
:101C7000042824D095F86D000A2821D095F86D002D
:101C800008281ED095F86D000B281BD095F86D1014
:101C9000E5A025F05BFDB5F84830A868C28995F845
:101CA0003900C0F34001EAA025F050FD95F8380056
:101CB00010F00C0F07D0E1E1F4E1F7E1FAE1FDE10A
:101CC00000E203E206E209E22D2053697A65206F03
:101CD000662054696D655F646566202020203A2087
:101CE00025640A002D2053697A65206F66204461BF
:101CF00074655F646566202020203A2025640A0010
:101D00002D2053697A65206F662052657175657361
:101D1000744D616E6167656D656E745F6465663A8A
:101D20002025640A000000002D2053697A65206F89
:101D3000662053797374656D4D616E616765725F7E
:101D4000646566203A2025640A0000002D2053694E
:101D50007A65206F662046696C654D616E616765C6
:101D60006D656E745F6465663A2025640A00000044
:101D70002D2053697A65206F66205466696C655F13
:101D80006465662020202020202020203A20256421
:101D90000A0000002D2053697A65206F6620546682
:101DA000696C6553797374656D5F64656620202086
:101DB0003A2025640A0000002D2053697A65206FBF
:101DC00066207374617469737469635F7461626CB3
:101DD000655F6465663A2025640A0A002D20536910
:101DE0007A65206F66207061636B616765696E66F6
:101DF0006F5F646566202020203A2025640A0A006F
:101E00002D2053697A65206F66205175657565448C
:101E10006174615F6465662020202020203A2025BF
:101E2000640A0A00E8F7FF1F0A0D5B545241434B56
:101E3000494E472053595354454D5D0A0000000058
:101E40004D6F64656C202020202020202020202041
:101E5000203A204465766963654E616D650A00002D
:101E6000860000204669726D776172652056657242
:101E700020202020203A20257325732E25730A0068
:101E800053657269616C20202020202020202020B2
:101E9000203A2025782D25782D25780A000000008D
:101EA000F406002072756E2061732061646D696EA6
:101EB0006973747261746F720000000072756E2035
:101EC0006173206E6F726D616C20757365720000B6
:101ED00053656375726974792020202020202020AA
:101EE000203A2025730A0000E4080020446174654C
:101EF0002F74696D6520202020202020203A202585
:101F00003032642F253032642F3230253032642055
:101F10002D20253032643A253032643A253032643F
:101F20000A0000004E554D424552204F4620524572
:101F300053544152543A2025640A00004C61737492
:101F4000207265737461727420202020203A20254D
:101F5000730A0000EC090108436170747572652012
:101F6000706F776572202020203A2025732D25730D
:101F70005B307825785D0A0064010020434C4F43B4
:101F80004B205359530A0000543400202D2053593C
:101F900053434C4B5F4672657175656E6379203AA9
:101FA0002025640A000000002D2048434C4B5F466A
:101FB00072657175656E63792020203A2025640A68
:101FC000000000002D2050434C4B315F467265717C
:101FD00075656E637920203A2025640A00000000B0
:101FE0002D2050434C4B325F4672657175656E63B0
:101FF0007920203A2025640A000000002D20544951
:102000004D32434C4B5F4672657175656E63793A2C
:102010002025640A00000000434845434B204D4FF3
:102020004E49544F520A00002D204D4F4E49544FF7
:10203000522020202020202020202020202020206E
:1020400020202020202020203A2025640A000000A3
:102050002D20534D5328526573706F6E73652F5446
:1020600068726573686F6C642F75736564292020CE
:102070003A2025642F25642F25640A006AA025F0E4
:1020800065FB95F85900744E00287FD06869806818
:10209000006A016B71A025F059FB95F859000228E0
:1020A00020D057E073A025F051FBF4E57CA025F08B
:1020B0004DFBF0E586A025F049FBECE591A025F06D
:1020C00045FBE8E59DA025F041FBE4E5ABA025F04C
:1020D0003DFBE0E5B8A025F039FBDCE5C2A025F02A
:1020E00035FBCEE7F07A002834D0CEA025F02EFBC9
:1020F000F17ACEA025F02AFBF07A012801D902213D
:1021000000E00121D3A025F021FBB17ADBA025F06E
:102110001DFBF17EE3A025F019FB717FEBA025F0FC
:1021200015FB96F82410F3A025F010FB708C3C21D1
:10213000B0FBF1F2B0FBF1F301FB1207308C00971A
:10214000B0FBF1F201FB1202B0FBF1F1F3A025F0BC
:10215000FDFA1BE095F85910FC48032957D095F873
:102160005910052954D095F85910012951D095F8E6
:10217000591007294ED095F8591006294BD095F8DB
:102180005910082948D0F2A025F0E0FAF17AA7A06A
:1021900025F0DCFA68698068006A416BF0A025F0E0
:1021A000D5FA686940680078002836D0F6A025F096
:1021B000CDFA6869406890F85C0001282ED0686903
:1021C000406890F85C00022829D06869406890F85F
:1021D0005C00032824D0AFF60821EFA025F0B6FA62
:1021E0006869406890F85C0001281AD0AFF6FC12CC
:1021F0006869406890F83300022813D06869406825
:1022000090F8330001280ED0AFF61421D8E12BE26C
:1022100030E235E23AE23FE244E224E248E24AE2D6
:102220004CE24EE250E252E22D204D656173757230
:10223000652076656C6F63697479202020202020EA
:1022400020202020202020203A2042617365642035
:102250006F6E204750530A00000A00205253323359
:1022600032203120534552564943453A2025640ACD
:10227000000000002D204D4F4E49544F5220202089
:10228000202020202020202020202020202020204E
:10229000202020203A2047534D207461736B0A00A0
:1022A0002D204D4F4E49544F5220202020202020D9
:1022B000202020202020202020202020202020201E
:1022C0003A205143564E3331207461736B0A00003B
