:020000040800F2
:10C80000887F00209DC900080354010805540108D1
:10C8100007540108095401080B54010800000000E6
:10C820000000000000000000000000000D5401089E
:10C830000F5401080000000011540108CD520108F6
:10C84000B7C90008B7C90008B7C90008B7C90008C8
:10C85000B7C90008B7C90008B7C90008B7C90008B8
:10C86000B7C90008B7C90008B7C90008B7C90008A8
:10C870009B520108B7C90008B7C90008B7C900082A
:10C88000B7C90008B7C90008B7C90008B7C9000888
:10C89000B7C90008B7C90008B7C90008B7C9000878
:10C8A000B7C90008B7C90008B7C90008B7C9000868
:10C8B00031510108B7C90008B7C90008B7C9000855
:10C8C000B7C90008B7C90008B7C90008B7C9000848
:10C8D000B7C9000835520108DD51010809520108A5
:10C8E000B7C90008B7C90008B7C90008B7C9000828
:10C8F000B7C90008B7C90008B7C90008B7C9000818
:10C90000000000000000000000000000B7C900089F
:10C910006B520108B7C90008B7C90008B7C90008B9
:10C92000B7C90008B7C90008B7C90008B7C90008E7
:10C93000B7C90008B7C900080000000000000000E7
:10C94000B7C90008B7C90008B7C90008000000004F
:10C9500000000000000000000000000000000000D7
:10C960000000000000000000B7C90008B7C90008B7
:10C97000B7C900080000000000000000000000002F
:10C9800000000000B7C90008DFF80CD02AF0D6FC80
:10C990000048004759460108887F00200648804724
:10C9A00006480047FEE7FEE7FEE7FEE7FEE7FEE794
:10C9B000FEE7FEE7FEE7FEE753CA000889C9000864
:10C9C0000CB50022019200925248016841F4803176
:10C9D00001604FF4A043016801F400310091019916
:10C9E000491C0191009911B901999942F3D101684B
:10C9F000890302D50121009100E0009200990129EC
:10CA000026D1454A12211160416841604168416068
:10CA1000416841F480614160416821F47C114160CA
:10CA2000416841F4E8114160016841F080710160A2
:10CA300001688901FCD5416821F00301416041682A
:10CA400041F0020141604168C1F381010229FAD13C
:10CA50000CBD10B53148016841F4700101602D48EA
:10CA6000016841F00101016041682D4A11404160B7
:10CA700001682C4A11400160016821F480210160A5
:10CA8000416821F4FE014160C16A21F00F01C162D9
:10CA9000016B254A1140016300218160FFF790FF7F
:10CAA0001E494FF000608039086010BD30B5194B49
:10CAB000586800F00C001D4A1D4900280ED00428BB
:10CAC0000ED008280ED00A605868194AC0F3031027
:10CAD000121D105C0A68C2400A6030BD0A60F3E7AC
:10CAE0000A60F1E7586800F470105C6804F4803460
:10CAF000022505EB904044B1DC6A04F00F04641C8D
:10CB0000B2FBF4F242430A60DEE70A4A504308608F
:10CB1000DAE70000001002400020024088ED00E04B
:10CB20000CC07FF8FFFFF6FECCFC00FF00127A007D
:10CB30000000002000093D0010B5B0F1A04F02D068
:10CB4000F94988420AD101210C07204601F06CFB0B
:10CB50002046BDE81040002101F066BBF349884241
:10CB600002D0F34988420AD101214C07204601F046
:10CB70005BFB2046BDE81040002101F055BB10BD15
:10CB800030B5C368EB4A1340D1E900242243D1E910
:10CB900002452C4322430C6922434C6922438C6991
:10CBA00022431A43C260026B22F00F02097F491E22
:10CBB0001143016330BD0021016041608160C160AB
:10CBC00001614161816101210177704710B5C26C3B
:10CBD000D1E900231A430B7ACC685B1E43EA042395
:10CBE0001A430B6942EA83328B8A097E42EA035276
:10CBF00042EA8161C16410BD0021016041600121F0
:10CC00000172C1600161416181617047F0B54FF00F
:10CC1000A043C94DC44CC94E984201D0A04203D193
:10CC2000D3F808232A4001E032682A40D1E90057AE
:10CC30003D43D1E9027C47EA0C37097C3D4345EA94
:10CC400001211143984201D0A04202D1C3F8081338
:10CC5000F0BD3160F0BD0021016041608160C160C4
:10CC600001747047002904D0816841F0010181609E
:10CC70007047816841F0020181607047816841F02E
:10CC8000004181607047D0F8B4007047C0F8B4101C
:10CC90007047826822F08042826082680A43826024
:10CCA0007047014600208968002900DA012070479A
:10CCB000816841F002018160704701460020896867
:10CCC000890700D501207047826822F040528260B7
:10CCD000002904D0816841F08051816070478168EB
:10CCE00041F000518160704701238B40002A04D03D
:10CCF00050F8B01F19430160704750F8B01F9943B6
:10CD000001607047002904D0C16841F40011C1607E
:10CD10007047C16821F40011C1607047002904D038
:10CD2000C16841F48041C1607047C16821F480410D
:10CD3000C1607047C26822F0E0720A43C260704767
:10CD400010B5036A7E4C23400362036A43EA014143
:10CD50000162016A6FF30B010162016A1143016212
:10CD600010BD436A23F47F034362436A43EA0141EF
:10CD70004162416A21F0FF014162416A114341620F
:10CD80007047836A23F47F038362836A43EA014125
:10CD90008162816A21F0FF018162816A11438162AF
:10CDA0007047C26822F0F84242EA8161C160704770
:10CDB00050F8A02F634B1A4001238B4013430168A6
:10CDC00019430160704750F8A42F5E4B1A400123AD
:10CDD0008B40134301681943016070474FF0A04036
:10CDE000002906D0D0F8081341F40001C0F8081358
:10CDF0007047D0F8081321F40001C0F808137047F9
:10CE00004FF0A042904202D0474B98420ED131B130
:10CE1000D2F8080340F48000C2F808037047D2F843
:10CE2000080320F48000C2F808037047434821B18A
:10CE3000016841F4800101607047016821F48001BC
:10CE4000016070474FF0A040002906D0D0F80813C9
:10CE500041F08071C0F808137047D0F8081321F032
:10CE60008071C0F80813704730B51F24052A0AD214
:10CE7000056B02EB420252009440A54301FA02F412
:10CE80002543056326E00A2A0BD2456B521F02EBAD
:10CE9000420252009440A54301FA02F4254345633F
:10CEA00018E00F2A0BD2856B0A3A02EB42025200BD
:10CEB0009440A54301FA02F4254385630AE0C56B5B
:10CEC0000F3A02EB420252009440A54301FA02F4E9
:10CED0002543C56309290DD982690A3901EB41014E
:10CEE00007228A4084699443846182698B401A4393
:10CEF000826130BD42694A1E02EB42043822A240E0
:10CF0000446994434461426901EB41018B401A43F7
:10CF1000426130BD026B22F00F020263026B491EB8
:10CF20000A430263704700000001005000040050F3
:10CF30000005005007C0FFFDE010FCFF080700508F
:10CF4000FFFF00F00100F8FFC36823F47C63C360B7
:10CF5000C3680A431343C360E4E7816841F00401F6
:10CF60008160DFE70146002089684907DAD50120A2
:10CF7000D8E7816841F010018160D3E7C26822F4EC
:10CF80006022491E42EA4141C160CBE7002904D03A
:10CF9000C16841F48031C160C4E7C16821F48031C7
:10CFA000C160BFE7006C80B2BCE74FF0A04188428F
:10CFB00002D0954A904202D1D1F80C03B2E79348CF
:10CFC0000068AFE7036E23F0F8430366036E43EA9D
:10CFD00081610166016E6FF30B010166016E114301
:10CFE00001669FE7436E23F0F8434366436E43EACE
:10CFF00081614166416E6FF30B014166416E1143E1
:10D0000041668FE7836E23F0F8438366836E43EABD
:10D0100081618166816E6FF30B018166816E1143C0
:10D0200081667FE7C36E23F0F843C366C36E43EAAD
:10D030008161C166C16E6FF30B01C166C16E1143A0
:10D04000C1666FE7002904D0016E41F0004101661E
:10D0500068E7016E21F00041016663E7002904D012
:10D06000416E41F0004141665CE7416E21F00041B4
:10D07000416657E7002904D0816E41F00041816686
:10D0800050E7816E21F0004181664BE7002904D012
:10D09000C16E41F00041C16644E7C16E21F000411C
:10D0A000C1663FE7002904D0C16841F00101C160B9
:10D0B00038E7C16821F00101C16033E7C26822F09E
:10D0C0000202C260C2680A43C2602BE710B5092998
:10D0D0000CD90A3901EB410107238B4084699C4339
:10D0E000846183698A401343836110BD4B1E03EB47
:10D0F00043043823A34044699C434461436901EBE2
:10D1000041018A401343436110BD816841F0080129
:10D11000816007E7816841F02001816002E70146F4
:10D1200000208968090700D50120FBE6002904D00A
:10D13000C16841F00071C160F4E6C16821F000717E
:10D14000C160EFE6002904D0C16841F48011C160DC
:10D15000E8E6C16821F48011C160E3E608B50090FB
:10D160000098491E00EB8100803000900098006814
:10D1700080B208BD002A03D042680A434260D1E66B
:10D1800042688A434260CDE60246002012680A42A5
:10D1900000D00120C6E60160C4E610B502460020BA
:10D1A0004FF0A0439A4202D0174CA24202D1D3F8CA
:10D1B000002302E0154A0C3A12680A4200D001200E
:10D1C00010BD4FF0A042904202D00F4B984205D1C3
:10D1D000D2F800030843C2F80003A3E60B480C385A
:10D1E00002680A4302609DE602460020136889B285
:10D1F0000B4052680A40002B02D0002A00D00120C8
:10D2000090E601608EE60000000100500C0700501F
:10D2100001684FF6FE72114001600021016041601B
:10D220008160C1607249724A0839904204D14868ED
:10D2300040F00F00486070476D4A1432904204D1AC
:10D24000486840F0F00048607047694A28329042D0
:10D2500004D1486840F4706048607047644A3C32CA
:10D26000904204D1486840F4704048607047604A7A
:10D270005032904204D1486840F4702048607047B2
:10D280005B4A6432904204D1486840F470004860C0
:10D290007047574A7832904204D1486840F0706035
:10D2A00048607047534A111F904204D1086840F00B
:10D2B0000F00086070474F4A1432904204D108684A
:10D2C00040F0F000086070474A4A2832904204D18A
:10D2D000086840F4706008607047464A3C329042EB
:10D2E00004D1086840F4704008607047414A5032E9
:10D2F0009042FAD1086840F470200860704730B559
:10D30000026847F6F0739A430C6A8B682343D1E9AD
:10D3100004452C4323438C692343CC6923434C6A43
:10D3200023438C6A2343134303608A8942600A685B
:10D3300082604968C16030BD002101604160816048
:10D340008181016141618161C161016241628162EA
:10D350007047002904D0016841F001010160704765
:10D3600001684FF6FE7211400160704741607047DE
:10D37000406880B27047002A03D002680A43026006
:10D38000704702688A430260704702460020D1005D
:10D3900003D518490839096802E0154908390968B0
:10D3A000114200D001207047C10003D51149091F67
:10D3B000086070470E4908394860704702460020EF
:10D3C000D10003D50B490839096802E0084908393A
:10D3D0000968114200D001207047C10003D50549FA
:10D3E000091F08607047024908394860704700000B
:10D3F0000800024008040240FD4A116821F00301C0
:10D40000014311607047FA49002804D0086840F0D1
:10D41000080008607047086820F00800086070473E
:10D42000F349002804D0086840F0100008607047F5
:10D43000086820F0100008607047ED48016909068F
:10D4400003D5EC494160EC4941607047E848016907
:10D4500041F08001016170470420E549CA68D207A4
:10D4600001D001207047CA68D20601D5022070475A
:10D47000C9684907FBD50320704700B50346FFF78D
:10D48000EBFF02E0FFF7E8FF5B1E012801D1002B54
:10D49000F8D1002B00D1052000BD70B505464FF432
:10D4A00030263046FFF7E9FF042810D1D04C206920
:10D4B00040F0020020616561206940F04000206179
:10D4C0003046FFF7DAFF216921F00201216170BDCA
:10D4D00030B54FF430252846FFF7CFFF04280FD191
:10D4E000C34C206940F004002061206940F04000F6
:10D4F00020612846FFF7C1FF216921F00401216165
:10D5000030BDF8B505460E46002000904FF4302798
:10D510003846FFF7B2FF04280ED1B54C206940F021
:10D52000010020612E803846FFF7A7FF042804D0B1
:10D53000216921F001012161F8BDAD1C0095009821
:10D54000310C01803846FFF798FF216921F0010175
:10D550002161F8BDF0B506460D464FF43027384638
:10D56000FFF78BFF04280CD1A14C206940F001008B
:10D57000206135803846FFF780FF216921F00101E5
:10D580002161F0BD9A480169890503D499498160F8
:10D590009949816070479648016921F400710161E1
:10D5A00070479348016941F40051016170470020C0
:10D5B0008F49C96911F0060F00D00120704770B57E
:10D5C000AA24FFF7F4FF00B100244FF430263046C0
:10D5D000FFF753FF042813D1854D286940F0200040
:10D5E0002861286940F0400028613046FFF745FF78
:10D5F000042806D0052803D0296921F010012961EB
:10D6000070BD286920F020002861286940F01000D2
:10D6100028617A4804803046FFF72FFF0528EFD0B5
:10D62000296921F01001296170BD2DE9F043C04343
:10D63000C4B2C0F30725C0F30746070E4FF43029E4
:10D640004846FFF71AFF042835D1DFF8A481D8F83F
:10D65000101041F01001C8F81010FF2C05D06748D9
:10D66000083004804846FFF708FF042807D1FF2D43
:10D6700005D062480A3005804846FFF7FEFE0428C0
:10D6800007D1FF2E05D05D480C3006804846FFF7D5
:10D69000F4FE042807D1FF2F05D058480E3007802C
:10D6A0004846FFF7EAFE052805D0D8F8101021F00B
:10D6B0001001C8F81010BDE8F08370B505464FF4AE
:10D6C00030263046FFF7D9FE042813D1484C206994
:10D6D00040F020002061206940F040002061304689
:10D6E000FFF7CBFE042806D0052803D0216921F0DE
:10D6F0002001216170BD206920F020002061206997
:10D7000040F0100020613D4805803046FFF7B5FE2F
:10D710000528EFD0216921F01001216170BD2DE9AC
:10D72000F04105460E461746314C3248A06032485B
:10D73000A0604FF430284046FFF79FFE042813D125
:10D74000206940F01000206135432C493D43891C7D
:10D7500045F0F80008804046FFF78FFE052803D00B
:10D76000216921F010012161BDE8F08170B5054605
:10D770001F4C2048A0602048A0604FF4302630465F
:10D78000FFF77BFE042811D1206940F010002061D2
:10D790001A4945F0EF00891C08803046FFF76DFEFE
:10D7A000052803D0216921F01001216170BD70B5F9
:10D7B00005460F4C0F48A0600F48A0604FF430267C
:10D7C0003046FFF75AFE042811D1206940F01000BE
:10D7D00020610A4945F0DF00891C08803046FFF7C8
:10D7E0004CFE052803D0216921F01001216170BD94
:10D7F0000020024023016745AB89EFCD00F8FF1FF1
:10D8000070B505464FF430263046FFF736FE042843
:10D81000EDD1354C206940F010002061334845F0CF
:10D82000BF0101803046FFF728FE0528DFD02169BF
:10D8300021F010012161DAE770B505462A4C2C4829
:10D84000A0602C48A0604FF430263046FFF715FE4C
:10D850000428CCD1206940F010002061234945F014
:10D86000880008803046FFF708FE0528BFD02169F0
:10D8700021F010012161BAE7F0B506460D464FF4DC
:10D8800030273846FFF7F9FD04280ED1164C2069E1
:10D8900040F01000206135803846FFF7EEFD052886
:10D8A00003D0216921F010012161F0BD0E48C0694B
:10D8B000C0F3072070470C48006A70470A4A0029E5
:10D8C00003D01169014311617047116981431161EE
:10D8D000704701460020044AD2680A4200D0012065
:10D8E00070470149C86070470020024002F8FF1FDE
:10D8F00023016745AB89EFCD10B5B0F1904F0DD046
:10D900007349884215D104020121204600F08CFCA5
:10D910002046BDE81040002100F086BC01214C04E7
:10D92000204600F081FC2046BDE81040002100F0B8
:10D930007BBC684988420AD104020121204600F0DC
:10D9400073FC2046BDE81040002100F06DBC624928
:10D9500088420AD101210C05204600F065FC2046D2
:10D96000BDE81040002100F05FBC5C4988420AD14C
:10D9700044020121204600F057FC2046BDE810403B
:10D98000002100F051BC564988420AD101218C0582
:10D99000204600F049FC2046BDE81040002100F080
:10D9A00043BC504988420AD10121CC05204600F0F1
:10D9B0003BFC2046BDE81040002100F035BC4A4940
:10D9C00088420AD101210C04204600F02DFC20469B
:10D9D000BDE81040002100F027BC10BDF0B50022CA
:10D9E0000127032607FA02F30C681C409C422BD146
:10D9F0000D79012D01D0022D13D18468550006FA4E
:10DA000005FC24EA0C0484604C79AC4085682C4306
:10DA1000846084889C43848084888B7993401C43F1
:10DA200084800568530006FA03F4A54305600D7968
:10DA3000D0F800C09D4045EA0C050560C568A543C7
:10DA4000CC799C402C43C460521C102ACAD3F0BD30
:10DA50004FF6FF7101600021017102224271817154
:10DA6000C171704741F48032C261C161C261C16954
:10DA7000C069704702460020128A0A4200D0012085
:10DA80007047008A704702460020928A0A4200D0FE
:10DA900001207047808A7047816170470185704717
:10DAA000002A01D0816170470185704781827047EB
:10DAB00010B54B07DB0E9A40C90800EB8100016AE4
:10DAC0000F249C40A1430162016A1143016210BD11
:10DAD0000004004800080048000C004800100048FE
:10DAE0000014004800180048001C00480E49086057
:10DAF00070470D49486070470B49886070470A4974
:10DB00004AF6AA200860704707490861704706492D
:10DB10004CF6CC400860704701460020024AD268AB
:10DB20000A4200D001207047003000402A490843D3
:10DB30002A490860704770B50F23C2780126017822
:10DB4000002A1ED0254A126802F4E062C2F5E062A3
:10DB5000120AC2F10404D3404578A54082781A40E5
:10DB60002A43120101F1E02181F80024007800F03D
:10DB70001F018E404009800000F1E020C0F80061E4
:10DB800070BD01F01F0086404809800000F1E020D0
:10DB9000C0F8806170BD124A114001430F48001F58
:10DBA000016070470D4A121D002903D0116801431E
:10DBB0001160704711688143116070474FF0E02198
:10DBC000042804D0086920F004000861704708693F
:10DBD00040F00400086170470000FA050CED00E019
:10DBE00080FFFF1FF748016841F0010101604168B3
:10DBF000F54A114041600168F44A11400160016832
:10DC000021F480210160416821F4FE014160C16A74
:10DC10006FF30D01C162016BED4A114001630021F8
:10DC200081607047E74900228A7088707047034618
:10DC300000205909E34A00290CD001290CD00429FD
:10DC40000CD0516A03F01F02012393400B4200D015
:10DC5000012070471168F5E7116AF3E75168F1E7B1
:10DC600018B5002000904FF4A0441120FFF7DFFF0B
:10DC70000099491C00910099A14201D00028F4D0DC
:10DC80001120FFF7D4FF08B1012018BD002018BDF6
:10DC9000CC4A116821F0F80141EAC00010607047D9
:10DCA000CC4908607047C7490A6A22F001020A623B
:10DCB0000A6A22F004020A620A6A02430A62704790
:10DCC000C0490A6A22F018020A620A6A02430A621A
:10DCD0007047C14908607047BA4A536823F4741307
:10DCE000536053680843034353607047B94908665B
:10DCF0007047B44AD16A21F00F010143D1627047E5
:10DD0000B449C8647047AF4A516821F0074141EAFD
:10DD1000006050607047AB4A516821F00301014335
:10DD200051607047A748406800F00C007047A54A52
:10DD3000516821F0F001014351607047A14A5168D8
:10DD400021F4E0610143516070479E4A516821F41B
:10DD5000605141EAC000506070472DE9F047002152
:10DD6000DFF86082D8F8042002F00C029B4E002AF3
:10DD70003AD0042A3AD0082A3AD00660D8F80420CB
:10DD800002F0F0021209964CA55C026822FA05F333
:10DD90004360D8F8047007F4E0673F0A14F807C03E
:10DDA00023FA0CF78760D8F804C00CF4605C4FEAE3
:10DDB000DC2C14F80C40E340C360D8F82CC04FEAC8
:10DDC0001C1CDFF81CA20CF00F090AF1100A3AF82B
:10DDD00019905FEACC6C24D5B9F1000F21D0B1FBCA
:10DDE000F9FCC0F810C01DE00660C7E70660C5E793
:10DDF000D8F8041001F47011D8F8042002F480322D
:10DE0000022303EB91414AB1D8F82C2002F00F0213
:10DE1000521CB6FBF2F251430160AFE7714A514325
:10DE2000FAE70261D8F82CC04FEA5C2C0CF00F091D
:10DE30003AF819905FEACC6C07D5B9F1000F04D01D
:10DE4000B1FBF9FCC0F814C000E04261D8F830C062
:10DE50005FEACC6C01D4866100E08261D8F830C002
:10DE60005FEA8C6C01D4C66100E0C261D8F830C0B2
:10DE70005FEA4C6C01D4066200E00262D8F830C060
:10DE80005FEACC5C08D58A4206D1AC4204D14FEAA5
:10DE9000410CC0F824C000E04362D8F830C05FEA0B
:10DEA000CC4C08D58A4206D1AC4204D14FEA410C91
:10DEB000C0F828C000E08362D8F830C05FEA8C5C0C
:10DEC00008D58A4206D1AC4204D14FEA410CC0F8D1
:10DED0002CC000E0C362D8F830C05FEA4C5C08D5C3
:10DEE0008A4206D1AC4204D14FEA410CC0F84CC082
:10DEF00000E0C364D8F830C05FEA0C5C08D58A4201
:10DF000006D1AC4204D14FEA410CC0F850C000E049
:10DF10000365D8F830C05FEA8C4C08D58A4206D138
:10DF2000AC4204D14FEA410CC0F854C000E0036594
:10DF3000D8F830C05FEA0C4C06D58A4204D1AC4216
:10DF400002D14900816500E08365D8F830108C0764
:10DF50004FF4004111D0D8F8303003F00303012B07
:10DF60000DD0D8F8303003F00303022B09D0D8F8D5
:10DF70003030DB439B0706D006E0836304E0826316
:10DF800002E0816300E08663D8F8303013F4403F4C
:10DF900012D0D8F83030C3F30143012B0ED0D8F89B
:10DFA0003030C3F30143022B0AD0D8F83030C3F32A
:10DFB0000143032B18D018E0C76316E0C26314E0D6
:10DFC000C16312E00010024000C0FFF8FFFFF6FE40
:10DFD000CCEC000F000042428004424200127A0062
:10DFE0001400002000093D00C663D8F8303013F457
:10DFF000402F12D0D8F83030C3F38143012B0ED01C
:10E00000D8F83030C3F38143022B0AD0D8F830302F
:10E01000C3F38143032B06D006E0076404E00264E7
:10E0200002E0016400E00664D8F8303013F4401FC9
:10E0300012D0D8F83030C3F30153012B0ED0D8F8EA
:10E040003030C3F30153022B0AD0D8F83030C3F379
:10E050000153032B06D006E0476404E0426402E06B
:10E06000416400E04664D8F8303013F4400F14D017
:10E07000D8F83030C3F38153012B10D0D8F83020BA
:10E08000C2F38152022A0CD0D8F83010C1F381516A
:10E09000032900D18664BDE8F0878764FBE78264CA
:10E0A000F9E78164F7E7020F7E49002A04D0CA6AC3
:10E0B00022F47852CA6203E0CA6A22F4F872CA6291
:10E0C000CA6A0243CA627047010F764A002904D027
:10E0D000012907D002290ED109E0116B21F01001AE
:10E0E000116308E0116B21F02001116303E0116B53
:10E0F00021F040011163116B014311637047020F5E
:10E100006849082A2AD2DFE802F004090E13181D14
:10E1100021250A6B22F480720A631FE00A6B22F445
:10E1200000720A631AE00A6B22F480620A6315E047
:10E130000A6B22F400620A6310E00A6B22F40052B8
:10E140000A630BE00A6B22F400420A630A6B22F0B6
:10E1500080720A630A6B22F000720A630A6B024340
:10E160000A6370474F490A6B22F480520A630A6BB4
:10E1700002430A637047020F4A49062A1CD2DFE8AD
:10E1800002F01B03080D12170A6B22F003020A6348
:10E1900012E00A6B22F440320A630DE00A6B22F4AB
:10E1A00040220A6308E00A6B22F440120A6303E08B
:10E1B0000A6B22F440020A630A6B02430A63704747
:10E1C00039490860704737490A6A02430A62704752
:10E1D0003549091D08607047344908607047334964
:10E1E000091D086070472F4A002903D05169014377
:10E1F000516170475169814351617047294A002933
:10E2000003D09169014391617047916981439161A4
:10E210007047244A002903D0D1690143D161704776
:10E22000D1698143D16170471E4A002903D0916AA8
:10E23000014391627047916A814391627047194A24
:10E24000002903D0D1680143D1607047D168814370
:10E25000D1607047134A002903D01169014311614D
:10E26000704711698143116170470E4A002903D03C
:10E27000517A014351727047517A8143517270470C
:10E280000848416A41F080714162704701460020B0
:10E29000044A92680A4200D00120704701498872FE
:10E2A0007047000000100240D80042423C04424245
:10E2B00018B500200090F9480068800601D50120BB
:10E2C00018BDF64BCA201C33186053201860F34A5F
:10E2D000121D106820F0A0001060D413106800F028
:10E2E00020000099491C00910099A14201D000280A
:10E2F000F4D01068800601D5012000E00020FF2145
:10E30000196018BD08B500200090E449091D08688F
:10E31000400615D44FF0FF3008604B14086800F039
:10E320004000009A521C0092009A9A4201D00028A4
:10E33000F4D00868400601D5012008BD002008BDC2
:10E34000012008BD78B5002400940025D34ECA20D2
:10E350001C36306053203060FFF7D4FFE8B3CF485D
:10E3600008380460CD4942F20110091F08600B1DF6
:10E37000186800F0070018604D14191D086800F0B7
:10E380000400009A521C0092009AAA4201D0002870
:10E39000F4D00868400701D4002523E018681C6009
:10E3A000BE4A4FF6FF700C321060121FBC4810605E
:10E3B000BA4814300460001D0460B848243004607A
:10E3C000B64834300460B5483C300460001D046039
:10E3D0000C60B2483830046000E003E0FFF768FFEB
:10E3E00020B10125FF203060284678BD0025F9E7DF
:10E3F000AA48001D016821F080010160704770B5D6
:10E4000004460025A54ECA201C36306053203060DB
:10E41000FFF778FFA0B1A148016821F04001016039
:10E4200001682268114301609C48A16808300160BE
:10E430000168A28841EA02410160FFF7D9FF012586
:10E44000FF203060284670BD002101607F214160BF
:10E45000FF218160704791491C31002802D0FF20C4
:10E4600008607047CA20086053200860704770B584
:10E4700006460024894DCA201C3528605320286098
:10E48000FFF740FF68B1854826B1016841F01001EF
:10E49000016003E0016821F010010160FFF7A8FFAF
:10E4A0000124FF202860204670BD7C4ACA211C320E
:10E4B0001160532111607949002804D0086840F0A8
:10E4C0002000086003E0086800F0DF000860FF201B
:10E4D00010607047002103E0491CC9B20A38C0B27D
:10E4E0000A28F9D2090740EA11607047010901EBD7
:10E4F0008101490000F00F000844C0B270472DE9C7
:10E50000F04105460C4600260020644F002D06D041
:10E510003968490608D52078FFF7E8FF05E0396833
:10E52000490602D4E07000E0E07055B1A07821788F
:10E5300040EA01456078E178000240EA0140054385
:10E540000FE02078FFF7C6FF05046078FFF7C2FFF1
:10E5500045EA0025A078FFF7BDFF0543E07845EACE
:10E5600000454E4CCA201C34206053202060FFF729
:10E57000C9FE78B14B480540484808380560FFF7A8
:10E5800037FF3868800604D4FFF792FE10B10126E9
:10E5900000E00126FF2020603046BDE8F081002128
:10E5A000C170017041708170704710B502460C4611
:10E5B0003A48083801683B480140C1F305402070E3
:10E5C000C1F30623637001F07F03A37001F480019F
:10E5D000090CE170002A0AD1FFF788FF20706078EB
:10E5E000FFF784FF6070A078FFF780FFA07010BD78
:10E5F0002A48203000682949091F0968704770B50A
:10E6000005460C460026002D06D16078C10603D5CC
:10E6100020F010000A3060702DB16078FFF766FFBF
:10E62000A078FFF763FF55B1A078E17840EA014593
:10E6300060782178000240EA413005430FE0E0783D
:10E64000FFF748FF05046078FFF744FF45EA00251F
:10E65000A078FFF73FFF0543207845EA40350F4C8F
:10E66000CA201C34206053202060FFF74BFE80B18D
:10E670000D4805400948001F0560FFF7B9FE07482F
:10E680000068800604D4FFF713FE10B1012600E0F5
:10E690000126FF202060304670BD000008280040A1
:10E6A000FF007F007F7F7F003FFFFF00012101709F
:10E6B000817041700021C170704710B502460C4650
:10E6C000FE480168FE480140080CE070C1F30423D5
:10E6D000637001F03F03A370C1F342312170002A3F
:10E6E0000AD1FFF703FFE0706078FFF7FFFE60706C
:10E6F000A078FFF7FBFEA07010BD70B505460E4672
:10E700001446EE490020091D002D06D0096849066F
:10E7100008D52078FFF7EAFE05E00968490607D426
:10E72000E07005E0E070A068A8B1207BFFF7DEFE96
:10E73000ADB1A0782178E27840EA01406178090221
:10E7400041EA02410843217B40EA0160A168084395
:10E75000616808431CE0207BFFF7C8FEE8E72078EB
:10E76000FFF7B8FE05046078FFF7B4FE45EA002520
:10E77000A078FFF7AFFE0543E07845EA0045207B2F
:10E78000FFF7A8FEA16845EA0060084361680843F6
:10E79000CA49CA2220310A6053220A60B6F5807F36
:10E7A00004D00A1F1060FF20086075E7C34A1832C2
:10E7B0001060F8E70021C1700170417081708160C4
:10E7C000012202734160704710B503461446B1F54B
:10E7D000807F2AD0B9481C300168C1F30540207001
:10E7E000C1F30622627001F07F02A27001F4800280
:10E7F000120CE270C1F30562227301F08042A26044
:10E8000001F080316160002B0ED1FFF76FFE2070A8
:10E810006078FFF76BFE6070A078FFF767FEA0706E
:10E82000207BFFF763FE207310BDA44818300168F9
:10E83000D3E738B500220092A04CCA2220342260CF
:10E84000532222609D4A121D002904D01168014301
:10E850001160012015E0116881431160974A083268
:10E860005514116801EA1021009B5B1C0093009B6A
:10E87000AB4201D00029F4D0116811EA102F03D067
:10E880000120FF21216038BD0020FAE710B58B4B35
:10E89000CA2420331C6053241C601143B0F5807FD0
:10E8A00005D0864844300160FF20186010BD8348C1
:10E8B00040300160F8E7B0F5807F05D07F484430F4
:10E8C0000068C0F30E0070477C4840300068C0F319
:10E8D0000E007047794ACA2120321160532111601D
:10E8E0007649091D0B6823F007030B600B6803438F
:10E8F0000B60FF20106070477049CA2220310A6007
:10E9000053220A606D4A10321060FF200860704781
:10E910006A481030006880B2704718B50021009135
:10E92000664BCA2120331960532119606349091DC0
:10E93000002805D0086840F480600860012017E0D6
:10E94000086820F4806008605C4A0832541410683B
:10E9500000F004000099491C00910099A14201D0E7
:10E960000028F4D01068400701D4002000E0012006
:10E97000FF21196018BD10B5504BCA2220331A6010
:10E9800053221A604D4A121D146824F48024146026
:10E990001468084304431460FF20186010BD474802
:10E9A000001D006800F48020704710B5434BCA2258
:10E9B00020331A6053221A60404A121D146824F44E
:10E9C000E00414601468084304431460FF201860D6
:10E9D00010BD3A4ACA2120321160532111603749D3
:10E9E000091D002804D0086840F40000086003E016
:10E9F000086820F400000860FF20106070472F4A6C
:10EA0000CA2120321160532111602C49091D0B6865
:10EA100023F400230B600B6803430B60FF2010609E
:10EA20007047F0B50023254ECA24203634605324A5
:10EA30003460224C08342568ED0307D5A71400E0A4
:10EA40005B1C2568ED0301D5BB42F9D12368DB03CC
:10EA500006D408431949104338310860012000E00A
:10EA60000020FF213160F0BD10B5144B1B1D1A684A
:10EA700040F60804A243002903D0024342F4006296
:10EA800000E002430D48CA2120300160532101609B
:10EA90001A60FF21016010BD70B50C46154607498C
:10EAA0002C310968074A1140044A303212684FF687
:10EAB0003F731A40C1F30543237005E0042800406A
:10EAC0003FFFFF007F7F7F00C1F30623637001F0EB
:10EAD0007F03A37001F48001090CE1700021E9704B
:10EAE000C2F30421697002F03F01A970C2F3423100
:10EAF0002970002817D12078FFF7F8FC2070607883
:10EB0000FFF7F4FC6070A078FFF7F0FCA070687865
:10EB1000FFF7ECFC6870A878FFF7E8FCA87028788D
:10EB2000FFF7E4FC2870B7E5824800687047814A27
:10EB30000832002904D0116841EA40001060704793
:10EB4000116821EA4000106070477A4A08320029B3
:10EB500003D011680143116070471168814311604F
:10EB60007047744908310A6822F4C0520A600A6882
:10EB700002430A6070476F4908310A6822F4E06274
:10EB80000A600A6802430A6070476A4908310A68E5
:10EB900022F4C0420A600A6802430A60704765496D
:10EBA0000831002804D0086840F0800008607047F1
:10EBB000086820F08000086070475E49083100282E
:10EBC00004D0086820F4004008607047086840F4EA
:10EBD00000400860704708B5564A183202EB8000C2
:10EBE00000900098016008BD08B55249183101EB4A
:10EBF000800000900098006808BD4E4908310A68FE
:10EC000022F480220A600A6802430A60704770B5E5
:10EC10000022484DCA23143D2B6053232B60454BE3
:10EC20002C3B1C68240707D55E1400E0521C1C68AE
:10EC3000240701D5B242F9D11A68120711D43D4A0E
:10EC4000303A1268D2060AD401433A480C380160BF
:10EC5000FFF72EFB08B1012004E0002002E00020B5
:10EC600000E00020FF21296016E530B5314DCA22B1
:10EC7000143D2A6053222A602E4C2E4B303C20F04B
:10EC80000402083300F00400002906D02168114373
:10EC9000216019680143196005E0216891432160F2
:10ECA000196881431960FF20286030BD02460020AA
:10ECB00020492C390968204B1940114200D001200D
:10ECC0007047C0F3100040F08000C14319482C3851
:10ECD000026802F0800211430160704710B5002104
:10ECE000144A0832126802F00403124A303A1268D9
:10ECF000840C20FA04F4024003EAD4331A430D4B87
:10ED00002C3B1B6803EA1010002A03D00004000CFF
:10ED100000D00121084610BD000980B240F08000FB
:10ED2000C14304482C38026802F08002114301609C
:10ED300070470000382800407FFF010010B5E94906
:10ED400088420AD1841401212046FFF778FA204630
:10ED5000BDE810400021FFF772BAE34988420AD1AA
:10ED6000041401212046FFF775FA2046BDE8104043
:10ED70000021FFF76FBADD49CC13884209D1012188
:10ED80002046FFF767FA2046BDE810400021FFF754
:10ED900061BAD749884209D101212046FFF74FFACD
:10EDA0002046BDE810400021FFF749BA10BD002100
:10EDB000018041804FF4E0628280C1800181418105
:10EDC0008181C18107210182704730B54A88B2F53F
:10EDD000827F1ED0828822F470638A881A438280E0
:10EDE000028802F44153CA880C898D8922434C89D8
:10EDF0002C43CD892C4322430C884D882C4322433D
:10EE00001A430280828B22F400628283098A018283
:10EE100030BD028802F44153CA880C898D8922438F
:10EE20004C892C43CD892C4322430C8844F48274B2
:10EE300022431A430280828822F470638A881A432C
:10EE40008280DFE70021018041808180C180022231
:10EE5000826081817047F0B597B005460C4602206C
:10EE600000210126AA8B4FF240031A40AA830222F6
:10EE70002A84AF8BA268022A21D0A08800B1022682
:10EE80006846FEF76AFF0098E188B1F5007F2CD054
:10EE90007101B0FBF1F000EB8000A1684000B0FB15
:10EEA000F1F0401D80B20A21B0FBF1F000F0010149
:10EEB000401AC0F34F004FF6FF7202EA0121821E92
:10EEC000FE2A01D302200021E288084302432A845B
:10EED00020886188A2890843A188114308433843E8
:10EEE00040F40060A88317B0F0BD000A00EB80007A
:10EEF000A1684000B0FBF1F0401D80B2D3E70029CB
:10EF000004D0018841F0400101807047018821F060
:10EF1000400101807047002904D0818841F0100130
:10EF200081807047818821F010018180704700291D
:10EF300004D0818B41F4806181837047818B21F4FF
:10EF4000806181837047828822F470620A438280E4
:10EF50007047828822F48052828082880A438280AD
:10EF60007047B1F5804F04D0018821F480410180C1
:10EF70007047018841F4804101807047A1F57E42CD
:10EF8000FF3A04D0018841F4807101807047018804
:10EF900021F480710180704730B50023828B4FF2DD
:10EFA00040042240828302220284848B0A884FF428
:10EFB0008075B2F5007F00D002B92B464A888D8853
:10EFC00089892A4319430A43224342F40061818319
:10EFD00030BD002904D0818841F004018180704750
:10EFE000818821F0040181807047002904D0818844
:10EFF00041F0080181807047818821F008018180FB
:10F0000070470173704781817047007B704780892A
:10F010007047028822F40062028002880A4302805C
:10F020007047002904D0018841F4005101807047E5
:10F03000018821F4005101807047018841F480511A
:10F0400001807047012901D0008B7047808A70478A
:10F05000008A7047002A03D082880A438280704762
:10F0600082888A4382807047828822F4C0428280EC
:10F0700082880A4382807047090901238B4099B234
:10F08000002A03D082880A438280704782888A439C
:10F0900082807047008900F4C0507047008900F4F6
:10F0A000C06070470246002012890A4200D0012049
:10F0B0007047C9430181704730B50246002001F016
:10F0C0000F03012505FA03F4A3B2090905FA01F4B7
:10F0D000A4B29188214012891A4202D0002900D09E
:10F0E000012030BD0030014000380040003C0040AD
:10F0F000003C014010B5FE4988420AD1C4140121E8
:10F100002046FFF79CF82046BDE810400021FFF79D
:10F1100096B8B0F1804F0CD0F649884213D1012146
:10F120000220FFF797F80021BDE810400220FFF70A
:10F1300091B801210846FFF78DF80021BDE8104085
:10F140000120FFF787B8EC49884209D1012104204A
:10F15000FFF780F80021BDE810400420FFF77AB8DF
:10F16000E649884209D101211020FFF773F80021F8
:10F17000BDE810401020FFF76DB8E149884209D181
:10F1800001212020FFF766F80021BDE81040202073
:10F19000FFF760B8DB4988420AD1441401212046B8
:10F1A000FFF74DF82046BDE810400021FFF747B8B3
:10F1B000D54988420AD101210C042046FFF73FF8C7
:10F1C0002046BDE810400021FFF739B8CF498842FA
:10F1D0000AD101214C042046FFF731F82046BDE852
:10F1E00010400021FFF72BB8C94988420AD10121FC
:10F1F0008C042046FFF723F82046BDE8104000218C
:10F20000FFF71DB8C34988420AD101210C052046E9
:10F21000FFF715F82046BDE810400021FFF70FB8B2
:10F2200010BD70B50288B24CB64DBA4EA0420CD09B
:10F23000A8420AD0B0F1804F07D0AE4B984204D01C
:10F24000AD4B984201D0B04203D122F070034A88FE
:10F250001A43AA4B984206D0A94B984203D022F4F5
:10F2600040730A891A4302804A68C2620A8802858A
:10F27000A0420CD0A8420AD0A34A904207D0A34A89
:10F28000904204D0A24A904201D0B04201D14989B3
:10F2900001860121416170BD4FF0FF3141600021C5
:10F2A0000180018141804181704701854261704741
:10F2B000028822F070020A43028070474162704760
:10F2C000C1627047406A7047008D7047002904D0C2
:10F2D000018841F0020101807047018821F002019C
:10F2E00001807047002904D0018841F004010180A9
:10F2F0007047018821F0040101807047002904D083
:10F30000018841F4006101807047018821F40061A7
:10F3100001807047002904D0018841F080010180FC
:10F320007047018821F0800101807047028822F037
:10F330000802028002880A4302807047028822F491
:10F340004072028002880A4302807047002904D07C
:10F35000018841F0010101807047018821F001011D
:10F360000180704730B5026A22F001020262056A2C
:10F3700043688269684C224022F003020C681443FF
:10F3800025F002028D8915438A882A43584DA842E8
:10F390000BD05C4DA84208D05B4DA84205D05B4D18
:10F3A000A84202D05A4DA8420FD122F00805CA89BE
:10F3B0002A4322F00405CA882A4323F4807323F4E5
:10F3C00000730D8A1D434B8A2B4343608461896817
:10F3D0004163026230BD30B5026A22F0100202625F
:10F3E000056A426883694D4C234023F440730C68DE
:10F3F00043EA042425F020038D8943EA05138D8810
:10F4000043EA05133A4DA84202D03E4DA84213D11B
:10F4100023F08003CD8943EA051323F04003CD8810
:10F4200043EA051322F4806222F400620D8A42EA64
:10F4300085024D8A42EA850242608461896881635F
:10F44000036230BD30B5026A22F480720262026A41
:10F450004368C46924F0700424F003050C682C434D
:10F4600022F400728D8942EA05228D8842EA052243
:10F470001F4DA84202D0234DA84213D122F40062AE
:10F48000CD8942EA052222F48062CD8842EA052233
:10F4900023F4805323F400530D8A43EA05134D8A65
:10F4A00043EA05134360C4618968C163026230BDE9
:10F4B00030B5026A22F480520262036A4268C4696B
:10F4C00024F4E04424F440740D6844EA052423F451
:10F4D00000538D8943EA05338D8843EA0533044D93
:10F4E000A84202D0074DA8421DD122F4804217E065
:10F4F000002C0140000400400008004000100040C3
:10F50000001400400034014000400140004401402C
:10F5100000480140005001408FFFFEFFFF8FFFFEBB
:10F520000D8A42EA85124260C461896801640362FF
:10F5300030BD30B5026A22F480320262046A426849
:10F54000436D23F070050B682B4324F400348D8940
:10F5500044EA05448D8844EA0544F84DA84202D0A7
:10F56000F74DA84204D122F480320D8A42EA0542C6
:10F570004260436589688165046230BD30B5026AC6
:10F5800022F480120262036A4268446D24F4E0446B
:10F590000D6844EA052423F400138D8943EA0553DA
:10F5A0008D8843EA0553E54DA84202D0E44DA842B8
:10F5B00001D122F40032426044658968C16503626A
:10F5C00030BD002904D0816D41F000518165704744
:10F5D000816D21F0005181657047002904D0816D53
:10F5E00041F0804181657047816D21F080418165E6
:10F5F0007047002904D0816D41F00041816570475A
:10F60000816D21F00041816570470021016081809A
:10F61000C18081608181C18101824182704730B5A2
:10F6200000F1180301248C40056AE443A4B225408C
:10F63000056200290DD008290BD0091F03EB5100EA
:10F640000168C04B19400160016841EA0221016074
:10F6500030BD03EB51000168BB4B194001600168EC
:10F660001143016030BD4163704781637047C163DE
:10F6700070470164704781657047C1657047826952
:10F68000B14B1A400A43826170478269AD4B1A4000
:10F6900042EA012181617047C26922F070020A4387
:10F6A000C2617047C26922F4E04242EA0121C161AD
:10F6B0007047426D22F070020A4342657047426D06
:10F6C00022F4E04242EA012141657047826922F05A
:10F6D00008020A4382617047826922F4006242EAAA
:10F6E000012181617047C26922F008020A43C261A8
:10F6F0007047C26922F4006242EA0121C161704789
:10F70000426D22F008020A4342657047426D22F4BE
:10F71000006242EA012141657047826922F00402D9
:10F720000A4382617047826922F4806242EA0121C1
:10F7300081617047C26922F004020A43C2617047C6
:10F74000C26922F4806242EA0121C1617047826984
:10F7500022F080020A4382617047826922F40042EB
:10F7600042EA012181617047C26922F080020A43A6
:10F77000C2617047C26922F4004242EA0121C161BC
:10F780007047426D22F080020A4342657047426D25
:10F7900022F4004242EA01214165704782684FF637
:10F7A000F7731A40826082680A4382607047026A77
:10F7B00022F002020A4302627047026A22F0080243
:10F7C0000A4302627047026A22F0200242EA0111F3
:10F7D00001627047026A22F0800242EA011101626E
:10F7E0007047026A22F4007242EA01210162704706
:10F7F000026A22F4006242EA012101627047026A51
:10F8000022F4005242EA013101627047026A22F496
:10F81000003242EA014101627047026A22F400129A
:10F8200042EA01510162704710B501238B40046A1E
:10F830009C430462036A8A401343036210BD10B5FF
:10F8400004238B40046A9C430462036A8A40134386
:10F85000036210BDC2694FF2FF331A40C261C26930
:10F860004FF6FF7303EA01210A43C2617047F0B506
:10F87000046A4EF6FF752C400462C469A7B2046A9C
:10F88000A5B24FF6FF7404EA013627F4734704EA81
:10F890000221394304EA03320A4325F4204131436B
:10F8A00041F48051C2610162F0BDC2694FF6F37349
:10F8B0001A40C261C2690A43C2617047F0B5046A66
:10F8C0004FF6FF652C400462C469A4B2056AAEB26B
:10F8D0004FF6FF7707EA012524F0F30407EA031146
:10F8E0001143214326F420622A4342F48072C1610D
:10F8F0000262F0BD826922F440628261826942EA5A
:10F9000001218161704770B5046A4FF6EF752C4094
:10F9100004628569046A4FF6FF7606EA011125F450
:10F92000734545EA033343EA02224FF65F731C40F6
:10F9300041F0100121438261016270BD002C014041
:10F9400000340140FF8FFFFE8FFFFEFF826922F02F
:10F950000C02826182690A438261704730B5046A91
:10F9600024F0010404628569046A25F0F30542EA83
:10F9700003122A4324F00A030B4343F0010182617E
:10F98000016230BD70B506460C4625886188A288A4
:10F990002389002D0BD0042D11D0082D17D030460F
:10F9A000FFF765FFE1883046BDE8704052E730461A
:10F9B000FFF7D4FFE1883046BDE87040C6E7304627
:10F9C000FFF7A1FFE1883046BDE8704092E730467E
:10F9D000FFF774FFE1883046BDE8704065E700211D
:10F9E0000180418001228280C180018170472DE920
:10F9F000F04107460C46002501266188002900D108
:10FA00000225A288012A00D102262088238988B1F4
:10FA10003846FFF778FFE1883846FFF76BFF238908
:10FA2000324629463846FFF799FFE1883846BDE857
:10FA3000F0418BE73846FFF791FFE1883846FFF742
:10FA400085FF2389324629463846FFF75CFFE18867
:10FA50003846BDE8F0414DE7406B7047806B70471A
:10FA6000C06B7047006C704710B50A884B88CC8813
:10FA70001A438B8823431A430B891A434B8989897C
:10FA80001A430A43426410BD436C23F47223436457
:10FA9000436C41EA02410B4343647047436C23F0DB
:10FAA0003C734364436C41EA02510B434364704727
:10FAB000002904D0416C41F4805141647047416C8D
:10FAC00021F4805141647047002904D0416C41F019
:10FAD000807141647047416C21F0807141647047CE
:10FAE0000021018041808180C1800181418181812B
:10FAF0007047002904D0416C41F4004141647047D3
:10FB0000416CC1F30E0141647047002904D0416883
:10FB100041F004014160704741684FF6FB721140AB
:10FB200041607047002904D0416841F00101416003
:10FB3000704741684FF6FE72114041607047002ADD
:10FB400003D0C2680A43C2607047C268C94389B221
:10FB50000A40C26070474161704702460020126946
:10FB60000A4200D001207047C94389B20161704741
:10FB70000246002013690B40D2680A40002B02D0D5
:10FB8000002A00D001207047C94389B20161704743
:10FB90001143A0F848107047002A03D0C2680A43F6
:10FBA000C2607047C268C94389B20A40C2607047E8
:10FBB000002904D0416841F0080141607047416864
:10FBC0004FF6F77211404160704781684FF6F87246
:10FBD000114081607047826892B222F070020A433D
:10FBE0008260704700B503461846FFF7F4FF986837
:10FBF00040F00700986000BD70B50D460446114600
:10FC0000602D0CD001222046FFF7A8FE2946204691
:10FC1000FFF7E1FFA06840F00700A0608DE6012239
:10FC20002046FFF770FEF1E730B58468E4B24FF686
:10FC3000FF7505EA032313430B432343836030BD61
:10FC400010B504462046FFF7EFFFA06880B220F011
:10FC5000070040F0070020F0700040F07000A06046
:10FC600010BD10B504462046FFF7DEFFA06840F443
:10FC70008040A06010BD42684FF68F731A4042600A
:10FC800042680A4342607047426822F47002426050
:10FC900042680A434260704782681E4B1A40826085
:10FCA00082680A438260704782684FF67F731A4009
:10FCB000826082680A438260704770B58468A5B22A
:10FCC0008469A4B2066AB6B225F007050D434FF663
:10FCD000FC410C4040F201110C4326F022064FF685
:10FCE000FF7101EA031111433143856084610162B0
:10FCF00023E6002904D0416841F08001416070474B
:10FD000041684FF67F72114041607047A0F8501073
:10FD100070470000F8FFFEFF10B5F74988420AD18E
:10FD200001218C032046FEF78AFA2046BDE81040E8
:10FD30000021FEF784BAF14988420AD101214C041E
:10FD40002046FEF787FA2046BDE810400021FEF766
:10FD500081BAEB4988420AD101218C042046FEF782
:10FD600079FA2046BDE810400021FEF773BAE54954
:10FD700088420AD10121CC042046FEF76BFA2046C6
:10FD8000BDE810400021FEF765BADF4988420AD17C
:10FD900001210C052046FEF75DFA2046BDE8104023
:10FDA0000021FEF757BA10BD30B597B004460D4696
:10FDB000206820F001002060606820F44051A868AD
:10FDC00008436060206841F20C618843EA68696812
:10FDD00011432A69024311432160A06820F4407056
:10FDE00069690143A1606846FDF7B7FFC2488442D4
:10FDF00001D10E990FE0C148844201D10F990AE068
:10FE0000BF48844201D1109905E0BE48844201D127
:10FE1000119900E012992068000408D52A68490069
:10FE2000B1FBF2F0B1FBF2F302FB131106E02A681A
:10FE3000B1FBF2F0B1FBF2F302FB13112A68B1EB54
:10FE4000520F00D3401C2168090405D5C0F34201BC
:10FE50004FF6F07210400843A08117B030BD4FF448
:10FE600016510160002141608160C1600C22026175
:10FE70004161704710B5426822F47062D1E90034E4
:10FE80002343D1E902410C4323431343436010BD94
:10FE90000021016041608160C1607047002904D089
:10FEA000016841F0010101607047016821F0010122
:10FEB00001607047002A03D002680A43026070475D
:10FEC00002688A4302607047002904D0016841F447
:10FED000004101607047016821F4004101607047F2
:10FEE000002904D0816841F4006181607047816815
:10FEF00021F4006181607047002904D0416841F419
:10FF0000002141607047416821F400214160704741
:10FF1000002904D0416841F4802141607047416864
:10FF200021F4802141607047002A03D042680A43CF
:10FF30004260704742688A4342607047002904D09B
:10FF4000416841F4004141607047416821F400413B
:10FF500041607047002904D0416841F400014160CC
:10FF60007047416821F4000141607047426902F026
:10FF70007F42426142690A4342617047028A02F449
:10FF80007F420282028A0A4302827047002904D01B
:10FF9000016841F0020101607047016821F002012F
:10FFA00001607047826822F44012826082680A43CE
:10FFB00082607047002904D0416841F4801141609B
:10FFC0007047416821F4801141607047426822F413
:10FFD000C002426042680A4342607047C1F30801B0
:10FFE00001857047808CC0F308007047426822F09A
:10FFF0007F424260426842EA0161416070470029E5
:020000040801F1
:1000000004D0016841F4005101607047016821F497
:10001000005101607047026822F4006202600268C9
:100020000A4302607047426822F010024260426850
:100030000A4342607047426822F0200242604268F0
:100040000A4342607047002904D0416841F480416E
:1000500041607047416821F4804141607047002948
:1000600004D0816841F0080181607047816821F007
:10007000080181607047028AD2B20282028A42EA93
:10008000012101827047002904D0816841F02001DC
:1000900081607047816821F02001816070470029EC
:1000A00004D0816841F0100181607047816821F0BF
:1000B000100181607047826822F460228260826849
:1000C00042EA414181607047426922F07F424261C9
:1000D000426942EA016141617047826822F004028C
:1000E000826082680A438260704700290ED081686E
:1000F00041F0020181607047003801400044004037
:1001000000480040004C004000500040816821F051
:1001100002018160EFE7002904D0816841F4804149
:100120008160E8E7816821F480418160E3E78268CB
:1001300022F40042826082680A438260DBE7026840
:1001400022F078720260026842EA41510160D2E70F
:10015000026822F4F8120260026842EA014101607A
:10016000C9E7002A03D082680A438260C3E7826835
:100170008A438260BFE7826822F40052826082680C
:100180000A438260B7E710B5C1F3072401238B400F
:10019000022C02D0032C02D002E0001D00E0083047
:1001A0001AB101681943016010BD016899430160EB
:1001B00010BD002A03D0028B0A4302839BE7028B07
:1001C0008A43028397E7826822F4805282608268C1
:1001D0000A4382608FE702460020D2690A428AD031
:1001E000012088E7016286E730B50024C1F30723C8
:1001F000012505FA01F2012B0CD0022B0DD08368EA
:100200001340090C8D40C06928400BB100B1012496
:10021000204630BD03681340F3E743681340F0E71E
:10022000090C01228A40026265E7000010B5012135
:100230000C072046FEF70EF82046BDE810400021CE
:10024000FEF708B8294908627047294A116821F069
:10025000E001014311607047244908617047244A56
:10026000002903D0516801435160704751688143B0
:10027000516070471F490A6822F004020A60012891
:1002800003D040BF20BF20BF704730BF7047184B1E
:100290001A6822F0030202431A601648026842F00C
:1002A00004020260012905D020BF016821F0040189
:1002B0000160704730BFF8E70D48016841F0020166
:1002C00001600C48016841F00401016030BF7047D3
:1002D00001460020064A52680A4200D001207047B9
:1002E00003490A6842EA80000860704700000E4235
:1002F0000070004010ED00E07FB501210846FDF7D9
:1003000088FF4FF080452846FEF7F4FE40F2CF719B
:10031000029140F26711ADF804100024ADF80C40D2
:10032000ADF8064001A92846FEF77BFF01212846CB
:10033000FFF71AFC012211462846FFF700FC0121B5
:100340002846FFF703F84FF44070FDF7EFFB1C2041
:100350008DF8000005208DF801008DF80240012085
:100360008DF803006846FDF7E6FB7FBD3EB5012131
:100370000420FDF74EFFD34C2046FEF7BBFE44F6AB
:100380001F61019140F60F61ADF800100021ADF83A
:100390000810ADF8021069462046FEF742FF002122
:1003A0002046FEF7D3FF00212046FEF787FF0121FC
:1003B0002046FFF7D9FB01212046FEF7C7FF3EBDCF
:1003C00010B5FFF7D3FFBDE8104018F05EBC10B5C4
:1003D000044645F25550FDF789FB0620FDF789FBE1
:1003E00040F6FF70FDF788FBFDF789FBFDF78FFBFB
:1003F000B549216010BD30B587B0B448007B0128F5
:100400002FD002282FD004282FD008282FD0102832
:100410002FD020282FD040282FD0ADA1AE4C94F85B
:10042000550002282BD094F85500002877D094F876
:100430004A00002866D094F84A00012864D094F855
:100440004A00022862D094F84A00032861D094F848
:100450004A0004285FD094F84A0005285DD09FA088
:100460005EE0A0A1DAE7A3A1D8E7A5A1D6E7A7A1FE
:10047000D4E7A9A1D2E7ACA1D0E7AFA1CEE794F829
:100480004A0048B394F84A00012827D094F84A005B
:10049000022825D094F84A00032823D094F84A0073
:1004A000042821D094F84A0005281FD094F84A0067
:1004B00006281DD094F84A0007281BD094F84A005B
:1004C000082819D094F84A00092817D094F84A004F
:1004D0000A2815D081A023E09AA021E0A0A01FE067
:1004E000A6A01DE0ABA01BE0AAA019E0ADA017E0FC
:1004F000B0A015E0B3A013E0B8A011E0BCA00FE0DD
:10050000BFA00DE0C2A00BE0C9A009E0D0A007E0A9
:1005100005E0D5A004E0D9A002E0DDA000E0E2A063
:1005200094F84B20012A11D0E1A2684D903DAB68B0
:1005300093F8A03063B1DEA3CDE90232CDE9040126
:10054000686890F8320028B195A004E094A2ECE726
:1005500093A3F1E7D6A060491C39CDE900102068CB
:1005600003792068C27820688178D34827F056F94B
:1005700007B030BD2DE9F0472DED028B8AB0002485
:10058000DFF854A1DAF8140090F82E0005285DD0A9
:10059000DAF8140090F82E00012859D0DAF8140087
:1005A00090F82E00032855D0DAF8140090F82E00A9
:1005B000022851D0DAF8140090F82E0004284DD00B
:1005C000BEA2DFF80891A9F19009D9F80810BDA0E2
:1005D000523127F023F9C64BC6A09A1F02F10E0133
:1005E00027F01CF99AF85A209AF85810A9F5C87300
:1005F000C7A027F013F99AF85B10D2A027F00EF9E4
:100600009AF8570001282BD0D5A2DAF85010D6A0BE
:1006100027F004F9D9F82000818DB022DAA027F064
:10062000FDF89AF83600800720D5D9F8200090F818
:100630002E00400616D5DAF87000DAF86C10DAF8F9
:100640007020411AD7A027F0E9F819E0DEA2B8E738
:10065000E0A2B6E7E1A2B4E7E2A2B2E7E3A2B0E724
:10066000E8A2D2E7E9A027F0D9F809E0DAF87000AB
:10067000DAF86C10DAF87020411ACAA027F0CEF828
:100680009B4D423D298AE8A027F0C8F8698AECA072
:1006900027F0C4F89AF86900122810D0EEA1EFA054
:1006A00027F0BCF8DAF84010F2A027F0B7F8D9F834
:1006B0000400007E28B1F6A027F0B0F8FDE1FBA110
:1006C000EDE7F7E100080040FFDA00089409002098
:1006D000556E6B6E6F77000018070020554E4B4E1D
:1006E0004F570000436F6E6669674661696C6564C9
:1006F00000000000536F667452657365740000005B
:1007000049574452657365740000000057574452BE
:1007100065736574000000004C5057525253545298
:100720006573657400000000506F7765724F6E52FC
:100730006573657400000000436F6E666967204F43
:100740004B000000494D475F5245535F57414954A4
:10075000494E475F53454E44494E475F434D440021
:10076000494D475F5245535F57414954494E475F92
:100770005245505F5041434B41474500494D475F0B
:100780005245535F434845434B53554D5F45525285
:100790004F520000494D475F5245535F5049435FF8
:1007A0004F4B0000494D475F5245535F54494D45FB
:1007B0004F555400494D475F5245535F5049435F81
:1007C00045520000494D475F5245535F57524954C7
:1007D000494E475F4641494C00000000494D475F84
:1007E0005245535F57524954494E475F4F4B0000A3
:1007F000494D475F5245535F53454E44494E47006C
:10080000494D475F5245535F5049435F4156000091
:100810004655454C5F5245535F57414954494E47F1
:100820005F53454E44494E475F434D44000000002E
:100830004655454C5F5245535F57414954494E47D1
:100840005F524553504F4E53455F56414C554500FE
:100850004655454C5F5245535F434845434B5355BE
:100860004D5F4552524F52004655454C5F524553DD
:100870005F524553554C545F4F4B00004655454C15
:100880005F5245535F54494D454F55540000000099
:100890004655454C5F5245535F5041434B41474598
:1008A0005F4552524F5200004E4F54205553450061
:1008B0004661756C740000008C870308554E4B4EE2
:1008C0004F574E005B54473130322D547261636B89
:1008D00065722C20496E7374616E74207669657739
:1008E0006572202D202573202D2025735D0A0000C0
:1008F0008600002056657273696F6E2020202020CC
:1009000020202020203A20257325732E25730A00ED
:100910005265737461727420696E666F20202020A6
:10092000203A2025642C206175746F20696E7465EF
:100930007276616C3A2025642C206C6173743A20C5
:1009400025730A0057616B655570496E7465727640
:10095000616C2020203A202564286D696E290A00E8
:10096000756E73616665000052756E6E696E672004
:1009700074696D6520202020203A20256420286895
:10098000292C2025730A000054656D70657261740E
:100990007572652020202020203A2025642563439D
:1009A0000A0000004D656D6F727928757361676587
:1009B0002F4361706163697479293A2025642F257A
:1009C00064202842290A0000534F494C44205354C4
:1009D0004F50000052455354494E470053544F5016
:1009E0005045440052554E4E494E470052554E4ECA
:1009F000494E4720494E204F564552535045454495
:100A0000000000007361666500000000534420632D
:100A1000617264206973206E6F7420696E736572F1
:100A2000746564210A0000005461736B3120727593
:100A30006E6E696E67202020203A2025640A00002F
:100A40005461736B322072756E6E696E6720202060
:100A5000203A2025640A00006F66660044617461D4
:100A6000206C6F676765722020202020203A2025A7
:100A7000730A000053797374656D2E537573706536
:100A80006E642020203A20307825780A000000008B
:100A9000475053207369676E616C2020202020200E
:100AA000203A20476F6F640A000000007772697473
:100AB000696E6700C5A026F0B1FED9F80400C07EBB
:100AC00000287CD0D9F80400C07E012878D0D9F85D
:100AD0000400C07E022874D0D9F80400C07E042827
:100AE00070D0D9F80400C07E03286CD0AFF2144156
:100AF000BEA026F093FED9F80400017DC1A026F027
:100B00008DFED9F8080090F88C10C4A026F086FE5F
:100B1000D9F8080090F88A10C7A026F07FFEBAF82E
:100B20004820DAF80800C189C9A026F077FEDAF873
:100B30004C10CEA026F072FED9F808008D3017F0C8
:100B400039FC0146D1A026F069FED9F808009230A0
:100B500017F030FC0146D4A026F060FED9F808005A
:100B60004068418DD7A026F059FED9F808004168A9
:100B7000DDA0491C26F052FED9F80800406890F824
:100B8000200002285ED0DEA3DAF82020DAF8201058
:100B90004E322A31DEA026F041FE9AF87900002874
:100BA00052D0DEA00090D9F80800406890F82100EB
:100BB00002284BD0D2A3DAF82020793204E037E0C3
:100BC00038E039E03AE03BE0DAF82010D6A05531C1
:100BD00026F024FE9AF8550098B19AF8550002289C
:100BE0000FD09AF8550004280BD0D3489AF8551026
:100BF000C28FD2A026F012FE9AF84A10D5A026F095
:100C00000DFE9AF83500800622D5D8A026F006FE03
:100C1000DAF81000407910B1DBA026F0FFFDDAF819
:100C200010000079002816D0DEA026F0F7FD12E0B3
:100C3000E3A15DE7E6A15BE7EAA159E7EEA157E78B
:100C4000F0A155E7AFA39FE7F4A0ABE7ADA3B2E7F0
:100C5000F6A026F0E3FDDAF80800806826F0BDF87B
:100C60000546DAF808000E46406826F0B6F8074652
:100C7000D9F828008846006826F0AFF841EC100B40
:100C8000D9F82800407A04287ED0D9F82800407A84
:100C900003287AD0D9F82800407A012876D0D9F8EC
:100CA0002800407A022872D0E7A0CDE90278CDE989
:100CB00004560690DAF80C00C079D9F82010C989DA
:100CC000CDE9001053EC102BE34826F0A7FDD9F82E
:100CD0002800406826F081F841EC100BD9F8280074
:100CE000007A04286DD0D9F82800007A032869D04A
:100CF000D9F82800007A012865D0D9F82800007AB0
:100D0000022861D0D0A0DAF808104A7BDAF808107F
:100D10000B7BDAF80C10097ACDE9023201910490CC
:100D2000D9F820008089009053EC102BCB4826F096
:100D300075FDD9F82000008900EE100AB8EE400ACF
:100D40009FEDC78A20EE080A10EE100A26F045F83B
:100D500041EC100BD9F82000018953EC102BC1A0F5
:100D600026F05CFDD9F82000408900EE100AB8EEAC
:100D7000400A20EE080A10EE100A26F02EF841EC88
:100D8000100BD9F8200003E019E0A5E1A6E1A7E1E6
:100D9000418953EC102BBCA026F040FDD9F820006F
:100DA000828CD9F820004169C0A026F037FDD9F81F
:100DB000200090F82E00400707D5C3A19CE1C3A0F6
:100DC00073E78FE191E192E193E194E14750532081
:100DD0007369676E616C202020202020203A206EED
:100DE0006F7420676F6F640A000000004750534F14
:100DF0007065726174696F6E4D6F6465203A20256D
:100E0000730A0000536174656C6C69746573206EBD
:100E1000756D6265723A2025640A000047534D20C3
:100E20006E6574776F726B206E616D65203A205B22
:100E300025645D0A0000000047534D207369676E0A
:100E4000616C20737472656E673A2025640A000035
:100E5000534D5320636F756E7465722020202020DF
:100E6000203A2025642F25640A0000004279746529
:100E7000436F6E757465722020202020203A202553
:100E800064202862797465290A0000004C425320CE
:100E90007C5F204C4143202020202020203A20301D
:100EA0007825780A00000000202020207C5F204365
:100EB0004944202020202020203A20307825780A1C
:100EC00000000000475052532020202020202020E6
:100ED00020202020203A20617661696C61626C6577
:100EE0002C2025640A0000004C6F63616C2049507F
:100EF0002020202020202020203A2025730A0000D6
:100F00006E6F7420636F6E6E6563746564000000BD
:100F100025732F25733A2025730A000041637469F5
:100F2000766174656400000025732F25733A2025CF
:100F3000732D25730A000000F00700204675656CCC
:100F40002073656E736F725B25645D20203A2025E7
:100F5000640A000045585452533233325F315F53B4
:100F600074617475733A2025640A000042757A7AB8
:100F7000657220202020202020202020203A206977
:100F80006E207573650A0000416C61726D20436FBD
:100F90006E74692044726976696E673A204F6E0AF2
:100FA00000000000416C61726D204F766572207305
:100FB000706565642020203A204F6E0A0000000012
:100FC0004750535F4E4F4D414C5F4D4F44450000DD
:100FD0004750535F5354414E4442595F4D4F44452F
:100FE000000000004750535F504552494F44494369
:100FF0005F4D4F44450000004750535F4641554CFC
:10100000540000004750535F414C5741594C4F43E7
:101010004154455F4D4F4445000000006E6F742001
:1010200061637469766174656400000042757A7A60
:10103000657220202020202020202020203A206EB1
:101040006F74207573650A00564F4C5F494E5F52AE
:10105000414E47450000000044870308008703080D
:101060008FFC413B4144432031203132562D2D2D00
:101070002D2D2D2D2D3A202564203C2D3E2025326E
:101080002E336620560A000041444320322031327C
:10109000562D2D2D2D2D2D2D2D3A202564203C2D26
:1010A0003E2025322E336620560A000050756C73A0
:1010B0006531436E742F463120202020203A2025B0
:1010C000642F25640A0000004F4E0000564F4C5F0D
:1010D000554E4B4E4F570000D8A0E6E5DAA0E4E5A8
:1010E000DFA0E2E5AFF21C000DE6E3A00BE6D6A020
:1010F00009E6DBA007E6E5A1E5A026F08FFB9AF85C
:101100003600C0F38200052808D0D9F8200090F8F6
:101110002E00800610D5AFF250010EE0D9F8200065
:1011200090F82E00800602D5AFF2640100E0D7A14E
:10113000DDA026F073FB03E0D4A1E1A026F06EFB56
:101140009AF83600C0F38200042807D0D9F82000AE
:1011500090F82E0080070ED5DFA10DE0D9F8200011
:1011600090F82E00800701D5DBA100E0DCA1DEA015
:1011700026F054FB03E0DAA1E1A026F04FFB9AF839
:10118000360010F01C0F12D09AF83600C0F382001F
:1011900001280CD09AF83600C0F3820002281CD037
:1011A0009AF83600C0F38200032816D029E0D9F857
:1011B000200090F82E00000602D5AFF2F40200E005
:1011C000B2A29AF8360010F01C0F04D02B21D2A046
:1011D00026F024FB15E02D21F9E7D9F8200090F83E
:1011E0002E00C00702D0AFF2201200E0A7A29AF8AA
:1011F0003600C0F3820002280CD02B21CCA026F0B0
:101200000DFBD9F8200090F82E00000704D5AFF2AE
:10121000481102E02D21F1E79CA1CBA026F0FEFAB7
:10122000D9F804008068006890B120F0D7FA0278FD
:10123000D9F804008068006803789AF8380010F044
:101240000C0F01D0C6A100E0C7A1C9A026F0E6FAA4
:10125000DAF81400406890F85C0001287ED0DAF8D3
:101260001400406890F85C00022878D0DAF8140086
:10127000406890F85C00032872D0C3A1C5A026F096
:10128000CDFADAF8140040680078002869D0DAF85E
:101290001400406890F85C00012876D0C3A2DAF808
:1012A0001400406890F8330002286FD0DAF8140078
:1012B000406890F83300012869D0BDA1C1A026F094
:1012C000ADFADAF814004168C5A0103126F0A6FA8C
:1012D000C9A026F0A3FADAF81400416804F1080066
:1012E000095CCAA026F09AFA641CE4B2082CF2D376
:1012F000A4A026F093FADAF81400406890F84300AE
:10130000DAF81410496891F84210DAF8142052689B
:1013100092F84120DAF814305B6893F84030CDE958
:101320000532CDE90710DAF81400406890F83F0064
:10133000DAF81410496891F83E30DAF81410496868
:1013400091F83D20DAF81410496891F83C1001AD8D
:101350000EC50490DAF81400406803E040E041E074
:1013600042E018E090F83B000090DAF81400406882
:1013700090F83A30DAF81400406890F83920DAF83A
:101380001400406890F8381002E02FE030E031E0BF
:10139000A0A026F043FADAF814004068C18EAAA093
:1013A00026F03CFADAF814004068818EAEA026F0F0
:1013B00035FADAF800000388DAF81400C28BDAF89C
:1013C0001400018CB0A026F029FADAF81400816A22
:1013D0000AB0B7A0BDEC028BBDE8F04726F01EBAFC
:1013E000BAA14BE7BDA149E7C0A147E7C3A256E7B1
:1013F000C3A163E7C8A161E710B5CDA026F00EFA3E
:101400003B21D2A026F00AFA6421D8A026F006FAE1
:101410003021DEA026F002FA5C21E4A026F0FEF9DD
:101420002021EAA026F0FAF92421F0A026F0F6F90E
:101430002421F6A026F0F2F99321F7E1564F4C5FF4
:10144000444F574E00000000564F4C5F4C454654E9
:101450005F4F55545F4F465F52414E474500000075
:10146000564F4C5F52494748545F4F55545F4F4663
:101470005F52414E47450000564F4C5F444953432D
:101480004F4E4E4543544544000000004F46460031
:1014900056652D2D2D2D2D2D2D2D2D2D2D2D4143F1
:1014A000433A2025730A000056652D2D2D2D2D2D34
:1014B0002D2A416972436F6E2D3A2025730A000070
:1014C00056652D2D2D2D2D2D2D2D416972436F6EBD
:1014D0002B3A2025730A00004F50454E00000000B3
:1014E000434C4F534500000056652D2D2D2D2D2DBD
:1014F0002D2D2D2A446F6F722B3A2025730A000080
:1015000056652D2D2D2D2D2D2D2D2D2D446F6F72CA
:101510002D3A2025730A000056652D2D2D2D2D2DD9
:101520002D2D2D2D2D42454E25633A2025730A0081
:1015300056652D2D2D2D2D2D2D2D2D2D2D534F530C
:1015400025633A2025730A0056652D2D2D2D2D2D4E
:101550002D2D2D2D2D2D454E473A2025730A0000A7
:10156000202067707300000070756C7365000000C8
:101570005370656564202825732928253032642935
:101580003A2025640A000000445F554E4B4E4F57E9
:1015900000000000547269702020202020202020AC
:1015A00020202020203A2025730A0000300000006F
:1015B00053544154455F4452495645525F554E4B32
:1015C0004E4F5700447269766572202020202020FB
:1015D00020202020203A202573282573290A000086
:1015E0004E616D65202020202020202020202020FA
:1015F000203A2025730A00004472697665722054EF
:101600006167202020202020203A200025303278D9
:101610000000000054696D6520202020202020203B
:1016200020202020203A20256325633A2563256366
:101630003A25632563202D20256325633A256325FC
:10164000633A256325630A0044726976696E6720F0
:1016500074696D6520202020203A20256420286DA3
:10166000696E290A00000000436F6E74204472699D
:1016700076696E672074696D653A20256420286D4F
:10168000696E290A000000005265737465642020A9
:101690002020202020202020203A20256420286D92
:1016A000696E2920282564203F202564290A00002E
:1016B00044697374616E63652020202020202020FF
:1016C000203A20256420286D290A0000445F5354E5
:1016D0004152545F415F545249500000445F5041B1
:1016E0005553455F415F545249500000445F46499D
:1016F0004E4953485F415F54524950003100000049
:1017000053544154455F4452495645525F445249EF
:1017100056494E470000000053544154455F44521F
:10172000495645525F52455354494E470000000008
:10173000434845434B2053495A45204F4620444196
:1017400054412054595045530A0000002D2053693C
:101750007A65206F662074673130327061636B6127
:1017600067655F6465663A2025640A002D20536929
:101770007A65206F66204472697665725F6465667B
:101780002020203A2025640A000000002D20536903
:101790007A65206F662056656869636C655F64656D
:1017A0006620203A2025640A000000002D2053699D
:1017B0007A65206F66204472697665724D73675F43
:1017C0006465663A2025642B31390A002D2053695F
:1017D0007A65206F662053746F704D73675F646520
:1017E00066203A2025642B31390A00002D205369E8
:1017F0007A65206F6620446F6F724D73675F646512
:1018000066203A2025642B31390A00002D205369C7
:101810007A65206F662053686966744D73675F64EC
:1018200065663A2025642B31390A000084A025F032
:10183000F5FF0C218AA025F0F1FF0C218FA025F0E7
:10184000EDFF342194A025F0E9FF7C219CA025F038
:10185000E5FF6421A3A025F0E1FF4021AAA025F027
:10186000DDFF0C21B1A025F0D9FF0621B8A025F09D
:10187000D5FF0821BFA025F0D1FFBDE810402021F1
:10188000C5A025F0CBBFFEB50024CC4DCCA025F0E3
:10189000C5FFD1A025F0C2FFD74BD8A09A1F02F1F7
:1018A0000E0125F0BBFFD5E90032DBA0A96825F0C9
:1018B000B5FFE14D95F83900800601D5DFA100E0C4
:1018C000E4A1E9A025F0AAFFED4E70680068007958
:1018D00071680968C978726812689278CDE9002148
:1018E000029070684068037970684068C2787068D8
:1018F00040688178E3A025F091FF95F85810EFA09B
:1019000025F08CFFA6F5C871F2A025F087FF06F13F
:101910009000037B012B16D0022B17D0042B18D07C
:10192000082B19D0102B1AD0202B1BD0402B1CD0E9
:10193000EE4AD349EEA09D3125F070FFAE48423803
:10194000017AA9B132E0E94A1432F2E7E74A2432D7
:10195000EFE7E64A3032ECE7E44A3C32E9E7E34AB3
:101960004832E6E7E14A5832E3E7E04A6832E0E726
:1019700001210172B0485C3000210160416081604A
:101980007168496851F8052F026089888180716803
:10199000096851F8052FC0F8062089884181DC4B81
:1019A000A54A7C211B684FF49160984795F869001F
:1019B00000283CD0D7A025F031FFD948FCF7CDF95D
:1019C000D74ED8A0316825F029FFDDA0716825F039
:1019D00025FFE2A0B16825F021FFE7A0F16825F01E
:1019E0001DFFECA0316B25F019FFF1A025F016FFCB
:1019F00095F8690001281BD095F86900022818D0D5
:101A000095F86900032815D095F86900042812D0CC
:101A100095F869000A280FD095F8690008280CD0BD
:101A200095F869000B2809D095F86910C8E1CAE15A
:101A3000EDE1F0E1F3E1F6E1F9E1FCE1FFE10000C5
:101A40002D2053697A65206F662053506565644D7B
:101A500073675F6465663A2025640A0A0000000027
:101A60002D2053697A65206F662054696D655F6427
:101A70006566202020203A2025640A002D20536925
:101A80007A65206F6620446174655F646566202016
:101A900020203A2025640A002D2053697A65206FA2
:101AA0006620526571756573744D616E6167656D11
:101AB000656E745F6465663A2025640A0000000064
:101AC0002D2053697A65206F662053797374656D94
:101AD0004D616E616765725F646566203A202564BA
:101AE0000A0000002D2053697A65206F6620466940
:101AF0006C654D616E6167656D656E745F6465668A
:101B00003A2025640A0000002D2053697A65206F71
:101B100066205466696C655F64656620202020201D
:101B2000202020203A2025640A0000002D2053693F
:101B30007A65206F66205466696C655379737465A5
:101B40006D5F6465662020203A2025640A0000004D
:101B50002D2053697A65206F6620737461746973F0
:101B60007469635F7461626C655F6465663A2025C1
:101B7000640A0A002D2053697A65206F662070611F
:101B8000636B616765696E666F5F646566202020C0
:101B9000203A2025640A0A002D2053697A65206FB7
:101BA00066205175657565446174615F6465662082
:101BB00020202020203A2025640A0A00E8F7FF1F91
:101BC0000A0D5B545241434B494E472053595354DD
:101BD000454D5D0A000000004D6F64656C202020BB
:101BE0002020202020202020203A20446576696390
:101BF000654E616D650A0000860000204669726DC1
:101C0000776172652056657220202020203A2025B9
:101C10007325732E25730A0053657269616C202049
:101C20002020202020202020203A2025782D2578D3
:101C30002D25780A000000001807002072756E201C
:101C400061732061646D696E6973747261746F721F
:101C50000000000072756E206173206E6F726D61FE
:101C60006C207573657200005365637572697479D1
:101C70002020202020202020203A2025730A000048
:101C800004090020446174652F74696D652020206B
:101C900020202020203A20253032642F2530326445
:101CA0002F323025303264202D20253032643A2501
:101CB0003032643A253032640A0000004E554D42FD
:101CC0004552204F4620524553544152543A202504
:101CD000640A00004C6173742072657374617274DD
:101CE00020202020203A2025730A0000D006010879
:101CF0004361707475726520706F77657220202063
:101D0000203A2025732D25735B307825785D0A00F5
:101D100074010020434C4F434B205359530A000099
:101D2000883400202D20535953434C4B5F46726535
:101D30007175656E6379203A2025640A0000000001
:101D40002D2048434C4B5F4672657175656E637913
:101D50002020203A2025640A000000002D20504356
:101D60004C4B315F4672657175656E637920203A20
:101D70002025640A000000002D2050434C4B325FA8
:101D80004672657175656E637920203A2025640A74
:101D9000000000002D2054494D32434C4B5F4672E9
:101DA000657175656E63793A2025640A000000004C
:101DB000434845434B204D4F4E49544F520A000073
:101DC00060A025F02BFDB5F84830A868C28995F8C9
:101DD0003900C0F3400165A025F020FD95F83800DA
:101DE00010F00C0F2FD06CA025F018FD95F85500C1
:101DF000754E00287FD068698068006A016B73A007
:101E000025F00CFD95F85500022820D057E075A06C
:101E100025F004FDD7E77EA025F000FDD3E788A0DC
:101E200025F0FCFCCFE793A025F0F8FCCBE79FA0C2
:101E300025F0F4FCC7E7ADA025F0F0FCC3E7BAA09D
:101E400025F0ECFCBFE7C4A025F0E8FCCEE7F07A73
:101E5000002834D0CFA025F0E1FCF17ACFA025F006
:101E6000DDFCF07A012801D9022100E00121D5A092
:101E700025F0D4FCB17ADDA025F0D0FCF17EE5A000
:101E800025F0CCFC717FEDA025F0C8FC96F824105D
:101E9000F4A025F0C3FC708C3C21B0FBF1F2B0FB48
:101EA000F1F301FB1207308C0097B0FBF1F201FB5C
:101EB0001202B0FBF1F1F5A025F0B0FC1BE095F8A3
:101EC0005510FE48032935D095F85510052932D014
:101ED00095F8551001292FD095F8551007292CD0C9
:101EE00095F85510062929D095F85510082926D0BF
:101EF000F3A025F093FCF17AA8A025F08FFC686987
:101F00008068006A416BF2A025F088FC686940682F
:101F10000078002814D0F8A025F080FC686940689B
:101F200090F85C0001280CD06869406890F85C006B
:101F30000228E9E160E265E26CE271E278E27DE2CA
:101F400057E281E22D204D4F4E49544F5220202020
:101F50002020202020202020202020202020202081
:101F6000202020203A2025640A0000002D20534D17
:101F70005328526573706F6E73652F546872657362
:101F8000686F6C642F757365642920203A2025647E
:101F90002F25642F25640A002D204D65617375720D
:101FA000652076656C6F636974792020202020207D
:101FB00020202020202020203A20426173656420C8
:101FC0006F6E204750530A00340A002052533233B8
:101FD00032203120534552564943453A2025640A60
:101FE000000000002D204D4F4E49544F522020201C
:101FF00020202020202020202020202020202020E1
:10200000202020203A2047534D207461736B0A0032
:102010002D204D4F4E49544F52202020202020206B
:1020200020202020202020202020202020202020B0
:102030003A205143564E3331207461736B0A0000CD
:102040002D204D4F4E49544F52202020202020203B
:102050002020202020202020202020202020202080
:102060003A205061636B6167696E67207461736BBE
:102070000A0000002D204D4F4E49544F5220202081
:102080002020202020202020202020202020202050
:10209000202020203A2053746174652063686563B2
:1020A0006B696E67207461736B0A00002D204D4FC1
:1020B0004E49544F52202020202020202020202034
:1020C0002020202020202020202020203A20416392
:1020D00063657373696E672054473130322773200C
:1020E0006D656D207461736B0A0000002D204D4FEB
:1020F0004E49544F522020202020202020202020F4
:102100002020202020202020202020203A20446F42
:10211000776E6C6F6164206669726D77617265209D
:102120007461736B0A0000002D204D4F4E49544FCF
:10213000522020202020202020202020202020206D
:1021400020202020202020203A2043616D657261EC
:10215000207461736B0A00002D204D6561737572E8
:10216000652076656C6F63697479202020202020BB
:1021700020202020202020203A2042617365642006
:102180006F6E2070756C7365207369676E616C0A81
:102190000000000043414D4552410A002D20546F7C
:1021A00074616C2043616D6572612072756E6E6939
:1021B0006E67202020202020202020203A20256427
:1021C0000A0000002D204B696E64206F6620484C89
:1021D0002043616D65726120202020202020202076
:1021E000202020203A20253031640A002020207C45
:1021F0005F54696D6520496E74657276616C202844
:102200006D696E7574657329202020203A2025643D
:102210000A0000002020207C5F466F7220657665F2
:102220006E747320202020202020202020202020B9
:10223000202020203A20307825780A002020207C99
:102240005F54696D65206C6174656E637920202828
:102250007365636F6E647329202020203A20256403
:102260000A0000002020207C5F53746174652043C5
:10227000616D65726120447269766572202020204C
:10228000202020203A2025640A0000002020207C05
:102290005F616C6C6F7765642066726F6D202530AE
:1022A00032643A253032643A303020746F20253061
:1022B00032643A253032643A30300A00F0070020A8
:1022C0002D204E6F207365766963650A000000005B
