:020000040800F2
:10000000B0450020D1000008A53A00086987000823
:1000100000000000000000000000000000000000E0
:10002000000000000000000000000000154A000869
:100030000000000000000000393C0008E94A000808
:100040000101000800000000010100080101000892
:100050000101000801010008010100080101000878
:100060000000000001010008010100080101000872
:100070000101000801010008010100080000000062
:100080000101000801010008010100080101000848
:100090000101000801010008010100080101000838
:1000A0000101000801010008010100087D5100085C
:1000B00001010008010100080448854600F014FD14
:1000C00000480047098C0008C046C046B0450020E3
:1000D0000C4880F308880C480168090E0B4A9142CD
:1000E00005D10B480B4901600B480C4901600C48D5
:1000F00080470C480047FEE7FEE7FEE7FEE7FEE725
:10010000FEE70000B0450020040000001F000000D2
:100110001810024001000000000001400000000033
:10012000094B0008B900000830B50B460146002015
:100130002022012409E00D46D5409D4205D31D46ED
:100140009540491B2546954040191546521E002DE5
:10015000F1DC30BD38B50446C0681821401E484364
:10016000A16840183C214843616840183C2148433D
:100170002168451860690C214843216940186921AC
:10018000C900401A302100F0F1FA114A50434219D7
:10019000084600921A2902DB0E49511800910C21E1
:1001A00000F0E4FA0C4A5043009A801800900B4883
:1001B00006E0491E425C074B5A43009BD21800924E
:1001C0000029F6DC2146684600F048FB009838BD5F
:1001D000801F8607805101008033E101749200087E
:1001E00003460B439B0703D009E008C9121F08C050
:1001F000042AFAD203E00B780370401C491C521EFB
:10020000F9D27047D2B201E00270401C491EFBD205
:1002100070470022F6E710B513460A460446194611
:10022000FFF7F0FF204610BD30B505462A460B46C5
:1002300010781C78521C5B1C002801D0A042F7D01B
:10024000002C03D0002802D06D1CEFE7284630BDFB
:10025000421C0178401C0029FBD1801A704730B540
:1002600004460020034600E05B1C934203D2E05C9E
:10027000CD5C401BF8D030BD30B5054600200346AC
:1002800000E05B1C934205D2EC5CC85C201A01D1F3
:10029000002CF6D130BD70B5064605F0EBFF0468C2
:1002A00005460A220021304600F012FB2C6070BD8A
:1002B000024670B54A40D30FDB0740002DD04A00FC
:1002C0002AD0010E140E000212020919400A520A25
:1002D0008418E50104465443000A120A2E045043D0
:1002E000A4194219200CC543AA18120C0125AD030C
:1002F000521C521912047F39240400D0521C10439E
:1003000001D44000491EC2B20C06C0092018401C8E
:100310004008802A02D003E0002070BD4008400061
:10032000002900DA0020184370BD70B502464A402B
:10033000D50F40004A00ED0740085208002814D0AD
:10034000002A12D0C40DD30D41020120C005520273
:10035000490A520AE41A091812187D34914201D34D
:10036000641C00E04900002C01DA002070BD00236D
:10037000914201D3891A0343400849000028F7D16C
:1003800000290AD0914202D10121C90705E091421A
:1003900001D2012101E00121C943E005C018401943
:1003A00000F0CEFA70BD0000F0B507460846584090
:1003B00087B0C00F049048000E4659004008490815
:1003C000BC1A884105D2384631461E4617460B46B0
:1003D00002465800400810434DD0300D03904005B0
:1003E0005900400D490D0590401A0290402873DADB
:1003F00018030121000B090508430190049800929D
:10040000002806D01146019A4942002090410091EF
:100410000190029840210A1A0199009800F0EAF927
:1004200005460C466B4607CB00F005FAC019714132
:10043000039A0E0D0023D71756401A467A401643EA
:1004400044D0049A002A2DD0029A012A039A15DC7E
:100450001205C01A914101263605001C7141D20FC8
:10046000059ED2070093019202962A46234600F089
:10047000B5FA07B0F0BD38463146FAE71605234A0B
:100480000F46B218C01AB74101210905001C4F419F
:1004900000187F41114618187941E20F10436D1979
:1004A000644113E0E2076D0815436408C207144372
:1004B000039A01261205C01A91413605001C7141AC
:1004C000CE07400830434908C01851412A46234608
:1004D00000F077FACDE7FFE7049801224000C1174A
:1004E000121A00238B4104983146C417381AA141CF
:1004F000EEE730B40124E407634030BC54E730B485
:100500000124E407614030BC4EE700000000E0FF3A
:10051000F0B51FB488B00B99099800244840099998
:10052000C00F490049080991C0070B990090490084
:1005300049080B9109990898A64608431CD00B99C5
:100540000A98084318D0099801244000420D480039
:10055000410D099824050003000B204309900B98D6
:100560000003000B20430B9050181C494018002238
:1005700001901446104605E0002001460DB0F0BD84
:10058000032801DA034600E003239C46C11A0AAEA1
:100590000AE05F0008ADED5B4F00F75B7D4300278D
:1005A000AA187C41491C5B1E6145F2DD410004AB89
:1005B0005A522104120C0A43240C401C0828DFDB89
:1005C000019802900099704601910090059B049A51
:1005D0000799069800F002FAD0E700000DFCFFFF33
:1005E000F0B50C465C4085B0E40FE40703944C0082
:1005F00000266408590094464908024602962243A0
:1006000021D062460A431ED06200570D4A000E03F5
:100610002303550D012402462C492405781B1B0B8E
:10062000360B401823432643614600901C46501A5F
:10063000B44103D30098401C009002E09218009847
:100640005B41002803DA0020014605B0F0BD002020
:10065000012109050746864611E064461D46141B24
:10066000B54106D36546521BB341744607430C435C
:10067000A646CD0740084908284392185B41054625
:100680000D43EAD11046184313D060461946504036
:100690007140084306D06046101AB34106D20122C9
:1006A000002306E000220123DB0702E00122D243FF
:1006B0005310009874460105381C6141029C039D4B
:1006C0000019694100F07DF9BFE70000FD0300005B
:1006D00010B500229623114600F03AF910BD000033
:1006E0000EB505490291002100910A460B46019181
:1006F00000F074F903B000BD3304000070B5CD0FF5
:100700004A0009030123090B1B0519430B4BED0795
:100710000024520D9A4201DA002070BD074B343399
:100720009A4203DC9A1A00F075F802E00449511865
:1007300088402C43F1D0404270BD0000FF03000010
:10074000CDFBFFFFC20FD207400040080BD0C10D08
:100750000723DB01C91840020905400A1143C208FA
:1007600040071143704700200146704770B50024D0
:100770002546002801DA01244042002901DA01253A
:100780004942FFF7D1FCAC4200D04042002C00D0DF
:10079000494270BDF0B51FB40646002082B0054640
:1007A0004024019100901BE0019922460F463046FB
:1007B00000F030F8049A059B801A994110D3104636
:1007C0001946224600F016F8361A8F410197224644
:1007D00001200021009F00F00DF838184D410090D5
:1007E0002046641E0028DFDC019B00982946324623
:1007F00007B0F0BD10B5202A04DB0146203A914035
:10080000002010BD914020239C1A0346E340194369
:10081000904010BD10B5202A04DB0846203AD04095
:10082000002110BD0B46D340D0402024A21A914095
:100830000843194610BD10B5202A06DBCB17084621
:10084000203A1041C1170B4306E00B461341D0403C
:100850002024A21A91400843194610BD70B50C46D9
:1008600000683C21FFF760FC21603C21FFF75CFC45
:1008700061601821FFF758FC0546A1600721001DA3
:10088000FFF752FCA1610F48A90008180E49FFF7B5
:100890004BFC0246443288086261E0613B2802D387
:1008A000910700D0401C0021084B0A462161995C49
:1008B000814203D8401A521C2261F8E7401CE060D4
:1008C000204670BD6C0B0000B5050000809200084A
:1008D000F7B5009C0F4600262578641C002D05D036
:1008E00000F014F90068405DC007F5D12B2D02D04F
:1008F0002D2D18D0641E39462046029A00F00AF9C0
:10090000002F04D03968A14201D1009939607105E6
:10091000022400290BDA4042002803DD05F0AAFC7E
:100920000460A007FEBD012080020643E3E7002823
:10093000F8DA05F09FFC04600048FEBDFFFFFF7F72
:10094000002904DA401C490001D1400840007047EA
:1009500070B40024050C05D11024000402D1002934
:1009600021D01124050E01D100020834050F01D158
:100970000001241D850F01D18000A41C002801DB8B
:100980004000641C002908D020252E1B0D46F54090
:10099000A14000D001212943084301061B1B000A86
:1009A000DB1D02D5002070BC7047DB0518188018CD
:1009B0000029F8DA401C4900F5D170BC400840001D
:1009C000704710B5002B08DA0024401C61419218D2
:1009D0005B411A4301D14008400010BDF0B51FB47F
:1009E00082B005460C0003D0084605F01FFC02E06B
:1009F00005F01CFC20300246009021462846FFF7F7
:100A0000F9FE049B059A04460F4618431143084318
:100A100014D0184610431BD0009840210A1A1846DB
:100A20000599FFF7F7FE05460E46009A05990498CA
:100A3000FFF7E0FE084305D0012004E020463946D8
:100A400007B0F0BD0020C11705430E432C433743C8
:100A500000990E986305401A7905E40A00220C43B8
:100A6000FD0A0A3002D500200146E9E70105101908
:100A700069410C9C0D9D00196941FFF7A2FFDFE75A
:100A80004A0009030123090B1B0519430A4B10B542
:100A9000520D9A4202DA0020014610BD064B343353
:100AA0009A4203DC9A1AFFF7B5FE10BD034BD21829
:100AB000FFF7A0FE10BD0000FF030000CDFBFFFF0D
:100AC00010B5002904DB0124E40740428C41214693
:100AD000002B04DB1C460123DB075242A341994251
:100AE00000D1904210BD0000064C0125064E05E0E5
:100AF000E36807CC2B430C3C98471034B442F7D33F
:100B0000FFF7DEFA1C9A00083C9A0008004870477C
:100B100010930008F7B582B0029C00272078641C6F
:100B200015460197302802D0002D15D015E0207809
:100B30000127641C782804D0582802D0002D09D041
:100B40000BE0002D01D0102D07D1002710252078B3
:100B5000641C02E0082500E00A250026009610E04B
:100B60000099012769430818020C294680B2714395
:100B700000908E183804864201D30120019020781D
:100B8000641C294600F019F80028E9DA03980028C7
:100B900005D0002F01D0641E00E0029C0460019883
:100BA000002806D005F066FB02210160C81E05B0D2
:100BB000F0BD009930040843F9E73A2800D23038F4
:100BC000202302469A43412A01D3104637388842EF
:100BD00001D30020C043704770B58C180578401CC5
:100BE0006B075B0F01D10378401C2A1106D10278F4
:100BF000401C03E006780E70401C491C5B1EF9D1B6
:100C00002B0705D40023521E0DD40B70491CFAE7A4
:100C10000378401CCB1A921C03E01D780D70491C10
:100C20005B1C521EF9D5A142D8D3002070BD000034
:100C3000F0B5044600208DB007900890544D069002
:100C40000290039006460490524B2A4600212068E9
:100C500007F08AF82A1D30214FA005F0C3FA226858
:100C600052A0696B05F0BEFA55A0A96B05F0BAFA5F
:100C700057A0E96B05F0B6FA02AA06A9286C00F0A5
:100C800005FC02AF082306AA194655A0009705F0F7
:100C9000A9FA02AA06A9E06B00F0F8FB0820019768
:100CA00000902746403700210246795E06AB53A0EC
:100CB00005F098FAB0004019406C411C11D002AA0E
:100CC00006A900F0E3FB30071ED002A8082300901D
:100CD00006AA194651A005F085FA761CB6B2FF2E79
:100CE000E8D90821795E51A0626C05F07BFA0026F4
:100CF000B00041190120800208180090406C401C8F
:100D000019D030070BD00DE0082002A9024601914E
:100D1000009006AB44A14BA005F064FADDE74EA0BD
:100D200005F060FA0098416C50A005F05BFA761C63
:100D3000B6B2FF2EDCD91021795E4EA0E26C05F030
:100D400051FA00242127BF0160004019C619B1885B
:100D50004F4881420ED2200702D14EA005F042FA40
:100D6000B18852A005F03EFA641C0120A4B24002F2
:100D70008442E9D34F480189026B8BB200210846B7
:100D800006F0F2FF4CA005F02DFA0DB0F0BD00000A
:100D9000F4190020440C000069645F6E616D6520E9
:100DA00020203A20252E2A730A0000006D61696E0A
:100DB0002069642020203A2025645B25645D0A00B8
:100DC000636F70792069642020203A2025640A002E
:100DD000626C6F636B5F666C61673A2025640A0022
:100DE000637265617465645F646174653A203C2573
:100DF0002E2A732D252E2A733E0A00006D6F64691A
:100E0000666965645F646174653A205B25645D2092
:100E10003C252E2A732D252E2A733E00203C252E9C
:100E20002A732D252E2A733E000000000A66696C85
:100E3000655F73697A655B253033645D3A202538D8
:100E4000640000000A253135733C252E2A732D25B8
:100E50002E2A733E000000000A202020202020209F
:100E600020202020202020200000000020253864A1
:100E7000000000000A64617461626C6F636B5F6CF8
:100E80006973745B253033645D3A20253464000057
:100E9000FFFF00000A2020202020202020202020EA
:100EA0002020202020202020200000002025346445
:100EB00000000000180300200A2D2D2D2D2D2D2DB2
:100EC0002D2D2D2D2D2D2D2D2D2D0A0010B5044647
:100ED000074802F0E3F9062002F0D4F9054802F0D1
:100EE000D7F902F0C7F902F0BDF90348206010BD40
:100EF00055550000E20400007532000810B50120CD
:100F000002F06CFE042002F069FE062002F066FE8C
:100F1000092002F063FE052002F060FE0A2002F0C4
:100F20005DFE0B2002F05AFE0C2002F057FE0D2051
:100F300002F054FE012007F075FB042007F072FB5D
:100F40000A2007F06FFB0B2007F06CFB0C2007F06A
:100F500069FB0D2007F066FB052007F063FB092005
:100F600007F060FB10BD00B50A2007F05BFB0B200B
:100F700007F058FB0C2007F055FB0D2007F052FB43
:100F800000BD000003490A6810180A689042FCD8A6
:100F9000704700004801002002480168491C0160B8
:100FA000704700004801002070B50A4D0446686093
:100FB00009487D21C9000068FFF7B6F8002C03D06E
:100FC000604303F075FD70BD03F072FD01206860A1
:100FD00070BD000048010020C0000020F8B58A4D17
:100FE0000646287800287DD06978A878814210D0FC
:100FF000E8686C22125C152A09D1009101680B790E
:101000000168CA780068817880A005F0EBF86878FC
:10101000A870687804278A4C030005F01EF90604BE
:10102000D978CBDEE0D900200090864802F054FF4A
:1010300007006BD06A468449824802F08DFE1C226C
:1010400081497F48FFF7CCF87F4839061C30A06102
:1010500000981C3880B22082090EEAD0E8807848D7
:1010600001F0C6F87949A88088426BD0A069FFF7E3
:10107000EFF8218A884209D9A069FFF7E9F801460B
:10108000208AA269091A1018FFF7C3F820780128EE
:1010900008D0A16923200870A16941204870A16986
:1010A00020200871A888002802D0012805D00DE072
:1010B000218AA069401866A103E0218AA06940182E
:1010C00065A105F09FF8208A401D20822078012824
:1010D00018D1218A1A209F290BD2A26950540020CE
:1010E000228A00E08FE0A16989184870208A401C9C
:1010F00007E0A16980318877A16900208031C87735
:101100009F2020825648A8600220687060E0A8688E
:10111000B0420FD9801BA8602078032801D06F70DF
:1011200017E050A0A16905F05DF8032068704E48F3
:10113000A8600EE06F70E8686030007B152808D169
:10114000217800E049E049A005F04CF868780228D1
:101150003ED0E8686C21095C152939D101680B790A
:101160000168CA78006881784BA005F03BF82178C7
:1011700050A005F037F8E17C52A005F033F8A17CCF
:1011800054A005F02FF8A18A56A005F02BF820787E
:1011900002280CD0611C57A005F024F8218A59A020
:1011A00005F020F85BA0A16905F01CF810E061785B
:1011B0005CA0F1E72078032809D0E8686030007B64
:1011C000002804D0218A5BA0A26905F00BF86F709B
:1011D000A868B04215D9801B14E0052095E7208A45
:1011E000E988884200D9E880E988A069FFF711F80A
:1011F0000F21601CFFF70DF80020E07420702082A2
:1012000083E70020A860F8BD640300202530326425
:101210003A253032643A253032643A20434D445303
:1012200059535F48616E646C65723A204E657874FC
:10123000207374617465205B25645D0A0000000002
:10124000902C00201C2A0020902B0020F0FF000092
:101250002E45522E2A0000002E4F4B2E2A00000051
:101260008813000025730A0060EA0000434D4453D0
:1012700059535F48616E646C65723A205B25645D0A
:101280002052657153656E64696E675F74696D6540
:101290006F75740A00000000253032643A25303240
:1012A000643A253032643A205265706C7920636D5F
:1012B000640A0000636D64737263202020203A206A
:1012C00025640A00636D64466F726D6174203A2074
:1012D00025640A00636D64526576202020203A2040
:1012E00025640A00636D64536E20202020203A207C
:1012F00025640A00636D64616464722020203A20D2
:1013000025730A00636D646C656E202020203A20EE
:1013100025640A00636D64646174202020203A20F3
:1013200025730A00636D64616464722020203A2092
:1013300025640A004C656E6774683A2025640A25A6
:10134000730A0000F8B50546008A1C271C3080B2DD
:1013500001460090174802F063FD174E04001AD0B2
:101360003A462946FEF73CFF2A8AE019A969FEF7AA
:1013700037FF1048009902F0BBFDF0686030007B39
:10138000152806D10B4802F0A7FD01460BA004F07A
:1013900029FF0020F8BDF0686030007B152806D1D9
:1013A0000AA0009904F01EFF024802F07DFC012013
:1013B000F8BD00001C2A002064030020434D442097
:1013C000436E743A2025640A00000000507573686B
:1013D00020756E7375636365737366756C3A20254B
:1013E000640A00007CB50E4D0646E9600C460D48C7
:1013F0000A2102460191FF23009029460133503211
:101400001031243802F056FD0748C11DF9318861BA
:10141000012028702146304601F030FA7CBD0000E2
:1014200064030020402A0020902B002070B5044661
:101430000020651803E02178641C04F009F8AC4230
:10144000F9D3002104F004F8002104F001F870BD84
:101450000D494868007905224006D20680184A687E
:10146000D278520510434A689278120410430A68F1
:101470009278D20210430A68D27809685201104368
:101480000979490808437047AC030020F8B51546B0
:101490000E0004460AD0600E14380090E001030FDD
:1014A000E002C20E08A1304604F0ACFE002D0AD0C6
:1014B000E006800E00906005830E2004C20E06A197
:1014C000284604F09FFEF8BD253032642F253032C7
:1014D000642F253032640000253032643A253032E2
:1014E000643A25303264000030B587B01B2168466D
:1014F0000176002444760121817606A802F0D4FA10
:10150000E1204002059400900C2004900194029484
:1015100003946946002003F045FE0E4D01220C495C
:10152000284603F024FF0C49284603F091FE0C499D
:101530000A48086008461438C460802104610180AC
:101540001421416007A004F04DFE054807B030BDEE
:10155000050105000038014006010600741900204D
:10156000400200200A2E2E2E4C6F6164696E672E99
:101570002E2E0A00F8B50E4607460024084D0BE053
:10158000395D284603F060FF4021284603F0CCFE79
:101590000028F9D0641CA4B2B442F1D3F8BD000015
:1015A0000038014010B5064C0146204603F04CFFC0
:1015B0004021204603F0B8FE0028F9D010BD0000FD
:1015C00000380140084A51689160114614318B88F7
:1015D0001288934201D300228A808A880B689B1864
:1015E000521C8A80187070472C02002010B51B49CD
:1015F00088B08A68824204D98A68101A886008B064
:1016000010BD164C1434A088002809D02068CA6880
:10161000904205D1A0880969088000F023F8EEE720
:10162000A0880028EBD020680D498842E7D11C2112
:101630006846FEF7EEFD032168460170A18801822D
:10164000206806906846FFF77DFEA1882068FEF7B7
:10165000E0FD0020A0800220E071D0E72C020020F5
:1016600074190020002107488022C16001610280B6
:101670000246054B1432136091800221D17114216E
:10168000416070472C0200207419002030B5074CCF
:101690002261E06021800025158021461431086018
:1016A00063608D800220C87130BD00002C020020D4
:1016B000024800680005000D704700000058014016
:1016C00001480068000C704700580140F8B50C460E
:1016D000572801D077287DD1A0690822D3A1401DC9
:1016E000FEF7CAFD0527D44D002874D0A0690F224B
:1016F000D2A1401DFEF7C0FD022600286CD0A069D3
:101700000A22D2A1401DFEF7B7FD002874D0A069BF
:101710000F22D1A1401DFEF7AFFD00286DD0A069BA
:101720000722D1A1401DFEF7A7FD00286FD0A069B8
:101730000722CFA1401DFEF79FFD002868D0A069B9
:101740000722CDA1401DFEF797FD002874D0A069A7
:101750000722CBA1401DFEF78FFD00286DD0A069A8
:101760000722C9A1401DFEF787FD002876D0A06999
:101770000822C7A1401DFEF77FFD00286FD0A06999
:101780000B22C6A1401DFEF777FD002868D0A06996
:101790000922C5A1401DFEF76FFD00287AD0A0697F
:1017A0000422BCA1401DFEF767FD002873D0A0698C
:1017B0000422C0A1401DFEF75FFD00286CD0A06987
:1017C0000622BEA1401DFEF757FD002877D0052256
:1017D000BCA102E08FE011E01BE0A069401DFEF714
:1017E0004BFD00286CD0A0690522B8A1401DFEF772
:1017F00043FD0028F6D079E013E01FE0A868006AF6
:1018000080690079002876D100F0E0F96EE01DE0F3
:1018100027E0A868016A896909790029F3D10321C1
:1018200091E0A868016A896909790029EBD1016A08
:1018300089690E71006A57E01BE02EE0A868016A12
:10184000896909790029DED10D217CE0A868016A47
:10185000896909790029D6D1012174E031E04BE092
:101860005CE0A868016A896909790029CBD1062161
:1018700069E0A868016A896909790029C3D1228AC7
:10188000A169006A0C3180690E3A0A30FEF7A8FCA3
:10189000072112E05BE062E072E0A868016A8969F2
:1018A00009790029AFD1228AA169006A491D80699E
:1018B000D21F0068FEF794FC0E21A86843E08AE07E
:1018C000A9E0A868006A80690079002813D1A0699E
:1018D0000C30FEF7E0FCA9680A6A926990720A6A05
:1018E000092092691071086A8069867127820A202E
:1018F00001F0B0FBF8BD83E0A868016A8969097945
:1019000000297DD1228AA169006A0D3180690F3AD0
:101910000A30FEF765FC0021C9430FE0A868016AA0
:101920008969097900297ED1228AA169006A10316A
:101930008069123A0A30FEF753FC0121A868026A56
:101940009269D1710B21026A9269117172E7A868DC
:10195000016A89690979002965D10C21F3E7A86832
:10196000016A8969097900295DD1228AA169006A21
:10197000093180690B3A0A30FEF732FC08219CE7F6
:10198000A868006A8069007900284CD168686030D6
:10199000017B0A2909D0007B162806D0002001F01F
:1019A0002BFB6868002160300173A868006A102171
:1019B00080690A30FEF72DFCA868228AA169006AB6
:1019C000093180690B3A0A30FEF70AFC002001F069
:1019D00013FB042171E7A868006A80690079002878
:1019E00021D101F009FBA868006A102180690A3042
:1019F000FEF70FFCA868228AA169006A806900E0EE
:101A000011E00A300B310D3AFEF7EAFBA868016AD3
:101A100089690F710EE7A868016A89690979022945
:101A200001D00F218FE7002064E700007465737414
:101A30006469736B000000008003002071756963A6
:101A40006B666F726D61746469736B00666F726D43
:101A500061746469736B00006469726469736B6CB0
:101A60006F776C6576656C006469726469736B008E
:101A70006361706469736B007365617263683A00D7
:101A8000736563746F723A0072656D6F76653A00C4
:101A90006261636B64656C3A00000000666F727788
:101AA00061726464656C3A00636C65616E6469734D
:101AB0006B0000006765743A00000000777269747B
:101AC000653A000061626F727400000041424F523B
:101AD000540000000FB410B596B018A98878039090
:101AE000C878049008796430059000200290019035
:101AF0000090897B0E9118A9C97B0F9118A9097CC8
:101B00000D90643110910C900B906846FEF722FB0B
:101B100004460BA8FEF71EFB0146204606F09AFD80
:101B20000022054BFEF75CFDFEF7E8FD16B010BC89
:101B300008BC04B0184700000018F54010B502F0CA
:101B4000A5FB1248104901601149416011498160AB
:101B50001149C160114901631149C1621149816391
:101B60001149C163114981611149C1611149416341
:101B700011490162114941621149016111498162B2
:101B80001149416110BD000085570008480200203E
:101B9000BD5700087554000811550008A9540008E5
:101BA000CD540008CD890008918B000845480008F5
:101BB000C9470008A9450008D9470008CB440008D8
:101BC00061430008DD440008B94400087047000084
:101BD0000149C8607047000000200240F0B50B27A3
:101BE00006463F04384600F0D9F804280FD1084CC7
:101BF000206902252843206166612069402108434D
:101C00002061384600F0CAF82169A9432161F0BD7E
:101C10000020024008490420CA68D20701D00120F0
:101C20007047CA68D20601D502207047C9684907C3
:101C3000FBD50320704700000020024002480169E4
:101C400080221143016170470020024001B50098D5
:101C50004105C00A002900D0401C08BDF8B5064661
:101C600000200B273F0400900D46384600F096F800
:101C7000042815D10B4C20690121084320613580CF
:101C8000384600F08BF8042806D1B61C280C0096C4
:101C90003080384600F082F8216949084900216106
:101CA000F8BD000000200240FFB5074681B00020CB
:101CB0001B4C009020681E460D468047A1683846A0
:101CC0008847681C0AD02802A168000E88472804AB
:101CD000A168000E8847A168E8B288474B2F04D05E
:101CE0005A2F02D0AB2F0AD101E0012700E00327D1
:101CF0000025A168002088476D1CBD42F9DB002E3D
:101D000009D0002505E0A1680020884703994855BF
:101D10006D1CB542F7DB60688047009805B0F0BDE8
:101D2000F002002004480169090603D50349416017
:101D300003494160704700000020024023016745CD
:101D4000AB89EFCDFFB581B00020134C0090206827
:101D50001E4617460D468047A16801988847681CB3
:101D60000AD02802A168000E88472804A168000E46
:101D70008847A168E8B28847002E07D0002503E015
:101D8000A168785D88476D1CB542F9DB60688047C3
:101D9000009805B0F0BD0000F002002000B5034639
:101DA000FFF738FF02E0FFF735FF5B1E012803D085
:101DB000002B00D1052000BD002BF4D1FAE7000074
:101DC00010B5024904F0FAFE10BD000050030020D7
:101DD00000B599B0694600F007F8002802D16846BE
:101DE000FEF726FF19B000BD70B50024E4430D4690
:101DF000002809D006F09CFB411C05D080B2294682
:101E000005F078FA002070BD204670BDF0B5A5B091
:101E10000E4600256946824C8D83A188814202D3FB
:101E2000081AA080F6E0032161567D48491C01276D
:101E3000C0680B0004F011FA07054980CFEEEEE010
:101E4000EE002178CA0707D049084900217061785F
:101E500000291BD0657010E08A0702D5FD221140D1
:101E600003E00A0603D54906490E217005E0CA06BB
:101E700005D5EF2211402170A770E57006E08A06B3
:101E800004D5DF22114021700521E1700321615644
:101E9000491C02D0002811D0BCE0002802D006F076
:101EA000FDFBE560A068002803D0A57006F0F6FBF6
:101EB000A5600620E080002025B0F0BD302007F0AE
:101EC0002DF8E0600028ADD1F6E755490CA8891D32
:101ED00004F074FE012802D0002879D09AE0A0789E
:101EE0000EAD00280CD02846A168FEF79DF9002809
:101EF00006D02A464BA1E06804F084F902208DE068
:101F00002846FEF7A5F90A288CD10FA80230042232
:101F100045A10646FEF7B0F9002806D0042244A1E8
:101F20003046FEF7A9F9002874D12A463DA1E068A1
:101F300004F068F9E7706DE001780A2330394278DF
:101F4000594330395118CAB269460A7308928178E8
:101F5000C2783039594330395118CAB26946CA7209
:101F60000692417900790A223038504330380818F7
:101F7000C7B269468F7204990398019100900C22B0
:101F8000314609A8FEF72CF909AC07CC029BFFF7F4
:101F9000A1FD04463079F178B27801910394009262
:101FA000029039462448089B069A04F01BF91E2C1F
:101FB0000ADC1B4E0422F0681DA1801DFEF75CF9AF
:101FC000002806D1052C04DD15490220C87021E047
:101FD00022E0F5701EE000F065F802000AD017A1BB
:101FE00018A0E36804F0FEF83021E068FEF711F96C
:101FF000E5700FE01BA1F3E7094807A9801D04F075
:10200000ABFD020008D0002A04DD6846818B17A0D2
:1020100004F0E8F801204FE70020C043E070F9E742
:1020200054030020257300002E5458540000000073
:102030002E44454200000000D09900084661696CBA
:1020400000000000466D6E675F5574693A20257385
:102050005B25645D20746F2064656C6574653A204F
:1020600025730A005375636365737300466D6E676D
:102070005F5574693A20626164206C696E6B696EA9
:1020800067206D2564202D206425640A000000006F
:1020900010B5002803D004F0CBFD40B210BD0020E5
:1020A000C04310BD10B506F073F810BD002800D075
:1020B000406C704710B506F043F910BD002802D0FF
:1020C0004165002070470020C043704710B504F000
:1020D00091FD10BD70B50024E44315460B46002861
:1020E0000AD0002B08D002462946184605F034FFD6
:1020F000401C01D0002070BD204670BDF8B5002501
:10210000ED431E46144600280ED000290CD0002CAA
:1021100008D01346476D0A46394605F099FB3060F2
:10212000A04201D10020F8BD2846F8BD002070472C
:10213000F8B50025ED431E46144600280ED00029B0
:102140000CD0002C08D01346476D0A46394605F0DE
:10215000E7FC3060A04201D10020F8BD2846F8BD60
:10216000F0B50022012423460D6893401D409D4296
:102170002AD10D79012D01D0022D12D18768550089
:102180000326AE40B74387604E79AE4085682E4344
:10219000866085889D43858085888B7993401D4323
:1021A0008580066855000323AB409E4306600E7988
:1021B0000768AE403E430660C6689E43C660CB7962
:1021C000AB40C5682B43C360521C102ACBD3F0BD73
:1021D0004B07DB0E9A40C90810B589000818016A40
:1021E0000F249C40A1430162016A1143016210BDAA
:1021F000F8B5044658486C214068564E095C35468F
:10220000152918D101680B790168CA7800688178AE
:1022100052A003F0E7FF21785CA003F0E3FFE17C2C
:102220005EA003F0DFFFA17C60A003F0DBFFA18ACA
:1022300062A003F0D7FFA069017823290ED0218A7C
:1022400040182038C07F2A2810D0204600F010F90E
:1022500000280BD0A0690078232807D1A269507804
:10226000522805D0572803D0772801D03046F8BD32
:1022700091780A2730397943D378303959180023B7
:10228000354FC9B23B6014291CD2002902D006295F
:102290005ED113E0572801D0772859D12078012842
:1022A00003D1501D49A103F0ADFFFF2000F0D2FE85
:1022B000A069FDF7CDFF2082012514E0214601F041
:1022C000BDFC0EE0242905D215290CD12146FFF7CB
:1022D000FDF906E0642906D25B2904D1214606F007
:1022E00007FA050034D078686C21095C152924D1DF
:1022F00001680B790168CA78006881783CA003F016
:1023000071FF217845A003F06DFFE17C46A003F04A
:1023100069FFA17C47A003F065FFA18A48A003F0F4
:1023200061FF611C49A003F05DFF218A4AA003F010
:1023300059FF4CA0A16903F055FF06480F308542B4
:1023400095D03046854292D0002D01D00120F8BDB5
:102350000020F8BDF0FF000080030020253032642B
:102360003A253032643A253032643A20434D4453A2
:1023700059535F416E616C697365436F6E74656E2E
:10238000742D53746172740A00000000636D6473ED
:102390007263202020203A2025640A00636D644681
:1023A0006F726D6174203A2025640A00636D645277
:1023B0006576202020203A2025640A00636D64534E
:1023C0006E20202020203A2025640A0043686F20D8
:1023D0006B686F616E6720323573206465207265AB
:1023E0007365742074686965742062690A0000006E
:1023F000253032643A253032643A253032643A204E
:10240000434D445359535F416E616C697365436F2B
:102410006E74656E742D456E640A000073726320DD
:1024200020203A2025640A00466F726D61743A20BC
:1024300025640A005265762020203A2025640A008F
:10244000536E202020203A2025640A0061646472C3
:1024500020203A2025730A006C656E2020203A2047
:1024600025640A006461742020203A2025730A0044
:1024700070B57D4D044668686030007B002803D04D
:102480007AA0A16903F0AEFE08227CA1A069FDF745
:10249000F3FE002872D006227BA1A069FDF7ECFEB6
:1024A00000286BD007227AA1A069FDF7E5FE00287D
:1024B000A06967D0072278A1FDF7DEFE0028A06999
:1024C00063D0062276A1FDF7D7FE002860D0062251
:1024D00075A1A069FDF7D0FE002859D00F2274A184
:1024E000A069FDF7C9FE002856D00F2274A1A0698B
:1024F000FDF7C2FE00284FD00A2275A1A069FDF7A2
:10250000BBFE002854D00A2274A1A069FDF7B4FED6
:1025100000284DD0082274A1A069FDF7ADFE002867
:1025200053D0082273A1A069FDF7A6FE00284CD065
:10253000102273A1A069FDF79FFE002852D010223F
:1025400074A1A069FDF798FE00284BD0062276A161
:10255000A069FDF791FE002850D0072274A1A06960
:10256000FDF78AFE002849D00B2274A1A069FDF76F
:1025700083FE002846D0002070BDFFE7082272A12C
:10258000A06942E0102273A13FE00F2276A13CE057
:102590000F2279A1A06938E02321A06906F069F82B
:1025A0000146A069FDF735FE122277A1A0692CE053
:1025B0002321A06906F05DF8A26901461046FDF7E7
:1025C00028FE112276A1A0691FE02321A06906F050
:1025D00050F8A26901461046FDF71BFE0E2275A1B8
:1025E000A06912E02321A06906F043F80146A06922
:1025F000FDF70FFE162273A1A06906E0F02000F09F
:1026000029FDB9E70B2275A1A069FDF7E9FD68680E
:102610006C21095C002924D001680B790168CA7813
:102620000068817870A003F0DDFD217877A003F0C9
:10263000D9FDE17C79A003F0D5FDA17C7BA003F05E
:10264000D1FDA18A7DA003F0CDFD611C7FA003F028
:10265000C9FD218A81A003F0C5FD84A0A16903F012
:10266000C1FD012088E7000080030020436D643A2B
:10267000202D2D3E25733C2D2D0A0000524553542C
:10268000415254230000000052455345542300009A
:10269000524553544F524500555044415445230030
:1026A0004241434B555023006261636B75702300B8
:1026B000515549434B464F524D41544449534B00A9
:1026C000717569636B666F726D61746469736B00B9
:1026D000464F524D41544449534B0000666F726D52
:1026E00061746469736B00004449524449534B233D
:1026F000000000006469726469736B2300000000CD
:102700004449524449534B4C4F574C4556454C2332
:10271000000000006469726469736B6C6F776C65AC
:1027200076656C23000000004A554D504150500022
:102730004A554D5041505023000000004D4F4E4926
:10274000544F52204F464600235730302E2A000067
:10275000000000002357303620524553544F524555
:102760002E2A000000000000235730362055504428
:102770004154452E2A000000235730362042414361
:102780004B55502E2A0000002357323120717569B5
:10279000636B666F726D61746469736B2E2A0000DF
:1027A0002357323120666F726D61746469736B2ECA
:1027B0002A00000023573231206469726469736B08
:1027C0002E2A000023573231206469726469736BCA
:1027D0006C6F776C6576656C2E2A0000235230385A
:1027E000206F66662E2A0000253032643A2530328A
:1027F000643A253032643A20434D445359535F457F
:10280000786368616E6765436D640A00636D647325
:102810007263202020203A2025640A00636D6446FC
:102820006F726D6174203A2025640A00636D6452F2
:102830006576202020203A2025640A00636D6453C9
:102840006E20202020203A2025640A00636D6461F8
:102850006464722020203A2025730A00636D646C42
:10286000656E202020203A2025640A00636D646490
:102870006174202020203A2025730A00014A51600B
:10288000906070478003002070B50C4C20790028C0
:1028900011D0204601F030F9607900280BD10025D5
:1028A00025718321C9002068FDF7B3FC012000F0E9
:1028B000A3FB03488576207970BD0000D81800205E
:1028C0000C040020F8B50025554C0095277A022607
:1028D0000346002F08D02246116BD069126A012FDF
:1028E00026D0022F66D168E04EA003F07BFC524850
:1028F0002063402006F012FBE0610120800206F018
:102900000DFB2062E369002B10D000280ED00522B9
:102910004AA1184602F0A2F90121002801D06172F3
:1029200047E00020C0436072217243E0667240E0DD
:10293000994202D9C91A216301E0032161721F2162
:10294000A36AC90667275918FF02B9422CD280CB67
:10295000A362E36AD7501B1D0127BF02E362BB429B
:1029600012D1616A890202F061FB6B463A46216A24
:10297000E06902F067FB0098B84201D00420607261
:10298000606AE562401C6062606A00280DD0206ABF
:102990000168491C09D14168491C06D18168491C5C
:1029A00003D1C068401C00D1657209202056401C2C
:1029B00000D026720020C043F8BD0923E356012B46
:1029C00008D0022B06D0032B09D0042B09D0002BF2
:1029D0000BD00FE001461CA003F004FC0AE026A087
:1029E00000E029A003F0FEFB04E01348411A2EA0EA
:1029F00003F0F8FBE069002808D08169002901D0C4
:102A000002F0FAFAE06905F049FEE561206A002863
:102A100002D005F043FE2562656225720020F8BDF4
:102A2000E40000205B2D5D4241434B555020466938
:102A3000726D776172650A00C0D40100524553542B
:102A40004F52452E42494E00207C5F2043616E204C
:102A50006E6F7420706572666F6D206261636B7556
:102A600070206669726D7761726520307825782DE7
:102A7000307825780A000000207C5F2054696D655D
:102A80006F75740A00000000207C5F20536176653A
:102A900020696D61676520756E7375636365737317
:102AA00066756C0A00000000207C5F20526561643E
:102AB0002026205361766520496D61676520646F2B
:102AC0006E655B25645D0A0070B5054607221BA193
:102AD000FDF7D2FB0024E443002807D0062219A109
:102AE0002846FDF7C9FB00280CD01FE017A003F013
:102AF00079FB122218A11B4802F0B0F800281AA096
:102B000012D00AE01EA003F06DFB122221A115488D
:102B100002F0A4F8002806D022A003F063FB29A04D
:102B200003F060FB07E02DA003F05CFB0D4800F014
:102B3000B1FA012800D0204670BD00005245535420
:102B40004F52450055504441544500003E52657374
:102B5000746F72650A000000524553544F52452E5F
:102B600042494E00341900202055736520524553C8
:102B7000544F52452E42494E2066696C650A00004A
:102B80003E557064617465206669726D7761726527
:102B90000A0000004649524D574152452E42494EC7
:102BA000000000002043616E2774206F70656E2066
:102BB0004649524D574152452E42494E2066696C56
:102BC000650A00004661696C656420746F206F704F
:102BD000656E2066696C650A00000000205573650B
:102BE000206E6577204649524D574152452066690F
:102BF0006C650A0070B50546112236A1FDF73CFB55
:102C0000002820D0132238A12846FDF735FB0028E4
:102C10003FD010223AA12846FDF72EFB00283DD0D8
:102C20000F223CA12846FDF727FB3F49002837D05B
:102C30003E4802683E4B1A4083049A4241D149788B
:102C4000142936D331E0284611300646FDF723FB20
:102C50000A2806D90020687436A003F0C3FA0224BB
:102C60000BE0401C044602463EA1304603F0CAFA7F
:102C700021463DA003F0B6FAF024414B14211B6815
:102C80002A46002098473F4A0121126800209047B9
:102C900015E03DA003F0A6FA012410E044A015E0E1
:102CA00049780F2901D249A004E04DA003F09AFA17
:102CB00004E050A003F096FAF02400E0022420463D
:102CC00070BD016852A003F08DFA58A003F08AFA93
:102CD000F4E70000415641494C41424C452E544FC7
:102CE0002E52554E2E0000004C58594C414F424434
:102CF0004A2E58532E5554534E584B2E0000000068
:102D0000495943444F59492E4E534C474846432E48
:102D1000000000004649524D574152452E52454150
:102D200044592E0000000000E400002000C8000804
:102D30000000FE2F3E4669726D77617265206973EF
:102D4000206E6F74204F6B202D3E20526573746F80
:102D5000726520746865206261636B7570204657E8
:102D60000A000000256400003E4A756D7020746FF3
:102D7000204D61696E2041707020282564290A0069
:102D800048020020540200203E55706461746520A2
:102D900061206E6577206669726D77617265206665
:102DA0006F722074686973206465766963650A00D0
:102DB0003E526573746F726520666F722074686925
:102DC00073206465766963650A0000003E4A756D8C
:102DD0007020746F204D61696E204170700A000090
:102DE0003E526573746F726520285253543A202501
:102DF00064290A003E4D61696E204170702069733C
:102E000020726561647920746F2072756E0A00000B
:102E10004E6F206170703A2030782578202620305F
:102E20007832464645303030300A00003E526573F5
:102E3000746F72650A000000F1B5194AAEB01268ED
:102E4000002106A890472E98164F174C06AE002872
:102E500014D0FEF735FC0546FEF72AFC03A90297BD
:102E600061C1216BE06A01910090A36A2246103A89
:102E70000EA12E9803F0C6F92FB0F0BDFEF720FC8E
:102E80000546FEF715FC02A9019761C1206B009071
:102E9000E36AA26A044905A0103903F0A3F9EBE73D
:102EA000700200202E010020AC0300200A25730AC6
:102EB000257325732E25730A7570646174653A2530
:102EC000730A4350553A20307825782D307825788C
:102ED0000A25730A00000000164C617816A003F062
:102EE00081F96078184B401C6070621C01211B68DE
:102EF00032209847154A0121126802209047144D4C
:102F000061782A4613A003F06DF91B4802F0B0F96E
:102F10001A4801F01FFD01202071FEF724F8C82097
:102F2000FEF730F86868A0636063296881F3088859
:102F30008047FEE7E40000203E5253544E554D4278
:102F40003A2025640A0000004802002054020020B4
:102F500000C8000825642052756E20616E206170E3
:102F6000706C69636174696F6E20403A2030782517
:102F7000780D0A0D0A0D0A000038014000300140AA
:102F800070B51C4C2179002921D163792246214654
:102F9000103201268979002B13D00025012B17D080
:102FA000022B14D1505C05F03DFBE0790028A0799C
:102FB00018D0401EA071C0B2032815D0002815D02B
:102FC00015E0505C05F03AFB6420A061667170BDAD
:102FD000A169814202D3081AA06170BD0220A561D7
:102FE000607170BD401CE5E7E67100E0E571657158
:102FF00070BD0000E40000200A4A0B49002802D0FE
:1030000001280AD006E0087B9070487BD070002031
:1030100008734873087B9070704790780873D07875
:1030200048737047E40000200C040020064901208A
:103030000871FDF798FFBFF34F8F05490348C8603B
:10304000BFF34F8FFEE70000E40000200400FA0504
:1030500000ED00E004490A7E002A01D000207047FC
:1030600008760120704700000C0400200849002366
:103070004A69DB43824203D9101A486118467047F7
:10308000521C02D000204B617047012070470000A5
:10309000E4000020F1B5FFB0FFB084B0FF210024B0
:1030A000890002A8FDF7B5F83F48006801900020AC
:1030B0000090FFA8C06801F0C1FF3C490646884265
:1030C00008D3FFA8C06801F097FF601E7FB07FB0F3
:1030D00005B0F0BDFEF7BAFD0546014634A003F089
:1030E00081F8FEF71FFE3520FEF772FD06E0354839
:1030F000E102C0680818FEF771FD641CAC42F6D30B
:10310000FEF79CFD01208002864246D3FEF70AFEB0
:1031100031462DA003F066F800252DE0FFA8C06819
:1031200001F084FF012201ACFFA86B469202214608
:10313000C06801F06BFF680405D02FA003F052F8BF
:103140002746002411E02DA0F8E71E483968C06822
:10315000FEF784FD1B481B49C068001DC8602D494F
:103160002B480860241DA4B23F1D00988442ECD374
:103170002D180520FDF706FFB5422946CED326A01F
:1031800003F030F8FEF75AFD29A003F02BF8FFA852
:10319000C06801F031FF012098E72EA003F022F86B
:1031A0000220C04392E7000030910008FFFF0300B7
:1031B0000D0A4E756D62204F6620506167653A209A
:1031C00025640000E40000200D0A46696C65207348
:1031D000697A65203A205B253864627974655D0AF6
:1031E0005761697420666F722070726F6772616DCB
:1031F0006D696E672E2E2E002E0000000D0A202015
:1032000020202020202020202020202020202E00D0
:10321000AAAA0000003000400D0A466C61736844A1
:10322000657374696E6174696F6E3A20256400007D
:103230000D0A4C6F6164696E67206669726D776113
:103240007265206973207375636365737366756C4B
:103250000A0000000D0A52652D636865636B2066E5
:10326000696C65000249014808607047CCCC0000D9
:10327000003000400249014808607047AAAA0000D7
:1032800000300040014948607047000000300040B5
:103290000149886070470000003000400149086023
:1032A000704700000030004010B5034AD1609060C4
:1032B00000F0D8FB10BD000000030020F0B5B7B04F
:1032C00000273297754E33973497179718971997A9
:1032D0003078082517AC00287ED1F168B06800F07E
:1032E000C1FBB0680268F06801686DA002F07AFF67
:1032F000754802F077FF07A974A001F09FFD002830
:103300000BD007A974A001F099FD002805D007A9EA
:1033100075A001F093FD002840D110A8007C00901A
:1033200010A8437C827C74A132A802F06BFF10A825
:10333000407D009010A8037DC27C73A117A802F005
:1033400061FF32A8039504900595069410A8808922
:1033500001900D990297009110A8817B07AA6EA099
:103360000B9B02F03FFF10A8807D009010A8C37D4A
:10337000027E61A132A802F045FF10A8C07E009035
:1033800010A8837E427E60A117A802F03BFF0823AD
:1033900032AA19466CA0009402F024FF07A96DA080
:1033A00001F04CFD002842D110A8007C009010A82C
:1033B000437C827C50A132A802F024FF10A8407DFB
:1033C000009010A8037DC27C4FA117A802F01AFF3D
:1033D00032A80395059500E02EE00490069410A80D
:1033E000808901900D990297009110A8817B07AA0E
:1033F00049A00B9B02F0F6FE10A8807D009010A85B
:10340000C37D027E3CA132A802F0FCFE10A8C07E63
:10341000009010A8837E427E3BA117A802F0F2FE26
:10342000082332AA194648A0009402F0DBFE0120CE
:10343000307030E0012807D01AA8FEF7C1FC002840
:10344000F8D1377037B0F0BD17AA32A92898FEF727
:103450001DF832A80395049020A905950694302004
:10346000085E309A2B9901920091029020A938238E
:10347000CB5E1CAA3BA0DB1C1A9902F0B3FE17AA74
:1034800032A92998FEF702F8082332AA19462EA07D
:10349000009402F0A7FE0120D4E700000003002002
:1034A0000A23545241434B45522773204449524505
:1034B00043544F52593A2025642066726565206F47
:1034C000662025640A000000D09500085245535438
:1034D0004F52452E42494E0054473130324C455FE1
:1034E0004E2E42494E00000054473130324C455F69
:1034F0004E2E62696E000000253032642F25303276
:10350000642F253032640000253032643A25303291
:10351000643A2530326400002530346420202020B5
:103520002025313673203078253038782025303802
:103530006420307825303878202530356420252ED9
:103540002A732D252E2A730020252E2A732D252E31
:103550002A730A004649524D574152452E42494E60
:1035600000000000253034642025323073202531DE
:103570003064202530386420307825303878202594
:1035800030356420252E2A732D252E2A7300000045
:103590001FB500200090019002900390FEF78AFD75
:1035A000044601F0E1FA0146224609A002F01AFEA3
:1035B00017A21AA1684602F025FE1A4B6A461B683C
:1035C00008211748984718A002F00CFE1FBD000004
:1035D000437265617465206120747261636B65720A
:1035E0002066696C652073797374656D3A20726525
:1035F000636F7665727920706172743A25642C204D
:103600006461746120706172743A2025640A00005C
:103610004241542D4D4E47540000000025730000D8
:103620008C0A0000480200200A217761726E6E69E0
:103630006E673A20626D5F5446535F4241545F4D5E
:10364000697267726174696F6E0A0000F3B50020D9
:1036500085B0C043954C00900027627894480E4690
:103660003D460390002A0BD0204602214156436973
:103670000069012A63D0022A7ED0032A50D1E5E0F6
:1036800000256560007B0A2807D10598FCF7E0FD5E
:10369000024688A0059902F0A5FD0021059801F0D9
:1036A000CDFB0127FF4300280FD000210598FEF72E
:1036B0009BFB002812D0602005F030FC60610028E0
:1036C00015D060607810A07012E0402005F026FC54
:1036D000206100280BD06060A57009E0602005F033
:1036E0001DFC6061002802D060600120EBE7A7703C
:1036F0000220205600280ADB0599002E01D076A072
:1037000000E07FA002F06EFD012501209AE0401C40
:1037100007D003206070022583A0059902F062FDA6
:1037200091E0002E05D002258DA0059902F05AFDEA
:1037300087E0012595A0059902F054FDE5E7002EEC
:103740002DD0002000900598FCF782FD02469BA139
:103750000598FCF791FD002814D00598FCF778FD3A
:10376000024699490598FCF787FD00280ED00020F5
:103770006060A078002800E05CE00CD0122205997F
:10378000606913E090485238806802E08E485238F1
:103790004068606016E01222059920690EE0002260
:1037A0006260002908D0012218460599FEF792FCB4
:1037B0000090002805D025E00122059901F04EFA7D
:1037C000F6E76068002812D0476C002E01D0002F69
:1037D00018D002216156606802F000FC02F080FC03
:1037E000022060700125002E10D078A10FE0206922
:1037F000002801D08769606060690028E5D0476CC7
:103800006060E2E7012503206070ECE771A1009899
:10381000002801D071A000E072A06A4683C2022392
:10382000E356626870A0059902F0DCFC0399012060
:10383000887608E0304602F0A5F8C5B2012D02D026
:10384000012503206070284607B0F0BD5E4A656818
:10385000523A5668AE420FD09268AA420CD0002964
:1038600019D01846FEF714FC00906069002803D0B8
:1038700004F014FF002060610223E356009A69A05F
:10388000616802F0AFFC0020606003998876411EF9
:10389000A1706070D8E701F0AFFB009020690028AC
:1038A000EAD004F0FBFE00202061E5E700030020E1
:1038B0000C0400205365617263682066696C6520A2
:1038C00025732C2066696C656E616D652E6C656E66
:1038D00067203D2025640A00235732312046696C59
:1038E00065202225732220617661696C61626C65B6
:1038F000206F6E206469736B2E4F4B2E2A0A0000D6
:1039000023573231206F766572776974652225738B
:10391000222066696C65206F6E206469736B2E4F80
:103920004B2E2A0A00000000235732312046696CD2
:1039300065202225732220484541502063616E276F
:103940007420616C6C6F6361746520746F20466DC8
:103950006E672F5452456D6E672E4F4B2E2A0A000C
:10396000235732312046696C652022257322206E50
:103970006F7420617661696C61626C65206F6E2086
:103980006469736B2E4F4B2E2A0A00002357323185
:1039900020437265617465206120222573222066B0
:1039A000696C65206F6E206469736B20746F20777B
:1039B000726974652E4F4B2E2A0A00006261636B98
:1039C00075702E6C6F670000AE0400205265616454
:1039D0000000000057726974650000004661696C60
:1039E000656400004F4B000023573231206F706533
:1039F0006E6E696E672025732066696C65204030A5
:103A00007825785B25645D20257320746F202573ED
:103A10002C2073697A653A2025642E4F4B2E2A0A92
:103A200000000000235732312046696E69736865D3
:103A30006420416363657373696E672046696C65D2
:103A40005B40307825782C207265733A2025642CF1
:103A500020666C61673A2025645D2E4F4B2E2A0A42
:103A60000000000038B5054600200C46009069466D
:103A7000284604F0B7F928680099401A2060002011
:103A800038BD10B5012902D0002903D004E0FEF7AB
:103A900009FB01E0FEF79CF9002010BD00487047CB
:103AA000180400207047000030B5837801210278A7
:103AB000002B15D094080E4BA400E418236892073D
:103AC000D50EFF22AA40934342789207120EAA40D5
:103AD0001A4322600078C006C00E8140054804E009
:103AE000D006C00E814003488030016030BD000028
:103AF00000E400E000E100E03EB50446C046C046F8
:103B00002179204600250A300B0002F0A6FB104D5B
:103B10002E09293B3D354143454D4D0B4D4D494DFA
:103B200000201EE0A07A0A223038E17A5043303873
:103B3000091868460171207B617B3038504330386A
:103B400009186846C170A07BE17B3038504330389B
:103B500009186846817069460120FEF757F906E0AA
:103B60000120FFF715FD657102E0FFF7A7FB60710B
:103B7000C046C04660793EBD0C48C1688068FFF70A
:103B800071FFF4E7012100E00021FFF75FFDEEE7A0
:103B9000002102E0012100E00221FFF772FFE6E7C9
:103BA00003A002F01FFBDEE70220E0E70003002095
:103BB000416363657373206D656D6F727920616217
:103BC0006F727465642E506C7320726573746172C9
:103BD00074206465766963650A0000007CB504465C
:103BE00085000B480121405900F026FA0849600081
:103BF0002039085A00900120694608710020887118
:103C000003224A71C87103484059FEF7A9FA7CBDE6
:103C1000B8910008B001002006490A6904239A43BC
:103C20000A61012803D040BF20BF20BF704730BFCA
:103C30007047000000ED00E07047000010B50C4632
:103C4000572801D0772819D105202082A0690622A3
:103C50000FA1401DFCF710FB002811D0A06907221E
:103C60000DA1401DFCF708FB00280BD0A06906221F
:103C70000BA1401DFCF700FB002805D0012010BD62
:103C8000012002E0022000E00320FFF7E3F910BD6D
:103C90005550444154450000524553544F5245003D
:103CA0004241434B5550000010B586B0044600F029
:103CB00087F901461C202056A368E268002812D02C
:103CC000012812D0401C12D00AA002930392049142
:103CD00001902068009009A06368A269216A02F03F
:103CE00081FA06B010BD11A0EFE713A0EDE716A012
:103CF000EBE70000556E6B6E6F77000025730A25A9
:103D0000644D73672C25644240307825780A5374DB
:103D100061743A25730A3E46726F6E742F52656164
:103D2000723A25642F25643A25640A00515F4E4F8C
:103D30005F50524F54454300515F524541445F50DC
:103D4000524F544543000000515F57524954455F5C
:103D500050524F5445430000FEB50446007F1546BF
:103D60000B4600283CD1E168A068884238D2002B7D
:103D70000DD0C0006169021D8A5809581846FCF729
:103D80002FFAA0686169C000001D08582860A56866
:103D900014486D1CA560007B2F2819D16068FCF7C2
:103DA00097FC06462069FCF793FC3146FCF7BDFA08
:103DB0000D49FCF77DFAFCF7C5FCE268A3696E4685
:103DC0002CC6256A02460B46294608A002F00AFACC
:103DD000E168A068884203D30020E060A060206111
:103DE000FEBD00000C0400200000C84225735F5097
:103DF0004F505F44656C5F42554646455220253022
:103E0000322E3266252520526561723A2025642FB4
:103E100025642C2046726F6E743A2025640A0000D7
:103E20007CB5026904469007800F01D00423181A5C
:103E30002568002D1FD00B186668D318B3421AD21C
:103E4000E368A6695B1CB34215D213180B4A2361C1
:103E5000167B2F2E02D0127B1B2A08D1EA18019262
:103E60000090206A0A46014605A002F0BBF92169CC
:103E7000206840187CBD00207CBD00000C040020A0
:103E800025732D4765742D53706163653A20256451
:103E9000422C2043757272656E744C656E6774684F
:103EA0003A202564202B2025642C2040307825786A
:103EB0000A00000070B50C46049D05990CC0002254
:103EC00002604260C56082600161027584611846CB
:103ED000FCF72AF980B270BD002807D0C16880685D
:103EE000814201D3081A00E0002080B27047000030
:103EF000F0B5026889B00D460446002A3ED020691C
:103F000063684119994239D2A369E168994235D26F
:103F100010186269C9005050E0686169C000001D56
:103F20000D50206947192761E068401CE060079048
:103F30001348007B2F281ED166683046FCF7C8FB6B
:103F400000903846FCF7C4FB0099FCF7EEF90D49E8
:103F5000FCF7AEF9FCF7F6FBA368A26902930192A5
:103F6000079A009203970496246A02460B4621465C
:103F700005A002F037F9A8B209B0F0BD0020FBE7B8
:103F80000C0400200000C84225735F505553485F61
:103F90004C454E475448202530322E326625252088
:103FA000526561723A2025642F25642C2046726F79
:103FB0006E743A2025642C2025642F25640A0000A5
:103FC00010B58269C16891420AD300290FD009490E
:103FD000097B2F290BD1016A07A002F003F906E043
:103FE00001694068814202D2401A80B210BD0020AF
:103FF00010BD00000C04002025733A2043616C6C56
:1040000020517565756544656C6574655F4D7367B2
:104010002F517565756544656C6574655F4275669D
:1040200066657220746F207573652066756C6C20F0
:1040300073706163650A0000044A0029516901D068
:10404000014300E0814351617047000000100240CD
:10405000044A0029D16901D0014300E08143D161C4
:104060007047000000100240044A0029116901D085
:10407000014300E0814311617047000000100240DD
:10408000044A0029916901D0014300E08143916114
:104090007047000000100240044A0029D16801D096
:1040A000014300E08143D1607047000000100240EE
:1040B000F8B5564D0446686800210C22544E104055
:1040C00005D0042803D0082803D00C281AD0266075
:1040D0001AE06968686803228902D2030F0F104052
:1040E000BF1C00280AD0E86A0107090F3046491CA6
:1040F000FCF71AF878430146216005E04548394647
:104100004143F9E7444820606868444F0006000FC7
:104110003B5C20680246DA4062606B685B055B0FBF
:10412000FB5CDA40A2602B6BDB0501D43C4B05E065
:104130006B685B0401D4530800E09308E3602B6BC9
:104140005F06384B03D4374F1237276100E02361F5
:104150002F6BFF0601D4666100E060612F6BBF0723
:104160000ED02F6BBF07BF0F012F0BD02F6BBF07D8
:10417000BF0F022F08D02F6BFF43BF0706D006E00A
:10418000A26104E0A06102E0A36100E0A6612F6BE0
:10419000BF03BF0F0FD02F6BBF03BF0F012F0CD07A
:1041A0002F6BBF03BF0F022F09D02F6BBF03BF0FB1
:1041B000032F06D006E0E26104E0E06102E0E36183
:1041C00000E0E6612F6B3F03BF0F0FD02A6B120395
:1041D000920F012A0CD0286B0003800F022809D00F
:1041E000286B0003800F032806D006E0226204E05B
:1041F000206202E0236200E02662286B000602D4FF
:1042000005486062F8BD6162F8BD00000010024020
:1042100000127A0000093D00006CDC02D40000208E
:10422000809FD50000800000034A08B580008018F8
:104230000090016008BD00005028004070B50B4C94
:1042400005460221204600F0A5FB0028F9D02946AA
:10425000204600F0DDFB0121204600F09BFB0028FA
:10426000F9D0204600F0C8FB70BD000000300140CE
:1042700010B5032004F0E2F910BD10B501F0B0FF55
:10428000032004F0CFF901F0ABFF10BD70B50121A0
:104290000D0388B02846FFF7F3FE01214804FFF71D
:1042A000CBFE02206A4610760320507600249476D6
:1042B0000120D07620200926F606059005A9304673
:1042C000FDF74EFF8020059005A93046FDF748FF19
:1042D0004020059005A93046FDF742FF0320FFF777
:1042E0007DFC032004F0AAF9002205213046FDF7E9
:1042F0006FFF002206213046FDF76AFF00220721EA
:104300003046FDF765FF6A46FF2014800530508077
:10431000072000029080D4801481E810508194819D
:10432000D48107200A4C10826946204600F03AFBEF
:104330002946204600F062FB0121204600F000FBE8
:10434000044A0549054800F0F3FA08B070BD0000C2
:10435000003001403D420008714200087B420008E5
:1043600010B592B020222BA16846FBF739FF24211B
:1043700008A8FBF74EFF6846FBF76AFF014608AA4C
:10438000002000F021FA002801D02AA038E0684679
:10439000FBF75EFF024608A96846FBF76DFF0028A1
:1043A00004D028480178002902D02BE026A02DE077
:1043B000012101701E2108A8FBF72BFF6846FBF7BF
:1043C00047FF014608AA002000F03CFA0446684670
:1043D000FBF73EFF014608AA002000F0F5F900199E
:1043E0000006000E01D01DA00AE06846FBF730FF72
:1043F000024608A96846FBF73FFF002805D01FA02A
:1044000001F0F0FE012012B010BD24A001F0EAFE80
:104410000020F8E74E677579656E205472756F6EEF
:1044200067204261632D4E747242616332303135D0
:104430000A0000002D3E5B52454144204641494C54
:104440005D0A0000FC0200202D3E5B53464C4153A8
:1044500048204D454D204F4B5D0A00002D3E5B52DC
:104460004557524954452053464C415348204D45E9
:104470004D204641494C5D0A000000002D3E5B5234
:104480004557524954452053464C415348204D45C9
:104490004D204E4F54204F4B5D0A00002D3E5B5285
:1044A0004557524954452053464C415348204D45A9
:1044B0004D204F4B5D0A000008B50020694608708A
:1044C000684604F0C9FDC0B208BD10B5002800D090
:1044D000804704F059FDC0B210BD000070B5FF2444
:1044E000C2B00E4605460134214601A8FBF791FEF5
:1044F00001A9002004F0C4FD032101A804F0A3FDDC
:10450000684680791538030001F0A7FE0504060807
:104510000A0B0400102404E0202402E0402400E000
:104520008024002E00D03460002D11D06846009405
:104530000379012B0ED0202B0ED09D2B0ED01C2BDF
:104540000ED0EF2B0ED008A209A1284601F05AFE8A
:1045500042B070BD0BA2F7E70CA2F5E70DA2F3E79E
:104560000EA2F1E70EA2EFE7556E6B6E6F770000BB
:10457000466C6173683A2025735B25785D2D256450
:104580004D62000053706173696F6E004D69637214
:104590006F6E00004953534900000000454F4E0024
:1045A00057696E626F6E640070B59EB000266846F3
:1045B00006707825382101A8FBF72BFE38210FA8BB
:1045C000FBF727FE40A001F00DFE684604F061FDF8
:1045D0006846017843A001F005FE0021684604F01A
:1045E00060FD68460178494801F0FCFD01216846FC
:1045F00004F057FD68460178454801F0F3FD362187
:104600000FA804F020FD684606700FAC017841A0A9
:10461000625C01F0E7FD68460078401CC1B2684664
:1046200001703629F2D301240670640640A001F01F
:10463000D9FD33E0224645A101A801F0E3FD01A820
:10464000FBF706FE014601AA204600F0FBF83221E6
:104650000FA8FBF7DEFD01A8FBF7FAFD01460FAA44
:10466000204600F0B1F801A8FBF7F2FD024601A9CF
:104670000FA8FBF701FE00281FD03DA20FAB21467B
:104680003DA001F0AFFD012040042418322101A813
:10469000FBF7BFFD69460878401C087028466D1E70
:1046A000EDB20028C6D168460078782807D039A036
:1046B00001F098FD01201EB070BD3CA2DEE73CA0D9
:1046C00001F090FD0020F6E75B464C415348204D39
:1046D000454D4F525920494E464F4D4154494F4E3A
:1046E0005D0A00005265616420456C656374726FF9
:1046F0006E6963205369676E617475726520283036
:1047000078414229203A2025640A00007895000863
:10471000349500082020207C5F20416464725B3067
:1047200078253032785D3A203078253032780A00AA
:104730005B464C415348204D454D4F5259205255F0
:104740004E204120544553545D0A00004E67757950
:10475000656E205472756F6E67204261632D4E74D2
:104760007242616320307825303130780A000000D1
:104770004641494C000000005265616420466C616E
:1047800073685B3078253038785D5B25735D3A203F
:10479000257300002D3E5B464C415348204D454D4E
:1047A0004F5259204641494C5D0A00004F4B0000D2
:1047B0002D3E5B464C415348204D454D4F525920AC
:1047C0004F4B5D0A00000000134610B50A4619461B
:1047D00004F04AFCC0B210BD38B50546694604F085
:1047E00072FC04460748017B252902D0007B232860
:1047F00006D1684602782346294603A001F0F2FC60
:10480000E0B238BD0C0400202D2D3E534543544FDB
:1048100052204552415345205B526567696F6E20B7
:10482000305D20402030782578202D3E2073746143
:104830007475733A2025645B3D315D2D25645B3DC5
:10484000305D0A0038B514460A466B46214604F02E
:10485000A3FB04461248007B252812D16846017844
:10486000002910D0012910D0022910D0032910D01E
:10487000042910D0052910D00AA221460BA001F06E
:10488000B1FCE0B238BD12A2F7E716A2F5E719A213
:10489000F3E71DA2F1E720A2EFE722A2EDE7000077
:1048A0000C040020554E4B4E4F5700002D2D3E500E
:1048B000524F4752414D204F5045524154494F4E5F
:1048C0005B2564203D3D20305D3A2025730A0000C1
:1048D0006465765F7374617475735F756E6B6E6F0C
:1048E000776E00006465765F6E6F745F62757379D2
:1048F000000000006465765F70726F6772616D5FC3
:104900006572726F720000006465765F6572617334
:10491000655F6572726F72006465765F7375737040
:10492000656E64006465765F6275737900000000EF
:10493000024B002907C300D008477047F00200204F
:1049400040220029018801D0114300E091430180F9
:10495000704700000D4910B5884209D18414012127
:104960002046FFF799FB00212046FFF795FB10BD7D
:1049700007498842FBD1041401212046FFF774FB4C
:1049800000212046FFF770FB10BD00000030014001
:10499000003800400246128900200A4200D001205F
:1049A0007047000030B50388C122920113400A8885
:1049B000CC890D892243CC882C4322434C89224345
:1049C0008C8922431A4302808288094B1A408B88C3
:1049D000134383800A8A02820288042349889A4307
:1049E00011430180818B034A1140818330BD000057
:1049F000FFF00000FFF70000007B70478288034B48
:104A00001A40828082880A4382807047FFEF00004C
:104A100001737047704700001CB5002122480191C6
:104A20000091026801231B041A4302605B00052207
:104A3000120304681C400094019C641C0194009CB7
:104A4000002C02D1019C9442F3D10268920328D534
:104A500001210091154A11211160416841604168AE
:104A6000416041687F22D203914341604168112235
:104A700012041143416001680122120611430160D2
:104A800001688901FCD54168890889004160416855
:104A900002221143416041680907890F0229FAD1B6
:104AA0001CBD00911CBD000000100240002002400F
:104AB0000A4910B5401E884201D9012010BD08499D
:104AC000486108480722C3691B021B0A4C042343A0
:104AD000C361002088610A6110BD0000FFFFFF0074
:104AE00000E000E004ED00E010B506480178002980
:104AF00001D1012101700120FEF742FAFCF74CFAC6
:104B000010BD0000E400002010B514480168012227
:104B1000114301604168124A114041600168114A25
:104B200011400160016801229204914301604168D3
:104B30003F22120491434160C16A09090901C1621F
:104B4000016BFF22543291430163416B49084900D4
:104B5000416300218160FFF75FFF10BD001002403C
:104B60000CB8FFF8FFFFF6FE10B50E4C05202168CB
:104B700090B04003884725202168400388470122E0
:104B800009A1684600F06AF8684600F035FA01228B
:104B900009A1684600F062F8684600F02DFA00208E
:104BA00010B010BD6802002054473130324C455FD0
:104BB0004E2E42494E0000004649524D5741524543
:104BC0002E42494E00000000F8B50E46054600F0A2
:104BD000CFFA2C462034A674002D13D0FCF738FCF5
:104BE000410E14392175C101090F6175C102C90E49
:104BF000A1750104C90EE1754105890EC006217633
:104C0000800E60760027012E0BD0022E01D0781E78
:104C1000F8BD09A20CA1284601F0F4FA25204003B2
:104C200006E00AA208A1284601F0ECFA052040039C
:104C30002861E7740020F8BD54473130324C455F9D
:104C40004E2E42494E000000257300004649524D49
:104C5000574152452E42494E00000000F7B598B02A
:104C600000240F46661E1546402168461696FBF73F
:104C7000D0FA00201490402011900D2255A1384602
:104C8000FBF7FAFA00282CD00D2256A13846FBF784
:104C9000F3FA002825D00B2256A13846FBF7ECFA90
:104CA00000281ED00B2256A13846FBF7E5FA002853
:104CB00017D00B2255A13846FBF7DEFA002810D09A
:104CC0000C2255A13846FBF7D7FA00280DD00C224C
:104CD00055A13846FBF7D0FA002806D030461BB065
:104CE000F0BD25277F03022645E005277F03012627
:104CF00041E0514BC0191B686A4611999847022E32
:104D000002D0012E1FD02CE00D2232A16846FBF705
:104D1000B3FA002843D00D2232A16846FBF7ACFA63
:104D200000283CD00B2233A16846FBF7A5FA0028E7
:104D300035D00B2232A16846FBF79EFA00282ED010
:104D40000B2232A108E00C2233A16846FBF794FA4B
:104D5000002824D00C2234A16846FBF78DFA0028E5
:104D60001DD01498401CC0B2149002280AD2641CB2
:104D7000E4B2202C06D220466021484301210903D9
:104D80008842B6D31698002812D0E843800701D095
:104D9000E8071BD031461898FFF716FF9FE740221F
:104DA00069461898FBF71CFA002016901490DEE76D
:104DB000680701D4E80707D0189800210761189800
:104DC0002030C17418988161002088E70120C04319
:104DD00085E7000054473130324C455F4E2E424942
:104DE0004E00000054473130324C455F4E2E626910
:104DF0006E000000726573746F72652E62696E00DA
:104E0000524553544F52452E42494E005245535439
:104E10004F52452E62696E004649524D57415245E8
:104E20002E42494E000000006669726D776172651E
:104E30002E62696E0000000064020020F3B50024B9
:104E400093B00746651E2646402168461195129488
:104E5000FBF7DFF9402010900D224DA13846FBF7FB
:104E60000BFA00282CD00D224DA13846FBF704FA8E
:104E7000002825D00B224EA13846FBF7FDF900286B
:104E80001ED00B224DA13846FBF7F6F9002817D0AB
:104E90000B224DA13846FBF7EFF9002810D00C2269
:104EA0004CA13846FBF7E8F900280CD00C224DA1A4
:104EB0003846FBF7E1F9002805D0284615B0F0BDCB
:104EC00025256D0301E005256D0301273F032046DD
:104ED00060214843B8424CD2464B40191B686A4691
:104EE00010999847002840D125204003854226D1BB
:104EF0000D2227A16846FBF7BFF900283BD00D2201
:104F000027A16846FBF7B8F9002834D00B2228A166
:104F10006846FBF7B1F900282DD00B2227A168467F
:104F2000FBF7AAF9002826D00B2227A16846FBF739
:104F3000A3F900281FD0129800281CD111E00520E9
:104F4000400385420DD10C2222A16846FBF794F95B
:104F5000002810D00C2223A16846FBF78DF9002809
:104F600009D0761CF6B2022E03D8641CE4B2202CC1
:104F7000ADD31198A2E7002012901498002803D016
:104F80006946109AFBF72CF9002006461190ECE7D1
:104F900054473130324C455F4E2E42494E0000009E
:104FA00054473130324C455F4E2E62696E0000002E
:104FB000726573746F72652E62696E005245535448
:104FC0004F52452E42494E00524553544F52452EA2
:104FD00062696E004649524D574152452E42494E34
:104FE000000000006669726D776172652E62696EFD
:104FF000000000006402002010B5040004D000F09E
:1050000087F8204600F0B4F8002010BD10B5144613
:10501000002B00D01C60044B0A461B6840692146E7
:10502000984740B210BD00006402002001231B031A
:105030000269C9185118416100207047002800D04A
:1050400080697047F0B50446002085B01E461546BD
:1050500002900490002B00D0306001916069012122
:105060000205120D09038F1ABD420CD8010502D1A9
:10507000254909688847254B60691B682946019ABC
:105080009847039017E0E91B204B04911B683946B1
:10509000019A984703901C4960690968C0198847BC
:1050A00002900198194BC21960691B68C0190499D4
:1050B000984704900398029908430499084303D041
:1050C0000020C04305B0F0BDA0694019A061002CCC
:1050D00014D0FCF7BDF9410E14392034A176C1017A
:1050E000090FE176C102C90E21770104C90E61776B
:1050F0004105890EC006A177800EE077002E00D012
:1051000035600020DEE70000680200206002002019
:1051100070B5144A04000AD0218EC806491C2186A5
:105120003221095DC00E012903D0022906D01046A4
:1051300070BD602148430521490303E060214843D5
:10514000252149034518280503D107492846096840
:105150008847064B22461B68402128469847002076
:1051600070BD0000FFFFFFFF68020020600200200A
:1051700010B54021FBF74DF810BD000010B5084CEC
:105180000649204600F0D7F8012805D1204600F056
:1051900057F9C0B2FCF716FA10BD00000501050072
:1051A00000380140F3B505468400274926481431EC
:1051B0000059095983B008430121FEF73DFF2248F9
:1051C0001438002D3BD000590121FEF741FF1E4845
:1051D0006D005030425D0A381C4E415B3059FCF77F
:1051E000F7FF194837465A30425D1E38415B143785
:1051F0003859FCF7EDFF022168460171124803217E
:105200002830405B0090684641710021817130591F
:105210006946FCF7A5FF0C4869463230405B0090B8
:105220003859FCF79DFF3546143D2859049900F084
:10523000B3F82859012100F010F805B0F0BD00685E
:105240000121FEF71DFFC2E70C92000804020020B6
:105250000A0C01219140016270470029016802D0C7
:105260000122114301E04908490001607047000034
:10527000254910B5884207D101218C032046FEF74D
:105280000BFF0021204627E02049884202D101215E
:105290004C0404E01E49884209D101218C042046B7
:1052A000FEF7E2FE00212046FEF7DEFE10BD1949A2
:1052B000884202D10121CC04F1E71749884202D18A
:1052C00001210C05EBE71549884208D10121202076
:1052D000FEF7E2FE00212020FEF7DEFE10BD1049A1
:1052E000884206D101214020FEF7D6FE0021402051
:1052F000F2E70C498842F1D101218020FEF7CCFE73
:1053000000218020E8E70000003801400044004010
:1053100000480040004C0040005000400014014094
:1053200000180140001C01400246D26900200A42D8
:1053300000D00120704730B50A04130E0122144634
:1053400000258C40012B0ED0022B0ED08368090C57
:105350002340C0698A401040002B02D0002800D0B2
:105360000125284630BD0368F1E74368EFE710B533
:105370000B041C0E01238B40022C02D0032C02D004
:1053800002E0001D00E008300168002A01D0194346
:1053900000E09943016010BD30B5044600688BB051
:1053A0000D464008400020606068032109038843DF
:1053B000A9680143616020681C49EA68084069687F
:1053C00011432A69024311432160A06803210902A5
:1053D000884369690143A1606846FEF769FE144885
:1053E000844201D106980AE01248844201D107980C
:1053F00005E01148844201D1089800E00298216834
:105400000904296800D54000FAF78EFE2A68520880
:105410008A4200D8401C2168090404D50107074AC4
:10542000490F10400843A0810BB030BDF3E9FFFFE6
:10543000003801400044004000480040F0FF0000F8
:10544000808CC005C00D7047C905C90D0185704726
:10545000074AFF31013140004900CB0500D5401C0F
:10546000C30300D55040CB03F5D580B27047000090
:105470002110000010B5144601231B03094A98426D
:1054800004D2D269002A0BD0101804E0126A002A54
:1054900006D01018C01A0A4601462046FAF7A0FEA8
:1054A000012010BD880200203EB506496D468A895C
:1054B0008C794B791CC5CB788A78034900F0A2FE21
:1054C0003EBD000088020020EC93000810B508489B
:1054D00000218170C1704171012181710548007BFB
:1054E000002802D004A000F07DFE002010BD0000C6
:1054F000880200200C0400202D2D3E526573657437
:10550000206D656D6F7279207374617475730A0014
:10551000F3B5574C85B000266671A178FE2900D1FD
:10552000A670022801D000283AD1524D207A2F4689
:105530006037032802D00698002816D0E0690028BA
:1055400013D02078002810D0A078002832D0397BE2
:1055500000290AD001960090286803792868C2784B
:1055600028688178444800F03DFE207A042802D063
:105570000698002817D0E069002811D0607800282C
:105580000ED0E08900284DD0387B002808D028684C
:1055900003792868C2782868817838A000F022FE54
:1055A0000698012802D0207A04285CD326720020B5
:1055B00007B0F0BD0020FFF70FF920717D21C90071
:1055C0000020E269FFF73EF900F082F8401C0DD0A0
:1055D0000020FFF701F920717D21C9000020E26958
:1055E000FFF730F900F074F8401C00D12670387BCA
:1055F0000028BAD02078002812D02DA122797D2051
:10560000C0000290009601920491039028680379EB
:105610002868C27828688178274800F0E3FDA4E76D
:1056200026A1EBE701208003FFF7D6F82071667012
:105630007D20E169C0000A1821492248FFF702F9DC
:10564000387B0028ACD01F481F4B1D4A21796F467C
:105650000FC7286803792868C278286881781B48B2
:1056600000F0C0FD9CE7401C20720120A0E7000074
:1056700088020020AC030020A89300082530326483
:105680003A253032643A253032643A202D2D3E20BE
:105690004E4F5420414C4C4F5720534156452054B7
:1056A000454D504F5241525920444154410A000047
:1056B0004661696C65640000149300084F4B00005C
:1056C000190A0000E8430000014E00006093000842
:1056D000FEB500270326E820274C3D4600903806FB
:1056E000000C0190FF210131626AFFF76DF800287C
:1056F0000BD1E1690198FF2208180132616AFAF7BB
:10570000AEFD002801D16D1CEDB27F1CBFB2B742C7
:1057100001D2102FE3D30098184F00281AD030027E
:105720000190626A0099FFF74FF800280AD1E169F9
:105730000198009A0818616AFAF791FD002801D1D2
:105740006D1CEDB2701C854206D0387B00280ED04F
:10575000721C08E0B54202D10020C043FEBD387B78
:10576000002804D032462946054800F03BFDA089B8
:10577000401CA08168B2FEBD880200200C040020FD
:105780004C94000870B5044601200003134684427F
:1057900010D2094DE86900280CD00A4600191946B4
:1057A000FAF71EFD7D21C90001208C4201D36870EB
:1057B00000E02870012070BD8802002013460122FD
:1057C00010B51203904208D2054AD269002A04D0CB
:1057D00010180A461946FAF703FD012010BD000013
:1057E00088020020F0B505468FB000200F460A90D1
:1057F0000B900C900D90164628216846FAF709FD8B
:10580000284CE120000127622818E56160622A46E1
:105810006681002D42D07D25ED0029460020FEF74F
:10582000D3FFA070011E01D01FA027E00AAA0F21FC
:10583000D520FFF71FFEFF206A462821A530FFF77D
:1058400019FE2C21684602F014FF002812D02E21E8
:10585000684602F00EFF00280CD00AA8FAF7F8FC00
:105860000A2807D308A8007AFF2803D068460078E2
:10587000FF2805D1FF20A07000211AA000F0B2FC83
:10588000E069284942192848FEF79EFFE070011E92
:1058900002D026A000F0A6FC0FB0F0BD2DA000F0B5
:1058A000A1FCF9E7880200200A2157617272696E33
:1058B000673A206661696C656420746F206C6F6163
:1058C000642074686520636F6E66696775726174C1
:1058D000696F6E20706172616D657465725B2564BD
:1058E0005D7C00000A2157617272696E673A206917
:1058F0006D706F74616E7420636F6E666967757228
:105900006174696F6E20706172616D657465727328
:10591000206172652062726F6B656E2E4030782553
:1059200030387800190A0000E84300000A21576166
:105930007272696E673A2074656D706F7261727908
:1059400020646174612069732062726F6B656E5BA5
:1059500025645D00436865636B206D656D6F7279CA
:1059600020616C6F636174696F6E20666F72207462
:10597000686973207669727475616C206D656D6FEE
:1059800072790A00F1B586B000256846F14C0574BD
:10599000A0690126002802D0401EA06100E0267008
:1059A000A06A002808D18327FF00384603F0B6FA22
:1059B000A06200281AD067826188002908D0E548D3
:1059C00014300078412813D0612811D018280FD046
:1059D00006980327002879D02278DF48009013002A
:1059E00000F03BFC057B64112F4D2E002670E3E791
:1059F000658002202070D9A000F0F4FB67E002F07F
:105A00004DFEA56266E0A16B206A88478001000C0C
:105A10002081A16B206A88478205920DA28020898F
:105A2000002803D001208002A08100E0A281606AEA
:105A300000780A2803D12189D04800F0D3FB2770D1
:105A400085E1A2896189A06A00F052FBC14A06463D
:105A5000921C1046642303211230FBF717FEE26903
:105A60003146A06A90472570606A00780A28E7D11D
:105A7000A28933466189C2A000F0B4FB67E104202B
:105A80006946B44A0874921C1046642303211230FC
:105A9000FBF7FCFDE269012104A890470098007B18
:105AA0000A2802D1C4A000F09DFBABE0007B0A28CD
:105AB00005D163892289E188C8A000F093FB658144
:105AC00025816570A5812570E580B9E065E0A06A53
:105AD000002894D0002007B0F0BD0029B0D09D4828
