:020000040800F2
:10C800002821002051310108E9FB0008EBFB00085A
:10C8100045FC00084FFC000859FC0008000000001F
:10C8200000000000000000000000000063FC0008A1
:10C8300065FC00080000000067FC000869FC0008B7
:10C840006B3101086B3101086B3101089FFD000855
:10C850006B3101086B3101086B3101086B31010844
:10C860006B3101086B3101086B3101086B31010834
:10C870006B3101086B3101086B3101086B31010824
:10C880006B3101086B3101086B3101086B31010814
:10C890006B3101086B3101086B31010807FA0008A0
:10C8A0006B3101086B3101086B3101086B310108F4
:10C8B000D5F6000869F900086B3101086B310108F1
:10C8C0006B3101086B3101086B3101086B310108D4
:10C8D0006B3101086B3101087DFA000851FA00083C
:10C8E0006B3101086B3101086B3101086B310108B4
:10C8F0006B3101086B3101086B3101086B310108A4
:10C900006B3101086B3101086B3101086B31010893
:10C9100027FA0008A7FA00086B3101086B310108FB
:10C920006B3101086B3101086B3101086B31010873
:10C93000DFF80CD017F07AF8004800472FF2000813
:10C940002821002010B545F2555007F0A7FB06201E
:10C9500007F0A7FB40F6FF7007F0A6FB07F0A7FB68
:10C9600007F0AAFB10BD1FB50121084607F02BFDFB
:10C970004FF0804007F00AFF4FF4FA60ADF808006E
:10C9800040F26710ADF804000020ADF80A00ADF8E1
:10C99000060001A94FF0804007F0CCFF0121880775
:10C9A00008F0B4FD01221146900708F018FB0121A0
:10C9B000880708F0EFFA4FF4407006F0BFFC1C2027
:10C9C0008DF8000005208DF8010000208DF8020090
:10C9D00001208DF80300684606F0B5FC1FBD1FB5A9
:10C9E0000121022007F0EFFCF74807F0CFFE4FF4DB
:10C9F000FA60ADF8080040F26710ADF804000020BE
:10CA0000ADF80A00ADF8060001A9EF4807F092FF63
:10CA10000121ED4808F07AFD01221146EA4808F0AC
:10CA2000DEFA0121E84808F0B5FA4FF4407006F04C
:10CA300085FC1D208DF8000006208DF801000020E7
:10CA40008DF8020001208DF80300684606F07BFC9B
:10CA50001FBD1FB50121042007F0B5FCDB4807F01E
:10CA600095FEC820ADF8080040F26710ADF804004C
:10CA70000020ADF80A00ADF8060001A9D34807F080
:10CA800059FF0121D14808F041FD01221146CF484C
:10CA900008F0A5FA0121CD4808F07CFA4FF4407067
:10CAA00006F04CFC1E208DF8000007208DF80100D8
:10CAB00000208DF8020001208DF80300684606F082
:10CAC00042FC1FBD0EB50121084607F06FFC08218E
:10CAD000002007F0C1F84FF4807006F040FF0020FE
:10CAE0008DF808000C208DF809004FF4807001903B
:10CAF00001208DF80A0001A806F0BAFE4FF440703C
:10CB000006F01CFC17208DF8000002208DF80100B3
:10CB100000208DF8020001208DF80300684606F021
:10CB200012FC0EBD00B587B00121102007F03EFCBD
:10CB30000121C80407F047FC4FF48060ADF81800ED
:10CB400018208DF81B0003208DF81A0006A9A048B4
:10CB500006F06EFF4FF40060ADF8180004208DF869
:10CB60001B0003208DF81A0006A9994806F060FF03
:10CB70004FF4165002900020ADF80C00ADF80E00F6
:10CB8000ADF81000ADF814000C20ADF8120002A9A9
:10CB9000904808F016FD012240F225518D4808F01A
:10CBA000A8FD40F226618B4808F0B5FE01218948B6
:10CBB00008F093FD4FF4407006F0C0FB34208DF870
:10CBC000040004208DF8050000208DF806000120E7
:10CBD0008DF8070001A806F0B6FB07B000BD00B550
:10CBE00087B00121080507F0EEFB0121102007F0B6
:10CBF000DDFB0121202007F0D9FB4FF48050ADF878
:10CC0000180018208DF81B0003208DF81A0006A9C3
:10CC10006F4806F00DFF0420ADF818008DF81B00DA
:10CC200003208DF81A0006A96B4806F001FF4FF4A7
:10CC3000165002900020ADF80C00ADF80E00ADF8D3
:10CC40001000ADF814000C20ADF8120002A96348E2
:10CC500008F0B7FC012240F22551604808F049FD78
:10CC600040F226615D4808F056FE01215B4808F05D
:10CC700034FD4FF4407006F061FB35208DF8040060
:10CC800000208DF805008DF8060001208DF80700C2
:10CC900001A806F058FB07B000BD10B5504AD27B82
:10CCA000012A00D110BD4F4A127812B1012A2AD1AF
:10CCB00008E02A2805D101224A4B1A7000224A4B6B
:10CCC0001A7020E00A2807D1474A1278521E444BB6
:10CCD0009B1C9A5C0D2A03D0434A12780D2A08DB6C
:10CCE0000022414B1A703F4B1A7001223C4BDA7301
:10CCF00009E03D4A13781278521C3B4C2270384AA6
:10CD0000921CD05400BF00BF00BFCBE710B54A7ED5
:10CD1000132A05D04A7E122A02D04A7E142A00D154
:10CD200010BD324A127812B1012A21D10AE023281B
:10CD300001D0242805D101222C4B1A7000222C4B43
:10CD40001A7015E0402803D0294A1278192A07DB07
:10CD50000022274B1A70254B1A7013224A7607E0DF
:10CD6000234A13781278521C214C2270C85400BFF9
:10CD700000BF00BFD4E770B5ADF5816D06460C4627
:10CD80004FF4806102A816F0D4F80020019000252D
:10CD900000BF11E02146304614F053FC01AB4FF4C4
:10CDA000806202A9304614F0DBFA4AF6AA20114943
:10CDB0004968086005F58065A542EBD3304614F05C
:10CDC000D5FB0DF5816D70BD0004004000080040EA
:10CDD00000100140004C0040001401400050004091
:10CDE000A403002008010020090100200A010020FE
:10CDF0000B010020100300203EB5EDA017F094F8C1
:10CE0000F248F3490860F3484860F3488860F34803
:10CE1000C860F3480861002012F092FD04464FF408
:10CE2000FA7011F06DFB1CB1002012F089FD044670
:10CE30002146ECA017F078F834B1F248007820F0E1
:10CE4000C0008030EF490870EF49002014F0AEF8C0
:10CE50004FF4FA7011F054FB1322E149DB4814F04F
:10CE6000BDF804468CB11322DD49D84814F0B6F859
:10CE70000446D64814F07AFB012C06D1E14800782C
:10CE800020F0C0008030DF4908702246D449DFA07E
:10CE900017F04AF85CB9CD48C068E249884206D22A
:10CEA000E1A017F041F8E749C848FFF764FFE648FA
:10CEB000E649D1F80320C0F81220B1F80710C1826A
:10CEC0001322E3A1E54814F089F80446E34814F07E
:10CED0004DFB012C06D1CB48007820F0C0008030FB
:10CEE000C84908702146DEA017F01EF80022E4A110
:10CEF000E648006814F072F804462146E4A017F0F2
:10CF000013F824B9E148006814F08BFB0FE0062207
:10CF1000DBA1DE48006814F061F8044624B9DB4860
:10CF2000006810F091FA02E0E1A016F0FDFFEA4877
:10CF3000C07A00282CD01322E8A1EC4814F04EF857
:10CF40000446EA4814F012FBACB11322E3A1E7480F
:10CF500014F044F80446E54814F008FB5CB10020E6
:10CF6000DD49C872012C06D1A648007820F0C00027
:10CF70008030A4490870D848C07A28B10120DC4923
:10CF800008800020DB4908802146DBA016F0CCFF9A
:10CF9000E14801788D4809F01DFD044644B98B48ED
:10CFA000C468DD480178224688480AF0C8FB03E0DF
:10CFB0002146DAA016F0B8FFD7488078D6494978DC
:10CFC000D54A1278CDE900210290A04883784278B2
:10CFD0000178DA4816F0A8FF3EBD00B585B0D8A0AC
:10CFE00016F0A2FF40F64F0005F04BFDDA498978B4
:10CFF00060F34101D84881706A46142140F299706B
:10D0000005F042FC9DF807109DF80600303800EB53
:10D01000800001EB400030389DF805209DF8041099
:10D02000303901EB810102EB41013039C1EB0111D3
:10D0300000EB8100C94908809DF80B109DF80A009B
:10D04000303800EB800001EB400030389DF80920BB
:10D050009DF80810303901EB810102EB41013039B4
:10D06000C1EB011100EB8100BD4908806A46142123
:10D0700040F2F46005F008FC14226946B94815F046
:10D080003FFF5720B7490875412048753020887503
:10D090003520C87540200876132048766A49B14883
:10D0A0000CF0BCFB6A46142140F60D0005F0ECFBC9
:10D0B0000020AD4908709DF80F00312805D10846C1
:10D0C000007840F01000087005E0A748007820F0D4
:10D0D0001000A54908709DF81000312806D1A2481B
:10D0E000007840F00800A049087005E09E480078EC
:10D0F00020F008009C4908709DF81100312806D1E5
:10D100009948007840F004009749087005E0964877
:10D11000007820F00400944908709DF8120031282E
:10D1200006D19148007840F002008F49087005E070
:10D130008D48007820F002008B4908709DF813009C
:10D14000312806D18848007840F0010086490870EF
:10D1500005E08548007820F0010083490870824886
:10D16000007818B1804800781F2802DBFF207E4934
:10D1700008705948C07A002818D077488078C0F3E2
:10D180004000002812D05448C17A78A016F0CCFE96
:10D1900075480078FF2803D17AA016F0C5FE04E098
:10D1A000714801787BA016F0BFFEFDE00AE10000A7
:10D1B0005B2D5D496E697469616C697A65204669A9
:10D1C0006C6553797374656D5D0A0000B80F0020BB
:10D1D000740D0020E01100205401002050010020B7
:10D1E000E800002020207C5F204D6F756E74204485
:10D1F00069736B2020202020202020203A20253118
:10D2000035640A000C010020880D002020207C5F7E
:10D21000202573202066696C653A20253135640A23
:10D2200000000000F6FF0F00202020203E20436C6D
:10D2300065616E696E672066696C65206461746102
:10D240000A00000000FC0F00D1030020C0040020F1
:10D250006261636B75702E545854000008140020EE
:10D2600020207C5F206261636B75702E54585420BF
:10D2700066696C65202020203A20253135640A003B
:10D28000524553544F52452E42494E003001002022
:10D2900020207C5F20524553544F52452E42494E28
:10D2A00020202020202020203A20253135640A002B
:10D2B00020207C5F2043616E206E6F742063726556
:10D2C00061746520524553544F52452E42494E20B9
:10D2D00066696C650A000000B60300205A4D5F497C
:10D2E0006D6167652E6A70670000000030160020CF
:10D2F0007E0000208000002020207C5F20496D619E
:10D300006765646174615B5A4D5F496D6167655D16
:10D310003A20253135640A00B404002020207C5FC7
:10D3200020526566204F6B202020202020202020C6
:10D33000202020203A20253135640A00C8530208F5
:10D340005B2D5D496E697469616C697A6520436122
:10D350006D6572615D0A0000080000204400002035
:10D3600046000020380C00201200002020207C5FA6
:10D370002025642043616D65726120656E61626C79
:10D3800065640A0020207C5F204E6F206576656E04
:10D39000740A000020207C5F2030782578206F669A
:10D3A000206576656E740A00F1A016F0BDFD0120BF
:10D3B000F6494872F64AF749F74814F0A1FEF749D2
:10D3C00008600DE00020F1494872F248C17AF4A0EB
:10D3D00016F0AAFDFD48807820F00200FB49887015
:10D3E00005B000BD70B5FAA016F09EFDFE4D3022CE
:10D3F0007021284615F096FD0520294681F8710018
:10D40000002081F8700032200870342048700846EF
:10D41000DF490A68C0F802204A68C0F80620098976
:10D4200041813220294608733120487330208873A7
:10D43000C87332200874462048743021284680F88A
:10D440002F10EA48007820F00100E84908700846EB
:10D45000007820F0020008700846007820F00800EC
:10D4600008700846007820F0100008700846007820
:10D4700020F0400008700846007820F08000087016
:10D48000DB48007840F00200D9490870D94800789C
:10D4900020F00800D74908700846007820F01000F6
:10D4A00008700846007820F080000870D0480078A6
:10D4B00020F01000CE4908700846007820F02000C7
:10D4C00008704621284680F8461080F8471080F8FA
:10D4D000341080F835103020294681F84A00C648BB
:10D4E000007D3030C1B2284680F84B104A30C24926
:10D4F0000A68C0F802204A68C0F8062009894181FC
:10D50000BD48048F042305F15A022046002111F082
:10D51000CAF8B948448F042305F166022046002169
:10D5200011F0C1F8B5480078032816D105F11200B2
:10D53000B34909681031D1F80920C260D1F80D1043
:10D540000161AF4909681031D1F819204261D1F861
:10D550001D20826191F82110017770BDF0B58FB068
:10D5600006461C2108A815F0E4FC152102A815F0B8
:10D57000E0FCA448006801900025002400200090F1
:10D58000A1A016F0D1FC642005F0A3F93038A4491D
:10D59000087008460078052801DD04200870964AC6
:10D5A00040214FF4E46005F06FF99348007D0028B6
:10D5B0007ED09148007D05287ADA8F48007D303092
:10D5C000C0B28DF805008C480168CDF8061041689E
:10D5D000CDF80A100089ADF80E00924813F0C6FF8E
:10D5E0008548016B8F4814F02CF86B460C2208A973
:10D5F0008C4813F0C6FD00980C2846D10C2201A9D6
:10D6000008A815F0C0FC002840D17B49097D491EBF
:10D6100040F2847202EB810005F053FA76490887E4
:10D62000032010F06DFF7449097D491E40F2867297
:10D6300002EB810005F045FA6F49488730206A49BE
:10D6400081F84A006C48007D3030C1B2664880F8ED
:10D650004B104A3068490A68C0F802204A68C0F88E
:10D660000620098941816448078F04235E4A5A32A3
:10D670003846002111F017F85F48478F04235A4AB3
:10D6800066323846002111F00EF820E101AA08A9FF
:10D6900065A016F049FC1C226CA108A815F030FC0E
:10D6A00055480168CDF826104168CDF82A1000E0F1
:10D6B00037E00089ADF82E000DF13102062140F26D
:10D6C0000F1005F0E1F84C4908A80AF041FF64206A
:10D6D0004949C86200208861C8610862486288625E
:10D6E0004875C875088748871C225FA108A815F0EF
:10D6F00007FC4148D0F80A10CDF82610D0F80E10DB
:10D70000CDF82A10408AADF82E000DF13102062125
:10D7100040F20F1005F0B8F8374908A80AF018FFD2
:10D72000D5E064203449C86200208861C86108627D
:10D730004862886208754875C8750887488700215F
:10D7400050480068C1864F48006801872A484EA1AA
:10D750000A68C0F80A204A68C0F80E200989418288
:10D760001C224CA108A815F0CBFB0DF126029FE06E
:10D7700020207C5F20436F6E6669672043616D20C7
:10D78000696E746572666163650A00009803002023
:10D79000520C0020B6030020301600201401002097
:10D7A00020207C5F2025642043616D6572612065C7
:10D7B0006E61626C6564202620646F6E2774206140
:10D7C0006C6C6F7720736E61700A00000800002097
:10D7D0005B2B5D496E697469616C697A6520506183
:10D7E000636B65745D0A0000D10300204B000020CC
:10D7F0004A0000204C000020F80B002056000020BA
:10D8000028010020C45302085B2D5D496E697469CC
:10D81000616C697A65204472697665725D0A000000
:10D8200079000020B80F002020207C5F206F6E66FA
:10D83000696C653A2025730A20207C5F206F6E6337
:10D840006869703A2025730A00000000234B5420B9
:10D8500054587365746C616978656375203132332F
:10D860003435362E2A000000234244205458736574
:10D87000746C616978656375203132333435362EC6
:10D880002A000000240100203030303030303030A9
:10D89000303000002342442054587365746D616336
:10D8A00064696E68203132333435362E2A00000028
:10D8B0000A21E62004F0E8FF0DF13102062140F2D2
:10D8C0000F1004F0E1FFF54908A80AF041FE002E10
:10D8D0007ED1F3480178F3A016F026FBF9A016F0EC
:10D8E00023FB002406E0ED48015DFEA016F01CFBC2
:10D8F000601CC4B20A2CF6DB142108A815F019FB31
:10D90000E648007D401EC5B2F7A016F00DFB05EB02
:10D910008501D22202EB011008AA132104F0B4FF02
:10D92000002406E008A8015DEEA016F0FDFA601CD8
:10D93000C4B2132CF6DBF2A016F0F6FA05EB850163
:10D94000E62202EB011008AA0A2104F09DFF002440
:10D9500006E008A8015DE3A016F0E6FA601CC4B278
:10D960000A2CF6DBEFA016F0DFFA05EB8501F122B9
:10D9700002EB011008AA0F2104F086FF002406E044
:10D9800008A8015DD7A016F0CFFA601CC4B20F2C16
:10D99000F6DBAFF2547016F0C7FA0CAA042140F27D
:10D9A000034004F071FF0CA815F0FCFAE44908806C
:10D9B0000846008808B9F02008800CAA042140F22B
:10D9C000074004F061FF0CA815F0ECFADD4900E017
:10D9D00006E008800846008810B94FF416700880E9
:10D9E0000FB0F0BD1CB50020009001904FF4056011
:10D9F00005F047F8D449897860F38201D2488170F4
:10DA00004FF4056005F03DF8C0F34001CE48807842
:10DA100061F3C300CC4988706A46042140F60710C0
:10DA200004F032FF00208DF80400684615F0BAFAC1
:10DA3000C64908820846008AB0F5487F02DA4FF4EA
:10DA400048700882C0488078C0F34000002819D18F
:10DA5000BD488078C0F3C000002813D00020BC4926
:10DA60004872FFF7BCF80220B849C873B9A016F095
:10DA70005BFAB648018AC1A016F056FAC9A016F0A2
:10DA800053FA02E00120B24948721CBDCD48CE498C
:10DA90000860CE48CE490860CE48CF490860CF48DC
:10DAA000CF490860CF48D0490860D048D0490860C5
:10DAB000D048D1490860704730B58BB000200A903B
:10DAC0001C2103A815F035FA0024CCA016F02CFA7E
:10DAD000D3480078042809D1D2A016F025FAD7A29D
:10DAE000142140F2D67004F0A7FE0CE0CC48007878
:10DAF000032808D1D7A016F017FADCA2142140F2AF
:10DB0000D67004F099FE40F2254004F0FAFFDD499A
:10DB1000086008460068401C086040F2254004F098
:10DB200052FFD949D9A016F0FFF9E0A016F0FCF990
:10DB3000E649E74811F099F8E44A07CAE54B8DE851
:10DB4000070008F0ADFAE1480078E3490870E048C2
:10DB50000078E2490870DE480078E1490870DB4847
:10DB60004078E04908700020DA4948730D20DE490A
:10DB7000487230226421DD4815F0D4F90220DB49D7
:10DB800081F8640040F60C0004F0A3FE3038D84958
:10DB900081F8650030226421D548401C15F0C2F997
:10DBA0000220D34981F86600D248007820F0C000F6
:10DBB000D04908700720D04981F820000021CE48C4
:10DBC000817340F2EF6004F09CFFCC49086040F2A2
:10DBD000E76004F096FFCA49086040F2FB4004F099
:10DBE00090FFC8490860C5480068C549096888426F
:10DBF00010D8C348006868B10020C049086040F2EE
:10DC0000EF6004F0E0FE0020BD49086040F2E760EC
:10DC100004F0D9FE08204E49087202206E490968B6
:10DC2000087300206C49096881F8480030220821F7
:10DC300069480068193015F075F9302209216648E5
:10DC40000068293015F06EF900206349096881F8F1
:10DC5000340040F64E0004F014FF3B49897860F32D
:10DC60000001394881708078C0F3000060B94FF43A
:10DC70000061A54805F089FFFF20A4490870002035
:10DC8000A349088030490880A2A016F04DF99848B1
:10DC900090F8650000B147E14AE10000F80B002070
:10DCA0007900002020207C5F204E756D6265722017
:10DCB0006F66204472697665722020203A202531F3
:10DCC00035640A0020205B2D5D43757272656E74A9
:10DCD0002064726976657220202020203A2020205E
:10DCE00020202000256300000A202020207C5F20C7
:10DCF000447269766572206E616D652000000000D7
:10DD00000A202020207C5F204472697665722049B9
:10DD10004420202020202020203A202020202020C5
:10DD2000000000000A202020207C5F2044726976D9
:10DD3000696E67206C6963656E736520203A200008
:10DD40006E0000207000002008000020A4030020C6
:10DD5000980300205B2D5D496E697469616C697A76
:10DD60006520556C747261736F6E696320467565CA
:10DD70006C2053656E736F725D0A000020207C5F1B
:10DD8000204D6561737572652072616E6765206FE5
:10DD9000662073656E736F72206973202564206D31
:10DDA0006D0A000020207C5F20436F6E666967204B
:10DDB00053656E736F7220696E7465726661636518
:10DDC0000A00000043040020180100207B0400200A
:10DDD0001C0100207C0900202801002034010020C3
:10DDE000200100202009002024010020C809002073
:10DDF0002C010020CC040020300100202020202015
:10DE0000205B2D5D20564E455420547261636B6536
:10DE10007220496E666F726D6174696F6E0A0000E0
:10DE200076000020202020202020207C5F204D6FC5
:10DE300064656C3A2054473130320A002A2A2A2A73
:10DE40002A2A2A2A2A2A2A2A2A2A2A5447313032D6
:10DE500000000000202020202020207C5F204D6F2B
:10DE600064656C3A20544153310A00002A2A2A2A58
:10DE70002A2A2A2A2A2A2A2A2A2A2A2A5441533191
:10DE800000000000200000200000002020202020B2
:10DE90002020207C5F204669726D77617265205674
:10DEA000657273696F6E2025730A000020202020A0
:10DEB0002020207C5F2052656C65617365643A2088
:10DEC00030312F31312F31330A000000C0040020DF
:10DED000B4040020E800002072000020730000203D
:10DEE0007400002075000020DB000020810C002061
:10DEF000E60C00200C010020500D0020F80000204E
:10DF0000FC00002068000020001401400E000020EA
:10DF10000C0000205B2D5D52756E6E696E67206D82
:10DF20006F64655D0A000000ECA015F0FDFF02E0E3
:10DF3000F5A015F0F9FF0021FE480068C186FD48F4
:10DF400000680187FB48006880F826100320F94923
:10DF50000968C87640F2024004F093FD8DF828006D
:10DF60009DF82800F0280CD1F34800683430F149BE
:10DF700009680862F1A015F0D7FF0520FA4908707A
:10DF80001CE09DF828000F280CD1F849E9480068EA
:10DF90000162F7A015F0C8FF0220F3490870FEF7F0
:10DFA00091FD0BE0E44800683430E24909680862FA
:10DFB000E2A015F0B9FF0520EB4908700AAA032179
:10DFC000912004F061FC0AA814F0ECFFF3490870FA
:10DFD0000AAA032140F6031004F056FC0AA814F024
:10DFE000E1FFEF490870ED4800780A2802DA0A20BC
:10DFF000EA490870EA480078E8490978884202DA74
:10E000003C20E749087003AA142140F6EF0004F011
:10E010003BFC9DF80C00312822D10120E149087316
:10E020009DF81E003038C1B2DE4841739DF81F00D4
:10E030003038C1B2DB488173407B30B1D7480078BB
:10E04000D9490870D9A015F06FFFD648807B90B1F0
:10E05000D3480078D4490870DFA015F065FF0AE0C6
:10E060000020D0490873CD480078CF4908700021BE
:10E07000CC484173817340F6510004F002FD303802
:10E08000C84948720846407A012803D1DDA015F03E
:10E090004BFF02E0E6A015F047FF40F60C1004F03D
:10E0A000F0FC3038BF4988720846807A012803D1D5
:10E0B000EAA015F039FF02E0F3A015F035FF40F6B5
:10E0C000061004F0DEFC3038B649087240F2FA401F
:10E0D00004F0D7FCF749087040F2F94004F0D1FC95
:10E0E000F5490870F54A0521C82004F0CDFBF44A33
:10E0F0000521CD2004F0C8FBF24A0F21AA2004F02C
:10E10000C3FB2E20EF49C870C871C8720020EE49C9
:10E1100088712C22EDA1F94814F0F2FEF748E74986
:10E120000A68C0F82520097980F829100F22E549EE
:10E13000133014F0E5FE0420E34908710020487014
:10E140007C4802680A321121322004F09DFBEC4821
:10E150000078052802DD0520E949087075480A2184
:10E160000268432004F090FB0DF11B02052140F2F0
:10E17000F33004F089FB0DF11B0014F013FFE149AB
:10E1800008800DF11B02052140F2FA3004F07CFBFF
:10E190000DF11B0014F006FFDB49088008460088DB
:10E1A00008B9012008800AAA032140F2FF3004F0D8
:10E1B0006BFB0AA814F0F6FED449088008460088D4
:10E1C000D149098890FBF1F0D149088008460088C0
:10E1D00008B9012008800AAA03214D2004F054FB4D
:10E1E0000AA814F0DFFEC1B25248006880F824107B
:10E1F0005048006890F8240020B950214D4800682C
:10E2000080F82410C34A0B21952004F03DFB2A22FC
:10E210000B21C04810F0BDF9BE484078312826D007
:10E22000BD49BC48D0F80120C1F80320D0F8052032
:10E23000C1F80720B0F80900A1F80B00B749B548AC
:10E24000D0F80120C1F80920D0F80520C1F80D2030
:10E25000B0F80900A1F811003B20AF4948730D2028
:10E2600088732220AD49C8740D20087527E0A9489D
:10E270004078312823D1A849A6480268C1F8032074
:10E280004268C1F807200289A1F80B20807A487300
:10E29000A248A0490A68C0F809204A68C0F80D20C1
:10E2A0000A89A0F81120897AC1743B209A498873A1
:10E2B0000D20C8732220994908750D20487530201B
:10E2C0009749087040F60B1004F0DBFB0A2803D0D6
:10E2D00094A015F029FE3BE140E1000020207C5F86
:10E2E00020534D5320526573706F6E73652020204C
:10E2F000202020203A2020202020202020202045DF
:10E300006E61626C650A000020207C5F20534D53D3
:10E3100020526573706F6E736520202020202020AE
:10E320003A20202020202020202044697361626C44
:10E33000650A0000240100202801002020207C5FC5
:10E34000205370656564204D6F6465202020202077
:10E35000202020203A2020202020202020202020A3
:10E3600020204750530A0000660000206200002071
:10E3700020207C5F205370656564204D6F646520AC
:10E3800020202020202020203A2020202020202073
:10E390002020202050554C53450A00007C000020CE
:10E3A0007B000020100300207A00002020207C5FEA
:10E3B0002053617665204D6F646520202020202049
:10E3C000202020203A202020202041434320456E59
:10E3D00061626C65640A000020207C5F20536176D6
:10E3E00065204D6F646520202020202020202020E3
:10E3F0003A202044697265637420456E61626C65E1
:10E40000640A000020207C5F204461746120636FF7
:10E410006D7072657373696F6E2020203A20202022
:10E42000202020202020456E61626C65640A000077
:10E4300020207C5F204461746120636F6D70726581
:10E440007373696F6E2020203A2020202020202026
:10E450002044697361626C65640A000020207C5F5F
:10E46000204465627567206D6F6465202020202040
:10E47000202020203A202020202020202020456E0F
:10E4800061626C65640A000020207C5F2044656244
:10E490007567206D6F6465202020202020202020BB
:10E4A0003A202020202020202044697361626C657E
:10E4B000640A00006C0000206D0000204401002070
:10E4C00049010020670C00203C01002061742B638F
:10E4D000697073746172743D22746370222C222AF5
:10E4E0002A2A2E2A2A2A2E2A2A2A2E2A2A2A222C86
:10E4F000222A2A2A2A2A220D000000008500002054
:10E50000790000205A0000205C0000205E000020FE
:10E5100060000020760C0020B4000020C500002020
:10E520005C0C00205B2D5D44657669636520696E37
:10E53000666F5D2020202020202020203A202020EF
:10E540002020202020554E4C4F434B45440A0000CC
:10E55000002140F60B1004F0D6F902E0C6A015F039
:10E56000E3FCD04A0A21A02004F08EF9CEA015F0D9
:10E57000DBFC002407E0CB48015DAFF6980015F006
:10E58000D3FC601CC4B20A2CF5DBCFA015F0CCFC88
:10E59000002408E0D5480068015DAFF6B80015F02A
:10E5A000C3FC601CC4B20A2CF4DBAFF2EC7015F0B3
:10E5B000BBFCCF480178CFA015F0B6FCD548017858
:10E5C000D5A015F0B1FCDC480178DCA015F0ACFC5E
:10E5D0004021E2A015F0A8FCE8480079E749C97895
:10E5E000CDE90010E548837842780178E4A015F081
:10E5F0009BFCEFA015F098FC002407E0F348015DB8
:10E60000AFF6201015F090FC601CC4B20F2CF5DBA7
:10E61000AFF6540015F088FCED480168EDA015F048
:10E6200083FC40F2254004F06CFA05462946F1A02F
:10E6300015F07AFCF748017AF7A015F075FCFEA2F8
:10E640000A2140F2C17004F0F7F80BB030BD38B5C4
:10E65000054600200090FB488078401EC4B20D2D76
:10E6600020D2DFE805F0EE07203A4C5E708294A6D7
:10E67000B8CADC000A2094FBF0F03030C0B28DF84C
:10E6800000000A2094FBF0F100FB11403030C0B2D2
:10E690008DF8010031208DF802008DF80300EAA00A
:10E6A00015F042FCCDE00A2094FBF0F03030C0B20F
:10E6B0008DF800000A2094FBF0F100FB114030308F
:10E6C000C0B28DF8010031208DF8020032208DF8A3
:10E6D0000300E5A015F028FCB3E0DA48C0798DF816
:10E6E0000000D848007A8DF8010030208DF8020033
:10E6F00031208DF80300E4A015F016FCA1E0D1480C
:10E70000C0798DF80000CF48007A8DF801003020E4
:10E710008DF8020032208DF80300E3A015F004FC10
:10E720008FE0C848C0798DF80000C648007A8DF89F
:10E73000010030208DF8020033208DF80300E2A0A4
:10E7400015F0F2FB7DE0BF48C0798DF80000BD48B0
:10E75000007A8DF8010030208DF8020034208DF809
:10E760000300E1A015F0E0FB6BE0B648C0798DF83E
:10E770000000B448007A8DF8010030208DF80200C6
:10E7800035208DF80300E0A015F0CEFB59E0AD4830
:10E79000C0798DF80000AB48007A8DF80100302078
:10E7A0008DF8020036208DF80300DFA015F0BCFBC9
:10E7B00047E0A448C0798DF80000A248007A8DF89F
:10E7C000010030208DF8020037208DF80300DEA014
:10E7D00015F0AAFB35E09B48C0798DF800009948F8
:10E7E000007A8DF8010030208DF8020038208DF875
:10E7F0000300DDA015F098FB23E09248C0798DF866
:10E8000000009048007A8DF8010030208DF8020059
:10E8100039208DF80300DCA015F086FB11E0894853
:10E82000C0798DF800008748007A8DF8010031200A
:10E830008DF8020030208DF80300DBA015F074FB8A
:10E8400000BF00BF04236A460121DFA007F0CEFC11
:10E8500038BD10B58AB0002009900124DBA015F066
:10E8600063FB78480078DF4908704AF6AA206949B6
:10E8700049680860DC48B9E15B2D5D4465766963F1
:10E880006520696E666F5D202020202020202020DA
:10E890003A202020202020202020204C4F434B4590
:10E8A000440A0000520C002020207C5F2044657642
:10E8B000696365494420202020202020202020203A
:10E8C0003A202020202020000A20207C5F2056654E
:10E8D0006869636C65494420202020202020202086
:10E8E000203A2020202020200000000024010020C9
:10E8F0007A00002020207C5F204750525320496E30
:10E9000074657276616C4D494E2873293A20253121
:10E9100035640A007B00002020207C5F2047505295
:10E920005320496E74657276616C4D415828732985
:10E930003A20253135640A006600002020207C5FE3
:10E940002056656869636C652073746F7020284B6E
:10E950006D2F68293A20253135640A0020207C5F1C
:10E960002053697A65206F66204472697665206954
:10E970006E666F203A20253135640A00440100207C
:10E9800020207C5F20544350506F72742020202040
:10E9900020202020202020203A202020202020205D
:10E9A00020202020256325632563256325630A0035
:10E9B00020207C5F2049504F665443505365766554
:10E9C00072202020202020203A200000670C002008
:10E9D0006800002020207C5F204D696C65616765C0
:10E9E0002F6461792020202020286D293A202531AC
:10E9F00035640A0020207C5F204E756D62657220B0
:10EA00006F66205374617274202020203A202531D3
:10EA100035640A001003002020207C5F20526573BB
:10EA20007461727420496E74657276616C20202066
:10EA30003A20253135640A0052554E4E494E470062
:10EA400000000000C004002052656D6F76652066EE
:10EA5000696C65732072656C61746520746F204EFB
:10EA60006F76210A0000000052656D6F76652066A2
:10EA7000696C65732072656C61746520746F2044E5
:10EA80006563210A0000000052656D6F766520669F
:10EA9000696C65732072656C61746520746F204ABF
:10EAA000616E0A210000000052656D6F7665206678
:10EAB000696C65732072656C61746520746F2046A3
:10EAC0006562210A0000000052656D6F7665206660
:10EAD000696C65732072656C61746520746F204D7C
:10EAE0006172210A0000000052656D6F7665206634
:10EAF000696C65732072656C61746520746F204168
:10EB00007072210A0000000052656D6F7665206604
:10EB1000696C65732072656C61746520746F204D3B
:10EB20006179210A0000000052656D6F76652066EC
:10EB3000696C65732072656C61746520746F204A1E
:10EB4000756E210A0000000052656D6F76652066C3
:10EB5000696C65732072656C61746520746F204AFE
:10EB6000756C210A0000000052656D6F76652066A5
:10EB7000696C65732072656C61746520746F2041E7
:10EB80007567210A0000000052656D6F766520668A
:10EB9000696C65732072656C61746520746F2053B5
:10EBA0006570210A0000000052656D6F7665206671
:10EBB000696C65732072656C61746520746F204F99
:10EBC0006374210A00000000303A00005B2D5D6E86
:10EBD00065772064617920636F6D6D696E675D0A8A
:10EBE0000000000072000020D1030020FB49D1F892
:10EBF0000320C0F81220B1F80710C182F74840780E
:10EC0000F749097888420CD0F4494878FFF71FFD8E
:10EC1000F2484078F249087009A940F2254003F013
:10EC2000D2FEF0480078012803D0EF48007803288E
:10EC300018D1EA4841680091007A8DF80400E74A4B
:10EC4000D2E900109268CDE907020691E748016811
:10EC5000039141680491806805900246069B0398E1
:10EC600010F065F8E24812F0DCFCDC4AD2E9001052
:10EC70009268E04BCDE9070206910146069807F03D
:10EC80000FFA1322DB49DA4812F0A8F90446D848F3
:10EC900012F06CFC34B9D8A015F046F9DC49D44820
:10ECA000FEF769F8002009F08DFF0120FEF756FC01
:10ECB000D8480078401CD7490870D748007A50B12E
:10ECC000D548007A0978884205DC0020D1490870CF
:10ECD0000120D14988700120D04908700AB010BDC8
:10ECE00008B5002000906A46012140F2FE7003F052
:10ECF000CBFD9DF8000031285BD1B84800780F2883
:10ED00000BDA032003F0E5FD40F0040000909DF8CD
:10ED10000010032003F0F7FD4BE0032003F0D9FDC2
:10ED200000909DF8000000F00400042841D1232049
:10ED3000BB4948704321BA4881704821C1704521C0
:10ED40000171432141714B2181712021C171412108
:10ED500001724321417281722E21C1722A210173F5
:10ED60000120AF4981F86600AE48407831280BD0C9
:10ED7000AD48AC49D1F801200260D1F805204260CD
:10ED8000B1F80910018109E0A748A6490A680260A4
:10ED90004A6842600A890281897A8172032003F0FD
:10EDA00098FD20F0040000909DF80010032003F06F
:10EDB000AAFD08BD10B59D4800780A2814DB9C48C0
:10EDC000007800F0200020280ED09AA015F0ACF8B2
:10EDD00000209649087019229AA1A14814F090F8D1
:10EDE00013209F49487610BD9E48008841F2883123
:10EDF00088420BDD8E48007800F02000202802D1E8
:10EE000002208B49087000209649088096480068C7
:10EE1000964988420BD396A015F086F819229DA139
:10EE20008F4814F06DF813208D494876DBE7A04831
:10EE3000006843F69821884229D37D48007800F085
:10EE40002000202823D09BA015F06EF814209F49A5
:10EE500008700120964908609D480088401C9C4924
:10EE60000880084600880A2808DB192289A17C4806
:10EE700014F046F813207A49487607E0192271A168
:10EE8000774814F03DF8132075494876ABE700BF8A
:10EE9000A9E71CB50020009001906A46042140F2C9
:10EEA000114003F0F1FC04228AA1684614F06BF8CB
:10EEB00018B90420894908700CE0042288A168462A
:10EEC00014F061F818B903208449087002E00020AA
:10EED000824908708148007810B983A015F024F8A1
:10EEE0002EE05F48407E132803D18C495C480AF02D
:10EEF00095FC6A46042140F2114003F0C5FC04224F
:10EF000074A1684614F03FF818B9042073490870DA
:10EF10000CE0042272A1684614F035F818B90320F9
:10EF20006E49087002E000206C4908706B48007858
:10EF300010B1002009F009FF4FF47A700FF0E0FAE9
:10EF4000664800780028CCD01CBD10B58AB00020DF
:10EF500008900990002472490870204A234971489A
:10EF6000006806F08EFD1D4841680091007A8DF81A
:10EF700004001A4AD2E900109268CDE90602059110
:10EF80001A48016802914168039180680490024622
:10EF9000059B02980FF0CBFE10480078624908707C
:10EFA000124800786149087010480078604908707C
:10EFB0000A4840780A4908705EA014F0B5FF0B4873
:10EFC00080780A494978094A1278CDE900210290EF
:10EFD0000248837842780178B4E00000C004002041
:10EFE000750000207700002056000020B4040020A7
:10EFF000B80F0020E800002020203E20436C65610F
:10F000006E696E672066696C6520646174610A00D0
:10F0100000FC0F002500002010030020110000203C
:10F02000E60C0020760C00205C0C00203400002050
:10F030000F0000200A436F6E6E656374204661699D
:10F040006C0A00002A2A2A2A2A2A2A2A2A2A2A2A52
:10F050002A2A2A2A2A2A2A2A57413934400000001B
:10F06000380C00203200002028000020905F0100B2
:10F070000A4C6F737420636F6E6E656374696F6E94
:10F0800020776974682053494D206D6F64756C65F5
:10F090000A0000002A2A2A2A2A2A2A2A2A2A2A2A6E
:10F0A0002A2A2A2A2A2A2A2A5741393040000000CF
:10F0B0002C0000200A4C6F73742047505253206379
:10F0C0006F6E6E656374696F6E200A0055000020D4
:10F0D00030000020564E455400000000760000200D
:10F0E00054544153000000000D0A546869732064B1
:10F0F000657669636520686173206E6F7420616353
:10F1000074697661746564206279206D616E7566DC
:10F11000616374757265210A00000000D10300204C
:10F1200058000020280100207200002073000020F9
:10F13000740000205B2D5D53796E632074696D65EA
:10F140005D0A0000F3A014F0EFFEFE48C0798DF8D0
:10F150002000FC48007A8DF82100FA4840798DF8AB
:10F160002200F84880798DF82300F648C0788DF8A1
:10F170002400F44800798DF82500062208A9F248F9
:10F1800013F001FF002850D00720F0490870F04824
:10F19000EC49D1F80320C0F81220B1F80710C18261
:10F1A000EC4812F03EFA08AAE749EBA014F0BCFEC6
:10F1B000E44AD2E900109268E34BDB1ECDE9060277
:10F1C00005910146059806F06BFF1322DE49C91E22
:10F1D000E04811F003FF0446002C1DD12146E2A0B7
:10F1E00014F0A2FEDB4812F0C1F9AFF2F41014F0F3
:10F1F0009BFEE449D748FDF7BEFDE3480178D548BA
:10F2000007F0E8FB04463CB9D248C468DE48017800
:10F210002246D04808F093FA002009F0D3FC0120E0
:10F22000FEF79CF90620C94908700AB010BD08B560
:10F2300000200090D548006840F4E040D3490860C1
:10F240004FF448414FF0006004F0B0F84FF44870BC
:10F250000FF056F90720BD490870CD484860FDF70A
:10F2600071FB4AF6AA20B949496808600020B749ED
:10F270004870FEF70BFC03F02AFA08F0B9FAC5490A
:10F28000B1F1807F00D31EE021F07F40401E4FF09F
:10F29000E022506150170F22002808DA13071D0ED4
:10F2A000BA4B0C3B00F00F04241F1D5503E013075D
:10F2B0001C0EB94B1C5400BF00204FF0E02290619F
:10F2C0000720106100BF40F2DC50B4490880FDF710
:10F2D00029FCB3A014F028FE0FF028FB00F0C2FDBB
:10F2E00006F032FBFFF7D5FD0FF08DFDFEF7E4FBD6
:10F2F000FDF773FEFEF776FBFDF77EFD0020FEF7BF
:10F300002DF9FEF76FF832200FF0FAF8FDF767FBE2
:10F3100078200FF0F5F8A2A014F006FE002000F00F
:10F3200035FEFDF720FB0620884908706A4601215A
:10F3300040F60A0003F080FAACE1844880780128A6
:10F340001AD1A2A000F001FE4FF47A700FF0D8F8A5
:10F35000A1A014F0E9FD00BF8C481838006800F443
:10F36000E060A1490843001D884918390860BFF3CF
:10F37000408F00BF00BFFEE79C48007800F001000E
:10F3800001280BD19AA014F0CFFD00F062FE97483F
:10F39000007820F001009549087059E09348007802
:10F3A00000F00200022853D19048007810F0010FBD
:10F3B0004ED19048006800284AD18FA014F0B4FDC7
:10F3C0008E49887900F0A9FE20208849087041F212
:10F3D00088300FF095F88A480068401C884908601A
:10F3E0005A48007B01282FD186480068C07E032838
:10F3F00004D084480068C07E022816D18048006886
:10F400000321B0FBF1F201FB120048B97C4800680F
:10F410007D4909784843642148437649086017E0EC
:10F4200040F6B8307349086012E07548006810F083
:10F43000010F04D14FF47A606E49086008E041F290
:10F4400070706C49086003E04FF4487069490860C7
:10F45000FFF7B0FC6D480078032805D16C480078B0
:10F46000032801D1FFF771FD6A480078C0F38100DD
:10F4700080B9694800686949096888420AD23348F6
:10F480004078102806D06348007820F00C0008303F
:10F49000604908703C48017861480078401C81420E
:10F4A00002D13948007830B95D480078172818D162
:10F4B00035480078A8B9344800785949087032486E
:10F4C000007807280DDD30480078122809DAFFF7A8
:10F4D00007FC192253A15A4813F012FD1320584972
:10F4E000487658480078012811D140480078022811
:10F4F0000DD154490870092253A1564813F000FD5C
:10F500004448407820F00C00083042494870524886
:10F510000078A3E020207C5F4C6F63617465643ADF
:10F5200020253032642F253032642F32302530329E
:10F5300064202D20253032643A253032643A25305B
:10F5400032640A00C0040020EB00002010030020F9
:10F55000D1030020B80F002020207C5F25367320C7
:10F56000213D202536730A0020207C5F43726561AF
:10F570007465207375636365737366756C202564A9
:10F580000A00000000FC0F00B404002024ED00E09D
:10F590000030004080FC0A0000E400E00C00002085
:10F5A0005F5F5F5F5F5F5F5F5F5F5F5F5F5F5F5F6B
:10F5B0005F5F5F5F5F5F5F5F5F5F5F5F5F5F5F5F5B
:10F5C0005F5F5F5F5F5F5F5F5F0A000061742B6377
:10F5D000706F77643D300D00526573657420537908
:10F5E0007374656D0A0000000000FA050F0000202A
:10F5F0002E0A0000380000202E2E0A003C010020B8
:10F600003C000020240100207C0000205800002045
:10F610005600002098030020FC000020F800002085
:10F62000740000202A2A2A2A2A2A2A2A2A2A2A2A4E
:10F630002A2A2A2A2A2A2A2A52413832400000003D
:10F64000380C0020110000206174642A313031230D
:10F650000D00000024030020E60C0020012811D139
:10F66000002015490870154815490A6802604A6863
:10F670004260098901811348407820F00C0008306D
:10F68000104948700020104908704AF6AA200F4916
:10F690004968086051E670B504460D46E1B20C4871
:10F6A00006F08BF800BF4021094806F0F4F8002866
:10F6B000F9D0204670BD0000E60C00202403002095
:10F6C000DB0000209803002017000020100300201A
:10F6D000004C004010B50121880705F01AFF0028F2
:10F6E00070D00121880705F025FFFB480078072826
:10F6F00000D110BDF9480068401CF8490860F84B7B
:10F70000F84AF94801683431F848006808F0F3F91C
:10F71000F2480068642872D30020F0490860F44879
:10F720000078032803DAF349F3480FF09EFAF14812
:10F730000078F249097888420CD0EE480078EF4909
:10F740000978401A012803D0EA480078012801D13D
:10F75000FFF77FF8EA4800783B286CDD0020E84995
:10F760000870E8480078032817DAE748007803288B
:10F7700013DAE648007803280FDAE2480078401CE4
:10F78000E0490870E0480078401CDF490870DF4815
:10F790000078401CDD49087015E0DDA000F0D5FBC5
:10F7A000DEA014F0C1FB00BFE648006800F4E06092
:10F7B000E5490843001DE3490860BFF3408F00BFDF
:10F7C00000BFFEE7C9E0E1480078E0B9E048007812
:10F7D00010F0010F14D1DF488078C0F3400078B1F9
:10F7E000DD48007880090BD1C3498888DB490A8845
:10F7F000DB49098813F037FBDA49087003E07EE043
:10F800000020D8490870D8480078802818D1B2481C
:10F810004078102814D0D548D5A10A6802608A889B
:10F82000828089798171D448407820F00C000830BA
:10F83000D149487004E0B2480078401CB0490870D3
:10F84000C848007808B3C1480078F0B9CB480078C0
:10F850001F281BDDCA48807AC0EB0010C9490988FF
:10F86000B1EB800F08DAC748008828B1C548008886
:10F87000401CC449088025E0C2480088012821DDD9
:10F880000120B2490870BF4908801BE0BE480078DB
:10F89000BA49097808420DD0BC48008850B9B84828
:10F8A000807AC0EB00108000B84908800120A74989
:10F8B000087007E0B548008820B1B4480088401EB1
:10F8C000B2490880B2480078022804D1B14AB2494E
:10F8D000B24808F0F9FB88494A7884490968887871
:10F8E0007F4B814909681C3108F074FC7C497E48D3
:10F8F000006808F010FDAA49AA4808F015FFAA4AB6
:10F900009D4977480EF0FDFC92488078C0F3400096
:10F91000D0B18E4800780E2807D08C48007820B1EE
:10F920008A49974812F095FE0EE0934800788009C6
:10F930000AD1864800780E2806D18F48007820F03A
:10F94000C00080308C490870984890F82000062844
:10F9500003D19749954807F05AF84AF6AA205E491C
:10F960004968086000BFC4E610B50121914805F060
:10F97000D0FD002846D001218E4805F0DBFD8E48E1
:10F980000078012807D18D498D48006806F001F9FB
:10F990000220894908708B48006890F82E020128DF
:10F9A00005D1814A4F498748006800F0BBFD864871
:10F9B00090F86600012803D18449834801F0B0FD26
:10F9C000834890F86400022804D0814A7F496A483D
:10F9D00002F0ECFC7D48407E122807D07B48407E38
:10F9E000132803D07948407E142803D13C49774836
:10F9F00009F014FF0020444908704AF6AA2036494D
:10FA00004968086010BD10B54FF4807003F096FF90
:10FA100018B14FF4807003F0A2FF5F480088401CCB
:10FA20005D49088010BD10B540F22551694805F0C8
:10FA300048FF60B140F22551664805F06CFF65480B
:10FA400005F0BFFEC4B261492046FDF75FF910BD65
:10FA500010B540F22551604805F033FF68B140F21F
:10FA600025515D4805F057FF5B4805F0AAFEC4B27A
:10FA700054480168204601F06AFB10BD10B540F201
:10FA80002551564805F01DFF60B140F225515348FD
:10FA900005F041FF514805F094FEC4B247492046A5
:10FAA00005F0A0FF10BD10B540F225514C4805F0FF
:10FAB00008FF80B140F22551494805F02CFF484825
:10FAC00005F07FFEC4B22C48407A464951F8202008
:10FAD0001E492046904710BD100300205000002012
:10FAE000D10300203C01002024010020200100203F
:10FAF00056000020C0040020B40400207200002042
:10FB000058010020170000201800002019000020D4
:10FB100061742B63706F77643D300D00537973749B
:10FB2000656D2069732073757370656E6465642CF0
:10FB300020726573657420696E207365636F6E64EF
:10FB4000730A00000CED00E00000FA051000002030
:10FB50004B000020080000200C010020460000207F
:10FB600044000020420000200F0000202403002059
:10FB700041542B4353510D009803002012000020E4
:10FB8000B60300207E00002010010020800000202D
:10FB90006600002068000020640000206200002051
:10FBA000F80B0020B80F00204D000020500D002061
:10FBB000740D00200004004048000020470300208E
:10FBC000280100202C010020E60C0020380C002029
:10FBD000810C0020004C00400048004000440040E0
:10FBE0000050004000010020704708B56C480168D3
:10FBF0006CA014F099F96A48103801686CA014F0F0
:10FC000093F967480C3801686CA014F08DF96448CA
:10FC1000083801686CA014F087F96148001D01687C
:10FC20006CA014F081F95E4820380090001F036832
:10FC30005B4810380268001F0168694814F074F9C5
:10FC400000BFFEE767A014F06FF900BFFEE76AA0EF
:10FC500014F06AF900BFFEE76CA014F065F900BF6C
:10FC6000FEE770477047704710B56D480068401C4C
:10FC70006B490860084600686A490978884246D39B
:10FC80000020674908606848007880F001006649F4
:10FC9000087008460078012804D18102634803F007
:10FCA00072FF04E04FF48061604803F06EFF60482B
:10FCB000007880090ED05C480078012804D1010347
:10FCC0005A4803F060FF0AE04FF48051574803F0B0
:10FCD0005CFF04E04FF48051544803F056FF554850
:10FCE0000078642805D14FF40061504803F04DFFBF
:10FCF0000DE04D480078012804D1C1024B4803F0C3
:10FD000042FF04E04FF40061484803F03EFF4A48D8
:10FD1000008810B94948007850B149488078C0F34C
:10FD2000000028B1454890F9001043480EF057FBF9
:10FD30004448008820B143480088401E414908805B
:10FD40004148008820B140480088401C3E49088056
:10FD50003E480078202804D13D480088401C3C499A
:10FD600008803A48007800F00200022807D139489C
:10FD7000006820B137480068401E364908603648A0
:10FD80000068401C3449086034480068401C33490E
:10FD9000086010F059F800203149087010BD704714
:10FDA00038ED00E042464152203D2025780A00000F
:10FDB00043465352203D2025780A000048465352BE
:10FDC000203D2025780A000044465352203D20253E
:10FDD000780A000041465352203D2025780A000051
:10FDE0002C5402084D656D4D616E6167655F486119
:10FDF0006E646C65720A00004275734661756C74BE
:10FE00005F48616E646C65720A000000557361673B
:10FE1000654661756C745F48616E646C65720A005A
:10FE20005C0100205400002059010020001801400E
:10FE30000C010020550000200C0000200E000020C6
:10FE40000800002014000020E60000200F00002021
:10FE50003200002038000020280000202C00002064
:10FE60001900002000B587B00121202004F09EFA7F
:10FE70000121212004F09AFA0121880404F0A3FA58
:10FE80000121FB4803F0A3FE4FF48070ADF8180089
:10FE900018208DF81B0003208DF81A0006A9F548DC
:10FEA00003F0C6FD4FF40070ADF8180004208DF883
:10FEB0001B0003208DF81A0006A9EE4803F0B8FDD8
:10FEC0004FF4E13002900020ADF80C00ADF80E00C8
:10FED000ADF81000ADF814000C20ADF8120002A926
:10FEE000E54805F06EFB012240F22551E24805F09D
:10FEF00000FC40F22661E04805F00DFD0121DE48DE
:10FF000005F0EBFB4FF40040ADF8180003208DF82E
:10FF10001A0010208DF81B0006A9D64803F088FDB2
:10FF20004FF4407003F00AFA27208DF804000120F6
:10FF30008DF8050000208DF8060001208DF80700DF
:10FF400001A803F000FA07B000BD70B50446002513
:10FF50004FF4FA70C949088010E0615DC64805F0A9
:10FF60002CFC00BF4021C44805F095FC0028F9D0C6
:10FF7000605D0D2800D170BD681CC5B2605D18B110
:10FF8000BE4800880028E8D100BFF4E710B5044659
:10FF9000BCB94FF40041B74803F0F7FD4FF47A7055
:10FFA0000EF0AEFA4FF40041B24803F0ECFD4FF40E
:10FFB000FA600EF0A5FA4FF40041AE4803F0E5FDFB
:10FFC00010BD012C1BD1AEA0FFF7BFFF4FF4FA60AC
:10FFD0000EF096FAE103A74803F0D7FD4FF47A70CC
:10FFE0000EF08EFAE103A34803F0CDFD4FF4FA6062
:10FFF0000EF086FAE1039F4803F0C7FDE0E7022C0C
:020000040801F1
:1000000007D19FA0FFF7A1FF4FF4FA600EF078FA36
:10001000D6E79BA0FFF799FF4FF4FA600EF070FA55
:100020004FF40041934803F0B0FD4FF47A700EF0A6
:1000300067FA4FF400418F4803F0A5FD4FF4FA60D2
:100040000EF05EFA4FF400418A4803F09EFD00BFB7
:10005000B6E710B58DA0FFF778FF4FF496700EF05D
:100060004FFA8CA0FFF771FF4FF496700EF048FA2C
:100070008BA0FFF76AFF4FF496700EF041FA8CA048
:10008000FFF763FF4FF496700EF03AFA8BA0FFF77C
:100090005CFF4FF496700EF033FA8DA0FFF755FF1A
:1000A0004FF496700EF02CFA8DA0FFF74EFF4FF430
:1000B00096700EF025FA8EA0FFF747FF4FF496706A
:1000C0000EF01EFA8DA0FFF740FF4FF496700EF071
:1000D00017FA8CA0FFF739FF4FF496700EF010FA64
:1000E0008CA0FFF732FF4FF496700EF009FA8CA047
:1000F000FFF72BFF4FF496700EF002FA8AA0FFF77D
:1001000024FF4FF496700EF0FBF98AA0FFF71DFF55
:100110004FF496700EF0F4F910BD10B586B0044699
:100120001422864901A812F0EBFE85A0FFF70DFF0F
:100130004FF496700EF0E4F984A0FFF706FF4FF439
:1001400096700EF0DDF98548407838B183494978DA
:10015000491E01AA52F82100FFF7F7FE4FF4FA708A
:100160000EF0CEF9012C64D17DA0FFF7EEFE4FF426
:1001700096700EF0C5F97EA0FFF7E7FE4FF496707B
:100180000EF0BEF97EA0FFF7E0FE4FF4FA700EF01D
:10019000B7F97EA0FFF7D9FE40F6B8300EF0B0F9FF
:1001A0007DA0FFF7D2FE4FF448700EF0A9F92E2281
:1001B0007CA1884812F0A4FE864887490A68C0F8E6
:1001C0002720097980F82B100F228449153012F06E
:1001D00097FE8048FFF7B9FE7E4981A013F0A4FE88
:1001E00040F6B8300EF08CF92E2282A1794812F038
:1001F00087FE78488B490A68C0F82720097980F87B
:100200002B100F227549153012F07AFE7148FFF756
:100210009CFE704984A013F087FE40F6B8300EF0C3
:100220006FF986A0FFF791FE4FF4FA700EF068F9AF
:100230001BE086A0FFF789FE4FF496700EF060F980
:100240002C2286A1634812F05BFE624862490A686C
:10025000C0F82520097980F829100F225F49133052
:1002600012F04EFE5B48FFF770FE06B010BD0000B6
:100270003000140000140140004800401400002029
:1002800061742B63706F77643D300D0061742B6770
:10029000736E0D0041542B4346554E3D310D000009
:1002A00041542B435343533D2247534D220D0000ED
:1002B00041542B434D47463D310D000041542B43E3
:1002C0004E4D493D312C312C302C302C300D00005E
:1002D00041542B434D47443D312C340D0000000068
:1002E00041542B434D47443D312C330D0000000059
:1002F00041542B434C49503D310D00006174653031
:100300000D00000041542B434950535052543D318D
:100310000D00000041542B43475245473D310D002D
:10032000415426570D00000041542B435341533D87
:10033000310D000061742B6373710D007854020855
:1003400061742B636970736875740D0061742B633D
:1003500069706D75783D300D000000003C01002093
:1003600061742B6369706D75783D310D000000007C
:1003700061742B63697072786765743D300D00009D
:1003800061742B637374740D0000000061742B633F
:10039000696963720D00000061742B636966737292
:1003A0000D00000061742B63697073746172743D99
:1003B000312C22746370222C222A2A2A2E2A2A2ADD
:1003C0002E2A2A2A2E2A2A2A222C222A2A2A2A2A93
:1003D000220D00008500002044010020670C002051
:1003E00041545F4349505354415254313A2025738C
:1003F0000A00000061742B63697073746172743D4C
:10040000322C22756470222C222A2A2A2E2A2A2A89
:100410002E2A2A2A2E2A2A2A222C222A2A2A2A2A42
:10042000220D00004901002041545F4349505354BC
:10043000415254323A2025730A00000061742B6344
:1004400069707374617475733D310D0061742B6351
:100450006970686561643D310D00000061742B6353
:10046000697073746172743D22746370222C222A45
:100470002A2A2E2A2A2A2E2A2A2A2E2A2A2A222CD6
:10048000222A2A2A2A2A220D0000000010B504463A
:10049000012C30D12E22AFF2F401FA4812F030FDD7
:1004A000F848F9490A68C0F82720097980F82B1024
:1004B0000F22F649153012F023FDF248FFF745FDF3
:1004C00040F6B8300EF01CF82E22AFF2D801ED48FD
:1004D00012F016FDEB48EE490A68C0F827200979AA
:1004E00080F82B100F22E949153012F009FDE5487C
:1004F000FFF72BFD15E02C22AFF2A001E14812F02E
:10050000FFFCE048E0490A68C0F82520097980F836
:1005100029100F22DD49133012F0F2FCD948FFF701
:1005200014FD10BD2DE9F84304460D46174600267C
:10053000B04694F82E0201287ED10020D5490860EB
:100540000222D5A1204612F01EFD78B9022084F8BF
:100550002E021E20E87007203870D048006820F076
:100560000200CE4908601E20BDE8F8830722CCA116
:10057000204612F008FDB0B9022084F82E020020B7
:10058000C94908601C20E870082038700020C7495D
:1005900008806420C64908700020C6490860C64922
:1005A00008601C20E0E70922C4A1204612F0EBFC01
:1005B00070B9022084F82E022C20E87009203870CF
:1005C0000220C14908701420B94908701C20CBE7EB
:1005D0000722BEA1204612F0D6FCB0B9022084F852
:1005E0002E022020E8700A2038701420B0490870CC
:1005F000B548007820F08000B349087008460078BC
:1006000040F0020008702020AEE71122B1A1204680
:1006100012F0B9FC98B9022084F82E021420E87078
:10062000A948007820F08000A749087008460078A3
:1006300040F00200087000E0CAE3142094E71022A2
:10064000A9A1204612F09FFC80B9022084F82E0256
:100650001520E8709C480078802805D09A480078DA
:1006600040F002009849087015207DE70F22A3A1F1
:10067000204612F088FC80B9022084F82E02162051
:10068000E8709148007800F00200022803D0AFF231
:100690000430FFF75AFC162066E710229BA1204683
:1006A00012F071FC28B10B229DA1204612F06BFCC8
:1006B00020B9022084F82E020B20387011229BA151
:1006C000204612F060FC28B106229DA1204612F0BF
:1006D0005AFC28BB022084F82E02142074490870AA
:1006E0001920E870132038707748007820F08000D7
:1006F00075490870944895A10A6802604A6842608A
:100700000A890281897A81729348407820F00C002E
:1007100008309149487091A013F006FC192023E796
:10072000152290A1204612F02EFC40B9022084F838
:100730002E021820E87006203870182014E70C22CA
:100740008EA1204612F01FFC38BB022084F82E0236
:100750001A20E8708D480078401C8C4908700A20E7
:1007600038701420524908705748007820F08000F3
:1007700055490870744875A10A6802604A68426069
:100780000A890281897A81727348407820F00C00CE
:100790000830714948701A20E6E60A227CA12046FA
:1007A00012F0F1FB58B10A227CA1204612F0EBFBBB
:1007B00028B109227EA1E01D12F0E5FBF0B902206C
:1007C00084F82E020020384908601B20E8700520BC
:1007D00038700020354908806C49087077490880D6
:1007E000802039490870642031490870012074491B
:1007F000087074A013F098FB1B20B5E6112273A1BA
:10080000204612F0C0FB00BB022084F82E02172005
:10081000E8701420264908702B48007820F08000EA
:1008200029490870484849A10A6802604A6842603C
:100830000A890281897A81724748407820F00C0049
:100840000830454948701B208EE6092264A12046E5
:1008500012F099FB28B9022084F82E02102028708B
:1008600082E6092261A1204612F08DFB48B90220E0
:1008700084F82E020D20287014200D4908700D20D8
:1008800072E6B9E08500002044010020670C0020DA
:1008900049010020280000203E2000001C0000200C
:1008A00053454E44204F4B002C00002030000020C8
:1008B00055000020380000203C00002053454E44E5
:1008C000204641494C0000000F0000205348555479
:1008D000204F4B0053544154453A20495020494E33
:1008E000495449414C00000053544154453A204971
:1008F0005020535441545553000000005354415468
:10090000453A2049502053544152540053544154C5
:10091000453A2050445020444541435400000000D3
:100920002B5044503A2044454143540053544154C1
:10093000453A2054435020434C4F53454400000057
:10094000434C4F53454400002403002041542B43A3
:100950004950534855540D00980300202E2E2E2E3A
:100960002E0A000053544154453A2054435020432A
:100970004F4E4E454354494E47000000434F4E4EA4
:10098000454354204641494C0000000034000020FB
:10099000434F4E4E454354204F4B00005354415457
:1009A000453A20434F4E4E454354204F4B000000E4
:1009B000434F4E4E45435445440000003200002052
:1009C000570000202E2E2E2E0A00000053544154B2
:1009D000453A2049502047505253414354000000AB
:1009E0002B43475245473A20330000002B434752E0
:1009F00045473A20300000000922F6A1204612F0B7
:100A0000C2FA38B9022084F82E02F5A0FFF79DFA49
:100A10000E20A9E50922F5A1204612F0B4FA48B942
:100A2000022084F82E020F2028701420F24908704A
:100A30000F2099E50A22F1A1204612F0A4FA28B16C
:100A40000A22F1A1204612F09EFA60B9022084F831
:100A50002E020A20A870EF48007840F00100ED490E
:100A600008700A2080E50522EBA1204612F08BFADF
:100A7000D8B9022084F82E02A0798DF80000E07920
:100A80008DF80100684612F08DFA687168790528C2
:100A900005DA022038701420D749087001E00320DD
:100AA00038702420E8700B205EE50622DCA1204689
:100AB00012F069FA00285FD1022084F82E020E207D
:100AC0002870D448007840F00200D2490870D6A1BE
:100AD000204612F03AFA70B1022068700221942088
:100AE00001F011FFD248837842780178D1A013F049
:100AF0001BFA022038E5D8A1204612F026FA70B180
:100B0000012068700121942001F0FDFEC84883781F
:100B100042780178D3A013F007FA012024E5DAA186
:100B2000204612F012FA20B9DAA1204612F00DFA8E
:100B300070B1032068700321942001F0E4FEBC48EA
:100B4000837842780178D6A013F0EEF903200BE504
:100B5000DCA1204612F0F9F970B10520687005217A
:100B6000942001F0D0FEB248837842780178D8A072
:100B700013F0DAF90520F7E40B22DEA1204612F08B
:100B800002FAF0B9217B04F50670DE4A127881542E
:100B9000DC490978405CDC490872DA480078401C7E
:100BA000D84908700720A8700220D84981F866004B
:100BB00084F82E0201200870D5A013F0B5F90720A3
:100BC000D2E41822D6A1204612F0DDF990BB022013
:100BD00084F82E0230220B21D84812F0A3F9002607
:100BE00005E02021C948401C8155701CC6B2642E06
:100BF000F7DB0026B0460AE006F11800215CCF4A78
:100C0000701C1154C6B208F1010000F0FF0806F193
:100C10001800205C222801D00B2EEDDB182601E005
:100C2000701CC6B2A05D0A28FAD14FF00008701CF3
:100C3000C6B20BE013E03046711CCEB2225C4046D7
:100C4000411C01F0FF08B149491C0A54A05D0D2860
:100C5000F1D10120AD4981F86600072084E4072224
:100C6000B7A1204612F08FF9B8B9B7A013F05CF91C
:100C7000022084F82E02B848AFF6AC110A68026070
:100C80004A68426089688160B448407820F00C006E
:100C90000830B2494870112066E40722B0A120460E
:100CA00012F071F9D0BBB0480078022827D0002696
:100CB00008E006F10A00225C9448401C311D4254B1
:100CC000701CC6B206F10A00205C222805D006F18D
:100CD0000A00205C08B1602EEBDB23208B494870B2
:100CE00049218A4881702E21C1702A210171012079
:100CF000864981F8660007209C49887009E004F164
:100D00000A02642140F6530001F096FD0020964946
:100D10000870022084F82E02002025E4FFE70A2252
:100D200093A1204612F02FF9C0B9022084F82E02B8
:100D30001120A8708848AFF2EC310A6802604A6856
:100D400042600A890281897A81728448407820F061
:100D50000C00083081494870112005E4072287A162
:100D6000204612F010F990BB022084F82E020826CB
:100D70004FF0000809E0A05D704901F80800701C00
:100D8000C6B208F1010000F0FF08A05D2228F2D1F0
:100D90000A227C49694812F0F6F830B10B227949F1
:100DA000491E664812F0EFF810B90820A8700CE050
:100DB000694875A1096801606848407820F00C0016
:100DC0000830664948700020A87008201CE4DFE065
:100DD000B8E100002B43475245473A20310000005C
:100DE00061742B636F70733F0D0000002B434752FB
:100DF00045473A20350000005500002043616C6CE7
:100E0000205265616479000043414C4C20524541B9
:100E1000445900000F0000202B4353513A2000009A
:100E20002B434F50533A00005649455454454C000B
:100E3000B4040020253032643A253032643A25303B
:100E400032643A205649455454454C204E657477D7
:100E50006F726B0A0000000056494E4150484F4ED9
:100E600045000000253032643A253032643A25309E
:100E700032643A2056494E4150484F4E45204E6507
:100E800074776F726B0A00004D4F4249464F4E45D2
:100E9000000000004D6F6269666F6E650000000023
:100EA000253032643A253032643A253032643A20B3
:100EB0004D4F424950484F4E45204E6574776F72F2
:100EC0006B0A00004265656C696E6520564E000035
:100ED000253032643A253032643A253032643A2083
:100EE0004265656C696E65204E6574776F726B0A3A
:100EF000000000002B434D54493A2022534D222C30
:100F00000000000060010020DB000020E60C002053
:100F1000534D5320696E636F6D696E670A00000060
:100F20002B434D47523A202252454320554E5245BD
:100F30004144222C222B3834000000005C0C00209D
:100F40002B434D47533A200044656C65746520532C
:100F5000656E74534D530A0024030020980300204B
:100F60002B435553443A2000110000203C0100203F
:100F70004E4F204341525249455200002B434C49A9
:100F8000503A2000770C00206174680D00000000CA
:100F9000F84890F86400022867D10422F6A12046A0
:100FA00011F0F1FF28B10B22F5A1204611F0EBFF63
:100FB000A8BB022084F82E02F4484078102845D1BE
:100FC000002601E0701CC6B2FF2E02DAA05D3A28AE
:100FD000F8D106F10800205C06280AD1701C2118FF
:100FE0004FF40672EA48006800F2392011F088FFD9
:100FF00008E0701C21181122E548006800F2392031
:1010000011F07EFF0120E249096881F83802B4F846
:101010002C02A0F50071163902D0012001E024E075
:101020000020DB49096891F84012062901D101210D
:1010300000E00021084216D00021D548006880F861
:101040004212D348006880F843120CE00C2038703C
:101050000120C84981F8640064222146C54811F086
:101060004FFF2220E87000200AE42078302822DB9D
:10107000207839281FDC607830281CDB607839281C
:1010800019DCA078302816DBA078392813DCE0784A
:10109000302810DBE07839280DDC207930280ADB95
:1010A0002079392807DC22460F2140F20C7001F02C
:1010B000C3FB0020ADE40222AFF22471204611F000
:1010C00062FF20B9022084F82E020620A1E4052246
:1010D000B0A1204611F057FF50B9022084F82E022B
:1010E000AE48006840F00200AC490860132090E46C
:1010F0001222ABA1204611F046FF38B9022084F835
:101100002E02ACA012F010FF132082E41122ACA139
:10111000204611F038FF88B9AEA012F005FF00207C
:10112000AF490870022084F82E0242F210700DF0D0
:10113000E7F90020FEF72AFF09206AE42146A9A06A
:1011400012F0F2FE022084F82E02002061E42DE964
:10115000F04788B0814688464FF0000AA5480078DD
:1011600058B9B9F10D0F08D10020A349088001201A
:10117000A049087008B0BDE8F0879E4800780128B3
:1011800009D1B9F10A0F06D100209B49088002203D
:1011900098490870EEE798480088042825DA9648B0
:1011A00001880088401C944A108008F2212000F831
:1011B000019098F821023E2833D140F2222010F805
:1011C000080020282DD10020114608808949087088
:1011D0003E2088F80000202088F80100002088F8D0
:1011E0000200012088F82E02C4E7834801880088A5
:1011F000401C814A108008F8019010460088B0F524
:10120000067F08D10020114608807A490870012025
:1012100088F82E0205E0002177480088401C08F875
:1012200000107448007802282AD1734800880428E6
:1012300026D1042271A108F2212011F0A4FE28B9C0
:1012400000206D4908806B49087018E098F8210269
:1012500088F8000040F2222010F8080088F8010009
:1012600040F2232010F8080088F802004FF40970BB
:1012700010F8080088F8030003205E49087079E739
:101280005C480078032848D1B9F10A0F1AD15A48AE
:101290000088801E18F800000D2813D10021564840
:1012A0000088401E08F8001053480088801E08F887
:1012B00000100020504908804E490870012088F82D
:1012C0002E0229E04C480088052818D105224DA19E
:1012D000404611F058FE18B90420464908701BE03A
:1012E000052225A1404611F04EFEA8B90020A8F81D
:1012F0002C024649088005203E4908700CE03E4813
:1013000000880D2808D10D2241A1404611F03BFE76
:1013100010B90520374908702CE7364800780428B2
:1013200012D135490988091F01EB0800042233A1B5
:1013300011F029FE40B900202F4908802D4908707E
:10134000012088F82E0215E72A480078052867D181
:10135000B8F82C0268B9B9F13A0F62D02B4801886D
:101360000088401C294A108008F2272000F80190CC
:101370009AE099E0810C00202B4950442C00000099
:101380002B524543454956452C312C001003002073
:10139000300100204552524F520000001C00002036
:1013A0002B4350494E3A204E4F5420494E534552FC
:1013B000544544004E6F2053696D636172640A00A6
:1013C0004E4F524D414C20504F57455220444F579D
:1013D0004E000000504F5745525F444F574E0A0091
:1013E0000F00002023526573706F6E73653A2025DD
:1013F000730A000061010020620100204F4B0D0ABA
:10140000000000002B434D47520000006401002003
:101410002B524543454956452C312C3337000000AB
:1014200056E04FF0000A33E0FE490988491EA1EB5F
:101430000A0012F01CF802460B46CDE9000100201C
:10144000F94913F0A3FACDE9020108F2272111F8B6
:101450000A10A1F1300012F00AF80446DDE9022377
:1014600011F021FF06460F46B8F82C0212F010F8D2
:1014700032463B46CDE9040111F06FFECDE906018D
:1014800012F05FF8A8F82C020AF1010000F0FF0A40
:10149000E44800888245C7DBB8F82C12E148008890
:1014A000801D0844A8F82C02B8F82C02DF490988EE
:1014B00088420DDCB8F82C0250B10020DB490880CE
:1014C000DB490870D7490880012088F82E0251E6D0
:1014D00000BF4FE610B5D74800684078012810D10A
:1014E000D548807808280CD100BFD24800684078E1
:1014F0000128FAD0D1A0FEF728FD0020CE4988703F
:101500000DE0CC4800684078012808D100BFC948E8
:10151000006840780128FAD0CA48FEF716FD10BDD1
:101520002DE9F04704460D464FF0640900260027D8
:10153000B046C5480078072880F03587DFE810F00E
:101540000700EA00CA055D05FC050B07E70594F8EE
:10155000660001287ED16078232817D1A07857280B
:1015600021D0A07852281ED0A07849281BD0A0787E
:10157000432818D00622B5A1601C11F004FD90B1DB
:101580000622B4A1601C11F0FEFC60B10222B3A1DE
:10159000601C11F0F8FC30B10222B1A1601C11F006
:1015A000F2FC00287ED10222ACA1601C11F0EBFC01
:1015B00030B10222AAA1601C11F0E5FC002847D13D
:1015C0001122A11D04F1190011F09AFCE0783128D4
:1015D00006D1A4A00168C4F80110007960710FE081
:1015E000E078322806D1A1A00168C4F80110007982
:1015F000607105E09FA00168C4F801100079607176
:10160000617EA171A17EE171217F2172617F617292
:10161000E17FA1722020015DE17294F82210217314
:1016200094F82310617394F82510A17394F8261090
:10163000E17394F82810217494F8291061742E2114
:10164000A1742A21E174002121758CA012F06CFC98
:10165000062200E05DE07DA1601C11F094FC28B141
:1016600006227CA1601C11F08EFC38B98849601CF0
:1016700006F06EFF05207449087002E001207249EF
:10168000087084484078312812D0834881490A681C
:10169000C0F809204A68C0F80D200989A0F8111087
:1016A000222000E01BE07C49C8740D20087528E06A
:1016B00078484078312824D1774876490A68C0F8BC
:1016C00009204A68C0F80D200A89A0F81120897AFB
:1016D000C1742220704908750D20487511E06F48CB
:1016E0006F490A6802604A684260896881606D4893
:1016F000407820F00C0008306A49487005205249B3
:101700000870002603E02A20A855701CC6B2142ECB
:10171000F9DBEFE32179E078303800EB800001EB72
:101720004000303800F0FF095F4880F80090A07852
:10173000432806D049282AD052283ED0572825D100
:10174000F1E30A2259A1601C11F01DFC40B95A486E
:10175000008828B958480088401C5749088015E07F
:1017600055480088401C54490880084600883228A3
:101770000CD10020344908704F4908802E498870E8
:10178000022084F866004DA0FEF7DFFBEBE34EA1DC
:101790000968C4F85510601C4D490A68C4F85920FE
:1017A0004A68C4F85D200989A4F861101A2184F8F8
:1017B0006410042024490870E8E7032022490870D7
:1017C0005220287541206875E078A8752079E87561
:1017D00040202876B9F1150F23D019DCB9F1150F87
:1017E00078D2DFE819F016017700770077007700EC
:1017F00077007700A9037700C90277007700D0024D
:10180000D702EA02E102F30288037700FB020A032F
:10181000B9F11F0F5FD06BDCA9F116000928DFD2E8
:101820005BE00BE364010020000024406201002023
:1018300061010020200100203C0100206174610D45
:1018400000000000B4000020660100202342442074
:1018500054580000234B542054580000496E000097
:10186000494E000023573430200000002357343104
:1018700020000000234534302000000054726963CA
:10188000682078756174206475206C6965750A003C
:10189000F80B00205C0C0020C50000202403002071
:1018A000D002010898030020670100202343484527
:1018B000434B204143430000680100206174642AC7
:1018C000313031230D0000000D49443A2000000062
:1018D000520C002090E005E30AE0DFE810F0C902B6
:1018E000E3028D00F3028D008D00EB028D00FB0200
:1018F000B9F1220F7ED006DCB9F1200F7BD0B9F10F
:10190000210F79D107E3B9F1320F03D0B9F15B0FA1
:10191000F7D129E24222F849601C11F0F1FA2521A1
:101920002020015584F8251084F82F1084F83310F6
:1019300084F83910F1480068417E84F82310EF489C
:101940000068817E84F82410EC480068C17E84F829
:101950002810EA480068017F84F82910E7480068E9
:10196000417F84F82B10E5480068817F84F82C10B3
:10197000E2480068C17F84F82D10E048006890F8C4
:10198000201084F82E10DD48006890F8291084F8A3
:101990003610DA48006890F82A1084F83710D748D3
:1019A000006890F82B1084F83810D448006890F83C
:1019B0002C1084F83C10D148006890F82D1084F861
:1019C0003D10CE48006890F82E1084F83F10CB48A8
:1019D000006890F82F1084F84010C848006890F80C
:1019E000301084F84110C548006890F8311084F830
:1019F000421002E098E286E2A8E21A2184F843103D
:101A00000420BF4908700C206876012084F8660025
:101A1000A8E2BCA00168C4F8011000796071BB485D
:101A20000078012802D13121A17101E03021A1719A
:101A30000D21E171B6A10A68A2604A68E260097AE4
:101A400021741122B54904F1110011F059FA0D2148
:101A500084F82210532184F823103A2184F82410AA
:101A6000A648006890F83400AD490978884207DA42
:101A7000302184F8251084F8261084F8271022E0FD
:101A80009E48006890F83400642190FBF1F03030FB
:101A900084F825009948006890F834000A2190FBEA
:101AA000F1F090FBF1F201FB1200303084F82600D7
:101AB0009248006890F8340090FBF1F201FB1200AC
:101AC000303084F8270097A10968A1629748006820
:101AD000C08E642190FBF1F0303084F82C009348E4
:101AE0000068C08E0A2190FBF1F090FBF1F201FB3F
:101AF0001200303084F82D008C480068C08E90FBB6
:101B0000F1F201FB1200303084F82E002F2184F80E
:101B10002F1086480068008F642190FBF1F0303070
:101B200084F8300081480068008F0A2190FBF1F0B2
:101B300090FBF1F201FB1200303084F831007B4859
:101B40000068008F90FBF1F201FB1200303084F846
:101B5000320077A10A68C4F83320097984F8371075
:101B6000754800688078012803D1312184F8381045
:101B700002E0302184F8381070A10A68C4F83920D6
:101B8000097984F83D106C4800680079012803D178
:101B9000312184F83E1002E0302184F83E1069A122
:101BA0000A68C4F83F20097984F843106248006845
:101BB000C078012803D1312184F8441002E030219B
:101BC00084F844100A2184F84510462184F8461010
:101BD0003A2184F8471000205C4908804F491E399B
:101BE00091F834000CF0E4FC0007000C5749088021
:101BF0004A491E3991F835000CF0DAFC534909883E
:101C000001EB00205149088044491E3991F84600F3
:101C10000CF0CEFC4D49098801EB00104B490880BF
:101C20003E491E3991F847000CF0C2FC474909882B
:101C300008444649088008460088272190FBF1F0B7
:101C40004249088008460088632808DD312184F86D
:101C50004810302184F8491084F84A1013E03021EC
:101C600084F84810394800880A2190FBF1F03030A0
:101C700084F849003548008890FBF1F201FB12001E
:101C8000303084F84A00252184F84B10601C30A1C4
:101C90000A68E2648988A4F850102F4840790A2124
:101CA00090FBF1F0303084F852002B48407990FBE3
:101CB000F1F201FB1200303084F8530027A10A68CA
:101CC000C4F85D20097984F86110264800788009FD
:101CD00003D1312184F8621002E0302184F86210CF
:101CE0001A2184F863100420054908700C206876D6
:101CF000012084F8660035E18C5402082801002098
:101D0000660100204750533A200000007700002071
:101D10004C61742F6C6F6E3A20000000EF030020BE
:101D2000660000200A446F3A0000000024010020F1
:101D30000A4143433A000000200100200A454E4773
:101D40003A0000000A4149523A00000068010020B0
:101D50000A47534D3A2000003C0100200A53643AE0
:101D6000200000000C0100201222FDA1601C11F0D7
:101D7000C7F812206876F5E0FEA00068C4F80100FC
:101D800012206876EEE0FDA00068C4F80100122081
:101D90006876E7E0FBA00168C4F801108088A4F829
:101DA000050012206876DDE0F8A00168C4F8011093
:101DB0000079607112206876D4E0F6A00168C4F85A
:101DC00001100079607112206876CBE01922F3A12E
:101DD000601C11F095F812206876C3E0F6A0016847
:101DE000C4F801104168C4F805100189A4F809106D
:101DF000807AE07212206876B4E0A079302817DD8E
:101E0000A079382814DAA1792173A079E874EDA0BB
:101E10000168C4F801104168C4F805100189A4F8EC
:101E20000910807AE0723A2161731220687604E02A
:101E3000022068760620E649087093E0A0793028F1
:101E400010DDA07938280DDAA179E173A079E87462
:101E50000E22E0A1601C11F053F83A2121741220E7
:101E6000687604E0022068760620D949087079E097
:101E7000A079302810DDA07938280DDAA1796174B5
:101E8000A079E8741022D7A1601C11F039F83A212A
:101E9000A1741220687604E0022068760620CC49FE
:101EA00008705FE01322D4A1601C11F029F8122001
:101EB000687657E01222D5A1601C11F021F812209B
:101EC00068764FE01122D6A1601C11F019F812209B
:101ED000687647E01422D7A1601C11F011F8122097
:101EE00068763FE01722D9A1601C11F009F8122092
:101EF000687637E02EE21622DAA1601C11F000F8B5
:101F0000122068762EE00F22DCA1601C10F0F8FF92
:101F10001220687626E02B22DCA1601C10F0F0FF76
:101F2000122068761EE01FE02A22E3A1601C10F058
:101F3000E7FF1220687615E0EAA00168C4F80110F6
:101F40008088A4F80500122068760BE0E7A00168FD
:101F5000C4F801104168C4F80510007A60721220BC
:101F6000687600BF00BF46E094F8650018B1022013
:101F70009749087002E00520954908705720287598
:101F800041206875E078A8752079E87540202876AA
:101F9000002660792E2802D1A0792A281CD00BE0D7
:101FA000701D611C085C2E2804D1B01D085C2A2815
:101FB00000D103E0701CC6B2642EF1DB00BF002725
:101FC00008E0781D611C085CC6F1140139446854AE
:101FD000781CC7B2B742F4DB94F8650010B1122048
:101FE000687601E013206876C348007840F08000EE
:101FF000C149087000BF00BFD5E1C0480088401C3F
:10200000BE490880687E0C2843D103E008F1010036
:1020100000F0FF08601C10F8080038B1601C10F8D0
:1020200008003A2802D0B8F1640FEFDB08F1010094
:1020300000F0FF08002616E0A85D2F2802DDA85D4D
:102040003A280BDBA85D402802DDA85D5B2805DB94
:10205000A85D602804DDA85D7A2801DA374604E02F
:102060001427701CC6B2142EE6DB00BFC7F11402A1
:10207000E919631C03EB080010F042FF1A21C7F1B5
:10208000140000EB0802601C8154042050490870C1
:1020900005E0687E0E2802D104204D49087097485B
:1020A000008841F27071884213DB00209349088058
:1020B000934894490A6802604A684260896881606E
:1020C0009148407820F00C008F4948700520404925
:1020D000087068E188480078C009012806D14F21BE
:1020E000A1714B21E1711A2121720BE04521A171EF
:1020F0005221E17121724F2161725221A1721A2184
:10210000E17200BF00BF0420314908704BE1452156
:10211000A1715221E17121724F2161725221A1728C
:102120002021E172552121734B2161731A21A17382
:1021300004202749087036E170480088401C6F4928
:10214000088071484078C0F3010038B96E48407883
:1021500020F00300801C6C494870D7E0DCE00000F0
:102160004669726D776172652056657273696F6E2C
:102170003A20000049443A200000000049503A202B
:1021800000000000504F52543A200000424B533A96
:102190002000000056494E3A2000000056616E2093
:1021A000746F632067696F692068616E20284B6DCA
:1021B0002F68293A20000000536F206C6169207855
:1021C000653A200054656E206C61692078652000B6
:1021D00066010020494420637561206C61692078A4
:1021E0006520000047504C5820637561206C616980
:1021F00020786520000000004750525320696E741B
:10220000657276616C202873293A2000536F20781C
:10221000756E67207472656E20314B6D3A20000038
:10222000536F204454207472756E672074616D3A48
:1022300020000000476961207472692078756E671C
:1022400020636875616E3A200000000047696120D4
:102250007472692076616E20746F632063687561A3
:102260006E3A20004D7563206C6F6769632063755B
:102270006120437561206D6F3A200000436865203E
:10228000646F20746F6320646F3A200047696F6940
:102290002068616E2074686F69206769616E206CC8
:1022A0006169207865206C69656E207475632028EB
:1022B00070687574293A200047696F692068616EFB
:1022C00020742F6769616E206C61692078652074C5
