:020000040800F2
:10C80000987F0020CDC80008BD4C0208F1C4030881
:10C810000000000000000000000000000000000018
:10C820000000000000000000000000003DC60208FB
:10C830000000000000000000F55D0208C9F50208D4
:10C84000FDC8000800000000FDC80008FDC8000881
:10C85000FDC80008FDC80008FDC80008FDC80008A4
:10C8600000000000FDC80008356B0108FDC8000885
:10C87000FDC80008FDC80008B52D03080000000031
:10C88000FDC80008212E03087D2E0308FDC80008FE
:10C89000F12C0308592D0308FDC80008F9170208F8
:10C8A000FDC80008FDC80008FDC800081D5D03089C
:10C8B000455D03086D5D03080348854601F00CF8EB
:10C8C0000048004799CD0308987F00200C4880F36A
:10C8D00008880C480168090E0B4A914205D10B48A3
:10C8E0000B4901600B480C4901600C4880470C481B
:10C8F0000047FEE7FEE7FEE7FEE7FEE7FEE7000093
:10C90000987F0020040000001F0000001810024063
:10C9100001000000000001400000000075F6020860
:10C92000B9C8000830B50B4601460020202201247A
:10C9300009E00D46D5409D4205D31D469540491B53
:10C940002546954040191546521E002DF1DC30BD9C
:10C9500070B500242546002801DA01244042002950
:10C9600001DA01254942FFF7DDFFAC4200D0404229
:10C97000002C00D0494270BD10B5202A04DB0846C7
:10C98000203AD040002110BD0B46D340D040202497
:10C99000A21A91400843194610BD01466139192970
:10C9A00000D820387047000070B5194C00683C2151
:10C9B000FFF7B8FF21603C21FFF7B4FF6160182149
:10C9C000FFF7B0FF0546A1600721001DFFF7AAFF92
:10C9D000A1611048A90008180F49FFF7A3FF4430D0
:10C9E00060618808E0613B2803D3217D890700D07E
:10C9F000401C0021094B0A462161995C814203D801
:10CA0000401A521C2261F8E7401CE060204670BDCD
:10CA10006C7200206C0B0000B5050000F8D803080C
:10CA200003460B439B0703D009E008C9121F08C047
:10CA3000042AFAD203E00B780370401C491C521EF2
:10CA4000F9D27047D2B201E00270401C491EFBD2FD
:10CA500070470022F6E710B513460A460446194609
:10CA6000FFF7F0FF204610BD30B505462A460B46BD
:10CA700010781C78521C5B1C002801D0A042F7D013
:10CA8000002C03D0002802D06D1CEFE7284630BDF3
:10CA9000421C0178401C0029FBD1801A704730B538
:10CAA00004460020034600E05B1C934203D2E05C96
:10CAB000CD5C401BF8D030BD30B5054600200346A4
:10CAC00000E05B1C934205D2EC5CC85C201A01D1EB
:10CAD000002CF6D130BD000070B5104D002800D1FB
:10CAE0002868002414E00A4602E09E4203D0521C4B
:10CAF0001378002BF9D1DAB2224307D0002B06D0ED
:10CB0000002C04D000210170401C04E00446401CAD
:10CB10000678002EE7D12860204670BD900C0020DA
:10CB200030B50546002008E00A4602E0A34207D0DF
:10CB3000521C1378002BF9D1401C2C5C002CF3D133
:10CB400030BD00000FB400B58DB009900B9010A956
:10CB500000200091C0430A9000200C9006480690E7
:10CB6000064807906A4609A80F9900F0A1FC0DB08D
:10CB700008BC04B018470000D1D40008F1D4000864
:10CB8000FFB50027FF4383B000205C6801909E68DA
:10CB90001D46A9697F1C049888470090296A884728
:10CBA0000028F6D10098401C0CD00320400284439A
:10CBB000002E19DD600614D500982B2809D02D28E9
:10CBC0000FD103E00020C04307B0F0BD0120800278
:10CBD0000443A9697F1C04988847761E0090002EA4
:10CBE00002DD0098302803D00598002825D035E0D4
:10CBF000012040020443A969761E7F1C04988847DF
:10CC00000090002E03DD782805D0582803D0059821
:10CC1000002810D022E00598002801D010281DD14E
:10CC2000012040028443A969761E7F1C049888472E
:10CC30000090102002E0082000E00A2005900DE09E
:10CC4000012149020C43059A0199761E51430818A7
:10CC50000190A9697F1C049888470090002E05DD8B
:10CC60000599009800F00FFC0028E9DAE9690498BA
:10CC70008847A00502D40120C043A5E7E00722D1E0
:10CC8000600611D56005019800D5404229680A1D4B
:10CC90002A600968220501D5087014E0220701D531
:10CCA000088010E008600EE02868011D2960006817
:10CCB000210502D50199017005E02107019901D5EF
:10CCC000018000E0016038467EE70000F7B5009C77
:10CCD0000F4600262578641C002D05D000F0C6FB09
:10CCE0000068405DC007F5D12B2D02D02D2D18D046
:10CCF000641E39462046029A00F00CFC002F04D036
:10CD00003968A14201D100993960710502240029D6
:10CD10000BDA4042002803DD2EF07CF90460A00706
:10CD2000FEBD012080020643E3E70028F8DA2EF07A
:10CD300071F904600048FEBDFFFFFF7F70B5064635
:10CD40002EF068F9046805460A2200213046FFF7F4
:10CD5000BDFF2C6070BDF8B502464A40D40F4200BA
:10CD60004B0052085B089A4202D20246084611461E
:10CD70004A0023D0C30D4A00DDB2120EAD1A202D99
:10CD800035DA49020126490AF6058A19002C00D035
:10CD9000524220214F1B1146B9402A411018C20DA2
:10CDA0009A4221D0002C17D0012D08DCDA05801A18
:10CDB000D20F8019D207DBB200F05AFCF8BDDA05B9
:10CDC000801A012340001B06C01880185A428018A0
:10CDD000CA0F1043490007E04908C2071143DA05AA
:10CDE000801A80194008801800F03AFCF8BD6100F4
:10CDF0000122511A001BF7E70122D2075140AAE78E
:10CE00000122D2075040A6E7024670B54A40D30F30
:10CE1000DB0740002DD04A002AD0010E140E00027C
:10CE200012020919400A520A8418E50104465443C3
:10CE3000000A120A2E045043A4194219200CC543BB
:10CE4000AA18120C0125AD03521C521912047F3985
:10CE5000240400D0521C104301D44000491EC2B229
:10CE60000C06C0092018401C4008802A02D003E0AC
:10CE7000002070BD40084000002900DA002018435F
:10CE800070BD70B502464A40D50F40004A00ED071C
:10CE900040085208002814D0002A12D0C40DD30D27
:10CEA00041020120C0055202490A520AE41A091837
:10CEB00012187D34914201D3641C00E04900002C1B
:10CEC00001DA002070BD0023914201D3891A034387
:10CED000400849000028F7D100290AD0914202D128
:10CEE0000121C90705E0914201D2012101E00121A0
:10CEF000C943E005C018401900F0B2FB70BD420004
:10CF000005D04200120E52428A4201DB00207047D7
:10CF1000C905081870470000F0B507460846584094
:10CF200087B0C00F049048000E46590040084908D9
:10CF3000BC1A884105D2384631461E4617460B4674
:10CF400002465800400810434CD0300D0390400575
:10CF50005900400D490D0590401A0290402872DAA0
:10CF600018030121000B0905084301900498009261
:10CF7000002805D00199524200208841009201907A
:10CF8000029840210A1A0199009800F04BFA0546D0
:10CF90000C466B4607CB00F055FAC0197141039A55
:10CFA0000E0D0023D71756401A467A40164344D038
:10CFB000049A002A2DD0029A012A039A15DC120540
:10CFC000C01A914101263605001C7141D20F059E01
:10CFD000D2070093019202962A46234600F08EFB68
:10CFE00007B0F0BD38463146FAE71605224A0F462B
:10CFF000B218C01AB74101210905001C4F410018A1
:10D000007F41114618187941E20F10436D196441B0
:10D0100013E0E2076D0815436408C2071443039A3E
:10D0200001261205C01A91413605001C7141CE0738
:10D03000400830434908C01851412A46234600F0B1
:10D0400050FBCDE7FFE7049801224000C117121AF8
:10D0500000238B4104983146C417381AA141EEE7EA
:10D0600030B40124E407634030BC55E730B40124F8
:10D07000E407614030BC4FE70000E0FFF0B51FB4AB
:10D0800088B00B990998002448400999C00F4900BD
:10D0900049080991C0070B990090490049080B9174
:10D0A00009990898A64608431CD00B990A9808438A
:10D0B00018D0099801244000420D4800410D0998FC
:10D0C00024050003000B204309900B980003000B7C
:10D0D00020430B9050181C49401800220190144620
:10D0E000104605E0002001460DB0F0BD032801DA2E
:10D0F000034600E003239C46C11A0AAE0AE05F0023
:10D1000008ADED5B4F00F75B7D430027AA187C411B
:10D11000491C5B1E6145F2DD410004AB5A522104FB
:10D12000120C0A43240C401C0828DFDB01980290F3
:10D130000099704601910090059B049A0799069802
:10D1400000F0DCFAD0E700000DFCFFFFF0B50C4664
:10D150005C4085B0E40FE40703944C0000266408AB
:10D1600059009446490802460296224321D062465D
:10D170000A431ED06200570D4A000E032303550DCB
:10D18000012402462C492405781B1B0B360B401842
:10D1900023432643614600901C46501AB44103D3F2
:10D1A0000098401C009002E0921800985B41002813
:10D1B00003DA0020014605B0F0BD00200121090579
:10D1C0000746864611E064461D46141BB54106D34A
:10D1D0006546521BB341744607430C43A646CD0730
:10D1E00040084908284392185B4105460D43EAD19F
:10D1F0001046184313D0604619465040714008430A
:10D2000006D06046101AB34106D20122002306E080
:10D2100000220123DB0702E00122D24353100098D1
:10D2200074460105381C6141029C039D0019694147
:10D2300000F057FABFE70000FD030000C217C10F5E
:10D24000504010B54018CA079623002100F010FA8C
:10D2500010BD10B500229623114600F009FA10BD4A
:10D260000EB505490291002100910A460B46019135
:10D2700000F044FA03B000BD33040000C20F4100C7
:10D2800040020123400ADB05D207090EC0187F299E
:10D2900001DA00207047962903DC9623591AC8400A
:10D2A00001E096398840002AF4D04042704741009E
:10D2B00040020122400AD205090E80187F2901DAB6
:10D2C00000207047962903DC9622511AC840704707
:10D2D00096398840704700004A0009030123090B72
:10D2E0001B051943094B10B5520D9A4201DA002073
:10D2F00010BD064B34339A4203DC9A1AFFF73CFB0D
:10D3000010BD03495118884010BD0000FF03000004
:10D31000CDFBFFFFC20FD207400040080BD0C10D6C
:10D320000723DB01C91840020905400A1143C2085E
:10D3300040071143704700200146704710B500298F
:10D3400004DB0124E40740428C412146002B04DB2E
:10D350001C460123DB075242A3418B4200D182428B
:10D3600010BD0000CB0FDB07490010B5490802468D
:10D370000A4307D00A0D07240903E401090B121B15
:10D38000002A01DC002010BDC900440F0C43C1007D
:10D39000E018D205801800F063F910BD0122D20711
:10D3A000002800DB101A002900DB511A8142704767
:10D3B0000122D207002800DB101A002900DB511AD5
:10D3C00088427047F0B51FB40646002082B005467B
:10D3D0004024019100901BE0019922460F463046FF
:10D3E000FFF7CAFA049A059B801A994110D3104698
:10D3F0001946224600F016F8361A8F410197224648
:10D4000001200021009F00F00DF838184D410090D8
:10D410002046641E0028DFDC019B00982946324626
:10D4200007B0F0BD10B5202A04DB0146203A914038
:10D43000002010BD914020239C1A0346E34019436D
:10D44000904010BD10B5202A06DBCB170846203AC5
:10D450001041C1170B4306E00B461341D040202476
:10D46000A21A91400843194610BD000000487047B9
:10D4700088D9030810B50446FFF7F8FF0068005D7F
:10D48000C007C00F10BD3A2800D230382023024612
:10D490009A43412A01D310463738884201D30020ED
:10D4A000C0437047026813785118016018467047EE
:10D4B00010B5D16004495161044911620021116124
:10D4C000114600F01BFA10BDA5D4000875D4000861
:10D4D0004268002A08D001680B78491C002B03D051
:10D4E000521E06C0184670470121C160881E704751
:10D4F0004268002A0BD0C3680168002B07D18368FB
:10D500008B4204D0491E521C06C0002070470020E8
:10D51000C0437047F7B582B0029C00272078641C96
:10D5200015460197302802D0002D15D015E020783F
:10D530000127641C782804D0582802D0002D09D077
:10D540000BE0002D01D0102D07D1002710252078E9
:10D55000641C02E0082500E00A250026009610E081
:10D560000099012769430818020C294680B27143CB
:10D5700000908E183804864201D301200190207853
:10D58000641C2946FFF77FFF0028E9DA039800288A
:10D5900005D0002F01D0641E00E0029C04600198B9
:10D5A000002806D02DF036FD02210160C81E05B00E
:10D5B000F0BD009930040843F9E700000FB400B54E
:10D5C00089B00CA900910B990023CB60204B214A14
:10D5D00006930792042201921F4A02921F4A089260
:10D5E00002466B46002000F0A0FB09B008BC04B066
:10D5F000184770B586B006460020C0430190002051
:10D6000015460C460091029104903246694604A8E2
:10D61000FFF7D4FF034604982118002D05D00028F9
:10D6200001D00A4600E022462A6000280DD0002BD7
:10D6300002DD0098884208D0081B01900094324611
:10D640006946029404A8FFF7B9FF06B070BD000058
:10D65000D1D40008F1D40008FFFFFF7F75D4000883
:10D66000002904DA401C490001D1400840007047FD
:10D6700070B40024050C05D11024000402D1002947
:10D6800021D01124050E01D100020834050F01D16B
:10D690000001241D850F01D18000A41C002801DB9E
:10D6A0004000641C002908D020252E1B0D46F540A3
:10D6B000A14000D001212943084301061B1B000A99
:10D6C000DB1D02D5002070BC7047DB0518188018E0
:10D6D0000029F8DA401C4900F5D170BC4008400030
:10D6E000704710B5002B08DA0024401C61419218E5
:10D6F0005B411A4301D14008400010BDF0B51FB492
:10D7000082B005460C0003D008462DF049FC02E02B
:10D710002DF046FC20300246009021462846FFF7B7
:10D7200081FE049B059A04460F46184311430843A3
:10D7300014D0184610431BD0009840210A1A1846EE
:10D740000599FFF719F905460E46009A05990498C0
:10D75000FFF768FE084305D0012004E02046394663
:10D7600007B0F0BD0020C11705430E432C433743DB
:10D7700000990E986305401A7905E40A00220C43CB
:10D78000FD0A0A3002D500200146E9E7010510191B
:10D7900069410C9C0D9D00196941FFF7A2FFDFE76D
:10D7A00070B54B005B0803430BD04B005C0D0026AB
:10D7B00033466542B341D417AD1AA34102DB0020C2
:10D7C000014670BD12053018514170BDFEB50023F1
:10D7D0001A461B1A8A4103DB0020014603B0F0BD44
:10D7E0004A000D0301212D0B0905520D0D43D107F0
:10D7F00002D100186D41521E5110FF31FF3101312D
:10D80000002704463E463846009701910246012112
:10D8100000200905FFF7B0F8C3197141F818324626
:10D8200084468E464A4161462846611A904104D397
:10D830006046241A954176461F46241900986D418A
:10D84000401C00903428E1DDF91930467041091B75
:10D85000A84103D20022D243134601E0002213461E
:10D8600001980105381C7141FFF73BFFB6E7000046
:10D870004A0009030123090B1B0519430A4B10B584
:10D88000520D9A4202DA0020014610BD064B343395
:10D890009A4203DC9A1AFFF76FF810BD034BD218B7
:10D8A000FFF7C0FD10BD0000FF030000CDFBFFFF30
:10D8B00010B5002904DB0124E40740428C412146D5
:10D8C000002B04DB1C460123DB075242A341994293
:10D8D00000D1904210BD0000064C0125064E05E027
:10D8E000E36807CC2B430C3C98471034B442F7D381
:10D8F000FEF7E6FF88F70308A8F70308F3B58DB035
:10D9000000200A9001200B90002608460C300C469F
:10D910000990626901210998904705002ED0252DB4
:10D920002DD0216A8847002818D062690121099802
:10D930009047216A88470028F7D1411E62690998FB
:10D94000904700E0761CA1690D988847216A8847B6
:10D950000028F7D1E1690D988847DAE7A1690D98A9
:10D9600088470746A84201D1761CD2E7E1690D98A5
:10D9700088477F1C02D10A98002877D049E1002708
:10D9800062693D463946099890472A280CD1626958
:10D99000012109989047012506E00A214F433F18CD
:10D9A000303FEBD41020054362690121099890476C
:10D9B000014630390A2903D29B498F42DEDCECE76D
:10D9C000E90600D4994F6C280AD04C2810D068285A
:10D9D00024D06A282ED074280CD07A280AD00DE0E2
:10D9E00062690121099890476C2823D004211CE02A
:10D9F000202005436269012109989047A76065606E
:10DA000065284FD026DC582839D01ADC452849D063
:10DA100012DC252834D04128B0D143E062690121CD
:10DA200009989047682802D008210D43E6E70120B5
:10DA3000C002DEE70220DCE7462833D047282CD19D
:10DA400030E05B2870D061282CD063286CD064282B
:10DA500023D161E06F284FD009DC662822D06728E7
:10DA600020D0692826D06E2817D12EE0CDE070286E
:10DA70004DD073286FD075284ED078280DD154E042
:10DA8000A1690D9888470546252800D16CE7E16912
:10DA90000D9888476D1C00D16DE7BAE00A224CE072
:10DAA0000A2252E0012023466A46C0430D9900F045
:10DAB0003CF9A3E02846402108436060A8072346BC
:10DAC00001D5002239E000223FE0E80700D020E73E
:10DAD0002068011D21600068290501D5067018E73E
:10DAE000290701D5068014E7A90703D5F1170660B9
:10DAF00041600EE706600CE728464021084360605D
:10DB0000A807234601D5082217E008221DE048494E
:10DB100028460840606016E02846402108436060BF
:10DB2000A8072346BCD5B9E715E02846402108439D
:10DB30006060A80707D5234610220120C0430D9935
:10DB4000C046C0465AE0234610220120C0430D992A
:10DB5000FFF716F852E000210C910B460091632864
:10DB600002D05B2807D043E0E80601D40120A06082
:10DB7000012000903CE062690121099890475E28ED
:10DB800005D101200C9001466269099890472169EE
:10DB9000002906D10B4601AA8F00491CD351082940
:10DBA000FADB002835D0216900290ED1C117C90E32
:10DBB00009184A11930001AA9A1849094901411A02
:10DBC00001201368884003431360626901210998AA
:10DBD00090475D28E5D10C98002808D0002001ABC3
:10DBE00081005A58401CD2435A500828F8DB01AB38
:10DBF00001202246C0430D99C046C04600280ADADB
:10DC0000401C06D10B98002803D00020C0430FB061
:10DC1000F0BD0A98FBE7E90702D10A99491C0A916D
:10DC2000361800200B9074E6CCCCCC0CFFFFFF7FA5
:10DC3000F1F7FFFFFFB5087885B01546FF2805D03E
:10DC4000491C2D2804D00022002407E000240BE00A
:10DC50000122F9E70A235C430419491C0878FF28CC
:10DC6000F8D1002A00D06442002001902A780146B1
:10DC70002D2A01D02B2A04D16D1C2D2A0DD0002273
:10DC8000019200262F78FF2F09D00A2200236D1C55
:10DC900000F076F938187141F4E70122F0E7089AAC
:10DCA000A218039202460A430DD00024B24AB14D95
:10DCB0002646009200F0A2F90490039802910028F1
:10DCC00007DA47421AE0002105980A4606C009B063
:10DCD000F0BD074612E0F80707D022462B46304633
:10DCE0000099FFF7CBF90646009122462B461046D5
:10DCF0001946FFF7C3F904460D467F10002FEAD1FD
:10DD00000398009B002802990498324602DAFFF734
:10DD10001DFA01E0FFF7B2F9019A002A02D00122B0
:10DD2000D2075140059A03C2D1E7FFB591B0002058
:10DD300009900025ED432E209E685C681F460190E7
:10DD4000B9696D1C129888470090396A8847002885
:10DD5000F6D10098401C0AD00D20C0018443002E4B
:10DD600012DD00982B2809D02D280DD103E00020CA
:10DD7000C04315B0F0BD012080020443B9696D1C99
:10DD800012988847761E009003A9600501D52D20C2
:10DD900000E02B206A461073491C0CA80F910290DA
:10DDA0000AE0B9696D1C1298884700900120400272
:10DDB00004431398761E0560002E02DD009830287B
:10DDC000EFD001990098884246D18020044308E0B2
:10DDD0000998401E09900120400204431399681CD1
:10DDE0000860B9696D1C761E12988847009030282B
:10DDF000EED031E00199884205D1200603D480207D
:10DE00000443761E1EE000982DF036FA002826D036
:10DE100001204002044307A90F980331761E88426F
:10DE20000BD200980F99303808700F98401C0F9053
:10DE3000200607D50998401E03E0200602D4099861
:10DE4000401C0990A00502D51399681C0860B969A7
:10DE50006D1C129888470090002ECBDC59E0002EF4
:10DE600057DD0098652801D0452852D1A00550D52E
:10DE7000032000028443B9696D1C761E12988847FE
:10DE80000090002E0CDD2B2804D02D2808D1FF2077
:10DE900001300443B9696D1C12988847761E0090C2
:10DEA000E00501D52D2100E02B2102980170029898
:10DEB000401C0290019025E00120400204430EA97D
:10DEC00002980131761E88420ED2009802993038AD
:10DED0000006000E087003D10299019881420AD908
:10DEE0000298401C029006E0E00501D5234801E0BD
:10DEF000224840420990B9696D1C129888470090E9
:10DF000013980560002E04DD00982DF0B5F9002867
:10DF1000D2D1F969129888470F99FF2008700299A9
:10DF200003AA087000200A900B900CA90AA8099B6C
:10DF3000FFF780FEA00502D40120C04319E724208A
:10DF4000044209D0E00713D138680B9A0A99031DDF
:10DF50003B60006806C00BE00B990A98FFF702FAD5
:10DF60000146E00704D13868021D3A60006801608C
:10DF70002846FEE6000024400000F03FF1D8FFFFF5
:10DF8000F0B51FB486B00020009001900290069872
:10DF9000069980B204900798090C020400141143FA
:10DFA00007900027089D099806913E463C4603903D
:10DFB0000398A9B20204000C039004982D0C154399
:10DFC000484300212246FFF72DFAC719714110344A
:10DFD0000E46402CECDB3846029AFFF723FA009AF3
:10DFE000019B8018009059410298019110300290D5
:10DFF0004028CCDB00980BB0F0BD00000EB5054A00
:10E0000002920022009213460192FFF777FB03B0C1
:10E0100000BD00003304000070B58C180578401C6A
:10E020006B075B0F01D10378401C2A1106D10278DF
:10E03000401C03E006780E70401C491C5B1EF9D1A1
:10E040002B0705D40023521E0DD40B70491CFAE790
:10E050000378401CCB1A921C03E01D780D70491CFC
:10E060005B1C521EF9D5A142D8D3002070BD000020
:10E07000F1B5C2B014212AA8FEF7EBFC14212FA899
:10E08000FEF7E7FCFE4C002520690146FEF7BCFECA
:10E090000646E0680146FEF7B7FE3146FEF75BFE36
:10E0A000FFF738F92FF032F90091A7680646384695
:10E0B000FFF730F93246009BFFF748F82DF086FC59
:10E0C000F04AF14BFEF7DAFFFFF74CF90B902069AD
:10E0D0000146FEF799FE064639460846FEF794FECD
:10E0E0003146FEF738FEFFF715F92FF00FF90290D1
:10E0F000E7680E463846FFF70DF93346029AFFF7F8
:10E1000025F82DF063FCDF4ADF4BFEF7B7FFFFF782
:10E1100029F90A902069FFF7FDF80E46394602906A
:10E120000846FEF771FE0746A0680146FEF76CFE42
:10E130003946FEF710FEFFF7EDF82FF0E7F833460B
:10E14000029AFFF703F82DF041FCCE4ACE4BFEF7C2
:10E1500095FFFFF707F9CD4C0990A078E0702046B5
:10E160000C30017842782AAE89188278C07810186D
:10E170000818C7B2E07805210490FEF7D3FBC04829
:10E180008900E0380818C26BA8003250BC4A6D1CE8
:10E19000903A8918C96B2FAA11500498EDB2401C0F
:10E1A000E070052DE6D34298B94D00287ED0339813
:10E1B000FFF7B0F8064607913298FFF7ABF80690E4
:10E1C00005913198FFF7A6F804900C913098FFF76D
:10E1D000A1F8029003912F98FFF79CF800900D9101
:10E1E0002E98FFF797F80F910E902D98FFF792F861
:10E1F000109011912C98FFF78DF8129013912B9895
:10E20000FFF788F8149015912A98FFF783F8169075
:10E2100017910998FFF77EF8349009910A98FFF753
:10E2200079F80A9035910B98FFF774F80B913690B6
:10E230007D21C9006069FEF775FB4190E868406880
:10E24000FFF768F88E4D379138906869FFF762F8EC
:10E2500039913A902869FFF75DF83B913C90E86866
:10E26000FFF758F83D913E90A868FFF753F8079BD9
:10E270002993069B02462896059826930C9B259386
:10E280002790039B049823932490029822900D9B3F
:10E290000098219320900F9B0E981F931E90119B26
:10E2A00010981D931C90139B129800E041E01A9067
:10E2B0001B931498159B18901993099B15933498E8
:10E2C000359B149013930A9812900B9B36981090DC
:10E2D000419811930E90389B37980C930D906B4892
:10E2E0006A4B1C301833C078DB7825690893099095
:10E2F0000B953A9B39980A97069307903C9B3B985D
:10E3000005903E98049302903D9B5D4803930092D4
:10E3100001912038037F2A2B7CD0332B7BD05DA248
:10E32000614942982CF028FEA0680A21484343B076
:10E33000F0BD2069009052482038037F2A2B6BD013
:10E34000332B6AD053A21D21415658A02CF004FE55
:10E350004B4E042302220021F35EB25E715E5CA08C
:10E360002CF0FAFDE8684068FEF7D4FF05910490B0
:10E370007069FEF7CFFF054603913069FEF7CAFFCB
:10E380000D911090F068FEF7C5FF00910C90B068F9
:10E39000FEF7C0FF0B4605990791024608970498BF
:10E3A0000399069005910D99109803910290009998
:10E3B0000C980090049501914BA02CF0CDFD3546B2
:10E3C000303DE868FEF7A6FF06460591A868FEF70F
:10E3D000A1FF074603916868FEF79CFF019100903A
:10E3E0002868FEF797FF02460B464BA0029704965B
:10E3F0002CF0B2FD0998FEF78DFF074603910A98AD
:10E40000FEF788FF05460E460B98FEF783FF0B4686
:10E41000024603E0E3E0E4E0DDE0DEE06946E0C17F
:10E4200047A02CF099FD19481C30C278001FC17814
:10E430004AA02CF091FD3398FEF76CFF0A900B91E7
:10E440003298FEF767FF08900F463198FEF762FF9B
:10E45000064607913098FEF75DFF049005912F98CE
:10E46000FEF758FF054603912E98FEF753FF0090E4
:10E4700001912D98FEF74EFF139112902C9877E0A2
:10E48000B81D0020D28C45D3D9A54C4034070020BC
:10E49000C4560020414343454C45524F5F4C4953BD
:10E4A000334453480000000068E803085374617463
:10E4B00075733A202564284920616D2025735B25FA
:10E4C000785D292C2072756E3A25640A00000000E0
:10E4D000436F756E74203A253564202025356420FD
:10E4E000202535640A000000416363656C653A25A8
:10E4F000312E3366202025312E3366202025312E03
:10E500003366202D3E2025312E33665B25312E3398
:10E51000665D5B25645D0A002020202020203A25CE
:10E52000312E3366202025312E3366202025312ED2
:10E530003366202D3E2025312E33660A0000000070
:10E5400054696C7420203A25332E316620202533FF
:10E550002E3166202025332E31660A0057696E64FD
:10E560006F773A256420636E742025640A000000EA
:10E57000FEF7D0FE149015912B98FEF7CBFE169067
:10E5800017912A98FEF7C6FE0B9B0A9A10921193D8
:10E59000089A0E920F97079A059B0D92049A0A9279
:10E5A000039A0B930992019B0C96009A079306928B
:10E5B000139B0895129A05930492149A159B029244
:10E5C0000393169A179B0092019302460B46064846
:10E5D0002CF0C2FCA8E605A2B5E609A2B3E60CA29F
:10E5E0009EE607A29CE6000014E803084143434569
:10E5F0004C45524F5F4D4D4138343532510000008B
:10E60000414343454C45524F5F4C495333444800C6
:10E610004D4D41383435325100000000F8B5144DED
:10E62000144E6878002481007350182801D2401CD1
:10E630001CE0114801680B790168CA78006881788C
:10E640000EA02CF089FCA700F059FEF763FE0246ED
:10E650000B4610A02CF080FC0020641CE4B2F051AA
:10E66000192CF0D30DA02CF077FC00206870F8BDB9
:10E6700034070020D01D0020C456002023416363CE
:10E680006D657465722C2530326425303264253016
:10E69000326400002C25312E336600000A00000091
:10E6A000836A0B438362426170470029816801D00D
:10E6B000012200E002221143816070470029C168F5
:10E6C00002D00122114301E049084900C1607047AE
:10E6D000C26802239A43C260C2680A43C26070479C
:10E6E000826800210123DB071A4382600F231B038A
:10E6F0008268491CD20FD207994201D0002AF7D173
:10E700008168002901DB006C7047002070470246D9
:10E710000020CB0104D5926801231B069A4300E038
:10E7200012680A4200D001207047000030B5C3686B
:10E73000084A8C6813400A680D792243CC686D033F
:10E740002C4322430C69496922430A431A43C2609D
:10E7500030BD000003D2FFFF8168042211438160B5
:10E7600070470021016001718160C16001614161F8
:10E770007047000001220549D2050028886801D0B1
:10E78000104300E09043886070470000002701407C
:10E790000122054992050028886801D0104300E055
:10E7A00090438860704700000027014070B50D4617
:10E7B00009780024012900D00524572806D077289D
:10E7C00004D0522870D07228FCD078E0288A08281B
:10E7D00075D9A869042279A1401DFEF76DF90028BA
:10E7E000784EA86927D0042277A1401DFEF764F96E
:10E7F0000028A86933D0042275A1401DFEF75CF9FA
:10E800000028A86935D0042273A1401DFEF754F9F1
:10E810000028A8693BD0042271A1401DFEF74CF9E5
:10E820000028A86938D005226FA1401DFEF744F9E1
:10E8300000283CD043E0407A2D2804D02B2804D077
:10E84000782804D03BE06AA202E06AA200E06AA253
:10E8500002213368622098472C82622070BD407A82
:10E860002D2802D02B2802D029E064A2F0E764A270
:10E87000EEE7407A2D2804D02B2804D0782804D045
:10E880001DE060A2E4E760A2E2E760A2E0E7407A70
:10E890002B2814D15EA2DBE7407A2D2802D02B284A
:10E8A00003D00CE05BA2D3E711E05BA2D0E7A8693C
:10E8B000807A2B2805D02D2805D0782805D0002077
:10E8C00070BD56A2C4E756A2C2E756A2C0E7A86927
:10E8D000554B021902211B6862209847A869015D07
:10E8E00042290CD0532919D0412926D0492933D0A7
:10E8F00045293BD0442948D000194CA150E0611C67
:10E90000415C2D2904D02B2905D000194AA147E0EC
:10E9100000194BA144E000194BA141E0611C415C8E
:10E920002D2904D02B2905D0001949A138E0001960
:10E9300049A135E000194AA132E0611C415C2D2952
:10E9400004D02B2905D0001947A129E0001948A1BE
:10E9500026E0001948A123E0611C415C2B2902D06C
:10E96000001947A11CE0001947A119E0611C415C96
:10E970002D2904D02B2905D0001945A110E000193C
:10E9800045A10DE0001946A10AE0611C415C2B295C
:10E9900004D02D290ED0001943A101E0001944A193
:10E9A0002CF0EAFAA8690019FEF772F8001928821B
:10E9B000012070BD001940A1F2E7000062656E3AC7
:10E9C0000000000088020020736F733A000000000E
:10E9D0006169723A0000000069676E3A0000000049
:10E9E000656E673A00000000646F6F723A000000C5
:10E9F000422D0000422B000042780000532D000001
:10EA0000532B0000412D0000412B000041780000F5
:10EA1000492B0000452D0000452B0000442B000031
:10EA2000442D00004478000090020020414C542DF9
:10EA3000494F3A580000000062656E3A58000000E5
:10EA400062656E3A2D00000062656E3A2B00000090
:10EA5000736F733A58000000736F733A2D00000013
:10EA6000736F733A2B0000006169723A580000001E
:10EA70006169723A2D0000006169723A2B00000052
:10EA800069676E3A5800000069676E3A2B00000013
:10EA9000656E673A58000000656E673A2D00000009
:10EAA000656E673A2B000000646F6F723A58000081
:10EAB000646F6F723A2B0000646F6F723A2D000022
:10EAC00070B5FF26CE360C46572806D0772804D0DE
:10EAD000522823D0722821D02FE0208A07282CD951
:10EAE000174DA869406A1421FDF7B3FFA869426A6F
:10EAF000144D14212B6830469847228AA0690021C2
:10EB0000801820388177218AA269C91F2B68304676
:10EB1000521D984705202082304670BD0A4BA269DD
:10EB200014211B683046521D9847A069401DFDF70F
:10EB3000AFFF401D2082012070BD002070BD00008D
:10EB4000540A0020880200209002002070B5204D59
:10EB50000C46572806D0772804D0522826D0722891
:10EB600024D032E0208A07282FD91A4EB069406A93
:10EB700014211530FDF76DFFB069426A2E46284614
:10EB8000154D14212B6815329847228AA06900215F
:10EB9000801820388177218AA269C91F2B683046E6
:10EBA000521D984705202082304670BD0B4BA2694C
:10EBB00014211B682846521D9847A069401DFDF787
:10EBC00067FF401D2082012070BD002070BD000045
:10EBD000FB020000540A002088020020900200205E
:10EBE000F0B59BB00446002069460885EE49ED4D1E
:10EBF000087088696C21095C152927D101680B7997
:10EC00000168CA7800688178E8A02CF0A5F921781D
:10EC1000F2A02CF0A1F9E17CF3A02CF09DF9A17CED
:10EC2000F4A02CF099F9A18AF5A02CF095F92078A0
:10EC300002280FD0611CF5A02CF08EF9218AF6A0D5
:10EC40002CF08AF9F7A0A1692CF086F92078012828
:10EC500003D0D2E06178F6A0EEE730210BA8FDF7F3
:10EC6000F8FE0526032000210691079009960290E0
:10EC7000049005960920042108960227009101902E
:10EC8000039708232B22EDA10BA82CF075F909207E
:10EC90000621079006910990002008970490082209
:10ECA00003910920059704210190029213460091D7
:10ECB0000EA82B22E1A103302CF05EF9032006966A
:10ECC00008960996079007230422002002AE0DC67D
:10ECD0000621059109200190009212A808232B22F9
:10ECE000D6A102302CF048F900201AF0D7F8AE4E29
:10ECF00007907068FF1E00281FDD04F0A5FCD64AAF
:10ED000071688918884218D21C216846FDF7A1FE57
:10ED1000D24BD3A1A26907982CF02EF903206946A3
:10ED200008700798FDF7B4FE6946088207980690B8
:10ED3000684605F06DFA7760ADE07760621CCCA1A3
:10ED4000A36907982CF018F9B0696030007B00289F
:10ED500006D000201AF0A2F80146C8A02CF0FCF85A
:10ED6000FF21F531082019F05FFB0BAFF81CFDF710
:10ED70008FFE0246F91C201DFDF79EFE00281CD0C8
:10ED80000FA802300746FDF783FE02463946201DD4
:10ED9000FDF792FE002810D013A801300746FDF7BA
:10EDA00077FE02463946201DFDF786FE002804D076
:10EDB0007D480078002803D01FE0022030701CE05E
:10EDC000012617AF0F2117A8FDF743FE0B20AE4910
:10EDD000AE4B704340181B6817AA0B219847781C4C
:10EDE000FDF756FE0246791C201DFDF765FE002842
:10EDF00007D0761CB6B2052EE4D3207802280DD0B9
:10EE00001FE069480121017080696030007B15288E
:10EE1000F3D1611C9EA02CF09FF8EEE72346218AD7
:10EE200014330AAAA0691AF0B3F8002809DD69466C
:10EE3000098D02292FD10121E174A1690C31A16151
:10EE4000208259484078002809D1A06901782329F7
:10EE50000ED0218A40182038C07F2A281BD0204697
:10EE600000F060FD002816D0A0690078232812D198
:10EE7000A2695078522805D0722803D0572801D0B3
:10EE8000772808D1218A5318203BDE7F2A2E02D111
:10EE90009B7F2E2B02D043481BB0F0BD93780A27EE
:10EEA000303BD6787B43303BF318DFB200233E4E35
:10EEB000142FB36068D27E4E3B002CF088F8140B00
:10EEC0001E322A722E71706F39396E39396D3939A7
:10EED000396C6B39572801D0772829D1207801283F
:10EEE00003D1501D73A12CF047F8A069FDF7D0FDA8
:10EEF00020822D480125866003E2572805D0772817
:10EF000003D021462DF040F907E221462EF000F80B
:10EF100003E221460EF00AFFFFE1214607F022FC42
:10EF2000FBE12078022804D0032802D001280AD06F
:10EF30006CE11D4989696031097FC90701D0022848
:10EF4000F6D062A009E1052264A16648FDF7B4FD90
:10EF500000281AD00B2264A16248FDF7ADFD0028FD
:10EF600014D0062263A15F48FDF7A6FD00280ED04D
:10EF70000C2262A15B48FDF79FFD002808D00A48DB
:10EF80000078022805D041E159E1BFE0CCE0ECE097
:10EF90000BE121E14FE14AE145E127E137E11DE1E4
:10EFA00039E11FE1F0FF0000540A002025303264EF
:10EFB0003A253032643A253032643A20434D445386
:10EFC00059535F416E616C697365436F6E74656E12
:10EFD000742D53746172740A000000007372632010
:10EFE00020203A2025640A00466F726D61743A2031
:10EFF00025640A005265762020203A2025640A0004
:10F00000536E202020203A2025640A006164647237
:10F0100020203A2025730A006C656E2020203A20BB
:10F0200025640A006461742020203A2025730A00B8
:10F030006164647220203A2025640A0025632564F7
:10F040002564256425642564256425642564256478
:10F05000256425640000000030750000304E00205B
:10F06000237732372025733B25732E2A0A000000B0
:10F07000534D533A25732C25730A00004C6F673AA1
:10F080002025730A00000000810200009002002089
:10F090002D2D3E43656E746572206861732061207A
:10F0A000726571756573743A2025730A000000005B
:10F0B0001D1C03087761697420666F722072656297
:10F0C0006F6F7420617768696C650A00414C4C2051
:10F0D000646576696365730A000000004448413145
:10F0E00038000000A45600205447303037582D44D3
:10F0F0004C303100544730303758000054473130DD
:10F10000324C452D34472D564E505400F8A1201D49
:10F11000FDF7AAFC002805D1F8A1201DFDF7A4FCED
:10F12000002873D0F8A018E0FAA1201DFDF79CFC80
:10F13000002811D1FAA1201DFDF796FC00280BD163
:10F14000FAA1201DFDF790FC002805D1FAA1201D91
:10F15000FDF78AFC0028E4D0FAA02BF0FDFEA069A0
:10F16000214640781FF0BEFF56E3FBA1201DFDF7AE
:10F170007BFC002817D1EAA1201DFDF775FC0028B3
:10F1800011D1E4A1201DFDF76FFC00280BD1F5A1E2
:10F19000201DFDF769FC002805D1F5A1201DFDF714
:10F1A00063FC0028BDD0F5A0D7E70C22F7A1201DF5
:10F1B000FDF782FC00280DD00C22F7A1201DFDF7E1
:10F1C0007BFC002806D00C22F6A1201DFDF774FC64
:10F1D00000281BD1F6A0C0E7F9A0BEE721462DF01C
:10F1E0002DFF19E321462CF015FD15E323780021AE
:10F1F000012B00D00521522801D07228E9D15018E6
:10F200000BF054FAA069FDF743FC42E010E22146FE
:10F2100014F0B6FF00E3214617F020F9050070D185
:10F22000EC48866005E3214629F084FEF4E221469D
:10F230002EF0DCF8F0E221460DF074FFECE2E64E31
:10F24000242F7FD2153F3B002BF0C1FE0F09255B19
:10F2500047430D5778532C35645C5B685B0021464F
:10F2600008F06CFED8E2FF259C35572806D0772899
:10F2700004D0522806D0722804D023E30A29FCD3F4
:10F28000072190E2D54B07211B682846521D98475D
:10F290000C202082CDE2522801D07228EDD10EF050
:10F2A00009FBC6E2572801D07728E6D10520208245
:10F2B00006F0B6FCB0E2572801D07728DDD1891ED0
:10F2C00089B2501D15F0BCFD0146C5A02BF044FECF
:10F2D00051E221462CF0BCFE9EE2522801D0722859
:10F2E000CBD1BE4B0F211B68C248521D984714203A
:10F2F000CFE721462DF0D6FE8EE221460AF0E8F94E
:10F300008AE250E0214615F093FC0546BA48854252
:10F3100035D090E221462AF0F7FA7DE2FF258835C4
:10F32000C6E00FE077287DD0522804D0722802D0A2
:10F33000C8E2012137E20121284620E221461BF0E4
:10F34000A5FC69E23C2F6ED2243F3B002BF03FFE30
:10F35000180D182F48767E902BAEB77ACB2BCAC9E2
:10F36000C8C7C62BC5C4C311C22B214608F0A4FDD3
:10F3700052E22146FFF71AFA05466228C9D155E242
:10F38000572806D0772804D052280DD072280BD0E9
:10F3900098E21829CCD11121E4203368521D9847F6
:10F3A00005202082E42548E21121E42078E0FF23B3
:10F3B0000133572806D0772804D052280DD0722860
:10F3C0000BD07FE20F29B3D1184608213368521DB4
:10F3D000984705202082F6252FE2082118462CE1C7
:10F3E0002178022926D053796E2B1AD19379742B68
:10F3F00017D1D379722B14D1137A622B11D1537A8E
:10F40000612B0ED1937A632B0BD1D37A322B08D197
:10F41000137B302B05D1537B312B02D1927B352AC4
:10F4200008D001E047E04BE10129B1D169490978F1
:10F430000229ADD1214614F047FBEDE1214627F02A
:10F440000DF8E9E12146FFF73BFBE5E1FF25333508
:10F45000572801D0772847D1102999D1092115E0E3
:10F460005E4B09211B682846521D98470E2010E765
:10F47000FF253C35572806D0772804D052280DD0D8
:10F4800072280BD01EE218299BD11121336828461F
:10F49000521D9847052020822846C7E111212846A1
:10F4A0004E4B521D1B6898471620F2E6FF25573534
:10F4B000572800D036E7082900D13AE702E2FF25B5
:10F4C0005835572811D077280FD052280ED07228DF
:10F4D0000CD0F7E1F0E0C6E0D8E0C8E0BFE0BAE069
:10F4E000B5E0B0E09AE095E0C6E087E08AE0000091
:10F4F000393034363536323237000000393832325E
:10F5000035363232370000004448413138206F6EC2
:10F510006C790A0039343531393630363000000024
:10F52000393435383536303630000000393336322C
:10F530003335313535000000393032323436323827
:10F54000320000005447303037582D444C303120C1
:10F550006F6E6C790A00000039383338343638342D
:10F56000380000003934353931363036300000008B
:10F5700039343538363630363000000054473030B4
:10F5800037582D3031206F6E6C790A00393139329D
:10F5900032343935330000003931343534343533C1
:10F5A0003000000039313931303639333100000054
:10F5B00054473130324C452D564E50540A0000000D
:10F5C00052656D617020544731304C452D34470AE7
:10F5D00000000000540A0020880200209002002051
:10F5E0005B434845434B53554D203D2030782578AB
:10F5F0005D0A00000E040000EA020000282917D16D
:10F600002121D0E0B04B21211B682846521D98478C
:10F6100026203EE6214605F0EFFEFDE0FF257B3586
:10F6200057283ED077283CD0522804D0722802D0E8
:10F6300048E10821B7E008212846A34B521D1B686A
:10F6400098470D2025E621461DF018F8E4E02146F4
:10F6500004F052F9E0E0214605F016FCDCE021461A
:10F660001EF062F8D8E02146FFF770FAD4E0974D1B
:10F67000572807D0772805D0522800D1F0E6722805
:10F68000FCD01FE110290BD109218CE08F4D0935E9
:10F69000572806D0772804D0522805D0722803D0E6
:10F6A00010E10F29C5D00DE1874B0B211B682846BF
:10F6B000521D98471020ECE521461CF0DDF8ABE028
:10F6C000462F77D23C3F3B002BF081FC0A060AB75D
:10F6D000B7B70E5F3E4246B7214626F07FFE9BE05D
:10F6E000214629F09DF897E02378022B28D078490D
:10F6F0008E694036F67E002E22D056796E2E1AD1B3
:10F700009679742E17D1D679722E14D1167A622E6C
:10F7100011D1567A612E0ED1967A632E0BD1D67AFC
:10F72000322E08D1167B302E05D1567B312E02D1D8
:10F73000927B352A04D0012B7FD1097800297CD017
:10F74000214606F0C3FB67E0214611F0CDFC63E0E3
:10F7500021461DF03BFD5FE05E4B572806D0772821
:10F7600004D0522809D0722807D0ABE018460121F6
:10F770003368521D984705208BE501211846524BEE
:10F78000521D1B689847062083E5504D1D3D5728A4
:10F7900006D0772804D052280DD072280BD091E0E3
:10F7A00014297DD10D2133682846521D9847052024
:10F7B000208242E007E0444B0D211B682846521D81
:10F7C0009847122065E5642F37D2512F21D009DCEC
:10F7D000462F0ED0482F10D04C2F00D12BE5502FA4
:10F7E0002BD112E05B2F0CD0622F17D0632F24D1C6
:10F7F0001FE021461DF0ECFD0EE0214612F078FBE3
:10F800000AE021462CF0B8FB06E0214615F058FA34
:10F8100002E0214626F06AFD05460CE0214626F06E
:10F8200089F92A4905463B31884204D120F05CF829
:10F8300003E0012501E0002D44D0254E6C21B06984
:10F84000095C152930D101680B790168CA78006814
:10F85000817821A02BF080FB21782A482BF07CFBBB
:10F860002848E17C0C302BF077FB2648A17C18302F
:10F870002BF072FB2348A18A24302BF06DFB21482A
:10F88000611C30302BF068FB1E48218A3C302BF085
:10F8900063FB1C48A16948302BF05EFB317800E027
:10F8A00010E019A02BF058FB1A48854201D1FFF750
:10F8B000F3FA18480F388542F9D0002D02D0012004
:10F8C0001BB0F0BD0020FBE790020020D602000034
:10F8D000540A00205C0D0000253032643A25303295
:10F8E000643A253032643A20434D445359535F41C2
:10F8F0006E616C697365436F6E74656E742D456ED1
:10F90000640A0000DCEF0008497343656E4E3A203C
:10F9100025640A00FFFF000001488068704700006E
:10F92000540A0020F0B59BB00446642102A8FDF7FC
:10F9300090F8FC4DA8696030007B152803D1FAA02F
:10F94000A1692BF009FB0A22FBA1A069FDF7B4F81D
:10F950000028687823D00026002847D06846067023
:10F960000422F8A1A069FDF7A7F80D25002824D0EE
:10F970000422F6A1A069FDF79FF8002820D00422F8
:10F98000F4A1A069FDF798F800281BD0684600781C
:10F9900000281BD00121684606F07EF978E301219A
:10F9A0004840687005D0EDA02BF0D6FA68780028A2
:10F9B000F4D1F7A02BF0D0FAF0E768460570E9E73C
:10F9C0000A2000E01A2069460870E3E768460571DE
:10F9D000218AA06906F060F9012101A806F05CF90E
:10F9E000218AF1A0A2692BF0B7FAD7E70422F2A18D
:10F9F000A069FDF761F800280DD0A0690422F0A1EC
:10FA0000401CFDF759F8002805D0A8696030007E39
:10FA100004285ED072E0A7690A22387979793038F3
:10FA2000504330380818C1B2E74C062921703DD246
:10FA30000E21601CFDF70DF80B22E4A1601CFCF701
:10FA4000EFFF2246BB7A5370FB7A93703B7AD370F8
:10FA50007B7A501C1371BA790271F9794171384679
:10FA60000C300422DCA1FDF727F8002807D0E6734C
:10FA7000A86921466030007B02280CD010E00120EC
:10FA8000E073A86921466030007B022808D10A781B
:10FA9000611CD3A002E00A78611CDCA02BF05CFAA8
:10FAA00001202074E07B00280AD0D0E3A8696030F0
:10FAB000007B002802D0DEA02BF04EFA2670C6E3B1
:10FAC000A8696030007B02288FD0002014F076FFF8
:10FAD000BDE30222DBA1A069FCF7EEFF00287DD088
:10FAE0000222D9A1A069FCF7E7FF0028F7D0022283
:10FAF000D6A1A069FCF7E0FF0028F0D00A22D4A12B
:10FB0000A069FCF7D9FF002869D00A22D3A1A06917
:10FB1000FCF7D2FF0028F7D00722D3A1A069FCF799
:10FB2000CBFF00287DD00722D1A1A069FCF7C4FF3C
:10FB30000028F7D00722D0A1A069FCF7BDFF00285C
:10FB400070D00722CEA1A069FCF7B6FF0028F7D03D
:10FB50000622CDA1A069FCF7AFFF0028A0697DD0E7
:10FB60000C22CBA1FCF7A8FF0028A06977D00822BF
:10FB7000CBA1FCF7A1FF002872D00822CBA1A0697D
:10FB8000FCF79AFF0028F7D00622CBA1A069FCF76A
:10FB900093FF0028F0D00622C9A1A069FCF78CFFD2
:10FBA0000028E9D00B22C8A1A069FCF785FF002836
:10FBB0007DD00B22C7A1A069FCF77EFF0028F7D0FB
:10FBC0000B22C7A1A069FCF777FF0028F0D008221C
:10FBD000C6A1A069FCF770FF002801E05AE285E2A7
:10FBE00066D00822C4A1A069FCF766FF0028F7D000
:10FBF0000722C4A1A069FCF75FFF00287DD007227F
:10FC0000C2A1A069FCF758FF0028F7D00722C1A1C4
:10FC1000A069FCF751FF0028F0D00422BFA1A06921
:10FC200001E076E286E2FCF747FF002866D0042276
:10FC3000BCA1A069FCF740FF0028F7D00422BBA1BB
:10FC4000A069FCF739FF0028F0D00722B9A1A0690C
:10FC5000FCF732FF00285FD0072202E08BE298E237
:10FC60009AE2B6A1A069FCF727FF0028F3D007228B
:10FC7000B4A1A069FCF720FF0028ECD00622B3A1B4
:10FC8000A069FCF719FF002847D00622B1A1A0699E
:10FC9000FCF712FF0028F7D00722B0A1A069FCF7FB
:10FCA0000BFF00283AD00722AEA1A06901E077E25D
:10FCB0007AE2FCF701FF0028F4D00722ABA1A0698B
:10FCC000FCF7FAFE0028EDD00422AAA1A069FCF7F7
:10FCD000F3FE002823D00422A8A1A069FCF7ECFEC3
:10FCE0000028F7D00422A7A1A069FCF7E5FE0028B0
:10FCF000F0D00822A5A1A06901E059E25CE2FCF77E
:10FD0000DBFE00280CD00822A3A1A069FCF7D4FEDA
:10FD10000028F7D0082245E152E255E258E25BE2C2
:10FD20005EE20000540A0020436D643A202D2D3E0F
:10FD300025733C2D2D0A0000222B2B2B41542B2BFD
:10FD40002B220000223064220000000022306122B9
:10FD5000000000002231612200000000456E746541
:10FD600072206120636F6D6D756E69636174696F78
:10FD70006E20776974682047534D204D6F64756C11
:10FD8000652076696120415420636D640A0000009B
:10FD9000457869742074686520636F6D6D756E6950
:10FDA000636174696F6E0A0053656E642041543A52
:10FDB00020252E2A730A000052454144000000000D
:10FDC00045414430000000007457002079796D6D82
:10FDD00064642E54585400002D74637000000000B9
:10FDE0005143564E333120726561642066696C65FB
:10FDF0003A20257320616E6420636D643A20256487
:10FE0000206F766572207463700A00005143564E6D
:10FE1000333120726561642066696C653A20257310
:10FE200020616E6420636D643A2025640A0000003E
:10FE3000636D6420696E636F727265637420282538
:10FE400064290A00415400006174000041740000FC
:10FE500023446C6963656E73653A000023646C69C2
:10FE600063656E73653A000023446E616D653A0008
:10FE700023646E616D653A004472697665723A007A
:10FE80006472697665723A007365746B6579000017
:10FE90006765746472697665726B6579000000004D
:10FEA000524553544152542300000000726573744C
:10FEB0006172742300000000524553455423000032
:10FEC000726573657423000073657464656661759B
:10FED0006C74230053455444454641554C5400002E
:10FEE00053657464656661756C74230043415054B6
:10FEF00055524523000000006361707475726523DC
:10FF000000000000524553544F524500726573740F
:10FF10006F726500526573746F7265004E545023A2
:10FF2000000000006E747023000000004E74702307
:10FF30000000000055504441544523007570646131
:10FF40007465230055706461746523004241434B1E
:10FF5000555023006261636B757023005354415404
:10FF60005553230073746174757323005374617463
:10FF70007573230055524C230000000075726C23EA
:10FF80000000000055726C230000000075726C20A8
:10FF90006C6273230000000055726C206C62732346
:10FFA00000000000E1A1A069FCF786FD002870D0E8
:10FFB0000822E1A1A069FCF77FFD0028F7D0042208
:10FFC000E0A1A069FCF778FD00287DD00422DFA124
:10FFD000A069FCF771FD0028F7D00522DDA1A0691A
:10FFE000FCF76AFD002870D00522DCA1A069FCF7AF
:10FFF00063FD0028F7D00F22DAA1A069FCF75CFDB1
:020000040801F1
:10000000002872D00F22DBA1A069FCF755FD002863
:10001000F7D00A22DBA1A069FCF74EFD002876D0BC
:100020000A22DBA1A069FCF747FD0028F7D00822CF
:10003000DAA1A069FCF740FD002869D00822DAA106
:10004000A069FCF739FD0028F7D01022D9A1A069DA
:10005000FCF732FD00287DD01022DBA1A069FCF75F
:100060002BFD0028F7D00B22DCA1A069FCF724FDB2
:10007000002870D00B22DCA1A069FCF71DFD002830
:10008000F7D00B22DBA1A069FCF716FD0028F0D009
:10009000DDE0A9E0207C2322401CC1B2A0692BF046
:1000A00026FF0128A0691BD0218A40182038C67776
:1000B000A669002EECD03046FCF7EAFC6428E7D2B3
:1000C0003246CFA102A801E092E0C6E02AF054FF38
:1000D00002A8FCF7DDFCA369024602A91846F2E07B
:1000E0009DA1FCF7F9FC0646E3E7BAE0C7A1A069C9
:1000F000FCF7F2FCC6A10020FCF7EEFC0600C7D01E
:10010000442102A8FCF7A5FC3246C2A11EE0B3E0E0
:10011000BDE0BEA1A069FCF7DFFCBDA10020FCF79B
:10012000DBFC0600B4D0442102A8FCF792FC324666
:10013000BDA10BE088A1A069FCF7CEFC002873D01C
:10014000582102A8FCF785FCA269BBA102A82AF0ED
:1001500013FF01E0A6E0B3E002AABAA1A0692AF069
:100160000BFFA8696030007B002803D002A9B6A06D
:100170002AF0F2FEA9E0801DFCF7E0FD82B2A06942
:100180008179232903D0B4A12AF0F6FE9DE0B5A120
:1001900093E00822B5A196E00822B7A1A06992E0F9
:1001A0000822B8A1A0698EE00822B9A1A0698AE05E
:1001B0001022BAA1A06986E00B22BDA1A06982E04D
:1001C0000F22BFA1A0697EE00F22C1A1A0697AE041
:1001D0000822C3A1A06976E00722C4A1A06972E049
:1001E0000B22C4A1A0696EE00B22C5A1A0696AE040
:1001F000A06901793F2905D041794F290ED078298E
:1002000022D024E023212BF058FEA269014610469B
:10021000FCF71FFC0722BDA1A06954E081794E299B
:1002200003D0462907D012E012E0C17923290ED16C
:100230000A22B8A147E0C179462908D1017A2329C9
:1002400005D10A22B6A13EE08179232902D00020FF
:100250001BB0F0BD0A22B5A135E00822B6A1A06905
:1002600031E02321A0692BF028FE0146A069FCF7AC
:10027000F0FBB4A1A06920E02321A0692BF01DFEB2
:100280000146A069FCF7E5FBB4A1A06915E02321B4
:10029000A0692BF012FE0146A069FCF7DAFBB4A1BD
:1002A000A0690AE02321A0692BF007FEA26901469C
:1002B0001046FCF7CEFBB2A1A0692AF05DFE04E077
:1002C0000B22B5A1A069FCF7ABFBA069FCF7E0FB32
:1002D0002082A8696C21095C002924D001680B796F
:1002E0000168CA7800688178AEA02AF035FE2178CE
:1002F000B5A02AF031FEE17CB7A02AF02DFEA17C4A
:10030000B9A02AF029FEA18ABBA02AF025FE611C13
:10031000BDA02AF021FE218ABFA02AF01DFEC2A0A6
:10032000A1692AF019FE012092E7000075726C2085
:10033000677073230000000055726C206770732390
:100340000000000042555A5A0000000062757A7A97
:10035000000000004355534423000000637573649C
:1003600023000000515549434B464F524D415444E0
:1003700049534B00717569636B666F726D6174648C
:1003800069736B00464F524D41544449534B000032
:10039000666F726D61746469736B00004449524406
:1003A00049534B23000000006469726469736B2336
:1003B000000000004449524449534B4C4F574C45B0
:1003C00056454C23000000006469726469736B6CCD
:1003D0006F776C6576656C23000000004D6F6E6969
:1003E000746F72206F6666006D6F6E69746F722035
:1003F0006F6666004D4F4E49544F52204F4646009F
:10040000237730372025732E2A0000003A000000A1
:100410002E2A00002377373020646C6963656E7381
:10042000653A25732E2A00002377373020646E61E9
:100430006D653A25732E2A00237737302025732ED9
:100440002A000000257300002D2D3E546275663A87
:100450002025730A00000000235736382025642E1B
:100460002A000000235736382E2A0000235236383F
:100470002E2A000000000000235730302E2A0000F2
:1004800000000000235730352E2A00000000000035
:10049000235733302E2A0000000000002357303647
:1004A00020524553544F52452E2A000000000000B0
:1004B00023573533204E54502E2A000000000000F0
:1004C00023573036205550444154452E2A00000011
:1004D00023573036204241434B55502E2A0000000E
:1004E000235230312E2A0000000000002352323502
:1004F0002E2A000023523235206C62732E2A00000F
:1005000023523235206770732E2A00002352353172
:100510002E2A00002357353120312E2A00000000FA
:100520002357353120302E2A000000002357353163
:1005300020782E2A00000000235232322E2A00009A
:10054000000000002357323120717569636B666FBC
:10055000726D61746469736B2E2A00002357323107
:1005600020666F726D61746469736B2E2A000000DF
:1005700023573231206469726469736B2E2A00003C
:1005800023573231206469726469736B6C6F776CC6
:100590006576656C2E2A000023723038206F6666FF
:1005A0002E2A0000253032643A253032643A253054
:1005B00032643A20434D445359535F457863686130
:1005C0006E6765436D640A00636D64737263202017
:1005D00020203A2025640A00636D64466F726D61C5
:1005E00074203A2025640A00636D645265762020E9
:1005F00020203A2025640A00636D64536E20202079
:1006000020203A2025640A00636D646164647220CE
:1006100020203A2025730A00636D646C656E2020EB
:1006200020203A2025640A00636D646461742020F0
:1006300020203A2025730A00044AD0608B695B6849
:1006400053619161C069106170470000540A002035
:10065000F3B5FC4983B0497901297CD0FA4EB18DBC
:10066000814204D9081AB085012005B0F0BD7D2073
:10067000C000B0850498002802D000780128F4D08A
:10068000F14C203C207B617B2546E035884211D02F
:100690006A6C1278012A0BD1A27A00920191029021
:1006A000A86C00680379C2788178E8482AF054FC85
:1006B000207B6073E648227B01463C310027130013
:1006C0002AF085FC0906137749B2FEEFEEED4900EA
:1006D0000120DD496075E77440310F67A773DD4A7B
:1006E0008A666774A774277474E0D74AB38D403262
:1006F000926E9A423FD98278002A02D14278002A2B
:1007000032D0627D012A06D04278002A2CD0C078EF
:10071000002827D123E0002103200EF053FCCA4912
:100720004031086700281FD0072020730120E073A4
:10073000C948F08567750320A073686C00780128AC
:1007400012D1C81DFA300090A86C00680379C278F5
:100750008178C2A000E096E22AF0FEFB04E008786F
:10076000002801D002202073B748B28D4030816E3E
:10077000891A816687E2B44AB64940329166696C4B
:10078000097801290CD1C278817800786B4607C3BB
:10079000A86C00680379C2788178BDA02AF0DCFBE0
:1007A000207C002803D101202074052012E00620BF
:1007B00010E00978012906D0318EB08D81420BD925
:1007C000081A30865FE2C178002901D10121C17089
:1007D00067740420207356E2286C0078002801D04A
:1007E000BB4800E0BB483086607C092818D018213F
:1007F00010200EF0E7FB9449403108670028B9D07B
:10080000072020730220E073B348F085607C401C11
:1008100060741020A073686C0078012802D032E266
:100820006774C4E7AD4824E0007AA17C014308D096
:10083000002838D008202073686C0078012820D068
:1008400021E2002104200EF0BDFB7F494031086702
:1008500000288FD0072020730420E0739E49F18583
:100860000121A174A073686C00780128AAD19B486B
:10087000B4380090A86C00680379C278817877A0BA
:1008800064E073480A30192100910190A86C006857
:100890000379C278817892A02AF05EFBF3E196E0BA
:1008A00057E029E00CE006202073686C00780128EE
:1008B00088D1A86C00680379C27881789448E0E117
:1008C0001D2110200EF07EFB5F4940310867002893
:1008D000A5D0072020730120E0737F48F085102009
:1008E000A073686C0078012899D1A86C006803791E
:1008F000C27881788748C4E1E07C022801D21621C1
:1009000000E0082102200EF05DFB4F4940310867EE
:100910000846006F002893D0E07C022801D3E774DA
:1009200001E0401CE07407202073E7737A48F085EB
:100930000220A073686C00780128AFD1E07C0090A1
:10094000A86C00680379C278817874A02AF004FB4F
:1009500099E1A07B0101091A6048F0380918D438E0
:10096000006F0CF0DDFF207514202056401C08D0CD
:10097000207D012802D0E07B207321E00620207337
:1009800021E0F18DB08D814202D9081AF08517E07F
:10099000E07B2073A07B0DF007FD686C00780128D8
:1009A0000ED1A07B0101091A4C48F03808180090BC
:1009B000A86C00680379C278817868A02AF0CCFA24
:1009C000207B0728C4D02048403007675BE1E27AEB
:1009D000002A13D0A07A401CC0B2A072E772696CE2
:1009E0000978012908D10090A86C00680379C278C1
:1009F000817868A02AF0B0FA002036E6027A002A50
:100A000009D00A78012A19D002212173696C09786A
:100A1000012914D021E10F702773696C097801292D
:100A20000ED1C17882780078019202910090A86C72
:100A300000680379C27881786548D7E0D9E0C9E0D9
:100A4000F2E00000E41200204004002044DF03082C
:100A5000E8170020C0D40100A861000025303264EE
:100A60003A253032643A253032643A204150505FA2
:100A70004465766963655365617263684E65747732
:100A80006F726B3A20507573682025730A0000005E
:100A9000253032643A253032643A253032643A20C7
:100AA0004150505F44657669636553656172636860
:100AB0004E6574776F726B3A204E6F742052656189
:100AC00064793A2025642D25642D25640A000000F0
:100AD0001027000060EA0000983A00004406002059
:100AE000253032643A253032643A253032643A2077
:100AF0004150505F44657669636553656172636810
:100B00004E6574776F726B3A20252E2A730A0000A7
:100B10008CE20308E0E20308C8AF0000253032642D
:100B20003A253032643A253032643A204150505FE1
:100B30004465766963655365617263684E65747771
:100B40006F726B3A2052657374617274206D6F64BA
:100B5000756C655B25645D0A000000002530326419
:100B60003A253032643A253032643A204150505FA1
:100B70004465766963655365617263684E65747731
:100B80006F726B3A2025732074696D656F75740AF6
:100B900000000000253032643A253032643A2530B6
:100BA00032643A204150505F44657669636553650D
:100BB000617263684E6574776F726B3A202D2D3EBB
:100BC00046696E697368204150505B25645D0A0078
:100BD00068E10308C1788278007801920291009060
:100BE000A86C00680379C278817828482AF0B4F9A3
:100BF00033E0C078002808D02548C16EB08D81420E
:100C000013D9234A081AD06627E00F7001202073F9
:100C1000686C0078012820D1A86C00680379C2783C
:100C200081781CA02AF098F917E00F2110200EF00F
:100C3000C9F91749002808670FD00720207308203A
:100C4000E073286C0078002801D0214800E021489A
:100C5000C8662148F0851020A0730498002812D09F
:100C6000007800280FD127730499401E0870686C23
:100C70000078012807D1A86C00680379C2788178D0
:100C800016A02AF069F90020C043EEE4ACE10308A5
:100C900080040020253032643A253032643A253011
:100CA00032643A204150505F44657669636553650C
:100CB000617263684E6574776F726B3A204E65742B
:100CC000776F726B20646F776E20310A000000002E
:100CD00060EA0000905F0100B888000025303264AF
:100CE0003A253032643A253032643A204150505F20
:100CF0004465766963655365617263684E657477B0
:100D00006F726B3A207265737461727420617070D7
:100D10000A000000F0B5C7498BB0497901296DD0B0
:100D2000C54C618F814204D9081A608701200BB03D
:100D3000F0BDFF20F5306087C04D617A2846B530A0
:100D40000290BD4FA8380026C037C0350190002959
:100D500009D0A079217A884204D02072796C097870
:100D600001297BD0CCE06079E17988420DD0E07137
:100D7000796C0978012908D10090B86C0068037972
:100D8000C2788178AEA02AF0E7F86079002804D014
:100D9000012836D0022831D161E0A8480B210C226D
:100DA00041568256914219DA491C49B2C172431C1C
:100DB000CB5C037001206071B048F862786C0078F9
:100DC0000128E8D1009302920191B86C0068037980
:100DD000C2788178AAA02AF0BFF884E000296EDBEF
:100DE0000021C943C1720173786C0078012866D173
:100DF000B86C00680379C278817800E010E1AEA099
:100E000029E0002109200EF0DDF87863002810D0D9
:100E10000120687102206071B048F862786C007837
:100E20000128B8D1B86C00680379C2788178ACA089
:100E300011E0618FF86A884202D9401AF86252E0E4
:100E40006671786C00780128D1D1B86C006803799C
:100E5000C2788178B2A02AF07FF844E047E0BFA1D1
:100E6000786B0CF05DFD401C22D01C2103A87E6332
:100E7000FBF7EFFD01206946087303A80F2201303C
:100E80000299FBF7CDFD287969468883019809907E
:100E900003A803F0BDF9002822D0786C007801285F
:100EA0001ED1B86C00680379C2788178AE4815E02D
:100EB000608FF96A814203D9081AF86210E0B1E044
:100EC00009207E630DF070FA786C0078012807D154
:100ED000B86C00680379C2788178A4A02AF03CF845
:100EE000786B002801D0607998E066719AE00090F4
:100EF000B86C00680379C2788178ABA02AF02CF82E
:100F0000A079002804D001280CD0022889D162E001
:100F10004948403880790028E8D07048386301207B
:100F2000A07183E000210A200EF04CF84249C03144
:100F30000F46803F886300282DD0386CFBF7A8FD52
:100F4000C2B22A71396C0198FBF76AFD0F22796CE5
:100F50000298FBF765FD01206871386C2AF0E2FF0A
:100F6000786C2AF0DFFF3846803886710220A07145
:100F700038469C4980300163416C0978012955D17C
:100F800029790091806C00680379C278817896A0F5
:100F900029F0E2FF41E0284D618FC035286B88427F
:100FA00002D9401A286338E0386C2AF0BBFF786C0D
:100FB0002AF0B8FF204840388671A671686C007826
:100FC00001282FD1A86C00680379C278817854A0D9
:100FD00029F0C2FF21E094A1B86B0CF0A1FC401CE9
:100FE00001D0BE631DE0608F396B814202D9081ABF
:100FF00038630FE00A20BE630DF0D6F9786C0078F4
:10100000012807D1B86C00680379C278817889A07B
:1010100029F0A2FFB86B002803D0A079002801D0E6
:1010200004E0A671607A0121484060720020C0434C
:101030007DE60000E412002040040020F0150020AE
:10104000253032643A253032643A253032643A2011
:101050004150505F446576696365534D53526561F5
:1010600064696E673A204368616E676520737461D6
:101070007465205B25645D0A0000000060EA0000E2
:10108000253032643A253032643A253032643A20D1
:10109000534D532D6E756D6265723A2025643B2069
:1010A00050656E64696E672D496E6465783A2025D7
:1010B000642F25640A000000253032643A2530325E
:1010C000643A253032643A20526573657420534D7A
:1010D0005320496E6465780A000000007011010019
:1010E000253032643A253032643A253032643A2071
:1010F0004150505F446576696365534D5352656155
:1011000064696E673A205761697420666F72207255
:10111000656164696E67206E657720736D730A0080
:10112000253032643A253032643A253032643A2030
:101130004150505F446576696365534D5353656E06
:1011400064696E673A2052657175657374205376D1
:101150002074696D656F75740A00000052656164E2
:10116000534D535F73760000F4E103082530326479
:101170003A253032643A253032643A204150505F8B
:10118000446576696365534D5352656164696E6762
:101190003A2052656164534D535F73762074696DD4
:1011A000656F75740A000000253032643A253032CC
:1011B000643A253032643A204150505F4465766984
:1011C0006365534D5353656E64696E673A20436897
:1011D000616E6765207374617465205B25645D0AC8
:1011E0000000000018730100253032643A253032C7
:1011F000643A253032643A204150505F4465766944
:101200006365534D5353656E64696E673A20576149
:10121000697420666F722073656E64696E6720530F
:101220004D535B25645D0A0053656E64534D535FF7
:1012300073760000253032643A253032643A253026
:1012400032643A204150505F446576696365534D7E
:101250005353656E64696E673A2053656E64534DEF
:10126000535F73762074696D656F75740A000000B2
:10127000FEB5FB49497901297ED0FA4D698E81423C
:1012800003D9081A68860120FEBD7D20F54CC000F8
:101290006886203CE17D207E814212D02046E030ED
:1012A000426C1278012A0AD1A27D00920191806CD1
:1012B00000680379C2788178EBA029F04DFEE07DCB
:1012C0002076F948002780780090002809D0F64859
:1012D0004178002905D0C078002802D0E14840308C
:1012E00015E0E048F14A4030816F914206D1C26872
:1012F000EF4B9A4210D2082262770AE0ED4A9142FF
:1013000007D10169EC4A914206D2162161778767BD
:1013100002E06A8E89188167E07D012606220300BB
:1013200029F055FE0B0719723E2A97CE2AFEFDFCC6
:101330002A00E67500212776C943CA486776A17658
:1013400040304767A986C76780304760876007607D
:10135000E776277769E2607F082816D0607F162835
:1013600013D0D1483C38007A002885D00099CE4867
:1013700000290ED0417800E052E1002909D02777FA
:10138000C078002803D0E77606E00A2019E005209F
:1013900017E00079002801D0E27547E2022010E052
:1013A000607E0101091AC54806460918543EF068D6
:1013B0000CF0B6FA401C08D01A20F7602056411CE9
:1013C00001D0E07532E20920FBE7A6486A8E403082
:1013D000416F914202D9891A416727E2607E0CF081
:1013E000E3FF0920E075706C00780128D5D1607E9C
:1013F0000101091AB14808180090B06C006803791F
:10140000C2788178AEA058E0AC4F698E543F7868BE
:10141000884202D9401A786008E2002105200DF0C8
:10142000D1FDF86000287CD00320E0758D49A676B8
:10143000B14840314867B1487860207F401C207730
:1014400005206076786C00780128A6D19B484B3047
:101450002CE09A4F698E543FB868884202D9401AEE
:10146000B860E3E1E07E032803D200216276062023
:1014700002E00C206076FF210DF0A4FDF86000284A
:10148000D1D0E07E401CE0760320E0757549A67659
:101490009948403148679948B860786C00780128CD
:1014A00090D1607E0101091A844808180090B86C38
:1014B00000680379C278817891A029F04DFDB5E1EB
:1014C00079480179002910D1E17E03290DD0C07837
:1014D0000028A8D0A88E401CA8863420285E0428A6
:1014E00006DB0020C043A886A0E1FF20A8866AE7AB
:1014F0003421695E6C2041436B4848300918203123
:10150000897A3422AA5E6C235A4312182032527A06
:10151000002A13D03422AA5E5A4303E061E122E19B
:1015200074E01FE112182032927A002A06D1342288
:10153000AA5E93007F4AD258002A09D03422AA5EBC
:101540006C235A4312182032527A002A15D027E011
:101550003422AA5E6C235A431218D3693422AA5E3D
:101560009600744A935103223423EB5E6C26734336
:101570001B1820339A72082211E03422AA5E6C23D1
:101580005A4312182032927A012A09D104233422B4
:10159000AA5E6C2672431218203293720922E275F9
:1015A0003422AA5E6C235A4312182032927A022AFD
:1015B0000CD13422AA5E5A431218126A002A05D1AD
:1015C0003422AA5E5A431218203297723422AA5E3D
:1015D0006C235A4312182032927A8A4284D03749B7
:1015E00054394A6C1278012A1AD13422AA5E5A431D
:1015F00010182030807A3422AA5E00920190886C04
:1016000000680379C27881784B48E5E0154840309E
:10161000C16F688E814204D9124A4032081AD067DD
:1016200004E1A88EC1B207200DF0CCFC2349543947
:10163000C860002813D00320E0750846A6763F4A0C
:10164000803842672D4AC26707206076486C007870
:10165000012875D13422AA5E0846BD30B4E070E09E
:10166000E412002040040020253032643A25303254
:10167000643A253032643A204150505F44657669BF
:101680006365544350436F6E6E656374696F6E5B40
:1016900025645D3A204368616E67652073746174E8
:1016A00065205B25645D0A0024180020A0BB0D00A6
:1016B00090B2080040771B00804F120054050020B4
:1016C000253032643A253032643A253032643A208B
:1016D0004150505F446576696365544350436F6E73
:1016E0006E656374696F6E3A2025732074696D6549
:1016F0006F75740A00000000905F010088130000FD
:10170000253032643A253032643A253032643A204A
:101710004150505F446576696365544350436F6E32
:101720006E656374696F6E3A205075736820257317
:101730000A0000007C1B0020BCE00308C0D40100AC
:101740004CE03421695E6C2041433A48091820314D
:10175000897A032943D13421695E6C2251430818E8
:10176000203087723BE034480168688E814203D99B
:10177000314A081A106059E0A88EC1B20C200DF051
:1017800021FC2D490028C86029D00320E0750A46B5
:10179000A6762A48803A506729480860A88EFF2814
:1017A00005D1244848380279002A00D00771E07E2C
:1017B000032800D3E7760C206076486C0078012877
:1017C00034D13422AA5E1F4801920090886C0068D0
:1017D0000379C27881781CA029F0BEFB26E0E6756B
:1017E00024E0617F02200DF0EDFB13490028C86062
:1017F0001AD00320E0750846A676214A8038426751
:1018000002206076486C007801280ED1627F08467D
:10181000723001920090886C00680379C2788178F8
:1018200009A029F099FB00E0E67567770020C04326
:10183000FEBD00006C18002000050020C0D401008F
:101840008813000008060020253032643A25303223
:10185000643A253032643A204150505F44657669DD
:101860006365544350436F6E6E656374696F6E3A7F
:101870002050757368202573205B25645D0A000085
:1018800060EA0000F8B5B14F00267979F6430129E6
:101890007ED0AF4C218F814203D9081A20870120C6
:1018A000F8BD7D20C0002087A94D6078A178C035A3
:1018B00088420DD0A070696C0978012908D1009088
:1018C000A86C00680379C2788178A2A029F044FB53
:1018D0006078012802D002285AD107E12079002837
:1018E00011D19B48403802214156491C0BD08178C8
:1018F00002200DF067FBA862002804D00220E070EF
:101900009348403886702079012811D1904840389A
:1019100003214156491C0BD0002101200DF052FB40
:10192000A862002804D08A484038C6700120E070C0
:101930002079022815D19548C078002811D0844814
:10194000403800214156491C0BD001780E200DF083
:1019500039FBA862002804D07D48403806700E206C
:10196000E0702079032811D179484038052141568B
:10197000491C0BD0202110200DF024FBA862002868
:1019800004D07348403846711020E070207900E0A0
:101990009CE06F484038807A032807D36C490020C8
:1019A00040398872014601200BF08CFFBA79002A79
:1019B00022D0002179566C204143744848300818E1
:1019C0002A21095C012917D1416A002906D17049F1
:1019D00041625F494039CB7A5B1CCB72C08E0028D4
:1019E0000AD15B484038C17A8A4205D10021C172D0
:1019F000397868A00CF04EF96448C830817D01291F
:101A00000CD101696B4A914208D8418C002905D15B
:101A100051000161012168A00CF03CF920790528F2
:101A200030D10C20205E401C2CD00C20205E0428DD
:101A300002DBA089FF2825D10C20205E0C2704287A
:101A400013DAE15F6C2041435048483009182031D7
:101A5000897A012916D1E15F04226C2359430818C1
:101A600020308272A089C1B204E04848C0780028C2
:101A700008D0FF210C200DF0A5FAA862002801D0A3
:101A8000A681E770207906280FD1314F403F04200E
:101A90003856401C09D0132110200DF093FAA8628B
:101AA000002802D03E711020E070207906280ED068
:101AB0002079401C2071A86A002845D0022060705F
:101AC00045486862686C0078012802D03CE000203C
:101AD000F0E7E1780801411A404808180090A86C26
:101AE00000680379C27881783DA02BE0E1783B4F14
:101AF0000801401AC119A86A0BF012FF401C04D05B
:101B00000020A862012060701EE0208F696A814277
:101B100002D9081A686217E00020A862E0780CF089
:101B200043FC01206070686C007801280CD1E078DB
:101B30000101081AC0190090A86C00680379C278E6
:101B4000817832A029F008FA3046F8BDE41200206E
:101B500040040020253032643A253032643A253082
:101B600032643A204150505F44657669636555742C
:101B7000696C6974793A204368616E676520737493
:101B8000617465205B25645D0A0000002418002054
:101B900080EE3600496E7465722D5265667265730B
:101BA00068204461746120436F6E6E656374696F71
:101BB0006E00000040771B00496E7465722D5265FF
:101BC000667265736820564E455420436F6E6E658D
:101BD0006374696F6E000000F04902005405002034
:101BE000253032643A253032643A253032643A2066
:101BF0004150505F4465766963655574696C6974DA
:101C0000793A20507573682025730A0025303264B4
:101C10003A253032643A253032643A204150505FE0
:101C20004465766963655574696C6974793A2025F1
:101C3000732074696D656F75740A0000F8B50E0045
:101C4000054602D03078012871D0834C6179A079A3
:101C500081420FD02046A171E030426C1278012AF7
:101C600008D10091806C00680379C27881787BA0EC
:101C700029F072F96179784F854820370B0029F0F7
:101C8000A6F905041E598EBEE7000120207160717F
:101C9000714900206031421EC86522726072486638
:101CA00008468030416C0978012907D1806C0068B2
:101CB0000379C278817877A029F04EF9C8E0007ED8
:101CC000002835D1788DA84202D9401B7885BFE025
:101CD000607A02281ED0092102200DF073F95E49B6
:101CE000603148660846416E0029E7D0617A0229D2
:101CF00012D0491C6172734A022161715300C3659D
:101D0000026655487A85E171E030416C0978012915
:101D100004D09DE01621DFE70021EBE7617A009116
:101D2000806C00680379C278817867A064E07FE006
:101D3000032087E0E079714F0101081A3E46C1197E
:101D4000D43E706E0BF0ECFD401C06D00020706697
:101D500008202056411CEBD074E0F06DA84202D957
:101D6000401BF06574E0042060710025F565E079A2
:101D70000CF01AFB706E0570604875665438416C43
:101D80000978012964D1E1790A01511AC919009130
:101D9000806C00680379C278817859A02CE0007EBD
:101DA000002801D004204DE02B4E6036306EA84252
:101DB00002D9401B30664BE00B2110200DF002F9D8
:101DC0007066002844D002206071042020723D48D3
:101DD0004100F165306678851020E071474854383D
:101DE000416C0978012933D1617A0091806C0068D7
:101DF0000379C27881784DA029F0AEF828E02179E6
:101E0000002916D0E078401CC1B2E170002020719A
:101E10003A485438426C1278012A08D10091806CFB
:101E200000680379C27881784EA029F095F80020E7
:101E3000F8BD007E002805D0002E09D0307800289B
:101E400002D005E0607103E000206071401E307038
:101E50000020C043F8BD000020040020253032647B
:101E60003A253032643A253032643A204150505F8E
:101E7000446576696365626F6F743A204368616E8A
:101E800067652073746174655B25645D0A000000FA
:101E9000C4120020253032643A253032643A2530AD
:101EA00032643A204150505F446576696365626FE1
:101EB0006F743A202D2D3E52657374617274204107
:101EC00050500A0030750000253032643A25303217
:101ED000643A253032643A204150505F4465766957
:101EE0006365626F6F743A202D2D3E506572666F88
:101EF0006D20626F6F745B25645D0A0054050020DD
:101F0000253032643A253032643A253032643A2042
:101F10004150505F446576696365626F6F743A2023
:101F200025732074696D656F75740A0025303264FD
:101F30003A253032643A253032643A204150505FBD
:101F4000446576696365626F6F743A202D2D3E4358
:101F50006865636B20526573706F6E73655B256493
:101F60005D0A0000253032643A253032643A25306B
:101F700032643A204150505F446576696365626F10
:101F80006F743A202D2D3E46696E6973682041506A
:101F9000505B25645D0A0000FEB5A14901914979B5
:101FA00001297DD09F4DE98E814203D9081AE88628
:101FB0000120FEBD7D20C0009B4EE88600246C20E1
:101FC00021464143974A9948DC320818014620319E
:101FD000135D8F7ABB420BD0012B01D0042B05D1AE
:101FE0008B7A002B02D1C369A700F3518B7A13556A
:101FF000A300F758EA8E974202D3F758BF1A00E0C1
:102000000027F750036A934202D9036A9B1A00E043
:10201000002303628B7A012B0FD1C38E934202D926
:10202000C38E9B1A00E00023C386436A934202D901
:10203000436A9A1A00E000224262887A012810D18D
:10204000087B01280DD10220087301980021415618
:10205000A14202D1FF2176A001E021467DA00BF034
:1020600019FE641CE4B2042CA9D36E4E203EB07F4E
:10207000F17F3446E03488420ED0616C0978012942
:1020800008D10090A06C00680379C278817874A0B0
:1020900028F062FFB07FF077B07F012804D000E025
:1020A0007AE0022878D189E060484838C078002872
:1020B0007DD0019900200856002878DB042876DAC4
:1020C0006C214843594940182030817A012968D051
:1020D00073496069884260D100216161A069401C38
:1020E000A061042813D2FF210C200CF06BFF2062AA
:1020F0000C202870606C0078012858D1A0690090ED
:10210000A06C00680379C2788178664841E0454F49
:102110004037062817D2FA68634B9A4213D2082137
:1021200002200CF04FFF206202202870606C0078C3
:1021300001283CD1A0690090A06C00680379C278A6
:1021400081785AA025E0072817D23869674A90425B
:1021500013D2162102200CF035FF206202202870D5
:10216000606C0078012822D1A0690090A06C006802
:102170000379C27881785E480BE0A161606C0078D9
:10218000012814D10091A06C00680379C27881788D
:10219000584828F0E1FE0AE01EE0E98E4018606130
:1021A00005E0807A012802D100206061A061206AE8
:1021B000002831D00220B0774F4813E02878010181
:1021C000091A4E480918206A0BF0AAFB0127401C87
:1021D00003D000202062B7771EE0E98E2069884294
:1021E00002D9401A206117E00020206228780CF004
:1021F000DBF8B777606C007801280DD128780101F1
:10220000091A3E4808180090A06C00680379C2784B
:1022100081783BA028F0A0FE0020C043FEBD000056
:10222000E4120020400400207C1B00206C180020D9
:1022300053656E64696E674661696C2D48696768AD
:102240005072696F726974795F436F6E6E496E6424
:102250006578000053656E64696E674661696C005D
:10226000253032643A253032643A253032643A20DF
:102270004150505F4750535F547261636B65725FAA
:10228000546370436C69656E743A204368616E678D
:1022900065207374617465205B25645D0A0000002D
:1022A000C0270900E0DF030890B20800253032643F
:1022B0003A253032643A253032643A204150505F3A
:1022C0004750535F547261636B65725F5463704330
