:020000040800F2
:10C8000018330020B9CA0008AD110108C3CA0008D6
:10C81000B1110108B3110108B511010800000000B1
:10C82000000000000000000000000000B711010837
:10C83000B911010800000000BB11010871100108C6
:10C84000E3CA0008E3CA0008E3CA0008E3CA000814
:10C85000E3CA0008E3CA0008E3CA0008E3CA000804
:10C86000E3CA0008E3CA0008E3CA0008E3CA0008F4
:10C87000E3CA0008E3CA0008E3CA0008E3CA0008E4
:10C88000E3CA0008E3CA0008E3CA0008E3CA0008D4
:10C89000E3CA0008E3CA0008E3CA0008BF0E0108A3
:10C8A000E3CA0008E3CA0008E3CA0008E3CA0008B4
:10C8B000190E0108E3CA0008E3CA0008E3CA000829
:10C8C000E3CA0008E3CA0008E3CA0008E3CA000894
:10C8D000E3CA0008E3CA0008A30F0108D10F01084A
:10C8E000E3CA0008E3CA0008E3CA0008E3CA000874
:10C8F000E3CA0008E3CA0008E3CA0008E3CA000864
:10C90000E3CA0008E3CA0008E3CA0008E3CA000853
:10C91000FF0F010837100108E3CA0008E3CA000846
:10C92000E3CA0008E3CA0008E3CA0008E3CA000833
:10C93000DFF80CD021F06AFF004800476B070108C0
:10C94000183300200CB50022019200925248016871
:10C9500041F4803101604FF4A063016801F40031BB
:10C9600000910199491C0191009911B901999942CD
:10C97000F3D10168890302D50121009100E0009202
:10C980000099012930D145490A6842F010020A6035
:10C990000A6822F003020A600A6842F002020A6092
:10C9A0004168416041684160416841F48061416093
:10C9B000416821F47C114160416841F4E811416013
:10C9C000016841F08071016001688901FCD541680E
:10C9D00021F003014160416841F00201416041687A
:10C9E000C1F381010229FAD10CBDABE710B52A4889
:10C9F000016841F0010101604168294A114041602C
:10CA00000168284A11400160016821F48021016019
:10CA1000416821F4FE0141604FF41F018160FFF77E
:10CA2000E4FF21494FF00060086010BD10B51A4ABC
:10CA3000506800F00C011D4B1D4800290ED0042940
:10CA40000ED008290ED003605168194AC1F30311B2
:10CA5000121D515C0268CA40026010BD0360F3E71A
:10CA60000360F1E7516801F47011536803F48033F7
:10CA7000022404EB914133B153689B0307D50D4B5E
:10CA800059430160E0E70B4B59430160DCE7074B7A
:10CA900059430160D8E70000001002400020024026
:10CAA0000000FFF8FFFFF6FE08ED00E000127A003C
:10CAB0000000002000093D000A4880470A4800475E
:10CAC000FEE71EF0040F0CBFEFF30880EFF30980C0
:10CAD00004F074BBFEE7FEE7FEE7FEE7FEE7FEE7D5
:10CAE000FEE7FEE7EDC9000831C9000810B51AF0ED
:10CAF0001DF94FF4803420461AF031F91AF05DF92F
:10CB0000012822D1102019F0ABFB022019F098FB6C
:10CB100000201AF08CF900201AF097F9A0111AF0F1
:10CB20008DF94FF4E01120461AF06AF901201AF04D
:10CB30006FF939201AF02CF90028FAD002201AF0E7
:10CB40006AF91AF06FF90828FBD110BD7FB50121F1
:10CB500008461AF019FA4FF0804528461AF0BAFB39
:10CB600040F2CF71ADF8081040F26711ADF8041033
:10CB70000024ADF80A40ADF8064001A928461AF095
:10CB800091FC012128461BF0A8F9012211462846F4
:10CB90001AF073FF012128461AF055FF4FF4407038
:10CBA00018F0C4FF1C208DF8000004208DF801004F
:10CBB0008DF8024001208DF80300684618F0BBFF95
:10CBC0007FBD3EB5012108201AF0DEF9B24C2046A7
:10CBD0001AF080FB44F61F61ADF8041040F60F61B7
:10CBE000ADF800100021ADF80610ADF8021069464E
:10CBF00020461AF057FC002120461AF024FF00219D
:10CC000020461BF041F9012120461BF066F9012165
:10CC100020461AF018FF3EBD3EB5012110201AF043
:10CC2000B3F99E4C20461AF055FB44F61F61ADF84F
:10CC3000041040F60F61ADF800100021ADF80610A9
:10CC4000ADF80210694620461AF02CFC002120465F
:10CC50001AF0F9FE002120461BF016F901212046AA
:10CC60001BF03BF9012120461AF0EDFE3EBD10B548
:10CC7000FFF7A7FFBDE8104013F045BD10B5FFF763
:10CC8000CBFFBDE8104013F042BD10B5044645F29D
:10CC900055501AF02DF806201AF02DF840F6FF70C6
:10CCA0001AF02CF81AF02DF81AF030F87C492160AF
:10CCB00010BD2DE9FE4300247A4E96F83900000796
:10CCC00001D579A000E07EA00090706990F82E0058
:10CCD000012816D0706990F82E00032813D07069CF
:10CCE00090F82E00022810D0706990F82E000428C9
:10CCF0000DD078A3794D2A6896F85B0048B178A1E9
:10CD000008E07BA3F6E77CA3F4E77DA3F2E77EA32C
:10CD1000F0E783A185A021F0E9FF904B90A09A1F36
:10CD200002F1180121F0E2FF5036317A94A021F08F
:10CD3000DDFFB17A99A021F0D9FF5A499EA05C315C
:10CD400021F0D4FF3168A3A021F0D0FFF079503E4C
:10CD500001281AD0A7A1A9A021F0C8FF286A818DB7
:10CD6000B022ADA021F0C2FF96F83500000612D522
:10CD7000286A90F82E00400609D5306FF16E326FA8
:10CD8000411AACA021F0B2FF0CE0B3A1E3E7B4A0DC
:10CD900021F0ACFF06E0306FF16E326F411AA5A0B2
:10CDA00021F0A4FF96F8690020B196F86910B3A0AD
:10CDB00021F09CFF96F8350000070FD5B6A021F0B2
:10CDC00095FF3069407910B1BBA021F08FFF306929
:10CDD000007930B1BFA021F089FF02E0C4A021F0AA
:10CDE00085FFB6F84820B068C189C9A021F07EFF50
:10CDF000F16CCEA021F07AFF96F8380010F00C0FFD
:10CE00000DD0D2A021F072FF96F8380010F0300F4C
:10CE10000DD096F83800400605D5D5A104E0D7A07E
:10CE200021F064FF03E0DEA1E0A021F05FFF96F8AF
:10CE3000340000F0070002280CD096F8340000F00F
:10CE4000070001280FD096F8340000F007000328EF
:10CE500012D01AE2DCA021F049FF286A016BE4A09D
:10CE600021F044FF11E2E9A021F040FF286A016BA4
:10CE7000DFA021F03BFF08E2EEA021F037FF286A97
:10CE8000016BDBA021F032FFF648818DF6A021F086
:10CE90002DFF96F84A10F5E1000C0040001000400C
:10CEA000036D0208E805002072756E206173206131
:10CEB000646D696E6973747261746F720000000052
:10CEC00072756E206173206E6F726D616C20757368
:10CED00065720000554E4B4E4F574E0068070020BC
:10CEE000323031352076657273696F6E0000000054
:10CEF00052455354494E470053544F5050454400F7
:10CF000052554E4E494E470052554E4E494E4720BF
:10CF1000494E204F564552535045454400000000AD
:10CF20004F6C642076657273696F6E005B564E2D90
:10CF300045542047505320547261636B65722054EE
:10CF400047313032202573202D202573202D2025B8
:10CF500073202D2025735D0A000000004A00002088
:10CF600056657273696F6E202020202020202020BB
:10CF70002020203A20257325732E25730A000000F7
:10CF800052657374617274206E756D6265722020D3
:10CF90002020203A2025640A000000004175746FAB
:10CFA0002072657374617274202020202020203A42
:10CFB0002025640A000000004C61737420726573C0
:10CFC00074617274202020202020203A2025730ACA
:10CFD0000000000052756E6E696E672074696D65A1
:10CFE000202020202020203A202564202868290A9B
:10CFF00000000000756E7361666500004465766927
:10D000006365207374617475732020202020203A9A
:10D010002025730A0000000054656D70657261740C
:10D0200075726520202020202020203A20256425AC
:10D0300063430A004D656D6D6F7279287573616782
:10D04000652F43617029203A2025642F256420280C
:10D050004D42290A0000000073616665000000006F
:10D0600053442063617264206973206E6F74206979
:10D070006E736572746564210A0000004D4F4E495D
:10D08000544F52494E472020202020202020203A73
:10D090002025640A0000000042757A7A657220201B
:10D0A00020202020202020202020203A20696E20CF
:10D0B0007573650A00000000416C61726D20436F5A
:10D0C0006E74692044726976696E673A204F6E0A01
:10D0D00000000000416C61726D204F766572207314
:10D0E000706565642020203A204F6E0A0000000021
:10D0F00042757A7A6572202020202020202020206E
:10D100002020203A206E6F74207573650A0000009D
:10D11000534D5320636F756E74657220202020205C
:10D120002020203A2025642F25640A004279746566
:10D13000436F6E7574657220202020202020203AD5
:10D14000202564202862797465290A004D65617381
:10D150007572652076656C6F636974792020203A5A
:10D16000204261736564206F6E204750530A0000AF
:10D1700020436C65616E6572000000004D6561734F
:10D180007572652076656C6F636974792020203A2A
:10D190002050756C7365207369676E616C0A0000BE
:10D1A0006F757420436C65616E65720050756C73A9
:10D1B0006520636F756E74657220776974682825C1
:10D1C0007329200A0000000052533233325F3120AD
:10D1D00020202020202020202020203A20496E736B
:10D1E00074616C6C6564205A4D63616D0A000000C7
:10D1F0004261756452617465202020202020202027
:10D200002020203A2025640A0000000052533233C7
:10D21000325F312020202020202020202020203A92
:10D2200020496E7374616C6C656420463530300A39
:10D230000000000052533233325F31202020202082
:10D24000202020202020203A20496E7374616C6CCD
:10D250006564206C6576656C2073656E736F720A09
:10D26000000000007C080020496E74657276616CD5
:10D2700020726571756573742020203A2025640A38
:10D280000000000076A021F031FD7C48C17A11B188
:10D290007BA021F02BFD286A90F82E00400703D5D3
:10D2A0007EA021F023FD02E083A021F01FFD286A6B
:10D2B0000068407C18B187A021F018FD02E08CA026
:10D2C00021F014FDE869418D90A021F00FFD286A3E
:10D2D000008920F0AFFF954FDFF854823A4643466D
:10D2E00020F031FF2A6AB2F808C002460B466146B8
:10D2F00090A021F0FBFC286A408920F09BFF3A4671
:10D30000434620F020FF2A6A578902460B463946D9
:10D3100092A021F0EBFC286A828C286A416999A0CE
:10D3200021F0E4FC286AC28C286AC1699CA021F023
:10D33000DDFC5249A1A09F3921F0D8FC4F49A6A09D
:10D340007B3921F0D3FC4D49AAA0743921F0CEFCE1
:10D350004A49AFA0643921F0C9FCA968B3A0523191
:10D3600021F0C4FCA86890F8630060B1A86890F848
:10D370006310B5A021F0BAFCA86890F86210B9A0BB
:10D3800021F0B4FC02E0BEA021F0B0FCA868406827
:10D390000078002821D0C4A021F0A8FCA86841682A
:10D3A000C9A0491C21F0A2FCA8684068007E0228A0
:10D3B0000BD0CCA021F09AFCA8684068407E0228DF
:10D3C00007D0D1A021F092FC0AE0D8A021F08EFC79
:10D3D000F2E7DEA021F08AFC02E0E4A021F086FC66
:10D3E0006868C07D18B1EAA021F080FC02E0EFA0DF
:10D3F00021F07CFC6868017DF4A021F077FC706965
:10D400004068007800282AD0706940680178F6A04A
:10D4100021F06CFCFBA021F069FC7069416804F10B
:10D420000800095CFDA021F061FC641CE4B2082C3A
:10D43000F3D327A021F05AFC70694168F9A0243188
:10D4400021F054FC7069406890F83D0071694968AA
:10D4500091F83C107269526892F83B20F0E12CE29E
:10D4600045585452533233325F315F53746174758F
:10D470007320203A2025640A00000000AC08002038
:10D48000546F74616C2043616D65726120202020AF
:10D490002020203A2025640A000000004143432058
:10D4A0002020202020202020202020202020203A62
:10D4B000204F6E0A0000000041434320202020201E
:10D4C00020202020202020202020203A204F666687
:10D4D0000A000000444F4F5220202020202020200E
:10D4E000202020202020203A204F70656E0A000066
:10D4F000444F4F5220202020202020202020202078
:10D500002020203A20436C6F73650A004675656CD5
:10D510002056616C20202020202020202020203A2E
:10D52000202564286D6D290A0000000056F146E6AA
:10D53000913F683F4144432031202020202020207B
:10D54000202020202020203A202564203C2D3E2031
:10D5500025322E336620560A000000004144432045
:10D560003220202020202020202020202020203A8F
:10D57000202564203C2D3E2025322E336620560A7D
:10D580000000000050756C736520312F463120205B
:10D59000202020202020203A2025642F25640A0006
:10D5A00050756C736520322F4632202020202020B9
:10D5B0002020203A2025642F25640A0053657276C6
:10D5C0006572204950206164647220202020203A36
:10D5D0002025730A000000005365727665722050A2
:10D5E0006F7274206E756D626572203A2025730A21
:10D5F0000000000055736572204950206164647218
:10D60000202020202020203A2025730A000000003E
:10D610005573657220506F7274206E756D626572FD
:10D620002020203A2025730A0000000047534D2097
:10D63000494D454920202020202020202020203A2C
:10D640002025730A0000000047534D206E65747753
:10D650006F726B206E616D652020203A2025640A70
:10D660000000000047534D207369676E616C2073A2
:10D670007472656E6774683A2025640A00000000C1
:10D680004E6574776F726B206E616D65202020206F
:10D690002020203A204E6F7420726567697374658C
:10D6A0007265640A00000000475052532020202079
:10D6B00020202020202020202020203A2061766178
:10D6C000696C61626C650A004C6F63616C20495043
:10D6D00020202020202020202020203A2025730AEE
:10D6E00000000000436F6E6E656374696F6E2030DA
:10D6F000202020202020203A206E6F7420636F6E3F
:10D700006E65637465640A00436F6E6E6563746969
:10D710006F6E2031202020202020203A206E6F7450
:10D7200020636F6E6E65637465640A00436F6E6E8E
:10D73000656374696F6E2030202020202020203AFD
:10D7400020636F6E6E65637465640A00436F6E6E6E
:10D75000656374696F6E2031202020202020203ADC
:10D7600020636F6E6E65637465640A0047505253A0
:10D770002020202020202020202020202020203A8F
:10D78000206E6F7420617661696C61626C650A005D
:10D79000475053207369676E616C20202020202041
:10D7A0002020203A20476F6F640A00004750532022
:10D7B0007369676E616C2020202020202020203A91
:10D7C000206E6F7420676F6F640A00005361746588
:10D7D0006C6C69746573206E756D62657220203A99
:10D7E0002025640A00000000447269766572204FAB
:10D7F00072646572202020202020203A2025640AAF
:10D800000000000044726976657220546167202030
:10D81000202020202020203A2000000025303278CF
:10D8200000000000447269766572204C6963656E81
:10D83000736520202020203A2025730A0000000074
:10D84000CDE9002102907069406890F83A30706923
:10D85000406890F839207069406890F838105DA0F1
:10D8600021F044FA7069406890F84310706940688C
:10D8700090F842207069406890F84100CDE901219C
:10D8800000907069406890F840307069406890F886
:10D890003F207069406890F83E1058A021F026FAA9
:10D8A00070694068C18E5FA021F020FA70694068FD
:10D8B000818E64A021F01AFA02E06AA021F016FA23
:10D8C0007069018C70A021F011FA7069816A03B04F
:10D8D00075A0BDE8F04321F009BA10B57AA021F097
:10D8E00005FA3B217FA021F001FA642187A021F0F5
:10D8F000FDF930218FA021F0F9F95C2197A021F0EA
:10D90000F5F92021A0A021F0F1F92421A9A021F00E
:10D91000EDF92421B2A021F0E9F99321BBA021F077
:10D92000E5F90C21C3A021F0E1F90C21CBA021F0F5
:10D93000DDF92821D3A021F0D9F97821DBA021F04D
:10D94000D5F97821E3A021F0D1F93B2165A021F0A0
:10D95000CDF9BDE810400621E8A021F0C7B9FEB519
:10D960000024F04D95F85B00002801D0EEA100E006
:10D97000EFA1F1A021F0BAF9F4A021F0B7F9F84B2A
:10D98000F8A09A1F02F1180121F0B0F995F83900BA
:10D99000000702D5AFF6F02101E0AFF6DC21F8A0D8
:10D9A00021F0A4F9FB4E706800680079716809687D
:10D9B000C978726812689278CDE900210290706887
:10D9C0004068037970684068C27870684068817800
:10D9D000E2E1000053746172742054726970202077
:10D9E000202020202020203A20256325633A25632B
:10D9F00025633A256325630A0000000046696E69C5
:10DA00007368205472697020202020202020203A42
:10DA100020256325633A256325633A256325630A38
:10DA200000000000546F74616C2044726976696E66
:10DA3000672074696D65203A20256420286D696E21
:10DA4000290A0000436F6E742044726976696E671C
:10DA50002074696D6520203A20256420286D696E48
:10DA6000290A00004472697665722054616720209B
:10DA7000202020202020203A206E6F7420617661C3
:10DA8000696C61626C650A0052657374656420207C
:10DA900020202020202020202020203A2025642023
:10DAA000286D696E290A000044697374616E6365AC
:10DAB00020202020202020202020203A2025642003
:10DAC000286D290A00000000434845434B20534974
:10DAD0005A45204F46204441544120545950455303
:10DAE0000A0000002D2053697A65206F6620746754
:10DAF0003130327061636B6167655F6465662020F9
:10DB0000202020203A2025640A0000002D2053699F
:10DB10007A65206F66204472697665725F64656617
:10DB20002020202020202020202020203A20256492
:10DB30000A0000002D2053697A65206F6620566523
:10DB40006869636C655F6465662020202020202062
:10DB5000202020203A2025640A0000002D2053694F
:10DB60007A65206F66204472697665724D73675FCF
:10DB70006465662020202020202020203A20256473
:10DB80002B31390A000000002D2053697A65206F7F
:10DB9000662053746F704D73675F64656620202044
:10DBA00020202020202020203A2025642B31390AF3
:10DBB000000000002D2053697A65206F6620446FB5
:10DBC0006F724D73675F64656620202020202020DF
:10DBD000202020203A2025642B31390A0000000043
:10DBE0002D2053697A65206F662053686966744DED
:10DBF00073675F646566202020202020202020207D
:10DC00003A2025642B31390A000000002D20536989
:10DC10007A65206F662053506565644D73675F6455
:10DC20006566202020202020202020203A20256406
:10DC30000A0A00002D2053697A65206F6620546916
:10DC40006D655F6465662020202020202020202034
:10DC5000202020203A2025640A0000002D2053694E
:10DC60007A65206F6620446174655F646566202074
:10DC70002020202020202020202020203A20256441
:10DC80000A0000002D2053697A65206F66205265D6
:10DC900071756573744D616E6167656D656E745FF6
:10DCA000646566203A2025640A0000002D2053692F
:10DCB0007A65206F662053797374656D4D616E616E
:10DCC0006765725F64656620202020203A20256405
:10DCD0000A0000002D2053697A65206F662046698E
:10DCE0006C654D616E6167656D656E745F646566D8
:10DCF000202020203A2025640A0000002D205369AE
:10DD00007A65206F66207374617469737469635FE8
:10DD10007461626C655F6465662020203A2025642A
:10DD20000A0A0000E80500203A32303135000000D0
:10DD30003A323031310000000A0D5B564E45542016
:10DD4000544731303225735D0A0000005B5553495A
:10DD50004E4720534420434152445D0A00000000D6
:10DD60004A00002056657273696F6E2020202020C3
:10DD700020203A20257325732E25730A0000000009
:10DD800053656375726974792020202020203A2021
:10DD900025730A00680700206FA020F0A7FF95F800
:10DDA00058107AA020F0A2FFA6F592717CA020F076
:10DDB0009DFF70684168A6F5927051F8052F0260CA
:10DDC000898881807168096851F8052FC0F806209C
:10DDD00089884181784BA0F15C0278211B684FF45F
:10DDE0009650984775A020F081FF95F869000128AA
:10DDF00018D095F86900022818D095F86900032812
:10DE000018D095F86900042818D095F869000A28F8
:10DE100018D095F86900082818D095F869000B28E3
:10DE200018D01AE068A020F061FF16E071A020F081
:10DE30005DFF12E07BA020F059FF0EE086A020F0ED
:10DE400055FF0AE092A020F051FF06E0A0A020F0CC
:10DE50004DFF02E0ADA020F049FFB5F84830A868BA
:10DE6000C28995F83900C0F34001B4A020F03EFF0C
:10DE700095F8380010F00C0F0ED0BBA020F036FF44
:10DE800095F85500002851D0C3A020F02FFF95F839
:10DE90005500022804D03CE0C5A020F027FFEFE7A2
:10DEA000D24EF07A002834D0D1A020F01FFFF17AB2
:10DEB000D1A020F01BFFF07A012801D9022100E057
:10DEC0000121D7A020F012FFB17ADFA020F00EFFD1
:10DED000F17EE7A020F00AFF717FEFA020F006FF9F
:10DEE00096F82410F6A020F001FF708C3C21B0FBC6
:10DEF000F1F2B0FBF1F301FB1207308C0097B0FB9D
:10DF0000F1F201FB1202B0FBF1F1F7A020F0EEFEFE
:10DF10000CE095F85510B5483038032917D095F81E
:10DF20005510012914D0FCA020F0E0FEFEA020F046
:10DF3000DDFE68694068007800280AD0686940689A
:10DF400090F85C00012805D068694068F4E16BE254
:10DF50006FE282E272E20000446174652F74696DC1
:10DF60006520202020203A20253032642F253032B1
:10DF7000642F323025303264202D20253032643A2F
:10DF8000253032643A253032640A000052657374D9
:10DF9000617274206E756D6265723A2025640A00A4
:10DFA0004C617374207265737461727420203A201E
:10DFB00025730A0A000000002C0100204348454355
:10DFC0004B204D4F44450A002D204D4F4E49544F94
:10DFD000522020202020202020202020202020200F
:10DFE00020202020202020203A2047534D207461FB
:10DFF000736B0A002D204D4F4E49544F5220202064
:10E000002020202020202020202020202020202010
:10E01000202020203A205143564E33312074617322
:10E020006B0A00002D204D4F4E49544F52202020A6
:10E0300020202020202020202020202020202020E0
:10E04000202020203A205061636B6167696E672051
:10E050007461736B0A0000002D204D4F4E49544FE0
:10E06000522020202020202020202020202020207E
:10E0700020202020202020203A2053746174652025
:10E08000636865636B696E67207461736B0A000077
:10E090002D204D4F4E49544F52202020202020202B
:10E0A0002020202020202020202020202020202070
:10E0B0003A20416363657373696E6720544731305A
:10E0C000322773206D656D207461736B0A00000048
:10E0D0002D204D4F4E49544F5220202020202020EB
:10E0E0002020202020202020202020202020202030
:10E0F0003A20446F776E6C6F6164206669726D7749
:10E10000617265207461736B0A0000002D204D4F11
:10E110004E49544F52202020202020202020202013
:10E120002020202020202020202020203A20436171
:10E130006D657261207461736B0A00002D20534D70
:10E140005328526573706F6E73652F5468726573D0
:10E15000686F6C642F757365642920203A202564EC
:10E160002F25642F25640A002D204D65617375727B
:10E17000652076656C6F63697479202020202020EB
:10E1800020202020202020203A2042617365642036
:10E190006F6E204750530A00434845434B2052536B
:10E1A00032333220534552564943450A000000009D
:10E1B0002D204D6561737572652076656C6F63699E
:10E1C00074792020202020202020202020202020A2
:10E1D0003A204261736564206F6E2070756C7365C0
:10E1E000207369676E616C0A00000000AC080020B3
:10E1F00043414D4552410A002D20546F74616C20FB
:10E2000043616D6572612072756E6E696E67202064
:10E2100020202020202020203A2025640A00000011
:10E220002D204B696E64206F6620484C2043616D41
:10E230006572612020202020202020202020202006
:10E240003A20253031640A002020207C5F54696D1B
:10E250006520496E74657276616C20286D696E75F3
:10E2600074657329202020203A2025640A000000CC
:10E270002020207C5F466F72206576656E74732067
:10E28000202020202020202020202020202020208E
:10E290003A20307825780A002020207C5F54696D70
:10E2A00065206C6174656E63792020287365636FE7
:10E2B0006E647329202020203A2025640A00000083
:10E2C0002020207C5F53746174652043616D65720A
:10E2D0006120447269766572202020202020202051
:10E2E0003A2025640A0000002020207C5F616C6CCD
:10E2F0006F7765642066726F6D20253032643A2531
:10E300003032643A303020746F20253032643A2540
:10E310003032643A30300A002D204E6F207365761B
:10E320006963650A00000000434845434B2044529E
:10E33000495645520A00000090F85C00022871D04E
:10E340006869406890F85C0003287DD0BDA1C0A03A
:10E3500020F0CCFC6869406890F85C00012875D01A
:10E36000C5A26869406890F83300022871D06869D6
:10E37000406890F8330001286DD0C0A1C4A020F0FF
:10E38000B5FCCEA020F0B2FC6869416804F1080039
:10E39000095CAFF6783020F0A9FC641CE4B2082CCC
:10E3A000F2D3AFF2503020F0A1FC6869406890F8D9
:10E3B0003D006969496891F83C106A69526892F8B1
:10E3C0003B20CDE9002102906869406890F83A301E
:10E3D0006869406890F839206869406890F838109A
:10E3E000BFA020F083FC6869406890F8431068691A
:10E3F000406890F842006A69526892F84120CDE97D
:10E40000002002916869406890F84030686940686F
:10E4100090F83F206869406890F83E10BDA020F059
:10E4200065FCFEBD0EE00FE0818DC7A020F05EFC14
:10E430007CE5818DCFA020F059FC77E5D8A186E757
:10E4400004E006E0DAA182E7DDA180E7AFF21C720A
:10E4500087E7DFA192E7E4A190E7BDE8FE40E8A0EE
:10E4600020F044BC2DE9FE430024E94E706990F889
:10E470002E0001284FD0706990F82E0003284DD04F
:10E48000706990F82E0002284BD0706990F82E0029
:10E49000042849D0DF4AE04DA968E0A0523120F0BD
:10E4A00025FCE94F3989E9A020F020FC7989EEA00C
:10E4B00020F01CFC96F86900122838D0F1A1F2A0D7
:10E4C00020F014FC316CF7A020F010FCAFF62860AF
:10E4D00020F00CFCA8684168491CAFF6146020F0DD
:10E4E00005FCA8684068007E022822D0AFF60C60C8
:10E4F00020F0FCFBA8684068407E02281ED0AFF6E2
:10E50000F85020F0F3FB6868C07D00281BD0ECA019
:10E5100020F0ECFB1AE0BF4A1C32BCE7BD4A2432B3
:10E52000B9E7BC4A2C32B6E7BA4A3432B3E7EAA1BB
:10E53000C5E7AFF6086020F0D9FBDBE7AFF6F45093
:10E5400020F0D4FBDFE7E6A020F0D0FB6868017D77
:10E55000EAA020F0CBFB68688068006888B11DF0F5
:10E56000AAFF0278686880680068037896F8380027
:10E5700010F00C0F01D0E6A100E0E7A1E8A020F028
:10E58000B5FB96F85500032809D1EB48418DEBA067
:10E5900020F0ACFB96F84A10EF4820F0A7FB286A61
:10E5A00000891FF047FEED4FDFF8B4833A4643463B
:10E5B0001FF0C9FD2A6AB2F808C00246E6480B46B9
:10E5C0006146D43020F092FB286A40891FF032FE69
:10E5D0003A4643461FF0B7FD2A6A57890246DE488D
:10E5E0000B463946FC3020F081FB286A828C286A71
:10E5F0004169DCA020F07AFB286AC28C286AC169D4
:10E60000DFA020F073FB286A90F82E00C00701D02D
:10E61000E2A100E0E2A1E3A020F068FB286A90F804
:10E620002E00400701D5DDA100E0DDA1E4A020F02F
:10E630005DFB286A90F82E00800601D5D7A1CFE1B6
:10E64000CCE10000445F554E4B4E4F570000000098
:10E650002D2054726970202020202020202020208E
:10E660002020202020202020202020202020203A90
:10E670002025730A0000000030000000535441546C
:10E68000455F4452495645525F554E4B4E4F5700D9
:10E690002D204472697665722020202020202020C1
:10E6A0002020202020202020202020202020203A50
:10E6B000202573282573290A000000002D204472AC
:10E6C0006976657220546167202020202020202058
:10E6D00020202020202020202020203A2000000080
:10E6E0002D20537461727420547269702020202090
:10E6F0002020202020202020202020202020203A00
:10E7000020256325633A256325633A256325630A3B
:10E71000000000002D2046696E69736820547269FC
:10E720007020202020202020202020202020202099
:10E730002020203A20256325633A256325633A2566
:10E740006325630A000000002D204675656C204C8F
:10E750006576656C53656E736F72202020202020D3
:10E7600020202020202020203A2025642873290AF8
:10E77000000000002D204675656C20556C74726198
:10E78000536F6E696353656E736F72202020202073
:10E79000202020203A2025642873290A0000000048
:10E7A000445F53544152545F415F545249500000FA
:10E7B000445F50415553455F415F545249500000FA
:10E7C000445F46494E4953485F415F5452495000A7
:10E7D00053544154455F4452495645525F4452494F
:10E7E00056494E470000000053544154455F44527F
:10E7F000495645525F52455354494E470000000068
:10E800002D204E6F206472697665720A0000000048
:10E81000E8050020D4CE0008680700205B5447318B
:10E8200030322D547261636B65722C20496E7374A3
:10E83000616E7420766965776572202D20257320BE
:10E840002D2025735D0A00001400002053746963B5
:10E850006B31205461736B2072756E6E696E673A0E
:10E860002025640A00000000537469636B32205451
:10E8700061736B2072756E6E696E673A2025640A4B
:10E88000000000006F66660044617461206C6F6771
:10E8900067657220202020202020203A2025730A3E
:10E8A0000000000053797374656D2D3E53757370CD
:10E8B000656E64202020203A20307825780A0000F8
:10E8C000475053207369676E616C202020203A20E6
:10E8D000476F6F640A00000077726974696E6700A1
:10E8E000475053207369676E616C202020203A20C6
:10E8F0006E6F7420676F6F640A0000005361746567
:10E900006C6C69746573202020203A2025640A000D
:10E91000202067707300000070756C736500000044
:10E9200053706565642028257329282530326429B1
:10E9300020203A2025640A007C080020414443201E
:10E9400066726F6D204675656C2073656E73203A34
:10E950002025640A0000000060D4000856F146E655
:10E96000913F683F50756C736531436E742F46312B
:10E97000202020202020203A2025642F25640A0012
:10E9800050756C736532436E742F46322020202000
:10E990002020203A2025642F25640A004F4E0000D5
:10E9A0004F46460050414E49432020202020202041
:10E9B000202020202020203A2025730A000000007B
:10E9C0005665414343202020202020202020202065
:10E9D0002020203A2025730A00000000AFF24001F9
:10E9E000EDA020F083F9286A90F82E00C00602D529
:10E9F000AFF2580101E0AFF25801EEA020F076F935
:10EA0000286A90F82E00800701D5F1A100E0F2A15C
:10EA1000F3A020F06BF9286A90F82E00000702D5C9
:10EA2000AFF2880101E0AFF28801F4A020F05EF9B6
:10EA3000286A90F82E00400601D5F7A100E0F9A160
:10EA4000FAA020F053F97069406890F85C00012842
:10EA50007ED07069406890F85C00022879D07069B7
:10EA6000406890F85C00032874D0AFF22841F6A00B
:10EA700020F03CF970694068007800286FD0706918
:10EA8000406890F85C00012866D0AFF214427069CB
:10EA9000406890F8330002287CD07069406890F894
:10EAA0003300012877D0AFF22C41EEA020F01EF900
:10EAB000F44820F01BF97069416804F10800095C12
:10EAC000F048183020F012F9641CE4B2082CF2D39C
:10EAD000AFF2002020F00AF97069406890F83D001C
:10EAE0007169496891F83C107269526892F83B204C
:10EAF000CDE9002102907069406890F83A30706961
:10EB0000406890F839207069406890F83810DE4805
:10EB100020F0ECF87069406890F843107069406824
:10EB200090F842007269526892F84120CDE90020C5
:10EB300002917069406890F840307069406890F8C0
:10EB40003F207069406890F83E10CF48283004E0BC
:10EB50001DE021E023E002E024E020F0C7F8706926
:10EB60004068818EC9A020F0C1F8306803887069C0
:10EB7000C28B7069018CCDA020F0B8F87069816AF1
:10EB800003B0C148BDE8F043D43020F0AFB8AFF2D5
:10EB9000F0316CE709E00BE0AFF2EC3167E7AFF280
:10EBA000E03164E7AFF6746271E7AFF2DC317CE725
:10EBB000AFF2CC3179E7FEB5C74D95F86A00C74E84
:10EBC0000024102860D095F86A00002856D0C4A010
:10EBD00020F08CF8286800792968C9782A6892782A
:10EBE000CDE90021029005F5C070416849680B79B4
:10EBF00041684968CA78406840688178C8A020F0B8
:10EC000075F8F188D2A020F071F895F86A000C2808
:10EC10003DD095F86A0001283ED095F86A00022898
:10EC20003FD095F86A00052840D095F86A0006287C
:10EC300041D095F86A00072842D095F86A00082864
:10EC400043D095F86A00092842D095F86A000B284D
:10EC500041D095F86A000D2840D095F86A000E283A
:10EC600040D095F86A000F283FD095F86A000C282C
:10EC700001D085F86A40BBA020F038F8F08880B356
:10EC8000F088401EF080FEBD14F0E8FBF6E7FFF7C9
:10EC9000E9FB08F08AFEF1E785F86A40FEF75FFEBF
:10ECA000E9E708F050FA85F86A40E4E714F012FC4E
:10ECB00085F86A40DFE7FEF710FE85F86A40DAE77C
:10ECC000FDF7F7FF85F86A40D5E716F057FDD2E764
:10ECD0001DF0E8FDCFE71EF01DFFCCE708F07DFE3C
:10ECE000C9E705E01DF051FEC5E704F039F8C2E7B9
:10ECF00085F86A4095F86900122804D070781228C7
:10ED00000CD085F86940A74B734A40F628201B6851
:10ED100003B06932BDE8F04001211847122085F8A0
:10ED20006900F0E710B5A0A01FF0E0FF14F00BFBA6
:10ED3000694CA03494F86400C00702D1606810F0F8
:10ED4000A0FB94F8640040071DD4E06A08B9A06AEB
:10ED500018B1E06AA16A884212D8E068C16849B176
:10ED600010F08FFB95A010F0B0FD014697A01FF0AA
:10ED7000BDFF01E010F085FB0020E062A06202E030
:10ED8000E06810F07EFB94F86400000703D420696B
:10ED900010F077FB28E130E15665416972436F6EF0
:10EDA00020202020202020202020203A2025730A07
:10EDB0000000000056654252414B45202020202093
:10EDC000202020202020203A2025730A0000000067
:10EDD0004F50454E00000000434C4F53450000008B
:10EDE0005665446F6F722020202020202020202094
:10EDF0002020203A2025730A000000005665454E69
:10EE00004720202020202020202020202020203AC1
:10EE10002025730A00000000494E534552544544D2
:10EE2000000000004E4F20434152440053446361B0
:10EE30007264202020202020202020202020203A22
:10EE40002025730A000000005472697020202020E1
:10EE500020202020202020202020203A2025730A56
:10EE60000000000044726976657220202020202076
:10EE7000202020202020203A202573282573290ACD
:10EE80000000000004D80008D4D9000852756E2094
:10EE900074696D6520202020202020202020203A29
:10EEA00020256420286D696E290A0000526573745C
:10EEB0006564202020202020202020202020203AAF
:10EEC00020256420286D696E2920282564203F2094
:10EED0002564290A00000000E80500201400002035
:10EEE0000A2F2D2D2D2D2D2D2D2D2D2D2D2D2D2D73
:10EEF0002D2D2D2D2D2D2D2D2D2D2D2D2D2D2D2D42
:10EF00002D2D2D2D2D2D2D2D2D2D2D2D2D2D2D2D31
:10EF10002D2D2D2D2D2D2D2D2D2D2D2F0A000000C9
:10EF2000446174652F74696D65203A202530326420
:10EF30002F253032642F323025303264202D2025A9
:10EF40003032643A253032643A253032640A0000A7
:10EF50005669657765725F74696D656F75743A207F
:10EF600025640A002F2D2D2D2D2D2D2D2D2D2D2DF0
:10EF70002D2D2D2D2D2D2D2D2D2D2D2D2D2D2D2DC1
:10EF80002D2D2D2D2D2D2D2D2D2D2D2D2D2D2D2DB1
:10EF90002D2D2D2D2D2D2D2D2D2D2D2D2D2D2F0AC2
:10EFA000000000002C0100202D20434C4F53452031
:10EFB000414C4C2046494C45530A0000303A2F4200
:10EFC00041434B55502E42414B0000002D205265CD
:10EFD0006D6F7665202A2E42616B2066696C652014
:10EFE000282564290A000000F7A010F06EFC0146F5
:10EFF000BDE81040F8A01FF079BE10BD10B5FE4C62
:10F000002078002822D0207801282DD1FB4890F8C4
:10F010004010C9070BD090F84010890707D590F829
:10F020004010C90603D590F84000800603D420792B
:10F03000411E217118D2FFF775FE11F003FBF0A0FD
:10F040001FF054FE0220207001F06BFE0D210820FD
:10F0500004F04AFC012020700A2222712178BDE8C8
:10F060001040EBA01FF042BE10BD70B50446E34E49
:10F07000012086F875000025022C00D024B9EE4846
:10F08000416ACD62406A8562204603F065FE2046F3
:10F0900014F0C7F920461DF0CCFA204608F0BFFA5C
:10F0A000E64BE54A41F2563024321B6878219847F6
:10F0B00086F8755070BD2DE9F84300260096DF4DA7
:10F0C00040F67E38DEA22B680121404698472B6827
:10F0D000DCA2012140F628209847C84C01271C34A7
:10F0E00084F84D70A6612B68D7A2082140F6B8308D
:10F0F000984740F6A2392B68D6A20821484698477F
:10F10000207E20F03800207684F83A60207E20F0BF
:10F110000700207684F83960607E20F01000607669
:10F120002B68C8A2012140F6AE309847607E40F0BF
:10F13000080060762B68CAA2072140F6C3309847C2
:10F1400054F8141CC820C881607F40F0020060772A
:10F1500054F8100C86702B68C3A20D2140F69D70E8
:10F16000984704F5D67047711438F02101804FF4A8
:10F17000167141802B68C0A2032140F67430984775
:10F18000207F20F0300010302077207F40F04000BA
:10F1900020772B68B9A2112140F6633098472B687D
:10F1A000B4A201214046984784F83E602B68B8A27B
:10F1B000212140F67F3098472B68A6A208214846B7
:10F1C000984794F83F001C3C3127012806D100974E
:10F1D0002B686A46012140F23C4098478648C07837
:10F1E00040B9266584F857602B68844A78214FF42B
:10F1F000965098470097AF4B6A4601211B6841F62D
:10F200005830984794F8390040F0080084F83900E5
:10F21000606980F82D602B68A7A214214FF4E96083
:10F2200098472B68A9A214214FF4E46098472B68F3
:10F23000ABA2142140F2347098472B68ADA20A218A
:10F2400040F25C709847206B11211EF090FD226BFC
:10F250002B68112141F690209847226B2B681121D1
:10F2600041F6A1209847226B2B68112141F6B2206C
:10F270009847226B2B68112141F6C3209847226BD7
:10F280002B68112141F6D4209847226B2B6811215D
:10F2900041F6E5209847BDE8F88310B5FFF70BFF6E
:10F2A00008F0E6F90020FFF7E0FE14F011FF94A04B
:10F2B0001FF01CFD614B99A20A211B6840F6332008
:10F2C0009847012010BDFEB50024009401940294DB
:10F2D000784B40F211466A461B680A21304698472F
:10F2E000042291A168461EF06FFD30B1042290A166
:10F2F00068461EF069FD002824D18F481FF0F6FCF7
:10F300004E4D5CA201212B6840F6D97098473B48CE
:10F3100080F85B40FFF7C1FF2B6888A20C213046C4
:10F3200098478AA010F0D1FA8DF8000058B18AA150
:10F330008BA01FF0DBFC91A01FF0D8FC06219BA046
:10F340000DF0BEFCFEBD9BA1F2E72DE9F047A6B093
:10F350008046782108A81EF00AFD0026079696A090
:10F36000D0E90023D0E90210CDE90323CDE905104F
:10F3700000242248783090F82410012902D102217B
:10F3800080F824102C48406840680188ADF80010CF
:10F3900081788DF80210C1788DF8031001798DF80D
:10F3A000041041798DF8051081798DF80610C17926
:10F3B0008DF80710017A8DF80810417A8DF8091040
:10F3C000817A8DF80A10FFE0303A2F5049435455A6
:10F3D00052452E4A504700002D2052656D6F7665CC
:10F3E00020504943545552452E4A50472066696C77
:10F3F0006520282564290A0014000020E805002063
:10F400005B434F4D504C455445445D0A0A0A000089
:10F410005B504552464F524D20534156452043556F
:10F420005252454E5420574F524B28256429202DC7
:10F4300020253032645D0A00680700202C0100207E
:10F440003400000031000000302C303032303030D9
:10F4500000000000302C3131353230300000000027
:10F46000312C312C32303000303234302C312C30D1
:10F470003630302C30000000312C3100312C303847
:10F48000302C372C303039302C3031303000000007
:10F4900030303030302C30303031323335392C3060
:10F4A00030352C30303030302C303330302C30315F
:10F4B000300000003001002040303145303030361F
:10F4C0002300000000000000000000004030314236
:10F4D000303131333523000000000000000000000F
:10F4E000403031433031313336230000000000001A
:10F4F00000000000323500000000000000000000A5
:10F500002D2D3E2046696E697368206465666175BD
:10F510006C742073657474696E670A005F2A5F2AD1
:10F520005F2A5F2A5F0A0000564E45540000000023
:10F5300054544153000000004CFA02085447313043
:10F54000323A323031310A00000000005245535443
:10F550004F52452E42494E004641554C5400000042
:10F560002D2D3E2044656C65746520524553544FE3
:10F5700052452E42494E3A2025730A002D2D3E2039
:10F58000546865206465766963652077696C6C20D2
:10F5900062652072657374617274656420696E209F
:10F5A0007365636F6E64730A000000002357303088
:10F5B0002E2A00004F4B0000303A2F3030303030D0
:10F5C000302E545854000000C07A8DF80B009DE88E
:10F5D000070003AB03F092FB03A81EF0E5FB024615
:10F5E000FD4803A982461EF0EFFBFB4D663D68B166
:10F5F000012403A81EF0D8FB024603A950461EF0C2
:10F600009DFB5146F5A01FF071FB09E0302005F885
:10F61000660F3A2068702F20A8706E73AE73663D37
:10F6200022464146F4A01FF061FBFE4F97F83500DB
:10F63000000603D5082001F0AAFE18B197F835009E
:10F6400000066ED4082001F0A2FE60B1F6A01FF003
:10F650004DFBDFF88493B8F1000F09F1030906D0E0
:10F66000012C79D08CE0F3A01FF040FBF1E70020E3
:10F670001AF015FE6862686A4FF0FF0830B1A5F80D
:10F680006480696AEFA01FF031FBD2E00122F4A18F
:10F69000F4480FF02EFC6862686A30B1A5F8648007
:10F6A000696AF1A01FF022FBC3E0F6A01FF01EFB69
:10F6B0001322514668680FF049FC0146002931D0F9
:10F6C00095F8640040F0010085F86400F3A01FF095
:10F6D0000DFB1322AFF21C71E8680FF037FC0146F6
:10F6E00000292DD095F8640040F0040085F86400EE
:10F6F000F1A01FF0FBFA97F83500C006C5D513221C
:10F70000AFF23C3128690FF021FC014649B395F86E
:10F71000640040F0080085F86400EFA01FF0E6FAEE
:10F7200087E0A8E095F8640020F0010085F8640007
:10F7300068680FF059FE4946EFA01FF0D7FAC8E7F6
:10F74000E8680FF051FE95F8640020F0040085F899
:10F750006400E868C16800E010E0EDA01FF0C6FAA0
:10F76000C9E728690FF040FE95F8640020F0080012
:10F7700085F86400EDA01FF0B9FA5AE01CF09DFE78
:10F7800013F0E1FD68680FF07CFE132251466868B3
:10F790000FF0DCFB68B195F8640040F0010085F8DB
:10F7A000640000F00101BDA01FF0A0FA012C0ED0F2
:10F7B0000FE068680FF018FE95F8640020F0010073
:10F7C00085F864004946DEA01FF090FAEEE71CF0D1
:10F7D000D6FE95F8640040072BD4E86A08B9A86AF9
:10F7E00018B1E86AA96A884223D8EE62AE62E86876
:10F7F000C16851B10FF045FEAFF6400010F065F85A
:10F800000146D6A01FF072FA01E00FF03AFE132273
:10F81000AFF65801E8680FF099FBE8B195F864007D
:10F8200040F0040085F86400C0F38001A2A01FF03E
:10F830005DFAAFF2C033AFF2C432AFF2C831062086
:10F8400000961AF06AFA396FCCA01FF04FFAF96EE1
:10F85000D4A01FF04BFA11E0E8680FF0C5FD95F851
:10F86000640020F0040085F86400E868C168A8A07E
:10F870001FF03CFADDE7D5A01FF038FA95F86400D8
:10F88000C0074BD154B1EE632E646E64AE64EE6477
:10F890002E656E65AE65EE652E663FE068680FF01A
:10F8A000A3FD6868C16878292ED900210FF0FDFDFD
:10F8B00007AB782208A968680FF00AFC064607988B
:10F8C000782809D068680FF0DCFD33467822C5A09F
:10F8D00007991FF00BFA21E0CEA01FF007FA179846
:10F8E000E86318982864199868641A98A8641B98A3
:10F8F000E8641C9828651D9868651E98A8651F987F
:10F90000E8652098286609E0EE632E646E64AE64B4
:10F91000EE642E656E65AE65EE652E66012C02D135
:10F920000320FFF7A2FBC34B2B4A41F25630663A45
:10F930001B687821984726B0BDE8F08770B504466B
:10F94000384D95F86B10002901D113F061FB85F853
:10F950006B40012070BDB8494FF46160C8807047AA
:10F960002DE9F04FD7B00446002655962C214AA821
:10F970001EF0FDF978212CA81EF0F9F9302120A8FD
:10F980001EF0F5F9782102A81EF0F1F9AB4DDFF871
:10F99000949040F67E300CB1844211D12B684AAA73
:10F9A000012198478DF829619DF82801303889F8A0
:10F9B0005A0099F85A00092802D9042089F85A00F7
:10F9C000054F4FF4336AEA370DF594780CB154457E
:10F9D00000D135E17EE10000EE0600202D204372CB
:10F9E000656174652061206E65772066696C6520AD
:10F9F0003A2025730A000000434845434B204558F0
:10FA00005445524E414C204D454D4F5259205B6D4F
:10FA1000203D2025642C20636C656172203D2025EB
:10FA2000645D0A00E80500204E6F20736463617214
:10FA3000640A00002D205573696E6720536463616A
:10FA400072640A002D202A43414E275420494E4912
:10FA50005449414C204449534B2C2025640A000052
:10FA6000303A0000C01100202D202A43414E275477
:10FA7000204D4F554E542041204449534B2C2025B6
:10FA8000640A00002D204D6F756E74206120666938
:10FA90006C652073797374656D0A00002D204341F5
:10FAA0004E2754204F50454E204441544120464952
:10FAB0004C452C2025640A002D202A43414E275412
:10FAC000204F50454E204241434B55502046494C13
:10FAD000452C2025640A00002D2043414E27542048
:10FAE0004F50454E20494D4147452046494C452CF5
:10FAF0002025640A000000002D2044617461206606
:10FB0000696C65206E616D652069732025730A003C
:10FB10002D204261636B75702064617461206F6693
:10FB20002025642062797465730A00002D20496DD8
:10FB30006167652066696C65204F4B0A0000000014
:10FB40002D2054686520646174612066696C6520AD
:10FB50006E616D652069732025730A002D20526542
:10FB60006D6F7665203C6F6C643E2E42414B2046A3
:10FB7000696C6520282564290A0000002D2054475F
:10FB80003130322773206D656D6F7279206361703B
:10FB9000616369747920203A20253364204D420A3C
:10FBA000000000002020202020202020207C5F4614
:10FBB0007265652073706163652020202020203AE3
:10FBC00020253364204D420A000000004E6F207350
:10FBD00064636172642E20496E7365727420636180
:10FBE00072640A002020202020202020207C5F47F3
:10FBF0006574207265666572656E6365206661690D
:10FC00006C28256420213D202564292C2025640AA8
:10FC1000000000002020202020202020207C5F47A2
:10FC20006574207265666572656E6365204F4B0A68
:10FC3000000000002C0100201400002030010020F2
:10FC40002C214AA81EF093F82B684AAA2821504676
:10FC500098472C214AA80DF093FF83465590FF4802
:10FC6000242156901EF083F847F8596FBE80BE716C
:10FC7000593FDFF8E8A3BBF1000F0AF1240A14D0C2
:10FC80005A464AA956981EF059F89DF85401404426
:10FC9000401C1EF089F802469DF8540108EB000153
:10FCA000491C50461EF04AF804E01022ECA1569878
:10FCB0001EF044F80F22EAA156981EF085F868B1AC
:10FCC0000522ECA150461EF07FF838B178210120C2
:10FCD00003F077F83CB1AA2C05D044E0782100204D
:10FCE00003F06FF8F6E747F8606F7E60BE60FE6075
:10FCF0003E61BE82BE752C214AA81EF038F80F2145
:10FD00002B684AAAAA209847D4480F222B304AA928
:10FD100082461EF013F82C214AA81EF028F805216F
:10FD20002B684AAAC82098474A9838619DF82C0148
:10FD300038750F22CAA150461EF046F8E8B3C748EE
:10FD40000522CCA13B301EF03FF8B0B30121782052
:10FD500003F037F8C148153890F843102E294FD0DA
:10FD6000012005F0C7FE40F6F5370CB1BC4216D1B4
:10FD70002C214AA81DF0FBFF2B684AAA19213846FE
:10FD80009847B648142115381DF0F1FF4AA81EF017
:10FD90000BF80246B1484AA915381DF0CFFFAF4F06
:10FDA00040F66330A53F07F1340A0CB184427DD19F
:10FDB0002B684AAA1121984700E01CE08DF83961B0
:10FDC0009DF8280199F8381060F3830189F83810FC
:10FDD0009DF82E01D9F81410303881F82C0078687D
:10FDE000796880680A3089680860D9F8140090F84A
:10FDF0002C00C8B342E00021782002F0E2FFA9E71E
:10FE000090F84010302930D390F8401039292CD880
:10FE100090F84110302928D390F84110392924D87E
:10FE200090F84210302920D390F8421039291CD87C
:10FE300090F84410302918D390F84410392914D878
:10FE400090F84510302910D390F8451039290CD876
:10FE500090F84610302908D390F84600392804D885
:10FE6000002005F047FE7EE703E0012005F042FE9A
:10FE700079E7D9F81410032081F82C0008F102006A
:10FE80001DF0E5FF8AF810004CA81DF0E0FFD9F83E
:10FE9000141088840DF235101DF0D9FFD9F8141014
:10FEA000C88499F8380010F00C0F00E016E00BD170
:10FEB000FCF7DDFE7868796880680C308968086036
:10FEC00079686420896808817868806800680670AD
:10FED0007868D9F8141080680068086014B1B4F527
:10FEE000965F28D14FF4965B2B682CAA7821584650
:10FEF00098479DF80A0189F85A009DF80801401CAE
:10FF000089F85800BDF8F800A9F848004098C9F8E9
:10FF100050009DF8070189F8570058484399449AC2
:10FF2000459BC16602674367554B00F1100278217B
:10FF30001B68584698472B6855AA012140F6D9708E
:10FF400098479DF854014FF0010B30283BD089F8B9
:10FF50005BB040F628200CB1844204D1474A2B689C
:10FF600079320121984799F8690028B199F8690018
:10FF7000122801D0FFF7EFFC40F674300CB1844238
:10FF800015D12B684AAA032198478DF82F619DF857
:10FF9000280199F8381060F3051189F838109DF898
:10FFA0002A0199F8381060F3861189F8381099F809
:10FFB000380010F0300F1BD099F83800C0F38100E2
:10FFC000012803D004E089F85B60C2E7FCF74FFE2C
:10FFD000FCF754FE3A6A2B681432042141F2841073
:10FFE00098473A6A2B681C32042141F28C109847DA
:10FFF000C9F8346040F6B8300CB1844211D12B6896
:020000040801F1
:100000004AAA062198479DF8280199F8341060F310
:10001000C50189F83410396A4FF41650086389F81D
:10002000566040F6A2300CB184427CD12B684AAABB
:10003000082198478DF830619DF8280199F834100F
:1000400060F3020189F8341008F102001DF0FFFE90
:10005000D9F814108968096A086313E00D080020B4
:100060003030302E3030302E3030302E30303000C6
:10007000000000003030303030000000D805002093
:100080002C010020D9F814008068006A006B4FF43E
:10009000E13188421CD0D9F814008068006A006BF6
:1000A000B0F5165F14D0D9F814008068006A006BB0
:1000B000B0F5965F0CD0D9F814008068006A006B28
:1000C000B0F5AF5F04D0D9F814008068006A01630E
:1000D00099F8340000F0070001287CD099F834002A
:1000E00000F00700022877D099F8340000F00700EC
:1000F000032872D099F8340000F0070004286DD06E
:1001000099F8350020F0100089F8350099F835008D
:1001100020F0400089F8350099F8350020F02000E3
:1001200089F8350000E00DE099F8340020F0070070
:1001300089F8340089F8556099F83C0020F0800077
:1001400089F83C0099F85500F0B1386A006B07F067
:10015000F9FB99F83400FF4A00F0070001287DD030
:1001600099F8340000F00700022878D099F834009C
:1001700000F00700032873D099F8340000F007005E
:1001800004286ED0C9F8346040F6AE300CB1844219
:100190000BD12B684AAA012198479DF8280199F8AC
:1001A000351060F3C30189F8351040F6C3300CB147
:1001B000844218D12B684AAA072198478DF82F61ED
:1001C00008F104001DF043FEAAF80E009DF8280176
:1001D00099F8391003E072E07AE089E092E060F388
:1001E000410189F83910D9F8140042682B6864215C
:1001F00041F2B4409847D9F814100220496881F8B8
:100200003300D9F814008068006A2B681221026854
:100210004FF4A05098472B6820AA302141F250405B
:100220009847BDF88C00D9F814108881BDF88E006D
:10023000D9F81410C8812498D9F8141008612598A9
:10024000D9F814104861BDF89E00D9F81410C8837D
:100250002A98D9F814108862BF4C03E057E05DE09B
:1002600086E08CE061692A980861BDF8A000D9F8A1
:1002700014100884BDF89E00D9F80010098888423F
:1002800075D9D9F800100988081A00F29F500F2874
:100290003CDDD9F8140040688686D9F80000008853
:1002A000D9F81410C88399F8690078B3BDF89E2076
:1002B000D9F800000188A9A01EF018FD81E099F886
:1002C000350040F0200089F8350089F855B039E74D
:1002D00099F8350040F0100089F8350099F83C0095
:1002E00040F0800089F83C00022089F8550029E799
:1002F00099F8350040F0400089F83500032089F86E
:1003000055001FE7042089F855001BE759E03B6AB8
:100310009A493A339A4807F013FF35E7974955A8A9
:100320005631CDE90010D9F80020A1F24A2000F59D
:1003300009730169924815F025F89DF8540199F860
:10034000351060F3041189F8351099F83500C006AE
:1003500006D599F83C0040F0800089F83C0013E78E
:1003600099F83C0020F0800089F83C000CE70DE093
:100370003B6A82493A33824807F09CFC04E77F4895
:10038000563007F064FB74490862FDE6D9F80010A6
:100390000988081A0F2814DDD9F8140040688686E9
:1003A000D9F800000088D9F81410C88399F86900BA
:1003B00038B1BDF89E20D9F80000018871A01EF068
:1003C00095FCD9F8140026998161BDF89C108183B1
:1003D0002B6802AA782141F2563098475D480E22D8
:1003E0000DF16E01BC301DF0A9FC0C995948563036
:1003F00081620D99C162816AC26A914207D2C16A63
:100400004FF48002914202D8816A914201D9C662BA
:100410008662644B4F4A41F2563056321B6878214F
:1004200098472B684AAA0D2140F69D70984753497A
:100430009DF82D01CC3900F0010048714AA81DF04B
:1004400006FDAAF8000008F107001DF000FD80B2CB
:10045000AAF80200BAF8001011B9F021AAF80010A9
:1004600018B94FF41670AAF802002B684AAA09219D
:1004700040F65A3098478DF831614AA81DF0E7FCE4
:10048000DFF8F8A0AAF1C00ACAF8080008F10400D1
:100490001DF0DDFCCAF80400DAF8080010B9DAF83B
:1004A000040040B1DAF80800DAF8041088420DD3ED
:1004B000CAF804600EE0F020CAF804001420CAF85C
:1004C0000800DAF80400AAF8100003E0DAF80400E3
:1004D000AAF810009DF83001302809D01E20AAF893
:1004E000140099F83C0040F0400089F83C0007E017
:1004F000AAF8146099F83C0020F0400089F83C000C
:1005000099F85B0020B399F83D0020F0020089F8CB
:100510003D0099F83C0040F0200089F83C0099F833
:100520003C0040F0100089F83C0099F83C0020F0B5
:10053000080089F83C0099F83D0020F0080089F88F
:100540003D0099F83D0040F0100089F83D002BE097
:100550006DE0000032060020140000202D2D3E31F9
:1005600052657365742064726976652074696D657F
:10057000202825642C202564290A00007C080020FE
:100580009B7A01082D2D3E3252657365742064728A
:100590006976652074696D65202825642C202564A2
:1005A000290A00002C01002099F83D0040F00100CC
:1005B00089F83D00D9F83C00CAF8000030220F212C
:1005C000FE481DF0CDFB99F85B0078B32B68FB4A21
:1005D0000F2140F2391098473A6A2B6838320121CE
:1005E00040F6AF309847386A10F8381F41F01001D4
:1005F0000170386A10F8381F41F0200101702B6833
:1006000055AA012141F6583098479DF854013028E9
:100610003FD099F8390040F0080089F8390099F87E
:10062000390000073CD41AF078F93DE02AE099F847
:100630003D0020F0020089F83D0099F83C0020F0D0
:10064000200089F83C0099F83C0040F0100089F83F
:100650003C0099F83C0020F0080089F83C0099F82B
:100660003D0020F0080089F83D0099F83D0040F079
:10067000100089F83D0099F83D0020F0010089F84C
:100680003D0097E7CD4A0A21521D2B68A0209847CC
:10069000A2E799F8390020F0080089F83900BEE790
:1006A000D9F8140080F82D602B684AAA0A2140F678
:1006B000332098470A22C2494AA81DF085FB08B991
:1006C00084F803B099F8690060700020FFF736F9EC
:1006D00057B0BDE8F08F10B5BA4841684068496826
:1006E00000680FF0FCFE0020FFF73AF9FDF737F93C
:1006F00001F0FFFB02F045FCFCF728FAAF4C0120AB
:10070000503484F835000020FEF71FFE207820F0DA
:1007100001002070207820F002002070002184F871
:100720003510403CA84864220068B0FBF2F0B0F1FC
:10073000807F0BD220F07F424FF0E020521E4261BA
:10074000A24BF0221A7081610722026114F8400F57
:1007500020F020002070207820F010002070216010
:10076000BDE81040092002F070BB86B00026049658
:100770000396FCF7BBF94FF448414FF0006015F0C9
:100780000AFA8E482830FCF780FA9148A0F63835EE
:10079000286000F50C70686000F50A70A86000F52C
:1007A0000A70E86000F50A70286100F50A70686157
:1007B000FF20A5F8640005F5AA7BC5F818B095F8E8
:1007C000640040F0010040F0040040F0100040F0F0
:1007D000080040F0020085F864004FF00108C5F8F9
:1007E0002480A5F17C04607C40F080006074E661A8
:1007F000207F40F004002077207F40F02000207709
:10080000207F40F002002077207F40F00100207719
:10081000207F40F008002077207F40F010002077F4
:1008200004F1540989F8246089F8206089F822606D
:1008300084F8306084F8518004F5F67044F8040CB4
:1008400000F6FE00E060634820601238A060801F60
:100850006060614844F80C0C04F2471044F8140C32
:10086000493044F81C0C143044F8180C0C3044F88F
:10087000200C44F8089C84F850600FF0EFFE0FF055
:100880000CFF01F000F80FF093FCDFF838A14B48A3
:10089000CAF80000504645624E4851460838886202
:1008A000896A052048715146896A8871514604F564
:1008B00028704861A0F5D670086100F5BE70C86167
:1008C000A0F22B21A038059100F0B3FE414F483F24
:1008D000F8615146C86001F056FB51464860084631
:1008E00080F832804068786108464068826808462F
:1008F0000A324068E831006804F093F8B861514664
:10090000886008464068006844F8240CA1F5C0716E
:10091000504619F06AFF44F8100C54F8100C2E30B1
:1009200004F0D0F8A4F1240002F058FAA4F1240055
:100930000FF049FF38610FF043FFB86219F098FFDC
:100940000FF03BFF1E21386901F04AFBA4F124019E
:10095000504607F097FDA4F124000CF0D7F940F2BF
:10096000124304F5DB641C48CDE900430290504675
:1009700069694068A4F21242006817F08FFC164AB9
:100980001649A4F21240059B18F000FACBF800407B
:100990008BF80460A4F5D261081D19F015FAA4F2D1
:1009A000FC601DF059F9504640685146006849689E
:1009B000001D0968C91CCDE9001011E0D805002010
:1009C0001CF50008680700200000002023ED00E06F
:1009D000C01100205C000020036D02085F170108B1
:1009E00050464068036850469B1C40684268504629
:1009F000921C406841685046C91C40684068001D10
:100A000019F0A2FE03A9A4F2FC601CF0ABFBF86293
:100A1000FFF761FE0FF086FE78625146096A486072
:100A2000C54F04AA01213B6840F60A009847FEF72B
:100A30004AFC40F28A2BC14D04F0D3FCA878002870
:100A4000FAD0BF4C94F8680040F0020084F86800C7
:100A500016F057F9206C28B92889401C288168892C
:100A6000401C68812889584502D86889584506D9AC
:100A70006A892989B3A01EF039F900F052F999F872
:100A80000C00012801D1FEF7B9FA99F8240030B919
:100A9000DAF80400C07D012801D189F8248094F897
:100AA0006A0030B994F8690028B194F869001228F6
:100AB00001D0FEF780F894F86B00012846D0A88991
:100AC000B0F5616F02D2401CA88117E0206D401C78
:100AD000206594F8570050B9206DF02807D984F8A4
:100AE000578094F8750010B9A5A01EF0FFF83B6878
:100AF000934A78214FF496509847AE811CF004FC3D
:100B000094F8340000F0070003280CD094F8340067
:100B100000F0070001280AD094F8340000F0070024
:100B2000042808D00DE0012007F038F909E0012081
:100B300007F05CFB05E04FF47A7006F08FFF06F0DB
:100B4000E2FF9DF80C0008B11CF00DFDAE7073E7DC
:100B50007B4901207831087370477949002801D01A
:100B6000012801D181F85400002803D1734840784E
:100B700081F869007047FEB501794279A1F130032F
:100B800003EB83036FF02F0505EB43031344DCB243
:100B90008378C678303B03EB830305EB4303334490
:100BA000DBB20A25012B29D9012C23D0641EE2B225
:100BB0005B1EDCB2B2FBF5F13031C9B20171B2FBA0
:100BC000F5F305FB132230324271B4FBF5F33033F9
:100BD000DBB28370B4FBF5F605FB16443034C47009
:100BE00045780078CDE9010500946FA01EF07EF8ED
:100BF0000120FEBD1C225B1EDCB2DBE720D10378A6
:100C00004478303B03EB8303CF2606EB43032344B6
:100C1000DBB2B3FBF5F43034E6B20670B3FBF5F4A7
:100C200005FB143430344470312383703225C57091
:100C3000CDE900565CA002941EF058F80120FEBDDC
:100C40000020FEBD70B586B0182261A168461DF077
:100C500075F83A4C6079401C60710121002012F057
:100C6000E8F90320FEF771FB01F0F7F85E484068F1
:100C700040688078324D0F2809D10020A5F848003F
:100C80002D4B2A4678211B684FF4965098475648BA
:100C900077380168CDF80D108088ADF81100284E26
:100CA000783696F8240002280BD10DF10D00FFF7DD
:100CB00062FF30B168461DF077F8C1B268460BF0AC
:100CC000FFFF95F85A00002806D095F85A00617980
:100CD000884201D80120307306B070BD10B543A022
:100CE0001EF004F845A01EF001F840A01DF0FEFF24
:100CF000BDE810400320FEF728BB70470F490020D5
:100D0000C880704770B50446404DE1B2284617F0E0
:100D10001BFA4021284617F084FA0028F9D0204613
:100D200070BD3B4801683B4A01F4E061114301603A
:100D3000BFF3408FFEE700002C01002014000020CC
:100D4000E805002053595354454D2049532053552D
:100D50005350454E4445442C205245534554204958
:100D60004E205345434F4E445320284D61696E3AFF
:100D700025642C20537469636B3A202564290A008A
:100D800044657669636520686173206265656E20DD
:100D90006C6F636B6564206175746F6D61746963FA
:100DA000616C790A0000000044656C65746520641C
:100DB0006174612066696C652066726F6D202563C1
:100DC00025632F256325632F256325630A00000013
:100DD00023573231206261636B64656C3A787878AE
:100DE0007878782E2A000000680700202F2D2D2DFE
:100DF0002D2D2D2D2D2D2F0A000000002F53594E83
:100E0000432046494C452F0A00000000004C00409A
:100E10000CED00E00400FA0570B501218C072046B6
:100E200017F05EF8002849D00121204617F064F839
:100E3000EA4D95F8680040F0040085F86800E8483D
:100E40000024048019F056FCE64E3068007848B162
:100E500095F83500000705D50FF06CFC3068E249C5
:100E600000780871E1490878632809D00878401CA7
:100E700008708A88DE488AB18A88521E8A800EE00D
:100E800001224A70DB48006800B10270DA4800684D
:100E900000B10270D94802700C70EAE784844A8875
:100EA0001AB14888401E488000E0C48400F08AFBE4
:100EB00001F000F8BDE8704003F007BE70BD2DE9F9
:100EC000F0474FF48079484615F0A3F90026C74C47
:100ED000C74D9627B8B36869401C6861DFF8208366
:100EE0000121404616F0F2FF70B32089A884BB4868
:100EF00090F8380010F00C0F1AD1C2488222016815
:100F00008868028120898A68C0B2127B90420CD323
:100F100020898A68C0B2127B904209D92089C2B266
:100F20008868007B6430824202D82089896808730F
:100F30002681A7800021404616F0A6FF01214046E9
:100F400016F0CBFF04E006E0FFE72089401C20817B
:100F5000484615F06CF9402015F05BF900281ED0CA
:100F6000E869401CE861DFF8A0820121404616F0E4
:100F7000ADFF60B1E088E8846780E68000214046EC
:100F800016F082FF0121404616F0A7FF02E0E0883C
:100F9000401CE080BDE8F047402015F048B9BDE8AE
:100FA000F08770B5994C40F225552946204617F038
:100FB00043F901280BD12946204617F05DF9204658
:100FC00017F0C6F8BDE87040C0B201F00DB870BDB2
:100FD00070B58F4C40F225552946204617F02CF964
:100FE00001280BD12946204617F046F9204617F074
:100FF000AFF8BDE87040C0B204F0B0BD70BD70B5D0
:10100000844C40F225552946204617F015F9012851
:1010100010D12946204617F02FF9204617F098F8EE
:101020006E49C0B291F854107B4A52F82110BDE8C5
:101030007040084770BD70B5784C40F22555294680
:10104000204617F0F9F8012811D12946204617F05B
:1010500013F9204617F07CF86049C0B291F855109A
:101060006F4A52F82120BDE870406E49104770BDAC
:10107000F8B55A4D95F8680040F0010085F8680011
:1010800069480026068006F000F86848006890F875
:10109000CA0001280BD066480068816891F81C15C9
:1010A000012904D0C06890F8C500012801D10BF0D7
:1010B0001BF9544C206890F86E00012815D101F0FE
:1010C000D6F92969487495F83C00400606D5206891
:1010D000806800680078002111F0ABFF2869407C2F
:1010E00018B128694674FFF7ADFD40484178B9B1A1
:1010F000467095F83500C00606D54E4890F8640055
:10110000000701D414F0F4FA1CF07FF94A4890F873
:101110002410012904D1022180F82410FFF7DEFDFC
:1011200031481CF03DF819F04BFF95F86B0043492E
:1011300051F82000804795F83500C0060DD5394894
:10114000243890F824100E2907D090F8240020B1FC
:101150003449A1F1240013F027FA3948C07B012853
:1011600007D1002136480CF0F3F9A86908B1A86945
:101170008047344C2079002817D094F9070000905C
:1011800020792268A31D191D18F0C7FD60716079D0
:1011900000280AD1267140F2124120681CF0E7FDB8
:1011A0000020FFF7DAFC85F87560F8BD7047FEE7B0
:1011B000FEE7FEE7FEE770477047704722A01DF08C
:1011C00095FD2AA01DF092FD2D4801682D4A01F4DD
:1011D000E06111430160BFF3408FFEE7E8050020A6
:1011E0001E0000203800002066000020940000202F
:1011F000502D00203C000020400000201600002060
:10120000000C004028000020001000400044004076
:1012100000480040004C00408C000020005000407E
:101220006C000020D00800201C00002030000020AE
:101230002C0000208806002060060020800000208E
:10124000B81E0020DC0700205B4841524420464184
:10125000554C542048414E444C4552202D20424C80
:1012600055452053435245454E5D0A002D3E52459B
:101270005354415254204445564943450A0A0A00F2
:101280000CED00E00400FA057FB504460D46C148A8
:10129000012150F8240040F0010015F06AFE0420FE
:1012A0008DF80F00BB48143830F81400ADF80C006E
:1012B000B94803A950F8240015F07DFA012D28D172
:1012C000B448483010F81410123810F8140015F013
:1012D0002EFBB048243030F81400019000208DF827
:1012E00008000C208DF809008DF80A5001A814F0B0
:1012F0003FFFA8485A3010F814008DF800000F2066
:101300008DF801008DF802008DF80350684614F046
:1013100012FC7FBD38B504469E480121803050F84C
:10132000240015F026FE9B486C3030F81400ADF810
:10133000000010208DF8030003208DF8020096486D
:101340006946243050F8240015F035FA38BD91492B
:10135000914A6C31243231F8101052F820000161AA
:1013600070478C498C4A6C31243231F8101052F895
:101370002000416170478849243151F82010CA6823
:10138000844B6C3333F810004240CA607047814987
:10139000814A143931F8101052F8200015F066BA5D
:1013A000F8B504460E467B487A49B830C83150F843
:1013B000240051F82410084340F00100012115F0E9
:1013C000D8FD74480121A83050F8240015F0DCFD48
:1013D000012C03D10121714815F07EFA18208DF8F7
:1013E00003006C48243830F81400ADF800000320E6
:1013F0008DF80200684869465C3050F8240015F00A
:10140000DAF904208DF8030062481C3830F8140023
:10141000ADF80000604869466C3050F8240015F0C3
:10142000CAF95D4D31464C3555F8240016F0B0FD33
:1014300055F82400012116F026FEF8BD70B50446CB
:10144000554D4C3555F8240016F05AFD55F824003A
:10145000BDE87040002116F016BE10B5514C504941
:10146000204614F0FAFD0121204614F020FEBDE8CC
:10147000104001214C4814F044BC2DE9F8430546C6
:101480000121084615F06AFD0121082015F071FDC3
:101490000121480215F06DFD0220ADF80000002486
:1014A0008DF80340414E6946304615F084F9012716
:1014B000ADF800708DF803406946304615F07BF9B1
:1014C000DFF8E080404614F051FD374934484C3194
:1014D0000160456084600326C6600461802141612B
:1014E000490081618900C1612021016209024162D4
:1014F00084620146404614F0B0FD0121404614F0DC
:10150000D6FD27482C300460077144714FF46021E8
:101510008160C4600674244C0146204614F08EFBA2
:10152000012014F0EDFC052301220921204614F0CE
:101530000FFC052302220821204614F009FC042395
:1015400003221021204614F003FC0121204614F050
:10155000A9FB0121204614F099FB204614F0B9FBA9
:10156000204614F0BBFB0028FAD1204614F0BDFB46
:10157000204614F0BFFB0028FAD10121204614F0C8
:10158000C0FB002D03D10AA01DF0B0FBFEE7BDE8B3
:10159000F8830000BCF60208A00000203000140010
:1015A000001F00200800024000240140000C014000
:1015B000414443206973206E6F74207265616479C1
:1015C0000A000000714841880022002903D04188A8
:1015D000491E418002E0018801B10280818819B171
:1015E0008188491E81807047694890F8C810002999
:1015F000F9D090F8CA100129F5D000F8C82F0121C0
:10160000817070471FB504460020FFF717FF009454
:101610000020ADF80400ADF80600ADF80800ADF804
:101620000C000C20ADF80A0069460020FFF7B8FE58
:101630001FBDF0B585B006460D464FF4E130019070
:101640000024ADF80840ADF80A40ADF80C40ADF804
:1016500010400C20ADF80E0001A90020FFF7A0FEFD
:101660004C4F012240F22551384616F018FD40F249
:101670002661384616F000FE4FF4407014F056FA1A
:1016800034208DF800008DF801408DF802400120D3
:101690008DF80300684614F04EFA3C49CD608E6028
:1016A0003DA01DF023FB05B03948F0BD374A0621A7
:1016B0009180374A92F8CA1001290CD092F8C810CC
:1016C000C72902D3002182F8C81092F8C8104B1C19
:1016D00082F8C8305054704770B52C4B4FF41B71D2
:1016E00059801D88194640F2124689680024B54287
:1016F0000A682FD21D8850551D8801226DB94328D4
:1017000020D006281ED015281CD041281AD06128C8
:1017100018D0042816D0182814D008680578022D8F
:1017200002D00078012807D11888A0F58065043D13
:1017300003D01888401C188070BD188808811C8050
:101740008A7170BD18880D68401C2C541888088157
:101750008A7170BD1C8014700220887170BD2DE9E3
:10176000F04105460E4600240A4F0BE0295D38463D
:1017700016F0EAFC4021384616F053FD0028F9D057
:10178000641CA4B2B442F1D3BDE8F0811C01002076
:10179000401F0020004C00400A0A0A00704710B5A4
:1017A0000520FFF7DEFDBDE81040F7E70520FFF755
:1017B000CEBD70B50546444C0221204615F05DFDB6
:1017C0000028F9D02946204615F00BFD01212046BE
:1017D00015F053FD0028F9D0204615F004FDC0B2E5
:1017E00070BD10B586B00121080315F0C2FB0121C0
:1017F000452015F0BEFB18208DF8030003208DF85E
:1018000002002020ADF80000304C6946204614F05C
:10181000D2FF8021ADF800106946204614F0CBFFBE
:101820004021ADF800106946204614F0C4FF0520A1
:10183000FFF770FDFFF7BAFF0020ADF804004FF48A
:101840008271ADF80610ADF80800ADF80A00ADF8E9
:101850000C006115ADF80E10ADF81000ADF81200D7
:101860000720ADF81400184C01A9204615F004FC1F
:101870000121204615F085FC154A1649164800F04E
:101880008CF806B010BD10B5FFF7ABFF1448134934
:10189000016014494160144981601449C1601449D0
:1018A000016114494161144981611449C1611449BC
:1018B000016214494162144981621449C1621449A8
:1018C000016310BD70470000003001400008014076
:1018D000B3170108AD1701089F170108C1190108C6
:1018E0002C010020091A0108491A0108771A010879
:1018F000AD1A0108E31A01081F1B0108671B010844
:10190000C71B0108F51B0108311C01087F1C0108D9
:101910003B1D010870B5F84C60688047E168052000
:101920008847E168002088470546A0688047E8B2FC
:1019300070BD10B50024FFF7EDFF641CE4B2C007D2
:1019400001D0992CF7D310BD10B5EB4C60688047DF
:10195000E16806208847A068BDE81040004770B5E0
:101960000546FFF7F1FFE44C61688847E168012014
:101970008847E168E8B28847A0688047FFF7D9FF49
:10198000012070BD10B50020FFF7E9FFFFF7C2FF8F
:1019900008B1002010BD012010BD10B5D64C60600C
:1019A000A160E260FFF7EEFF606820B1A06810B1AF
:1019B000E068002803D1D1A01DF098F9FEE710BD22
:1019C0002DE9F04104460F461546FFF7BDFFCA4E0C
:1019D00070688047F16802208847F168C4F30720E7
:1019E0008847F168E0B28847002404E0F16815F800
:1019F000010B8847641CBC42F8D3B0688047FFF7EE
:101A000098FF0120BDE8F0812DE9F04104460F4622
:101A10001546B94E70688047F16803208847F16821
:101A2000C4F307208847F168E0B28847002405E046
:101A3000F1680020884705F8010B641CBC42F7D30D
:101A4000B06880470120DDE770B50546AA4C6068A4
:101A50008047E16803208847E168C5F3072088478D
:101A6000E168E8B28847E168002088470546A16838
:101A70008847284670BD70B505460E46FFF764FFDF
:101A80009D4C60688047E16802208847E168C5F3A3
:101A900007208847E168E8B28847E1683046884710
:101AA000A0688047FFF745FF012070BD70B505466F
:101AB0000E46FFF749FF904C60688047E1680220BE
:101AC0008847E168C5F307208847E168E8B288479E
:101AD000E16830788847A0688047FFF72AFF012037
:101AE00070BD70B506460D46FFF72EFF824C60684C
:101AF0008047E16802208847E168C6F307208847ED
:101B0000E168F0B28847E16828788847E16868783A
:101B10008847A0688047FFF70CFF012070BD70B5B3
:101B200006460C46FFF710FF734D68688047E9686A
:101B300002208847E968C6F307208847E968F0B2C1
:101B40008847E96820788847E96860788847E968C5
:101B5000A0788847E968E0788847A8688047FFF759
:101B6000E8FE012070BD70B506460C46FFF7ECFE9E
:101B7000614D68688047E96802208847E968C6F3D4
:101B800007208847E968F0B28847E96820788847E5
:101B9000E96860788847E968A0788847E968E0786C
:101BA0008847E96820798847E96860798847E96863
:101BB000A0798847E968E0798847A8688047FFF7F7
:101BC000B8FE012070BD70B505464B4C606880477B
:101BD000E16803208847E168C5F307208847E1688A
:101BE000E8B28847E168002088470546A168884731
:101BF000284670BD38B505463F4C60688047E168AF
:101C000003208847E168C5F307208847E168E8B208
:101C10008847E168002088478DF80000E1680020CF
:101C200088478DF80100A0688047BDF8000038BDE6
:101C300038B50546304C60688047E1680320884726
:101C4000E168C5F307208847E168E8B28847E168A2
:101C5000002088478DF80000E168002088478DF853
:101C60000100E168002088478DF80200E16800204B
:101C700088478DF80300A0688047009838BD7CB580
:101C800005461D4C60688047E16803208847E1688D
:101C9000C5F307208847E168E8B28847E16800207B
:101CA00088478DF80000E168002088478DF8010022
:101CB000E168002088478DF80200E168002088472D
:101CC0008DF80300E168002088478DF80400E16882
:101CD000002088478DF80500E168002088478DF8CE
:101CE0000600E168002088478DF80700A06880475B
:101CF000DDE900017CBD00006001002043686563F0
:101D00006B204652616D204D656D6F727920496E72
:101D10007465726661636520636F6E66696775726C
:101D20006174696F6E210A0000214FF4E152504343
:101D300000E0491C8142FCD370472DE9F04186B098
:101D400080460F46164638461CF02EF8C4B21421C1
:101D500001A81CF00CF8194D2878B04223D8142C97
:101D600000D804B9142416A01CF0C0FF3A4621463E
:101D70004046FFF725FE214601A81BF0F8FF01AA07
:101D800021464046FFF740FE224601A938461CF096
:101D90001BF850B101AA414613A01CF0A7FF2878F8
:101DA000401CC0B2287006B02CE641461CA01CF0B6
:101DB0009DFF01A926A01CF099FFF0E7600100201B
:101DC0002D2D3E5B46524D32355630315F47204611
:101DD00052414D204D454D4F52592052554E2054A1
:101DE0004553545D0A000000202D20546865206F83
:101DF0007065726174696F6E206F662046524D3255
:101E0000355630315F4720617420307825783A208C
:101E10006E6F74204F4B202D3E3F25730A0000004B
:101E2000202D20546865206F7065726174696F6E33
:101E3000206F662046524D32355630315F47206163
:101E40007420307825783A204F4B202D3E0000003A
:101E50002025730A000000007047FF4900204870E9
:101E6000FE49086170472DE9F04105460E46002401
:101E7000FB4F0BE0295D384616F066F940213846E5
:101E800016F0CFF90028F9D0641CA4B2B442F1D303
:101E9000BDE8F08110B50D21F2A0FFF7E4FFEE4898
:101EA00000218170C17041700171BDE81040F1A046
:101EB0001CF01CBF10B5E94988680289002A02D0CD
:101EC0000289521E028191F8C50020B191F8C50027
:101ED000401E81F8C500C87D002804D1DE4C206971
:101EE00010B1401E206110BDFFF7D4FFE94820610A
:101EF00010BD30B587B000240694E748017841F062
:101F000002010170E54B06AA01211B6840F23C402A
:101F100098479DF81800302831D04FF416500290A1
:101F2000ADF80C40ADF80E40ADF81040ADF81440DF
:101F30000C20ADF8120002A90320FFF731FAC84DBA
:101F4000012240F22551284616F0A9F840F22661F8
:101F5000284616F091F94FF4407013F0E7FD262063
:101F60008DF8040002208DF805008DF80640012050
:101F70008DF8070001A813F0DEFD07B030BD4FF467
:101F800096500290CCE710B5B448022180F86E104C
:101F900080F8C310002202768275C1A10B68C0F8D8
:101FA0001A308988C183C0A10B68C0F86F30898856
:101FB000A0F8731000F5807141600C310160343974
:101FC000C16000F1C8038C1F1C608360FF2380F890
:101FD000C5300A721AF06FFA9F4948619F4810BDD8
:101FE0009D4A90615173704770B5AB49403991F883
:101FF0004010890739D4984C01230025E17921B993
:10200000242802D16571E371A571A17939B961798B
:10201000062904D24A1C62718F4A1C325054E1795D
:102020008E4E012910D0022931D004291DD16279A8
:10203000511CC9B23244617182F86F00721882F883
:102040006F500A283AD03DE0607906280DD1A3717F
:102050008148062292A11C301BF0B6FE30B996F8DA
:102060006E00012802D00220E07170BD7A4806227D
:102070008DA11C301BF0A8FE30B996F8C3000128D2
:1020800002D00420E07170BD6571E57170BD6279A8
:10209000511CC9B2324461719076721895760A2843
:1020A00002D1107E0D2804D05429EFD16571E5715D
:1020B00070BD6571E57186F86E3070BD92F86D0087
:1020C0000D2804D05429F8D16571E57170BD657192
:1020D000E57186F8C33070BD2DE9FF5F04465F4DA2
:1020E000E87D00287DD05C4805F58C76017B49B9F8
:1020F00001210173207A307220683060207F3077B0
:102100006069706196F80890A9F10800C0B268494A
:1021100048431CF08AF80746DFF898B13068594602
:102120001BF0FAFEDFF890A151461BF0F5FE0146C8
:1021300038461BF099FE0290277AA7F10800C0B23A
:102140005B4948431CF071F80190D4F8008059466F
:1021500040461BF0E1FE51461BF0DEFE01460198B1
:102160001BF082FE019009EB0700F82101EB500003
:10217000C0B2317F6639C9B2374A243252F82000E2
:10218000834648431CF051F8814658461CF04DF8F0
:10219000039071691BF0C0FE51461BF0BDFE014665
:1021A00048461BF061FE009094F81C90A9F166006F
:1021B000C1B20BFB01F01CF038F883466469039848
:1021C00021461BF0A9FE51461BF0A6FE01465846CB
:1021D0001BF04AFE8246DDE901101BF097FE014626
:1021E00000E01FE01BF098FE8346514600981BF06C
:1021F0008DFE01461BF090FE59461BF035FE3772EE
:1022000086F81C90C6F8008074611CF04DF81DF033
:102210001CFA0022294B1BF0EFFE1CF02CF8296958
:1022200008442861BDE8FF9F70B594B005460C4690
:1022300023A0D0E90032D0E90210CDE90A32CDE97D
:102240000C1023A0D0E90031D0E90220CDE90631FD
:10225000CDE90820A87843E0700100200C20002080
:102260000044004024504D544B3130342A33370D54
:102270000A000000475053206D6F64756C6520683C
:102280006173206265656E20726573746172746536
:10229000640A000080A90300280600203001002005
:1022A000244750524D430000244750474741000007
:1022B00063B001008031D847868F883C0000E03F42
:1022C000001F1C1F1E1F1E1F1F1E1F1E1F000000A1
