:020000040800F2
:10C80000A8770020CDC800080B4101080D410108A0
:10C810000000000000000000000000000000000018
:10C820000000000000000000000000002741010897
:10C8300000000000000000002B4101083D400108FD
:10C84000FDC8000800000000FDC80008FDC8000881
:10C85000FDC80008FDC80008FDC80008FDC80008A4
:10C8600000000000FDC8000805400108FDC80008E0
:10C87000FDC80008FDC80008FDC800080000000051
:10C88000113F0108FDC80008FDC80008FDC80008E8
:10C89000FDC80008FDC80008FDC8000835400108B3
:10C8A000FDC80008FDC80008FDC80008653F010874
:10C8B0008D3F0108AB3F0108034885462CF0CCFBB7
:10C8C0000048004737340108A87700200C4880F35F
:10C8D00008880C480168090E0B4A914205D10B48A3
:10C8E0000B4901600B480C4901600C4880470C481B
:10C8F0000047FEE7FEE7FEE7FEE7FEE7FEE7000093
:10C90000A8770020040000001F000000181002405B
:10C91000010000000000014000000000B9C900084B
:10C92000B9C800081CB50023019300935048016862
:10C9300001221204114301605100052424030268FE
:10C940000A400092019A521C0192009A002A02D1D8
:10C95000019AA242F3D10168890302D50121009115
:10C9600000E000930099012925D1424911220A6073
:10C97000416841604168416041687F22D203914330
:10C980004160416811221204114341600168012293
:10C9900012061143016001688901FCD541688908CC
:10C9A00089004160416802221143416041680907E2
:10C9B000890F0229FAD11CBD2D48016801221143BB
:10C9C000016041682C4A1140416001682B4A1140C6
:10C9D00001600168012292049143016041683F2295
:10C9E000120491434160C16A09090901C162016BE6
:10C9F000FF22543291430163416B4908490041636E
:10CA0000002181608EE770B5194E71680C200140DD
:10CA10001B481C4C00290ED004290ED008290ED02A
:10CA20002060706817490006000F091D085C216826
:10CA3000C140216070BD2060F3E72060F1E77168BC
:10CA40000F229204114072680323DB031A408D0CFD
:10CA5000AD1C002A08D0F16A0907090F491C2BF008
:10CA60009BF968432060DCE7074845432560D8E729
:10CA700000100240002002400CB8FFF8FFFFF6FE55
:10CA800000127A00C000002000093D0010B5954951
:10CA9000884208D144150121204601F03AFB0021CB
:10CAA000204601F036FB10BD30B5C2688E4B1A40EF
:10CAB0008C680B680D792343CC686D032C432343AA
:10CAC0000C69496923430B431343C36030BD002104
:10CAD000016001718160C16001614161704700299D
:10CAE00004D081680122114381607047816802226D
:10CAF00011438160704701617047002A03D00269C9
:10CB00000A430261704702698A4302617047012249
:10CB1000D203002903D0C1681143C1607047C168C6
:10CB20009143C160704701229203002903D0C1687C
:10CB30001143C1607047C1689143C16070470122D1
:10CB4000D205002903D0C1681143C1607047C16894
:10CB50009143C16070470904114301627047C26884
:10CB60001F239B069A430A43C26070470122920525
:10CB7000002903D0C1681143C1607047C168914367
:10CB8000C160704701225949D205002803D0886846
:10CB9000104388607047886890438860704701221E
:10CBA00052499205002803D0886810438860704776
:10CBB000886890438860704701224C49120600281B
:10CBC00003D0886810438860704788689043886005
:10CBD0007047836A0B4383624261704701225203AC
:10CBE000002903D0C1681143C1607047C1689143F7
:10CBF000C160704701221204002903D0C1681143AB
:10CC0000C1607047C1689143C1607047012212033F
:10CC1000002903D0C1681143C1607047C1689143C6
:10CC2000C1607047002182680123DB071A438260DC
:10CC30000F231B038268D20FD207491C994201D0EF
:10CC4000002AF7D18168002901DB006C70470020C1
:10CC50007047816810221143816070478168042207
:10CC6000114381607047006C80B27047002904D086
:10CC7000C16801221143C1607047C1684908490079
:10CC8000C1607047C26802239A43C260C2680A4307
:10CC9000C2607047002A03D042680A43426070476E
:10CCA00042688A434260704702460020CB0104D5A7
:10CCB000926801231B069A4300E012680A4200D0E2
:10CCC00001207047016070470246002053680B4006
:10CCD00012680A4202D0002B00D001207047016088
:10CCE000704700000024014003D2FFFF00270140ED
:10CCF000F0B501687E4A1140016000210160416089
:10CD00008160C1607B497B4A08390F23904203D17F
:10CD1000486818434860F0BD764AF02414329042C7
:10CD200003D1486820434860F0BD724A0F2528327D
:10CD30002D02904203D1486828434860F0BD6D4EF3
:10CD40000F223C361203B04203D1486810434860BA
:10CD5000F0BD684F0F2650373604B84203D14868FB
:10CD600030434860F0BD634F6437B84205D148682E
:10CD70000F22120510434860F0BD5E4F7837B8426D
:10CD800005D148680F22120610434860F0BD5A4989
:10CD9000594F0839B84203D1486818434860F0BD7C
:10CDA000554B1433984203D1486820434860F0BD86
:10CDB000514B2833984203D1486828434860F0BD5E
:10CDC0004D4B3C33984203D1486810434860F0BD56
:10CDD000494A50329042FAD1486830434860F0BD29
:10CDE00030B50368454A13400C6A8A684D6922438E
:10CDF0000C692C4322438C692243CC6922434C6A40
:10CE000022438C6A22431A430260CA6842600A685D
:10CE100082604968C16030BD00210160416081606D
:10CE2000C160016141618161C161016241628162F0
:10CE30007047002904D00168012211430160704746
:10CE400001682B4A11400160704710B5294A083A21
:10CE50008030826A0B0F9C000F23A3409A438262AA
:10CE6000826A090109090A43826210BD4160704764
:10CE7000406880B27047002A03D002680A4302600B
:10CE8000704702688A430260704702460020D10062
:10CE900003D519490839096802E0164908390968B3
:10CEA000114200D001207047C10003D51249083952
:10CEB000486070470F4908394860704702460020B3
:10CEC000D10003D50C490839096802E0094908393D
:10CED0000968114200D001207047C10003D50649FE
:10CEE00008394860704703490839486070470000B6
:10CEF000FEFF000008000240080402400F80FFFF10
:10CF000030482F490160002141608160C1602E4995
:10CF10004161704710B52B4983790268002B26D0F8
:10CF20000B6893430B604A6803689A434A6002792E
:10CF3000521813680468234313608A6803689A438D
:10CF40008A60CA6803689A43CA604279102A05D089
:10CF500051180A68006802430A6010BD8A680368B5
:10CF60001A438A60CA6800680243CA6010BD00792B
:10CF7000401801689143016010BD002101600171FA
:10CF80000C224271817170470E490A6902430A619D
:10CF90007047014600200B4A52690A4200D0012026
:10CFA000704708494861704701460020054A5269A8
:10CFB0000A4200D0012070470249486170470000D2
:10CFC0000000940F00040140FFFF6B00F74A116856
:10CFD00049084900014311607047F44910220028B4
:10CFE00003D00868104308607047086890430860E1
:10CFF00070470020ED490968890600D50120704777
:10D00000EA480169090603D5E9494160E9494160F7
:10D010007047E6480169802211430161704704208E
:10D02000E249CA68D20701D001207047CA68D20617
:10D0300001D502207047C9684907FBD50320704716
:10D0400000B50346FFF7EBFF02E0FFF7E8FF5B1ECA
:10D05000012801D1002BF8D1002B00D1052000BD03
:10D06000F0B506460B273F043846FFF7E9FF0428D2
:10D070000FD1CE4C206902252843206166612069CA
:10D080004021084320613846FFF7DAFF2169A943B0
:10D090002161F0BD70B50B252D042846FFF7D0FFA8
:10D0A00004280ED1C14C2069042630432061206938
:10D0B0004021084320612846FFF7C2FF2169B143A0
:10D0C000216170BDF8B505460E46002000900B2783
:10D0D0003F043846FFF7B4FF04280ED1B34C206953
:10D0E0000121084320612E803846FFF7A9FF04285C
:10D0F00004D02169490849002161F8BDAD1C0095A3
:10D100000098310C01803846FFF79AFF21694908E1
:10D1100049002161F8BDF0B505460E460B273F04D6
:10D120003846FFF78DFF04280CD1A04C206901215F
:10D13000084320612E803846FFF782FF21694908A5
:10D1400049002161F0BD99480169890503D49849D6
:10D150008160984981607047944801694215914304
:10D160000161704791480169012252031143016135
:10D17000704700208D49C9694907890F00D00120F7
:10D180007047F0B5AA24FFF7F4FF002800D0002470
:10D190000B273F043846FFF753FF042813D1834D74
:10D1A00028692026304328612869402108432861E6
:10D1B0003846FFF745FF1021042805D0052802D086
:10D1C0002A698A432A61F0BD2869B0432861286929
:10D1D0000E4630432861784804803846FFF730FF18
:10D1E0000528F0D02969B1432961F0BDF0B5C043ED
:10D1F000C4B201040D0E01020E0E070E0B20000436
:10D20000FFF71EFF042831D168490A6910231A4329
:10D210000A61FF2C05D0684804810B200004FFF749
:10D220000FFF042807D1FF2D05D0634845810B204F
:10D230000004FFF705FF042807D1FF2E05D05E4844
:10D2400086810B200004FFF7FBFE042807D1FF2F87
:10D2500005D05948C7810B200004FFF7F1FE0528CF
:10D2600004D052490A6910239A430A61F0BDF0B50F
:10D2700006460B273F043846FFF7E2FE042812D18A
:10D280004A4C206920252843206120694021084319
:10D2900020613846FFF7D4FE042805D0052802D0C7
:10D2A0002169A9432161F0BD2069A843206120695B
:10D2B000102528432061404806803846FFF7C0FE0D
:10D2C0000528F0D02169A9432161F0BDF7B50646D4
:10D2D0000F460B200004FFF7B3FE042814D1334C93
:10D2E000206910252843206102983E430643F82018
:10D2F0000643314846800B200004FFF7A1FE0528B5
:10D3000002D02169A9432161FEBDF0B506460B2775
:10D310003F043846FFF794FE042810D1234C2069BF
:10D32000102528432061EF200643234846803846D5
:10D33000FFF786FE052802D02169A9432161F0BDCF
:10D34000F0B506460B273F043846FFF779FE042860
:10D3500010D1164C2069102528432061F720064380
:10D36000154846803846FFF76BFE052802D0216934
:10D37000A9432161F0BDF0B506460B273F043846AE
:10D38000FFF75EFE042810D1084C206910252843C1
:10D3900020617F200643084846803846FFF750FE4C
:10D3A000052802D02169A9432161F0BD0020024077
:10D3B00023016745AB89EFCD00F8FF1FF0B50646A6
:10D3C0000B273F043846FFF73BFE0428EDD13E4CC7
:10D3D0002069102528432061DF2006433B48468012
:10D3E0003846FFF72DFE0528DFD02169A9432161CA
:10D3F000DBE7F0B506460B273F043846FFF720FE73
:10D400000428D2D1304C2069102528432061BF2048
:10D4100006432E4846803846FFF712FE0528C4D042
:10D420002169A9432161C0E7F0B506460B273F04F7
:10D430003846FFF705FE0428B7D1234C2069102594
:10D4400028432061214846803846FFF7F9FD05282A
:10D45000ABD02169A9432161A7E7F0B506460F4685
:10D460000B200004FFF7ECFD04289ED1164C206928
:10D4700010252843206137800B200004FFF7E0FDD2
:10D48000052892D02169A94321618EE70E48C06921
:10D490000004000E70470C48006A70470A4A0029D1
:10D4A00003D0116901431161704711698143116112
:10D4B000704701460020044AD2680A4200D0012089
:10D4C00070470149C86070470020024000F8FF1F04
:10D4D00010B50921C906884209D101214C04204612
:10D4E00000F00CFE0021204600F008FE10BD5F4950
:10D4F000884209D104020121204600F0FFFD0021ED
:10D50000204600F0FBFD10BD5949884209D10402B4
:10D510000121204600F0F2FD0021204600F0EEFD42
:10D5200010BD5449884209D101210C05204600F064
:10D53000E5FD0021204600F0E1FD10BD4E49884286
:10D5400009D144020121204600F0D8FD00212046E7
:10D5500000F0D4FD10BD49498842FBD101218C0562
:10D56000204600F0CBFD0021204600F0C7FD10BD95
:10D57000F0B500220325012393400C681C409C4217
:10D580002AD10C79012C01D0022C12D187685400C9
:10D590002E46A640B74387604E79A640846826434E
:10D5A000866084889C43848084888B7993401C4364
:10D5B0008480066853002C469C40A64306600E7982
:10D5C00007689E403E430660C668A643C660CC79A5
:10D5D0009C40C3681C43C460521C102ACBD3F0BDCE
:10D5E0002749016000210171012242718171C171DD
:10D5F000704708B5012212040A430092009AC261E2
:10D60000C1610099C161C169C069009008BD02464D
:10D610000020128A0A4200D001207047008A704719
:10D6200002460020928A0A4200D001207047808A78
:10D6300070478161704701857047002A01D0816180
:10D640007047018570478182704710B54B07DB0E2C
:10D650009A40C90889000818016A0F249C40A14318
:10D660000162016A1143016210BD0000000400481C
:10D6700000080048000C0048001000480014004852
:10D68000FFFF000010B5EF49884209D101214C0588
:10D69000204600F049FD0021204600F045FD10BD68
:10D6A00001218C05204600F03FFD0021204600F0BE
:10D6B0003BFD10BD10B502685208520002600268BE
:10D6C000E14B1A408C684B682402144323430360E7
:10D6D0000F230A681B069A430261026801231A435A
:10D6E000026000228260C2600B698A691A4382600C
:10D6F00082680123DB031A438260CA68036813430C
:10D7000003604268D14B1A4049691143416010BD22
:10D710000021016041608160C16001610122D2038A
:10D72000426181617047002904D0016801221143E0
:10D73000016070470168490849000160704701684D
:10D740004908490001600168016801221143016034
:10D750007047002A03D002680A43026070470268DB
:10D760008A430260704701225204002903D00168F5
:10D7700091430160704701681143016070470122C5
:10D780009204002903D001681143016070470168C9
:10D790009143016070470122D203002903D0C16880
:10D7A0001143C1607047C1689143C160704710B5B3
:10D7B000C368A74C2340FE2452072140520D114359
:10D7C0001943C16010BD0122D204002903D00168B1
:10D7D0001143016070470168914301607047012265
:10D7E0001204002903D001681143016070470168E9
:10D7F0009143016070474268920A92028905890D3F
:10D800001143416070470122D202002903D04168D0
:10D810001143416070474168914341607047012264
:10D820005206002903D041681143416070474168A6
:10D8300091434160704701221206002903D04168DC
:10D8400011434160704741689143416070474268AD
:10D85000FF231B049A4309041143416070470122CE
:10D860009202002903D0416811434160704741682A
:10D8700091434160704701225203002903D041685F
:10D8800011434160704741689143416070470122F4
:10D890009203002903D041681143416070474168F9
:10D8A00091434160704701221203002903D041686F
:10D8B00011434160704741689143416070470122C4
:10D8C000D203002903D04168914341607047416809
:10D8D0001143416070478069FE21000C0840704789
:10D8E000014600208969012212041140002900D05C
:10D8F0009011704770B5049D4468564E34408905B8
:10D90000890D12041143194329432143416070BD1D
:10D9100001229205002903D001681143016070477C
:10D9200001689143016070470122D203002903D0AE
:10D9300041691143416170474169914341617047B9
:10D94000002905D041690122D20711434161704786
:10D9500041694900490841617047012212030029C9
:10D9600003D041691143416170474169914341616D
:10D9700070474269120B12030905090D11434161F9
:10D9800070474269344B1A40090509091143416146
:10D9900070470122D205002903D0016811430160BC
:10D9A0007047016891430160704701229206002987
:10D9B00003D0416811434160704741689143416021
:10D9C0007047006AC0B2704708B5009000984018D0
:10D9D00000900098006808BD81627047406AC0B23C
:10D9E0007047002A03D002680A4302607047026849
:10D9F0008A43026070470246002092690A40002A6A
:10DA000000D001207047C161704710B500238A041F
:10DA1000920E03D002688024224008E00A06920F8A
:10DA200003D002684024224001E002680A40806975
:10DA30000840002802D0002A00D00123184610BD5B
:10DA4000C161704700540040FFE0CF00FF7FFF0737
:10DA500001F8FFFF009800FCFFFF00F00D4908608F
:10DA600070470C49486070470A4988607047094907
:10DA70000948086070470749086170470549074829
:10DA80000860704701460020024AD2680A4200D06E
:10DA90000120704700300040AAAA0000CCCC000052
:10DAA00030B5827801240178002A16D08B081A4AF2
:10DAB0009B009A1813688907C90EFF258D40AB4358
:10DAC0004578AD072D0E8D401D4315600078C006CA
:10DAD000C00E84401148046030BDC806C00E8440AA
:10DAE0000E488030046030BD0D4A002903D0116912
:10DAF000014311617047116981431161704704222C
:10DB00000849042803D008699043086170470869F0
:10DB1000104308617047000000E400E000E100E00D
:10DB200000ED00E000E000E010B501210C07204608
:10DB300000F0FAFA0021204600F0F6FA10BD37494D
:10DB40008A15002803D008681043086070470868E9
:10DB5000904308607047314A1168E02399430143BC
:10DB6000116070472D491022002803D00868104327
:10DB7000086070470868904308607047274A00298A
:10DB800003D051680143516070475168814351602F
:10DB9000704723490A6904239A430A61012803D084
:10DBA00040BF20BF20BF704730BF70471B4B1A6873
:10DBB0009208920002431A60194803690422134331
:10DBC0000361012906D0022909D00169022211430B
:10DBD0000161704730BF016991430161704720BF07
:10DBE00001699143016170470C48016802221143A9
:10DBF00001600B48016904221143016130BF704785
:10DC000001460020054A52680A4200D001207047B0
:10DC100002490A68800002430A60704700700040B1
:10DC200000ED00E0F74801680122114301604168FE
:10DC3000F54A114041600168F44A114001600168F1
:10DC4000012292049143016041683F2212049143F2
:10DC50004160C16A09090901C162016BEC4A1140C6
:10DC60000163416B490849004163002181607047AD
:10DC7000E44900228A7088707047034600205909E1
:10DC8000E04A00290CD001290CD002290CD0516B9C
:10DC9000DA06D20E012393400B4200D001207047D8
:10DCA0001168F5E7116AF3E7516AF1E718B500204A
:10DCB0000090052424031120FFF7DFFF0099491C81
:10DCC00000910099A14201D00028F4D01120FFF763
:10DCD000D4FF002801D0012018BD002018BDC94A7A
:10DCE0001168F8239943C000084310607047C54984
:10DCF000002804D0086801221043086070470868B3
:10DD00004008400008607047BE4A516BF8239943B1
:10DD1000C000084350637047BA49002804D0486BDC
:10DD20000122104348637047486B40084000486335
:10DD30007047B4490422002803D0486B90434863DD
:10DD40007047486B104348637047AE490A6A5208EF
:10DD500052000A620A6A04239A430A620A6A024368
:10DD60000A627047A7490A6A18239A430A620A6A34
:10DD700002430A627047A349002804D0486A01227E
:10DD8000104348627047486A400840004862704744
:10DD900010B59C4A53687B24E403A3435360536843
:10DDA00008430343536010BD012296491206002820
:10DDB00003D0086810430860704708689043086003
:10DDC000704701228F491204002803D0486B10438A
:10DDD00048637047486B904348637047894AD16AEB
:10DDE000090909010143D162704701228549D20422
:10DDF000002803D008681043086070470868904303
:10DE0000086070477F4B5A681202120A00060843E6
:10DE10001043586070477B4A516889088900014364
:10DE200051607047774840680C2108407047754A38
:10DE30005168F0239943014351607047714A51681A
:10DE400007231B0299430143516070476D494A689B
:10DE500001239B039A434A604A6883B21A434A608B
:10DE60000A6B8B159A430A630A6B000C02430A6320
:10DE7000704764490A6B40239A430A630A6B024362
:10DE80000A6370475F490A6B10239A430A630A6B5F
:10DE900002430A637047010F5A4A01290AD0022936
:10DEA0000DD0116B03239B0499431163116B014344
:10DEB00011637047116B890889001163F6E7116BD4
:10DEC00003231B0499431163F0E74E490A6B802337
:10DED0009A430A630A6B02430A637047F8B5044623
:10DEE0000021484E70680C2210404A4D002820D076
:10DEF000042820D0082820D00C2839D0256070684C
:10DF0000F02210400009444B1F5C20680246FA4092
:10DF100094466260726807273F023A40120A9B5C8F
:10DF20006246DA40A260336BDB0524D43B4BE360EE
:10DF300029E02560E3E72560E1E771680F208004B0
:10DF4000014070680322D20310408F0CBF1C0028D0
:10DF50000AD0F06A0107090F491C284629F01CFF66
:10DF6000784301462160CAE72D4839464143F9E725
:10DF70002C482060C3E773685B0402D45308E36055
:10DF800001E09308E360336B5F06274B03D4264F11
:10DF90001237276100E02361376BFF0601D465610A
:10DFA00000E06061376BBF070ED0376BBF07BF0F54
:10DFB000012F0BD0376BBF07BF0F022F08D0376B75
:10DFC000FF43BF0706D006E0A26104E0A06102E0C3
:10DFD000A36100E0A561376BBF03BF0F0FD0376BA4
:10DFE000BF03BF0F012F21D0376BBF03BF0F022F1D
:10DFF0001ED0376BBF03BF0F032F1BD01BE0E261A6
:10E0000019E00000001002400CB8FF08FFFFF6FE08
:10E01000ACFEF0FF00127A00D4000020809FD500F3
:10E0200000093D00006CDC0200800000E06102E0BD
:10E03000E36100E0E561376B3F03BF0F0FD0326B48
:10E040001203920F012A0CD0306B0003800F0228BC
:10E0500009D0306B0003800F032806D006E022624F
:10E0600004E0206202E0236200E02562306B0006DB
:10E0700002D441486062F8BD6162F8BD3F490A6A56
:10E0800002430A62704701223C49D203002803D0B0
:10E09000086A104308627047086A90430862704734
:10E0A000012236491204002803D0086A104308628E
:10E0B0007047086A904308627047304A002903D0CD
:10E0C0005169014351617047516981435161704702
:10E0D0002A4A002903D091690143916170479169EF
:10E0E000814391617047254A002903D0D1690143DA
:10E0F000D1617047D1698143D16170471F4A0029BE
:10E1000003D0916A014391627047916A81439162A1
:10E1100070471A4A002903D0D1680143D160704783
:10E12000D1688143D1607047144A002903D0116936
:10E1300001431161704711698143116170470F4AB2
:10E14000002903D0517A014351727047517A8143BB
:10E15000517270470948416A012212061143416217
:10E16000704701460020054A92680A4200D001200B
:10E170007047024988727047006CDC020010024050
:10E1800018B500200090FE4B9868800601D501204C
:10E1900018BDCA20586253205862D868A02188430D
:10E1A000D86020218C02D8680840009A521C009246
:10E1B000009AA24201D00028F5D0D868800601D587
:10E1C000012000E00020FF21596218BD18B5002091
:10E1D0000090EB4BD868400615D40020C043D860AF
:10E1E00040210C02D8680840009A521C0092009A04
:10E1F000A24201D00028F5D0D868400601D5012000
:10E2000018BD002018BD012018BD30B50025DC4C1C
:10E21000CA20606253206062FFF7D8FF002816D042
:10E2200000212160D7486061D7486060A068A16084
:10E23000D6482061E161E162E163D148403041604C
:10E24000E1600160FFF79CFF002800D00125FF205E
:10E250006062284630BDCA48C16880229143C160CF
:10E26000704770B505460026C54CCA206062532031
:10E270006062FFF7ABFF002811D0A06840218843FF
:10E28000A060A06829680843A060A8682061206990
:10E29000A988090408432061FFF7DDFF0126FF205C
:10E2A0006062304670BD002101607F214160FF2126
:10E2B00081607047B249002802D0FF204862704751
:10E2C000CA20486253204862704770B50646002550
:10E2D000AB4CCA20606253206062FFF777FF0028D2
:10E2E0000CD01021002E03D0A0680843A06002E0EB
:10E2F000A0688843A060FFF7AEFF0125FF206062A1
:10E30000284670BD9E49CA224A6253224A620028AA
:10E3100004D0886820221043886003E08868DF22E8
:10E3200010408860FF2048627047002103E0491CCC
:10E33000C9B20A38C0B20A28F9D20907090E08433F
:10E34000704701090A2251430007000F4018C0B26C
:10E350007047F8B505460C4600260020884F002D72
:10E3600006D0B968490608D52078FFF7EAFF05E02E
:10E37000B968490602D4E07000E0E070002D0AD0D0
:10E380002078A578000405436078E178000209044C
:10E39000084305430FE02078FFF7C7FF05046078C6
:10E3A000FFF7C3FF00020543A078FFF7BEFF054358
:10E3B000E07800040543CA20786253207862FFF7B2
:10E3C00005FF00280ED0724805403D60FFF743FF6F
:10E3D000B868800605D4FFF7D3FE002802D00126D6
:10E3E00000E00126FF2078623046F8BD0021C170B0
:10E3F000017041708170704710B502460C4660484C
:10E400000168634801408802800E20704B045B0E57
:10E4100063704B065B0EA370090C40231940E1703A
:10E42000002A0AD1FFF78DFF20706078FFF789FF7F
:10E430006070A078FFF785FFA07010BD5049886A12
:10E440004968704770B505460C460026002D06D178
:10E450006078C10603D5EF2108400A306070002DB6
:10E4600005D06078FFF76DFFA078FFF76AFF002DF9
:10E470000AD0E078A578000405436078217800028E
:10E480004903084305430FE0E078FFF74EFF05041A
:10E490006078FFF74AFF00020543A078FFF745FFC9
:10E4A0000543207840030543354CCA206062532061
:10E4B0006062FFF78BFE00280ED03648054065608D
:10E4C000FFF7C9FEA068800605D4FFF759FE0028B3
:10E4D00002D0012600E00126FF206062304670BDB8
:10E4E00001210170817041700021C170704710B529
:10E4F00002460C462248416826480140080CE0705C
:10E50000CB04DB0E63708B069B0EA3700904490FCE
:10E510002170002A0AD1FFF714FFE0706078FFF73E
:10E5200010FF6070A078FFF70CFFA07010BD70B5F1
:10E53000054614460020124E002D06D0B16849064B
:10E5400008D52078FFF7FDFE05E0B168490608D43C
:10E55000E07006E0E070A068002823D0207BFFF781
:10E56000F0FE002D22D02078A578000405436078C5
:10E57000E1780002090408430543207B00060BE014
:10E5800000280040FFFF000001210000FF007F0085
:10E590007F7F7F003FFFFF000543A0680543606861
:10E5A00005431CE0207BFFF7CCFEDAE72078FFF77D
:10E5B000BCFE05046078FFF7B8FE00020543A078B2
:10E5C000FFF7B3FE0543E07800040543207BFFF727
:10E5D000ACFE00060543A068054360680543CA20F9
:10E5E000706253207062F561FF20706270BD00217F
:10E5F000C1700170417081708160012202734160BD
:10E60000704770B503461446FC48C1698802800E05
:10E6100020704A04520E62704A06520EA2700A0C12
:10E6200040252A40E2708A00920E22732A060A4090
:10E63000A260F34A11406160002B0ED1FFF781FE0A
:10E6400020706078FFF77DFE6070A078FFF779FE9C
:10E65000A070207BFFF775FE207370BD18B50022F7
:10E660000092E64BCA225A6253225A62002904D011
:10E67000996801439960012015E099688143996088
:10E68000000A0124A403D9680140009A521C009298
:10E69000009AA24201D00029F5D0D968014201D1E7
:10E6A000002000E00120FF21596218BDD348CA2391
:10E6B00043625323436212060A43D04940314A6001
:10E6C000FF2141627047CD48403040684004400C13
:10E6D0007047CA49CA224A6253224A628A68D208EB
:10E6E000D2008A608A6802438A60FF2048627047CD
:10E6F000C249CA224A6253224A624861FF204862E4
:10E700007047BE48406980B2704718B5002100913B
:10E71000BA4ACA215162532151621115002804D00E
:10E72000906808439060012014E0906888439060EE
:10E7300004231C03D06818400099491C00910099DB
:10E74000A14201D00028F5D0D068400701D40020B4
:10E7500000E00120FF21516218BD10B5A74ACA236D
:10E7600053625323536293680124A404A343936028
:10E770009368084303439360FF20506210BD9F4895
:10E780008068012189040840704710B59B4ACA235C
:10E79000536253235362936807242405A343936071
:10E7A0009368084303439360FF20506210BD934970
:10E7B000CA224A6253224A620122D205002803D0AB
:10E7C00088681043886002E0886890438860FF2072
:10E7D000486270478949CA224A6253224A628A685B
:10E7E0000123DB049A438A608A6802438A60FF201F
:10E7F0004862704770B50023804CCA256562532576
:10E800006562E568ED0307D5A51400E05B1CE668CA
:10E81000F60301D5AB42F9D1E368DB0304D4084326
:10E820001043E063012000E00020FF21616270BD21
:10E8300010B5724B9A68734C2240002903D00243F2
:10E84000D814024300E00243CA20586253205862A1
:10E850009A60FF20586210BD70B50C461546674A95
:10E86000116B694B1940526BC023DB431A408B027A
:10E870009B0E23704B045B0E63704B065B0EA37004
:10E88000090C40231940E1700021E970D104C90E40
:10E8900069709106890EA9701104490F297000282A
:10E8A00017D12078FFF74DFD20706078FFF749FD04
:10E8B0006070A078FFF745FDA0706878FFF741FD14
:10E8C0006870A878FFF73DFDA8702878FFF739FD3C
:10E8D000287070BD4948806B7047484A40004032FC
:10E8E000002903D01168014311607047116881430A
:10E8F00011607047414A4032002903D0116801433A
:10E900001160704711688143116070473B49403185
:10E910000A680323DB029A430A600A6802430A601A
:10E920007047364940310A6807231B029A430A6040
:10E930000A6802430A607047304940310A6803237D
:10E940005B039A430A600A6802430A6070472B49D6
:10E9500080224031002803D00868104308607047C7
:10E96000086890430860704724494031CA13002862
:10E9700003D0086890430860704708681043086037
:10E98000704708B51D4A50328000801800900098EA
:10E99000016008BD08B51949503180004018009049
:10E9A0000098006808BD154940310A6801239B049E
:10E9B0009A430A600A6802430A60704730B5002231
:10E9C0000E4CCA23636253236362E3681B0707D5B7
:10E9D000A31400E0521CE5682D0701D59A42F9D135
:10E9E000E268120716D4A268D20611D40143E1628C
:10E9F000FFF7C6FB002809D001200CE000280040EA
:10EA000080808080F7F7FFFF7F7F7F00002002E09B
:10EA1000002000E00020FF21616230BD30B52C4BAA
:10EA2000CA225A6253225A6204250246284CAA433B
:10EA300040342840002906D0996811439960216824
:10EA40000143216005E09968914399602168814301
:10EA50002160FF20586230BD024600201C49C96871
:10EA60001C4B1940114200D00120704780210843FF
:10EA7000C003C00BC2431648C3680B401A43C260B0
:10EA8000704770B50021124A4032126804231A40C0
:10EA90000F4CA368860C0546F540ED0B034015406E
:10EAA0002B43E26800090240002B03D01004000C45
:10EAB00000D00121084670BD00098021084380B2C2
:10EAC000C2430348C3680B401A43C260704700004A
:10EAD000002800407879010010B5BE49884209D16C
:10EAE000841401212046FFF714FB00212046FFF784
:10EAF00010FB10BDB8498842FBD104140121204607
:10EB0000FFF712FB00212046FFF70EFB10BD00218E
:10EB100001804180072212028280C18001814181EF
:10EB20008181C18107210182704730B50388C122EC
:10EB3000920113400A88CC890D892243CC882C434A
:10EB400022434C8922438C8922431A4302808288C3
:10EB5000A24B1A408B88134383800A8A0282028860
:10EB600004239A43498811430180818B9C4A1140B8
:10EB7000818330BD0021018041808180C1800222DB
:10EB8000826081817047F0B58BB005460C4602204B
:10EB900000210126AA8B914BBF3B1A40AA83022277
:10EBA0002A84AF8BA268022A1FD0A088002800D038
:10EBB000022601A8FFF792F90198E188CA1FFF3ADF
:10EBC000FA3A29D0710129F0E7F80A214843A168EF
:10EBD00029F0E2F8401D80B20A2129F0DDF8C107D2
:10EBE000C90F401AC003000C0902821EFE2A01D37D
:10EBF00002200021E288084302432A842088618899
:10EC0000A2890843A1881143084301213843C9025E
:10EC10000843A8830BB0F0BD000A0A225043A16844
:10EC200029F0BAF8401D80B2D6E74022002903D06F
:10EC3000018811430180704701889143018070472A
:10EC40001022002903D08188114381807047818878
:10EC5000914381807047002905D0818B0122920267
:10EC6000114381837047818B5E4A114081837047D5
:10EC700082885A4B1A400A438280704782885A4BD6
:10EC80001A40828082880A43828070470122920360
:10EC9000914203D101881143018070470188534A92
:10ECA000114001807047524A914205D00188FF22ED
:10ECB0000132114301807047018811400180704783
:10ECC0000422002903D08188114381807047818804
:10ECD0009143818070470822002903D08188114325
:10ECE00081807047818891438180704701737047AC
:10ECF00081817047007B7047808970470288384B5C
:10ED00001A40028002880A4302807047002905D019
:10ED10000188012252031143018070470188354A5E
:10ED200011400180704701880122120311430180C4
:10ED30007047012901D0008B7047808A7047008A94
:10ED40007047002A03D082880A43828070478288F5
:10ED50008A43828070478288274B1A40828082884B
:10ED60000A4382807047090901238B4099B2002A27
:10ED700003D082880A438280704782888A438280D7
:10ED8000704700890321C9020840704700890321A8
:10ED90004902084070470246002012890A4200D00A
:10EDA00001207047C9430181704730B502460020F9
:10EDB0000D0701242D0F2346AB409BB209098C405F
:10EDC000A4B29188214012891A4202D0002900D0B1
:10EDD000012030BD0030014000380040FFF000004D
:10EDE000FFF70000FFFB0000FFEF0000FFBF000087
:10EDF000FFFE0000FFDF0000FF9F000030480168B9
:10EE00008907890F016000218160C1600161416152
:10EE100081698215114381617047294A1168890807
:10EE20008900014311607047254A002903D0116809
:10EE30000143116070471168814311607047204A97
:10EE4000002903D0116801431160704711688143A4
:10EE5000116070471A490A68C0239A430A600A6819
:10EE600002430A60704710B58A07120F0F239340C0
:10EE70008C081349A40061188C689C438C608B68D3
:10EE8000904003438B6010BD0D4A010E8900803213
:10EE9000891809680002000A0840704708498A6911
:10EEA00002438A617047002005498969C90500D578
:10EEB0000120704702498A6902438A617047000055
:10EEC0000000014010B5FA49884209D1C41401215B
:10EED0002046FFF71EF900212046FFF71AF910BD62
:10EEE00001218907884208D101210846FFF71CF952
:10EEF00000210120FFF718F910BDEE49884208D122
:10EF000001210220FFF710F900210220FFF70CF980
:10EF100010BDE949884208D101211020FFF704F90A
:10EF200000211020FFF700F910BDE449884208D104
:10EF300001212020FFF7F8F800212020FFF7F4F846
:10EF400010BDDF49884209D1841501212046FFF711
:10EF5000EBF800212046FFF7E7F810BDD9498842B9
:10EF600009D101210C042046FFF7D3F800212046E7
:10EF7000FFF7CFF810BDD449884209D101214C04D4
:10EF80002046FFF7C6F800212046FFF7C2F810BD63
:10EF9000CE498842FBD101218C042046FFF7B9F805
:10EFA00000212046FFF7B5F810BD10B50288C04B10
:10EFB000984206D00124A407A04202D0BD4CA04232
:10EFC00003D17024A2434C882243BB4CA04203D0FF
:10EFD000BF4C22400C89224302804A68C2620A88E0
:10EFE0000285984208D0B74A904205D0B64A90426E
:10EFF00002D0B64A904201D1897A018601218182EC
:10F0000010BD0021C9434160002101800181418080
:10F0100081727047018582827047028870239A430B
:10F020000A430280704741627047C1627047406A7C
:10F030007047008D70470222002903D001881143D8
:10F0400001807047018891430180704704220029A4
:10F0500003D00188114301807047018891430180EA
:10F0600070478022002903D0018811430180704736
:10F070000188914301807047028808239A430280E7
:10F0800002880A43028070470288914B1A4002802E
:10F0900002880A4302807047002904D001880122B7
:10F0A0001143018070470188490849000180704779
:10F0B00010B50A884B88CC881A438B8823431A439F
:10F0C0000B891A434B8989891A430A43403082804D
:10F0D00010BD0021018041808180C180018141817A
:10F0E000818170474030002905D081880122D203F8
:10F0F00011438180704781884904490C81807047A1
:10F1000070B5028C520852000284048C8288038BF2
:10F110007025AB439B089B000D881D4302239C4335
:10F120008E8926434B883343614CA04208D0654CFE
:10F13000A04205D0644CA04202D0644CA0420FD142
:10F140000824A343CC891C4304239C438B8823437A
:10F15000604C2240604C22400C8A14434A8A22436D
:10F160008280058389684163038470BD70B5028C19
:10F1700010239A430284048C8288038B574D2B40C2
:10F18000534D2B400D782D062D0C1D4320239C4301
:10F190008B891B051E0C26434B881B051B0C334318
:10F1A000434CA04202D0474EB04219D14C4E32409F
:10F1B0000E8AB604360C3243A04211D18024A343F8
:10F1C000CC892405240C1C4340239C438B881B05BD
:10F1D0001B0C2343434C22404C8AA404240C22439E
:10F1E0008280058389688163038470BD30B5028C99
:10F1F000384B1A400284038C8288848B7025AC4380
:10F20000A408A4000D882543334C23400C7B24061E
:10F21000240C1C438B781B061B0C2343244CA0425C
:10F2200017D1304C23408C7B2406240C1C432C4BE0
:10F230001C400B791B061B0C23432B4C22402B4CF0
:10F2400022400C8A2405240C14434A8A1205120C0D
:10F250002243828085838968C163038430BD30B5D1
:10F26000028C214B1A400284058C8288838B1B4CB4
:10F270002340174C23400C782406240C1C431B4BC2
:10F280001D400B7B1B071B0C2B438D782D072D0C72
:10F290001D43074B984205D1154B13400A8A92052E
:10F2A000120C1A438280848389680164058430BD0E
:10F2B000002C0140000400400010004000140040F9
:10F2C000002000400040014000440140004801404F
:10F2D000FFFC0000FFFE0000FFFD0000FF8F0000AC
:10F2E000FFFB0000FFF70000FFEF0000FFDF000062
:10F2F000FFBF000000210180418081808160818109
:10F30000C18101824182704730B503461833012420
:10F310008C40058CA5430584002910D008290ED007
:10F32000091F0804400CC018016807231B039943F8
:10F33000016001681206120C11430160B7E748082A
:10F34000C01801687023994301600168114301608E
:10F35000ADE74163704781637047C16370470164E3
:10F360007047028B70239A430A4302837047028BD3
:10F37000F84B1A400902114301837047828B7023B6
:10F380009A430A4382837047828BF24B1A400902E8
:10F39000114381837047002904D0818801221143E1
:10F3A0008180704781884908490081807047028BBD
:10F3B00008239A430A4302837047028BE64B1A40A4
:10F3C0000902114301837047828B08239A430A4341
:10F3D00082837047828BE04B1A400902114381837C
:10F3E0007047028B04239A430A4302837047028BBF
:10F3F000DA4B1A400902114301837047828B0423C0
:10F400009A430A4382837047828BD44B1A40090285
:10F41000114381837047028B80239A430A430283FE
:10F420007047028B5204520C09021143018370474A
:10F43000828B80239A430A4382837047828B5204D3
:10F44000520C0902114381837047028C02239A43B4
:10F450000A4302847047028C08239A430A430284B9
:10F460007047028C20239A4309011143018470479D
:10F47000028C80239A430901114301847047028C56
:10F48000B74B1A400902114301847047028CB24BFA
:10F490001A400902114301847047028CB14B1A4093
:10F4A0000903114301847047028908239A430281AA
:10F4B00002890A430281704710B501238B40048CF6
:10F4C0009C430484038C8A401343038410BD10B50D
:10F4D00004238B40048C9C430484038C8A40134394
:10F4E000038410BD0422002903D081881143818048
:10F4F00070478188914381807047828B9A4B1A4074
:10F500008283828B09020A438283704770B5048C20
:10F51000964D2C400484858B048C0903944E354011
:10F5200012022A431B031343924A14400C43012145
:10F5300009030C438383048470BD828B0C239A439C
:10F540008283828B0A438283704770B5048C8A4D14
:10F550002C400484858B048C0E02F3218D43190109
:10F5600011432943854A1440FF2234430132144396
:10F570008183048470BD028B7B4B1A400283028B13
:10F5800009020A4302837047F0B5048C1026B44385
:10F590000484058B048C0901754F3D401B032B43EC
:10F5A00012021A43A0239C430C4334430283048475
:10F5B000F0BD028B0C239A430283028B0A43028321
:10F5C000704770B5048C640864000484058B048C57
:10F5D000F326B5431B0113432B430A2294430C43E8
:10F5E00001210C430383048470BD70B505460C46AD
:10F5F00020886188A288238900280BD0042811D094
:10F60000082817D02846FFF781FFE1882846FFF732
:10F6100074FF70BD2846FFF7D4FFE1882846FFF746
:10F62000C8FF70BD2846FFF7AFFFE1882846FFF707
:10F63000A2FF70BD2846FFF788FFE1882846FFF744
:10F640007CFF70BD00210180418001228280C18049
:10F6500001817047F8B507460C46002501266188F0
:10F66000002900D10225A288012A00D10226208883
:10F670002389002811D03846FFF786FFE1883846F5
:10F68000FFF779FF2389324629463846FFF799FF6D
:10F69000E1883846FFF78DFFF8BD3846FFF791FF48
:10F6A000E1883846FFF785FF2389324629463846E8
:10F6B000FFF76AFFE1883846FFF75DFFF8BD406B52
:10F6C0007047806B7047C06B7047006C7047002AB2
:10F6D00003D082890A438281704782898A4382816A
:10F6E00070478182704702460020128A0A4200D089
:10F6F00001207047C9430182704702460020138AE7
:10F700000B4092890A40002B02D0002A00D0012031
:10F710007047C943018270471143403001817047EF
:10F72000002A03D082890A438281704782898A43F2
:10F73000828170470822002903D08188114381808B
:10F74000704781889143818070470189C908C90049
:10F7500001817047FF8F0000FFF70000FFFB0000F2
:10F76000FFFD0000FFDF0000FFF30000FFEF0000DF
:10F77000FF0C0000FF5F0000FFFE0000FFF500002F
:10F78000028970239A430A430281E2E710B50446D6
:10F790002046FFF7F5FF208907210843208110BD8F
:10F7A00070B50D4604461146602D0CD0012220464E
:10F7B000FFF707FF29462046FFF7E2FF20890721D0
:10F7C0000843208170BD01222046FFF7DDFEF1E7EE
:10F7D00010B50489E4B21B0213430B432343038196
:10F7E00010BD10B504462046FFF7F2FF2089C1087E
:10F7F000C90007200143702081430143218110BDCE
:10F8000010B504462046FFF7E3FF20890121890354
:10F810000843208110BD828870239A4382808288A9
:10F820000A43828095E70289D208D20002810289C8
:10F830000A4302818DE7028980239A43028102896B
:10F840000A43028185E770B50689048B058CF608AA
:10F85000F6000E430D490C40FF2102310C43AA2152
:10F860008D4319011143294306810483018470BD2E
:10F870008022002903D081881143818069E7818833
:10F880009143818065E74030018262E7FCFC000023
:10F8900010B5F949884209D101218C032046FEF7B1
:10F8A00038FC00212046FEF734FC10BDF3498842A5
:10F8B00009D101214C042046FEF736FC00212046E8
:10F8C000FEF732FC10BDEE49884209D101218C04BB
:10F8D0002046FEF729FC00212046FEF725FC10BD3E
:10F8E000E849884209D10121CC042046FEF71CFCDE
:10F8F00000212046FEF718FC10BDE349884209D1DB
:10F9000001210C052046FEF70FFC00212046FEF7E2
:10F910000BFC10BDDD49884208D101212020FEF7F3
:10F92000F8FB00212020FEF7F4FB10BDD8498842E7
:10F9300008D101214020FEF7ECFB00214020FEF71A
:10F94000E8FB10BDD3498842FBD101218020FEF79E
:10F95000E0FB00218020FEF7DCFB10BD30B58BB052
:10F9600004460D462068400840002060606803217E
:10F9700009038843A968014361602068C6490840BB
:10F98000EA68696811432A69024311432160A0684B
:10F9900003210902884369690143A16001A8FEF7B8
:10F9A0009DFAB548844201D107980AE0B3488442E1
:10F9B00001D1089805E0B248844201D1099800E0DD
:10F9C00003982168090404D54000296828F0E4F967
:10F9D00002E0296828F0E0F92A6852088A4200D833
:10F9E000401C2168090404D50107490FAB4A1040A7
:10F9F0000843A0810BB030BD4B21C901016000213B
:10FA000041608160C1600C2202614161704710B5A4
:10FA100042680F231B029A434C680B6823438C688F
:10FA2000C9680C4323431343436010BD00210160A8
:10FA300041608160C1607047002904D001680122E3
:10FA4000114301607047016849084900016070472F
:10FA5000002A03D002680A430260704702688A43A2
:10FA6000026070470122D203002903D001681143CC
:10FA70000160704701689143016070470122D20222
:10FA8000002903D0816811438160704781689143E8
:10FA9000816070470122D204002903D041681143DC
:10FAA0004160704741689143416070470122920470
:10FAB000002903D041681143416070474168914378
:10FAC00041607047002A03D042680A434260704791
:10FAD00042688A43426070470122D203002903D062
:10FAE00041681143416070474168914341607047EC
:10FAF0000122D205002903D04168114341607047BB
:10FB000041689143416070474269120E120642619A
:10FB100042690A4342617047028A120A1202028253
:10FB2000028A0A43028270470222002903D0016838
:10FB3000114301607047016891430160704782681A
:10FB400003231B059A43826082680A4382607047E0
:10FB500001221205002903D041681143416070471A
:10FB60004168914341607047426803235B059A43B3
:10FB7000426042680A4342607047C905C90D018569
:10FB80007047808CC005C00D704742681202120A8F
:10FB90004260426809060A434260704701225203EC
:10FBA000002903D001681143016070470168914347
:10FBB0000160704702680123DB029A430260026819
:10FBC0000A4302607047426810239A4342604268C9
:10FBD0000A4342607047426820239A434260426869
:10FBE0000A434260704701229203002903D0416812
:10FBF000114341607047416891434160704708225A
:10FC0000002903D081681143816070478168914366
:10FC100081607047028AD2B20282028A09020A43D4
:10FC2000028270472022002903D08168114381603D
:10FC3000704781689143816070471022002903D08A
:10FC4000816811438160704781689143816070478A
:10FC5000826807235B049A438260826849040A43EE
:10FC60008260704742691202120A426142690906C3
:10FC70000A434261704700000038014000440040E0
:10FC800000480040004C004000500040001401407B
:10FC900000180140001C0140F3E9FFFFF0FF0000E5
:10FCA000826804239A43826082680A438260E1E7A3
:10FCB0000222002903D0816811438160DAE781685C
:10FCC00091438160D6E701229203002903D0816825
:10FCD00011438160CEE7816891438160CAE7826801
:10FCE0000123DB039A43826082680A438260C1E792
:10FCF00002681F235B059A430260026849050A43B4
:10FD00000260B7E702681F231B049A43026002687F
:10FD100009040A430260ADE7002A03D082680A435F
:10FD20008260A7E782688A438260A3E78268012332
:10FD30005B039A43826082680A4382609AE710B547
:10FD40000B041C0E01238B40022C02D0032C02D08A
:10FD500002E0001D00E00830002A03D001681943CA
:10FD6000016010BD01689943016010BD002A03D0F5
:10FD7000028B0A4302837DE7028B8A43028379E781
:10FD8000826801231B039A43826082680A4382606F
:10FD900070E702460020D2690A4200D0012069E7DC
:10FDA000016267E730B500240A04130E01252A46D4
:10FDB0008A40012B0ED0022B0FD083681340090C10
:10FDC0008D40C0692840002B02D0002800D00124BB
:10FDD000204630BD03681340F1E743681340EEE767
:10FDE000090C01228A40026244E70000704710B506
:10FDF0000446E748FDF732FE0620FDF732FEE548EF
:10FE0000FDF732FEFDF733FEFDF738FEE2492160D3
:10FE100010BDF3B587B00546E048007B012824D02B
:10FE2000022824D0042824D0082824D0102824D044
:10FE3000202824D0402824D0D9A1DB48427F002AA2
:10FE40002DD0827B002A1ED0827B012A1DD0827B8E
:10FE5000022A1CD0827B032A1BD0827B042A1AD060
:10FE6000827B052A19D0D1A21AE0D2A1E5E7D4A15C
:10FE7000E3E7D6A1E1E7D8A1DFE7DAA1DDE7DDA17D
:10FE8000DBE7E0A1D9E7E1A20AE0E6A208E0ECA204
:10FE900006E0F0A204E0F3A202E0F5A200E0F9A27D
:10FEA000C14C203C637E9B060BD5037C002B04D009
:10FEB000037CFE2B03D0F5A304E0D3A302E0F5A35B
:10FEC00000E0F0A3667E3607B60F0CD0F34E367A0C
:10FED000002E04D0C07BFF2803D0CBA004E0F0A00C
:10FEE00002E0EAA000E0E7A0AC4E0493943E059245
:10FEF00006910390B068C030007A00280BD0E3A1CF
:10FF00007068C07E012808D070682030807C00288E
:10FF100005D0BDA004E0BCA1F2E7E1A000E0DBA0B9
:10FF2000A14F403F3A6812790092029101903868DF
:10FF3000C37838688278DC49284629F077FA607EF1
:10FF4000800917D038694079002803D138690079D1
:10FF5000002807D0284627F073FF4019D3A129F0C5
:10FF600065FA0EE0284627F06BFF4019D1A129F071
:10FF70005DFA06E0284627F063FF4019CFA129F07B
:10FF800055FAE07EC006C00E0A280AD0284627F09F
:10FF900057FF316A40192031897B490711D5C9A221
:10FFA00010E0284627F04CFF316A40192031897B48
:10FFB000490701D5C3A200E0C3A2C4A129F036FAC3
:10FFC00003E0C1A2C4A129F031FAE07EC006C00E50
:10FFD000042814D0E07EC006C00E05281FD0E07EA5
:10FFE000C006C00E0D282AD0284627F029FF316A06
:10FFF00040192031897B890631D5B2A230E02846EC
:020000040801F1
:1000000027F01EFF316A40192031897B890601D50E
:10001000ACA200E0ACA2B3A129F008FA23E0284684
:1000200027F00EFF316A40192031897B890601D5FE
:10003000A4A200E0A4A2AEA129F0F8F913E028469A
:1000400027F0FEFE316A40192031897B890601D5EF
:100050009CA200E09CA2A9A129F0E8F903E09AA2E1
:10006000A9A129F0E3F9E07EC006C00E0B2821D03B
:10007000E07EC006C00E02281CD0E07EC006C00E86
:10008000032817D0E07EC006C00E0C2831D0E07ED9
:10009000C0062ED0E07EC006C00E012829D0E07E2A
:1000A000C006C00E082841D0E07EC006C00E092858
:1000B0003CD050E0284627F0C3FE316A4019203179
:1000C000897B890701D57FA300E07FA3E17EC90674
:1000D000C90E022909D0E17EC906C90E032906D03E
:1000E00078228BA129F0A2F935E02D22F9E72B2205
:1000F000F7E7284627F0A4FE316A40192031897BB2
:10010000C90901D06FA300E06FA3E17EC90609D041
:10011000E17EC906C90E012906D0782280A129F006
:1001200085F918E02D22F9E72B22F7E7284627F07A
:1001300087FE316A40192031897BC90701D061A34C
:1001400000E061A3E17EC906C90E08290ED02B226A
:1001500077A129F06BF9284627F072FE316A401921
:100160002031897B090703D556A202E02D22EFE753
:1001700055A273A129F05AF90898002805D0002D3E
:1001800003D0294670A029F041F909B0F0BD000064
:1001900055550000FF0F00006FDA0008E00A00204C
:1001A000556E6B6E6F7700003C080020554E4B4E2D
:1001B0004F570000436F6E664661696C65640000CE
:1001C000536F66745265736574000000495744525A
:1001D0006573657400000000575744526573657479
:1001E000000000004C5057525253545265736574CE
:1001F00000000000506F7765724F6E526573657432
:1002000000000000436F6E664F4B00005245535F85
:1002100057414954494E475F53454E44494E475F05
:10022000434D44005245535F57414954494E475F3F
:10023000524553504F4E53455F56414C5545000073
:100240005245535F434845434B53554D5F455252CA
:100250004F5200005245535F524553554C545F4F27
:100260004B0000005245535F54494D454F555400D3
:100270005245535F5041434B4147455F4552524FB2
:10028000520000004E4F5420555345004661756C96
:10029000740000004661756C74310000E4000020B9
:1002A00069646C650000000090A8030842757A3A02
:1002B000410A000042757A3A310A000042757A3AE2
:1002C0004E410A004F4E00004F464600412D41432B
:1002D000433A2025730A00004143433A2025730A1C
:1002E00000000000412D4169722D3A25730A00007B
:1002F000412D4169722B3A25730A0000412D416955
:1003000072783A25730A00004169723A25730A002F
:10031000412D446F6F725B25635D3A25730A0000BF
:10032000412D42454E5B25635D3A25730A0000006E
:10033000412D534F535B25635D3A25730A0000003E
:10034000454E473A25730A0025730000F0B5C1B049
:100350007E4E70692030807B052876D07069203011
:10036000807B012872D070692030807B03286ED09A
:1003700070692030807B02286AD070692030807BD1
:10038000042866D072A2744DA96874A07A3129F04D
:100390003DF87D4B7DA09A1F11460E3129F036F8AD
:1003A0006A4C6034A2782178231D7FA029F02EF8B2
:1003B000E1788AA029F02AF82746203FF87F012813
:1003C0007ED08DA2B16D8EA029F020F8286A808D94
:1003D00028F0BDFA924928F0D2F828F0FFFAB022AE
:1003E000009202460B468FA029F010F866487A3832
:1003F000418A94A029F00AF863487A38818A97A044
:1004000029F004F8716C9BA029F000F8A04901A81C
:100410000968884701A99FA028F0F8FFA868A030C4
:10042000827CA868A030017D9BA028F0EFFFBA89EC
:10043000B068418A9FA028F0E9FF716DA4A028F060
:10044000E5FFA8684068418D04E03AE03BE03CE00D
:100450003DE03EE0A6A028F0D9FFA8684168ADA025
:10046000491C28F0D3FFA868406820300078022893
:1004700033D0AEA3326A316A4E322A31AFA028F0AF
:10048000C5FF607F00282AD0AFA00090A868406810
:1004900020304078022824D0A4A3326A316A79320D
:1004A0005531ACA028F0B2FF08F0DDFB012101A816
:1004B000FFF7AFFC22F078FC22F01FFD41B065E6AB
:1004C00009E0A8A25FE7AAA25DE7ABA25BE7ACA246
:1004D00059E7ADA257E7B2A274E795A3CAE7B2A065
:1004E000D3E793A3D9E710B5B3A028F08FFF3B2142
:1004F000B8A028F08BFF6421BEA028F087FF302130
:10050000C4A028F083FF0C21CAA028F07FFF062199
:10051000D1A028F07BFF1421D8A028F077FF0C2170
:10052000DDA028F073FF2021E5A028F06FFF0E2149
:10053000ECA028F06BFF2021F3A028F067FF142126
:10054000F9A028F063FF40225C21FFE1FC070020B6
:10055000554E4B4E4F574E004C0A00205B544731CE
:1005600030322D547261636B65722C20496E737446
:10057000616E7420766965776572202D2025732061
:100580002D2025735D0A00005E0100205665727300
:10059000696F6E202020202020202020203A202556
:1005A0007325732E25730A0052657374617274206B
:1005B000696E666F20202020203A2025642C20615F
:1005C00075746F20696E74657276616C3A2025646B
:1005D0002C206C6173743A2025730A0057616B6597
:1005E0005570496E74657276616C2020203A202522
:1005F00064286D696E290A00756E73616665000076
:1006000052756E6E696E672074696D6520202020BA
:10061000203A202564202868292C2025730A000010
:100620000000204154656D706572617475726520BB
:1006300020202020203A2025332E31662563430ACE
:10064000000000005461736B312072756E6E696E2C
:1006500067202020203A2025640A00005461736B33
:10066000322072756E6E696E67202020203A202538
:10067000640A000053797374656D2E537573706549
:100680006E642020203A20307825780A000000008F
:10069000B80200202573000047534D206E65747723
:1006A0006F726B206E616D65203A205B25645D2F53
:1006B00025640A00534D5320636F756E7465722074
:1006C00020202020203A2025642F25640A000000E5
:1006D00042797465436F6E75746572202020202006
:1006E000203A202564202862797465290A000000D8
:1006F000475052532020202020202020202020203E
:10070000203A20617661696C61626C652C202564F9
:100710000A0000004C6F63616C20495020202020AB
:1007200020202020203A2025730A00006E6F7420BC
:10073000636F6E6E656374656400000025732F251A
:10074000733A2025730A0000416374697661746509
:100750006400000025732F25733A2025732D25731F
:100760000A000000534F494C442053544F5000009E
:1007700052455354494E470053544F50504544003E
:1007800052554E4E494E470052554E4E494E472007
:10079000494E204F564552535045454400000000F5
:1007A00073616665000000006E6F74206163746998
:1007B0007661746564000000434845434B2053490B
:1007C0005A45204F462044415441205459504553E6
:1007D0000A0000002D2053697A65206F6620746737
:1007E0003130327061636B6167655F6465663A20C2
:1007F00025640A002D2053697A65206F66204472B3
:10080000697665725F6465662020203A2025640A57
:10081000000000002D2053697A65206F6620566520
:100820006869636C655F64656620203A2025640A08
:10083000000000002D2053697A65206F66206865EE
:10084000616465726F667061636B65745F64656631
:100850003A2025640A0000002D2053697A65206F34
:100860006620666F6F7465726F667061636B657426
:100870005F6465663A2025640A0000002D205369F4
:100880007A65206F66206770735F646174615F646E
:1008900065663A2025640A002D2053697A65206F29
:1008A000662067656E6572616C5F73746174655F05
:1008B000646174615F6465663A2025640A00000023
:1008C0002D2053697A65206F66207163766E5F73A1
:1008D000706565645F646174615F6465663A202574
:1008E000640A00002D2053697A65206F66207163C9
:1008F000766E5F6472697665725F646174615F646D
:1009000065663A2025640A002D2053697A65206FB8
:1009100066206D6561737572655F646174615F64A3
:1009200065663A2025640A002D2053697A65206F98
:1009300066206865617274626561745F6461746188
:100940005F6465663A2025640A0000006BA028F009
:100950005DFD1022202172A028F058FD10222421D4
:1009600078A028F053FD212293217FA028F04EFD8E
:100970000C2186A028F04AFD0C218BA028F046FD12
:10098000382190A028F042FD842198A028F03EFD57
:1009900064219FA028F03AFD4021A6A028F036FD52
:1009A0003021ADA028F032FD0621B4A028F02EFDA4
:1009B0000821BBA028F02AFD2021C2A028F026FD96
:1009C00010BDFEB5C84CC9A028F020FDCD49CEA071
:1009D00028F01CFDD24BD3A09A1F11460E3128F0EF
:1009E00015FDD7A023686268A16828F00FFDC54DEA
:1009F0004035687F800601D5D9A100E0DEA1E3A0E3
:100A000028F004FDE74841680968097942681268DE
:100A1000D27843681B689B780093019202914168E9
:100A200049680B7941684968CA78406840688178AC
:100A3000DDA028F0EBFCB34C80342178E8A028F04E
:100A4000E5FC211DECA028F0E1FCD64E9436337B6A
:100A5000012B17D0022B17D0042B18D0082B19D03C
:100A6000102B1AD0202B1BD0402B1CD0E84ACD498C
:100A7000E8A0A13128F0CAFCA9487A38407A0028B9
:100A800013D01AE0EBA2F2E7E14A2032EFE7E04AA6
:100A90002C32ECE7DE4A3832E9E7DD4A4432E6E759
:100AA000DB4A5432E3E7E7A2E1E7307B202801D0BC
:100AB000402802D11B2010F060F8E5A028F0A6FC29
:100AC000E648FDF70BFAE54EE5A0316828F09EFCFC
:100AD000EAA0716828F09AFCEFA0B16828F096FCB3
:100AE000F4A0F16828F092FCF9A0B16928F08EFC1E
:100AF000617CFEA028F08AFC02E200002D205369F0
:100B00007A65206F66204472697665724D73675FFF
:100B10006465663A2025642B31393B2025640A0040
:100B20002D2053697A65206F662053746F704D7362
:100B3000675F646566203A2025642B31393B2025A8
:100B4000640A00002D2053697A65206F662053687F
:100B50006966744D73675F6465663A2025642B315E
:100B6000393B2025640A00002D2053697A65206FE7
:100B7000662053506565644D73675F6465663A200F
:100B800025643B202564200A000000002D205369C5
:100B90007A65206F662054696D655F646566202004
:100BA00020203A2025640A002D2053697A65206FA1
:100BB0006620446174655F646566202020203A20C9
:100BC00025640A002D2053697A65206F66205265DE
:100BD00071756573744D616E6167656D656E745F87
:100BE0006465663A2025640A000000002D205369E0
:100BF0007A65206F662053797374656D4D616E61FF
:100C00006765725F646566203A2025640A0000000B
:100C10002D2053697A65206F662046696C654D61A9
:100C20006E6167656D656E745F6465663A20256404
:100C30000A0000002D2053697A65206F66205466F3
:100C4000696C655F646566202020202020202020BC
:100C50003A2025640A0000002D2053697A65206F30
:100C600066205466696C6553797374656D5F64655D
:100C7000662020203A2025640A0000002D205369B8
:100C80007A65206F66207374617469737469635F39
:100C90007461626C655F6465663A2025640A0A00C7
:100CA0002D2053697A65206F66207061636B6167E0
:100CB00065696E666F5F646566202020203A202596
:100CC000640A0A002D2053697A65206F66205175E9
:100CD000657565446174615F64656620202020202D
:100CE000203A2025640A0A00E8F7FF1F0A0D5B542A
:100CF0005241434B494E472053595354454D5D0A89
:100D000000000000DC0700204D6F64656C2020208F
:100D10002020202020202020203A2025730A0000B7
:100D20005E0100204669726D7761726520566572BA
:100D300020202020203A20257325732E25730A00B9
:100D400053657269616C2020202020202020202003
:100D5000203A2025782D25782D25780A00000000DE
:100D600072756E2061732061646D696E697374724F
:100D700061746F720000000072756E206173206EE6
:100D80006F726D616C2075736572000053656375D9
:100D9000726974792020202020202020203A2025EC
:100DA000730A00004C0A0020446174652F74696D59
:100DB0006520202020202020203A20253032642F5A
:100DC000253032642F323025303264202D202530FA
:100DD00032643A253032643A253032640A00000029
:100DE0004E554D424552204F462052455354415294
:100DF000543A2025640A00004C61737420426F6FDE
:100E00007420202020202020203A2025730A000072
:100E1000A00101084361707475726520706F776579
:100E200072202020203A2025732D25735B307825F1
:100E3000785D0A00436F6E6669674661696C656438
:100E400000000000436F6E666967204F4B00000092
:100E5000434C4F434B205359530A00002C2400208D
:100E60002D20535953434C4B5F4672657175656E27
:100E70006379203A2025640A000000002D204843B1
:100E80004C4B5F4672657175656E63792020203A20
:100E90002025640A000000002D2050434C4B315F98
:100EA0004672657175656E637920203A2025640A63
:100EB000000000002D20414443434C4B5F467265C7
:100EC0007175656E6379203A2025640A0000000080
:100ED0002D20555341525431434C4B5F467265713E
:100EE00075656E6379203A2025640A0043484543BE
:100EF0004B204D4F4E49544F52205B25645D0A00F4
:100F0000C84CA3892646403EB068428A687F800765
:100F1000C10FC5A028F07AFA607F00281DD0706943
:100F20008068006A016BCBA028F070FA617F2046D0
:100F3000C030032919D0617F05291BD0617F0129A9
:100F40001DD0617F07291FD0617F062921D0617FD5
:100F5000082923D0C5A028F059FA70698068006A72
:100F6000416BC6A028F052FAFEBD0189CDA028F041
:100F70004DFAF2E70189D6A028F048FAEDE7018999
:100F8000DEA028F043FAE8E70189E7A028F03EFA5E
:100F9000E3E70189EFA028F039FADEE70189F8A03C
:100FA00028F034FAD9E7F0B5C9B09E4C2034A07CC3
:100FB000FE4D10287ED0A07C00287CD0A07C182874
:100FC000FBD0B7A028F022FA2746603F38680079A6
:100FD0003968C9783A689278F54E0092019102908A
:100FE00070684068037970684068C27870684068CB
:100FF0008178F0A028F00AFAA07CFF283CD0A07CE1
:101000000C286CD0A17C2046403864296AD0A17C91
:1010100001297DD0A17C02297BD0A17C052979D032
:10102000A17C062977D0A17C072975D0A17C09294C
:1010300073D0A17C0B2971D0A17C0E296FD0A07C2C
:101040000F286DD0A07C12286BD0A07C132869D00B
:10105000A07C142867D0A07C152874D0A07C16280A
:1010600072D0A07C172870D0A07C11286ED0A07CF4
:101070000C2801D00020A074686A696C401A2864AA
:10108000A86C696AEA6C2B6C05930692079108902C
:10109000686BA96AEA6B2B6B01930292039104902F
:1010A000A86B0090EB6A1022AA5EE989CE4828F06E
:1010B000ADF901E010E007E06A6D296DCBA028F0E2
:1010C000A5F977A028F0A2F9E88900287ED0E88960
:1010D000401EE88149B0F0BD1CF0E1FEF4E7FFF7E7
:1010E00035F9C9E7C849A965C849E965817E04227F
:1010F000114381764B480A214177E120796940020A
:101100008968096A0863306A006B05F0BBF80BE078
:1011100021E023E025E027E029E02BE02DE02FE08F
:1011200035E037E03CE03EE0306A3E493A300E318F
:101130000B46009101900121B233B54A4902B548EE
:1011400003F098FE03E034E037E039E03BE0B2A082
:1011500028F05CF990E7FFF734FC8DE70FF08BFD8A
:101160008AE71CF0CAFE87E7FFF7BDF984E7FFF7BF
:10117000EDF881E721F018FE7EE723F03EF97BE7EA
:10118000407E0007800FACD021F0B7FE74E707F077
:101190006AFD71E7AB4800680028A2D080476BE782
:1011A00022F017F968E7012109A8FEF732FE63E78C
:1011B0000CE0002025F020FF5EE707F0A1FD5BE7D3
:1011C00010F089FC58E725F0ADF955E70020A07430
:1011D00080E770B59CA028F019F901201FF0EEF906
:1011E0009E4C9F4D207CC00702D1686825F073F9A2
:1011F000207C400702D4E86825F06DF970BD70B519
:101200006A4C23782046827A501EC1B2002B06D049
:1012100020780225012803D02078022822E13EE12F
:1012200044E100003C0800202D20534D5328526516
:1012300073706F6E73652F5468726573686F6C643A
:101240002F757365642920203A2025642F25642F8B
:1012500025640A005253323332203120534552560E
:101260004943453A2025640A000000002D204E6FB6
:10127000207365766963650A0000000052533233BB
:101280003220325B52464944207265616465725D6A
:101290002053455256494345202020203A202564BA
:1012A0000A0000002D204675656C204C6576656C43
:1012B00053656E736F722020202020202020202074
:1012C000202020203A2025642873290A00000000ED
:1012D0002D204675656C204C6576656C53656E7384
:1012E0006F7220464C532D537472656C6120202020
:1012F0003A2025642873290A000000002D20467535
:10130000656C20556C747261536F6E696353656EC2
:10131000736F722020202020202020203A20256476
:101320002873290A000000002D204675656C2055A1
:101330006C747261536F6E696353656E736F722064
:1013400044463530302020203A2025642873290A6D
:10135000000000002D204675656C2044617669749C
:1013600065712050756C73654361703130202020A9
:10137000202020203A2025642873290A000000003C
:101380002D204675656C20536F6A692D52202020F0
:10139000202020202020202020202020202020204D
:1013A0003A2025642873290A00000000E400002088
:1013B0004C0A00202D2D3E446174652F74696D65C3
:1013C000203A20253032642F253032642F323025E8
:1013D000303264202D20253032643A253032643A90
:1013E000253032640A000000D0A703084C6F616406
:1013F0004D6574657256616C3A2025642F2564280A
:101400007573290A00000000B94E0108D54E010885
:10141000B3630108C00F0020436F6E6669673A200E
:1014200052533233325F4C4556454C5F4655454C1E
:101430005F54455354494E475F53455256494345BF
:101440000A000000F80400202D20434C4F53452093
:10145000414C4C2046494C45530A000048090020A5
:10146000080900201AD1F6480379DB0708D0037970
:101470009B0705D50379DB0602D50079800622D4C7
:10148000A172002A1FD0FCF7F2FAED482030407C10
:10149000172803D1A17AEBA027F0B8FF70BD002A6E
:1014A00001D0A17270BD0120207070BD25705A223C
:1014B000A2722178EAA027F0A9FF0A2007F02AFEED
:1014C000FF28FADB70BDFFF784FE0DF0FAFB19F080
:1014D00097FDEEA027F09AFF257002F0C9FC0028C6
:1014E00001D0012801D1D6490877002806D1EB495F
:1014F0004A78D3482030427489788174704770B537
:101500000446CF4D01202035A8770026022C01D0BB
:10151000002C0AD1E248416AC968002905D1416A14
:10152000C96A0E60406A806A0660204607F097FB31
:1015300020461CF0ABFB204621F0F2FA204610F0CA
:101540002EFBD74AD74B24326421A5201B68C0004C
:101550009847AE7770BDF0B5AFB00446182128A803
:1015600026F04FFC0025002664210FA826F049FC38
:10157000B3486430017D012901D102210175182190
:1015800028A826F03EFCC6484068406801886A46A4
:10159000118081789170C178D17001791171417990
:1015A000517181799171C179D171017A1172417A48
:1015B0005172817A9172C07AD072684607C828AB9E
:1015C00019F09FFA28A826F03BFC0246B44828A947
:1015D000F2382E9026F048FC994FCC3700280FD0D7
:1015E00028AAB1A12E9827F021FF00212E9824F0DF
:1015F00019FA00280CD00125ACA02E9927F006FF7F
:101600002100AF4C10D0012E0ED0012D7ED0B5E0C0
:101610000126786824F05FFFF86824F05CFFA9A039
:101620002E9927F0F3FEEBE700207862002E09D117
:10163000AA4B03AA1B683021A748984703A824F0A7
:1016400036FC7862786A002806D0FF202082796A0A
:10165000A3A027F0DBFE91E0A8A027F0D7FE0A2286
:1016600078682E9924F045FD7862786A00281DD0AC
:10167000207C2E99C207D20FA6A027F0C7FE207C9F
:101680000121084320740A22A9A1F86824F031FD41
:101690007862786A002822D0207C042108432074D4
:1016A0004007C10FA5A027F0B1FE67E0207C4008ED
:1016B000400020747968A9A02E9A27F0A7FE7868C8
:1016C000018EACA027F0A2FE7868C26A816A0192FE
:1016D00000911C300EC8AEA027F098FED3E7207C06
:1016E000FB2108402074F86824F0EFFE0146B2A008
:1016F00027F08CFEF868018E9EA027F087FEF86820
:10170000C26A816A019200911C3000E004E00EC8B8
:101710009FA027F07BFE31E021F044F9786824F0A7
:10172000DAFE0A2278682E9924F0E3FCC107207CB7
:10173000C90F4008400008432074C10748D0C207C1
:10174000D20FA4A02E9927F061FE21F08EF9207C03
:10175000400713D4F868816997A027F057FEF8680E
:10176000018E84A027F052FEF868C26A816A019255
:1017700000911C300EC886A027F048FE207C400750
:1017800022D4F86802461C300146F8621046203028
:101790000246B86203680868834206D20B68944820
:1017A000834202D8136883420ED925482030407CFA
:1017B000002804D0126809688EA027F027FEF96A75
:1017C00000200860B96A0860207CC00714D027E0B8
:1017D00090A02E9927F01AFE7868018E65A027F058
:1017E00015FE7868C26A816A019200911C300EC8A9
:1017F00067A027F00BFEA8E7786801461C31396323
:101800000A1D7A63121DBA632830F863002D07D0D1
:1018100000200860796B0860B96B0860F96B08609C
:10182000012D09D0264A1F4B403A6421A5201B6890
:10183000C00098472FB0F0BD0320FFF760FEF9E726
:101840003C08002053746F70696E67207461736B7D
:10185000732C2077616974205B2564735D0A000036
:101860005B504552464F524D2053415645204355FB
:101870005252454E5420574F524B5328256429202D
:101880002D20253032645D0A000000005B434F4D7F
:10189000504C455445445D0A0A0A0000E40000200B
:1018A0004C0A002090020020257300002D20726554
:1018B0002D6E65772066696C653A2025730A0000F5
:1018C000480900202D2072652D6C6F6164206669C7
:1018D0006C653A2025730A008C0A000098020020EB
:1018E0002D202A43414E2754204D4F554E54204120
:1018F000204449534B2C2025640A00002D204D6FB5
:10190000756E7465642066696C652073797374659F
:101910006D0A00002D2043414E2754204F50454E64
:101920002025732046494C452C2025640A000000E0
:101930004241434B55502E42414B00002D202A433B
:10194000414E2754204F50454E204241434B555065
:101950002046494C452C2025640A00002D20516367
:10196000766E333120446174613A202573205B2503
:10197000735D0A002020202020202020207C5F533F
:10198000796E6320636F756E743A2025640A0000D7
:101990002020202020202020207C5F646174206390
:1019A0006F756E74203A2025642D25642D25642DD5
:1019B00025642D25640A00002D204261636B75703B
:1019C00020646174613A2025642062797465730A29
:1019D000000000002D2043414E2754204F50454E1B
:1019E0002025732046494C452C2025642C200A00D4
:1019F00000B017002D2D3E436C6561722042616B73
:101A000020436F756E746572202825642C20256430
:101A1000290A00002D205163766E33312066696CEF
:101A2000653A2025730A000010B5FC48407C002868
:101A300008D0FBA027F0EAFCFDA027F0E7FCF8A007
:101A400027F0E4FC0320FFF786FD10BD10B5F34836
:101A5000603801680B790168CA7800688178F8A05D
:101A600027F0D4FC012100201CF0BDF80320FFF773
:101A700072FD05F0E8FDE9488178F84C002908D0AE
:101A80008078E17A884204D8E4490120243108773B
:101A900010BDF3484068406880780F280ED1DF48B9
:101AA0000021203881810246EE4B403A842191206A
:101AB0001B68C0009847ECA027F0A8FCE07A401C07
:101AC000E07210BDF0B58BB000260896E54D0121FF
:101AD0002B6808AA64209847D0480A9046740821C9
:101AE000FF202B68E5A2913098470821FF202B6842
:101AF000E5A27B309847C94C403C207E0007000F90
:101B000020762046203009908677207E000900014B
:101B1000207609984677A07E40084000A0762B6882
:101B2000DCA20921DE48984707202746203FB968F4
:101B30000874B96824204874F96801200872D848EC
:101B40000B212B68D7A209309847D948B96888601B
:101B5000D848B968C860F9680120C8713020089079
:101B60000121FF202B6808AA86309847BC48943092
:101B700046770121FF202B6808AA88309847012169
:101B8000FF202B68CCA287309847607E8006800EAD
:101B90004030607619F0D2FA0721FF202B68C7A2E7
:101BA0009C309847B968C8204882607F022108436A
:101BB000607709988681F8688670B9480B212B6890
:101BC000C0A214309847B6480D212B68C1A21D3819
:101BD0009847A34901204C31487108461838F02134
:101BE00001804B21C90041800321FF202B68BDA249
:101BF0004D309847207FCF21084010302077207F3C
:101C00004021084320771121FF202B68B6A23C30E9
:101C100098470121FF202B68A0A2573098470A98C7
:101C2000867008960121FF202B6808AAEB309847A0
:101C30000A2008900121FF202B6808AAEA30984763
:101C40000A980A21C1702121FF202B68ABA25830CD
:101C500098470821FF202B688BA27B3098470221F0
:101C60002B68AFA262209847312008908C48012150
:101C70002B6808AA203098470220089001215F2095
:101C80002B6808AAC00098470220089084480121C8
:101C90002B6808AA233098477048C079002816D1CD
:101CA000BE650998C677842191202B683A46C0000A
:101CB0009847204660300660FF222021684626F0C3
:101CC00099F8774820212B686A4651309847386B3D
:101CD000112126F096F83A6B2B681121914898470C
:101CE0003A6B904811212B68113098473A6B8D4818
:101CF00011212B68223098473A6B8A4811212B68B2
:101D0000333098473A6B874811212B684430984705
:101D10003A6B844811212B6855309847814801213E
:101D20002B6865A2C8309847607F20210843607700
:101D30007869203046735A4829212B687AA287385F
:101D400098471A21FF202B6882A2EC3098470A217D
:101D5000A3202B6883A2800098470BB0F0BD70B51C
:101D6000FFF7B0FE2D4C203CE07F002801D10FF0A2
:101D700077FF0020FFF7C3FB1CF0BFFE27480C22B3
:101D80007BA1803826F070F8FF26A536354D002857
:101D900002D1E07F002808D020480B2278A18038AB
:101DA00026F062F800281BD025E078A027F02EFB53
:101DB0000921FF202B687CA2333098471121FF2096
:101DC0002B687CA23C3098470121FF202B687EA223
:101DD000573098472B687DA21D21304698470AE06E
:101DE000E07F002807D181A027F010FB2B6888A294
:101DF0001621304698478DA027F008FB0A212B6852
:101E000091A26F209847934800688047924A012129
:101E1000126800209047012070BD00005C0800207F
:101E20002F2D2D2D2D2D2D2D2D2D2F0A00000000B5
:101E30002F53594E432046494C452F0A00000000BD
:101E4000253032643A253032643A253032643A2003
:101E50002D2D3E4E6577204461790A00E400002074
:101E60004C0A002090020020434C45415220534D23
:101E70005320434F554E5445520A0000302C303009
:101E80003230303000000000302C3131353230300B
:101E90000000000030372C33362C312C300000008D
:101EA000D6020000332E332C342E332C312C30004C
:101EB000333353409A99894031000000312C312C42
:101EC00032303000312C302E303430000000000031
:101ED00000000000303234302C312C303630302CC1
:101EE00030000000312C3100312C3038302C332CB4
:101EF000303039302C30313030000000303030306C
:101F0000302C30303031323335392C3030352C30C4
:101F1000303030302C303330302C30313000000055
:101F2000412B0000940C0000333450332D343736ED
:101F3000362C41424344453132333435303132332B
:101F40003435362C4142434445462C3132334142EC
:101F5000430000002D2D2D2D2D2D2D2D2D2D2D2D22
:101F60002D2D2D2D2D2D2D2D2D2D2D2D2D2D0000FB
:101F700054473130324C452D564E5054000000002D
:101F80005447303037582D444C3031002D2D3E56BB
:101F90004E505420436F6E66696775726174696F45
:101FA0006E3A204F4B0A00003032302C3138302C42
:101FB00031000000312C3132302C392C30303930A6
:101FC0002C30313030000000330000006465766949
:101FD00063652E766E7074747261636B696E672EC2
:101FE000766E2C3335303030000000002D2D3E54FD
:101FF00047303037582D444C303120436F6E66697E
:102000006775726174696F6E3A204F4B0A00000069
:1020100073322E64696E6876696770732E6E6574AC
:102020002C30323031380000000000002D2D3E20D1
:1020300046696E6973682064656661756C742073A7
:10204000657474696E670A005F2A5F2A5F2A5F2AD7
:102050005F0A0000BC0200209C020020F8B5ED4C95
:102060000026207BEC4D030027F00BFA0504181F17
:102070003FBAC000687C60706E74E84827F0C6F90B
:10208000E74827F0C3F9E74827F0C0F9A06E0F2111
:102090007A3025F0B6FE01202073A7E008F0BCFBE3
:1020A000FF28FADB02202073A0E0FFF758FEA16EA4
:1020B0007A20405C002815D07A31DBA027F0A6F901
:1020C000A26EDD4D7A320F212B68D5209847A26E83
:1020D0002B687A320F21D9489847A16ED8A07A315F
:1020E00027F094F90320207380E0DE4827F08EF972
:1020F000FEF767FC04202073C74D603DA86F26F0F3
:1021000026FC0926F643314626F077FA26F066FCCF
:1021100002460B46D4A027F079F9686F26F017FC29
:10212000314626F06AFA26F059FC02460B46D9A041
:1021300027F06CF9E24827F069F9A06EC030007A08
:1021400000280AD0DFA1E74827F060F9606E203050
:10215000807C002803D0E4A102E0E6A1F3E7EAA135
:10216000E04827F053F9EC4E3268EC4F0F213B6802
:10217000D5209847A84A0F21803A3B6846209847C7
:10218000A549E7A0803927F041F93168EBA027F095
:102190003DF9A16EF0A07A3127F038F93068007867
:1021A000302803D930680078392801D3F1A100E044
:1021B000CBA1CC4827F02AF9A86F696F884201D2D9
:1021C000F5A100E0C6A1C74827F020F9934827F001
:1021D0001DF9F94827F01AF9924827F017F905E098
:1021E000162107200AF0A7FB26732E770020F8BDE2
:1021F0008848C069704770B50546874CE07C002868
:1022000003D11BF0E1FC18F099FFE574012003E60F
:10221000804908827047F0B5D7B00546002053903A
:102220002C2148A825F0EDFD842127A825F0E9FD03
:1022300030211BA825F0E5FD642102A825F0E1FD71
:10224000754F787C002802D0DCA027F0DFF8002D45
:1022500001D0462D0BD1704AB04B803A0F211B683C
:10226000462098476C49DDA0803927F0CFF8FF2041
:102270005730002D01D085420FD1A84B48AA1B68CA
:1022800001219847002048A9487008783038B87074
:10229000B878092801D90420B870FF20EB30002D50
:1022A00001D0854212D19D4B53AA1B68012198474A
:1022B00050A8007BFF2801D1002053905548806E24
:1022C000002803D050AA117BC0304174FF20EA30AF
