:020000040800F2
:10C8000010330020B9CA00081D160108C3CA000869
:10C810002116010823160108251601080000000052
:10C8200000000000000000000000000027160108C2
:10C8300029160108000000002B160108E114010868
:10C84000E3CA0008E3CA0008E3CA0008E3CA000814
:10C85000E3CA0008E3CA0008E3CA0008E3CA000804
:10C86000E3CA0008E3CA0008E3CA0008E3CA0008F4
:10C87000E3CA0008E3CA0008E3CA0008E3CA0008E4
:10C88000E3CA0008E3CA0008E3CA0008E3CA0008D4
:10C89000E3CA0008E3CA0008E3CA00082F1301082E
:10C8A000E3CA0008E3CA0008E3CA0008E3CA0008B4
:10C8B00089120108E3CA0008E3CA0008E3CA0008B5
:10C8C000E3CA0008E3CA0008E3CA0008E3CA000894
:10C8D000E3CA0008E3CA0008131401084114010860
:10C8E000E3CA0008E3CA0008E3CA0008E3CA000874
:10C8F000E3CA0008E3CA0008E3CA0008E3CA000864
:10C90000E3CA0008E3CA0008E3CA0008E3CA000853
:10C910006F140108A7140108E3CA0008E3CA00085D
:10C92000E3CA0008E3CA0008E3CA0008E3CA000833
:10C93000DFF80CD022F0A6FA00480047D30B01081C
:10C94000103300200CB50022019200925248016879
:10C9500041F4803101604FF4A063016801F40031BB
:10C9600000910199491C0191009911B901999942CD
:10C97000F3D10168890302D50121009100E0009202
:10C980000099012930D145490A6842F010020A6035
:10C990000A6822F003020A600A6842F002020A6092
:10C9A0004168416041684160416841F48061416093
:10C9B000416821F47C114160416841F4E811416013
:10C9C000016841F08071016001688901FCD541680E
:10C9D00021F003014160416841F00201416041687A
:10C9E000C1F381010229FAD10CBDABE710B52A4889
:10C9F000016841F0010101604168294A114041602C
:10CA00000168284A11400160016821F48021016019
:10CA1000416821F4FE0141604FF41F018160FFF77E
:10CA2000E4FF21494FF00060086010BD10B51A4ABC
:10CA3000506800F00C011D4B1D4800290ED0042940
:10CA40000ED008290ED003605168194AC1F30311B2
:10CA5000121D515C0268CA40026010BD0360F3E71A
:10CA60000360F1E7516801F47011536803F48033F7
:10CA7000022404EB914133B153689B0307D50D4B5E
:10CA800059430160E0E70B4B59430160DCE7074B7A
:10CA900059430160D8E70000001002400020024026
:10CAA0000000FFF8FFFFF6FE08ED00E000127A003C
:10CAB0000000002000093D000A4880470A4800475E
:10CAC000FEE71EF0040F0CBFEFF30880EFF30980C0
:10CAD00004F0ACBDFEE7FEE7FEE7FEE7FEE7FEE79B
:10CAE000FEE7FEE7EDC9000831C9000810B51AF0ED
:10CAF000ADFC4FF4803420461AF0C1FC1AF0EDFC76
:10CB0000012822D1102019F03BFF022019F028FF44
:10CB100000201AF01CFD00201AF027FDA0111AF0C9
:10CB20001DFD4FF4E01120461AF0FAFC01201AF026
:10CB3000FFFC39201AF0BCFC0028FAD002201AF0C1
:10CB4000FAFC1AF0FFFC0828FBD110BD7FB50121CB
:10CB500008461AF0A9FD4FF0804528461AF04AFF12
:10CB600040F2CF71ADF8081040F26711ADF8041033
:10CB70000024ADF80A40ADF8064001A928461BF094
:10CB800021F8012128461BF038FD012211462846D4
:10CB90001BF003FB012128461BF0E5FA4FF440701F
:10CBA00019F054FB1C208DF8000004208DF80100C2
:10CBB0008DF8024001208DF80300684619F04BFB08
:10CBC0007FBD3EB5012108201AF06EFDA64C20461F
:10CBD0001AF010FF44F61F61ADF8041040F60F6123
:10CBE000ADF800100021ADF80610ADF8021069464E
:10CBF00020461AF0E7FF002120461BF0B4FA00217E
:10CC000020461BF0D1FC012120461BF0F6FC01213F
:10CC100020461BF0A8FA3EBD3EB5012110201AF0B7
:10CC200043FD924C20461AF0E5FE44F61F61ADF834
:10CC3000041040F60F61ADF800100021ADF80610A9
:10CC4000ADF80210694620461AF0BCFF00212046CC
:10CC50001BF089FA002120461BF0A6FC012120468A
:10CC60001BF0CBFC012120461BF07DFA3EBD10B528
:10CC7000FFF7A7FFBDE8104013F0A0BE10B5FFF707
:10CC8000CBFFBDE8104013F09DBE10B5044645F241
:10CC900055501AF0BDFB06201AF0BDFB40F6FF70A0
:10CCA0001AF0BCFB1AF0BDFB1AF0C0FB7049216002
:10CCB00010BD2DE9FE4300246E4E96F839000007A2
:10CCC00001D56DA000E072A00090706990F82E0070
:10CCD000012816D0706990F82E00032813D07069CF
:10CCE00090F82E00022810D0706990F82E000428C9
:10CCF0000DD06CA36D4D2A6896F85B0048B16CA10D
:10CD000008E06FA3F6E770A3F4E771A3F2E772A35C
:10CD1000F0E777A179A022F025FB844B84A09A1F2D
:10CD200002F1180122F01EFB5036317A89A022F060
:10CD300019FBB17A8FA022F015FB4E4995A05C310A
:10CD400022F010FB31689BA022F00CFBF079503EE2
:10CD500001281AD0A0A1A2A022F004FB286A818D8C
:10CD6000B022A7A022F0FEFA96F83500000612D5F0
:10CD7000286A90F82E00400609D5306FF16E326FA8
:10CD8000411AA8A022F0EEFA0CE0B0A1E3E7B1A0AE
:10CD900022F0E8FA06E0306FF16E326F411AA1A07E
:10CDA00022F0E0FAF068C279A86A0179B0A022F016
:10CDB000D9FAA86A407903282BD0A86A40790128BB
:10CDC00029D0A86A4079022827D0B3A3B068427B53
:10CDD000B068017BB4A022F0C5FA96F8690020B1D2
:10CDE00096F86910BCA022F0BDFA96F8350000074D
:10CDF00015D5C1A022F0B6FA3069407910B1C7A0AC
:10CE000022F0B0FA3069007960B1CCA022F0AAFA21
:10CE100008E0D2A3DAE7D6A3D8E7DBA3D6E7E0A001
:10CE200022F0A0FAB6F84820B068C189E5A022F047
:10CE300099FAF16CECA022F095FA96F8380010F00F
:10CE40000C0F0DD0F2A022F08DFA96F8380010F0F9
:10CE5000300F06D096F83800400603D5F6A1F6E16B
:10CE6000F0E1F7E1F2E10000000C004000100040AA
:10CE700023740208F005002072756E206173206132
:10CE8000646D696E6973747261746F720000000082
:10CE900072756E206173206E6F726D616C20757398
:10CEA00065720000554E4B4E4F574E005C070020F8
:10CEB000323031352076657273696F6E0000000084
:10CEC00052455354494E470053544F505045440027
:10CED00052554E4E494E470052554E4E494E4720F0
:10CEE000494E204F564552535045454400000000DE
:10CEF0004F6C642076657273696F6E005B564E2DC1
:10CF000045542047505320547261636B657220541E
:10CF100047313032202573202D202573202D2025E8
:10CF200073202D2025735D0A000000004A000020B8
:10CF300056657273696F6E202020202020202020EB
:10CF400020202020202020203A20257325732E2504
:10CF5000730A000052657374617274206E756D629D
:10CF60006572202020202020202020203A202564C7
:10CF70000A0000004175746F2072657374617274E9
:10CF80002020202020202020202020203A2025643E
:10CF90000A0000004C6173742072657374617274CE
:10CFA0002020202020202020202020203A2025730F
:10CFB0000A00000052756E6E696E672074696D65B7
:10CFC0002020202020202020202020203A202564FE
:10CFD000202868290A000000756E736166650000EC
:10CFE00044657669636520737461747573202020CD
:10CFF00020202020202020203A2025730A00000035
:10D0000054656D70657261747572652020202020F2
:10D0100020202020202020203A2025642563430A58
:10D02000000000004D656D6D6F7279287573616742
:10D03000652F436170616369747929203A20256402
:10D040002F256420284D42290A000000736166657F
:10D050000000000053442063617264206973206EF5
:10D060006F7420696E736572746564210A00000034
:10D070004D61696E20506F7765722020202020203E
:10D0800020202020202020203A20256420285629F6
:10D0900020282564290A0000564F4C5F494E5F52F4
:10D0A000414E47450000000020204F7065726174BA
:10D0B000696F6E2052616E6765202020202020203D
:10D0C0003A20256420746F202564202856292D3E9F
:10D0D0002025730A000000004D4F4E49544F52491D
:10D0E0004E472020202020202020202020202020EB
:10D0F0003A2025640A00000042757A7A6572202081
:10D10000202020202020202020202020202020201F
:10D110003A20696E207573650A000000416C6172E7
:10D120006D20436F6E74692044726976696E672062
:10D1300054696D653A204F6E0A000000416C6172BF
:10D140006D204F7665722073706565642020202005
:10D15000202020203A204F6E0A000000564F4C5FDE
:10D16000444953434F4E4E4543544544000000004C
:10D17000564F4C5F4C4546545F4F55545F4F465F8A
:10D1800052414E4745000000564F4C5F52494748B8
:10D19000545F4F55545F4F465F52414E4745000024
:10D1A00042757A7A657220202020202020202020BD
:10D1B00020202020202020203A206E6F74207573BC
:10D1C000650A0000534D5320636F756E74657220BD
:10D1D0002020202020202020202020203A202564EC
:10D1E0002F25640A0000000042797465436F6E7554
:10D1F0007465722020202020202020202020202044
:10D200003A202564202862797465290A000000000C
:10D210004D6561737572652076656C6F63697479AD
:10D2200020202020202020203A20426173656420A5
:10D230006F6E204750530A0020436C65616E657223
:10D240000000000068A022F08DF803E070A173A038
:10D2500022F088F896F8340000F0070002280CD07D
:10D2600096F8340000F0070001280FD096F834003B
:10D2700000F00700032812D023E06FA022F072F81C
:10D28000286A016B77A022F06DF81AE07DA022F0E9
:10D2900069F8286A016B73A022F064F811E084A099
:10D2A00022F060F8286A016B6EA022F05BF88D48CE
:10D2B000818D8DA022F056F896F84A1092A022F0A7
:10D2C00051F888483030C17A11B197A022F04AF85D
:10D2D000286A90F82E00400703D59BA022F042F860
:10D2E00002E0A1A022F03EF8286A0068407C18B154
:10D2F000A5A022F037F802E0ABA022F033F8E869ED
:10D30000418DB2A022F02EF8286A008921F0C4FADB
:10D31000B74FDFF8E0823A46434621F046FA2A6AE0
:10D32000B2F808C002460B466146B3A022F01AF8D4
:10D33000286A408921F0B0FA3A46434621F035FA8E
:10D340002A6A578902460B463946B6A022F00AF8E7
:10D35000286A828C286A4169BDA022F003F8286AF5
:10D36000C28C286AC169C3A021F0FCFF08F0C6FD89
:10D3700008B1C9A100E0CAA1CCA021F0F3FF59492E
:10D38000D2A06F3921F0EEFF5649D8A04B3921F0D9
:10D39000E9FF5449DDA0443921F0E4FF5149E3A0FD
:10D3A000343921F0DFFFA968E8A0523121F0DAFF1B
:10D3B000A86890F8630060B1A86890F86310EBA0CB
:10D3C00021F0D0FFA86890F86210F0A021F0CAFF09
:10D3D00002E0F6A021F0C6FFA868406800780028A7
:10D3E00000D0F9E11AE200004D65617375726520A5
:10D3F00076656C6F636974792020202020202020BE
:10D400003A2050756C7365207369676E616C0A0011
:10D410006F757420436C65616E65720050756C7336
:10D420006520636F756E746572207769746828254E
:10D430007329200A0000000052533233325F31203A
:10D4400020202020202020202020202020202020DC
:10D450003A20496E7374616C6C6564205A4D636147
:10D460006D0A0000426175645261746520202020BD
:10D470002020202020202020202020203A20256449
:10D480000A00000052533233325F31202020202026
:10D490002020202020202020202020203A20496EFB
:10D4A0007374616C6C656420463530300A0000008E
:10D4B00052533233325F3120202020202020202080
:10D4C00020202020202020203A20496E7374616C97
:10D4D0006C6564206C6576656C2073656E736F7225
:10D4E0000A00000070080020496E74657276616C55
:10D4F0002072657175657374202020202020202003
:10D500003A2025640A000000455854525332333201
:10D510005F315F53746174757320202020202020B8
:10D520003A2025640A000000546F74616C20436146
:10D530006D6572612072756E6E696E6720202020A5
:10D540003A2025640A000000414343202020202087
:10D5500020202020202020202020202020202020CB
:10D560003A204F6E0A000000414343202020202033
:10D5700020202020202020202020202020202020AB
:10D580003A204F66660A0000444F4F522020202068
:10D59000202020202020202020202020202020208B
:10D5A0003A204F70656E0A00444F4F5220202020D1
:10D5B000202020202020202020202020202020206B
:10D5C0003A20436C6F73650A000000004675656C75
:10D5D0002056616C20202020202020202020202088
:10D5E000202020203A202564286D6D290A000000A3
:10D5F00056F146E6913F683F4144432031202020C8
:10D60000202020202020202020202020202020201A
:10D610003A202564203C2D3E2025322E33662056AC
:10D620000A000000414443203220202020202020F6
:10D630002020202020202020202020203A20256487
:10D64000203C2D3E2025322E336620560A00000055
:10D6500050756C736520312F46312020202020200A
:10D6600020202020202020203A2025642F25640A15
:10D670000000000050756C736520322F4632202068
:10D680002020202020202020202020203A20256437
:10D690002F25640A00000000446F6D61696E000070
:10D6A00049502061646472657373000052656D6F48
:10D6B0007465206D6F6465202020202020202020AC
:10D6C000202020203A2025730A000000536572763E
:10D6D000657220495020616464722020202020203F
:10D6E000202020203A2025730A000000536572761E
:10D6F000657220506F7274206E756D6265722020A5
:10D70000202020203A2025730A00000055736572FE
:10D710002049502061646472202020202020202095
:10D72000202020203A2025730A00000055736572DE
:10D7300020506F7274206E756D62657220202020FB
:10D74000202020203A2025730A00000047534D2056
:10D75000494D454920202020202020202020202025
:10D76000202020203A2025730A00000047534D2036
:10D770006E6574776F726B206E616D65202020205E
:10D78000202020203A2025640A00000047534D2025
:10D790007369676E616C20737472656E677468205C
:10D7A000202020203A2025640A00000047534D2005
:10D7B0006E6574776F726B206E616D65202020201E
:10D7C000202020203A204E6F7420726567697374A0
:10D7D000657265640A00000066A021F0C3FDA868B8
:10D7E00041686EA0491C21F0BDFDA8684068007E1C
:10D7F00002280BD071A021F0B5FDA8684068407EDA
:10D80000022807D078A021F0ADFD0AE081A021F028
:10D81000A9FDF2E789A021F0A5FD02E091A021F089
:10D82000A1FD6868C07D18B199A021F09BFD02E0C0
:10D830009FA021F097FD6868017DA6A021F092FDD0
:10D84000706940680078002866D070694068017887
:10D85000A8A021F087FDAFA021F084FD7069416888
:10D8600004F10800095CB2A021F07CFD641CE4B264
:10D87000082CF3D350A021F075FD70694168AEA06B
:10D88000243121F06FFD7069406890F83D10706997
:10D89000406890F83C007269526892F83B20CDE9EC
:10D8A000002002917069406890F83A3070694068D1
:10D8B00090F839207069406890F83810A6A021F0DF
:10D8C00051FD7069406890F843207069406890F895
:10D8D00042007169496891F84110CDE90102009157
:10D8E0007069406890F840307069406890F83F2057
:10D8F0007069406890F83E10A2A021F033FD706975
:10D900004068C18EAAA021F02DFD70694068818E0B
:10D91000B0A021F027FD02E0B7A021F023FD70693F
:10D92000018CC0A021F01EFD7069816A03B0C6A001
:10D93000BDE8F04321F016BD10B5CCA021F012FDDA
:10D940003B21D1A021F00EFD6421D9A021F00AFDD8
:10D950003021E1A021F006FD5C21E9A021F002FDCB
:10D960002021F2A021F0FEFC2421FBA021F0FAFCF2
:10D97000242107E24750525320202020202020203D
:10D980002020202020202020202020203A206176E6
:10D9900061696C61626C650A000000004C6F636134
:10D9A0006C204950202020202020202020202020D2
:10D9B000202020203A2025730A000000436F6E6E5D
:10D9C000656374696F6E2030202020202020202085
:10D9D000202020203A206E6F7420636F6E6E656386
:10D9E0007465640A00000000436F6E6E65637469BD
:10D9F0006F6E203120202020202020202020202079
:10DA00003A206E6F7420636F6E6E65637465640A8E
:10DA100000000000436F6E6E656374696F6E2030A6
:10DA20002020202020202020202020203A20636F4A
:10DA30006E6E65637465640A00000000436F6E6E6D
:10DA4000656374696F6E2031202020202020202003
:10DA5000202020203A20636F6E6E65637465640A2F
:10DA6000000000004750525320202020202020207A
:10DA70002020202020202020202020203A206E6FEF
:10DA80007420617661696C61626C650A0000000057
:10DA9000475053207369676E616C2020202020203E
:10DAA00020202020202020203A20476F6F640A0089
:10DAB000475053207369676E616C2020202020201E
:10DAC00020202020202020203A206E6F7420676FB5
:10DAD0006F640A00536174656C6C69746573206EC1
:10DAE000756D626572202020202020203A20256458
:10DAF0000A000000447269766572204F7264657294
:10DB00002020202020202020202020203A202564B2
:10DB10000A00000044726976657220546167202013
:10DB20002020202020202020202020203A2000001B
:10DB30002530327800000000447269766572204C0E
:10DB40006963656E7365202020202020202020201E
:10DB50003A2025730A0000005374617274205472D5
:10DB6000697020202020202020202020202020201C
:10DB70003A20256325633A256325633A25632563A7
:10DB80000A00000046696E6973682054726970204B
:10DB90002020202020202020202020203A20256323
:10DBA00025633A256325633A256325630A0000004F
:10DBB000546F74616C2044726976696E6720746971
:10DBC0006D652020202020203A20256420286D69C2
:10DBD0006E290A00436F6E74696E6F75732044720C
:10DBE0006976696E672074696D6520203A20256426
:10DBF00020286D696E290A00447269766572205486
:10DC0000616720202020202020202020202020208C
:10DC10003A206E6F7420617661696C61626C650A8E
:10DC200000000000526573746564202020202020CD
:10DC30002020202020202020202020203A20256481
:10DC400020286D696E290A0044697374616E6365EA
:10DC500020202020202020202020202020202020C4
:10DC60003A20256420286D290A00000043484543D6
:10DC70004B2053495A45204F46204441544120549B
:10DC8000595045530A0000002D2053697A65206FD2
:10DC9000662074673130327061636B6167655F6401
:10DCA00065662020202020203A2025640A000000FC
:10DCB0002D2053697A65206F6620447269766572FB
:10DCC0005F64656620202020202020202020202046
:10DCD0003A2025640A0000002D2053697A65206FE0
:10DCE000662056656869636C655F64656620202000
:10DCF00020202020202020203A2025640A00000037
:10DD00002D2053697A65206F6620447269766572AA
:10DD10004D73675F6465662020202020202020202E
:10DD20003A2025642B31390A000000002D20536968
:10DD30007A65206F662053746F704D73675F6465FA
:10DD40006620202020202020202020203A2025642A
:10DD50002B31390A000000002D2053697A65206FAD
:10DD60006620446F6F724D73675F64656620202084
:10DD700020202020202020203A2025642B31390A21
:10DD8000000000006CA021F0EDFA932175A021F0B5
:10DD9000E9FA0C217DA021F0E5FA0C2185A021F003
:10DDA000E1FA28218DA021F0DDFA782195A021F05B
:10DDB000D9FA78219DA021F0D5FA3B21AFF2381095
:10DDC00021F0D0FABDE810400621A2A021F0CABA85
:10DDD000FEB50024A94D95F85B00002801D0A8A14C
:10DDE00000E0A9A1AAA021F0BDFAAEA021F0BAFAE4
:10DDF000B14BB2A09A1F02F1180121F0B3FA95F8C5
:10DE00003900000702D5AFF6907101E0AFF68071DE
:10DE1000B1A021F0A7FAB64E706800680079716869
:10DE20000968C978726812689278CDE90021029079
:10DE300070684068037970684068C27870684068AC
:10DE40008178ACA021F08EFA95F85810B7A021F097
:10DE500089FAA6F58871BBA021F084FA7068416840
:10DE6000A6F5887051F8052F026089888180716855
:10DE7000096851F8052FC0F8062089884181B74B01
:10DE80007E4A78211B684FF496509847B4A021F041
:10DE900069FA95F86900012818D095F869000228F8
:10DEA00018D095F86900032818D095F8690004285F
:10DEB00018D095F869000A2818D095F86900082844
:10DEC00018D095F869000B2818D01AE0A7A021F007
:10DED00049FA16E0B0A021F045FA12E0BAA021F00C
:10DEE00041FA0EE0C5A021F03DFA0AE0D1A021F0F0
:10DEF00039FA06E0DFA021F035FA02E0ECA021F0CB
:10DF000031FAB5F84830A868C28995F83900C0F3ED
:10DF10004001F3A021F026FA95F8380010F00C0F1C
:10DF200007D0FAA021F01EFA95F85500002801D07C
:10DF300004E20BE246E200002D2053697A65206F6F
:10DF4000662053686966744D73675F646566202058
:10DF500020202020202020203A2025642B31390A3F
:10DF6000000000002D2053697A65206F6620535011
:10DF70006565644D73675F646566202020202020FE
:10DF8000202020203A2025640A0A00002D20536911
:10DF90007A65206F662054696D655F646566202030
:10DFA0002020202020202020202020203A2025640E
:10DFB0000A0000002D2053697A65206F66204461B5
:10DFC00074655F64656620202020202020202020AA
:10DFD000202020203A2025640A0000002D205369CB
:10DFE0007A65206F6620526571756573744D616E38
:10DFF0006167656D656E745F646566203A202564AF
:10E000000A0000002D2053697A65206F662053793D
:10E010007374656D4D616E616765725F64656620DE
:10E02000202020203A2025640A0000002D2053697A
:10E030007A65206F662046696C654D616E61676523
:10E040006D656E745F646566202020203A2025642B
:10E050000A0000002D2053697A65206F66207374D2
:10E06000617469737469635F7461626C655F646530
:10E07000662020203A2025640A0A0000F0050020CE
:10E080003A323031350000003A3230313100000090
:10E090000A0D5B564E455420544731303225735D8E
:10E0A0000A0000005B5553494E472053442043412A
:10E0B00052445D0A000000004A0000205665727359
:10E0C000696F6E202020202020202020203A20254B
:10E0D0007325732E25730A0053656375726974790D
:10E0E0002020202020202020203A2025730A000014
:10E0F0005C070020446174652F74696D65202020E1
:10E1000020202020203A20253032642F2530326410
:10E110002F323025303264202D20253032643A25CC
:10E120003032643A253032640A0000004E554D42C8
:10E130004552204F4620524553544152543A2025CF
:10E14000640A00004C6173742072657374617274A8
:10E1500020202020203A2025730A0A002C010020CC
:10E16000434845434B204D4F44450A002D204D4F19
:10E170004E49544F522020202020202020202020B3
:10E180002020202020202020202020203A2047531B
:10E190004D207461736B0A002D204D4F4E49544F32
:10E1A000522020202020202020202020202020203D
:10E1B00020202020202020203A205143564E333169
:10E1C000207461736B0A00002D204D4F4E49544F4F
:10E1D000522020202020202020202020202020200D
:10E1E00020202020202020203A205061636B61678E
:10E1F000696E67207461736B0A0000002D204D4F1B
:10E200004E49544F52202020202020202020202022
:10E210002020202020202020202020203A2053745D
:10E2200061746520636865636B696E6720746173F0
:10E230006B0A00002D204D4F4E49544F5220202094
:10E2400020202020202020202020202020202020CE
:10E25000202020203A20416363657373696E672034
:10E2600054473130322773206D656D207461736BB4
:10E270000A0000002D204D4F4E49544F52202020BF
:10E28000202020202020202020202020202020208E
:10E29000202020203A20446F776E6C6F61642066E6
:10E2A00069726D77617265207461736B0A0000009A
:10E2B0002D204D4F4E49544F522020202020202009
:10E2C000202020202020202020202020202020204E
:10E2D0003A2043616D657261207461736B0A0000BE
:10E2E0002D20534D5328526573706F6E73652F54F4
:10E2F00068726573686F6C642F757365642920207C
:10E300003A2025642F25642F25640A002D204D65B1
:10E3100061737572652076656C6F6369747920200E
:10E320002020202020202020202020203A20426170
:10E33000736564206F6E204750530A0097A021F048
:10E3400011F895F85500022804D03CE099A021F07E
:10E3500009F8E9E5A64EF07A002834D0A5A021F00E
:10E3600001F8F17AA5A020F0FDFFF07A012801D98B
:10E37000022100E00121ABA020F0F4FFB17AB3A0AC
:10E3800020F0F0FFF17EBBA020F0ECFF717FC3A076
:10E3900020F0E8FF96F82410CAA020F0E3FF708C6C
:10E3A0003C21B0FBF1F2B0FBF1F301FB1207308C22
:10E3B0000097B0FBF1F201FB1202B0FBF1F1CBA030
:10E3C00020F0D0FF0CE095F855108948303803292B
:10E3D0007ED095F8551001297BD0D0A020F0C2FF47
:10E3E000D2A020F0BFFF686940680078002871D093
:10E3F0006869406890F85C0001286CD068694068E2
:10E4000090F85C00022867D06869406890F85C006A
:10E41000032870D0C9A1CCA020F0A4FF686940688F
:10E4200090F85C0001287AD0D1A26869406890F821
:10E430003300022876D06869406890F833000128DC
:10E4400072D0CCA1D0A020F08DFFDAA020F08AFFFE
:10E450006869416804F10800095CAFF62C1020F0EF
:10E4600081FF641CE4B2082CF2D36DA020F07AFF87
:10E470006869406890F83D006969496891F83C1006
:10E480006A69526892F83B20CDE9002102906869E0
:10E49000406890F83A306869406890F839206869B7
:10E4A000406890F83810CCA020F05CFF68694068A4
:10E4B00090F843106869406890F842006A695268B1
:10E4C00092F84120CDE9002002916869406804E09B
:10E4D00013E017E02AE01AE01BE090F8403068698A
:10E4E000406890F83F206869406890F83E10C7A0E7
:10E4F00020F038FFFEBD10E011E0818DD0A020F0AB
:10E5000031FF6DE7818DD9A020F02CFF68E7E2A1F3
:10E5100081E7E5A17FE705E006E0E7A17BE7AFF251
:10E52000944282E7E8A18DE7EDA18BE7BDE8FE40CC
:10E53000F1A020F017BF2DE9FE430024F24E7069D0
:10E5400090F82E00012824D0706990F82E0003283E
:10E5500020D0706990F82E0002281CD0706990F8C5
:10E560002E00042818D0E94AE94DA968E9A05231E3
:10E5700020F0F8FEF24F3989F2A020F0F3FE7989FD
:10E58000F8A020F0EFFE96F86900122805D0FDA152
:10E59000FAE113E214E216E218E21AE243484543B4
:10E5A0004B20525332333220534552564943450A89
:10E5B000000000002D204D65617375726520766541
:10E5C0006C6F636974792020202020202020202077
:10E5D000202020203A204261736564206F6E2070F5
:10E5E000756C7365207369676E616C0A00000000CA
:10E5F000A008002043414D4552410A002D20546F90
:10E6000074616C2043616D6572612072756E6E6914
:10E610006E67202020202020202020203A20256402
:10E620000A0000002D204B696E64206F6620484C64
:10E630002043616D65726120202020202020202051
:10E64000202020203A20253031640A002020207C20
:10E650005F54696D6520496E74657276616C20281F
:10E660006D696E7574657329202020203A20256419
:10E670000A0000002020207C5F466F7220657665CE
:10E680006E74732020202020202020202020202095
:10E69000202020203A20307825780A002020207C75
:10E6A0005F54696D65206C6174656E637920202804
:10E6B0007365636F6E647329202020203A202564DF
:10E6C0000A0000002020207C5F53746174652043A1
:10E6D000616D657261204472697665722020202028
:10E6E000202020203A2025640A0000002020207CE1
:10E6F0005F616C6C6F7765642066726F6D2025308A
:10E7000032643A253032643A303020746F2025303C
:10E7100032643A253032643A30300A002D204E6F90
:10E72000207365766963650A00000000434845432D
:10E730004B204452495645520A000000445F554E52
:10E740004B4E4F57000000002D205472697020205E
:10E7500020202020202020202020202020202020B9
:10E76000202020202020203A2025730A00000000CD
:10E770003000000053544154455F445249564552BD
:10E780005F554E4B4E4F57002D204472697665728F
:10E790002020202020202020202020202020202079
:10E7A000202020202020203A202573282573290AA4
:10E7B000000000002D204472697665722054616764
:10E7C0002020202020202020202020202020202049
:10E7D0002020203A200000002D2053746172742004
:10E7E000547269702020202020202020202020200A
:10E7F000202020202020203A20256325633A25630D
:10E8000025633A256325630A000000002D20466930
:10E810006E697368205472697020202020202020A7
:10E8200020202020202020202020203A2025632581
:10E83000633A256325633A256325630A00000000D7
:10E840002D204675656C204C6576656C53656E733E
:10E850006F72202020202020202020202020202017
:10E860003A2025642873290A000000002D204675EF
:10E87000656C20556C747261536F6E696353656E7D
:10E88000736F722020202020202020203A20256431
:10E890002873290A00000000445F53544152545F1A
:10E8A000415F545249500000445F50415553455F09
:10E8B000415F545249500000445F46494E49534815
:10E8C0005F415F545249500053544154455F445294
:10E8D000495645525F44524956494E470000000090
:10E8E00053544154455F4452495645525F52455333
:10E8F00054494E47000000002D204E6F206472697D
:10E900007665720A00000000F0050020A4CE000821
:10E910005C0700205B54473130322D547261636BC9
:10E9200065722C20496E7374616E74207669657708
:10E930006572202D202573202D2025735D0A00008F
:10E9400014000020537469636B31205461736B2091
:10E9500072756E6E696E6720202020203A20256433
:10E960000A000000537469636B32205461736B209A
:10E9700072756E6E696E6720202020203A20256413
:10E980000A0000006F666600E0A020F0EBFC316C2E
:10E99000E6A020F0E7FCA86890F8630000281AD0F1
:10E9A000A86890F86310E94820F0DCFCA86890F8AB
:10E9B0006210E648203020F0D5FC10E0E44AD3E5B0
:10E9C000E34A0832D0E5E24A1032CDE5E04A183297
:10E9D000CAE5E0A1DCE5DD48403020F0C3FCA868D2
:10E9E00040680078002832D0DC4820F0BBFCA868E2
:10E9F0004168DA48491C283020F0B4FCA868406817
:10EA0000C18BD7A020F0AEFCA8684068018CDCA0C8
:10EA100020F0A8FCA8684068007E02280DD0CF48EE
:10EA2000483020F09FFCA8684068407E022809D04A
:10EA3000CA48743020F096FC0DE0C848A03020F0A1
:10EA400091FCF0E7C548C83020F08CFC03E0AFF63D
:10EA5000EC7020F087FC6868C07D20B1AFF6D07004
:10EA600020F080FC03E0AFF6B87020F07BFC686813
:10EA7000017DCBA020F076FC6868407E022818D08B
:10EA80006868407E012818D0CDA020F06BFC686833
:10EA900080680068C8B11EF05CF802786868806819
:10EAA0000068037896F8380010F00C0F09D0CCA15C
:10EAB00008E0CDA020F056FCE9E7D5A020F052FCFC
:10EAC000E5E7DDA1DEA020F04DFC96F85500032817
:10EAD00009D1E348418DE3A020F044FC96F84A10A8
:10EAE000E84820F03FFC286A00891FF0D5FEE64F79
:10EAF000DFF898833A4643461FF057FE2A6AB2F879
:10EB000008C00246DF480B466146F03020F02AFC80
:10EB1000286A40891FF0C0FE3A4643461FF045FE72
:10EB20002A6A578902460B463946D94820F01AFC12
:10EB3000286A828C286A4169D6A020F013FC286AD2
:10EB4000C28C286AC169DCA020F00CFC286A90F80D
:10EB50002E00C00701D0E1A100E0E1A1E1A020F07A
:10EB600001FC286A90F82E00400701D5DBA100E0E7
:10EB7000DBA1E4A020F0F6FB286A90F82E008006C6
:10EB800001D5D6A100E0D6A1E6A020F0EBFB286AD3
:10EB900090F82E00C00601D5D0A100E0D0A1E9A0D8
:10EBA00020F0E0FB286A90F82E00800701D5EDA147
:10EBB00000E0EEA1EFA020F0D5FB286A90F82E002F
:10EBC000000701D5C5A100E0C5A1F2A020F0CAFB55
:10EBD000286A90F82E00400601D5F6A100E0F8A1C1
:10EBE000F9A020F0BFFB7069406890F85C00012834
:10EBF0007ED07069406890F85C00022879D0706916
:10EC0000406890F85C00032874D0AFF2D041F6A0C1
:10EC100020F0A8FB70694068007800286FD0706908
:10EC2000406890F85C00012866D0AFF2BC42706981
:10EC3000406890F83300022865D07069406890F809
:10EC40003300012860D0AFF2D441EFA020F08AFB5E
:10EC5000F64820F087FB7069416804F10800095C00
:10EC6000F2481C3020F07EFB641CE4B2082CF2D386
:10EC70002DA020F077FB7069406890F83D10706916
:10EC8000406890F83C007269526892F83B20CDE9E8
:10EC9000002002917069406890F83A3070694068CD
:10ECA00090F839207069406890F83810DF48443097
:10ECB00020F058FB7069406890F84300716949681A
:10ECC00091F842107269526892F84120CDE9002112
:10ECD00002907069406890F840307069406890F820
:10ECE0003F207069406890F83E10D048703004E0D2
:10ECF000B2E1B4E1B6E102E0B7E120F033FB7069C4
:10ED00004068818E94E1B3E1B5E100004461746133
:10ED1000206C6F6767657220202020202020202033
:10ED2000202020203A2025730A00000053797374B4
:10ED3000656D4D616E616765722E53757370656E9A
:10ED4000642020203A20307825780A006CD700080B
:10ED5000C0CE000877726974696E670074D90008C4
:10ED60004D6178696D756D4C656E677468546F534D
:10ED7000656E6428302920203A2025640A000000AE
:10ED80004D6178696D756D4C656E677468546F532D
:10ED9000656E6428312920203A2025640A0000008D
:10EDA000536174656C6C6974657320202020202089
:10EDB00020202020202020203A2025640A00000066
:10EDC00047505320616E74656E6E612020202020B4
:10EDD00020202020202020203A206F70656E0A001D
:10EDE000202067707300000047505320616E7465E7
:10EDF0006E6E612020202020202020202020202036
:10EE00003A20696E7420616E74656E6E610A00004E
:10EE100047505320616E74656E6E61202020202063
:10EE200020202020202020203A2065787420616E48
:10EE300074656E6E610A000070756C736500000089
:10EE4000537065656420282573292825303264298C
:10EE5000202020202020203A2025640A00000000E5
:10EE6000700800204144432066726F6D204675652E
:10EE70006C2073656E736F72202020203A20256409
:10EE80000A00000008D5000856F146E6913F683FA9
:10EE900024D6000850756C736531436E742F46316B
:10EEA0002020202020202020202020203A202564FF
:10EEB0002F25640A0000000050756C736532436EA4
:10EEC000742F4632202020202020202020202020A7
:10EED0003A2025642F25640A000000004F4E0000F0
:10EEE0004F46460050414E494320202020202020FC
:10EEF0002020202020202020202020203A202573A0
:10EF00000A00000056654143432020202020202095
:10EF10002020202020202020202020203A2025737F
:10EF20000A0000005665416972436F6E2020202060
:10EF30002020202020202020202020203A2025735F
:10EF40000A00000056654252414B452020202020F7
:10EF50002020202020202020202020203A2025733F
:10EF60000A0000004F50454E00000000434C4F5334
:10EF7000450000005665446F6F722020202020203D
:10EF80002020202020202020202020203A2025730F
:10EF90000A0000005665454E4720202020202020F2
:10EFA0002020202020202020202020203A202573EF
:10EFB0000A000000494E53455254454400000000E9
:10EFC0004E4F2043415244005344636172642020F9
:10EFD0002020202020202020202020202020202031
:10EFE0003A2025730A000000547269702020202006
:10EFF0002020202020202020202020202020202011
:10F000003A2025730A000000447269766572202058
:10F0100020202020202020202020202020202020F0
:10F020003A202573282573290A00000014DB000804
:10F03000F0A020F097F9306803887069C28B70697E
:10F04000018CF5A020F08EF97069816A03B0FE484A
:10F05000BDE8F04320F086B9AFF2C471D7E5AFF256
:10F06000B871D4E5AFF2B071D1E5AFF6E072DEE58C
:10F07000AFF2AC71E9E5AFF29871E6E5FEB5F34D9C
:10F0800095F86A00F24E0024102860D095F86A00C6
:10F09000002856D0EFA020F065F92868007929688B
:10F0A000C9782A689278CDE90021029005F5B670FA
:10F0B000416849680B7941684968CA784068406886
:10F0C0008178F4A020F04EF9F188FEA020F04AF9F2
:10F0D00095F86A000C283DD095F86A0001283ED0CA
:10F0E00095F86A0002283FD095F86A00052840D0BC
:10F0F00095F86A00062841D095F86A00072842D0A2
:10F1000095F86A00082843D095F86A00092842D08B
:10F1100095F86A000B2841D095F86A000D2840D078
:10F1200095F86A000E2840D095F86A000F283FD065
:10F1300095F86A000C2801D085F86A40E6A020F016
:10F1400011F9F08880B3F088401EF080FEBD14F005
:10F15000B7FBF6E7FFF7EFF908F047FEF1E785F8B0
:10F160006A40FEF735FEE9E708F0DBF985F86A400A
:10F17000E4E714F0E3FB85F86A40DFE7FEF7DCFB29
:10F1800085F86A40DAE7FDF794FD85F86A40D5E72F
:10F1900016F084FED2E71DF0DEFECFE71EF01CFF66
:10F1A000CCE708F03AFEC9E705E01DF07FFFC5E7B0
:10F1B00003F0EDFFC2E785F86A4095F86900122870
:10F1C00004D0707812280CD085F86940D24B9F4A41
:10F1D00040F628201B6803B06932BDE8F0400121E9
:10F1E0001847122085F86900F0E710B5CBA020F091
:10F1F000B9F814F0DEFA954CA03494F86400C00716
:10F2000002D1606810F095FA94F8640040071DD4AC
:10F21000E06A08B9A06A18B1E06AA16A884212D807
:10F22000E068C16849B110F084FAC1A010F0A5FCF3
:10F230000146C3A020F096F801E010F07AFA002011
:10F24000E062A06202E0E06810F073FA94F86400F3
:10F2500000070BD4206910F06CFAC0A010F08DFCF0
:10F260000146BDE81040C1A020F07CB810BD10B52B
:10F27000774C2078002822D0207801282DD173489F
:10F2800090F84010C9070BD090F84010890707D5B7
:10F2900090F84010C90603D590F84000800603D4CA
:10F2A000E078411EE17018D2FFF79FFF11F022FBBA
:10F2B000B6A020F057F80220207001F089FF0D2140
:10F2C000082004F022FD012020700A22E27021783B
:10F2D000BDE81040B1A020F045B810BD70B504469F
:10F2E0005A4E012086F875000025022C00D024B962
:10F2F000B448416ACD62406A8562204603F043FF0C
:10F30000204614F0C1FA20461DF0E1FC204608F02A
:10F31000E0FB814BAB4A41F2563024321B68782126
:10F32000984786F8755070BD2DE9F8430026009681
:10F33000794D40F67E38A4A22B68012140469847BB
:10F340002B68A2A2012140F6282098473F4C0127B4
:10F350001C3484F84D70A6612B689DA2082140F6EC
:10F36000B830984740F6A2392B689CA2082148463D
:10F370009847207E20F03800207684F83A60207E7E
:10F3800020F00700207684F83960607E20F01000BD
:10F3900060762B6894A2092140F6BA70984754F819
:10F3A000141C0920087354F8141C1C20487354F8CA
:10F3B000100C07722B688FA20B2140F6C370984780
:10F3C0008F4854F8141C48608E4854F8141C886008
:10F3D00054F8100CC7712B687CA2012140F6AE30A6
:10F3E0009847607E40F00800607687A2072140F6CB
:10F3F000C3300DE152756E2074696D6520202020A8
:10F400002020202020202020202020203A20256499
:10F4100020286D696E290A00526573746564202086
:10F4200020202020202020202020202020202020DC
:10F430003A20256420286D696E2920282564203F04
:10F44000202564290A00000048DC0008F00500209F
:10F45000140000200A2F2D2D2D2D2D2D2D2D2D2D7D
:10F460002D2D2D2D2D2D2D2D2D2D2D2D2D2D2D2DCC
:10F470002D2D2D2D2D2D2D2D2D2D2D2D2D2D2D2DBC
:10F480002D2D2D2D2D2D2D2D2D2D2D2D2D2D2D2FAA
:10F490000A000000446174652F74696D65203A208C
:10F4A000253032642F253032642F323025303264DB
:10F4B000202D20253032643A253032643A2530320E
:10F4C000640A00005669657765725F74696D656FDF
:10F4D00075743A2025640A002F2D2D2D2D2D2D2DEC
:10F4E0002D2D2D2D2D2D2D2D2D2D2D2D2D2D2D2D4C
:10F4F0002D2D2D2D2D2D2D2D2D2D2D2D2D2D2D2D3C
:10F500002D2D2D2D2D2D2D2D2D2D2D2D2D2D2D2D2B
:10F510002D2D2F0A000000002C0100202D20434C2F
:10F520004F534520414C4C2046494C45530A00005E
:10F53000303A2F4241434B55502E42414B00000080
:10F540002D2052656D6F7665202A2E42616B2066F4
:10F55000696C6520282564290A000000303A2F5084
:10F560004943545552452E4A504700002D205265BC
:10F570006D6F766520504943545552452E4A504789
:10F580002066696C6520282564290A005B434F4D7D
:10F59000504C455445445D0A0A0A00005B504552F0
:10F5A000464F524D20534156452043555252454EE9
:10F5B0005420574F524B28256429202D20253032C6
:10F5C000645D0A005C070020340000003100000088
:10F5D000302C30303230303000000000302C3131EF
:10F5E000353230300000000030392C32382C312CCC
:10F5F00030000000332E322C342E332C312C3000CE
:10F60000CDCC4C409A998940312C312C323030008D
:10F610002B68984754F8141CC820C881607F40F0BC
:10F620000200607754F8100C86702B68F4A20D214C
:10F6300040F69D70984704F5CC7047711438F0215E
:10F6400001804FF4167141802B68F1A2032140F62E
:10F6500074309847207F20F0300010302077207FD2
:10F6600040F0400020772B68EAA2112140F6633079
:10F6700098472B68E5A201214046984784F83E60F0
:10F680002B68E9A2212140F67F309847AFF2B402FF
:10F690002B6808214846984794F83F001C3C3127C6
:10F6A000012806D100972B686A46012140F23C40B0
:10F6B0009847266584F857602B68E44A78214FF410
:10F6C000965098470097E24B6A4601211B6841F625
:10F6D0005830984794F8390040F0080084F8390011
:10F6E000606980F82D602B68DAA214214FF4E9607C
:10F6F00098472B68DCA214214FF4E46098472B68EC
:10F70000DEA2142140F2347098472B68E0A20A214F
:10F7100040F25C709847206B11211EF05AFE226B5C
:10F720002B68112141F690209847226B2B681121FC
:10F7300041F6A1209847226B2B68112141F6B22097
:10F740009847226B2B68112141F6C3209847226B02
:10F750002B68112141F6D4209847226B2B68112188
:10F7600041F6E5209847BDE8F88310B5FFF7DCFDCA
:10F7700008F0D8F90020FFF7B1FD15F04CF8C7A04C
:10F780001FF0F0FD012010BDFEB50024009401948F
:10F790000294AF4B40F211466A461B680A2130467C
:10F7A00098470422C4A168461EF040FE30B10422EE
:10F7B000C3A168461EF03AFE002824D1C2481FF0BB
:10F7C000D1FDFFF7D2FFC14D90A201212B6840F679
:10F7D000D97098479D4880F85B402B68BCA20C21EB
:10F7E00030469847BEA010F0C8F98DF8000058B117
:10F7F000BEA1C0A01FF0B6FDC5A01FF0B3FD06213D
:10F80000CFA00DF0B6FBFEBDCFA1F2E72DE9F0478A
:10F81000A6B08046CDA0D0E901320168C068CDE92C
:10F82000233222912590002400262196782103A8D6
:10F830001EF0CFFD8548783090F82410012902D1C0
:10F84000022180F82410C548406840680188ADF85E
:10F85000001081788DF80210C1788DF803100179BD
:10F860008DF8041041798DF8051081798DF8061016
:10F87000C1798DF80710017A8DF80810417A8DF85A
:10F880000910817A8DF80A10C07A8DF80B009DE876
:10F89000070022AB03F0FDFB22A81EF0B7FD0246D5
:10F8A000AE4822A9663882461EF0C0FD674DA035DD
:10F8B00068B1012422A81EF0A9FD024622A95046E3
:10F8C0001EF06EFD5146A6A01FF04CFD09E0302051
:10F8D00005F8660F3A2068702F20A8706E73AE731B
:10F8E000663DA6A01FF03EFD584F97F83500000674
:10F8F00003D5082001F083FF18B197F83500000602
:10F9000079D4082001F07BFF60B1A2A01FF02AFD8E
:10F91000DFF84892B8F1000FA9F1630906D0012C75
:10F920006AD0C1E19EA01FF01DFDF1E700201BF091
:10F9300046F86862686A4FF0FF0830B1A5F8648045
:10F94000696A9BA01FF00EFD09E201229FA1A04859
:10F950000FF027FC6862686A30B1A5F86480696AB4
:10F960009CA01FF0FFFCFAE1A1A01FF0FBFC1322FA
:10F97000514668680FF042FC0146002930D095F8E6
:10F98000640040F0010085F864009FA01FF0EAFCCD
:10F990001322AFF26441E8680FF030FC0146002901
:10F9A0002CD095F8640040F0040085F864009DA018
:10F9B0001FF0D8FC97F83500C006C5D51322AFF26A
:10F9C000644128690FF01AFC0146B1B195F8640052
:10F9D00040F0080085F864009AA01FF0C3FCBEE167
:10F9E00095F8640020F0010085F8640068680FF065
:10F9F00053FE494636E1D4E154E146E136E10000E8
:10FA0000303234302C312C303630302C3000000085
:10FA1000312C3100312C3038302C372C303039300B
:10FA20002C3031303000000030303030302C30306D
:10FA30003031323335392C3030352C3030303030B5
:10FA40002C303330302C303130000000F0050020F5
:10FA50003001002040303145303030362300000086
:10FA600000000000000000004030314230313133EE
:10FA7000352300000000000000000000403031434A
:10FA80003031313336230000000000000000000058
:10FA90003235000000000000000000002D2D3E2047
:10FAA00046696E6973682064656661756C7420735D
:10FAB000657474696E670A00564E45540000000074
:10FAC0005454415300000000C40003082C010020DE
:10FAD00054473130323A323031310A0000000000F0
:10FAE000524553544F52452E42494E004641554CC3
:10FAF000540000002D2D3E2044656C657465205235
:10FB00004553544F52452E42494E3A2025730A0020
:10FB10002D2D3E20546865206465766963652077E5
:10FB2000696C6C20626520726573746172746564BF
:10FB300020696E207365636F6E64730A00000000B5
:10FB4000235730302E2A00004F4B0000303A2F3020
:10FB500030303030302E5458540000005C07002004
:10FB60002D204372656174652061206E6577206683
:10FB7000696C65203A2025730A000000434845431C
:10FB80004B2045585445524E414C204D454D4F5207
:10FB9000590A00004E6F207364636172640A0000AA
:10FBA0002D205573696E67205364636172640A0087
:10FBB0002D202A43414E275420494E495449414C57
:10FBC000204449534B2C2025640A0000303A0000A1
:10FBD000B41100202D202A43414E2754204D4F556B
:10FBE0004E542041204449534B2C2025640A0000E8
:10FBF0002D204D6F756E7420612066696C652073D1
:10FC0000797374656D0A00002D2043414E275420FE
:10FC10004F50454E20444154412046494C452C20EC
:10FC200025640A002D202A43414E2754204F504579
:10FC30004E204241434B55502046494C452C2025EF
:10FC4000640A00002D2043414E2754204F50454E5A
:10FC500020494D4147452046494C452C2025640A02
:10FC600000000000FEA01FF07DFB91E6E8680FF0A9
:10FC700013FD95F8640020F0040085F86400E8683E
:10FC8000C168FDA01FF06EFB94E628690FF004FD2B
:10FC900095F8640020F0080085F86400FDA01FF0CE
:10FCA00061FB5CE01CF057FF13F083FD68680FF008
:10FCB00040FD1322514668680FF0A0FA70B195F824
:10FCC000640040F0010085F8640000F00101AFF22B
:10FCD000C8001FF047FB012C0ED00FE068680FF042
:10FCE000DBFC95F8640020F0010085F864004946CB
:10FCF000EDA01FF037FBEEE71CF08FFF95F86400D6
:10FD000040072CD4E86A08B9A86A18B1E86AA96A59
:10FD1000884224D8EE62AE62E868C16851B10FF043
:10FD200008FDAFF2F4700FF028FF0146E5A01FF0C8
:10FD300019FB01E00FF0FDFC1322AFF60C01E8689F
:10FD40000FF05CFAF0B195F8640040F0040085F81B
:10FD50006400C0F38001AFF234101FF003FBAFF278
:10FD60005433AFF25832AFF25C31062000961AF0ED
:10FD700064FB396FDBA01FF0F5FAF96EE3A01FF00A
:10FD8000F1FA11E0E8680FF087FC95F8640020F0C4
:10FD9000040085F86400E868C168B7A01FF0E2FAC3
:10FDA000DDE7E4A01FF0DEFA95F86400C0074BD150
:10FDB00054B1EE632E646E64AE64EE642E656E65BF
:10FDC000AE65EE652E663FE068680FF065FC68681A
:10FDD000C16878292ED900210FF0BFFC21AB782211
:10FDE00003A968680FF0CCFA06462198782809D054
:10FDF00068680FF09EFC33467822D4A021991FF04A
:10FE0000B1FA21E0DDA01FF0ADFA1298E863139873
:10FE10002864149868641598A8641698E86417987C
:10FE20002865189868651998A8651A98E8651B9858
:10FE3000286609E0EE632E646E64AE64EE642E659F
:10FE40006E65AE65EE652E66012C02D10320FFF7CC
:10FE500045FAD34BD14A78211B6841F25630984776
:10FE600026B0BDE8F08770B50446CC4DA03D95F8AE
:10FE70006B10002901D113F029FC85F86B4001209B
:10FE800070BDC8494FF46160C88070472DE9F04FDC
:10FE9000D7B00446002555952C214AA81EF099FAA2
:10FEA00078212CA81EF095FA302120A81EF091FA96
:10FEB000782102A81EF08DFAB84EDFF8EC8240F6E9
:10FEC0007E30A03E0CB1844212D1D8F800304AAA4C
:10FED000012198478DF829519DF82801303886F87E
:10FEE0005A0096F85A00092802D9042086F85A00C8
:10FEF000AE4F4FF4336A0DF594790CB154454BD1A4
:10FF00002C214AA81EF065FAD8F800304AAA282108
:10FF1000504698472C214AA80DF08AFF83465590F9
:10FF2000A2482421213056901EF053FA47F8455F2D
:10FF3000BD80BD71453FDFF874A2BBF1000F0AF12F
:10FF4000450A14D05A464AA956981EF029FA9DF837
:10FF500054014844401C1EF059FA02469DF85401D1
:10FF600009EB0001491C50461EF01AFA04E0102269
:10FF70008FA156981EF014FA0F228DA156981EF0EC
:10FF800055FA68B105228FA150461EF04FFA38B1DC
:10FF90007821012003F02DF93CB1AA2C05D046E0D0
:10FFA0007821002003F025F9F6E747F84C5F7D60E3
:10FFB000BD60FD603D61BD82BD752C214AA81EF06B
:10FFC00008FA0F21D8F800304AAAAA2098477748A3
:10FFD0000F224C304AA982461EF0E2F92C214AA891
:10FFE0001EF0F7F90521D8F800304AAAC820984732
:10FFF0004A9838619DF82C0138750F226CA1504643
:020000040801F1
:100000001EF014FA40B3694805226EA15C301EF060
:100010000DFA08B30121782003F0EBF863480C30A7
:1000200090F843102E2918D0012005F05EFF40F60D
:10003000F5370CB1BC4211D12C214AA81EF0C9F9E8
:10004000D8F800304AAA1921384698475748142151
:100050000C301EF0BEF9B9E0E7E0EBE0BEE00000D6
:100060002D20446174612066696C65206E616D6548
:100070002069732025730A002D204261636B75701F
:100080002064617461206F66202564206279746544
:10009000730A00002D20496D6167652066696C65F3
:1000A000204F4B0A000000002D2054686520646139
:1000B00074612066696C65206E616D6520697320CE
:1000C00025730A002D2052656D6F7665203C6F6C9C
:1000D000643E2E42414B2046696C652028256429E8
:1000E0000A0000002D2054473130322773206D65FF
:1000F0006D6F727920636170616369747920203A51
:1001000020253364204D420A0000000020202020DA
:1001100020202020207C5F4672656520737061631B
:10012000652020202020203A20253364204D420ADB
:10013000000000004E6F207364636172642E2049DA
:100140006E7365727420636172640A00202020203F
:1001500020202020207C5F476574207265666572D0
:10016000656E6365206661696C28256420213D20E9
:100170002564292C2025640A00000000202020206E
:1001800020202020207C5F476574207265666572A0
:10019000656E6365204F4B0A00000000900600204A
:1001A0002C0100201400002030010020E007002076
:1001B0003030302E3030302E3030302E3030300075
:1001C0000000000030303030300000004AA81EF03F
:1001D0001DF902464AA9FE481EF0E2F8FC4F40F61F
:1001E0006330903F0CB184427ED1D8F800304AAAE7
:1001F000112198478DF839519DF8280196F838104B
:1002000060F3830186F838109DF82E01716930384B
:1002100081F82C007868796880680A3089680860FD
:10022000706990F82C00C8B341E00021782002F0FA
:10023000E0FFF3E690F84010302930D390F84010FA
:1002400039292CD890F84110302928D390F8411042
:10025000392924D890F84210302920D390F8421040
:1002600039291CD890F84410302918D390F844103C
:10027000392914D890F84510302910D390F845103A
:1002800039290CD890F84610302908D390F8460048
:10029000392804D8002005F028FEC8E603E0012034
:1002A00005F023FEC3E67169032081F82C0009F1F3
:1002B00002001EF0FEF8C6495C3908744CA81EF016
:1002C000F8F8716988840DF235101EF0F2F8716942
:1002D000C88496F8380010F00C0F0DD1FCF7C7FC5D
:1002E000786880680C3000E00FE079688968086001
:1002F000796864208968088178688068006805707A
:10030000786871698068006808604FF4965B0CB18A
:100310005C4524D1D8F800302CAA7821584698475B
:100320009DF80A014836B0749DF80801401C3074ED
:10033000BDF8F80030804098B0609DF80701F07378
:10034000483EA4484399449A459BC1660267436767
:10035000A14B00F1100278211B6858469847D8F845
:10036000003055AA012140F6D97098479DF85401F4
:100370004FF0010A30283BD086F85BA040F62820D9
:100380000CB1844205D1934AD8F80030793201216A
:10039000984796F8690028B196F86900122801D0AC
:1003A000FFF76FFD40F674300CB1844214D1D8F8D9
:1003B00000304AAA032198478DF82F519DF8281143
:1003C00016F8380F61F3051030709DF82A11307857
:1003D00061F3861006F8380996F8380010F0300FEF
:1003E0001DD096F83800C0F38100012803D004E046
:1003F00086F85B50C2E7FCF73AFCFCF73FFC3A6A30
:10040000D8F800301432042141F2841098473A6A37
:10041000D8F800301C32042141F28C1098477563E3
:1004200040F6B8300CB1844212D1D8F800304AAA54
:10043000062198479DF8280196F8341060F3C5010D
:1004400086F83410396A4FF41650086386F856500F
:1004500040F6A2300CB1844266D1D8F800304AAAE6
:10046000082198478DF830519DF8280196F83410EE
:1004700060F3020186F8341009F102001EF019F849
:1004800071698968096A086370698068006A006B2D
:100490004FF4E131884217D070698068006A006BC0
:1004A000B0F5165F10D070698068006A006B58451F
:1004B0000AD070698068006A006BB0F5AF5F03D046
:1004C00070698068006A016396F8340000F00700E4
:1004D00001287BD096F8340000F00700022876D07F
:1004E00096F8340000F00700032877D096F834001F
:1004F00000F00700042872D03436707820F0100025
:100500007070707820F040007070707820F02000DB
:100510007070307820F00700307086F82150307A03
:1005200020F080003072343E96F85500F0B1386A01
:10053000006B07F027FC96F83400264A00F007000D
:100540005A3201287CD096F8340000F007000228C7
:1005500077D096F8340000F00700032872D096F8A0
:10056000340000F0070004286DD07563D8F800301F
:100570004AAA092140F6BA7098479DF82801DFF889
:1005800050B030389DF8292100EB80006FF02F012A
:1005900001EB4000ABF15C0B10448BF80C009DF8B4
:1005A0002B019DF82C21303800EB800001EB40003E
:1005B00010448BF80D009DF82E01312870D0F068A2
:1005C00005729BF80C009BF80D1009E03CE044E03C
:1005D000EC070020E00500202C0100204BE054E057
:1005E000884205D30A208BF80C001E208BF80D00E2
:1005F000D8F800304AAA0B2140F6C37098474AA8A1
:100600001FF04AFB1EF095F9CBF8040009F1040035
:100610001FF042FB1EF08DF9CBF808009DF8300169
:1006200031287AD0F068C571DBE901011EF09EF92E
:1006300077D8FE48CBF80400FD48CBF8080078E0F6
:1006400027E02EE055E05BE096F8350040F0200012
:1006500086F8350086F855A066E716F8350F40F0A5
:1006600010003070F07940F08000F071022086F8C0
:100670002000353E58E796F8350040F0400086F8F7
:100680003500032086F855004EE7042086F8550013
:100690004AE73B6AE7493A33E74807F01BFF65E75B
:1006A00037E0E44955A85631CDE900103268A1F28F
:1006B000362000F504730169DF4815F0F3F99DF861
:1006C000540196F8351060F3041186F8351096F849
:1006D0003500C00606D596F83C0040F0800086F84C
:1006E0003C0043E796F83C0020F0800086F83C0090
:1006F0003CE73B6ACF493A33CF4807F0FBFC35E78C
:10070000CC48563007F0C3FBCC4908622EE704E022
:1007100007E0F06880F808A053E7F06880F807A0C9
:1007200082E7C748DBF80410814202DAC548CBF8FB
:10073000040040F6AE300CB184420CD1D8F8003041
:100740004AAA012198479DF8280196F8351060F3D0
:10075000C30186F8351040F6C3300CB1844212D183
:10076000D8F800304AAA0721984709F104001DF083
:10077000A0FEABF80E009DF8280196F8391060F342
:10078000410186F8391070694268D8F80030642158
:1007900041F2B440984771690220496881F83300FA
:1007A00070698068006AD8F80030122102684FF43E
:1007B000A0509847D8F8003020AA302141F250408C
:1007C0009847BDF88C0071698881BDF88E00716909
:1007D000C881249871690861259970694161BDF8E3
:1007E0009E107069C1832A9871698862934C2A9817
:1007F00061690861BDF8A00071690884BDF89E00B8
:1008000031680988884218D931680988081A00F2C5
:100810009F500F2827DD7069406885863068008802
:100820007169C88396F86900E8B1BDF89E20306808
:10083000018885A01EF096FD15E031680988081A28
:100840000F2810DD706940688586306800887169FE
:10085000C88396F8690030B1BDF89E2030680188E1
:1008600081A01EF07FFD706926998161BDF89C1002
:10087000818341F2563AD8F8003002AA78215046D6
:1008800098470E220DF16E017F481DF089FD0C99ED
:100890007D48663881620D99C162816AC26A91425F
:1008A00007D2C16A4FF48002914202D8816A914214
:1008B00001D9C5628562754B734A5046663A1B681A
:1008C00078219847D8F800304AAA0D2140F69D704B
:1008D00098476D499DF82D01AE3100F00100487137
:1008E0004AA81DF0E6FDABF8000009F107001DF075
:1008F000E0FD80B2ABF80200BBF800104FF0F00A48
:1009000009B9ABF800A018B94FF41670ABF80200A3
:10091000D8F800304AAA092140F65A3098478DF895
:1009200031514AA81DF0C5FDDFF85CB10BF1BA0BDF
:10093000CBF8080009F104001DF0BBFDCBF8040062
:10094000DBF8080010B9DBF8040040B1DBF8080060
:10095000DBF8041088420CD3CBF804500DE0CBF840
:1009600004A01420CBF80800DBF80400ABF810005A
:1009700003E0DBF80400ABF810009DF830013028EC
:1009800009D01E20ABF8140096F83C0040F040005F
:1009900086F83C0007E0ABF8145096F83C0020F0D5
:1009A000400086F83C0096F85B00E8B33C3670786F
:1009B00020F002007070307840F020003070307805
:1009C00040F010003070307820F0080030707078FF
:1009D00020F008007070707840F01000707070782F
:1009E00040F0010070703C3EF06BCBF8000030220C
:1009F0000F2127481DF0E6FC96F85B00A8B1D8F857
:100A00000030234A0F2140F2391098473A6AD8F84B
:100A100000303832012140F6AF309847386A10F87C
:100A2000381F41F0100135E053E071E09A995940C8
:100A30009A99894070080020DB7E0108140000208C
:100A4000CDCC4C3F6666663F2D2D3E3152657365B9
:100A5000742064726976652074696D652028256448
:100A60002C202564290A00002D2D3E325265736525
:100A7000742064726976652074696D652028256428
:100A80002C202564290A0000F60600202C010020F5
:100A9000E00500200170386A10F8381F41F020018D
:100AA0000170D8F8003055AA012141F65830984716
:100AB0009DF85401302832D096F8390040F00800F3
:100AC00086F8390096F8390000072FD41AF0B5FAE5
:100AD0002FE03C36707820F002007070307820F003
:100AE00020003070307840F010003070307820F006
:100AF00008003070707820F008007070707840F056
:100B000010007070707820F0010070703C3E6BE750
:100B10000A21D8F80030FD4AA020984776E796F8D9
:100B2000390020F0080086F83900CBE7706980F8BA
:100B30002D5096F8690060700020FFF794F957B0C7
:100B4000BDE8F08F10B5F248416840684968006818
:100B50000FF01DFE0020FFF799F9FDF739F901F0BC
:100B6000FFFB02F026FCFBF7F1FF0020FEF74EFE34
:100B7000E6484B30017821F001010170017821F045
:100B800002010170002280F835204038E1496423D9
:100B90000968B1FBF3F1B1F1807F0BD221F07F4303
:100BA0004FF0E0215B1E4B61DB4CF02323708A6128
:100BB00007230B6110F8401F21F02001017001781C
:100BC00021F0100101700260BDE81040092002F020
:100BD00054BB86B0002604960396FBF787FF4FF4BC
:100BE00048414FF0006015F066FBC8482330FCF721
:100BF0004CF8CA48A0F62435286000F50C706860EF
:100C000000F50A70A86000F50A70E86000F50A7047
:100C1000286100F50A706861FF20A5F8640005F5F9
:100C2000A07BC5F818B095F8640040F0010040F0D2
:100C3000040040F0100040F0080040F0020085F889
:100C400064004FF00108C5F82480A5F17C04607CA5
:100C500040F080006074E661207F40F0040020775F
:100C6000207F40F020002077207F40F00200207796
:100C7000207F40F001002077207F40F0080020779F
:100C8000207F40F01000207704F1540989F8246097
:100C900089F8206089F8226084F8306084F85180F7
:100CA00004F5EC7044F8040C00F6FE00E0609C488B
:100CB00020601238A060801F60609A4844F80C0CD5
:100CC00004F2331044F8140C493044F81C0C14306E
:100CD00044F8180C0C3044F8200C44F8089C84F8B4
:100CE00050600FF01CFE0FF039FE01F004F80FF019
:100CF000B7FBDFF81CA2A4F13400CAF8000050468C
:100D000045628748514608388862896A05204871DB
:100D10005146896A8871514604F523704861A0F5EF
:100D2000CC70086100F5B470C861A0F21721A0383A
:100D3000059100F0B6FE7A4F483FF8615146C86011
:100D400001F1320001F056FB51464860084680F838
:100D500032804068786108464068826808460A32F6
:100D60004068E831006804F06CF8B861514688606A
:100D700008464068006844F8240CA1F5B671504656
:100D80001AF0C3F844F8100C54F8100C2E3004F08C
:100D9000A9F8A4F1240002F039FAA4F124000FF01C
:100DA0006CFE38610FF066FEB8621AF0F1F80FF0D1
:100DB0005EFE1E21386901F04BFBA4F12401504670
:100DC00007F02AFDA4F124000CF0F8F840F21243D9
:100DD00004F2C4645348CDE9004302905046696967
:100DE0004068A4F21242006817F0E8FD4D4A4E49EF
:100DF000A4F21240059B18F059FBCBF800408BF889
:100E00000460A4F27C61081D19F06EFBA4F5DD609E
:100E10001DF054FA50464068514600684968001D6C
:100E20000968C91CCDE90010504640680368504667
:100E30009B1C406842685046921C4068416850467E
:100E4000C91C40684068001D1AF00EF803A9A4F5FB
:100E5000DD601CF0B9FCF862FFF774FE0FF0BDFD19
:100E600078625146096A4860304F04AA01213B6804
:100E700040F60A009847FEF787FC294D40F28A2B7E
:100E8000483D04F0A9FCA8780028FAD01F4C0B3488
:100E900094F8680040F0020084F8680016F0C1FA87
:100EA000206C28B92889401C28816889401C6881E9
:100EB0002889584502D86889584506D96A892989F8
:100EC0001BA01EF04FFA00F083F999F80C000128DE
:100ED00001D1FEF7CCF999F8240030B9DAF8040012
:100EE000C07D012801D189F8248094F86A0030B9C6
:100EF00094F8690028B194F86900122801D0FEF72F
:100F0000BDF894F86B00012877D02FE0E5050020AC
:100F10005C0700200000002023ED00E0B411002059
:100F20005C00002023740208CF1B01082C01002064
:100F300053595354454D2049532053555350454E12
:100F40004445442C20524553455420494E20534596
:100F5000434F4E445320284D61696E3A25642C203E
:100F6000537469636B3A202564290A00A889B0F597
:100F7000616F02D2401CA88117E0206D401C2065E3
:100F800094F8570050B9206D782807D984F8578015
:100F900094F8750010B993A01EF0E4F93B689B4AE1
:100FA00078214FF496509847AE811CF0D5FC94F808
:100FB000340000F0070003280CD094F8340000F04F
:100FC000070001280AD094F8340000F00700042834
:100FD00008D00DE0012007F001F909E0012007F039
:100FE000CFFA05E04FF47A7006F058FF06F0ABFF39
:100FF0009DF80C0008B11CF0DEFDAE7041E783499E
:1010000001207831087370478049002801D00128F9
:1010100001D181F85400002803D17D48407881F83F
:1010200069007047FEB501794279A1F1300303EB05
:1010300083036FF02F0505EB43031344DCB2837881
:10104000C678303B03EB830305EB43033344DBB249
:101050000A25012B29D9012C23D0641EE2B25B1E84
:10106000DCB2B2FBF5F13031C9B20171B2FBF5F37C
:1010700005FB132230324271B4FBF5F33033DBB29F
:101080008370B4FBF5F605FB16443034C470457824
:101090000078CDE9010500945EA01EF063F90120FF
:1010A000FEBD1C225B1EDCB2DBE720D10378447856
:1010B000303B03EB8303CF2606EB43032344DBB231
:1010C000B3FBF5F43034E6B20670B3FBF5F405FB80
:1010D000143430344470312383703225C570CDE927
:1010E00000564CA002941EF03DF90120FEBD0020E8
:1010F000FEBD70B586B0182250A168461DF050F9AB
:10110000434C2079401C20710121002012F0EEFA9E
:101110000320FEF77BFB01F0D8F84E48406840689A
:1011200080783A4D0F2809D10020A5F848004A4B95
:101130002A4678211B684FF49650984745486338F3
:101140000168CDF80D108088ADF811002F4E78366B
:1011500096F8240002280BD10DF10D00FFF762FF75
:1011600030B168461DF052F9C1B268460BF001FF7C
:1011700095F85A00002806D095F85A00217988423F
:1011800001D80120307306B070BD10B533A01EF039
:10119000E9F836A01EF0E6F830A01EF0E3F8BDE84E
:1011A00010400320FEF732BB704719490020C88069
:1011B000704770B50446314DE1B2284617F054FB34
:1011C0004021284617F0BDFB0028F9D0204670BD0D
:1011D0002B4801682B4A01F4E06111430160BFF321
:1011E000408FFEE74465766963652068617320621D
:1011F00065656E206C6F636B6564206175746F6DDF
:1012000061746963616C790A00000000F0050020D8
:101210001400002044656C6574652064617461206D
:1012200066696C652066726F6D20256325632F25C6
:101230006325632F256325630A000000235732319D
:10124000206261636B64656C3A7878787878782E80
:101250002A0000005C0700202C0100202F2D2D2DDE
:101260002D2D2D2D2D2D2F0A000000002F53594E0E
:10127000432046494C452F0A00000000004C004026
:101280000CED00E00400FA0570B501218C07204642
:1012900017F0B6F9002849D00121204617F0BCF913
:1012A000EA4D95F8680040F0040085F86800E848C9
:1012B0000024048019F0AEFDE64E3068007848B195
:1012C00095F83500000705D50FF08FFB3068E2492F
:1012D00000780871E1490878632809D00878401C33
:1012E00008708A88DE488AB18A88521E8A800EE099
:1012F00001224A70DB48006800B10270DA480068D9
:1013000000B10270D94802700C70EAE784844A8800
:101310001AB14888401E488000E0C48400F08AFB6F
:1013200000F0FFFFBDE8704003F0DFBD70BD2DE9A8
:10133000F0474FF48079484615F0FBFA0026C74C79
:10134000C74D9627B8B36869401C6861DFF82083F1
:101350000121404617F04AF970B32089A884BB48A0
:1013600090F8380010F00C0F1AD1C24882220168A0
:101370008868028120898A68C0B2127B90420CD3AF
:1013800020898A68C0B2127B904209D92089C2B2F2
:101390008868007B6430824202D82089896808739B
:1013A0002681A7800021404617F0FEF80121404623
:1013B00017F023F904E006E0FFE72089401C2081B4
:1013C000484615F0C4FA402015F0B3FA00281ED0A4
:1013D000E869401CE861DFF8A0820121404617F06F
:1013E00005F960B1E088E8846780E6800021404626
:1013F00017F0DAF80121404617F0FFF802E0E08824
:10140000401CE080BDE8F047402015F0A0BABDE8E0
:10141000F08770B5994C40F225552946204617F0C3
:101420009BFA01280BD12946204617F0B5FA204631
:1014300017F01EFABDE87040C0B201F00DB870BDE3
:1014400070B58F4C40F225552946204617F084FA96
:1014500001280BD12946204617F09EFA204617F0A6
:1014600007FABDE87040C0B204F073BD70BD70B53E
:10147000844C40F225552946204617F06DFA012884
:1014800010D12946204617F087FA204617F0F0F9C8
:101490006E49C0B291F854107B4A52F82110BDE851
:1014A0007040084770BD70B5784C40F2255529460C
:1014B000204617F051FA012811D12946204617F08D
:1014C0006BFA204617F0D4F96049C0B291F8551074
:1014D0006F4A52F82120BDE870406E49104770BD38
:1014E000F8B55A4D95F8680040F0010085F868009D
:1014F00069480026068005F0B6FF6848006890F845
:10150000CA0001280BD066480068816891F81C1554
:10151000012904D0C06890F8C500012801D10AF063
:10152000CCFF544C206890F86E00012815D101F0D2
:10153000D6F92969487495F83C00400606D520681C
:10154000806800680078002112F0D0F82869407C9B
:1015500018B128694674FFF7CCFD40484178B9B10D
:10156000467095F83500C00606D54E4890F86400E0
:10157000000701D414F04CFC1CF06FFA4A4890F8B4
:101580002410012904D1022180F82410FFF7FDFD69
:1015900031481CF037F91AF05AF895F86B004349B6
:1015A00051F82000804795F83500C0060DD5394820
:1015B000243890F824100E2907D090F8240020B188
:1015C0003449A1F1240013F07FFB3948C07B012886
:1015D00007D1002136480CF013F9A86908B1A869B1
:1015E0008047344C2079002817D094F907000090E8
:1015F00020792268A31D191D18F01FFF6071607902
:1016000000280AD1267140F2124120681CF0E1FE48
:101610000020FFF7F9FC85F87560F8BD7047FEE71C
:10162000FEE7FEE7FEE770477047704722A01DF017
:1016300099FE2AA01DF096FE2D4801682D4A01F45E
:10164000E06111430160BFF3408FFEE7F005002029
:101650001E000020380000206600002094000020BA
:10166000442D00203C0000204000002016000020F7
:10167000000C004028000020001000400044004002
:1016800000480040004C00408C000020005000400A
:101690006C000020C40800201C0000203000002046
:1016A0002C0000209006002068060020800000200A
:1016B000AC1E0020D00700205B4841524420464128
:1016C000554C542048414E444C4552202D20424C0C
:1016D00055452053435245454E5D0A002D3E524527
:1016E0005354415254204445564943450A0A0A007E
:1016F0000CED00E00400FA057FB504460D46C14834
:10170000012150F8240040F0010015F0C2FF042030
:101710008DF80F00BB48143830F81400ADF80C00F9
:10172000B94803A950F8240015F0D5FB012D28D1A4
:10173000B448483010F81410123810F8140015F09E
:1017400086FCB048243030F81400019000208DF859
:1017500008000C208DF809008DF80A5001A815F03A
:1017600097F8A8485A3010F814008DF800000F20A0
:101770008DF801008DF802008DF80350684614F0D2
:101780006AFD7FBD38B504469E480121803050F87F
:10179000240015F07EFF9B486C3030F81400ADF843
:1017A000000010208DF8030003208DF802009648F9
:1017B0006946243050F8240015F08DFB38BD91495E
:1017C000914A6C31243231F8101052F82000016136
:1017D00070478C498C4A6C31243231F8101052F821
:1017E0002000416170478849243151F82010CA68AF
:1017F000844B6C3333F810004240CA607047814913
:10180000814A143931F8101052F8200015F0BEBB8F
:10181000F8B504460E467B487A49B830C83150F8CE
:10182000240051F82410084340F00100012115F074
:1018300030FF74480121A83050F8240015F034FF1F
:10184000012C03D10121714815F0D6FB18208DF829
:1018500003006C48243830F81400ADF80000032071
:101860008DF80200684869465C3050F8240015F095
:1018700032FB04208DF8030062481C3830F8140055
:10188000ADF80000604869466C3050F8240015F04F
:1018900022FB5D4D31464C3555F8240016F008FF0B
:1018A00055F82400012116F07EFFF8BD70B50446FE
:1018B000554D4C3555F8240016F0B2FE55F824006D
:1018C000BDE87040002116F06EBF10B5514C504974
:1018D000204614F052FF0121204614F078FFBDE8A5
:1018E000104001214C4814F09CBD2DE9F8430546F9
:1018F0000121084615F0C2FE0121082015F0C9FE9D
:101900000121480215F0C5FE0220ADF800000024B8
:101910008DF80340414E6946304615F0DCFA012748
:10192000ADF800708DF803406946304615F0D3FAE3
:10193000DFF8E080404614F0A9FE374934484C31C6
:101940000160456084600326C660046180214161B6
:10195000490081618900C16120210162090241625F
:1019600084620146404614F008FF0121404614F00D
:101970002EFF27482C300460077144714FF460211A
:101980008160C4600674244C0146204614F0E6FCD5
:10199000012014F045FE052301220921204614F000
:1019A00067FD052302220821204614F061FD04236F
:1019B00003221021204614F05BFD0121204614F083
:1019C00001FD0121204614F0F1FC204614F011FD28
:1019D000204614F013FD0028FAD1204614F015FD1E
:1019E000204614F017FD0028FAD10121204614F0FA
:1019F00018FD002D03D10AA01DF0B4FCFEE7BDE8E0
:101A0000F883000034FD0208A0000020300014001C
:101A1000F41E00200800024000240140000C014098
:101A2000414443206973206E6F742072656164794C
:101A30000A000000714841880022002903D0418833
:101A4000491E418002E0018801B10280818819B1FC
:101A50008188491E81807047694890F8C810002924
:101A6000F9D090F8CA100129F5D000F8C82F01214B
:101A7000817070471FB504460020FFF717FF0094E0
:101A80000020ADF80400ADF80600ADF80800ADF890
:101A90000C000C20ADF80A0069460020FFF7B8FEE4
:101AA0001FBDF0B585B006460D464FF4E1300190FC
:101AB0000024ADF80840ADF80A40ADF80C40ADF890
:101AC00010400C20ADF80E0001A90020FFF7A0FE89
:101AD0004C4F012240F22551384616F070FE40F27C
:101AE0002661384616F058FF4FF4407014F0AEFBF4
:101AF00034208DF800008DF801408DF8024001205F
:101B00008DF80300684614F0A6FB3C49CD608E605A
:101B10003DA01DF027FC05B03948F0BD374A06212D
:101B20009180374A92F8CA1001290CD092F8C81057
:101B3000C72902D3002182F8C81092F8C8104B1CA4
:101B400082F8C8305054704770B52C4B4FF41B715D
:101B500059801D88194640F2124689680024B54212
:101B60000A682FD21D8850551D8801226DB943285F
:101B700020D006281ED015281CD041281AD0612854
:101B800018D0042816D0182814D008680578022D1B
:101B900002D00078012807D11888A0F58065043D9F
:101BA00003D01888401C188070BD188808811C80DC
:101BB0008A7170BD18880D68401C2C5418880881E3
:101BC0008A7170BD1C8014700220887170BD2DE96F
:101BD000F04105460E4600240A4F0BE0295D3846C9
:101BE00016F042FE4021384616F0ABFE0028F9D030
:101BF000641CA4B2B442F1D3BDE8F0811C01002002
:101C0000341F0020004C00400A0A0A00704710B53B
:101C10000520FFF7DEFDBDE81040F7E70520FFF7E0
:101C2000CEBD70B50546444C0221204615F0B5FEE8
:101C30000028F9D02946204615F063FE01212046F0
:101C400015F0ABFE0028F9D0204615F05CFEC0B2BE
:101C500070BD10B586B00121080315F01AFD0121F1
:101C6000452015F016FD18208DF8030003208DF88F
:101C700002002020ADF80000304C6946204615F0E7
:101C80002AF98021ADF800106946204615F023F9A5
:101C90004021ADF800106946204615F01CF90520DA
:101CA000FFF770FDFFF7BAFF0020ADF804004FF416
:101CB0008271ADF80610ADF80800ADF80A00ADF875
:101CC0000C006115ADF80E10ADF81000ADF8120063
:101CD0000720ADF81400184C01A9204615F05CFD52
:101CE0000121204615F0DDFD154A1649164800F081
:101CF0008CF806B010BD10B5FFF7ABFF14481349C0
:101D0000016014494160144981601449C16014495B
:101D1000016114494161144981611449C161144947
:101D2000016214494162144981621449C162144933
:101D3000016310BD70470000003001400008014001
:101D4000231C01081D1C01080F1C0108311E01087D
:101D50002C010020791E0108B91E0108E71E0108A8
:101D60001D1F0108531F01088F1F0108D71F0108FD
:101D70003720010865200108A1200108EF20010893
:101D8000AB21010870B5F84C60688047E168052018
:101D90008847E168002088470546A0688047E8B288
:101DA00070BD10B50024FFF7EDFF641CE4B2C0075E
:101DB00001D0992CF7D310BD10B5EB4C606880476B
:101DC000E16806208847A068BDE81040004770B56C
:101DD0000546FFF7F1FFE44C61688847E1680120A0
:101DE0008847E168E8B28847A0688047FFF7D9FFD5
:101DF000012070BD10B50020FFF7E9FFFFF7C2FF1B
:101E000008B1002010BD012010BD10B5D64C606097
:101E1000A160E260FFF7EEFF606820B1A06810B13A
:101E2000E068002803D1D1A01DF09CFAFEE710BDA8
:101E30002DE9F04104460F461546FFF7BDFFCA4E97
:101E400070688047F16802208847F168C4F3072072
:101E50008847F168E0B28847002404E0F16815F88B
:101E6000010B8847641CBC42F8D3B0688047FFF779
:101E700098FF0120BDE8F0812DE9F04104460F46AE
:101E80001546B94E70688047F16803208847F168AD
:101E9000C4F307208847F168E0B28847002405E0D2
:101EA000F1680020884705F8010B641CBC42F7D399
:101EB000B06880470120DDE770B50546AA4C606830
:101EC0008047E16803208847E168C5F30720884719
:101ED000E168E8B28847E168002088470546A168C4
:101EE0008847284670BD70B505460E46FFF764FF6B
:101EF0009D4C60688047E16802208847E168C5F32F
:101F000007208847E168E8B28847E168304688479B
:101F1000A0688047FFF745FF012070BD70B50546FA
:101F20000E46FFF749FF904C60688047E168022049
:101F30008847E168C5F307208847E168E8B2884729
:101F4000E16830788847A0688047FFF72AFF0120C2
:101F500070BD70B506460D46FFF72EFF824C6068D7
:101F60008047E16802208847E168C6F30720884778
:101F7000E168F0B28847E16828788847E1686878C6
:101F80008847A0688047FFF70CFF012070BD70B53F
:101F900006460C46FFF710FF734D68688047E968F6
:101FA00002208847E968C6F307208847E968F0B24D
:101FB0008847E96820788847E96860788847E96851
:101FC000A0788847E968E0788847A8688047FFF7E5
:101FD000E8FE012070BD70B506460C46FFF7ECFE2A
:101FE000614D68688047E96802208847E968C6F360
:101FF00007208847E968F0B28847E9682078884771
:10200000E96860788847E968A0788847E968E078F7
:102010008847E96820798847E96860798847E968EE
:10202000A0798847E968E0798847A8688047FFF782
:10203000B8FE012070BD70B505464B4C6068804706
:10204000E16803208847E168C5F307208847E16815
:10205000E8B28847E168002088470546A1688847BC
:10206000284670BD38B505463F4C60688047E1683A
:1020700003208847E168C5F307208847E168E8B294
:102080008847E168002088478DF80000E16800205B
:1020900088478DF80100A0688047BDF8000038BD72
:1020A00038B50546304C60688047E16803208847B2
:1020B000E168C5F307208847E168E8B28847E1682E
:1020C000002088478DF80000E168002088478DF8DF
:1020D0000100E168002088478DF80200E1680020D7
:1020E00088478DF80300A0688047009838BD7CB50C
:1020F00005461D4C60688047E16803208847E16819
:10210000C5F307208847E168E8B28847E168002006
:1021100088478DF80000E168002088478DF80100AD
:10212000E168002088478DF80200E16800208847B8
:102130008DF80300E168002088478DF80400E1680D
:10214000002088478DF80500E168002088478DF859
:102150000600E168002088478DF80700A0688047E6
:10216000DDE900017CBD000060010020436865637B
:102170006B204652616D204D656D6F727920496EFE
:102180007465726661636520636F6E6669677572F8
:102190006174696F6E210A0000214FF4E1525043CF
:1021A00000E0491C8142FCD370472DE9F04186B024
:1021B00080460F46164638461CF028F9C4B2142152
:1021C00001A81CF006F9194D2878B04223D8142C28
:1021D00000D804B9142416A01DF0C4F83A462146CC
:1021E0004046FFF725FE214601A81CF0F2F801AA9F
:1021F00021464046FFF740FE224601A938461CF022
:1022000015F950B101AA414613A01DF0ABF828788A
:10221000401CC0B2287006B02CE641461CA01DF040
:10222000A1F801A926A01DF09DF8F0E760010020AB
:102230002D2D3E5B46524D32355630315F4720469C
:1022400052414D204D454D4F52592052554E20542C
:102250004553545D0A000000202D20546865206F0E
:102260007065726174696F6E206F662046524D32E0
:10227000355630315F4720617420307825783A2018
:102280006E6F74204F4B202D3E3F25730A000000D7
:10229000202D20546865206F7065726174696F6EBF
:1022A000206F662046524D32355630315F472061EF
:1022B0007420307825783A204F4B202D3E000000C6
:1022C0002025730A000000007047FF490020487075
