:020000040800F2
:10C8000000480020B9CA0008E5190108C3CA000899
:10C81000E9190108EB190108ED19010800000000F1
:10C82000000000000000000000000000EF190108F7
:10C83000F119010800000000F31901089718010818
:10C84000E3CA0008E3CA0008E3CA0008E3CA000814
:10C85000E3CA0008E3CA0008E3CA0008E3CA000804
:10C86000E3CA0008E3CA0008E3CA0008E3CA0008F4
:10C87000E3CA0008E3CA0008E3CA0008E3CA0008E4
:10C88000E3CA0008E3CA0008E3CA0008E3CA0008D4
:10C89000E3CA0008E3CA0008E3CA00083917010820
:10C8A000E3CA0008E3CA0008E3CA0008E3CA0008B4
:10C8B00089160108E3CA0008E3CA0008E3CA0008B1
:10C8C000E3CA0008E3CA0008E3CA0008E3CA000894
:10C8D000E3CA0008EB1701088F170108BD1701080C
:10C8E000E3CA0008E3CA0008E3CA0008E3CA000874
:10C8F000E3CA0008E3CA0008E3CA0008E3CA000864
:10C90000E3CA0008E3CA0008E3CA0008E3CA000853
:10C91000231801085D180108E3CA0008E3CA0008EB
:10C92000E3CA0008E3CA0008E3CA0008E3CA000833
:10C93000DFF80CD022F02AFB00480047970F0108CF
:10C94000004800200CB50022019200925248016874
:10C9500041F4803101604FF4A063016801F40031BB
:10C9600000910199491C0191009911B901999942CD
:10C97000F3D10168890302D50121009100E0009202
:10C980000099012930D145490A6842F010020A6035
:10C990000A6822F003020A600A6842F002020A6092
:10C9A0004168416041684160416841F48061416093
:10C9B000416821F47C114160416841F4E811416013
:10C9C000016841F08071016001688901FCD541680E
:10C9D00021F003014160416841F00201416041687A
:10C9E000C1F381010229FAD10CBDABE710B52A4889
:10C9F000016841F0010101604168294A114041602C
:10CA00000168284A11400160016821F48021016019
:10CA1000416821F4FE0141604FF41F018160FFF77E
:10CA2000E4FF21494FF00060086010BD10B51A4ABC
:10CA3000506800F00C011D4B1D4800290ED0042940
:10CA40000ED008290ED003605168194AC1F30311B2
:10CA5000121D515C0268CA40026010BD0360F3E71A
:10CA60000360F1E7516801F47011536803F48033F7
:10CA7000022404EB914133B153689B0307D50D4B5E
:10CA800059430160E0E70B4B59430160DCE7074B7A
:10CA900059430160D8E70000001002400020024026
:10CAA0000000FFF8FFFFF6FE08ED00E000127A003C
:10CAB0000000002000093D000A4880470A4800475E
:10CAC000FEE71EF0040F0CBFEFF30880EFF30980C0
:10CAD00004F090BFFEE7FEE7FEE7FEE7FEE7FEE7B5
:10CAE000FEE7FEE7EDC9000831C9000810B518F0EF
:10CAF00055FB4FF48034204618F069FB18F095FB85
:10CB0000012822D1102017F047FF022017F034FF30
:10CB1000002018F0C4FB002018F0CFFBA01118F083
:10CB2000C5FB4FF4E011204618F0A2FB012018F0DD
:10CB3000A7FB392018F064FB0028FAD0022018F077
:10CB4000A2FB18F0A7FB0828FBD110BD7FB501217F
:10CB5000084618F051FC4FF08045284618F07CFE3E
:10CB600040F2CF71ADF8081040F26711ADF8041033
:10CB70000024ADF80A40ADF8064001A9284618F097
:10CB800053FF0121284619F06AFC0122114628466C
:10CB900019F035FA0121284619F017FA4FF44070C0
:10CBA00017F012FB1C208DF8000005208DF8010005
:10CBB0008DF8024001208DF80300684617F009FB4C
:10CBC0007FBD3EB50121102018F016FCA84C204670
:10CBD00018F042FE44F61F61ADF8041040F60F61F4
:10CBE000ADF800100021ADF80610ADF8021069464E
:10CBF000204618F019FF0021204619F0E6F900211F
:10CC0000204619F003FC0121204619F028FC0121DF
:10CC1000204619F0DAF93EBD704710B5FFF7D1FF95
:10CC2000BDE8104012F049BC10B5044645F255501D
:10CC300018F040FA062018F040FA40F6FF7018F09D
:10CC40003FFA18F040FA18F043FA8A49216010BD03
:10CC50002DE9FE430024884E96F83900000701D5DF
:10CC600086A300E08BA3706990F82E00012814D0F1
:10CC7000706990F82E00032811D0706990F82E008A
:10CC800002280ED0706990F82E0004280BD086A2DE
:10CC900096F85B0048B186A108E089A2F8E78AA26D
:10CCA000F6E78BA2F4E78CA2F2E791A193A022F021
:10CCB000DDFB99A022F0DAFBA04BA1A09A1F02F1A4
:10CCC0000E0122F0D3FB5036317AA6A022F0CEFB23
:10CCD000B17AACA022F0CAFB6749B2A05C3122F065
:10CCE000C5FB3168B7A022F0C1FBF079503E0128A6
:10CCF0001BD0BDA1BEA022F0B9FBC54D286A818D15
:10CD0000B022C4A022F0B2FB96F83500000612D57E
:10CD1000286A90F82E00400609D5306FF16E326F08
:10CD2000411AC5A022F0A2FB0CE0CDA1E2E7CEA003
:10CD300022F09CFB06E0306FF16E326F411ABEA00C
:10CD400022F094FBA86A006821F00EFEF268127AC5
:10CD5000009202460B46CBA022F088FBB0688068A8
:10CD600021F002FE0746B0688846406821F0FCFDCD
:10CD7000AA6A527A042A55D0AA6A527A032A53D050
:10CD8000AA6A527A012A51D0AA6A527A022A4FD04C
:10CD9000C5A2CDE90078029202460B46C6A022F059
:10CDA00065FBA86A406821F0DFFDF268D279009245
:10CDB00002460B46CCA022F059FBA86A007A042850
:10CDC00038D0A86A007A032836D0A86A007A0128E9
:10CDD00034D0A86A007A022832D0B3A3B068427B6C
:10CDE000B068017BCAA022F041FB96F8690020B12F
:10CDF00096F86910D0A022F039FB96F835000007AC
:10CE000020D5D4A022F032FB3069407910B1D9A0EE
:10CE100022F02CFB30690079002816D0DCA022F02B
:10CE200025FB12E0E1A2B4E7E3A2B2E7E5A2B0E796
:10CE3000EAA2AEE7DDA3D1E7EEA3CFE7E1A3CDE71A
:10CE4000E6A3CBE7F0A022F011FBB6F84820B068CB
:10CE5000C189F5A022F00AFBF16CFAA022F006FBD2
:10CE600096F8380010F00C0F01D0FEA00CE218E28A
:10CE700000100040C7500208F805002072756E20AF
:10CE800061732061646D696E6973747261746F722D
:10CE90000000000072756E206173206E6F726D610C
:10CEA0006C20757365720000554E4B4E4F574E0007
:10CEB000323031352076657273696F6E0000000084
:10CEC00052455354494E470053544F505045440027
:10CED00052554E4E494E470052554E4E494E4720F0
:10CEE000494E204F564552535045454400000000DE
:10CEF0004F6C642076657273696F6E005B475053A8
:10CF000020547261636B6572202573202D20257378
:10CF1000202D2025735D0A004D6F64656C20202054
:10CF20002020202020202020202020202020202001
:10CF30003A2054473030370A000000004E000020ED
:10CF40004669726D776172652056657220202020D7
:10CF500020202020202020203A20257325732E25F4
:10CF6000730A000052657374617274206E756D628D
:10CF70006572202020202020202020203A202564B7
:10CF80000A0000004175746F2072657374617274D9
:10CF90002020202020202020202020203A2025642E
:10CFA0000A0000004C6173742072657374617274BE
:10CFB0002020202020202020202020203A202573FF
:10CFC0000A00000052756E6E696E672074696D65A7
:10CFD0002020202020202020202020203A202564EE
:10CFE000202868290A000000756E736166650000DC
:10CFF00044657669636520737461747573202020BD
:10D0000020202020202020203A2025730A00000024
:10D01000C007002054656D7065726174757265207B
:10D020002020202020202020202020203A2025649D
:10D030002563430A000000004D656D6D6F7279280D
:10D0400075736167652F4361706163697479292025
:10D050003A2025642F256420284D42290A0000002B
:10D0600073616665000000005344206361726420B0
:10D070006973206E6F7420696E73657274656421C4
:10D080000A0000004261747465727920506F776500
:10D09000722020202020203A2025322E336620289E
:10D0A0005629282564290A00564F4C5F494E5F5285
:10D0B000414E47450000000020204F7065726174AA
:10D0C000696F6E2052616E676520203A2025322EEE
:10D0D000336620746F2025322E3366202856292D82
:10D0E0003E2025730A0000004D61696E20506F7765
:10D0F00065722020202020202020203A2025322E5A
:10D1000031662028562920282564290A00000000BD
:10D1100020204F7065726174696F6E2052616E6776
:10D120006520203A20256420746F2025642028562D
:10D13000292D3E2025730A004D4F4E49544F524928
:10D140004E472020202020202020203A2025640A3D
:10D150000000000042757A7A65722020202020208D
:10D16000202020202020203A20696E207573650A37
:10D1700000000000416C61726D20436F6E74692085
:10D1800044726976696E673A204F6E0A00000000AB
:10D19000416C61726D204F766572207370656564B5
:10D1A0002020203A204F6E0A00000000564F4C5FAE
:10D1B000554E4B4E4F570000564F4C5F444F574E05
:10D1C00000000000564F4C5F4C4546545F4F55548D
:10D1D0005F4F465F52414E4745000000564F4C5F3F
:10D1E00052494748545F4F55545F4F465F52414E36
:10D1F00047450000564F4C5F444953434F4E4E4500
:10D20000435445440000000042757A7A657220203C
:10D2100020202020202020202020203A206E6F7403
:10D22000207573650A000000534D5320636F756EBF
:10D2300074657220202020202020203A2025642F91
:10D2400025640A0042797465436F6E7574657220B7
:10D25000202020202020203A202564202862797474
:10D2600065290A004D6561737572652076656C6F7E
:10D27000636974792020203A204261736564206FCD
:10D280006E204750530A000022F0F0F896F838005C
:10D2900010F0300F0DD096F83800400605D57CA16F
:10D2A00004E07EA022F0E2F803E085A187A022F04E
:10D2B000DDF896F8340000F0070002280CD096F84C
:10D2C000340000F0070001280FD096F8340000F079
:10D2D0000700032812D023E083A022F0C7F8286AB1
:10D2E000016B8BA022F0C2F81AE090A022F0BEF8E9
:10D2F000286A016B86A022F0B9F811E095A022F00F
:10D30000B5F8286A016B82A022F0B0F89D48818DA3
:10D310009DA022F0ABF896F84A10A2A022F0A6F841
:10D32000A748C17A11B1A7A022F0A0F8286A90F806
:10D330002E00400703D5AAA022F098F802E0AFA083
:10D3400022F094F8286A0068407C18B1B2A022F05C
:10D350008DF802E0B7A022F089F896F83600C043B5
:10D3600040071BD096F8360010F0040F0BD0286A47
:10D3700090F82E00800601D5B5A100E0B5A1B6A0B9
:10D3800022F074F80AE0286A90F82E00000601D511
:10D39000AFA100E0AFA1B7A022F068F8E869418D25
:10D3A000BBA022F063F8286A008921F0A3FAC04FDD
:10D3B000DFF800833A46434621F025FA2A6AB2F89C
:10D3C00008C002460B466146BBA022F04FF8286A0F
:10D3D000408921F08FFA3A46434621F014FA2A6A2E
:10D3E000578902460B463946BDA022F03FF8286A0D
:10D3F000828C286A4169C4A022F038F8286AC28C5D
:10D40000286AC169C7A022F031F809F02AF808B1EA
:10D41000CBA100E0CCA1CFA022F028F86849D4A08D
:10D42000573922F023F86649D8A0333922F01EF884
:10D430006349DDA02C3922F019F86149E1A00839CF
:10D4400022F014F8A968E6A0523122F00FF8A8687B
:10D4500090F8630060B1A86890F86310E7A022F02C
:10D4600005F8A86890F86210EBA021F0FFFF02E039
:10D47000F0A021F0FBFFA86840680078002806D0E3
:10D48000F6A021F0F3FFA8684168491CF6E111E21B
:10D4900020436C65616E6572000000004D6561732C
:10D4A0007572652076656C6F636974792020203A07
:10D4B0002050756C7365207369676E616C0A00009B
:10D4C0006F757420436C65616E65720050756C7386
:10D4D0006520636F756E746572207769746828259E
:10D4E0007329200A0000000052533233325F31208A
:10D4F00020202020202020202020203A20496E7348
:10D5000074616C6C6564205A4D63616D0A000000A3
:10D510004261756452617465202020202020202003
:10D520002020203A2025640A0000000052533233A4
:10D53000325F312020202020202020202020203A6F
:10D5400020496E7374616C6C656420463530300A16
:10D550000000000052533233325F3120202020205F
:10D56000202020202020203A20496E7374616C6CAA
:10D570006564206C6576656C2073656E736F720AE6
:10D5800000000000C4060020496E74657276616C6C
:10D5900020726571756573742020203A2025640A15
:10D5A0000000000045585452533233325F315F530C
:10D5B000746174757320203A2025640A000000000D
:10D5C000D8080020546F74616C2043616D657261EE
:10D5D000202020202020203A2025640A000000007E
:10D5E00041434320202020202020202020202020D4
:10D5F0002020203A204F6E0A0000000041434320C3
:10D600002020202020202020202020202020203A00
:10D61000204F66660A000000444F4F522020202011
:10D6200020202020202020202020203A204F70651C
:10D630006E0A0000444F4F5220202020202020203E
:10D64000202020202020203A20436C6F73650A00A0
:10D650004F4E00004F4646005665416972436F6E5B
:10D6600020202020202020202020203A2025730A5E
:10D6700000000000566542454E202020202020203A
:10D68000202020202020203A2025730A00000000BE
:10D690004675656C2056616C2020202020202020BB
:10D6A0002020203A202564286D6D290A0000000002
:10D6B00056F146E6913F683F414443203120202007
:10D6C00020202020202020202020203A20256420F7
:10D6D0003C2D3E2025322E336620560A00000000E5
:10D6E00041444320322020202020202020202020C0
:10D6F0002020203A202564203C2D3E2025322E3348
:10D700006620560A0000000050756C736520312FAA
:10D7100046312020202020202020203A2025642F60
:10D7200025640A0050756C736520322F4632202024
:10D73000202020202020203A2025642F25640A0064
:10D74000446F6D61696E00004950206164647265C8
:10D750007373000052656D6F7465206D6F64652092
:10D76000202020202020203A2025730A00000000DD
:10D77000536572766572204950206164647220207E
:10D780002020203A2025730A00000000536572769D
:10D79000657220506F7274206E756D626572203AEA
:10D7A0002025730A0000000055736572204950203F
:10D7B00061646472202020202020203A2025730AF2
:10D7C000000000005573657220506F7274206E75F2
:10D7D0006D6265722020203A2025730A0000000047
:10D7E00047534D20494D454920202020202020200E
:10D7F0002020203A2025730A0000000047534D20C6
:10D800006E6574776F726B206E616D652020203AB3
:10D810002025640A0000000047534D207369676E9D
:10D82000616C20737472656E6774683A2025640AAF
:10D830000000000047534D206E6574776F726B20B7
:10D840006E616D652020203A204E6F7420726567EE
:10D85000697374657265640A000000004750525392
:10D860002020202020202020202020202020203A9E
:10D8700020617661696C61626C650A006AA021F0C2
:10D88000F5FDA8684068007E02280BD06DA021F04D
:10D89000EDFDA8684068407E022807D072A021F004
:10D8A000E5FD0AE079A021F0E1FDF2E77FA021F09B
:10D8B000DDFD02E085A021F0D9FD6868C07D18B1CA
:10D8C0008BA021F0D3FD02E090A021F0CFFD68688D
:10D8D000017D96A021F0CAFD70694068007800289B
:10D8E00067D070694068017897A021F0BFFD9DA0C6
:10D8F00021F0BCFD7069416804F10800095C9FA03B
:10D9000021F0B4FD641CE4B2082CF3D3AFF2044060
:10D9100021F0ACFD706941689AA0243121F0A6FD88
:10D920007069406890F83D007169496891F83C1051
:10D930007269526892F83B20CDE90021029070692B
:10D94000406890F83A307069406890F83920706902
:10D95000406890F8381092A021F088FD7069406806
:10D9600090F843007169496891F8421072695268F1
:10D9700092F84120CDE9002102907069406890F84A
:10D9800040307069406890F83F207069406890F8B6
:10D990003E108DA021F06AFD70694068C18E94A090
:10D9A00021F064FD70694068818E99A021F05EFDD0
:10D9B00002E09FA021F05AFD7069018CA5A021F022
:10D9C00055FD7069816A03B0AAA0BDE8F04321F05B
:10D9D0004DBD10B5AFA021F049FD3B21B4A021F011
:10D9E00045FD6421BCA021F041FD3021C4A021F0FF
:10D9F0003DFD5C21CCA021F039FD2021D5A021F0F6
:10DA000035FD2421DEA021F031FD2421E7A021F005
:10DA10002DFD9321F0A021F029FD0C21F8A021F08B
:10DA200025FD0C2100E200004C6F63616C20495021
:10DA300020202020202020202020203A2025730A8A
:10DA400000000000436F6E6E656374696F6E203076
:10DA5000202020202020203A206E6F7420636F6EDB
:10DA60006E65637465640A00436F6E6E6563746906
:10DA70006F6E2031202020202020203A206E6F74ED
:10DA800020636F6E6E65637465640A00436F6E6E2B
:10DA9000656374696F6E2030202020202020203A9A
:10DAA00020636F6E6E65637465640A00436F6E6E0B
:10DAB000656374696F6E2031202020202020203A79
:10DAC00020636F6E6E65637465640A00475052533D
:10DAD0002020202020202020202020202020203A2C
:10DAE000206E6F7420617661696C61626C650A00FA
:10DAF000475053207369676E616C202020202020DE
:10DB00002020203A20476F6F640A000047505320BE
:10DB10007369676E616C2020202020202020203A2D
:10DB2000206E6F7420676F6F640A00005361746524
:10DB30006C6C69746573206E756D62657220203A35
:10DB40002025640A00000000447269766572204F47
:10DB500072646572202020202020203A2025640A4B
:10DB600000000000447269766572205461672020CD
:10DB7000202020202020203A20000000253032786C
:10DB800000000000447269766572204C6963656E1E
:10DB9000736520202020203A2025730A0000000011
:10DBA00053746172742054726970202020202020E8
:10DBB0002020203A20256325633A256325633A25F2
:10DBC0006325630A0000000046696E69736820548B
:10DBD00072697020202020202020203A20256325F3
:10DBE000633A256325633A256325630A0000000034
:10DBF000546F74616C2044726976696E6720746931
:10DC00006D65203A20256420286D696E290A000080
:10DC1000436F6E742044726976696E672074696D13
:10DC20006520203A20256420286D696E290A0000AD
:10DC3000447269766572205461672020202020207C
:10DC40002020203A206E6F7420617661696C6162D9
:10DC50006C650A00526573746564202020202020C2
:10DC6000202020202020203A20256420286D696E65
:10DC7000290A000044697374616E636520202020C6
:10DC8000202020202020203A20256420286D290AE9
:10DC900000000000434845434B2053495A45204F5C
:10DCA0004620444154412054595045530A00000035
:10DCB0002D2053697A65206F662074673130327089
:10DCC00061636B6167655F646566202020202020AA
:10DCD0003A2025640A0000002D2053697A65206FE0
:10DCE00066204472697665725F6465662020202034
:10DCF00020202020202020203A2025640A00000037
:10DD00002D2053697A65206F662056656869636CBB
:10DD1000655F6465662020202020202020202020B0
:10DD20003A2025640A0000002D2053697A65206F8F
:10DD300066204472697665724D73675F646566201C
:10DD400020202020202020203A2025642B31390A51
:10DD5000000000002D2053697A65206F66205374FF
:10DD60006F704D73675F646566202020202020203F
:10DD7000202020203A2025642B31390A00000000A1
:10DD80002D2053697A65206F6620446F6F724D7342
:10DD9000675F64656620202020202020202020202E
:10DDA0003A2025642B31390A000000002D205369E8
:10DDB0007A65206F662053686966744D73675F6487
:10DDC0006566202020202020202020203A20256465
:10DDD0002B31390A000000002D2053697A65206F2D
:10DDE000662053506565644D73675F6465662020E7
:10DDF00020202020202020203A2025640A0A00002C
:10DE00002D2053697A65206F662054696D655F64C3
:10DE10006566202020202020202020202020202077
:10DE20003A2025640A00000066A021F01FFB28218B
:10DE30006EA021F01BFB782176A021F017FB642156
:10DE40007EA021F013FB402186A021F00FFB0C21C6
:10DE50008EA021F00BFBBDE81040062195A021F01B
:10DE600005BBFEB500249D4D9DA021F0FFFAA3A0A7
:10DE700021F0FCFAA84BA9A09A1F02F10E0121F093
:10DE8000F5FAD5E90032ACA0A96821F0EFFAB24D5D
:10DE900095F83900000701D5B04901E0AF491831C4
:10DEA000AFA021F0E3FAB44E7068006800797168A1
:10DEB0000968C978726812689278CDE900210290E9
:10DEC00070684068037970684068C278706840681C
:10DED0008178AAA021F0CAFA95F85810B5A021F0CF
:10DEE000C5FAA6F5B671B9A021F0C0FA06F1900006
:10DEF00000F10D01027BBBA021F0B8FAA6F5B670C7
:10DF000000210160416081607168496851F8052F06
:10DF10000260898881807168096851F8052FC0F80E
:10DF2000062089884181B74B8B4A78211B684FF4C2
:10DF300091609847B4A021F099FAB74EB7A0316824
:10DF400021F094FABFA0B16821F090FAC7A0F1685F
:10DF500021F08CFACFA0716821F088FAD7A021F0C7
:10DF600085FA95F86900012818D095F8690002280B
:10DF700018D095F86900032818D095F8690004288E
:10DF800018D095F869000A2818D095F86900082873
:10DF900015D095F869000B2812D004E2CAA021F030
:10DFA00065FA00E2D3A021F061FAFCE1DDA021F0E6
:10DFB0005DFAF8E1E8A021F059FAF4E1E8E1EBE1DB
:10DFC000EEE100002D2053697A65206F66204461E0
:10DFD00074655F646566202020202020202020209A
:10DFE000202020203A2025640A0000002D205369BB
:10DFF0007A65206F6620526571756573744D616E28
:10E000006167656D656E745F646566203A2025649E
:10E010000A0000002D2053697A65206F662053792D
:10E020007374656D4D616E616765725F64656620CE
:10E03000202020203A2025640A0000002D2053696A
:10E040007A65206F662046696C654D616E61676513
:10E050006D656E745F646566202020203A2025641B
:10E060000A0000002D2053697A65206F66205466EF
:10E07000696C655F646566202020202020202020B8
:10E08000202020203A2025640A0000002D2053691A
:10E090007A65206F66205466696C65537973746580
:10E0A0006D5F646566202020202020203A202564B2
:10E0B0000A0000002D2053697A65206F6620737472
:10E0C000617469737469635F7461626C655F6465D0
:10E0D000662020203A2025640A0A0000E8F7FF1F86
:10E0E0000A0D5B54656368476C6F62616C20475032
:10E0F0005320547261636B65725D0A004D6F6465F5
:10E100006C2020202020202020202020203A205475
:10E11000473030370A0000004E0000204669726D1B
:10E12000776172652056657220202020203A2025D4
:10E130007325732E25730A0053657269616C202064
:10E140002020202020202020203A2025782D2578EE
:10E150002D25780A00000000F80500207CCE00087C
:10E160005365637572697479202020202020202057
:10E17000203A2025730A0000C0070020446174651E
:10E180002F74696D6520202020202020203A202532
:10E190003032642F253032642F3230253032642003
:10E1A0002D20253032643A253032643A25303264ED
:10E1B0000A0000004E554D424552204F4620524520
:10E1C00053544152543A2025640A00004C61737440
:10E1D000207265737461727420202020203A2025FB
:10E1E000730A00004361707475726520706F776503
:10E1F00072202020203A2025735B307825785D0A34
:10E200000000000030010020434845434B20434CB0
:10E210004F434B530A0000002C3300202D2053594C
:10E2200053434C4B5F4672657175656E6379202070
:10E230002020202020202020202020203A2025647B
:10E240000A0000002D2050434C4B315F467265712F
:10E2500075656E637920202020202020202020203A
:10E26000202020203A2025640A0000002D20504361
:10E270004C4B325F4672657175656E637920202064
:10E280002020202020202020202020203A2025642B
:10E290000A0000002D2048434C4B5F4672657175A3
:10E2A000656E63792020202020202020202020203F
:10E2B000202020203A2025640A00000043484543DE
:10E2C0004B204D4F44450A002D204D4F4E49544F91
:10E2D000522020202020202020202020202020200C
:10E2E00020202020202020203A2047534D207461F8
:10E2F000736B0A002D204D4F4E49544F5220202061
:10E30000202020202020202020202020202020200D
:10E31000202020203A205143564E3331207461731F
:10E320006B0A00002D204D4F4E49544F52202020A3
:10E3300020202020202020202020202020202020DD
:10E34000202020203A205061636B6167696E67204E
:10E350007461736B0A0000002D204D4F4E49544FDD
:10E36000522020202020202020202020202020207B
:10E3700020202020202020203A2053746174652022
:10E38000636865636B696E67207461736B0A000074
:10E390006FA021F06BF806E07DA021F067F802E0A5
:10E3A0008AA021F063F8B5F84830A868C28995F8CA
:10E3B0003900C0F3400191A021F058F895F83800D9
:10E3C00010F00C0F0ED098A021F050F895F85500E1
:10E3D000002850D0A0A021F049F895F85500022857
:10E3E00004D03CE0A2A021F041F8EFE7AF4EF07A74
:10E3F000002834D0AEA021F039F8F17AAEA021F097
:10E4000035F8F07A012801D9022100E00121B4A0F9
:10E4100021F02CF8B17ABCA021F028F8F17EC4A03C
:10E4200021F024F8717FCCA021F020F896F8241078
:10E43000D3A021F01BF8708C3C21B0FBF1F2B0FBB3
:10E44000F1F301FB1207308C0097B0FBF1F201FBF6
:10E450001202B0FBF1F1D4A021F008F80BE095F81E
:10E460005510DD4803296AD095F85510012967D069
:10E47000DAA020F0FBFFDDA020F0F8FF686940681B
:10E48000007800285DD06869406890F85C00012839
:10E4900058D06869406890F85C00022853D06869D9
:10E4A000406890F85C0003284ED0D4A1D6A020F09C
:10E4B000DDFF6869406890F85C00012845D0DCA267
:10E4C0006869406890F8330002283FD06869406866
:10E4D00090F8330001283AD0D6A1DBA020F0C6FF87
:10E4E000E4A020F0C3FF6869416804F10800095CFA
:10E4F000AFF6781020F0BAFF641CE4B2082CF2D317
:10E5000022A020F0B3FF6869406890F83D10686968
:10E51000406890F83C006A69526892F83B20CDE967
:10E52000002002916869406890F83A306869406854
:10E5300090F839206869406890F83810ACE1CDE176
:10E54000D1E1E1E1D4E1D5E1D6E1D7E1D8E1D9E10A
:10E550002D204D4F4E49544F522020202020202066
:10E5600020202020202020202020202020202020AB
:10E570003A20416363657373696E67205447313095
:10E58000322773206D656D207461736B0A00000083
:10E590002D204D4F4E49544F522020202020202026
:10E5A000202020202020202020202020202020206B
:10E5B0003A20446F776E6C6F6164206669726D7784
:10E5C000617265207461736B0A0000002D204D4F4D
:10E5D0004E49544F5220202020202020202020204F
:10E5E0002020202020202020202020203A204361AD
:10E5F0006D657261207461736B0A00002D20534DAC
:10E600005328526573706F6E73652F54687265730B
:10E61000686F6C642F757365642920203A20256427
:10E620002F25642F25640A002D204D6561737572B6
:10E63000652076656C6F6369747920202020202026
:10E6400020202020202020203A2042617365642071
:10E650006F6E204750530A00434845434B205253A6
:10E6600032333220534552564943450A00000000D8
:10E670002D204D6561737572652076656C6F6369D9
:10E6800074792020202020202020202020202020DD
:10E690003A204261736564206F6E2070756C7365FB
:10E6A000207369676E616C0A00000000D8080020C2
:10E6B00043414D4552410A002D20546F74616C2036
:10E6C00043616D6572612072756E6E696E672020A0
:10E6D00020202020202020203A2025640A0000004D
:10E6E0002D204B696E64206F6620484C2043616D7D
:10E6F0006572612020202020202020202020202042
:10E700003A20253031640A002020207C5F54696D56
:10E710006520496E74657276616C20286D696E752E
:10E7200074657329202020203A2025640A00000007
:10E730002020207C5F466F72206576656E747320A2
:10E7400020202020202020202020202020202020C9
:10E750003A20307825780A002020207C5F54696DAB
:10E7600065206C6174656E63792020287365636F22
:10E770006E647329202020203A2025640A000000BE
:10E780002020207C5F53746174652043616D657245
:10E79000612044726976657220202020202020208C
:10E7A0003A2025640A0000002020207C5F616C6C08
:10E7B0006F7765642066726F6D20253032643A256C
:10E7C0003032643A303020746F20253032643A257C
:10E7D0003032643A30300A00C40600202D204E6FDB
:10E7E000207365766963650A00000000434845436D
:10E7F0004B204452495645520A000000445F554E92
:10E800004B4E4F57000000002D205472697020209D
:10E8100020202020202020202020202020202020F8
:10E82000202020202020203A2025730A000000000C
:10E830003000000053544154455F445249564552FC
:10E840005F554E4B4E4F57002D20447269766572CE
:10E8500020202020202020202020202020202020B8
:10E86000202020202020203A202573282573290AE3
:10E87000000000002D2044726976657220546167A3
:10E880002020202020202020202020202020202088
:10E890002020203A2000000070A020F0E7FD6869E9
:10E8A000406890F843006969496891F842106A69C4
:10E8B000526892F84120CDE90021029068694068D1
:10E8C00090F840306869406890F83F206869406877
:10E8D00090F83E106EA020F0C9FDFEBD818D79A09C
:10E8E00020F0C4FDC7E5818D81A020F0BFFDC2E509
:10E8F0008AA1DBE58DA1D9E590A1D7E593A2DFE55B
:10E9000093A1EAE598A1E8E5BDE8FE409CA020F0CF
:10E91000ADBD2DE9FE4300249D4E706990F82E0098
:10E9200001285DD0706990F82E0003285BD07069D3
:10E9300090F82E00022859D0706990F82E00042813
:10E9400057D0944A944DA96894A0523120F08EFD7E
:10E950009D4FB9899DA020F089FDF989A3A020F0E1
:10E9600085FD96F86900122846D0A8A1A8A020F03D
:10E970007DFD316CAEA020F079FDA86890F86210A2
:10E98000B3A020F073FDBAA020F070FDA868416824
:10E99000C1A0491C20F06AFDA8684068C18BC6A0D0
:10E9A00020F064FDA8684068018CCBA020F05EFDDB
:10E9B000A8684068007E022820D0CFA020F056FD35
:10E9C000A8684068407E02281CD0D6A020F04EFDEA
:10E9D0006868C07D002819D0DDA020F047FD18E050
:10E9E0006C4A1832AEE76B4A2032ABE7694A2832EC
:10E9F000A8E7684A3032A5E7DDA1B7E7DEA020F03E
:10EA000035FDDDE7E6A020F031FDE1E7EEA020F0E6
:10EA10002DFD6868017DF5A020F028FD68688068FC
:10EA2000006888B11BF08FF9027868688068006818
:10EA3000037896F8380010F00C0F01D0F3A100E035
:10EA4000F4A1F6A020F012FD96F85500032803D19A
:10EA50004F48CC30418DF1E1F8E100002D20537496
:10EA600061727420547269702020202020202020A0
:10EA700020202020202020202020203A202563252F
:10EA8000633A256325633A256325630A0000000085
:10EA90002D2046696E6973682054726970202020A9
:10EAA0002020202020202020202020202020203A4C
:10EAB00020256325633A256325633A256325630A88
:10EAC000000000002D204675656C204C6576656C55
:10EAD00053656E736F72202020202020202020207C
:10EAE000202020203A2025642873290A00000000F5
:10EAF0002D204675656C20556C747261536F6E697C
:10EB00006353656E736F7220202020202020202008
:10EB10003A2025642873290A00000000445F5354FA
:10EB20004152545F415F545249500000445F50418C
:10EB30005553455F415F545249500000445F464978
:10EB40004E4953485F415F54524950003100000024
:10EB500053544154455F4452495645525F445249CB
:10EB600056494E470000000053544154455F4452FB
:10EB7000495645525F52455354494E4700000000E4
:10EB80002D204E6F206472697665720A00000000C5
:10EB9000F8050020A8CE0008C00700205B544731CC
:10EBA00030322D547261636B65722C20496E737420
:10EBB000616E7420766965776572202D202573203B
:10EBC0002D2025735D0A0000140000205374696332
:10EBD0006B31205461736B2072756E6E696E6720A5
:10EBE000202020203A2025640A0000005374696325
:10EBF0006B32205461736B2072756E6E696E672084
:10EC0000202020203A2025640A0000006F6666005C
:10EC100044617461206C6F6767657220202020203A
:10EC200020202020202020203A2025730A000000E8
:10EC300053797374656D4D616E616765722E53759E
:10EC40007370656E642020203A20307825780A00A1
:10EC500047534D207369676E616C20737472656EE3
:10EC600067746820202020203A2025640A000000D4
:10EC700047505253202020202020202020202020D8
:10EC800020202020202020203A20617661696C61BC
:10EC9000626C650A000000004C6F63616C20495093
:10ECA0002020202020202020202020202020202064
:10ECB0003A2025730A0000004D6178696D756D4C2E
:10ECC000656E677468546F53656E64283029202020
:10ECD0003A2025640A0000004D6178696D756D4C1D
:10ECE000656E677468546F53656E642831292020FF
:10ECF0003A2025640A000000436F6E6E65637469F4
:10ED00006F6E203020202020202020202020202056
:10ED10003A206E6F7420636F6E6E65637465640A6B
:10ED200000000000436F6E6E656374696F6E203182
:10ED30002020202020202020202020203A206E6F1C
:10ED40007420636F6E6E65637465640A0000000072
:10ED5000475053207369676E616C2020202020206B
:10ED600020202020202020203A20476F6F640A00B6
:10ED700077726974696E6700436F6E6E656374695C
:10ED80006F6E2030202020202020202020202020D6
:10ED90003A20636F6E6E65637465640A000000005C
:10EDA000436F6E6E656374696F6E20312020202082
:10EDB00020202020202020203A20636F6E6E656383
:10EDC0007465640A00000000475053207369676E41
:10EDD000616C2020202020202020202020202020A6
:10EDE0003A206E6F7420676F6F640A005361746518
:10EDF0006C6C697465732020202020202020202046
:10EE0000202020203A2025640A000000202067707E
:10EE10007300000070756C736500000053706565C9
:10EE200064202825732928253032642920202020B9
:10EE30002020203A2025640A00000000B7A020F01E
:10EE400015FB96F84A10BDA020F010FB286A008937
:10EE50001FF050FDC14FDFF808833A4643461FF0CC
:10EE6000D2FC2A6AB2F808C002460B466146BDA031
:10EE700020F0FCFA286A40891FF03CFD3A464346E0
:10EE80001FF0C1FC2A6A578902460B463946C0A0CA
:10EE900020F0ECFA286A828C286A4169C7A020F029
:10EEA000E5FA286AC28C286AC169CDA020F0DEFA92
:10EEB000D4A020F0DBFA286A90F82E00400701D594
:10EEC000D8A100E0D849D9A020F0D0FA96F83600B1
:10EED000C04340071BD096F8360010F0040F0BD04B
:10EEE000286A90F82E00800601D5CEA100E0CE4918
:10EEF000D6A020F0BBFA0AE0286A90F82E0000069F
:10EF000001D5C8A100E0C849D8A020F0AFFA286A0E
:10EF100090F82E00800701D5DCA100E0DDA1DFA084
:10EF200020F0A4FA286A90F82E00000601D5BDA1B1
:10EF300000E0BD49E1A020F099FA286A90F82E007F
:10EF4000000701D5B7A100E0B749E4A020F08EFA90
:10EF5000286A90F82E00400601D5E8A100E0EAA159
:10EF6000EBA020F083FA7069406890F85C000128FB
:10EF70007ED07069406890F85C00022879D0706992
:10EF8000406890F85C00032874D0AFF29071E8A05C
:10EF900020F06CFA706940680078002866D07069CB
:10EFA000406890F85C00012871D0AFF27C72706903
:10EFB000406890F8330002286AD07069406890F881
:10EFC0003300012873D0AFF29471E1A020F04EFA23
:10EFD000E8A020F04BFA7069416804F10800095C70
:10EFE000EB4820F043FA641CE4B2082CF3D352A09F
:10EFF00020F03CFA7069406890F83D0071694968FA
:10F0000091F83C107269526892F83B20CDE90021DA
:10F0100002907069406890F83A307069406890F8E2
:10F0200039207069406890F83810DAA020F01EFA94
:10F030007069406890F843007169496891F842101E
:10F040007269526892F84120CDE9002102907069FE
:10F05000406890F840307069406890F83F207069CF
:10F06000406890F83E10D6A020F000FA706902E0E7
:10F070001AE01DE01FE04068818EDCA020F0F6F968
:10F08000306803887069C28B7069018C01E015E0FB
:10F0900017E0DFA020F0EAF97069816A03B0E8A008
:10F0A000BDE8F04320F0E2B9AFF290516FE70BE01A
:10F0B000AFF288516BE7AFF27C5168E7AFF2745260
:10F0C00075E7AFF2745180E7AFF264517DE7FEB5AA
:10F0D000E44C94F86A000026E34D10281BD094F805
:10F0E0006A00002818D0E1A020F0C0F9206801795A
:10F0F0002068C27820688078CDE90121009004F56D
:10F10000E470416849680B7941684968CA78406889
:10F1100040688178ACE1F7E1F0E100004144432030
:10F1200066726F6D204675656C2073656E736F72C5
:10F13000202020203A2025640A000000455854521F
:10F14000533233325F315F53746174757320202002
:10F15000202020203A2025640A00000056F146E6CF
:10F16000913F683F41444320312D2D2D2D2D2D2DD4
:10F170002D2D2D2D2D2D2D2D2D2D2D2D3A20256490
:10F18000203C2D3E2025322E336620560A000000FA
:10F1900041444320322D2D2D2D2D2D2D2D2D2D2D66
:10F1A0002D2D2D2D2D2D2D2D3A202564203C2D3E4D
:10F1B0002025322E336620560A00000050756C73ED
:10F1C0006531436E742F46312020202020202020DE
:10F1D000202020203A2025642F25640A000000000A
:10F1E00050756C736532436E742F46322020202098
:10F1F00020202020202020203A2025642F25640A6A
:10F200000000000050414E494320202020202020B3
:10F210002020202020202020202020203A204E2F97
:10F22000410A00004F4E000054D6000856652D2DAF
:10F230002D2D2D2D2D2D2D2D2D2D2D2D2D2D2D2DFE
:10F240002D4143433A2025730A00000056652D2DB9
:10F250002D2D2D2D2D2D2D2D2D2D2D2D2D2D41698E
:10F2600072436F6E3A2025730A00000056654245CE
:10F270004E20202020202020202020202020202060
:10F28000202020203A2025730A0000004F50454ED0
:10F2900000000000434C4F534500000056652D2DE3
:10F2A0002D2D2D2D2D2D2D2D2D2D2D2D2D2D2D2D8E
:10F2B000446F6F723A2025730A00000056652D2DA9
:10F2C0002D2D2D2D2D2D2D2D2D2D2D2D2D2D2D2D6E
:10F2D0002D42454E3A2025730A00000056652D2D1B
:10F2E0002D2D2D2D2D2D2D2D2D2D2D2D2D2D2D2D4E
:10F2F0002D454E473A2025730A000000494E5345DC
:10F3000052544544000000004E4F204341524400F7
:10F31000534463617264202020202020202020207C
:10F3200020202020202020203A2025730A000000E1
:10F3300054726970202020202020202020202020AE
:10F3400020202020202020203A2025730A000000C1
:10F350004472697665722020202020202020202001
:10F3600020202020202020203A20257328257329C2
:10F370000A0000004472697665722054616720209B
:10F380002020202020202020202020203A200000A3
:10F390007CDB000853746172742054726970202001
:10F3A0002020202020202020202020203A202563FB
:10F3B00025633A256325633A256325630A00000027
:10F3C00046696E697368205472697020202020207D
:10F3D00020202020202020203A20256325633A2564
:10F3E0006325633A256325630A00000052756E2089
:10F3F00074696D65202020202020202020202020DE
:10F40000202020203A20256420286D696E290A00DA
:10F410005265737465642020202020202020202045
:10F4200020202020202020203A20256420286D69DB
:10F430006E2920282564203F202564290A00000029
:10F4400044697374616E6365202020202020202091
:10F4500020202020202020203A20256420286D29EB
:10F460000A000000F8050020140000200A0A00002D
:10F47000F4A01FF0FBFF6A892989FEA01FF0F6FFA8
:10F4800094F86A000C2842D094F86A00012843D00E
:10F4900094F86A00022842D094F86A00052841D006
:10F4A00094F86A00062840D094F86A0007283FD0F4
:10F4B00094F86A0008283ED094F86A0009283DD0E4
:10F4C00094F86A000B283CD094F86A000D283BD0D1
:10F4D00094F86A000E283AD094F86A000F2839D0C0
:10F4E00094F86A00112838D094F86A000C2801D0EA
:10F4F00084F86A60AFF2C0301FF0B8FF288978B393
:10F500002889401E2881FEBD12F073FBF6E7FFF745
:10F5100000FA08F0C2FEF1E7FEF7A3FCEAE708F004
:10F52000BEFAE7E712F028FCE4E7FEF752FAE1E75B
:10F53000FDF78EFBDEE714F03EFDDBE71AF004FE7C
:10F54000D8E71CF04CF9D5E708F0D3FED2E71AF063
:10F5500098FECFE703F04BFECCE71EF06EFCC9E748
:10F56000FFE784F86A60FEBD10B5CDA01FF07EFFF6
:10F57000D04C94F85000C00702D160681DF0F0FC38
:10F5800094F85000400702D4E0681DF0E9FCBDE8A3
:10F59000104012F06BBA10B5C74C2078002823D069
:10F5A000207801282ED1C348FC3890F84010C907B4
:10F5B0000BD090F84010890707D590F84010C90685
:10F5C00003D590F84000800603D46079411E617134
:10F5D00018D2FFF7C9FF0FF021FFB8A01FF046FFB8
:10F5E0000220207001F0F5FF0D21082004F002FC3C
:10F5F000012020700A2262712178BDE81040B3A07A
:10F600001FF034BF10BD70B50446AA4E0120FC3E69
:10F6100086F876000025022C00D02CB9A548CC3005
:10F62000416ACD62406A8562204603F0DCFD2046D7
:10F6300012F0AFFA20461AF044FC204608F048FBCE
:10F64000AD4B9C4A4FF4A560F0321B68642198478B
:10F6500086F8765070BD2DE9F84300260096A64D39
:10F660004FF4AB79A5A22B68012148469847AFF625
:10F67000406201212B68642098478E4C0127E23CB0
:10F6800084F84F702B689EA208214FF4C8709847E9
:10F690004FF4BD782B689DA2082140469847A07E74
:10F6A00020F03800A07684F83C60A07E20F00700AF
:10F6B000A07684F83B60E07E20F01000E0762B68B6
:10F6C00095A2092140F2D620984754F8121C072031
:10F6D000087354F8121C1C20487354F80E0C07725F
:10F6E0002B6890A20B2140F2DF209847904854F8F5
:10F6F000121C48608F4854F8121C886054F80E0C95
:10F70000C771302000902B686A46012140F28510B5
:10F71000984704F23E20C676AFF6D0322B6801211E
:10F720004FF4C3709847E07E40F00800E0762B6805
:10F7300081A2072140F29B10984754F8121CC82060
:10F74000C881E07F40F00200E077E68554F80E0CB7
:10F7500086702B687AA20D2140F2B920984704F5F3
:10F76000FB7047711438F02101804FF4167141800D
:10F770002B6877A203214FF4A6709847A07F20F052
:10F7800030001030A077A07F40F04000A0772B68B9
:10F7900070A2112140F23B1098472B6860A2012112
:10F7A0004846984784F840601A3C2B686EA2212195
:10F7B00040F2571098472B6854A2082140469847BA
:10F7C000312000902B686A46012140F2F6209847CC
:10F7D0003948C07840B9266584F857602B682246BE
:10F7E00078214FF4916098472B6868A214214FF458
:10F7F000487098472B686AA214214FF43E709847CE
:10F800002B686CA214214FF4437098472B686EA2AA
:10F810000A214FF44D709847206B11211EF005FE10
:10F82000226B2B68112140F694409847226B2B687D
:10F83000112140F6A5409847226B112140F6B640B1
:10F840002B68C7E0446174652F74696D65203A20A8
:10F85000253032642F253032642F32302530326427
:10F86000202D20253032643A253032643A2530325A
:10F87000640A00005669657765725F74696D656F2B
:10F8800075743A2025642C204D6F6E69746F725F19
:10F8900074696D656F75743A2025640A0000000074
:10F8A0002D20434C4F534520414C4C2046494C455C
:10F8B000530A0000F4060020140000205B434F4D63
:10F8C000504C455445445D0A0A0A00005B504552BD
:10F8D000464F524D20534156452043555252454EB6
:10F8E0005420574F524B5328256429202D20253072
:10F8F00032645D0A00000000300100203400000086
:10F90000302C30303230303000000000302C3131BB
:10F91000353230300000000030372C32382C312C9A
:10F9200030000000332E332C342E332C312C300099
:10F93000333353409A998940312C312C3230300086
:10F94000303234302C312C303630302C3000000046
:10F95000312C3100312C3038302C372C30303930CC
:10F960002C3031303000000030303030302C30302E
:10F970003031323335392C3030352C303030303076
:10F980002C303330302C30313000000040303145E5
:10F99000303030362300000000000000000000007E
:10F9A0004030314230313133352300000000000057
:10F9B0000000000040303143303131333623000045
:10F9C00000000000000000003235000000000000D0
:10F9D000000000009847226B2B68112140F6C740B9
:10F9E0009847226B2B68112140F6D8409847226B2C
:10F9F0002B68112140F6E940984702212B68D2A2DA
:10FA00006220984784F85B70AFF6C0622B680121D2
:10FA100040F65C50984794F8390040F0080084F8AC
:10FA20003900606980F82D60BDE8F88310B5FFF7F4
:10FA300012FE08F035FB0020FFF7E5FD12F074FF21
:10FA4000C2A01FF013FDCB4B0A21C7A21B686F2079
:10FA50009847C949002009688847012010BD70B542
:10FA6000C64CE079002804D0012821D002281ED1FC
:10FA700023E0C3A01FF0FAFCCC481FF0F7FC04F011
:10FA8000F1FAE16991F8520078B15231C8A01FF043
:10FA9000EDFCB84BE2690F2152321B68D520984724
:10FAA000E169C7A052311FF0E1FC0120E07178E06C
:10FAB000FFF7BCFF0220E07173E0CA481FF0D6FCDC
:10FAC000FEF7CFF90020E071C74D85F87400286F6C
:10FAD0001EF00BFF6FF0090631461EF0E1FD1EF02F
:10FAE00043FF02460B46C1A01FF0C0FCE86E1EF0AB
:10FAF000FCFE31461EF0D4FD1EF036FF02460B46DA
:10FB0000C5A01FF0B3FCCF481FF0B0FC2079C0099E
:10FB100001D0CDA100E0D6A1E1481FF0A7FCE0692B
:10FB200090F8760048B1DFA1DD481FF09FFCA06986
:10FB300090F8C50018B1E3A102E0E5A1F4E7E9A15E
:10FB4000D7481FF093FCEB4E3268EB4B0F21D520CA
:10FB50001B6898473168E9A01FF088FCE169EEA0B6
:10FB600052311FF083FC30680078302803D93068A8
:10FB70000078392801D3EFA100E0D1A1C8481FF0D7
:10FB800075FC286FE96E884201D2F3A100E0CCA198
:10FB9000C3481FF06BFCF8481FF068FCF7481FF0E3
:10FBA00065FC002070BD2DE9F047A4B08246002618
:10FBB000239618211DA81EF038FC0024642104A8F7
:10FBC0001EF033FC8848783090F824100227012971
:10FBD00001D180F8247018211DA81EF026FCC5480C
:10FBE000406840680188ADF8041081788DF80610EF
:10FBF000C1788DF8071001798DF8081041798DF8DA
:10FC0000091081798DF80A10C1798DF80B10017AED
:10FC10008DF80C10417A8DF80D10817A8DF80E1048
:10FC2000C07A8DF80F0001A81DAB07C803F0CCFA0D
:10FC3000D3A01FF01BFC1DA81EF014FC0246AD480B
:10FC40001DA97A3880461EF014FC48B101241DAA73
:10FC5000CFA140461FF01AFC4146CEA01FF006FC83
:10FC6000A44D4FF00109CC3DBAF1000F02D0012C98
:10FC700069D02FE26E62686A4FF0FF0A30B1A5F8D2
:10FC800050A0696ACAA01FF0F1FB23E21DF057F9EA
:10FC90006862686A30B1A5F850A0696ACBA01FF00D
:10FCA000E5FB17E2D0A01FF0E1FB686880F83A900E
:10FCB000686845620A22414668681DF0DDF968629D
:10FCC000686A08B395F8500040F0010085F85000CC
:10FCD00000F00101CAA01FF0C9FBE86880F83A7083
:10FCE0000A22CEA1E8681DF0C7F96862686AC8B147
:10FCF00095F8500040F0040085F85000C0F38001F2
:10FD0000C9A01FF0B3FBE5E168681DF029F995F87B
:10FD1000500020F0010085F850004146CAA01FF0B5
:10FD2000A5FBDAE7E8681DF01BF995F8500020F014
:10FD3000040085F85000E8681EF077F80146C7A077
:10FD40001FF094FBC6E197E1422B00002D2D3E20D1
:10FD500046696E6973682064656661756C742073AA
:10FD6000657474696E670A005F2A5F2A5F2A5F2ADA
:10FD70005F0A00003001002038010020140000203C
:10FD80005B426174206461752071756120747269D1
:10FD90006E68206B686F692074616F207468696594
:10FDA000742062692E2E2E5D0A0000005C0203089A
:10FDB00047534D20494D45493A2025730A0000001C
:10FDC00054687563206869656E2067616E20696498
:10FDD0002063686F2074686965742062693A202521
:10FDE000730A0000A8020308F80500202D205472B1
:10FDF00061636B65722773206D656D6F7279206327
:10FE00006170616369747920202020203A202538B0
:10FE10002E3366204B420A00202020202020202064
:10FE2000207C5F46726565207370616365202020C9
:10FE300020202020202020203A2025382E33662024
:10FE40004B420A00C00103082D2D3E4461206B681F
:10FE50006F692074616F2034206279746520646951
:10FE600061206368692063686F20466C6173680075
:10FE70002D2D3E2A2A2A43687561206B686F692000
:10FE800074616F2064632034206279746520646932
:10FE900061206368692063686F20466C6173680045
:10FEA00034E100082D2D3E2A2A2A43687561206B13
:10FEB000686F692074616F2064756F632047534DCC
:10FEC000000000002D2D3E475053204F4B000000F6
:10FED0002D2D3E4B686F692074616F2047534D2074
:10FEE0004F4B00002D2D3E2A2A2A475053204661B1
:10FEF000756C7400C0070020340100202D2D3E4495
:10FF00006576696365204944202020202020202038
:10FF10003A2025730A0000002D2D3E47534D204DF9
:10FF20006F64756C6520494D454920203A20257342
:10FF30000A0000002D2D3E2A2A2A4B69656D207487
:10FF40007261206C61692049442063756120746886
:10FF50006965742062690A002D2D3E2A2A2A4861AB
:10FF60007920666F726D6174206C616920626F2008
:10FF70006E686F0A00000000F80203081002030810
:10FF8000434845434B204D454D4F52590A00000010
:10FF9000257300002D204372656174652061206E19
:10FFA00065772066696C65203A2025730A00000099
:10FFB0002D202A43414E275420494E495449414C53
:10FFC000204449534B2C2025640A00002D202A434D
:10FFD000414E2754204D4F554E5420412044495303
:10FFE0004B2C2025640A00002D204D6F756E746522
:10FFF00020612066696C652073797374656D0A00F1
:020000040801F1
:100000002D2043414E2754204F50454E204441540B
:10001000412046494C452C2025640A004241434B6F
:1000200055502E42414B00002D202A43414E27546B
:10003000204F50454E204241434B55502046494C9D
:10004000452C2025640A00002D204461746120663F
:10005000696C653A2025730A000000002D2042617A
:10006000636B75702064617461206F662025642065
:1000700062797465730A000019F067FE11F0F6FCEE
:10008000686880F83A90686845620A224146686864
:100090001CF0F2FF014695F8500061F3000085F86E
:1000A0005000C10744D000F00101AFF2AC001FF0D6
:1000B000DDF919F0ACFE95F8500040070AD4E86865
:1000C0001CF04EFFE8681DF0B0FE0146AFF2740070
:1000D0001FF0CCF9AFF2B873AFF2BC72AFF2C071DF
:1000E0000620009617F0C9FDFE4F386F1EF0FDFB8D
:1000F0006FF0090841461EF0D3FA1EF035FC0246A7
:100100000B46AFF218301FF0B1F9F86E1EF0EDFBA0
:1001100041461EF0C5FA1EF027FC02460B46AFF220
:1001200008301FF0A3F995F85000C00709D04EE041
:1001300068681CF015FF4146AFF2F4001FF096F915
:10014000B7E744B12E636E63AE63EE632E646E64F4
:10015000AE64EE643BE068681DF067FE64282ED351
:100160006868018D491E01EB410189011DF0D1FC38
:1001700023AB642204A968681DF0B5FD23996429A6
:1001800004D06422D8A01FF071F920E0E1A01FF094
:100190006DF96868018DE7A01FF068F91098286371
:1001A000119868631298A8631398E86314982864F8
:1001B000159868641698A8641798E86407E02E6399
:1001C0006E63AE63EE632E646E64AE64EE64012C07
:1001D00002D10320FFF717FAE04BC24A4FF4A560A3
:1001E000FC321B686421984724B0BDE8F08770B5E5
:1001F0000446BC4D95F86B10002901D111F0C3FBEA
:1002000085F86B40012070BDD5494FF4E16048810D
:1002100070472DE9F04FD5B00446002551952C21AB
:1002200046A81EF002F9782128A81EF0FEF8302119
:100230001CA81EF0FAF8642103A81EF0F6F8DFF8F7
:1002400024A3A84E4FF4AB704FF0040B0CB18442C2
:1002500011D1DAF8003046AA012198478DF81951DA
:100260009DF81801303886F85A0096F85A00092887
:1002700001D986F85AB0DFF8F0824FF484770DF593
:100280008C790CB1BC4258D12C2146A81EF0CDF877
:10029000DAF8003046AA2821384698472C2146A88B
:1002A0000EF0B0FC07465190AF482421193054900D
:1002B0001EF0BBF8C8F83D50A8F8415088F84350EC
:1002C000A9483D305390A7B13A4646A954981EF02C
:1002D00093F89DF844014844401C1EF0C3F80246C0
:1002E0009DF8440109EB0001491C53981EF084F865
:1002F00013E09EA00168C8F819104168C8F81D10E5
:100300000089A8F821006D2088F823009AA00068D1
:10031000C8F83D00302088F841000F2298A1549879
:100320001EF0A7F8E8B3052299A153981EF0A1F892
:10033000B8B37821012002F09AFF4FF4D2770CB1C4
:10034000BC425FD12C2146A81EF06FF8DAF80030CD
:1003500046AA2821384698472C2146A80EF052FC80
:100360000746519080482421443052901EF05DF899
:100370004046C8F86850A8F86C5088F86E50DFF80E
:10038000E88108F16808DFB13A4646A952981EF0A4
:1003900033F89DF844014844401C1EF063F80246BF
:1003A00000E008E09DF8440109EB0001491C4046CB
:1003B0001EF022F80CE07821002002F058FFBCE784
:1003C00075A191E88C00C96842648364C7640165C3
:1003D0000F226BA152981EF04CF8002868D005221D
:1003E0006BA140461EF045F8F0B30121782002F0E1
:1003F0003EFF5D48001D90F843102E295DD001207E
:1004000006F025F840F2CD170CB1BC4217D12C21D3
:1004100046A81EF00AF8DAF8003046AA1921384634
:10042000984751481421001D1DF0FFFF46A81EF0FB
:1004300019F802464C4846A9001D1DF0DDFFDAF808
:10044000003046AA012140F28510984746489DF8A1
:10045000181118384FF00108312940D0C576424FA5
:1004600040F23B10A83F00E022E00CB1844237D1BB
:10047000DAF8003046AA112198478DF829519DF8E5
:10048000180196F8381060F3830186F838109DF84B
:100490001E017169303881F82C00786879688068AD
:1004A0000A3089680860706990F82C00B0B1ACE03F
:1004B0000021782002F0DBFE9BE790F84010302905
:1004C0000FD390F8401039290BD890F841103029FB
:1004D00007D390F84110392903D867E091E08DE007
:1004E000BEE087E0F80500202020202020202020EA
:1004F000207C5F476574207265666572656E636512
:10050000206661696C28256420213D202564290A24
:10051000000000002020202020202020207C5F4799
:100520006574207265666572656E6365204F4B0A5F
:10053000000000002020202020202020207C5F526E
:1005400065666572656E636520636F756E742020E5
:10055000202020203A2025640A00000030010020DD
:10056000140000203401002068080020766E6574B5
:100570006770732E636F6D003031303130000000D2
:100580003030302E3030302E3030302E30303000A1
:1005900030303030300000003030302E3030302EEF
:1005A0003030302E303030000000000090F8421023
:1005B00030291FD390F8421039291BD890F84410E5
:1005C000302917D390F84410392913D890F84510E2
:1005D00030290FD390F8451039290BD890F84610E0
:1005E000302907D390F84600392803D8002005F0B9
:1005F0002EFF07E7012005F02AFF03E780F81B80A4
:100600002DE77169032081F82C0009F102001DF02B
:1006100072FFF849087448A81DF06DFF716988845D
:100620000DF225101DF067FF7169C88496F8380037
:1006300010F00C0F0BD1FCF7EFFA7868796880683E
:100640000C30896808607968642089680881786856
:100650008068006805707868716980680068086063
:100660004FF491600CB1844225D1DAF8003028AA09
:1006700078214FF4916098479DF8F800401C483667
:100680003074BDF8E80030803C98B0609DF8F70009
:10069000F073D9483F99409A419BC166026743670E
:1006A00086F82C50483ED54B00F1100278211B688B
:1006B0004FF49160984786F85B800CB1642C06D1AA
:1006C000CD4A01217932DAF800306420984796F853
:1006D000690028B196F86900122801D0FFF794FD4F
:1006E0004FF4A6700CB1844214D1DAF8003046AA57
:1006F000032198478DF81F519DF8180116F8381FEF
:1007000060F3051131709DF81A01317860F386119C
:1007100006F8381996F8380010F0300F19D096F80E
:100720003800C0F38100012801D1FCF775FAFCF70D
:1007300074FA3A6ADAF80030143204214FF4527035
:1007400098473A6ADAF800301C3204214FF45470AA
:10075000984775634FF4C8700CB1844212D1DAF82F
:10076000003046AA062198479DF8180196F83410E3
:1007700060F3C50186F83410396A4FF416500863E7
:1007800086F856504FF4BD700CB184427DD1DAF832
:10079000003046AA082198478DF820519DF818018D
:1007A00096F8341060F3020186F8341009F1020063
:1007B0001DF0A1FE71698968096A08637069806823
:1007C000006A006BB0F5965F2FD070698068006A90
:1007D000006BB0F5165F28D070698068006A006B06
:1007E000B0F5964F21D070698068006A006BA0F563
:1007F0006051683919D070698068006A006BB0F583
:10080000164F12D070698068006A006BB0F5614FB6
:100810000BD070698068006A016B4FF4E13081424F
:1008200003D071698968096A086396F8340000F09A
:10083000070001287ED096F8340000F00700022857
:1008400079D096F8340000F00700032874D096F8A9
:10085000340000F0070004286FD03436707820F0A0
:1008600010007070707820F040007070707820F088
:1008700020007070307820F00700307086F821502A
:10088000307A20F080003072343E96F85500F0B196
:10089000386A006B07F09CFC96F83400564A00F06A
:1008A00007005A32012874D096F8340000F007008F
:1008B00002286FD096F8340000F0070003286AD0B1
:1008C00096F8340000F0070004286ED07563DAF85B
:1008D000003046AA092140F2D62098479DF8180119
:1008E0009DF81921303800EB80006FF02F01DFF800
:1008F00004B101EB400010448BF80C009DF81B0183
:100900009DF81C21303800EB800001EB40001044C2
:100910008BF80D009DF81E0131286AD0F068057231
:100920009BF80C009BF80D1088420AD307208BF827
:100930000C0003E030E039E046E04FE01E208BF889
:100940000D00DAF8003046AA0B2140F2DF2098476C
:1009500046A81FF025FA1EF01AF8CBF8040009F19A
:1009600004001FF01DFA1EF012F8CBF808009DF8E5
:100970002001312872D0F068C571DBE901011EF059
:100980002DF86CD81E48CBF804001E48CBF80800A0
:1009900083E026E03AE063E096F8350040F020007E
:1009A00086F8350086F855806FE760E016F8350F59
:1009B00040F010003070F07940F08000F0710220BB
:1009C00086F82000353E60E796F8350040F040009C
:1009D00086F83500032086F8550056E786F855B0AE
:1009E00053E73B6A04493A33DC31074808F02EF9F3
:1009F0006DE742E0F4070020E80500203001002008
:100A00009A9959409A998940B3830108FA4951A8A3
:100A1000CDE9002102903268A1F20A2000F5F273BC
:100A20000169F64812F0C2FF9DF8441196F83500AE
:100A300061F3041086F8350096F83500C00606D537
:100A400096F83C0040F0800086F83C003FE796F8BE
:100A50003C0020F0800086F83C0038E711E014E00C
:100A60003B6AE7493A33E54807F0AAFE2FE7E24838
:100A700007F079FCE349486229E7F06880F80880CC
:100A80004EE7F06880F8078077E7DF49DBF804007D
:100A9000884202DADD48CBF804004FF4C3700CB191
:100AA00084420CD1DAF8003046AA012198479DF81B
:100AB000180196F8351060F3C30186F8351040F23E
:100AC0009B100CB1844214D1DAF8003046AA0721F9
:100AD00098478DF81F5109F104001DF00CFDABF88B
:100AE0000E009DF8180196F8391060F3410186F860
:100AF0003910706942686421DAF8003008019847BB
:100B000071690220496881F83300DAF800301CAAC4
:100B1000302140F2BE509847BDF87C007169888151
:100B2000BDF87E007169C8812098716908612198BB
:100B300071694861BDF88E007169C8832698716932
:100B40008862B04C2698A1690861BDF8900071696F
:100B50000884BDF88E0031680988884218D9316848
:100B60000988081A00F29F500F2827DD7069406835
:100B70008586306800887169C88396F86900E8B195
:100B8000BDF88E2030680188A1A01EF06FFC15E032
:100B900031680988081A0F2810DD70694068858659
:100BA000306800887169C88396F8690030B1BDF873
:100BB0008E20306801889EA01EF058FC7069229932
:100BC0008161BDF88C108183DAF8003003AA6421BA
:100BD0004FF4A56098478A480E220DF15E018230DD
:100BE0001DF00AFC0D998648303081620E99C16271
:100BF000816AC26A914207D2C16A4FF4401291429F
:100C000002D8816A914201D9C5628562904B7C4AC3
:100C10004FF4A56030321B6864219847DAF8003041
:100C200046AA0D2140F2B920984773499DF81D014D
:100C3000F63900F00100487146A81DF05CFCABF8E5
:100C4000000009F107001DF056FC80B2ABF802006D
:100C5000BBF8001011B9F021ABF8001018B94FF42F
:100C60001670ABF80200DAF8003046AA09214FF4FA
:100C7000997098478DF8215146A81DF03CFCDFF88B
:100C800078B1ABF1EA0BCBF8080009F104001DF0D4
:100C900032FCCBF8040005208BF81F00DBF80800BD
:100CA00010B9DBF8040040B1DBF80800DBF80410F1
:100CB00088420DD3CBF804500EE0F020CBF80400AE
:100CC0001420CBF80800DBF80400ABF8100003E0B8
:100CD000DBF80400ABF810009DF82001302809D0A3
:100CE0001E20ABF8140096F83C0040F0400086F857
:100CF0003C0007E0ABF8145096F83C0020F04000B0
:100D000086F83C003636F07920F00200F071B079B8
:100D100040F02000B071B07940F01000B071B079AF
:100D200020F00800B071F07920F00800F071F0793F
:100D300040F01000F071F07940F00100F071D6F849
:100D40000600CBF800002E4830220F21DC381DF0C1
:100D500065FB2B4A0F21DC3ADAF80030D5209847A2
:100D60003A6ADAF800303832012140F287109847A9
:100D7000386A10F8381F41F010010170386A10F815
:100D8000381F41F0200101700221DAF8003046AA34
:100D900062209847307840F0070006F836099DF841
:100DA0001801412802D0422817D05AE09DF81901B5
:100DB0002D2802D02B2808D053E096F8360020F0DA
:100DC0000700001D86F836004BE096F8360020F04C
:100DD0000700401D86F8360043E09DF819012D28D4
:100DE00002D02B2836D03CE096F8360020F00700E1
:100DF00086F8360035E00000FE080020B3830108C5
:100E0000C406002014000020CDCC4C3F6666663F2F
:100E10002D2D3E31526573657420647269766520AC
:100E200074696D65202825642C202564290A00003A
:100E30002D2D3E325265736574206472697665208B
:100E400074696D65202825642C202564290A00001A
:100E50003001002096F8360020F00700801C86F84C
:100E60003600DAF8003051AA012140F65C5098476C
:100E70009DF8440130280CD096F8390040F0080065
:100E800086F8390096F83900000709D417F061F99F
:100E900009E096F8390020F0080086F83900F1E7FB
:100EA000706980F82D500A21DAF8003046AA6F20C8
:100EB00098470A22FD4946A81DF0DBFA08B984F8D4
:100EC000038096F8690060700020FFF790F955B034
:100ED000BDE8F08F3EB5F64D686841686868006807
:100EE0000EF0B5F9F34814F024FA0020FFF791F959
:100EF000FCF7B7FF01F073FA02F0BAFAFBF726FE2F
:100F00000020FEF750FEA5F5C474207820F0010003
:100F10002070207820F002002070002184F8361024
:100F2000403CE44864220068B0FBF2F0B0F1807FFE
:100F30000BD220F07F424FF0E020521E4261DE4B88
:100F4000F0221A7081610722026194F8400020F0BB
:100F5000200084F8400094F8400020F0100084F84D
:100F600040002164092002F0D0F92068007921684E
:100F7000C97822689278CDE90021029068684068BB
:100F8000037968684068C278686840688178CBA057
:100F90001EF06CFA3EBD86B000270497FBF7A6FD55
:100FA0004FF448414FF0006013F043F9D248FBF78B
:100FB0003BFE14F088F8BE4DD048CC3D6860403010
:100FC000A8604030E8604030286140306861FF2010
:100FD000A5F8500005F5A07AC5F818A095F85000BE
:100FE00040F0010040F0040040F0100040F0080024
:100FF00040F0020085F850004FF00108C5F8248049
:10100000A5F1D804607C20F0800060740020E061CD
:10101000207F40F004002077207F40F020002077E0
:10102000207F40F002002077207F40F001002077F1
:10103000207F40F008002077207F40F010002077CC
:1010400004F15409002089F8240089F8200089F867
:10105000220084F8300084F8528004F5147044F8BB
:10106000040C9448C838E060A54820600838A060A7
:10107000801F6060A34844F80C0C04F28F1044F801
:10108000140C493044F81C0C143044F8180C0C3083
:1010900044F8200C44F8089C002084F851000EF01D
:1010A000CFF90EF0DCF901F036F897494FF4805291
:1010B000A1F5805001F06EF891483E381AF09BFC83
:1010C000DFF8ECB1A4F13400CBF8000058464562DB
:1010D000594690308862896A052008725946896AA3
:1010E0004872594604F52F704861A0F5C070086138
:1010F0009438C861A0F163015046059100F0D5FE17
:101100007F4E423E30625946C86001F0B2F95946FE
:101110004860084680F832804068B0610DF0FEFFFC
:1011200004F50D71087358464068826858460A32C3
:101130004068A1F5DC71006804F0E2F8F0615946FE
:10114000886008464068006844F8240CA1F5E47102
:10115000584616F060FF44F8100C54F8100C2E306E
:1011600004F01FF9A4F1240002F08EF8A4F1240089
:101170000EF0FFF970610EF0F9F9F06216F095FFCC
:101180000EF0F1F91E21706901F0A0F9A4F124011B
:10119000584607F0FDFEA4F124000CF083FD40F258
:1011A000124304F2F4645748CDE9004302905846D4
:1011B00069694068A4F21242006815F031FB514A97
:1011C0005249A4F21240059B16F054F8CAF80040A8
:1011D00000208AF80400A4F2AC61081D16F0FDFEA0
:1011E000A4F5E3601AF080FB584640684168584611
:1011F0004068059A00681BF09BFE04A9A4F5E36013
:1012000019F086FC3063FFF765FE0EF061F9B062FD
:101210005946096A486040F60205A4F5E36494F86B
:10122000740010B1FEF71BFC01E004F0A5FCB078DF
:101230000028F4D094F86900192802D134A01EF0D7
:1012400015F994F8680040F0020084F8680013F083
:101250003AFF206C28B9B089401CB081F089401C4D
:10126000F081B089A84202D8F089A84206D9F28953
:10127000B1892CA01EF0FAF800F0ABF999F80C0037
:10128000012801D1FEF787F999F8240030B9DBF87D
:101290000400C07D012801D189F8248094F86A00F7
:1012A00008B1FDF714FF94F8690059E068FD0008E3
:1012B000C00700202C33002023ED00E00A25303247
:1012C000642F253032642F323025303264202D20B7
:1012D000253032643A253032643A25303264202D8C
:1012E0002D3E204C455420535441525420545241D9
:1012F000434B0A0A000000001006002024310020A1
:1013000056000020C750020822210020D91F0108E2
:101310005461736B20332069732072756E6E696E31
:10132000670A000053595354454D204953205355E3
:101330005350454E4445442C205245534554204972
:101340004E205345434F4E445320284D61696E3A19
:1013500025642C20537469636B3A202564290A00A4
:1013600058B194F86900122807D0708918B17089B3
:10137000401E708101E084F8697094F86B000128C8
:101380003FD0308AB0F5616F02D2401C308212E04B
:10139000206D401C206594F8570058B9206DB0F5B9
:1013A000347F07D984F8578094F8760010B98EA05E
:1013B0001EF05CF8378294F8340000F00700032830
:1013C0000CD094F8340000F0070001280AD094F8FB
:1013D000340000F00700042808D00DE0012007F0D9
:1013E00063FA09E0012007F087FC05E04FF47A700A
:1013F00006F0C0FF07F019F89DF8100008B119F0C9
:10140000EAFDB7700BE782490120087370478049F5
:101410007839002801D0012801D181F85400002832
:1014200003D17C48407881F869007047FEB50179A6
:101430004279A1F1300303EB83036FF02F0505EB35
:1014400043031344DCB28378C678303B03EB830359
:1014500005EB43033344DBB20A25012B29D9012CC8
:1014600023D0641EE2B25B1EDCB2B2FBF5F1303178
:10147000C9B20171B2FBF5F305FB132230324271A0
:10148000B4FBF5F33033DBB28370B4FBF5F605FB48
:1014900016443034C47045780078CDE901050094D5
:1014A0005DA01DF0E3FF0120FEBD1C225B1EDCB22F
:1014B000DBE720D103784478303B03EB8303CF266E
:1014C00006EB43032344DBB2B3FBF5F43034E6B25E
:1014D0000670B3FBF5F405FB14343034447031234B
:1014E00083703225C570CDE900564BA002941DF0E3
:1014F000BDFF0120FEBD0020FEBD70B5454DA879A1
:10150000401CA8710121002010F04DFA0320FEF7C5
:101510004AFB00F018FF3E4C783C94F85A0040B16A
:1015200094F85A00A979884203D8394901200873F0
:1015300070BD434DA86890F8760018B910210920B5
:1015400002F058FC6868406880780F28F0D10020CD
:10155000A4F848003B4B2E4A4FF49160783A1B6840
:1015600078219847BDE8704037A01DF07FBF10B5C7
:101570002748783890F86900002808D037A01DF077
:1015800075FF3AA01DF072FF34A01DF06FFFBDE89B
:1015900010400320FEF707BB70471E494FF4E1607F
:1015A000088170471B4900200881704719490020B5
:1015B0004881704770B50446304DE1B2284615F0B9
:1015C00085F84021284615F0EEF80028F9D020468D
:1015D00070BD2B4801682B4A01F4E06111430160A2
:1015E000BFF3408FFEE700004465766963652068BD
:1015F0006173206265656E206C6F636B656420614A
:1016000075746F6D61746963616C790A0000000024
:10161000700600201400002044656C657465206429
:101620006174612066696C652066726F6D20256348
:1016300025632F256325632F256325630A0000009A
:10164000C007002030010020434C45415220534D3B
:101650005320434F554E5445520A00002F2D2D2D37
:101660002D2D2D2D2D2D2F0A000000002F53594E0A
:10167000432046494C452F0A000000000038014035
:101680000CED00E00400FA0570B501218C0720463E
:1016900014F0E8FE00284ED00121204614F0EEFEA2
:1016A000DC4E96F8680040F0040086F86800DA48DE
:1016B00000250580D94C2068007848B196F835009F
:1016C000000705D50DF00CFF2068D549007808719A
:1016D000D44C2078632809D02078401C2070A18841
:1016E000D148C1B1A188491EA18015E001216170D6
:1016F000CE48006800B10170CD48006800B10170AB
:10170000CC480170257096F869001928E7D1CAA065
:101710001DF0ACFEE3E78584618819B16088401E46
:10172000608000E0C58400F089FB00F039FEBDE870
:10173000704003F039BE70BD70B54FF48075284617
:1017400013F003F9002821D0B74CE169491CE1618D
:10175000BE4E0121304614F07BFEB24970B1C888FC
:10176000E084962048800020C8800021304614F094
:101770004DFE0121304614F072FE02E0C888401C84
:10178000C8802846BDE8704013F0EDB870BD70B554
:10179000AF4C40F225552946204615F00FF8012898
:1017A0000BD12946204615F029F8204614F092FF67
:1017B000BDE87040C0B200F08DBE70BD70B5A54CE4
:1017C00040F225552946204614F0F8FF01280BD198
:1017D0002946204615F012F8204614F07BFFBDE89C
:1017E0007040C0B204F06ABE70BD70B59A4C40F251
:1017F00025552946204614F0E1FF012810D129463D
:10180000204614F0FBFF204614F064FF8149C0B26B
:1018100091F85410914A52F82110BDE870400847E1
:1018200070BD70B58E4C40F225552946204614F007
:10183000C5FF012811D12946204614F0DFFF2046BC
:1018400014F048FF7349C0B291F85610854A52F817
:101850002120BDE870408449104770BD70B5834CAD
:1018600040F225552946204614F0A8FF012811D141
:101870002946204614F0C2FF204614F02BFF65498C
:10188000C0B291F85510774A52F82120BDE8704057
:101890007549104770BDF8B55E4D95F8680040F089
:1018A000010085F8680072480026068006F05DF8A1
:1018B0007048006890F8CA0001280BD06E48006894
:1018C000816891F81C15012904D0C06890F8E300E4
:1018D000012801D10BF0FDFC684C206890F86E00E7
:1018E000012815D101F039F82969487495F83C00B0
:1018F000400606D52068806800680078002110F056
:1019000052F82869407C18B128694674FFF7F5FD44
:101910004448417801B3467095F83500C00606D5B5
:10192000574890F85000000701D412F0F6F919F06A
:101930008DFA19F017FA534890F82410012904D1B0
:10194000022180F82410FFF712FE95F8690019288B
:1019500002D14DA01DF08AFD314819F0FCF816F0B7
:1019600011FF95F86B004D4951F82000804795F81C
:101970003500C0060DD53C48243890F824100E29B7
:1019800007D090F8240020B13749A1F1240011F0CC
:1019900072F94348C07B012807D1002140480CF070
:1019A000ABFDA86908B1A86980473E4C20790028A2
:1019B00017D094F90700009020792268A31D191D03
:1019C00016F05BF96071607900280AD1267140F247
:1019D000124120681CF029FD0020FFF718FD85F852
:1019E0007660F8BD7047FEE7FEE7FEE7FEE770476A
:1019F000704770472CA01DF039FD34A01DF036FD56
:101A000037480168374A01F4E06111430160BFF3D0
:101A1000408FFEE7F8050020220000203C00002057
:101A200060000020900000209C4100204000002029
:101A300044000020160000205461736B203220699E
:101A4000732072756E6E696E670A000000100040A8
:101A50000044004000480040003801408800002059
:101A60000050004068000020FC080020004C0040AE
:101A70002000002034000020300000202C00002036
:101A8000F4060020700600205461736B2031206939
:101A9000732072756E6E696E670A00007C0000200C
:101AA00040330020340800205B4841524420464126
:101AB000554C542048414E444C4552202D20424C18
:101AC00055452053435245454E5D0A002D3E524533
:101AD0005354415254204445564943450A0A0A008A
:101AE0000CED00E00400FA057FB504460D46C7483A
:101AF000012150F8240040F0010013F072FC042092
:101B00008DF80F00C148103830F81400ADF80C0003
:101B1000BF4803A950F8240013F0E9F9012D28D19A
:101B2000BA48403010F81410103810F8140013F0B0
:101B30009AFAB648203030F81400019000208DF851
:101B400008000C208DF809008DF80A5001A812F049
:101B5000ABFEAE48503010F814008DF800000F2096
:101B60008DF801008DF802008DF80350684612F0E0
:101B700030FB7FBD38B50446A4480121783050F8C9
:101B8000240013F02EFCA148603030F81400ADF8AA
:101B9000000010208DF8030003208DF802009C48FF
:101BA0006946203050F8240013F0A1F938BD974958
:101BB000974A6031203231F8101052F8200001614C
:101BC00070479249924A6031203231F8101052F831
:101BD0002000416170478E49203151F82010CA68B9
:101BE0008A4B603333F810004240CA60704787491F
:101BF000874A103931F8101052F8200013F0D2B98A
:101C0000F8B504460D4681488049B830CC3150F8CB
:101C1000240051F82410084340F00100012113F082
:101C2000E0FB7A48A4303CB150F82400012113F0C5
:101C3000E3FB012C05D008E00068012113F0D1FB83
:101C4000F7E70121734813F0E3F918208DF803003A
:101C50006E48E03030F81400ADF8000003208DF835
:101C600002006B486946603050F8240013F03FF9D9
:101C700004208DF803006548EA3030F81400ADF810
:101C8000000063486946743050F8240013F02FF9BF
:101C90005F4E29464C3656F8240014F03BFC56F8AB
:101CA0002400012114F0B1FCF8BD70B50446584D74
:101CB0004C3555F8240014F0E5FB55F82400BDE838
:101CC0007040002114F0A1BC10B5544C524920467C
:101CD00012F05FFD0121204612F085FDBDE81040A5
:101CE00001214F4812F05BBB2DE9F8430646012164
:101CF000084613F06BFB0121082013F072FB012151
:101D0000480213F06EFB0125ADF8005000248DF859
:101D10000340444F6946384613F0E9F80220ADF815
:101D200000008DF803406946384613F0E0F8DFF80C
:101D3000EC80404612F0B6FC394937484C3101601E
:101D4000466084600427C7600461802141614900C6
:101D500081618900C16120210162090241628462BE
:101D60000146404612F015FD0121404612F03BFDB0
:101D700029482C300460057145714FF46021816061
:101D8000C4600774264C0146204612F0A5FA0120D3
:101D900012F004FC052301220821204612F026FB44
:101DA000052302220921204612F020FB05230322ED
:101DB0000F21204612F01AFB04231A461021204658
:101DC00012F014FB0121204612F0BAFA012120463C
:101DD00012F0AAFA204612F0CAFA204612F0CCFA03
:101DE0000028FAD1204612F0CEFA204612F0D0FA9E
:101DF0000028FAD10121204612F0D1FA002E03D199
:101E000009A01DF033FBFEE7BDE8F88328FE0208B9
:101E100098000020300014005033002008000240D9
:101E200000240140000C0140414443206973206EAE
:101E30006F742072656164790A00000072484188FD
:101E40000022002903D04188491E418002E0018818
:101E500001B10280818819B18188491E8180704753
:101E60006A4890F8C8100029F9D090F8CA100129E2
:101E7000F5D000F8C82F0121817070471FB50446C6
:101E80000020FFF712FF00940020ADF80400ADF829
:101E90000600ADF80800ADF80C000C20ADF80A0003
:101EA00069460020FFF7ACFE1FBDF0B585B00646C1
:101EB0000D464FF4E13001900024ADF80840ADF834
:101EC0000A40ADF80C40ADF810400C20ADF80E0003
:101ED00001A90020FFF794FE4D4F012240F2255149
:101EE000384614F09EFB40F22661384614F086FC1A
:101EF0004FF4407012F068F925208DF800008DF83D
:101F000001408DF8024001208DF80300684612F070
:101F100060F93D49CD608E6015B13EA01DF0A6FA76
:101F200005B03A48F0BD384A06219180374A92F808
:101F3000CA1001290CD092F8C810C72902D3002179
:101F400082F8C81092F8C8104B1C82F8C830505460
:101F5000704770B52C4B4FF41B7159801D88194682
:101F600040F2124689680024B5420A682FD21D88C3
:101F700050551D8801226DB9432820D006281ED057
:101F800015281CD041281AD0612818D0042816D052
:101F9000182814D008680578022D02D0007801288E
:101FA00007D11888A0F58065043D03D01888401C2F
:101FB000188070BD188808811C808A7170BD1888CF
:101FC0000D68401C2C54188808818A7170BD1C80D3
:101FD00014700220887170BD2DE9F04105460E464F
:101FE00000240B4F0BE0295D384614F06FFB4021B5
:101FF000384614F0D8FB0028F9D0641CA4B2B442CF
:10200000F1D3BDE8F08100002001002090330020D2
:10201000003801400A0A0A00704710B5FFF7FCFFBC
:102020000520FFF7CEFDBDE81040F5E70520FFF7DE
:10203000BEBD70B50546464C0221204613F0DFFBBD
:102040000028F9D02946204613F08DFB01212046B7
:1020500013F0D5FB0028F9D0204613F086FBC0B260
:1020600070BD30B587B00121080313F0BAF9012122
:10207000052013F0B6F918208DF8070003248DF819
:1020800006402020ADF80400324D01A9284612F088
:102090002EFF8021ADF8041001A9284612F027FF79
:1020A0004021ADF8041001A9284612F020FF1021AC
:1020B000ADF804108DF807108DF8064001A92846E8
:1020C00012F015FFFFF7B2FF0020ADF808004FF443
:1020D0008271ADF80A10ADF80C00ADF80E00ADF845
:1020E00010006915ADF81210ADF81400ADF8160027
:1020F0000720ADF81800164C02A9204613F07EFA0E
:102100000121204613F0FFFA134A144914481AF02B
:1021100037FC07B030BD10B5FFF7A3FF12481149D7
:1021200001601249416012498160124941611249BE
:102130008161124981621249C161124901621249E9
:10214000C160124941621249016110BD704700002F
:102150000030014000080140332001082D20010813
:102160001B200108C92101083001002003220108B9
:1021700037220108B7C1020811C20208D3C70208FA
:10218000C9C2020819C3020829C3020821C20208F1
:10219000E7C3020810B54A4C6060A1606280002865
:1021A0000DD061B16188024600201AF031F86188D3
:1021B000A268BDE810404FF480501AF029B8BDE87D
:1021C000104040A01DF052B970B50C4613460125D1
:1021D0003B4AB0F5805F08D2516881B11570084460
:1021E000224619461CF008F909E0916839B155708A
:1021F0000844A0F58050224619461CF0FDF8012045
:1022000070BD10B50C4613462D49B0F5805F07D25E
:10221000496871B10144224618461CF0EDF808E007
:10222000896831B10144A1F58051224618461CF05D
:10223000E3F8012010BD2DE9F04104460027204DB0
:102240002C4E022C00D0C4B96868B0B12878A0B177
:1022500000201AF039F82F7069886A68002019F098
:10226000AAFF96F8690040B1306803793068C278F7
:102270003068817820A01DF0F9F8022C01D0012CE3
:102280001AD1A868C0B16878B0B14FF48054204624
:102290001AF01AF86F706988AA68204619F08BFF47
:1022A00096F8690040B1306803793068C2783068C8
:1022B00081781BA01DF0DAF80020BDE8F081000055
:1022C0005C010020436865636B206D656D6F7279FA
