:020000040800F2
:10C80000F0470020B9CA000871160108C3CA000821
:10C810007516010877160108791601080000000056
:10C820000000000000000000000000007B1601086E
:10C830007D160108000000007F160108231501087D
:10C84000E3CA0008E3CA0008E3CA0008E3CA000814
:10C85000E3CA0008E3CA0008E3CA0008E3CA000804
:10C86000E3CA0008E3CA0008E3CA0008E3CA0008F4
:10C87000E3CA0008E3CA0008E3CA0008E3CA0008E4
:10C88000E3CA0008E3CA0008E3CA0008E3CA0008D4
:10C89000E3CA0008E3CA0008E3CA0008C513010898
:10C8A000E3CA0008E3CA0008E3CA0008E3CA0008B4
:10C8B00015130108E3CA0008E3CA0008E3CA000828
:10C8C000E3CA0008E3CA0008E3CA0008E3CA000894
:10C8D000E3CA0008771401081B1401084914010871
:10C8E000E3CA0008E3CA0008E3CA0008E3CA000874
:10C8F000E3CA0008E3CA0008E3CA0008E3CA000864
:10C90000E3CA0008E3CA0008E3CA0008E3CA000853
:10C91000AF140108E9140108E3CA0008E3CA0008DB
:10C92000E3CA0008E3CA0008E3CA0008E3CA000833
:10C93000DFF80CD021F0AAFF0048004711090108D8
:10C94000F04700200CB50022019200925248016885
:10C9500041F4803101604FF4A063016801F40031BB
:10C9600000910199491C0191009911B901999942CD
:10C97000F3D10168890302D50121009100E0009202
:10C980000099012930D145490A6842F010020A6035
:10C990000A6822F003020A600A6842F002020A6092
:10C9A0004168416041684160416841F48061416093
:10C9B000416821F47C114160416841F4E811416013
:10C9C000016841F08071016001688901FCD541680E
:10C9D00021F003014160416841F00201416041687A
:10C9E000C1F381010229FAD10CBDABE710B52A4889
:10C9F000016841F0010101604168294A114041602C
:10CA00000168284A11400160016821F48021016019
:10CA1000416821F4FE0141604FF41F018160FFF77E
:10CA2000E4FF21494FF00060086010BD10B51A4ABC
:10CA3000506800F00C011D4B1D4800290ED0042940
:10CA40000ED008290ED003605168194AC1F30311B2
:10CA5000121D515C0268CA40026010BD0360F3E71A
:10CA60000360F1E7516801F47011536803F48033F7
:10CA7000022404EB914133B153689B0307D50D4B5E
:10CA800059430160E0E70B4B59430160DCE7074B7A
:10CA900059430160D8E70000001002400020024026
:10CAA0000000FFF8FFFFF6FE08ED00E000127A003C
:10CAB0000000002000093D000A4880470A4800475E
:10CAC000FEE71EF0040F0CBFEFF30880EFF30980C0
:10CAD00004F0D6BDFEE7FEE7FEE7FEE7FEE7FEE771
:10CAE000FEE7FEE7EDC9000831C9000810B518F0EF
:10CAF000C7F84FF48034204618F0DBF818F007F937
:10CB0000012822D1102017F0B9FC022017F0A6FC52
:10CB1000002018F036F9002018F041F9A01118F0A3
:10CB200037F94FF4E011204618F014F9012018F0FD
:10CB300019F9392018F0D6F80028FAD0022018F098
:10CB400014F918F019F90828FBD110BD7FB501219F
:10CB5000084618F0C3F94FF08045284618F0EEFB60
:10CB600040F2CF71ADF8081040F26711ADF8041033
:10CB70000024ADF80A40ADF8064001A9284618F097
:10CB8000C5FC0121284619F0DCF90122114628468E
:10CB900018F0A7FF0121284618F089FF4FF44070D4
:10CBA00017F084F81C208DF8000005208DF8010096
:10CBB0008DF8024001208DF80300684617F07BF8DD
:10CBC0007FBD3EB50121102018F088F9A84C204601
:10CBD00018F0B4FB44F61F61ADF8041040F60F6185
:10CBE000ADF800100021ADF80610ADF8021069464E
:10CBF000204618F08BFC0021204618F058FF002139
:10CC0000204619F075F90121204619F09AF9012101
:10CC1000204618F04CFF3EBD704710B5FFF7D1FF1E
:10CC2000BDE8104012F0BBB910B5044645F25550AE
:10CC300017F0B2FF062017F0B2FF40F6FF7017F0B2
:10CC4000B1FF17F0B2FF17F0B5FF8A49216010BDA0
:10CC50002DE9FE430024884E96F83900000701D5DF
:10CC600086A300E08BA3706990F82E00012814D0F1
:10CC7000706990F82E00032811D0706990F82E008A
:10CC800002280ED0706990F82E0004280BD086A2DE
:10CC900096F85B0048B186A108E089A2F8E78AA26D
:10CCA000F6E78BA2F4E78CA2F2E791A193A022F021
:10CCB0005DF899A022F05AF8A04BA1A09A1F02F1AA
:10CCC0000E0122F053F85036317AA6A022F04EF829
:10CCD000B17AACA022F04AF86749B2A05C3122F0E8
:10CCE00045F83168B7A022F041F8F079503E0128AC
:10CCF0001BD0BDA1BEA022F039F8C54D286A818D98
:10CD0000B022C4A022F032F896F83500000612D501
:10CD1000286A90F82E00400609D5306FF16E326F08
:10CD2000411AC5A022F022F80CE0CDA1E2E7CEA086
:10CD300022F01CF806E0306FF16E326F411ABEA08F
:10CD400022F014F8A86A006821F08EFAF268127ACC
:10CD5000009202460B46CBA022F008F8B06880682B
:10CD600021F082FA0746B0688846406821F07CFAD4
:10CD7000AA6A527A042A55D0AA6A527A032A53D050
:10CD8000AA6A527A012A51D0AA6A527A022A4FD04C
:10CD9000C5A2CDE90078029202460B46C6A021F05A
:10CDA000E5FFA86A406821F05FFAF268D279009244
:10CDB00002460B46CCA021F0D9FFA86A007A0428CD
:10CDC00038D0A86A007A032836D0A86A007A0128E9
:10CDD00034D0A86A007A022832D0B3A3B068427B6C
:10CDE000B068017BCAA021F0C1FF96F8690020B1AC
:10CDF00096F86910D0A021F0B9FF96F83500000729
:10CE000020D5D4A021F0B2FF3069407910B1D9A06B
:10CE100021F0ACFF30690079002816D0DCA021F0A9
:10CE2000A5FF12E0E1A2B4E7E3A2B2E7E5A2B0E712
:10CE3000EAA2AEE7DDA3D1E7EEA3CFE7E1A3CDE71A
:10CE4000E6A3CBE7F0A021F091FFB6F84820B06848
:10CE5000C189F5A021F08AFFF16CFAA021F086FFCC
:10CE600096F8380010F00C0F01D0FEA00CE218E28A
:10CE700000100040AB4B0208EC05002072756E20DC
:10CE800061732061646D696E6973747261746F722D
:10CE90000000000072756E206173206E6F726D610C
:10CEA0006C20757365720000554E4B4E4F574E0007
:10CEB000323031352076657273696F6E0000000084
:10CEC00052455354494E470053544F505045440027
:10CED00052554E4E494E470052554E4E494E4720F0
:10CEE000494E204F564552535045454400000000DE
:10CEF0004F6C642076657273696F6E005B475053A8
:10CF000020547261636B6572202573202D20257378
:10CF1000202D2025735D0A004D6F64656C20202054
:10CF20002020202020202020202020202020202001
:10CF30003A2054473030370A000000004A000020F1
:10CF40004669726D776172652056657220202020D7
:10CF500020202020202020203A20257325732E25F4
:10CF6000730A000052657374617274206E756D628D
:10CF70006572202020202020202020203A202564B7
:10CF80000A0000004175746F2072657374617274D9
:10CF90002020202020202020202020203A2025642E
:10CFA0000A0000004C6173742072657374617274BE
:10CFB0002020202020202020202020203A202573FF
:10CFC0000A00000052756E6E696E672074696D65A7
:10CFD0002020202020202020202020203A202564EE
:10CFE000202868290A000000756E736166650000DC
:10CFF00044657669636520737461747573202020BD
:10D0000020202020202020203A2025730A00000024
:10D01000B407002054656D70657261747572652087
:10D020002020202020202020202020203A2025649D
:10D030002563430A000000004D656D6D6F7279280D
:10D0400075736167652F4361706163697479292025
:10D050003A2025642F256420284D42290A0000002B
:10D0600073616665000000005344206361726420B0
:10D070006973206E6F7420696E73657274656421C4
:10D080000A0000004261747465727920506F776500
:10D09000722020202020203A2025322E336620289E
:10D0A0005629282564290A00564F4C5F494E5F5285
:10D0B000414E47450000000020204F7065726174AA
:10D0C000696F6E2052616E676520203A2025322EEE
:10D0D000336620746F2025322E3366202856292D82
:10D0E0003E2025730A0000004D61696E20506F7765
:10D0F00065722020202020202020203A2025322E5A
:10D1000031662028562920282564290A00000000BD
:10D1100020204F7065726174696F6E2052616E6776
:10D120006520203A20256420746F2025642028562D
:10D13000292D3E2025730A004D4F4E49544F524928
:10D140004E472020202020202020203A2025640A3D
:10D150000000000042757A7A65722020202020208D
:10D16000202020202020203A20696E207573650A37
:10D1700000000000416C61726D20436F6E74692085
:10D1800044726976696E673A204F6E0A00000000AB
:10D19000416C61726D204F766572207370656564B5
:10D1A0002020203A204F6E0A00000000564F4C5FAE
:10D1B000554E4B4E4F570000564F4C5F444F574E05
:10D1C00000000000564F4C5F4C4546545F4F55548D
:10D1D0005F4F465F52414E4745000000564F4C5F3F
:10D1E00052494748545F4F55545F4F465F52414E36
:10D1F00047450000564F4C5F444953434F4E4E4500
:10D20000435445440000000042757A7A657220203C
:10D2100020202020202020202020203A206E6F7403
:10D22000207573650A000000534D5320636F756EBF
:10D2300074657220202020202020203A2025642F91
:10D2400025640A0042797465436F6E7574657220B7
:10D25000202020202020203A202564202862797474
:10D2600065290A004D6561737572652076656C6F7E
:10D27000636974792020203A204261736564206FCD
:10D280006E204750530A000021F070FD96F83800D8
:10D2900010F0300F0DD096F83800400605D57CA16F
:10D2A00004E07EA021F062FD03E085A187A021F0CB
:10D2B0005DFD96F8340000F0070002280CD096F8C7
:10D2C000340000F0070001280FD096F8340000F079
:10D2D0000700032812D023E083A021F047FD286A2D
:10D2E000016B8BA021F042FD1AE090A021F03EFDE1
:10D2F000286A016B86A021F039FD11E095A021F08C
:10D3000035FD286A016B82A021F030FD9D48818D9A
:10D310009DA021F02BFD96F84A10A2A021F026FD39
:10D32000A748C17A11B1A7A021F020FD286A90F882
:10D330002E00400703D5AAA021F018FD02E0AFA0FF
:10D3400021F014FD286A0068407C18B1B2A021F0D9
:10D350000DFD02E0B7A021F009FD96F83600C043AC
:10D3600040071BD096F8360010F0040F0BD0286A47
:10D3700090F82E00800601D5B5A100E0B5A1B6A0B9
:10D3800021F0F4FC0AE0286A90F82E00000601D58E
:10D39000AFA100E0AFA1B7A021F0E8FCE869418DA2
:10D3A000BBA021F0E3FC286A008920F023FFC04FD6
:10D3B000DFF800833A46434620F0A5FE2A6AB2F819
:10D3C00008C002460B466146BBA021F0CFFC286A8C
:10D3D000408920F00FFF3A46434620F094FE2A6A27
:10D3E000578902460B463946BDA021F0BFFC286A8A
:10D3F000828C286A4169C4A021F0B8FC286AC28CDA
:10D40000286AC169C7A021F0B1FC08F06CFE08B120
:10D41000CBA100E0CCA1CFA021F0A8FC6849D4A00A
:10D42000573921F0A3FC6649D8A0333921F09EFC7E
:10D430006349DDA02C3921F099FC6149E1A008394C
:10D4400021F094FCA968E6A0523121F08FFCA86875
:10D4500090F8630060B1A86890F86310E7A021F02D
:10D4600085FCA86890F86210EBA021F07FFC02E038
:10D47000F0A021F07BFCA86840680078002806D066
:10D48000F6A021F073FCA8684168491CF6E111E29E
:10D4900020436C65616E6572000000004D6561732C
:10D4A0007572652076656C6F636974792020203A07
:10D4B0002050756C7365207369676E616C0A00009B
:10D4C0006F757420436C65616E65720050756C7386
:10D4D0006520636F756E746572207769746828259E
:10D4E0007329200A0000000052533233325F31208A
:10D4F00020202020202020202020203A20496E7348
:10D5000074616C6C6564205A4D63616D0A000000A3
:10D510004261756452617465202020202020202003
:10D520002020203A2025640A0000000052533233A4
:10D53000325F312020202020202020202020203A6F
:10D5400020496E7374616C6C656420463530300A16
:10D550000000000052533233325F3120202020205F
:10D56000202020202020203A20496E7374616C6CAA
:10D570006564206C6576656C2073656E736F720AE6
:10D5800000000000B8060020496E74657276616C78
:10D5900020726571756573742020203A2025640A15
:10D5A0000000000045585452533233325F315F530C
:10D5B000746174757320203A2025640A000000000D
:10D5C000CC080020546F74616C2043616D657261FA
:10D5D000202020202020203A2025640A000000007E
:10D5E00041434320202020202020202020202020D4
:10D5F0002020203A204F6E0A0000000041434320C3
:10D600002020202020202020202020202020203A00
:10D61000204F66660A000000444F4F522020202011
:10D6200020202020202020202020203A204F70651C
:10D630006E0A0000444F4F5220202020202020203E
:10D64000202020202020203A20436C6F73650A00A0
:10D650004F4E00004F4646005665416972436F6E5B
:10D6600020202020202020202020203A2025730A5E
:10D6700000000000566542454E202020202020203A
:10D68000202020202020203A2025730A00000000BE
:10D690004675656C2056616C2020202020202020BB
:10D6A0002020203A202564286D6D290A0000000002
:10D6B00056F146E6913F683F414443203120202007
:10D6C00020202020202020202020203A20256420F7
:10D6D0003C2D3E2025322E336620560A00000000E5
:10D6E00041444320322020202020202020202020C0
:10D6F0002020203A202564203C2D3E2025322E3348
:10D700006620560A0000000050756C736520312FAA
:10D7100046312020202020202020203A2025642F60
:10D7200025640A0050756C736520322F4632202024
:10D73000202020202020203A2025642F25640A0064
:10D74000446F6D61696E00004950206164647265C8
:10D750007373000052656D6F7465206D6F64652092
:10D76000202020202020203A2025730A00000000DD
:10D77000536572766572204950206164647220207E
:10D780002020203A2025730A00000000536572769D
:10D79000657220506F7274206E756D626572203AEA
:10D7A0002025730A0000000055736572204950203F
:10D7B00061646472202020202020203A2025730AF2
:10D7C000000000005573657220506F7274206E75F2
:10D7D0006D6265722020203A2025730A0000000047
:10D7E00047534D20494D454920202020202020200E
:10D7F0002020203A2025730A0000000047534D20C6
:10D800006E6574776F726B206E616D652020203AB3
:10D810002025640A0000000047534D207369676E9D
:10D82000616C20737472656E6774683A2025640AAF
:10D830000000000047534D206E6574776F726B20B7
:10D840006E616D652020203A204E6F7420726567EE
:10D85000697374657265640A000000004750525392
:10D860002020202020202020202020202020203A9E
:10D8700020617661696C61626C650A006AA021F0C2
:10D8800075FAA8684068007E02280BD06DA021F0D0
:10D890006DFAA8684068407E022807D072A021F087
:10D8A00065FA0AE079A021F061FAF2E77FA021F0A1
:10D8B0005DFA02E085A021F059FA6868C07D18B1D0
:10D8C0008BA021F053FA02E090A021F04FFA686893
:10D8D000017D96A021F04AFA70694068007800281E
:10D8E00067D070694068017897A021F03FFA9DA049
:10D8F00021F03CFA7069416804F10800095C9FA0BE
:10D9000021F034FA641CE4B2082CF3D3AFF20440E3
:10D9100021F02CFA706941689AA0243121F026FA8E
:10D920007069406890F83D007169496891F83C1051
:10D930007269526892F83B20CDE90021029070692B
:10D94000406890F83A307069406890F83920706902
:10D95000406890F8381092A021F008FA7069406889
:10D9600090F843007169496891F8421072695268F1
:10D9700092F84120CDE9002102907069406890F84A
:10D9800040307069406890F83F207069406890F8B6
:10D990003E108DA021F0EAF970694068C18E94A014
:10D9A00021F0E4F970694068818E99A021F0DEF9D8
:10D9B00002E09FA021F0DAF97069018CA5A021F0A6
:10D9C000D5F97069816A03B0AAA0BDE8F04321F0DF
:10D9D000CDB910B5AFA021F0C9F93B21B4A021F019
:10D9E000C5F96421BCA021F0C1F93021C4A021F007
:10D9F000BDF95C21CCA021F0B9F92021D5A021F0FE
:10DA0000B5F92421DEA021F0B1F92421E7A021F00D
:10DA1000ADF99321F0A021F0A9F90C21F8A021F093
:10DA2000A5F90C2100E200004C6F63616C204950A5
:10DA300020202020202020202020203A2025730A8A
:10DA400000000000436F6E6E656374696F6E203076
:10DA5000202020202020203A206E6F7420636F6EDB
:10DA60006E65637465640A00436F6E6E6563746906
:10DA70006F6E2031202020202020203A206E6F74ED
:10DA800020636F6E6E65637465640A00436F6E6E2B
:10DA9000656374696F6E2030202020202020203A9A
:10DAA00020636F6E6E65637465640A00436F6E6E0B
:10DAB000656374696F6E2031202020202020203A79
:10DAC00020636F6E6E65637465640A00475052533D
:10DAD0002020202020202020202020202020203A2C
:10DAE000206E6F7420617661696C61626C650A00FA
:10DAF000475053207369676E616C202020202020DE
:10DB00002020203A20476F6F640A000047505320BE
:10DB10007369676E616C2020202020202020203A2D
:10DB2000206E6F7420676F6F640A00005361746524
:10DB30006C6C69746573206E756D62657220203A35
:10DB40002025640A00000000447269766572204F47
:10DB500072646572202020202020203A2025640A4B
:10DB600000000000447269766572205461672020CD
:10DB7000202020202020203A20000000253032786C
:10DB800000000000447269766572204C6963656E1E
:10DB9000736520202020203A2025730A0000000011
:10DBA00053746172742054726970202020202020E8
:10DBB0002020203A20256325633A256325633A25F2
:10DBC0006325630A0000000046696E69736820548B
:10DBD00072697020202020202020203A20256325F3
:10DBE000633A256325633A256325630A0000000034
:10DBF000546F74616C2044726976696E6720746931
:10DC00006D65203A20256420286D696E290A000080
:10DC1000436F6E742044726976696E672074696D13
:10DC20006520203A20256420286D696E290A0000AD
:10DC3000447269766572205461672020202020207C
:10DC40002020203A206E6F7420617661696C6162D9
:10DC50006C650A00526573746564202020202020C2
:10DC6000202020202020203A20256420286D696E65
:10DC7000290A000044697374616E636520202020C6
:10DC8000202020202020203A20256420286D290AE9
:10DC900000000000434845434B2053495A45204F5C
:10DCA0004620444154412054595045530A00000035
:10DCB0002D2053697A65206F662074673130327089
:10DCC00061636B6167655F646566202020202020AA
:10DCD0003A2025640A0000002D2053697A65206FE0
:10DCE00066204472697665725F6465662020202034
:10DCF00020202020202020203A2025640A00000037
:10DD00002D2053697A65206F662056656869636CBB
:10DD1000655F6465662020202020202020202020B0
:10DD20003A2025640A0000002D2053697A65206F8F
:10DD300066204472697665724D73675F646566201C
:10DD400020202020202020203A2025642B31390A51
:10DD5000000000002D2053697A65206F66205374FF
:10DD60006F704D73675F646566202020202020203F
:10DD7000202020203A2025642B31390A00000000A1
:10DD80002D2053697A65206F6620446F6F724D7342
:10DD9000675F64656620202020202020202020202E
:10DDA0003A2025642B31390A000000002D205369E8
:10DDB0007A65206F662053686966744D73675F6487
:10DDC0006566202020202020202020203A20256465
:10DDD0002B31390A000000002D2053697A65206F2D
:10DDE000662053506565644D73675F6465662020E7
:10DDF00020202020202020203A2025640A0A00002C
:10DE00002D2053697A65206F662054696D655F64C3
:10DE10006566202020202020202020202020202077
:10DE20003A2025640A00000066A020F09FFF282108
:10DE30006EA020F09BFF782176A020F097FF642150
:10DE40007EA020F093FF402186A020F08FFF0C21C0
:10DE50008EA020F08BFFBDE81040062195A020F099
:10DE600085BFFEB500249D4D9DA020F07FFFA3A09F
:10DE700020F07CFFA84BA9A09A1F02F10E0120F010
:10DE800075FFD5E90032ACA0A96820F06FFFB24D54
:10DE900095F83900000701D5B04901E0AF491831C4
:10DEA000AFA020F063FFB44E70680068007971681D
:10DEB0000968C978726812689278CDE900210290E9
:10DEC00070684068037970684068C278706840681C
:10DED0008178AAA020F04AFF95F85810B5A020F04C
:10DEE00045FFA6F5B671B9A020F040FF06F19000FD
:10DEF00000F10D01027BBBA020F038FFA6F5B67043
:10DF000000210160416081607168496851F8052F06
:10DF10000260898881807168096851F8052FC0F80E
:10DF2000062089884181B74B8B4A78211B684FF4C2
:10DF300091609847B4A020F019FFB74EB7A03168A0
:10DF400020F014FFBFA0B16820F010FFC7A0F16857
:10DF500020F00CFFCFA0716820F008FFD7A020F0C0
:10DF600005FF95F86900012818D095F86900022886
:10DF700018D095F86900032818D095F8690004288E
:10DF800018D095F869000A2818D095F86900082873
:10DF900015D095F869000B2812D004E2CAA020F031
:10DFA000E5FE00E2D3A020F0E1FEFCE1DDA020F0E0
:10DFB000DDFEF8E1E8A020F0D9FEF4E1E8E1EBE1D4
:10DFC000EEE100002D2053697A65206F66204461E0
:10DFD00074655F646566202020202020202020209A
:10DFE000202020203A2025640A0000002D205369BB
:10DFF0007A65206F6620526571756573744D616E28
:10E000006167656D656E745F646566203A2025649E
:10E010000A0000002D2053697A65206F662053792D
:10E020007374656D4D616E616765725F64656620CE
:10E03000202020203A2025640A0000002D2053696A
:10E040007A65206F662046696C654D616E61676513
:10E050006D656E745F646566202020203A2025641B
:10E060000A0000002D2053697A65206F66205466EF
:10E07000696C655F646566202020202020202020B8
:10E08000202020203A2025640A0000002D2053691A
:10E090007A65206F66205466696C65537973746580
:10E0A0006D5F646566202020202020203A202564B2
:10E0B0000A0000002D2053697A65206F6620737472
:10E0C000617469737469635F7461626C655F6465D0
:10E0D000662020203A2025640A0A0000E8F7FF1F86
:10E0E0000A0D5B54656368476C6F62616C20475032
:10E0F0005320547261636B65725D0A004D6F6465F5
:10E100006C2020202020202020202020203A205475
:10E11000473030370A0000004A0000204669726D1F
:10E12000776172652056657220202020203A2025D4
:10E130007325732E25730A0053657269616C202064
:10E140002020202020202020203A2025782D2578EE
:10E150002D25780A00000000EC0500207CCE000888
:10E160005365637572697479202020202020202057
:10E17000203A2025730A0000B4070020446174652A
:10E180002F74696D6520202020202020203A202532
:10E190003032642F253032642F3230253032642003
:10E1A0002D20253032643A253032643A25303264ED
:10E1B0000A0000004E554D424552204F4620524520
:10E1C00053544152543A2025640A00004C61737440
:10E1D000207265737461727420202020203A2025FB
:10E1E000730A00004361707475726520706F776503
:10E1F00072202020203A2025735B307825785D0A34
:10E20000000000002C010020434845434B20434CB4
:10E210004F434B530A000000203300202D20535958
:10E2200053434C4B5F4672657175656E6379202070
:10E230002020202020202020202020203A2025647B
:10E240000A0000002D2050434C4B315F467265712F
:10E2500075656E637920202020202020202020203A
:10E26000202020203A2025640A0000002D20504361
:10E270004C4B325F4672657175656E637920202064
:10E280002020202020202020202020203A2025642B
:10E290000A0000002D2048434C4B5F4672657175A3
:10E2A000656E63792020202020202020202020203F
:10E2B000202020203A2025640A00000043484543DE
:10E2C0004B204D4F44450A002D204D4F4E49544F91
:10E2D000522020202020202020202020202020200C
:10E2E00020202020202020203A2047534D207461F8
:10E2F000736B0A002D204D4F4E49544F5220202061
:10E30000202020202020202020202020202020200D
:10E31000202020203A205143564E3331207461731F
:10E320006B0A00002D204D4F4E49544F52202020A3
:10E3300020202020202020202020202020202020DD
:10E34000202020203A205061636B6167696E67204E
:10E350007461736B0A0000002D204D4F4E49544FDD
:10E36000522020202020202020202020202020207B
:10E3700020202020202020203A2053746174652022
:10E38000636865636B696E67207461736B0A000074
:10E390006FA020F0EBFC06E07DA020F0E7FC02E09F
:10E3A0008AA020F0E3FCB5F84830A868C28995F847
:10E3B0003900C0F3400191A020F0D8FC95F8380056
:10E3C00010F00C0F0ED098A020F0D0FC95F855005E
:10E3D000002850D0A0A020F0C9FC95F855000228D4
:10E3E00004D03CE0A2A020F0C1FCEFE7AF4EF07AF1
:10E3F000002834D0AEA020F0B9FCF17AAEA020F015
:10E40000B5FCF07A012801D9022100E00121B4A075
:10E4100020F0ACFCB17ABCA020F0A8FCF17EC4A036
:10E4200020F0A4FC717FCCA020F0A0FC96F8241072
:10E43000D3A020F09BFC708C3C21B0FBF1F2B0FB30
:10E44000F1F301FB1207308C0097B0FBF1F201FBF6
:10E450001202B0FBF1F1D4A020F088FC0BE095F89B
:10E460005510DD4803296AD095F85510012967D069
:10E47000DAA020F07BFCDDA020F078FC6869406821
:10E48000007800285DD06869406890F85C00012839
:10E4900058D06869406890F85C00022853D06869D9
:10E4A000406890F85C0003284ED0D4A1D6A020F09C
:10E4B0005DFC6869406890F85C00012845D0DCA2EA
:10E4C0006869406890F8330002283FD06869406866
:10E4D00090F8330001283AD0D6A1DBA020F046FC0A
:10E4E000E4A020F043FC6869416804F10800095C7D
:10E4F000AFF6781020F03AFC641CE4B2082CF2D39A
:10E5000022A020F033FC6869406890F83D106869EB
:10E51000406890F83C006A69526892F83B20CDE967
:10E52000002002916869406890F83A306869406854
:10E5300090F839206869406890F83810ACE1CDE176
:10E54000D1E1E1E1D4E1D5E1D6E1D7E1D8E1D9E10A
:10E550002D204D4F4E49544F522020202020202066
:10E5600020202020202020202020202020202020AB
:10E570003A20416363657373696E67205447313095
:10E58000322773206D656D207461736B0A00000083
:10E590002D204D4F4E49544F522020202020202026
:10E5A000202020202020202020202020202020206B
:10E5B0003A20446F776E6C6F6164206669726D7784
:10E5C000617265207461736B0A0000002D204D4F4D
:10E5D0004E49544F5220202020202020202020204F
:10E5E0002020202020202020202020203A204361AD
:10E5F0006D657261207461736B0A00002D20534DAC
:10E600005328526573706F6E73652F54687265730B
:10E61000686F6C642F757365642920203A20256427
:10E620002F25642F25640A002D204D6561737572B6
:10E63000652076656C6F6369747920202020202026
:10E6400020202020202020203A2042617365642071
:10E650006F6E204750530A00434845434B205253A6
:10E6600032333220534552564943450A00000000D8
:10E670002D204D6561737572652076656C6F6369D9
:10E6800074792020202020202020202020202020DD
:10E690003A204261736564206F6E2070756C7365FB
:10E6A000207369676E616C0A00000000CC080020CE
:10E6B00043414D4552410A002D20546F74616C2036
:10E6C00043616D6572612072756E6E696E672020A0
:10E6D00020202020202020203A2025640A0000004D
:10E6E0002D204B696E64206F6620484C2043616D7D
:10E6F0006572612020202020202020202020202042
:10E700003A20253031640A002020207C5F54696D56
:10E710006520496E74657276616C20286D696E752E
:10E7200074657329202020203A2025640A00000007
:10E730002020207C5F466F72206576656E747320A2
:10E7400020202020202020202020202020202020C9
:10E750003A20307825780A002020207C5F54696DAB
:10E7600065206C6174656E63792020287365636F22
:10E770006E647329202020203A2025640A000000BE
:10E780002020207C5F53746174652043616D657245
:10E79000612044726976657220202020202020208C
:10E7A0003A2025640A0000002020207C5F616C6C08
:10E7B0006F7765642066726F6D20253032643A256C
:10E7C0003032643A303020746F20253032643A257C
:10E7D0003032643A30300A00B80600202D204E6FE7
:10E7E000207365766963650A00000000434845436D
:10E7F0004B204452495645520A000000445F554E92
:10E800004B4E4F57000000002D205472697020209D
:10E8100020202020202020202020202020202020F8
:10E82000202020202020203A2025730A000000000C
:10E830003000000053544154455F445249564552FC
:10E840005F554E4B4E4F57002D20447269766572CE
:10E8500020202020202020202020202020202020B8
:10E86000202020202020203A202573282573290AE3
:10E87000000000002D2044726976657220546167A3
:10E880002020202020202020202020202020202088
:10E890002020203A2000000070A020F067FA68696C
:10E8A000406890F843006969496891F842106A69C4
:10E8B000526892F84120CDE90021029068694068D1
:10E8C00090F840306869406890F83F206869406877
:10E8D00090F83E106EA020F049FAFEBD818D79A01F
:10E8E00020F044FAC7E5818D81A020F03FFAC2E50F
:10E8F0008AA1DBE58DA1D9E590A1D7E593A2DFE55B
:10E9000093A1EAE598A1E8E5BDE8FE409CA020F0CF
:10E910002DBA2DE9FE4300249D4E706990F82E001B
:10E9200001285DD0706990F82E0003285BD07069D3
:10E9300090F82E00022859D0706990F82E00042813
:10E9400057D0944A944DA96894A0523120F00EFA01
:10E950009D4F79899DA020F009FAB989A3A020F0E4
:10E9600005FA96F86900122846D0A8A1A8A020F0C0
:10E97000FDF9316CAEA020F0F9F9A86890F86210AA
:10E98000B3A020F0F3F9BAA020F0F0F9A86841682C
:10E99000C1A0491C20F0EAF9A8684068C18BC6A054
:10E9A00020F0E4F9A8684068018CCBA020F0DEF9E3
:10E9B000A8684068007E022820D0CFA020F0D6F9B9
:10E9C000A8684068407E02281CD0D6A020F0CEF96E
:10E9D0006868C07D002819D0DDA020F0C7F918E0D4
:10E9E0006C4A1832AEE76B4A2032ABE7694A2832EC
:10E9F000A8E7684A3032A5E7DDA1B7E7DEA020F03E
:10EA0000B5F9DDE7E6A020F0B1F9E1E7EEA020F0EE
:10EA1000ADF96868017DF5A020F0A8F96868806804
:10EA2000006888B11AF047FE02786868806800685C
:10EA3000037896F8380010F00C0F01D0F3A100E035
:10EA4000F4A1F6A020F092F996F85500032803D11E
:10EA50004F48CC30418DF1E1F8E100002D20537496
:10EA600061727420547269702020202020202020A0
:10EA700020202020202020202020203A202563252F
:10EA8000633A256325633A256325630A0000000085
:10EA90002D2046696E6973682054726970202020A9
:10EAA0002020202020202020202020202020203A4C
:10EAB00020256325633A256325633A256325630A88
:10EAC000000000002D204675656C204C6576656C55
:10EAD00053656E736F72202020202020202020207C
:10EAE000202020203A2025642873290A00000000F5
:10EAF0002D204675656C20556C747261536F6E697C
:10EB00006353656E736F7220202020202020202008
:10EB10003A2025642873290A00000000445F5354FA
:10EB20004152545F415F545249500000445F50418C
:10EB30005553455F415F545249500000445F464978
:10EB40004E4953485F415F54524950003100000024
:10EB500053544154455F4452495645525F445249CB
:10EB600056494E470000000053544154455F4452FB
:10EB7000495645525F52455354494E4700000000E4
:10EB80002D204E6F206472697665720A00000000C5
:10EB9000EC050020A8CE0008B40700205B544731E4
:10EBA00030322D547261636B65722C20496E737420
:10EBB000616E7420766965776572202D202573203B
:10EBC0002D2025735D0A0000140000205374696332
:10EBD0006B31205461736B2072756E6E696E6720A5
:10EBE000202020203A2025640A0000005374696325
:10EBF0006B32205461736B2072756E6E696E672084
:10EC0000202020203A2025640A0000006F6666005C
:10EC100044617461206C6F6767657220202020203A
:10EC200020202020202020203A2025730A000000E8
:10EC300053797374656D4D616E616765722E53759E
:10EC40007370656E642020203A20307825780A00A1
:10EC500047534D207369676E616C20737472656EE3
:10EC600067746820202020203A2025640A000000D4
:10EC700047505253202020202020202020202020D8
:10EC800020202020202020203A20617661696C61BC
:10EC9000626C650A000000004C6F63616C20495093
:10ECA0002020202020202020202020202020202064
:10ECB0003A2025730A0000004D6178696D756D4C2E
:10ECC000656E677468546F53656E64283029202020
:10ECD0003A2025640A0000004D6178696D756D4C1D
:10ECE000656E677468546F53656E642831292020FF
:10ECF0003A2025640A000000436F6E6E65637469F4
:10ED00006F6E203020202020202020202020202056
:10ED10003A206E6F7420636F6E6E65637465640A6B
:10ED200000000000436F6E6E656374696F6E203182
:10ED30002020202020202020202020203A206E6F1C
:10ED40007420636F6E6E65637465640A0000000072
:10ED5000475053207369676E616C2020202020206B
:10ED600020202020202020203A20476F6F640A00B6
:10ED700077726974696E6700436F6E6E656374695C
:10ED80006F6E2030202020202020202020202020D6
:10ED90003A20636F6E6E65637465640A000000005C
:10EDA000436F6E6E656374696F6E20312020202082
:10EDB00020202020202020203A20636F6E6E656383
:10EDC0007465640A00000000475053207369676E41
:10EDD000616C2020202020202020202020202020A6
:10EDE0003A206E6F7420676F6F640A005361746518
:10EDF0006C6C697465732020202020202020202046
:10EE0000202020203A2025640A000000202067707E
:10EE10007300000070756C736500000053706565C9
:10EE200064202825732928253032642920202020B9
:10EE30002020203A2025640A00000000B7A01FF01F
:10EE400095FF96F84A10BDA01FF090FF286A008930
:10EE50001FF0D0F9C14FDFF808833A4643461FF050
:10EE600052F92A6AB2F808C002460B466146BDA0B4
:10EE70001FF07CFF286A40891FF0BCF93A464346E0
:10EE80001FF041F92A6A578902460B463946C0A04D
:10EE90001FF06CFF286A828C286A4169C7A01FF0A6
:10EEA00065FF286AC28C286AC169CDA01FF05EFF89
:10EEB000D4A01FF05BFF286A90F82E00400701D510
:10EEC000D8A100E0D849D9A01FF050FF96F836002D
:10EED000C04340071BD096F8360010F0040F0BD04B
:10EEE000286A90F82E00800601D5CEA100E0CE4918
:10EEF000D6A01FF03BFF0AE0286A90F82E0000061B
:10EF000001D5C8A100E0C849D8A01FF02FFF286A8A
:10EF100090F82E00C00601D5C2A100E0C249DBA0D6
:10EF20001FF024FF286A90F82E00800701D5DFA18A
:10EF300000E0E0A1E1A01FF019FF286A90F82E0080
:10EF4000000701D5B7A100E0B749E4A01FF00EFF0C
:10EF5000286A90F82E00400601D5E8A100E0EAA159
:10EF6000EBA01FF003FF7069406890F85C00012877
:10EF70007ED07069406890F85C00022879D0706992
:10EF8000406890F85C00032874D0AFF29071E8A05C
:10EF90001FF0ECFE706940680078002866D0706948
:10EFA000406890F85C00012871D0AFF27C72706903
:10EFB000406890F8330002286AD07069406890F881
:10EFC0003300012873D0AFF29471E1A01FF0CEFEA0
:10EFD000E8A01FF0CBFE7069416804F10800095CED
:10EFE000EB481FF0C3FE641CE4B2082CF3D352A01C
:10EFF0001FF0BCFE7069406890F83D007169496877
:10F0000091F83C107269526892F83B20CDE90021DA
:10F0100002907069406890F83A307069406890F8E2
:10F0200039207069406890F83810DAA01FF09EFE11
:10F030007069406890F843007169496891F842101E
:10F040007269526892F84120CDE9002102907069FE
:10F05000406890F840307069406890F83F207069CF
:10F06000406890F83E10D6A01FF080FE706902E064
:10F070001AE01DE01FE04068818EDCA01FF076FEE4
:10F08000306803887069C28B7069018C01E015E0FB
:10F0900017E0DFA01FF06AFE7069816A03B0E8A084
:10F0A000BDE8F0431FF062BEAFF290516FE70BE096
:10F0B000AFF288516BE7AFF27C5168E7AFF2745260
:10F0C00075E7AFF2745180E7AFF264517DE7FEB5AA
:10F0D000E44C94F86A000026E34D10281BD094F805
:10F0E0006A00002818D0E1A01FF040FE20680179D6
:10F0F0002068C27820688078CDE90121009004F56D
:10F10000E470416849680B7941684968CA78406889
:10F1100040688178ACE1F7E1F0E100004144432030
:10F1200066726F6D204675656C2073656E736F72C5
:10F13000202020203A2025640A000000455854521F
:10F14000533233325F315F53746174757320202002
:10F15000202020203A2025640A00000056F146E6CF
:10F16000913F683F4144432031202020202020202F
:10F170002020202020202020202020203A2025642C
:10F18000203C2D3E2025322E336620560A000000FA
:10F1900041444320322020202020202020202020F5
:10F1A00020202020202020203A202564203C2D3EB5
:10F1B0002025322E336620560A00000050756C73ED
:10F1C0006531436E742F46312020202020202020DE
:10F1D000202020203A2025642F25640A000000000A
:10F1E00050756C736532436E742F46322020202098
:10F1F00020202020202020203A2025642F25640A6A
:10F200000000000050414E494320202020202020B3
:10F210002020202020202020202020203A204E2F97
:10F22000410A00004F4E000054D600085665414385
:10F2300043202020202020202020202020202020AB
:10F24000202020203A2025730A00000056654169DD
:10F2500072436F6E2020202020202020202020209C
:10F26000202020203A2025730A00000056654245E0
:10F270004E20202020202020202020202020202060
:10F28000202020203A2025730A00000056654252B3
:10F29000414B4520202020202020202020202020FD
:10F2A000202020203A2025730A0000004F50454EB0
:10F2B00000000000434C4F53450000005665446F6A
:10F2C0006F7220202020202020202020202020209D
:10F2D000202020203A2025730A0000005665454E64
:10F2E00047202020202020202020202020202020F7
:10F2F000202020203A2025730A000000494E534563
:10F3000052544544000000004E4F204341524400F7
:10F31000534463617264202020202020202020207C
:10F3200020202020202020203A2025730A000000E1
:10F3300054726970202020202020202020202020AE
:10F3400020202020202020203A2025730A000000C1
:10F350004472697665722020202020202020202001
:10F3600020202020202020203A20257328257329C2
:10F370000A0000004472697665722054616720209B
:10F380002020202020202020202020203A200000A3
:10F390007CDB000853746172742054726970202001
:10F3A0002020202020202020202020203A202563FB
:10F3B00025633A256325633A256325630A00000027
:10F3C00046696E697368205472697020202020207D
:10F3D00020202020202020203A20256325633A2564
:10F3E0006325633A256325630A00000052756E2089
:10F3F00074696D65202020202020202020202020DE
:10F40000202020203A20256420286D696E290A00DA
:10F410005265737465642020202020202020202045
:10F4200020202020202020203A20256420286D69DB
:10F430006E2920282564203F202564290A00000029
:10F4400044697374616E6365202020202020202091
:10F4500020202020202020203A20256420286D29EB
:10F460000A000000EC050020140000200A0A000039
:10F47000F4A01FF07BFC2A89E988FEA01FF076FC2F
:10F4800094F86A000C2842D094F86A00012843D00E
:10F4900094F86A00022842D094F86A00052841D006
:10F4A00094F86A00062840D094F86A0007283FD0F4
:10F4B00094F86A0008283ED094F86A0009283DD0E4
:10F4C00094F86A000B283CD094F86A000D283BD0D1
:10F4D00094F86A000E283AD094F86A000F2839D0C0
:10F4E00094F86A00112838D094F86A000C2801D0EA
:10F4F00084F86A60AFF2C0301FF038FCE88878B357
:10F50000E888401EE880FEBD12F0E5F8F6E7FFF758
:10F5100000FA08F004FDF1E7FEF7A3FCEAE708F0C3
:10F5200000F9E7E712F09AF9E4E7FEF752FAE1E7AB
:10F53000FDF78EFBDEE714F0B0FADBE71AF0BCFA59
:10F54000D8E71BF006FED5E708F015FDD2E71AF064
:10F5500052FBCFE703F091FCCCE71EF0EEF8C9E7D1
:10F56000FFE784F86A60FEBD10B5CDA01FF0FEFB7A
:10F57000D04C94F85000C00702D160681DF070F9BB
:10F5800094F85000400702D4E0681DF069F9BDE826
:10F59000104011F0DDBF10B5C74C2078002823D0F3
:10F5A000207801282ED1C348FC3890F84010C907B4
:10F5B0000BD090F84010890707D590F84010C90685
:10F5C00003D590F84000800603D42079411E2171B4
:10F5D00018D2FFF7C9FF0FF093FCB8A01FF0C6FBCD
:10F5E0000220207001F0CFFD0D21082004F048FA20
:10F5F000012020700A2222712178BDE81040B3A0BA
:10F600001FF0B4BB10BD70B50446AA4E0120FC3EED
:10F6100086F875000025022C00D02CB9A548CC3006
:10F62000416ACD62406A8562204603F022FC204692
:10F6300012F021F820461AF0FCF8204608F08AF96A
:10F64000AD4B9C4A4FF4A560F0321B68642198478B
:10F6500086F8755070BD2DE9F047A4B082460026AB
:10F66000239618211DA81EF060FB0024642104A825
:10F670001EF05BFB8F48843890F824100227012984
:10F6800001D180F8247018211DA81EF04EFB894876
:10F69000CC30406840680188ADF8041081788DF85E
:10F6A0000610C1788DF8071001798DF8081041799E
:10F6B0008DF8091081798DF80A10C1798DF80B1039
:10F6C000017A8DF80C10417A8DF80D10817A8DF841
:10F6D0000E10C07A8DF80F0001A81DAB07C803F00B
:10F6E000B9FB86A01FF042FB1DA81EF03BFB0246A3
:10F6F00070481DA9523080461EF03BFB48B10124E2
:10F700001DAA82A140461FF041FB414680A01FF088
:10F710002DFB684D4FF00109BAF1000F02D0012C0A
:10F7200069D071E16E62686A4FF0FF0A30B1A5F8E6
:10F7300050A0696A7DA01FF019FB65E11DF07FF8FC
:10F740006862686A30B1A5F850A0696A7EA01FF0AF
:10F750000DFB59E183A01FF009FB686880F83A901F
:10F76000686845620A22414668681DF005F96862CA
:10F77000686A08B395F8500040F0010085F8500021
:10F7800000F001017DA01FF0F1FAE86880F83A70FE
:10F790000A2281A1E8681DF0EFF86862686AC8B1C2
:10F7A00095F8500040F0040085F85000C0F3800147
:10F7B0007CA01FF0DBFA27E168681DF051F895F88E
:10F7C000500020F0010085F8500041467DA01FF058
:10F7D000CDFADAE7E8681DF043F895F8500020F01C
:10F7E000040085F85000E8681DF09FFF01467AA0EC
:10F7F0001FF0BCFA08E119F060FF11F0A9FE68687B
:10F8000080F83A90686845620A22414668681DF0AF
:10F81000B3F8014695F8500061F3000085F85000F8
:10F82000C1070CD000F0010154A01FF09FFA19F09D
:10F83000A6FF95F85000400702D4E868DAE00CE132
:10F84000E2E00000446174652F74696D65203A2020
:10F85000253032642F253032642F32302530326427
:10F86000202D20253032643A253032643A2530325A
:10F87000640A00005669657765725F74696D656F2B
:10F8800075743A2025642C204D6F6E69746F725F19
:10F8900074696D656F75743A2025640A0000000074
:10F8A0002D20434C4F534520414C4C2046494C455C
:10F8B000530A0000E8060020140000205B434F4D6F
:10F8C000504C455445445D0A0A0A00005B504552BD
:10F8D000464F524D20534156452043555252454EB6
:10F8E0005420574F524B5328256429202D20253072
:10F8F00032645D0A000000002C01002043484543AB
:10F900004B204D454D4F52590A0000002573000011
:10F910002D204372656174652061206E65772066D5
:10F92000696C65203A2025730A0000002D202A43C7
:10F93000414E275420494E495449414C2044495393
:10F940004B2C2025640A00002D202A43414E2754C9
:10F95000204D4F554E542041204449534B2C2025D7
:10F96000640A00002D204D6F756E7465206120665D
:10F97000696C652073797374656D0A002D204341AD
:10F980004E2754204F50454E204441544120464973
:10F990004C452C2025640A004241434B55502E42D1
:10F9A000414B00002D202A43414E2754204F504503
:10F9B0004E204241434B55502046494C452C202572
:10F9C000640A00002D20446174612066696C653A08
:10F9D0002025730A000000002D204261636B7570C2
:10F9E0002064617461206F662025642062797465EB
:10F9F000730A00001CF034FFE8681DF096FE014613
:10FA0000AFF22C001FF0B2F9FEA3FEA2FDA106206A
:10FA1000009617F0E8FDFC4F386F1EF0E6FB6FF024
:10FA2000090841461EF0BCFA1EF01EFC02460B46B9
:10FA3000F6A01FF09BF9F86E1EF0D7FB41461EF0B2
:10FA4000AFFA1EF011FC02460B46FBA01FF08EF928
:10FA500095F85000C00709D04EE068681CF000FF20
:10FA60004146AFF2A0001FF081F9E0E644B12E63F9
:10FA70006E63AE63EE632E646E64AE64EE643BE070
:10FA800068681DF052FE64282ED36868018D491EF7
:10FA900001EB410189011DF0BCFC23AB642204A9E8
:10FAA00068681DF0A0FD2399642904D06422EDA0AC
:10FAB0001FF05CF920E0F6A01FF058F96868018D8E
:10FAC000FBA01FF053F910982863119868631298EF
:10FAD000A8631398E86314982864159868641698C6
:10FAE000A8641798E86407E02E636E63AE63EE6364
:10FAF0002E646E64AE64EE64012C02D10320FFF725
:10FB000082FDF54BC04A4FF4A560FC321B686421AE
:10FB1000984724B0BDE8F08770B50446BA4D95F813
:10FB20006B10002901D111F0A0FC85F86B40012079
:10FB300070BDEA494FF4E160088170472DE9F04F4C
:10FB4000D5B00446002552952C2147A81EF0EDF8AB
:10FB5000782129A81EF0E9F830211DA81EF0E5F84B
:10FB6000642104A81EF0E1F8DFF874A3A64E4FF458
:10FB7000AB700CB1844212D1DAF8003047AA0121EF
:10FB800098478DF81D519DF81C01303886F85A00B1
:10FB900096F85A00092802D9042086F85A00DFF89E
:10FBA00044834FF484770DF58E790CB1BC424AD171
:10FBB0002C2147A81EF0B9F8DAF8003047AA28210E
:10FBC000384698472C2147A80EF08EFD8346529068
:10FBD000C4482421193054901EF0A7F8C8F83D50AD
:10FBE000A8F8415088F84350BE4F3D37BBF1000F95
:10FBF00014D05A4647A954981EF07EF89DF8480143
:10FC00004844401C1EF0AEF802469DF8480109EB3E
:10FC10000001491C38461EF06FF804E01022B2A122
:10FC200054981EF069F80F22AFA154981EF0A1F865
:10FC3000F0B30522B1A138461EF09BF8C0B378217D
:10FC4000012003F05AF94FF4D2770CB1BC4263D1D2
:10FC50002C2147A81EF069F8DAF8003047AA2821BD
:10FC6000384698472C2147A80EF03EFD0746529093
:10FC70009C482421443053901EF057F8C8F868502F
:10FC8000A8F86C5088F86E50DFF858B20BF1680B8A
:10FC9000DFB13A4647A953981EF02EF89DF8480167
:10FCA0004844401C1EF05EF802469DF8480100E002
:10FCB00006E009EB0001491C58461EF01DF811E052
:10FCC0007821002003F019F9BDE787A0D0E90132BF
:10FCD0000168C068C8F84410C8F84830C8F84C201B
:10FCE000C8F850000F2280A153981EF042F8002857
:10FCF0006AD0052281A158461EF03BF8F0B30121DD
:10FD0000782003F0FAF87748001D90F843102E2968
:10FD10005FD0012006F0DDF940F2CD170CB1BC42F6
:10FD200017D12C2147A81EF000F8DAF8003047AAB6
:10FD30001921384698476B481421001D1DF0F5FF26
:10FD400047A81EF00FF80246664847A9001D1DF09F
:10FD5000D3FFDAF8003047AA012140F28510984716
:10FD600060489DF81C1118384FF00108312945D022
:10FD7000C5765C4F40F23B10A83F00E024E007F15D
:10FD8000340B0CB184423AD1DAF8003047AA112181
:10FD900098478DF82D519DF81C0196F8381060F3A6
:10FDA000830186F838109DF822017169303881F896
:10FDB0002C007868796880680A3089680860706902
:10FDC00090F82C00C8B1C9E00021782003F095F824
:10FDD00099E790F84010302912D390F84010392953
:10FDE0000ED890F8411030290AD390F841103929E3
:10FDF00006D890F84210302984E0ABE0A7E0D8E0C4
:10FE0000A1E0000030000000EC0500202D2054721D
:10FE100061636B65722773206D656D6F7279206306
:10FE20006170616369747920202020203A20253890
:10FE30002E3366204B420A00202020202020202044
:10FE4000207C5F46726565207370616365202020A9
:10FE500020202020202020203A2025382E33662004
:10FE60004B420A002020202020202020207C5F47B9
:10FE70006574207265666572656E6365206661698A
:10FE80006C28256420213D202564290A00000000FB
:10FE90002020202020202020207C5F4765742072B5
:10FEA00065666572656E6365204F4B0A0000000051
:10FEB0002020202020202020207C5F526566657253
:10FEC000656E636520636F756E742020202020208E
:10FED0003A2025640A0000002C01002014000020B4
:10FEE000300100205C0800203030302E3030302EC1
:10FEF0003030302E303030000000000030303030F4
:10FF0000300000001FD390F8421039291BD890F818
:10FF10004410302917D390F84410392913D890F899
:10FF2000451030290FD390F8451039290BD890F897
:10FF30004610302907D390F84600392803D800200E
:10FF400006F0C7F8E8E6012006F0C3F8E4E680F81A
:10FF50001B800EE77169032081F82C0009F1020073
:10FF60001DF049FF8BF8100049A81DF044FF71698E
:10FF700088840DF229101DF03EFF7169C88496F83F
:10FF8000380010F00C0F0BD1FCF746FE786879684A
:10FF900080680C3089680860796864208968088105
:10FFA00078688068006805707868716980680068A2
:10FFB00008604FF491600CB1844226D1DAF8003029
:10FFC00029AA78214FF4916098479DF8FE004836A1
:10FFD000B0749DF8FC00401C3074BDF8EC0030801B
:10FFE0003D98B0609DF8FB00F073483EFE48409994
:10FFF000419A429BC16602674367FC4B00F11002C5
:020000040801F1
:1000000078211B684FF49160984786F85B800CB1AB
:10001000642C06D1F44A01217932DAF800306420E8
:10002000984796F8690028B196F86900122801D01F
:10003000FFF77FFD4FF4A6700CB1844214D1DAF8BB
:10004000003047AA032198478DF823519DF81C01E1
:1000500016F8381F60F3051131709DF81E113078C5
:1000600061F3861006F8380996F8380010F0300F62
:1000700019D096F83800C0F38100012801D1FCF7AF
:10008000CBFDFCF7CAFD3A6ADAF8003014320421DD
:100090004FF4527098473A6ADAF800301C32042163
:1000A0004FF45470984775634FF4C8700CB1844294
:1000B00012D1DAF8003047AA062198479DF81C01B2
:1000C00096F8341060F3C50186F83410396A4FF49D
:1000D0001650086386F856504FF4BD700CB1844238
:1000E00067D1DAF8003047AA082198478DF82451E3
:1000F0009DF81C0196F8341060F3020186F8341064
:1001000009F102001DF077FE71698968096A0863C8
:1001100070698068006A006B4FF4E131884218D042
:1001200070698068006A006BB0F5165F11D0706965
:100130008068006A006BB0F5965F0AD070698068CD
:10014000006A006BB0F5AF5F03D070698068006A29
:10015000016396F8340000F0070001287DD096F87E
:10016000340000F00700022878D096F8340000F040
:100170000700032873D096F8340000F00700042825
:100180006ED03436707820F010007070707820F0E7
:1001900040007070707820F020007070307820F08F
:1001A0000700307086F82150307A20F080003072DD
:1001B000343E96F85500F0B1386A006B07F04AFEFD
:1001C00096F83400884A00F007005A32012872D0AD
:1001D00096F8340000F0070002286DD096F834003D
:1001E00000F00700032868D096F8340000F00700FC
:1001F00004287AD07563DAF8003047AA092140F262
:10020000D62098479DF81C019DF81D21303800EB41
:1002100080006FF02F0101EB400010448BF80C00C0
:100220009DF81F019DF82021303800EB800001EB84
:10023000400010448BF80D009DF8220131287CD03D
:10024000F06805729BF80C009BF80D1088420AD3E9
:1002500007208BF80C001E2003E02FE037E045E07C
:100260004EE08BF80D00DAF8003047AA0B2140F27F
:10027000DF20984747A81FF013FA1EF008F8CBF8C4
:10028000040009F104001FF00BFA1EF000F8CBF88F
:1002900008009DF8240131287CD0F068C571DBE9A5
:1002A00001011EF01BF879D85148CBF804005148E1
:1002B000CBF808007AE027E02EE057E096F835000A
:1002C00040F0200086F8350086F8558071E716F872
:1002D000350F40F010003070F07940F08000F07180
:1002E000022086F82000353E63E749E096F83500A5
:1002F00040F0400086F83500032086F8550058E7A6
:10030000042086F8550054E73B6A37493A33DC311C
:10031000394808F0DDFA6EE7384952A8CDE90021E6
:1003200002903268A1F20A2000F5F27301693248A6
:1003300013F0AEF89DF8481100E027E096F835007C
:1003400061F3041086F8350096F83500C00606D52E
:1003500096F83C0040F0800086F83C004BE796F8A9
:100360003C0020F0800086F83C0044E73B6A1E49D0
:100370003A33DC31204808F065F83CE70AE00DE04C
:100380001E4807F032FE1E49086234E7F06880F824
:10039000088057E7F06880F8078080E71949DBF8A4
:1003A0000400884202DA1848CBF804004FF4C37006
:1003B0000CB184420CD1DAF8003047AA01219847E9
:1003C0009DF81C0196F8351060F3C30186F83510CE
:1003D00040F29B100CB1844228D1DAF8003047AAD1
:1003E0000721984712E00000DC0500202C010020C6
:1003F0009A9959409A99894037800108F20800205B
:1004000014000020CDCC4C3F6666663F8DF823512A
:1004100009F104001DF0EFFCABF80E009DF81C0183
:1004200096F8391060F3410186F839107069426816
:100430006421DAF8003008019847716902204968A0
:1004400081F83300DAF800301DAA302140F2BE50A6
:100450009847BDF8800071698881BDF88200716994
:10046000C881219871690861229871694861BDF855
:1004700092007169C883279871698862FC4C27983B
:1004800061690861BDF8940071690884BDF8920043
:1004900031680988884218D931680988081A00F239
:1004A0009F500F2827DD7069406885863068008876
:1004B0007169C88396F86900E8B1BDF89220306888
:1004C0000188ECA01EF052FC15E031680988081A7A
:1004D0000F2810DD70694068858630680088716972
:1004E000C88396F8690030B1BDF892203068018861
:1004F000E8A01EF03BFC706923998161BDF8901063
:100500008183DAF8003004AA64214FF4A56098478B
:100510000E220DF16201E7481DF0EEFB0E99E54851
:10052000523881620F99C162816AC26A914207D2D0
:10053000C16A4FF44012914202D8816A914201D9B6
:10054000C5628562DC4BDB4A4FF4A560523A1B68FA
:1005500064219847DAF8003047AA0D2140F2B9200B
:100560009847D4499DF82101C23100F0010048713B
:1005700047A81DF040FCABF8000009F107001DF092
:100580003AFC80B2ABF80200BBF8001011B9F021C0
:10059000ABF8001018B94FF41670ABF80200DAF897
:1005A000003047AA09214FF4997098478DF82551DA
:1005B00047A81DF020FCDFF8FCB20BF1CE0BCBF806
:1005C000080009F104001DF016FCCBF8040005201A
:1005D0008BF81F00DBF8080010B9DBF8040040B10D
:1005E000DBF80800DBF8041088420DD3CBF8045088
:1005F0000EE0F020CBF804001420CBF80800DBF864
:100600000400ABF8100003E0DBF80400ABF81000C6
:100610009DF82401302809D01E20ABF8140096F86C
:100620003C0040F0400086F83C0007E0ABF8145076
:1006300096F83C0020F0400086F83C003636F07911
:1006400020F00200F071B07940F02000B071B07974
:1006500040F01000B071B07920F00800B071F0796E
:1006600020F00800F071F07940F01000F071F0799E
:1006700040F00100F071D6F80600CBF800003022FF
:100680000F218E481DF04AFB0F21DAF800308B4A0B
:10069000D52098473A6ADAF800303832012140F222
:1006A00087109847386A10F8381F41F01001017020
:1006B000386A10F8381F41F0200101700221DAF881
:1006C000003047AA62209847307840F0070006F8CB
:1006D00036099DF81C01412802D0422817D02BE092
:1006E0009DF81D012D2802D02B2808D024E096F873
:1006F000360020F00700001D86F836001CE096F852
:10070000360020F00700401D86F8360014E09DF802
:100710001D012D2802D02B2807D00DE096F83600B9
:1007200020F0070086F8360006E096F8360020F044
:100730000700801C86F83600DAF8003052AA012142
:1007400040F65C5098479DF8480130280CD096F848
:10075000390040F0080086F8390096F839000007A3
:1007600009D417F0ACF909E096F8390020F0080038
:1007700086F83900F1E7706980F82D500A21DAF81F
:10078000003047AA6F2098470A224DA147A81DF0C4
:10079000F0FA08B984F8038096F8690060700020C8
:1007A000FFF7BAF955B0BDE8F08F3EB5414D7A3547
:1007B00068684168686800680EF0BBFA434814F046
:1007C0002AFB0020FFF7BAF9FDF74BFB01F04DFCC7
:1007D00002F094FCFCF7BAF90020FEF73CFFA5F507
:1007E000C474207820F001002070207820F00200EE
:1007F0002070002184F83510403C344864220068A1
:10080000B0FBF2F0B0F1807F0BD220F07F424FF0CE
:10081000E020521E42612E4BF0221A7081610722A5
:10082000026194F8400020F0200084F8400094F821
:10083000400020F0100084F840002164092002F0FC
:10084000AAFB206800792168C97822689278CDE9EE
:100850000021029068684068037968684068C2783F
:100860006868406881781BA01EF080FA3EBD0000D9
:10087000140000202D2D3E31526573657420647282
:100880006976652074696D65202825642C202564AF
:10089000290A00002D2D3E32526573657420647262
:1008A0006976652074696D65202825642C2025648F
:1008B000290A00003A0700202C010020DC05002056
:1008C0005F2A5F2A5F2A5F2A5F0A00002033002028
:1008D00023ED00E00A253032642F253032642F32B8
:1008E0003025303264202D20253032643A253032D4
:1008F000643A25303264202D2D3E204C455420533F
:100900005441525420545241434B0A0A0000000003
:1009100086B000270497FCF7E9F84FF448414FF000
:10092000006013F0F8F9FE48FCF77EF914F03DF989
:10093000FB4DFC48E43568604030A8604030E8601A
:100940004030286140306861FF20A5F8500005F56F
:10095000A07AC5F818A095F8500040F0010040F0CA
:10096000040040F0100040F0080040F0020085F85C
:1009700050004FF00108C5F82480A5F1D804607C30
:1009800020F0800060740020E061207F40F00400CF
:100990002077207F40F020002077207F40F0020069
:1009A0002077207F40F001002077207F40F0080072
:1009B0002077207F40F01000207704F154090020B8
:1009C00089F8240089F8200089F8220084F8300092
:1009D00084F8518004F5147044F8040CD248E060A7
:1009E000D24820600838A060801F6060D04844F87A
:1009F0000C0C04F28F1044F8140C493044F81C0C11
:100A0000143044F8180C0C3044F8200C44F8089CBE
:100A1000002084F850000EF085FA0EF092FA01F0F2
:100A2000C0F9C4494FF48052A1F5805001F0F8F9A3
:100A3000A4F1340000F5EC7BCBF800005846456289
:100A4000594690308862896A052008725946896A39
:100A50004872594604F52F704861A0F5C0700861CE
:100A60009438C861A0F163015046059101F063F824
:100A7000AE4E3E3EF0615946C86001F040FB59461B
:100A80004860084680F83280406870610EF0B8F81F
:100A900004F50D71087358464068826858460A325A
:100AA0004068A1F5DC71006804F06CFAB061594649
:100AB000886008464068006844F8240CA1F5E47199
:100AC000584616F05EFF44F8100C54F8100C243C05
:100AD0002E3004F0A8FA204602F01CFA20460EF050
:100AE000BAFA30610EF0B4FAB06216F094FF0EF06C
:100AF000ACFA1E21306901F02FFB2146584608F060
:100B000089F820460CF040FE40F2124304F5E36100
:100B10008748CDE90013029058466969406804F29D
:100B20000632006815F0EEFB814A834904F2063074
:100B3000059B16F055F804F5E360CAF800000020A4
:100B40008AF8040004F16C01081D16F0FCFE204632
:100B50001AF084FB58464068416858464068059A38
:100B600000681BF065FE04A9204619F08BFCF062BA
:100B7000FFF71BFE0EF01EFA70625946096A4860C4
:100B80006A4D40F602063E3D04F038FEA878002883
:100B9000FAD094F86900192802D168A01EF0E6F88E
:100BA00094F8680040F0020084F8680013F0FDFF3C
:100BB000206C28B96889401C6881A889401CA881DC
:100BC0006889B04202D8A889B04206D9AA89698941
:100BD0005FA01EF0CBF800F0D6FA99F80C000128BF
:100BE00001D1FEF7D8FC99F8240030B9DBF80400F5
:100BF000C07D012801D189F8248094F86A0008B1E9
:100C0000FEF765FA94F8690058B194F86900122863
:100C100007D0288918B12889401E288101E084F86E
:100C2000697094F86B0001283FD0E889B0F5616FD6
:100C300002D2401CE88112E0206D401C206594F82F
:100C4000570058B9206DB0F5347F07D984F8578024
:100C500094F8750010B94DA01EF088F8EF8194F853
:100C6000340000F0070003280CD094F8340000F0A2
:100C7000070001280AD094F8340000F00700042887
:100C800008D00DE0012007F051FC09E0012007F039
:100C900075FE05E04FF47A7007F0AEF907F007FA39
:100CA0009DF8100008B119F050FEAF706CE71C49B8
:100CB000012060310873704719491839002801D0A4
:100CC000012801D181F85400002804D117483E388A
:100CD000407881F869007047FEB501794279A1F149
:100CE000300303EB83036FF02F0505EB430313443D
:100CF000DCB28378C678303B03EB830305EB430318
:100D00003344DBB20A25012B76D9012C70D0641E46
:100D1000E2B25B1EDCB2B2FBF5F13031C9B249E0A0
:100D20000406002018310020583200205200002014
:100D3000AB4B020816210020651C01085461736B3F
:100D400020332069732072756E6E696E670A000029
:100D500053595354454D2049532053555350454EF4
:100D60004445442C20524553455420494E20534578
:100D7000434F4E445320284D61696E3A25642C2020
:100D8000537469636B3A202564290A0044657669C7
:100D9000636520686173206265656E206C6F636BAC
:100DA0006564206175746F6D61746963616C790A43
:100DB000000000000171B2FBF5F305FB1322303295
:100DC0004271B4FBF5F33033DBB28370B4FBF5F65C
:100DD00005FB16443034C47045780078CDE9010530
:100DE0000094EEA01DF0C2FF0120FEBD04E0FFE76D
:100DF0001C225B1EDCB28EE720D103784478303BA6
:100E000003EB8303CF2606EB43032344DBB2B3FBA0
:100E1000F5F43034E6B20670B3FBF5F405FB143498
:100E200030344470312383703225C570CDE90056CB
:100E3000DAA002941DF09AFF0120D6E70020D4E743
:100E400070B5E04D6879401C68710121002010F0F8
:100E50001CFB0320FEF7FFFB01F0BBF8DA4C94F813
:100E60005A0048B194F85A006979884204D804F1CC
:100E700078010120087370BDD44DA86890F8760001
:100E800018B91021092002F0FBFD686840688078DD
:100E90000F28F0D10020A4F84800CD4BCA4A782191
:100EA0001B684FF491609847BDE87040C9A01DF0E1
:100EB0005DBF10B5C44890F86900002808D0CAA0EA
:100EC0001DF054FFCCA01DF051FFC7A01DF04EFF38
:100ED000BDE810400320FEF7BEBB2DE9F843002615
:100EE0000096BB4D4FF4AB79C7A22B680121484651
:100EF000984701212B68C5A264209847B24C01276E
:100F00001A3484F84F702B68C1A208214FF4C870BE
:100F100098474FF4BD782B68C0A2082140469847F7
:100F2000A07E20F03800A07684F83C60A07E20F0FF
:100F30000700A07684F83B60E07E20F01000E076A9
:100F40002B68B9A2092140F2D620984754F8121C08
:100F50000720087354F8121C1C20487354F80E0C18
:100F600007722B68B3A20B2140F2DF209847B448E8
:100F700054F8121C4860B34854F8121C886054F8A6
:100F80000E0CC771302000902B686A46012140F298
:100F90008510984704F23E20C6762B689BA201215B
:100FA0004FF4C3709847E07E40F00800E0762B686D
:100FB000A5A2072140F29B10984754F8121CC820A4
:100FC000C881E07F40F00200E077E68554F80E0C1F
:100FD00086702B689EA20D2140F2B920984704F537
:100FE000FB7047711438F02101804FF41671418075
:100FF0002B689BA203214FF4A6709847A07F20F096
:1010000030001030A077A07F40F04000A0772B6820
:1010100094A2112140F23B1098472B6884A2012131
:101020004846984784F840601A3C2B6892A22121D8
:1010300040F2571098472B6878A2082140469847FD
:10104000312000902B686A46012140F2F620984733
:101050005C48C07840B9266584F857602B68224602
:1010600078214FF4916098472B688CA214214FF49B
:10107000487098472B688EA214214FF43E70984711
:101080002B6890A214214FF4437098472B6892A2CA
:101090000A214FF44D709847206B11211CF045FE3A
:1010A000226B2B68112140F694409847226B2B68E5
:1010B000112140F6A5409847226B2B68112140F67C
:1010C000B6409847226B2B68112140F6C7409847DD
:1010D000226B2B68112140F6D8409847226B2B6871
:1010E000112140F6E940984702212B687DA2622039
:1010F000984784F85B702B6844A2012140F65C504D
:10110000984794F8390040F0080084F83900606985
:1011100080F82D60BDE8F88310B5FFF7DEFE06F01D
:1011200001FE0020FEF76FFA11F070F96EA01DF0BD
:101130001DFEAFF67402264B0A216F201B689847EC
:101140007049002009688847012010BD70471D497B
:101150004FF4E160C88070471A490020C88070478A
:10116000184900200881704770B50446664DE1B209
:10117000284615F01DF84021284615F086F800286D
:10118000F9D0204670BD61480168614A01F4E06110
:1011900011430160BFF3408FFEE7000044656C65BA
:1011A000746520646174612066696C652066726F85
:1011B0006D20256325632F256325632F2563256314
:1011C0000A00000014000020EC050020B4070020F5
:1011D0002C010020434C45415220534D5320434F96
:1011E000554E5445520A00002F2D2D2D2D2D2D2DFD
:1011F0002D2D2F0A000000002F53594E4320464941
:101200004C452F0A000000003400000031000000AF
:10121000302C30303230303000000000302C313192
:10122000353230300000000030372C32382C312C71
:1012300030000000332E332C342E332C312C300070
:10124000333353409A998940312C312C323030005D
:10125000303234302C312C303630302C300000001D
:10126000312C3100312C3038302C372C30303930A3
:101270002C3031303000000030303030302C303005
:101280003031323335392C3030352C30303030304D
:101290002C303330302C30313000000040303145BC
:1012A0003030303623000000000000000000000055
:1012B000403031423031313335230000000000002E
:1012C000000000004030314330313133362300001C
:1012D00000000000000000003235000000000000A7
:1012E00000000000422B00002D2D3E2046696E6953
:1012F00073682064656661756C74207365747469C5
:101300006E670A0034010020003801400CED00E057
:101310000400FA0570B501218C07204614F014FE74
:1013200000284ED00121204614F01AFEDC4E96F81B
:10133000680040F0040086F86800DA48002505805F
:10134000D94C2068007848B196F83500000705D5DB
:101350000DF038FE2068D54900780871D44C20780B
:10136000632809D02078401C2070A188D148C1B1E1
:10137000A188491EA18015E001216170CE48006856
:1013800000B10170CD48006800B10170CC48017017
:10139000257096F869001928E7D1CAA01DF0E6FC6F
:1013A000E3E78584618819B16088401E608000E0B1
:1013B000C58400F089FB00F039FEBDE8704003F001
:1013C00035BE70BD70B54FF48075284613F02FF808
:1013D000002821D0B74CE169491CE161BE4E0121D2
:1013E000304614F0A7FDB24970B1C888E084962059
:1013F00048800020C8800021304614F079FD01218A
:10140000304614F09EFD02E0C888401CC880284683
:10141000BDE8704013F019B870BD70B5AF4C40F224
:1014200025552946204614F03BFF01280BD12946BB
:10143000204614F055FF204614F0BEFEBDE8704073
:10144000C0B200F08DBE70BD70B5A54C40F2255500
:101450002946204614F024FF01280BD129462046B6
:1014600014F03EFF204614F0A7FEBDE87040C0B265
:1014700004F066BE70BD70B59A4C40F22555294601
:10148000204614F00DFF012810D12946204614F003
:1014900027FF204614F090FE8149C0B291F8541005
:1014A000914A52F82110BDE87040084770BD70B5F0
:1014B0008E4C40F225552946204614F0F1FE0128B5
:1014C00011D12946204614F00BFF204614F074FE7B
:1014D0007349C0B291F85610854A52F82120BDE8F0
:1014E00070408449104770BD70B5834C40F225555B
:1014F0002946204614F0D4FE012811D12946204661
:1015000014F0EEFE204614F057FE6549C0B291F883
:101510005510774A52F82120BDE8704075491047B0
:1015200070BDF8B55E4D95F8680040F0010085F893
:10153000680072480026068006F059F87048006876
:1015400090F8CA0001280BD06E480068816891F8B5
:101550001C15012904D0C06890F8E300012801D1CE
:101560000BF040FC684C206890F86E00012815D103
:1015700001F039F82969487495F83C00400606D511
:10158000206880680068007800210FF07EFF2869DD
:10159000407C18B128694674FFF752FC44484178F2
:1015A00001B3467095F83500C00606D5574890F847
:1015B0005000000701D412F022F919F001F919F0D6
:1015C0008BF8534890F82410012904D1022180F8A7
:1015D0002410FFF76EFC95F86900192802D14DA080
:1015E0001DF0C4FB314818F070FF16F081FD95F82E
:1015F0006B004D4951F82000804795F83500C00632
:101600000DD53C48243890F824100E2907D090F8C6
:10161000240020B13749A1F1240011F09EF843487D
:10162000C07B012807D1002140480CF0D7FCA869F5
:1016300008B1A86980473E4C2079002817D094F95A
:101640000700009020792268A31D191D15F0CBFF1B
:101650006071607900280AD1267140F21241206839
:101660001CF063FB0020FFF727FB85F87560F8BDD1
:101670007047FEE7FEE7FEE7FEE7704770477047FA
:101680002CA01DF073FB34A01DF070FB37480168DF
:10169000374A01F4E06111430160BFF3408FFEE778
:1016A000EC05002020000020380000205C00002015
:1016B0008C000020904100203C00002040000020D1
:1016C000160000205461736B2032206973207275FC
:1016D0006E6E696E670A0000001000400044004012
:1016E00000480040003801408400002000500040C5
:1016F00064000020F0080020004C00401E00002084
:10170000300000202C00002028000020E8060020E7
:10171000640600205461736B203120697320727558
:101720006E6E696E670A0000780000203433002076
:10173000280800205B48415244204641554C542023
:1017400048414E444C4552202D20424C5545205393
:10175000435245454E5D0A002D3E52455354415279
:1017600054204445564943450A0A0A000CED00E05E
:101770000400FA057FB504460D46C748012150F81C
:10178000240040F0010013F09EFB04208DF80F00B0
:10179000C148103830F81400ADF80C00BF4803A958
:1017A00050F8240013F015F9012D28D1BA48403023
:1017B00010F81410103810F8140013F0C6F9B648D9
:1017C000203030F81400019000208DF808000C2023
:1017D0008DF809008DF80A5001A812F0D7FDAE4827
:1017E000503010F814008DF800000F208DF8010023
:1017F0008DF802008DF80350684612F05CFA7FBD48
:1018000038B50446A4480121783050F8240013F07C
:101810005AFBA148603030F81400ADF800001020E9
:101820008DF8030003208DF802009C4869462030A3
:1018300050F8240013F0CDF838BD9749974A60312D
:10184000203231F8101052F820000161704792499F
:10185000924A6031203231F8101052F82000416174
:1018600070478E49203151F82010CA688A4B603386
:1018700033F810004240CA6070478749874A1039E0
:1018800031F8101052F8200013F0FEB8F8B50446F5
:101890000D4681488049B830CC3150F8240051F8C9
:1018A0002410084340F00100012113F00CFB7A489A
:1018B000A4303CB150F82400012113F00FFB012C9F
:1018C00005D008E00068012113F0FDFAF7E70121D7
:1018D000734813F00FF918208DF803006E48E030BC
:1018E00030F81400ADF8000003208DF802006B48BA
:1018F0006946603050F8240013F06BF804208DF82E
:1019000003006548EA3030F81400ADF80000634881
:101910006946743050F8240013F05BF85F4E294696
:101920004C3656F8240014F067FB56F824000121C9
:1019300014F0DDFBF8BD70B50446584D4C3555F834
:10194000240014F011FB55F82400BDE8704000217C
:1019500014F0CDBB10B5544C5249204612F08BFC0C
:101960000121204612F0B1FCBDE8104001214F4892
:1019700012F087BA2DE9F84306460121084613F014
:1019800097FA0121082013F09EFA0121480213F072
:101990009AFA0125ADF8005000248DF80340444F19
:1019A0006946384613F015F80220ADF800008DF8AE
:1019B00003406946384613F00CF8DFF8EC804046E7
:1019C00012F0E2FB394937484C31016046608460CF
:1019D0000427C76004618021416149008161890059
:1019E000C1612021016209024162846201464046D0
:1019F00012F041FC0121404612F067FC29482C30CE
:101A00000460057145714FF460218160C460077402
:101A1000264C0146204612F0D1F9012012F030FB8D
:101A2000052301220821204612F052FA0523022242
:101A30000921204612F04CFA052303220F212046EB
:101A400012F046FA04231A461021204612F040FAFA
:101A50000121204612F0E6F90121204612F0D6F9C4
:101A6000204612F0F6F9204612F0F8F90028FAD1D3
:101A7000204612F0FAF9204612F0FCF90028FAD1BB
:101A80000121204612F0FDF9002E03D109A01DF01E
:101A90006DF9FEE7BDE8F88328F7020894000020FE
:101AA00030001400443300200800024000240140AC
:101AB000000C0140414443206973206E6F74207212
:101AC000656164790A00000072484188002200299B
:101AD00003D04188491E418002E0018801B10280A3
:101AE000818819B18188491E818070476A4890F8C1
:101AF000C8100029F9D090F8CA100129F5D000F8D3
:101B0000C82F0121817070471FB504460020FFF7E0
:101B100012FF00940020ADF80400ADF80600ADF807
:101B20000800ADF80C000C20ADF80A006946002052
:101B3000FFF7ACFE1FBDF0B585B006460D464FF46D
:101B4000E13001900024ADF80840ADF80A40ADF84E
:101B50000C40ADF810400C20ADF80E0001A900209B
:101B6000FFF794FE4D4F012240F22551384614F004
:101B7000CAFA40F22661384614F0B2FB4FF44070C6
:101B800012F094F825208DF800008DF801408DF8B2
:101B9000024001208DF80300684612F08CF83D49A0
:101BA000CD608E6015B13EA01DF0E0F805B03A485A
:101BB000F0BD384A06219180374A92F8CA100129AF
:101BC0000CD092F8C810C72902D3002182F8C8109F
:101BD00092F8C8104B1C82F8C8305054704770B54A
:101BE0002C4B4FF41B7159801D88194640F2124648
:101BF00089680024B5420A682FD21D8850551D8877
:101C000001226DB9432820D006281ED015281CD0EB
:101C100041281AD0612818D0042816D0182814D0CA
:101C200008680578022D02D00078012807D11888AD
:101C3000A0F58065043D03D01888401C188070BD55
:101C4000188808811C808A7170BD18880D68401C36
:101C50002C54188808818A7170BD1C801470022071
:101C6000887170BD2DE9F04105460E4600240B4FEA
:101C70000BE0295D384614F09BFA4021384614F0F9
:101C800004FB0028F9D0641CA4B2B442F1D3BDE82F
:101C9000F08100001C010020843300200038014046
:101CA0000A0A0A00704710B5FFF7FCFF0520FFF78E
:101CB000CEFDBDE81040F5E70520FFF7BEBD70B5CD
:101CC0000546464C0221204613F00BFB0028F9D0B4
:101CD0002946204613F0B9FA0121204613F001FBF2
:101CE0000028F9D0204613F0B2FAC0B270BD30B56A
:101CF00087B00121080313F0E6F80121052013F055
:101D0000E2F818208DF8070003248DF80640202003
:101D1000ADF80400324D01A9284612F05AFE802188
:101D2000ADF8041001A9284612F053FE4021ADF889
:101D3000041001A9284612F04CFE1021ADF8041041
:101D40008DF807108DF8064001A9284612F041FED3
:101D5000FFF7B2FF0020ADF808004FF48271ADF834
:101D60000A10ADF80C00ADF80E00ADF810006915C2
:101D7000ADF81210ADF81400ADF816000720ADF85C
:101D80001800164C02A9204613F0AAF9012120469A
:101D900013F02BFA134A144914481AF081FA07B0C9
:101DA00030BD10B5FFF7A3FF124811490160124979
:101DB00041601249816012494161124981611249B1
:101DC00081621249C161124901621249C16012491E
:101DD00041621249016110BD7047000000300140AE
:101DE00000080140BF1C0108B91C0108A71C01081C
:101DF000551E01082C0100208F1E0108C31E01087A
:101E00002BBB020885BB02080BC1020819BC0208E3
:101E100069BC020879BC020895BB020837BD0208FC
:101E200010B54A4C6060A160628000280DD061B19D
:101E300061880246002019F0A5FE6188A268BDE80D
:101E400010404FF4805019F09DBEBDE8104040A0F6
:101E50001CF08CBF70B50C46134601253B4AB0F50B
:101E6000805F08D2516881B1157008442246194636
:101E70001BF042FF09E0916839B155700844A0F5A4
:101E80008050224619461BF037FF012070BD10B567
:101E90000C4613462D49B0F5805F07D2496871B1F1
:101EA0000144224618461BF027FF08E0896831B13B
:101EB0000144A1F58051224618461BF01DFF012068
:101EC00010BD2DE9F04104460027204D2C4E022C78
:101ED00000D0C4B96868B0B12878A0B1002019F06A
:101EE0009BFE2F7069886A68002019F01EFE96F824
:101EF000690040B1306803793068C2783068817811
:101F000020A01CF033FF022C01D0012C1AD1A868AC
:101F1000C0B16878B0B14FF48054204619F07CFE0F
:101F20006F706988AA68204619F0FFFD96F869006D
:101F300040B1306803793068C278306881781BA07E
:101F40001CF014FF0020BDE8F081000058010020C3
:101F5000436865636B206D656D6F727920616C6F8E
:101F6000636174696F6E20666F7220746869732094
:101F70007669727475616C206D656D6F72790A0097
:101F8000EC050020253032643A253032643A2530A1
:101F900032643A202D2D3E205361766520436F6ECA
:101FA00066696775726174696F6E0A002530326404
:101FB0003A253032643A253032643A202D2D3E20C5
:101FC000536176652053797374656D0A00000000D3
:101FD0007047FF4900204870FE49086170472DE9AD
:101FE000F04105460E460024FB4F0BE0295D3846C4
:101FF00014F0DEF84021384614F047F90028F9D0F3
:10200000641CA4B2B442F1D3BDE8F08110B50D2137
:10201000F2A0FFF7E4FFEE4800218170C17041702B
:102020000171BDE81040F1A01CF0A0BE10B5E94957
:1020300088680289002A02D00289521E028191F822
:10204000C50020B191F8C500401E81F8C500C87DCB
:10205000002804D1DE4C206910B1401E206110BD63
:10206000FFF7D4FFE948206110BD30B587B00024E8
:102070000694E748017841F002010170E54B06AA99
:1020800001211B6840F2F62098479DF8180030287F
:1020900031D04FF416500290ADF80C40ADF80E4020
:1020A000ADF81040ADF814400C20ADF8120002A9B4
:1020B0000420FFF7EBFBC84D012240F225512846D2
:1020C00014F021F840F22661284614F009F94FF483
:1020D000407011F0EBFD26208DF8040002208DF8F1
:1020E00005008DF8064001208DF8070001A811F0C9
:1020F000E2FD07B030BD4FF496500290CCE710B52A
:10210000B448022180F86E1080F8C31000220276D5
:102110008275C1A10B68C0F81A308988C183C0A13B
:102120000B68C0F86F308988A0F8731000F58071D3
:1021300041600C3101603439C16000F1C8038C1F6B
:102140001C608360FF2380F8C5300A7217F0B3FA71
:102150009F4948619F4810BD9D4A906151737047E7
:1021600070B5AB49403991F84010890739D4984C83
:1021700001230025E17921B9242802D16571E37199
:10218000A571A17939B96179062904D24A1C627115
:102190008F4A1C325054E1798E4E012910D0022909
:1021A00031D004291DD16279511CC9B23244617108
:1021B00082F86F00721882F86F500A283AD03DE01A
:1021C000607906280DD1A3718148062292A11C30A6
:1021D0001BF0CFFD30B996F86E00012802D0022026
:1021E000E07170BD7A4806228DA11C301BF0C1FD44
:1021F00030B996F8C300012802D00420E07170BD08
:102200006571E57170BD6279511CC9B2324461716A
:102210009076721895760A2802D1107E0D2804D087
:102220005429EFD16571E57170BD6571E57186F86E
:102230006E3070BD92F86D000D2804D05429F8D18D
:102240006571E57170BD6571E57186F8C33070BD6B
:102250002DE9FF5F04465F4DE87D00287DD05C4896
:1022600005F58C76017B49B901210173207A307222
:1022700020683060207F30776069706196F8089040
:10228000A9F10800C0B2684948431BF0AEFF0746F9
:10229000DFF898B1306859461BF012FEDFF890A1C4
:1022A00051461BF00DFE014638461BF0B1FD029071
:1022B000277AA7F10800C0B25B4948431BF095FF9D
:1022C0000190D4F80080594640461BF0F9FD514674
