:020000040800F2
:100000000020002031120008A90E0008AB0E0008E5
:1000100000000000000000000000000000000000E0
:10002000000000000000000000000000AD0E00080D
:100030000000000000000000AF0E0008B10E000834
:1000400081120008000000008112000881120008DF
:100050008112000881120008811200088112000834
:1000600000000000811200088112000881120008BF
:1000700081120008811200088112000800000000AF
:10008000811200080000000000000000811200083A
:100090000000000081120008D10E00088112000843
:1000A00081120008E10E000881120008E50E000828
:0800B000050F0008000000002C
:1000B80010B5064C2378002B07D1054B002B02D036
:1000C800044800E000BF0123237010BD0001002098
:1000D80000000000F83A0008044B10B5002B03D0CC
:1000E8000349044800E000BF10BDC04600000000FE
:1000F80004010020F83A000802B471464908490092
:10010800095C49008E4402BC7047C04603B471467E
:10011800490840004900095E49008E4403BC704705
:10012800002243088B4274D303098B425FD3030A2E
:100138008B4244D3030B8B4228D3030C8B420DD341
:10014800FF22090212BA030C8B4202D312120902CF
:1001580065D0030B8B4219D300E0090AC30B8B420D
:1001680001D3CB03C01A5241830B8B4201D38B03BB
:10017800C01A5241430B8B4201D34B03C01A524160
:10018800030B8B4201D30B03C01A5241C30A8B42A3
:1001980001D3CB02C01A5241830A8B4201D38B028E
:1001A800C01A5241430A8B4201D34B02C01A524132
:1001B800030A8B4201D30B02C01A5241CDD2C309A4
:1001C8008B4201D3CB01C01A524183098B4201D320
:1001D8008B01C01A524143098B4201D34B01C01A0B
:1001E800524103098B4201D30B01C01A5241C30883
:1001F8008B4201D3CB00C01A524183088B4201D3F2
:100208008B00C01A524143088B4201D34B00C01ADD
:100218005241411A00D20146524110467047FFE749
:1002280001B5002000F0F0F802BDC0460029F7D063
:1002380076E7704703460B437FD4002243088B427E
:1002480074D303098B425FD3030A8B4244D3030B55
:100258008B4228D3030C8B420DD3FF22090212BA1A
:10026800030C8B4202D31212090265D0030B8B4296
:1002780019D300E0090AC30B8B4201D3CB03C01A80
:100288005241830B8B4201D38B03C01A5241430B5B
:100298008B4201D34B03C01A5241030B8B4201D34B
:1002A8000B03C01A5241C30A8B4201D3CB02C01AB6
:1002B8005241830A8B4201D38B02C01A5241430A2E
:1002C8008B4201D34B02C01A5241030A8B4201D31D
:1002D8000B02C01A5241CDD2C3098B4201D3CB01C4
:1002E800C01A524183098B4201D38B01C01A524173
:1002F80043098B4201D34B01C01A524103098B4277
:1003080001D30B01C01A5241C3088B4201D3CB0061
:10031800C01A524183088B4201D38B00C01A524144
:1003280043088B4201D34B00C01A5241411A00D2F4
:1003380001465241104670475DE0CA0F00D049425D
:10034800031000D34042534000229C4603098B42CD
:100358002DD3030A8B4212D3FC22890112BA030A55
:100368008B420CD3890192118B4208D389019211D7
:100378008B4204D389013AD0921100E08909C3095C
:100388008B4201D3CB01C01A524183098B4201D35E
:100398008B01C01A524143098B4201D34B01C01A49
:1003A800524103098B4201D30B01C01A5241C308C1
:1003B8008B4201D3CB00C01A524183088B4201D330
:1003C8008B00C01A5241D9D243088B4201D34B004B
:1003D800C01A5241411A00D20146634652415B108D
:1003E800104601D34042002B00D54942704763466E
:1003F8005B1000D3404201B5002000F005F802BDB3
:100408000029F8D016E770477047C046002213004D
:1004180010B594B2A14201D8D8B210BD845C0132A3
:100428001B199BB2F5E7000084B0F8B50F2705004B
:10043800104E114C0791089201003A0030000993C0
:1004480002F0FBFD390030002600FFF7DFFF29002E
:100458002B2511362A0020741031300002F0EDFDF2
:1004680029003000FFF7D2FF3C342070F8BC08BCEC
:1004780004B018477509002074090020F0B504007D
:1004880080208000235A93B02A2900D0F5E0E21892
:10049800013A12782E2A00D0EFE0002B6AD0002211
:1004A8002000E2547A49083202F03AFD00280DD0C3
:1004B80008222000774902F033FD002806D00822E0
:1004C8002000754902F02CFD002864D120002C2161
:1004D800083001F039FFC5B2C0B209302E2120180A
:1004E80001F032FF6B1E2A2B44D8C6B2731E0E2BA6
:1004F80040D802F0DFF9002849D00F22002103A8D4
:10050800AE1902F005FD09362B22002107A802F0DA
:10051800FFFCF3B22E0009360193F6B203AF019A3D
:10052800F3B293422CD35D4E0827300002F0EAFB69
:100538000835EDB2E05D05ABD855013702F0F2FBA6
:10054800FBB29D42F6D8300002F0DCFB0025AB0080
:1005580003AAE8B2D118013502F040F8042DF6D10B
:1005680007AE280001353100EDB202F037F8043645
:100578000E2DF6D1802300229B00E25213B0F0BD6D
:10058800A05D0136387002F0CDFB0137C7E744485B
:1005980002F0B8FBEEE707222000424902F0C0FC57
:1005A80000280DD0072220003F4902F0B9FC00289E
:1005B80006D0072220003D4902F0B2FC0028D9D11C
:1005C8002C21E01D01F0C0FEC5B2C0B208302321C5
:1005D800201801F0B9FE6B1E2A2BCBD8C6B2731EA9
:1005E8000E2BC7D802F066F90028D0D00F220021C0
:1005F80003A8AE1902F08CFC08362B22002107A8AC
:1006080002F086FCF3B22E0008360193F6B203AF6F
:10061800019AF3B29A4229D8204E0727300002F0F7
:1006280071FB0735EDB20D23E05D02AA9B18D85582
:10063800013702F077FBFBB2AB42F4D3300002F093
:1006480061FB0025AB0003AAE8B2D118013501F01F
:10065800C5FF042DF6D107AE280001353100EDB2F3
:1006680001F0BCFF04360E2DF6D183E7A05D0136FC
:10067800387002F057FB0137CAE75A1C92B222526F
:10068800E154FF235B009A4200D973E776E7C0463E
:10069800103B0008193B0008223B0008623B000899
:1006A8002B3B0008113B00081A3B0008233B0008BD
:1006B8008022002110B59200815202F029FC10BD61
:1006C80010B50648FFF7F4FF0548FFF7F1FFA02033
:1006D80001221021C00500F033FF10BD6405002081
:1006E8005601002010B5034B0100180001F048FE28
:1006F80010BDC0466807002010B5034B0100180064
:1007080001F03EFE10BDC0465803002070B505003C
:1007180000780F2601000009314002F0D1F80124C9
:10072800295D601E0A00C0B232400909013402F096
:10073800D3F9092CF4D170BD0300002010B58A420A
:1007480000DB10BD9C5C01320019C0B2F7E7000065
:100758007FB515220021684602F0DAFB6A467E233F
:1007680013706B4608220C4901A8DA7002F065FC88
:1007780000220C216846FFF7DFFF6B4669461873B5
:100788000D22064802F0ECF90D226946044802F0F1
:10079800E7F907B000BDC0461C0100200044004036
:1007A80000380140F7B50700150001930F2822D83B
:1007B8000B18102B02DD1021091AC9B27E2300265E
:1007C8002B707D3B89006B700C4BCCB2B900C918FB
:1007D8002200EC70AE70281D02F02FFCE11C3200E4
:1007E8002800FFF7A9FF271DEF1938703000019B7B
:1007F80005341C70FEBD01204042FBE7440A00207E
:1008080013B5062422000021684602F081FB8223EA
:100818006A465B4213808333D3701371052100222B
:100828006846FFF789FF6B462200587169460448FD
:1008380002F096F922006946024802F091F913BDC8
:10084800004400400038014070B50400C278407888
:100858009CB0042800D978E0FFF74EFC0310286804
:100868007400052908D1002A06D1394B19780029C6
:1008780002D01A70FFF76CFF1CB070BD0729FBD1BE
:10088800022AF9D1334D2B78002BF5D061792079E4
:100898006B4604AAFFF786FF041EEDD16B462E486F
:1008A8001A7804A902F05CF92C70E5E73C3A012AB1
:1008B800E2D80F22211D684602F0BFFB21002B223F
:1008C800143104A802F0B9FB01F0F4FF00282AD083
:1008D80000242600A3006B44E0B2190001F07EFE5C
:1008E80001348619F6B2042CF4D104AD2900200095
:1008F80001F074FE01348619E4B2F6B204350E2C08
:10090800F4D1002E09D10F221449154802F028F914
:100918000221032001F0D4FFAEE70F22114910484D
:1009280002F01EF9A8E710491522F8E71029A3D10B
:100938000B2AA1D1211D04A802F07FFB04A8FFF710
:10094800E5FE99E7FFF75CFF96E70849ECE7C04644
:10095800550100205401002000440040433B00089A
:1009680000380140553B00082C3B0008653B000857
:1009780070B5037804000D007E2B0CD101390022DC
:10098800465CFFF7D9FE864201D03C2D03D92900E9
:100998002000FFF759FF70BDF0B5ABB000F0B6FC12
:1009A80005005F48436802689A4241D15D4B1A6866
:1009B800632A0ED980225C4C9200A15A002908D0E3
:1009C8009D3AFF3A20001A60FFF7D2FF2000FFF798
:1009D8006FFE5648436802689A4235D1544B1A68EC
:1009E800632A0ED98022534C9200A15A002908D0BC
:1009F8009D3AFF3A20001A60FFF7BAFF2000FFF780
:100A080057FE4D4C2368AB4210D26433236001F08B
:100A180013FF051E24D1636A0133636201F018FFD6
:100A2800636A092B02D9656201F01CFF2BB0F0BD87
:100A380001F095FC04000100404802F08BF8210009
:100A48003948FFF71BFDACE701F089FC0400010001
:100A58003B4802F07FF821003648FFF70FFDB8E762
:100A680001F0EAFE012802D101F098FCDEE701F06E
:100A7800E3FE02284CD101F0FFFC01F001FF040065
:100A88000128D3D101F008FF07002E4968464A78AB
:100A98000B7812021A438B78CE781B041343360660
:100AA8004A791E430B7912021A438B79CD791B04BC
:100AB80013432D064A7A1D430B7A12021A438B7A86
:100AC8001B041343CA7A0C3112061A430F923322BD
:100AD80002F0B3FA31002A0038000F9BFFF7A4FC9C
:100AE80001F0D4FE184B0F211C70184B00201C700D
:100AF80002AB3E34E418230012AAFFF753FE002885
:100B080000D093E722780D4812A902F029F88DE762
:100B180001F092FE032800D088E701F093FE85E7F4
:100B280068070020280100206405002058030020E1
:100B380024010020560100202C0100200044004020
:100B4800003801407409002055010020540100209C
:100B5800F0B50226012589B01422002103A802F06D
:100B6800D7F90421A027184B184C5A6BFF053243BC
:100B78005A635A6B380032400092009A5A6B2A43E3
:100B88005A635A6B2A400192019A5A6B0A435A6374
:100B98005B6B00220B4002932100029B00F0D0FC0B
:100BA80003940024380003A904950594069400F0E2
:100BB80015FC074803A9039604950594069400F0CC
:100BC8000DFC09B0F0BDC046001002401010000036
:100BD800000400500848094B10B503600523436022
:100BE800074BC360FA239B00836000F0AFFC00282A
:100BF80001D000F0C9F810BDB40900200030004051
:100C0800FF0F000010B592B03422002105A802F0B1
:100C18007FF91022002101A802F07AF980208000D3
:100C280000F0CEFC0A230593F633089300230993BA
:100C38000E9308330F9380239B0240221093802346
:100C480002240A929B053F3A05A80B920C940D9436
:100C5800119300F0E1FC002801D072B6FEE70723EB
:100C680003900490210001A80193029400F038FF3A
:100C7800002801D072B6FEE712B010BD10B500F022
:100C880025FBFFF7BFFFFFF763FF00F07FF800F0D9
:100C9800C3F900F08BF900F05BFAFFF79BFFEFF365
:100CA8001080012484F3108820232B490A681A43F2
:100CB8000A6080F31088EFF3108184F31088274AC4
:100CC80010680343136081F31088254801F05CF82D
:100CD8004023244AA0201168C0050B4380211360DB
:100CE8004901002200F02CFCFA20800000F014FBDF
:100CF800FFF7E6FC0021080001F0E2FD00212200D8
:100D0800080001F0E9FE22000021200001F0E4FEC5
:100D180022000021022001F0DFFE22000021032032
:100D280001F0DAFE22000021042001F0D5FE2200A5
:100D38000021052001F0D0FE22000021062001F04C
:100D4800CBFE22000021072001F0C6FE064800F075
:100D58002FFCFFF721FEF9E700380140004400406E
:100D6800C809002000300140B4090020054B026882
:100D78001B6810B59A4203D101F06EFE01F0D0FD58
:100D880010BDC046C809002072B6FEE7F0B5282598
:100D980093B02A00002108A802F0BAF88021304B4D
:100DA80049011A6CA0260A431A641A6C00240A40E6
:100DB80001210192019A5A6B02270A435A635B6B1D
:100DC800F6050B400093009B202302A930000293F4
:100DD8000397049405940694079401F024F940239A
:100DE80002A930000293039704940594069407948B
:100DF80001F019F9802302A93000029303970494A3
:100E080005940694079401F00EF9C621154B890044
:100E18005A58154802405A50802292041A60822378
:100E28005B000993E023DB000A93802308940B946A
:100E38000C940F9410949B000C4C0D93FA3BFF3BC1
:100E4800200008A911930E9501F0D2F910226368C9
:100E580093436360082362681343636013B0F0BD73
:100E68000010024000E100E0FF00FFFF00300140F9
:100E780001210A4B82B01A6C0A431A641A6C0A40A0
:100E880080210092009ADA6B49050A43DA63DB6B2A
:100E98000B400193019B02B07047C046001002400E
:100EA800FEE7FEE77047704710B500F023FA044AE2
:100EB800136801331360034A13680133136010BDCC
:100EC800280100202401002010B5024800F08CFF02
:100ED80010BDC046C809002070470000054B10B57A
:100EE800DA69586AC0B2FFF7FDFB0022024B1A60AC
:100EF80010BDC0460038014028010020054B10B540
:100F0800DA69586AC0B2FFF7F7FB0022024B1A6091
:100F180010BDC046004400402401002070B50E00FA
:100F280014000025A54201DB200070BD00E000BFD1
:100F380070550135F6E770B50E0014000025A5427E
:100F480001DB200070BD705D01F0FAFD0135F6E7A8
:100F580001204042704780239B0100204B6070476E
:100F680001207047002070470B490C4A0300521AB1
:100F78000B4910B50868002801D10A4808600868BC
:100F8800C318934206D902F02BF80C230360012002
:100F9800404210BD0B60FCE7000400000020002068
:100FA800C4090020300C00207047000009480A4B93
:100FB80010B503603F2343600023084A8360C26082
:100FC80003614361836101F001F8002801D0FFF754
:100FD800DBFE10BDC809002000480140E7030000FF
:100FE80007B50B4B02689A4211D18021094BC902FF
:100FF8001A6C16200A431A6400221B6C0B400193DA
:101008001100019B00F09AF9162000F0C1F907BD04
:10101800004801400010024030B597B0202200215E
:101028000EA801F075FF1822002102A801F070FF38
:101038001422002109A801F06BFF012308A80893D6
:1010480000F0F8FD002801D0FFF79EFE8021022560
:10105800384BC9011A6C00240A431A641A6C3648C2
:101068000A400192019A5A6B02A92A435A635B6BA0
:1010780003952B400093009B8023049402930594CE
:101088000694079400F0CFFF402302A92A48029350
:101098000395049405940694079400F0C4FFC621B0
:1010A800264A890053581B021B0A535080231B05EC
:1010B8001360E1235B020F930C230E941094119498
:1010C8001294149415941E4C0EA92000139301F049
:1010D800CFF8EFF31081012383F31088A268D200C0
:1010E800D208A26081F31088EFF3108183F310888F
:1010F8001448A2680240A26081F31088124922684D
:101108000A402260626811490A402A216260A26886
:101118008A43A260226880211343236080238903C5
:10112800DB03E2690A42FCD0E2691A42F9D017B03F
:1011380030BDC046001002400004005000E100E04D
:1011480000380140FFFFFFF1FFFFFFDFFFB7FFFFA0
:1011580070B590B02022002108A801F0D9FE8021A6
:1011680001252D4B8902DA6BA0200A43DA63DA6B7A
:1011780000240A400192019A5A6B02262A435A63B4
:101188005B6B02A92B400093009B0423C0050293CC
:101198000396049405940694079500F044FFA02054
:1011A800082302A9C00502930396049405940694A3
:1011B800079500F038FFC721FF20184B89005A58BF
:1011C80082435A50802252051A60E1235B02099338
:1011D8000C2308940A940B940C940E940F94104CBE
:1011E80008A920000D9301F043F863680D4A802197
:1011F80013402A226360A36889039343A36023688A
:101208001D4380232560DB03E2690A42FCD0E269C2
:101218001A42F9D010B070BD0010024000E100E0A1
:1012280000440040FFB7FFFF0D488546FFF7BCFEAE
:101238000C480D490D4A002302E0D458C450043329
:10124800C4188C42F9D30A4A0A4C002301E01360FF
:101258000432A242FBD301F0C9FEFFF70FFDFEE7FF
:10126800002000200000002000010020983C000819
:10127800000100202C0C0020FEE7000070B5104B88
:1012880005001978002901D1012070BDFA208000DD
:10129800FEF746FF0B4C01002068FEF741FF00F007
:1012A80083F8041EF0D1032DEED802000120290096
:1012B800404200F043F8044B20001D60E5E7C046BB
:1012C8000400002000000020080000208023084AB5
:1012D8005B00116810B50B4303201360FFF7CEFFC6
:1012E800041E03D1FFF7C4FD200010BD0124FBE755
:1012F80000200240034A044B11681B785B181360F6
:101308007047C046140A002004000020014B1868EA
:101318007047C046140A002070B50400FFF7F6FFB6
:101328000500631C02D0044B1B78E418FFF7EEFF9E
:10133800401BA042FAD370BD0400002010B5FF2462
:1013480003220B0021000240D20091409B01234060
:10135800C943934000280ADBC0240B4A8008800058
:101368008018A40002590A401343035110BD0F22EC
:1013780010400838054A800880008018C26911406A
:101388001943C161F2E7C04600E100E000ED00E06A
:10139800002805DB1F2318401E3B8340014A1360C9
:1013A8007047C04600E100E08022431E520401203D
:1013B80093420DD2C021074A07485360036A0906C1
:1013C8001B021B0A0B430362002007239060136073
:1013D8007047C04610E000E000ED00E00023F0B5E3
:1013E80085B00A681400DC4001D105B0F0BD0125C4
:1013F80014009D402C4000942A4200D191E04A6894
:101408005F0094460322644622400324BC40E44320
:101418000194541E012C2ED88668019C2640CC6865
:10142800BC403443846044680126AC4325006446CC
:10143800240934409C402C434460C568019C2540E5
:101448008C68BC402C43C460022A16D107250F269D
:101458001D40AD00AE40DC08A40004190294246AC3
:1014680003962600039CA64334000E69AE4026432B
:10147800029C266201E0032ADFD1BA400468019D7C
:1014880025402A43C02402606246A402224248D072
:10149800254A03259C08A400A4180F221D40ED002E
:1014A800AA40A027266EFF0596430022B8420CD01A
:1014B8001E4F0132B84208D01D4F0132B84204D045
:1014C8001C4F0332B84200D1023AAA406746324361
:1014D8002266194A009CD66F009DE4433543FF03FA
:1014E80001D4350025406746D567144D009EEA6F44
:1014F8001643BF0301D42240160067460A4AEE6726
:101508001668009D3543FF0201D435002540674623
:1015180015605568009E2E43BF0201D425402E0059
:10152800566001335DE7C0460018024000040050D1
:1015380000080050000C005004180240081802402F
:10154800002A01D0816170478162FCE770B5040010
:101558000120002C16D02368124A07261A60124A66
:101568001A6062685A60A2689A60FFF7CFFE0500A9
:101578002368DA68324206D11969E26891420DD0CF
:101588001A61002070BDFFF7C1FE401B3128EFD95A
:101598002368DB683342EBD00320F3E7034A1A6081
:1015A800EFE7C046CCCC000055550000AAAA0000C1
:1015B8000368024A00201A607047C046AAAA0000C1
:1015C80010B5114C1149236802000B4003432360F6
:1015D800802300209B009A420ED10D4B0D491868BC
:1015E80006235843FEF79CFD8022431CD200616904
:1015F80008001040114200D110BD002B01D0013B62
:10160800F5E70320F8E7C04600700040FFF9FFFF48
:101618000000002040420F00F0B5040085B000280B
:1016280002D1012005B0F0BD0368DB0710D42368A0
:101638009B075CD423681B0700D5C1E023685B07C0
:1016480000D5F2E0E369002B00D079E10020E9E75A
:101658003822AF4DAB681340EA68102B09D1D34349
:101668009B0708D12B689B03E1D56368002BDED16B
:10167800D7E7082BF6D0802263685202934211D133
:101688002A6813432B60FFF741FE80270600BF023C
:101698002B683B42CBD1FFF739FE801B6428F7D972
:1016A8000320BFE7A021C9028B4208D18023296803
:1016B800DB020B432B602B681A432A60E3E72A6896
:1016C80094490A402A602A6893490A402A60002BF4
:1016D800D9D1FFF71BFE80270600BF022B683B42CB
:1016E800A5D0FFF713FE801B6428F7D9D8E7382266
:1016F800874DAB681340EA68102B28D103210A40B4
:10170800022A26D12A68520503D5E268002A00D1A8
:1017180087E7696862698148120201400A436A6082
:10172800002B0CD12B687E4A7E4913402269134353
:101738002B602B687C4A9B045B0FDA400A607B4B6A
:101748001868FFF79BFD002800D173E769E7002BB5
:10175800D8D0E368002B20D02B68714A802713402B
:101768002269FF0013432B6080232A685B00134320
:101778002B60FFF7CBFD06002B683B4207D06A6859
:10178800636966491B020A4013436B6052E7FFF71F
:10179800BDFD801B0228EFD982E72B68644A8027A9
:1017A80013402B60FFF7B2FD0600FF002B683B4299
:1017B80000D13FE7FFF7AAFD801B0228F6D96FE7A3
:1017C8003822534DAB681340182B08D12B6E9B075A
:1017D80000D433E7A369002B00D02FE721E7A269E3
:1017E8000123002A10D02A6E022713432B66FFF725
:1017F8008DFD06002B6E3B4200D01FE7FFF786FDEC
:10180800801B0228F6D94BE72A6E02279A432A66DC
:10181800FFF77CFD06002B6E3B4200D10EE7FFF779
:1018280075FD801B0228F6D93AE73822384DAB6897
:101838001340202B08D1EB6D9B0700D402E7A36867
:10184800002B00D0FEE6ECE680220021EB6B52056F
:101858000091134208D1EB6B1343EB63EB6B13401E
:101868000393039B012300938027324E7F00336844
:101878003B4215D0A368012B22D1EA6D1343EB65D7
:10188800FFF744FD02270600EB6D3B4238D0009B72
:10189800012B00D0D6E6EB6B274A1340EB63D1E669
:1018A80033683B433360FFF731FD019033683B42B7
:1018B800E0D1FFF72BFD019BC01A0228F6D9EFE60D
:1018C800EA6D052B05D1013B1343EB65EA6D012356
:1018D800D4E701218A43EA65EA6D03318A43EA6560
:1018E800002BCDD1FFF712FD02270600EB6D3B421E
:1018F800CDD0FFF70BFD114B801B9842F6D9CFE6F0
:10190800FFF704FD0D4B801B9842BDD9C8E6C046C1
:1019180000100240FFFFFEFFFFFFFBFFFF80FFFFFD
:10192800FFC7FFFF000000200024F400080000208B
:10193800FFFEFFFF00700040FFFFFFEF881300006D
:101948003821414DAA680A40102A55D03F4A022B37
:1019580038D12B68802713402B60FFF7D7FC06008F
:10196800BF042B683B4227D1616A236AEA680B43AC
:10197800374980260A401343E26AB6041343226BB0
:101988001343A26A12021343EB6080232A685B04A4
:1019980013432B608023EA685B051343EB60FFF772
:1019A800B5FC04002B68334200D04FE6FFF7AEFCCD
:1019B800001B0228F6D973E6FFF7A8FC801B022853
:1019C800CFD96DE62B688026134003222B60EB6885
:1019D800B6049343EB60EB681E4A1340EB60FFF7D5
:1019E80095FC04002B68334200D12FE6FFF78EFCEC
:1019F800001B0228F6D953E6012B00D111E6032279
:101A0800E868216A02408A4200D00AE67022616AC8
:101A180002408A4200D004E6FE21A26AC9010140C0
:101A28001202914200D0FCE5F822E16A92030240DA
:101A38008A4200D0F5E5236B400F4007C01A431EC9
:101A48009841C0B2EEE5C04600100240FFFFFFFE1D
:101A58008C80C11FFFFFFEEF382370B51D4CA268B4
:101A68001A4205D123681C489B045B0FD84070BDFF
:101A7800A2681A40082A27D0A2681A40102A17D14B
:101A8800E368E168DB43E5684906490F6F322D0AD0
:101A9800013115409B0709D11048FEF741FBE16869
:101AA8006843490F0131FEF73BFBE0E70A48F4E7DA
:101AB800A2681A40202A09D0A26800201340182BD7
:101AC800D5D1FA20C001D2E70448D0E7802000022F
:101AD800CDE7C046001002400024F40000127A004E
:101AE800F7B504000D00002801D10120FEBD07272D
:101AF800484E33683B408B422AD3226893073BD435
:101B0800D20748D4072733683B40AB420AD9336829
:101B1800BB432B433360FFF7F9FB019033683B402D
:101B2800AB4268D123683C4D5B076CD4FFF794FF48
:101B3800AB683A491B051B0F9B005B581F210B40E4
:101B4800D840374A374B10601868FFF797FBCDE746
:101B58003368BB430B433360FFF7D8FB019033680E
:101B68003B40AB42C9D0FFF7D1FB019BC01A2E4BBB
:101B78009842F4D90320B9E72749530704D5E0234D
:101B88008868DB0103438B608B6828480340A068A2
:101B980003438B60B4E760681F4F032829D8FEF71A
:101BA800ABFA20021C243B689B039ED50722BB6826
:101BB80093430343BB60FFF7A9FB01903823BA683E
:101BC8001A406368DB009A429CD0FFF79FFB019B99
:101BD800C01A154B9842F1D9CCE73B689B01E5D474
:101BE80083E73B685B05E1D47FE73B6E9B07DDD469
:101BF8007BE7FB6DFAE7FFF789FB019BC01A0A4BED
:101C080098428BD9B6E7AB68094A1340E268134398
:101C1800AB608BE70020024000100240203C000827
:101C2800000000200800002088130000FFF0FFFFDC
:101C3800FF8FFFFFF0B50368050085B000209B0308
:101C480051D58022484C5205E36B0090134208D1CD
:101C5800E36B1343E363E36B13400393039B012399
:101C680000938027414E7F0033683B433360FFF782
:101C78004DFB019033683B4227D0E26DC023100032
:101C88009B0069693A4E18401A4217D0814215D014
:101C98008022E36DE06D190052020243E265E26DB5
:101CA800344831400240E265E165DB0706D5FFF7BD
:101CB8002DFB07000222E36D13424DD0E36D6A69E4
:101CC800334013430020E36506E0FFF71FFB019B49
:101CD800C01A0228CED90320009B012B03D1E36B45
:101CE800254A1340E3632A68D30706D503241E490F
:101CF8004B6DA3436C6823434B65930606D51A497D
:101D08001E4C4B6D2340AC6823434B6553040FD5E1
:101D180015492C694B6D9B009B0823434B65802319
:101D2800DB059C4204D18023CC685B022343CB6053
:101D380012050FD50C4A124C536DE96823400B432A
:101D480053658023DB01994204D18023D1685B026B
:101D58000B43D36005B0F0BDFFF7D8FA094BC01BA1
:101D68009842A7D9B7E7C04600100240007000406B
:101D7800FFFCFFFFFFFFFEFFFFFFFFEFFFCFFFFFAF
:101D8800FF3FFFFF8813000001000300012010B58A
:101D98003D310C78E2B2844218D1001808701B68F3
:101DA800D9681143D9600B498B4202D00A498B424A
:101DB8000DD19A6809490A40062A06D007398A428D
:101DC80003D0012219680A431A60002010BD19685F
:101DD800F9E7C046002C014000040040070001005C
:101DE80070477047704770470222036810B5196939
:101DF800040011420ED0D96811420BD0053A1A617D
:101E0800043202779B699B0700D186E0FFF7E9FF60
:101E180000232377042223681969114211D0D96855
:101E280011420ED0093A1A61073222779A69C02303
:101E38009B0020001A4200D175E0FFF7D2FF002373
:101E4800237708222368196911420ED0D9681142F4
:101E58000BD0113A1A610D322277DB6920009B07FB
:101E680067D0FFF7BEFF0023237710222368196984
:101E7800114210D0D96811420DD0213A1A61193295
:101E88002277DA69C0239B0020001A4257D0FFF757
:101E9800A8FF00232377012223681969114207D07C
:101EA800D968114204D0033A20001A61FEF75EFF98
:101EB800802223681969114208D0D968114205D0D7
:101EC800023AFF3A20001A6100F0ABF823681A6959
:101ED800D20507D5DA68120604D51C4A20001A6113
:101EE80000F0A0F8402223681969114207D0D96888
:101EF800114204D0813A20001A61FFF774FF2022B2
:101F080023681969114207D0D968114204D0413AAF
:101F180020001A6100F084F810BDFFF761FF20006F
:101F2800FFF760FF74E7FFF75BFF2000FFF75AFF3A
:101F380085E7FFF755FF2000FFF754FF93E7FFF70A
:101F48004FFF2000FFF74EFFA3E7C046FFFEFFFF4D
:101F580010B5184C0368A0420AD0174A904207D01F
:101F6800164A904209D1164A1A40CB6813430AE030
:101F7800702293434A681343F5E7124A9042F2D01D
:101F8800114A9042EFD0802293434A691343036079
:101F98008B68C3620B688362A04205D0094B9842E4
:101FA80002D0094B984201D10B69036301234361B5
:101FB80010BDC046002C0140000400400020004035
:101FC800FFFCFFFF004401400048014070B50400D9
:101FD8000120002C23D025003D352B78DAB2002BC8
:101FE80005D123003C3320001A70FEF7F9FF0223C5
:101FF8002B702068211DFFF7ABFF22000123002072
:102008004832137047340A3A137053709370D37080
:10201800137153719371D371137223702B7070BD48
:10202800704770477047F7B5020000260C6820001B
:10203800F04000D1FEBD01202300B040034004421F
:1020480033D0486803240090180058434443009D47
:10205800E443013D012D0BD88D689768454327401F
:102068003D43CF6895605F4355689D433D43556048
:102078000D69D768454327403D43D560009D022D33
:102088000DD14D690195FF2B11D805000F27454348
:102098006F43136ABB43019F6F433B43136213684B
:1020A8002340009C6043034313600136BEE70F27BB
:1020B8001B0A5B435B435F43556ABD43019F5F4314
:1020C8003D435562EBE70000054B064A9B681B053C
:1020D8001B0F9B009B581F221340D8407047C046D7
:1020E80000100240203C0008054B064A9B685B0430
:1020F8005B0F9B009B581F221340D8407047C04677
:1021080000100240003C00083821154B10B59A68B1
:102118000A40082A22D0102A1AD1D8680D3A10404D
:102128000338424250410F4A404210400E4A80183C
:10213800DA68D968DC68490653045B0E490F013137
:102148005843FDF7EDFF610F0131FDF7E9FF10BDC1
:102158001B6805489B045B0FD840F8E70348F6E77F
:102168000010024000EE85FF0024F40000127A00FF
:1021780010B50400FFF7C8FF2060FFF7A5FF6060F7
:10218800FFF7B2FFA06010BD030010B50020032BBD
:1021980010D1C020114A8002516D0B401843104BDA
:1021A800984208D00F4B98420BD00F4B98420DD154
:1021B800FFF7AAFF10BD10680C4B4005C017184068
:1021C800F8E7D06D8007C00FC003F3E7FFF79CFF67
:1021D800FFF77AFFFFF788FFECE7C04600100240E0
:1021E8000200030003000300010003000024F400C0
:1021F8000368020070B501205B0629D44E680B689D
:1022080048693343CE68156833430E690C6A334313
:102218008E6903433343CE69000C3343114E234385
:1022280035402B43136053688D680F4E2843334065
:102238001843802350601B019D4204D280205368BC
:1022480040010343536080239B019C4205D000203A
:10225800D36906490B40D36170BD4B6A9BB21361C9
:10226800F5E7C0464000FFFFFBF0FFFFFFF7FFFF69
:102278007FB50400036801200D00034248D18B6834
:10228800096922680B4369690B43E9690B432749CC
:102298000A40134323606368254A1340EA681343DE
:1022A8006360A368234A1340AA691343A360224BBF
:1022B8009C4222D10230FFF767FF2B6800281FD00D
:1022C8006E68002E1CD00B2B15D81C4A9B00995801
:1022D800FDF726FF8022E9697308120291421ED198
:1022E8004000C0183100FDF71BFF154B03400007E5
:1022F800400F1843E060002003E0124B9C4209D0D5
:1023080001200F21E26A2B688A439BB21343E362E0
:1023180004B070BD01A8FFF72BFF0398CDE731008B
:102328001818FDF7FDFE80B2E4E7C046F369FFEF39
:10233800FFCFFFFFFFFCFFFF00380140603C0008B3
:10234800F0FF0000004400400023C25C8A4204D031
:102358000133FF2BF9D100207047D8B2FCE7416860
:10236800026803000020914209D0511C19609A1894
:10237800107A80229200914201D300221A6070479D
:1023880043685A1CC31842601972802342689B0034
:102398009A4201D3002343607047000037B5FEF727
:1023A800B5FF0190A02000221021C005FFF7C8F852
:1023B80000242C4B185D013400F0B2FB052CF8D139
:1023C800A02001221021C005FFF7BAF8A0200022A2
:1023D8001021FA25C005FFF7B3F8AD000334FEF766
:1023E80095FF019BC01AA8422AD8032000F098FB49
:1023F8002042F4D0A02001221021C005FFF7A0F848
:10240800A02000221021C005FFF79AF8022000F052
:1024180087FB002000F084FB0400002000F080FB14
:102428000500A0202C4301221021C005E4B2FFF7CB
:1024380087F80D4A0D4B002C03D1146002221A7044
:1024480037BD00211970136801331360632BF7D966
:10245800BFF34F8F064B074ADA60BFF34F8FC04672
:10246800FDE7C0461D000020400A00200C000020A7
:1024780000ED00E00400FA057FB50024A0204D4DD2
:1024880022001021C0052C70FFF75AF84A4B185D3E
:10249800013400F045FB062CF8D1A02001221021C0
:1024A800C005FFF74DF80120FEF736FFFEF72EFFB7
:1024B8000090A02000221021FA26C005FFF740F85E
:1024C800B6000234FEF722FF009BC01AB04205D9BD
:1024D8003A4800F017FC002004B070BD032000F05B
:1024E8001FFB2042EED0A02001221021C005FFF7DB
:1024F80027F80120FEF710FFA02000221021C005B8
:10250800FFF71EF8022000F00BFB002000F008FB8C
:102518000600002000F004FB002468706B78A342DA
:1025280032D8A02001221021C005FFF709F80223A4
:10253800802E35D1224901A86A78033A9A422BDCC9
:102548000122204B204C1A70210007321F4800F04E
:1025580074FD00231A001E48E55CC15C8D4201D061
:102568000132D2B20133082BF6D10023082A03D155
:10257800210000F062FD0123164A13700323164A56
:102588001370104B1878A7E7002000F0C9FA01ABC8
:1025980018550134E4B2C1E71A5CCA540133CBE7D9
:1025A8000021084B14220A48197000F0B1FC0123DD
:1025B800E5E7C0462A0A0020170000207A3B0008F9
:1025C800180A0020180A00201A0A00201C010020FE
:1025D800220A0020190A00200C000020484B73B57D
:1025E80004225871050047480C0000F026FDA02081
:1025F80000221021C005FEF7A3FF002000F090FA8A
:10260800042000F08DFA072000F08AFA022000F07A
:1026180087FA212000F084FA280000F081FA207857
:1026280000F07EFA607800F07BFAA07800F078FA83
:10263800E07800F075FAA020002501221021C005DD
:10264800FEF77EFF304C08262570FEF75FFE0190EE
:10265800A0202A001021FA25C005FEF771FFAD0061
:102668002378082B2ED1A02001221021C005FEF7C7
:1026780067FF0120FEF750FEA02000221021C005B0
:10268800FEF75EFF022000F04BFA002000F048FA47
:102698002070002000F044FA002560706378AB4297
:1026A80022D8A02001221021C005FEF749FF237877
:1026B800802B21D0154800F025FB01231800144A6F
:1026C800137008E0FEF722FE019BC01AA84203D946
:1026D800104800F017FB76BD032000F021FA2070A7
:1026E800237833402370BBE7002000F019FAAE1CB2
:1026F8000135A055EDB2D1E703230020DFE7C0463E
:102708000D000020130000202A0A0020A83B000822
:102718000C000020903B0008F7B50500A02000221F
:102728001021C005FEF70CFF002000F0F9F9042085
:1027380000F0F6F9032000F0F3F9022000F0F0F9B8
:10274800202000F0EDF9280000F0EAF9A02000268A
:1027580001221021C005FEF7F3FE0120FEF7DCFD83
:10276800314C08272670FEF7D1FD0190A0203200D9
:102778001021FA26C005FEF7E3FEB6002378082BE1
:1027880035D1A02001221021C005FEF7D9FE012075
:10279800FEF7C2FDA02000221021C005FEF7D0FEE2
:1027A800022000F0BDF9002000F0BAF920700020E6
:1027B80000F0B6F9002660706378B34229D8A020EB
:1027C80001221021C005FEF7BBFE2378174A802B93
:1027D80027D1E178164BAD00595521795D196970FB
:1027E8006379AB70A379EB700323137008E0FEF7ED
:1027F8008DFD019BC01AB04203D90E4800F082FA41
:10280800F7BD032000F08CF9207023783B4023703B
:10281800B4E7002000F084F9B71C0136E055F6B2A1
:10282800CAE70123E1E7C0462A0A00200C0000207D
:10283800440A0020903B0008014B18787047C046B6
:102848000C0000200122014B1A7070470C00002078
:102858008021A02010B501224901C005FEF770FEB5
:1028680010BD00008021A020002210B54901C0053C
:10287800FEF766FE0122014B1A7010BD0C00002005
:10288800014B18787047C046190A00200022014BF6
:102898001A707047190A002010B50024200001346E
:1028A8000021E4B2FFF738FF142CF7D1004810BD1F
:1028B800440A0020014B18787047C046180A0020C7
:1028C8000300002210B5144C080021706370A28028
:1028D800227203290AD8FDF70FFC020A0F0FA27013
:1028E800E280002202210D48FEF72AFE10BD0122D7
:1028F8000023A270E380F5E70122A270002B08D024
:10290800FA2019004000FDF795FC80B20122E08012
:10291800E8E7FA204000F9E7840A002000040050A4
:1029280070B5214C207803282AD8FDF7E5FB24024E
:10293800042A012220E0A388E28801339BB2A38005
:102948009A421DD80123A27800255340013AA3706A
:10295800531E9A4102211548D2B2A580FEF7F0FD18
:10296800A378012B0CD1237A62780133DBB223726E
:102978009A4205D82570002202210C48FEF7E0FD96
:1029880070BDA388E28801339BB2A3809A42F7D82E
:102998000023A278A38001335340013AA370531E49
:1029A8009A41D2B2E8E7C046840A002000040050E9
:1029B80010B5A02486B01022002102A800F0A8FAC1
:1029C8000123E405200001A90193FEF707FD022376
:1029D800200001A90193FEF701FD802301A99B00B6
:1029E80006480193FEF7FAFC802305481B0201A95B
:1029F8000193FEF7F3FC06B010BDC046000400507A
:102A080000080050F0B5040087B007281FD8012738
:102A18000C22002103A800F07BFA0E4D24012E1988
:102A2800B388605901A901930297FEF7D7FC3A00D1
:102A3800B1886059FEF784FDB389B06801A9019394
:102A4800FEF7CCFC0022B189B068FEF779FD07B02B
:102A5800F0BDC04624000020F7B50A25FFF7A8FFFF
:102A68001B4C1C4A20784543AB5CD9B20191002B22
:102A78001ED053199988083189B29980DE888E4210
:102A88001FD80021998099788C46CEB267460121DB
:102A9800794099700199022913D1002E11D1197A20
:102AA8000131C9B219725F788F4207D9FFF7AAFFBF
:102AB80007222378013313402370F7BDAE549E706C
:102AC800F6E70A234343D2189378002BF0D0EDE7BA
:102AD8008E0A0020900A002070B50500160007280D
:102AE8001AD80A2343430D4C00201A550122E31833
:102AF8005970988018729A70814204D0F530FF306E
:102B0800FDF798FB80B20A236B43E418E080032E9C
:102B180002D1FA239B00E38070BDC046900A0020D2
:102B28000222064B99681142FCD01873C0468022D5
:102B380099681142FCD1187BC0B27047003001403F
:102B48008022034BD9691142FCD098627047C04675
:102B5800004400408023C2691A42FCD08162704759
:102B680070B506000C008D18AC4200D170BD2178FC
:102B78003000FFF7EFFF0134F6E70000002310B53F
:102B8800040003604360836081814366C2810361FE
:102B980043618361190008225C3000F0B9F90B4BDE
:102BA800246263620A4BA3620A4BE3620A4B236303
:102BB8000A4B9C4205D00A4B9C4202D0094B9C42CE
:102BC80003D12000583000F035FA10BD412D00081F
:102BD800692D0008A12D0008CD2D0008E00A00206D
:102BE800480B0020B00B002010B5034A03490448E5
:102BF80000F06CF810BDC046A4000020D9380008C9
:102C0800B400002041680B4B10B50400994201D074
:102C180000F05EFEA168084B994202D0200000F047
:102C280057FEE168054B994202D0200000F050FEA3
:102C380010BDC046E00A0020480B0020B00B002061
:102C480010B5094B094A04211A6009480022FFF708
:102C580095FF012209210748FFF790FF0222122160
:102C68000548FFF78BFF10BD180C0020F12B00085A
:102C7800E00A0020480B0020B00B002010B50248E5
:102C880000F0D9F910BDC046210C002010B502484B
:102C980000F0D2F910BDC046210C002010B5040088
:102CA800FFF7ECFF236A002B02D0FFF7EFFF10BD00
:102CB800044B2362044B1B68002BF6D1FFF7C0FFBF
:102CC800F3E7C0460D2C0008180C0020F7B51400D7
:102CD800002600900191A5686768013F04D5246823
:102CE800002CF8D13000FEBDAB89012B08D90E228B
:102CF800AB5E013304D029000098019B9847064336
:102D08006835EAE70FB407B5054904AB086804CB92
:102D18008168019300F0BEFA03B008BC04B01847FC
:102D2800B000002010B5034B01001868826800F05D
:102D380066FE10BDB000002070B50C000E25495F7E
:102D480000F026F9002803DB636D1B18636570BD6E
:102D5800A389024A1340A381F9E7C046FFEFFFFFAA
:102D6800F8B51F008B8905000C001600DB0505D59A
:102D78000E23C95E0022022300F0F6F8A389054A53
:102D880028001340A38132000E23E15E3B0000F0CF
:102D980013F9F8BDFFEFFFFF70B50C000E25495F72
:102DA80000F0E2F8A389421C03D1054A1340A3812D
:102DB80070BD802252011343A3816065F8E7C046C5
:102DC800FFEFFFFF10B50E23C95E00F0BBF810BD82
:102DD800F8B506000D001400002804D0036A002B83
:102DE80001D1FFF75BFFA369A360A3891B0702D585
:102DF8002369002B09D12100300000F02BF80028AE
:102E080003D001256D422800F8BD23692068EFB280
:102E1800C01A6369EDB2834205DC2100300000F07E
:102E280057FD0028EDD1A3680130013BA36023685A
:102E38005A1C22601F706369834204D0A389DB0790
:102E4800E1D50A2DDFD12100300000F041FD002836
:102E5800D9D0D6E72D4B70B5050018680C000028AE
:102E680004D0036A002B01D1FFF718FF0C22A35EE0
:102E78001A0723D4DA0607D409222A60402201203F
:102E88001343A38140423AE05B0713D5616B0029E5
:102E980008D023004433994202D0280000F0D6F825
:102EA800002363632422A3899343A38100236360DF
:102EB800236923600823A2891343A3812369002B74
:102EC8000BD1A0218022A389890092000B40934254
:102ED80003D02100280000F051FD0C22A35E01213F
:102EE8001A000A400B420BD00022A26062695242CB
:102EF800A26100202269824201D11A06BED470BDA7
:102F0800990700D46269A260F3E7C046B0000020C8
:102F180003008218934200D1704719700133F9E712
:102F280030B50500101E0BD00024013A2B5D085D5A
:102F3800834204D1944202D00134002BF6D1181AEE
:102F480030BD0000002370B5064D040008002B605A
:102F5800FDF7FEFF431C03D12B68002B00D0236034
:102F680070BDC0461C0C002070B50400080011009C
:102F78001A000023054D2B60FDF7F4FF431C03D115
:102F88002B68002B00D0236070BDC0461C0C0020AD
:102F980070B50400080011001A000023054D2B60CD
:102FA800FDF7BCFF431C03D12B68002B00D0236026
:102FB80070BDC0461C0C002070B50400080011004C
:102FC8001A000023054D2B60FDF7B5FF431C03D104
:102FD8002B68002B00D0236070BDC0461C0C00205D
:102FE800014B18687047C046B000002070B5002635
:102FF8000C4C0D4D641BA410A64209D1002600F00C
:1030080077FD0A4C0A4D641BA410A64205D170BD79
:10301800B300EB5898470136EEE7B300EB589847F2
:103028000136F2E7903C0008903C0008943C000808
:10303800903C0008704770477047002310B59A42CB
:1030480000D110BDCC5CC4540133F8E770B505005D
:103058000C1E10D0043C2368002B00DAE41828006A
:1030680000F0E0F81D4A1368002B05D16360146076
:10307800280000F0DFF870BDA34208D920682118A5
:103088008B42F3D119685B6809182160EEE71A00D2
:103098005B68002B01D0A342F9D911685018A042EF
:1030A8000BD120680918501811608342E0D11868C4
:1030B8005B68411811605360DAE7A04202D90C231B
:1030C8002B60D5E7206821188B4203D119685B680B
:1030D8000918216063605460CAE7C046280C0020C4
:1030E80070B50F4E0D0031680400002902D100F0C0
:1030F800E1FC30602900200000F0DCFC431C03D117
:1031080001256D42280070BD0323C51C9D43A842BC
:10311800F8D0291A200000F0CDFC0130F2D1EFE7F9
:10312800240C0020F7B50322CB1C93430833050079
:103138001F000C2B34D20C27B94233D8280000F0DA
:1031480071F8374E33681C00002C2FD13900280045
:10315800FFF7C6FF0400431C5FD134680094009B4E
:10316800002B4AD1002C52D023682800E31800997C
:10317800019300F09FFC019B834248D123682800FB
:10318800FF1A3900FFF7ACFF013040D02368DB1984
:10319800236033685A68002A33D1009B336019E0F2
:1031A800002BC9DA0C232B600020FEBD2168C91B47
:1031B80020D40B290AD9E2192760A34204D132602E
:1031C80063681160536005E05A60F9E76268A342DA
:1031D8000ED13260280000F02DF8200007220B30B5
:1031E800231D9043C21A9842DFD01B1AA350DCE774
:1031F8005A60EFE723006468A6E7009C63680093C1
:10320800ADE71A005B68A342FBD10023DAE70C2381
:1032180028002B6000F00EF8C6E70760DAE7C04622
:10322800280C002010B50248FFF705FF10BDC04666
:10323800200C002010B50248FFF7FEFE10BDC04666
:10324800200C0020936810B5013B9360002B04DA32
:103258009469A34207DB0A2905D01368581C10603B
:103268001970080010BDFFF7B3FD0100F9E7F8B5C4
:1032780006000F001400D518AC4201D1002007E069
:1032880021783A003000FFF7DDFF0134431CF3D109
:10329800F8BD0000F0B5A1B00F0015001E000390A6
:1032A800002804D0036A002B01D1FFF7F7FC7B6EDE
:1032B800DB0705D4BB899B0502D4B86DFFF7BBFEBD
:1032C800BB891B0702D53B69002B13D13900039832
:1032D800FFF7C0FD00280DD07B6EDB0703D501206A
:1032E800404221B0F0BDBB899B05F8D4B86DFFF70B
:1032F800A3FEF4E7002308AC636120336376103340
:10330800A37607962E003378002B01D0252B48D1C1
:10331800731B0593AE420BD02A0039000398FFF7C0
:10332800A6FF013000D1AEE06369059A9B1863617E
:103338003378002B00D1A6E00122002352426260BC
:1033480004A954325218751C2360E360A3601370FB
:10335800A365594B052218002978059300F0BCFB9A
:103368006E1C00281FD12268D30604D5532304A954
:103378005B1820211970130704D5532304A95B187F
:103388002B2119702B782A2B16D02E0000210A2009
:10339800E3683278751C303A092A50D9002911D1CE
:1033A80017E00136AFE7059B2268C01A0123834066
:1033B800134335002360CCE7079B191D1B68079151
:1033C800002B01DB0B9304E05B42E3600223134311
:1033D800236033782E2B0CD173782A2B34D1079B9A
:1033E80002361A1D1B680792002B01DA01235B4283
:1033F8000993324D03222800317800F06DFB002834
:1034080006D04023401B83402268013613432360C3
:10341800317806222A48751C217600F05DFB0028C9
:1034280040D0284B002B22D10722079B0733934318
:10343800083307936369049A9B18636162E74343FF
:103448002E0001219B18A4E700230A201900013649
:1034580063603278751C303A092A03D9002BC8D02A
:103468000991C6E741432E0001238918F1E707AA0D
:10347800009221003A00144B039800E000BF04902A
:10348800049B0133D6D17B6EDB0705D4BB899B0532
:1034980002D4B86DFFF7D0FDBB895B0600D51EE7E7
:1034A8000D981EE707AA009221003A00064B0398E0
:1034B80000F07CF8E3E7C046CB3B0008D13B0008AE
:1034C800D53B00080000000077320008F7B5160069
:1034D80001938A680B690C000090934200DA13008C
:1034E8002200336043321278002A01D0013333605E
:1034F80023689B0602D533680233336022680623AB
:1035080015001D401A4227D0230043331B785A1E4A
:1035180093412268920630D4220001990098089DB0
:103528004332A847013025D00622236800251340DE
:10353800042B05D13368E568ED1AEB43DB171D4012
:10354800A3682269934201DD9B1AED180026B54253
:1035580020D1002010E00135E36832689B1AAB42A5
:10356800D2DD2200012301990098089F1932B8473B
:103578000130F0D101204042FEBD3020E118433136
:10358800087021005A1C45310978A21843320233C9
:103598001170C1E72200012301990098089F1A328F
:1035A800B8470130E6D00136D1E70000F0B58BB05E
:1035B80006920A0043320793059003920A7E0C0094
:1035C800109B782A09D8622A0BD8002A00D1BAE0C1
:1035D8007A490491582A00D18EE0250042352A7094
:1035E80022E0100063381528F7D8FCF78FFD160085
:1035F8001F00F6FFF6FFF6FFF6FF1F00F6FFF6FFC7
:10360800F6FFF6FF9F0036007E00F6FFF6FFB000DB
:10361800F6FF3600F6FFF6FF820025001A684235ED
:10362800111D196013682B7001239EE01868096842
:10363800021D0D060BD506681A60002E03DA2D232D
:10364800039A764213705D4B0A27049318E00668C4
:103658001A604906F1D536B2EFE70868196840C91B
:10366800050602D4400600D5B6B21960534B0A27A6
:1036780004936F2A00D1023F2300002243331A70BB
:103688006368A360002B06DB04212268039D8A433C
:10369800226033430CD0039D30003900FCF7C6FD8F
:1036A800049B013D5B5C2B70330006009F42F3D9FD
:1036B800082F09D12368DB0706D5626823699A4277
:1036C80002DC3023013D2B70039B5B1B2361079BAE
:1036D800210000930598069B09AAFFF7F7FE013021
:1036E80048D1012040420BB0F0BD202209680A43AE
:1036F8002260782232490491210045310A70196804
:10370800226840C9100602D4500600D5B6B2196026
:10371800D30702D5202313432360002E01D010279E
:10372800AAE72022236893432360F8E71A680D6804
:10373800101D4969186013682E0601D5196002E04A
:103748006D06FBD519800023039D2361BFE71A6826
:10375800111D1960156800212800626800F0BCF985
:10376800002801D0401B6060636823610023039A2E
:103778001370ACE72A00236906990598079DA847A6
:103788000130AED023689B0715D4099BE0689842A6
:10379800A9DA1800A7E72200012306990598079ED1
:1037A8001932B04701309CD00135E368099A9B1A59
:1037B800AB42F0DCE9E70025F7E7C046DC3B000850
:1037C800ED3B0008F7B50C228B5E05000C001A07CC
:1037D80056D44A68002A02DC0A6C002A4EDDE76AE1
:1037E800002F4BD0002280202E682A601A0040014A
:1037F800216A0240034233D0626DA3895B0706D574
:103808006368D21A636B002B01D0236CD21A002391
:103818002800E76A216AB847A289431C06D12968AB
:103828001D2946D8294BCB40DB0742D500236360CE
:1038380023692360D20405D5431C02D12B68002BD1
:1038480000D16065616B2E60002917D023004433D6
:10385800994202D02800FFF7F9FB002363630DE0CB
:1038680001232800B8470200431CC6D12B68002B4F
:10387800C3D01D2B01D0162B1AD12E6000201EE0BC
:103888000E69002EFAD00F680E60BA1B0192002252
:103898009B0700D14A69A260019B002BEEDDA36A59
:1038A80032001F002800019B216AB847002807DC66
:1038B800A2894023012013431BB2A3814042FEBDCD
:1038C800019B36181B1A0193E6E7C0460100402009
:1038D8000B6970B505000C00002B02D100252800EB
:1038E80070BD002804D0036A002B01D1FFF7D6F978
:1038F8000C22A35E002BF1D0626ED20704D49B0584
:1039080002D4A06DFFF797FB28002100FFF75AFFAC
:10391800636E0500DB07E2D4A3899B05DFD4A06DA5
:10392800FFF78AFBDBE7000070B50E001D000E23D1
:10393800C95E140096B000290CDAB2898023110000
:1039480019401A4214D18023DB000020296023602B
:1039580016B070BD6A4600F089F80028EDDBF02348
:1039680001991B021940044BC9184B425941EAE717
:1039780000214023E9E7C04600E0FFFFF0B502263A
:103988008B8905000C0085B0334207D023004733EC
:10399800236023610123636105B0F0BD03AB02AA74
:1039A800FFF7C2FF029F019039002800FFF7BAFB1A
:1039B800002808D10C22A35E9A05EDD40322934374
:1039C8001E43A681E2E78023A28920601343A381D6
:1039D800039B20616761002B0CD028000E23E15E59
:1039E80000F056F8002805D00323A2899A43023B29
:1039F8001343A381A389019A1343A381CCE770B52C
:103A080006000D001400002804D0036A002B01D121
:103A1800FFF744F9636EDB0705D4A3899B0502D43D
:103A2800A06DFFF708FBA368013BA360002B05DA34
:103A3800A269934212DBEBB20A2B0FD023685A1CFF
:103A480022601D70EDB2636EDB0705D4A3899B0568
:103A580002D4A06DFFF7F0FA280070BD29002200FB
:103A68003000FFF7B5F90500EDE70000002370B559
:103A7800064D0400080011002B60FDF76CFA431C8A
:103A880003D12B68002B00D0236070BD1C0C0020D4
:103A9800002370B5064D040008002B60FDF760FA9E
:103AA800431C03D12B68002B00D0236070BDC04697
:103AB8001C0C0020002370B5064D040008002B6084
:103AC800FDF752FA431C03D12B68002B00D023606A
:103AD80070BDC0461C0C0020C9B28218904201D1AA
:103AE8000020704703788B42FBD00130F6E70000D6
:103AF800F8B5C046F8BC08BC9E467047F8B5C04645
:083B0800F8BC08BC9E467047A2
:103B1000236472697665723A0023445249564552CD
:103B20003A00234472697665723A00205461672036
:103B3000646F6573206E6F742065786973742120DB
:103B40000A0D00577269746520537563636573735A
:103B500021200A0D005772697465204572726F72D8
:103B600021200A0D00556E6B6E6F776E20646174B4
:103B7000612074797065210A0D002074696D656F8C
:103B8000757420696E76656E746F7279200A0D0007
:103B900020577269746553696E676C652074696D2E
:103BA000656F7574200A0D005772697465204D6544
:103BB0006D6F727920426C6F636B20436F6D6D6126
:103BC0006E64204641494C200A0D00232D302B20E5
:103BD00000686C4C006566674546470030313233FB
:103BE0003435363738394142434445460030313266
:103BF00033343536373839616263646566000000F6
:103C000000000000000000000000000000000000B4
:103C1000010000000200000003000000040000009A
:103C20000000000000000000000000000000000094
:103C30000000000000000000000000000000000084
:103C4000010000000200000003000000040000006A
:103C50000600000007000000080000000900000046
:103C60000100000002000000040000000600000047
:103C7000080000000A0000000C0000001000000016
:103C80002000000040000000800000000001000053
:043C9000E100000847
:043C9400B90000086B
:103C98000024F400010000000400000001000407F3
:103CA80002210000000000000403260100000202B7
:103CB800010D0000000800500080000000040050C2
:103CC800000200000004005000020000000800503C
:103CD80000800000000400500002000000000050B6
:103CE8000100000000000050010000000004005026
:103CF8000002000000000050010000000000005019
:103D08000200000000000050020000000000005007
:103D18000100000000080050008000000000005072
:103D280002000000000000500200000000080050DF
:103D3800008000000000000003000000E00A0020EE
:103D4800B400002000000000E00A0020480B00201A
:103D5800B00B002000000000000000000000000080
:103D6800000000000000000000000000000000004B
:103D7800000000000000000000000000000000003B
:103D8800000000000000000000000000000000002B
:0400000508001231AC
:00000001FF
