:020000040800F2
:10000000400F0020D9190008CF170008E319000895
:10001000731800087D180008871800080000000009
:10002000000000000000000000000000911800081F
:10003000931800080000000095180008310D000812
:10004000031A0008031A0008031A0008971800088A
:10005000031A0008031A0008031A0008031A00080C
:10006000031A0008031A0008031A0008031A0008FC
:10007000031A0008031A0008031A0008031A0008EC
:10008000031A0008031A0008031A0008031A0008DC
:10009000031A0008031A0008031A0008031A0008CC
:1000A000031A0008031A0008031A0008031A0008BC
:1000B000031A0008410E0008031A0008031A00087A
:1000C000031A0008031A0008031A0008031A00089C
:1000D000031A0008511700087B170008A51700082D
:1000E0009B0F0008031A0008031A0008031A0008EF
:1000F000031A0008031A0008031A0008031A00086C
:10010000031A0008031A0008031A0008031A00085B
:10011000031A0008031A0008031A0008031A00084B
:10012000031A0008031A0008031A0008031A00083B
:10013000DFF80CD00BF088FF004800479709000853
:10014000400F00201FB50121022002F0C6FCB2487A
:1001500002F0A6FE4FF4FA60ADF8080040F2671016
:10016000ADF804000020ADF80A00ADF8060001A9C2
:10017000A94802F069FF0121A74803F051FD0122BF
:100180001146A54803F0B5FA0121A34803F08CFA03
:100190004FF4407001F01EFD1D208DF80000052079
:1001A0008DF8010000208DF8020001208DF8030079
:1001B000684601F014FD1FBD00B585B0974998A0B1
:1001C0000CF034F89C48817A9C480CF02FF89C493C
:1001D0009CA00CF02BF8A149A1A00CF027F8A6498F
:1001E000A6A00CF023F8AB49ABA00CF01FF8B04868
:1001F0000168B0A00CF01AF8B4480168B4A00CF083
:1002000015F8B949B9A00CF011F8BF49BFA00CF01E
:100210000DF8C549C5A00CF009F8CB49CBA00CF0EE
:1002200005F8D14890F84010D0A00BF0FFFFCE4861
:1002300090F84110D3A00BF0F9FFD8480178D8A06E
:100240000BF0F4FF1E21DCA00BF0F0FF4821E0A032
:100250000BF0ECFFE4480178E4A00BF0E7FFEB487B
:10026000C079EA498979E94A5279E84B1B79CDE9A5
:100270000132CDE90310E548C0780090E348837867
:1002800042780178E2A00BF0D1FFF048C179807983
:10029000EE4A5279ED4B1B79CDE90132CDE90301EC
:1002A000EA48C0780090E948837842780178E8A06D
:1002B0000BF0BCFFF548C2798079F4494979F34BDA
:1002C0001B79CDE90131CDE90302F048C0780090F7
:1002D000EE48837842780178EDA00BF0A7FF05B0D7
:1002E00000BD0EB50121480302F0EAFBF74802F019
:1002F000D7FD4FF6FF70ADF804004720ADF80000C1
:100300004FF48070ADF806000020ADF80200694699
:10031000EE4802F099FE0021EC4803F0C5F90021F7
:10032000EA4803F04BFC0121E84803F079FC0EBDDC
:100330000EB50121082002F0D0FBE54802F0B0FD27
:100340004FF6FF70ADF804004720ADF80000002024
:10035000ADF80600ADF802006946DD4802F074FE13
:100360000021DB4803F0A0F90021D94803F026FC66
:100370000121D74803F054FC0EBD0EB50121042025
:1003800002F0ABFBD34802F08BFD4FF6FF70ADF8E7
:1003900004004720ADF800000020ADF80600ADF8DD
:1003A00002006946CB4802F04FFE0021C94803F025
:1003B0007BF90021C74803F001FC0121C54803F087
:1003C0002FFC0EBD0EB50121084602F086FB4FF052
:1003D000804002F065FD4FF6FF70ADF80400472045
:1003E000ADF800000020ADF80600ADF80200694647
:1003F0004FF0804002F028FE00214FF0804003F0D3
:1004000053F900214FF0804003F0D8FB0121880709
:1004100003F006FC0EBD00000004004007000020B1
:10042000494420202020202020202020202020207F
:100430003A20253135730A008403002044D2000895
:10044000330200204950312020202020202020206D
:10045000202020203A2025730A0000000C000020F4
:10046000506F727431202020202020202020202056
:100470003A2025730A000000430200204950322030
:100480002020202020202020202020203A202573FA
:100490000A00000012000020506F727432202020E9
:1004A00020202020202020203A2025730A00000050
:1004B00080000020475052532028732920202020FC
:1004C000202020203A20253135640A0084000020B5
:1004D000525334383520426175645261746520206E
:1004E0003A20253135640A000A0B00204E756D62F2
:1004F0004F6650686F6E6520312020203A20202002
:10050000202025730A000000160B00204E756D6236
:100510004F6650686F6E6520322020203A202020E0
:10052000202025730A000000220B00204E756D620A
:100530004F6650686F6E6520332020203A202020BF
:10054000202025730A0000002E0B00204E756D62DE
:100550004F6650686F6E6520342020203A2020209E
:10056000202025730A000000500900204D6F6465AB
:10057000206F662070616972203120203A20253179
:1005800035640A004D6F6465206F66207061697282
:10059000203220203A20253135640A001F00002037
:1005A00053656C6563744D656173757265466E6302
:1005B0003A20253135640A004354524C4D61707025
:1005C000696E6720547970653A20253135640A00D8
:1005D00050756C7365466C61672054797065202096
:1005E0003A20253135640A006E000020437572728E
:1005F000656E745F4374726C426974203A202020E7
:100600002020203078253038780A0000460000206D
:100610004163746976654C6576656C5F4374726C92
:100620003A202564207C202564207C202564207CC1
:10063000202564207C202564207C202564207C20CB
:100640002564207C202564207C0A00004E000020C8
:100650004163746976654D6F64655F4374726C20A5
:100660003A202564207C202564207C202564207C81
:10067000202564207C202564207C202564207C208B
:100680002564207C202564207C0A00006600002070
:1006900043757272656E745F4374726C42797465EF
:1006A0003A202564207C202564207C202564207C41
:1006B000202564207C202564207C202564207C204B
:1006C0002564207C202564207C0A00000034014041
:1006D000000C00400008004010B586B0142101A8AD
:1006E0000BF0BFF800240AF00FF90AF087F80AF0BF
:1006F000B1FA08F0E7F907F0DDFE03F0E7FFEF4994
:10070000EFA00BF093FD41F2723008F0F6F8F449D7
:10071000486108464069F34A111AF3A00BF086FDC0
:10072000F8A00BF083FDFD4A0421880107F097FF34
:1007300005AA04214FF4E07007F091FF05A80BF023
:10074000D2F8F74908600DF1110206214FF4DD706F
:1007500007F085FF0DF111000BF0C5F8F1490860B5
:1007600041F26E3008F0C9F8EF49086008460068A9
:10077000401C086041F26E3008F01AF80020D84999
:10078000887001F10A0201214FF49F7007F067FFA2
:10079000D348807A3038D2498872E44A0B2141F23A
:1007A000792007F05CFF3020E0490870E04A0B2117
:1007B00041F2842007F053FF3020DD490870DD4A04
:1007C0000B2141F2952007F04AFF3020D9490870EB
:1007D000D94A0B2141F2A62007F041FF3020D6492B
:1007E0000870D64A48214FF4985007F038FFD34A92
:1007F000403202214FF4E27007F031FFCF4890F809
:1008000040003038CD4981F84000084690F841005A
:10081000303881F84100084690F84000022804D0A2
:10082000084690F84100022803D10120C44908700D
:1008300002E00020C24908700220C04908704870D8
:100840008870C8700020C86208638863C86381F834
:10085000280081F8340081F842000021B74880F870
:10086000431080F8441080F84510B64A082141F240
:10087000712007F0F4FEB44A082141F2612007F02C
:10088000EEFEB24A082141F2612007F0E8FEB04ACC
:10089000012141F2582007F0E2FEAE4A08214FF450
:1008A000E37007F0DCFE00242AE00020AA49085586
:1008B000A848005D3038A7490855A248005D303887
:1008C000A0490855C4EB0411A44B03EB410241F2CB
:1008D0001811282303FB0410194607F0C0FE9A489C
:1008E000005D012804D19749085D0AF0F4FC05E099
:1008F0009449095D81F001000AF0EDFC601CC4B26E
:10090000082CD2DB8D4840300AF06AF894A00BF036
:100910008DFC03F099FE894890F84000022809D127
:1009200096A241F2883197480AF0FCFEFFF74AFD93
:10093000FFF723FD814890F84100022809D192A2D7
:1009400041F288318F480AF0EDFEFFF7F1FCFFF726
:10095000C8FC8F4803F0E1FB78498E4809F042FC5F
:100960008DA00BF063FC5E48807A08B1FFF724FC91
:1009700006B010BD10B545F2555001F019FF062024
:1009800001F019FF40F6FF7001F018FF01F019FFA8
:1009900001F01CFF10BD8349B1F1807F00D31DE041
:1009A00021F07F40401E4FF0E022506150170F228F
:1009B000002807DA13071D0E7B4B00F00F04241FDD
:1009C0001D5503E013071C0E784B1C5400BF00207C
:1009D0004FF0E02290610720106100BF7448404949
:1009E0004860FFF7C7FF03F0A6FB4AF6AA203C4980
:1009F00049680860FFF770FEFFF7A4FB3BE14AF689
:100A0000AA2037494968086000206A4908803448AC
:100A1000C078012816D1022003F076FD66A00BF005
:100A200005FC00BF60480C38006800F4E0606649CF
:100A30000843001D5C490C390860BFF3408F00BFBC
:100A400000BFFEE74FF48041604801F0F6FD30B989
:100A500001205F49087050205E49087005E00020C1
:100A60005B49087064205B4908705B480078012886
:100A700014D100205849087058A00BF0D7FB5B48F0
:100A80005B490A6802604A684260098901815948E5
:100A9000407820F00300801C564948705648B0F852
:100AA000000150B95348407820F0C00080305149CF
:100AB00048704FF0FF305049A0E0A1E00000002056
:100AC0000D0A4E534844202D206669727761726585
:100AD00020762573204C696D697465640A000000F6
:100AE00084030020801C9E3352656D61696E67200F
:100AF0006F662072756E2074696D65202564286D9F
:100B000073290A004C6F6164696E672070617265B9
:100B10006D65746572732E2E2E0A0000070000208A
:100B20008000002084000020740000200A0B0020B8
:100B3000160B0020220B00202E0B00205009002055
:100B40001F00002046000020660000205E000020FC
:100B50006E0000204E000020560000209809002062
:100B6000496E697469616C697A696E672070617237
:100B7000616D657465722E2E2E0A00003131787811
:100B800000000000D801002078783131000000001A
:100B90007C030020F00800202E2E2E46696E69731B
:100BA000680A000080FC0A0018ED00E000E400E0A4
:100BB0000030004044000020526573657420537972
:100BC0007374656D0A0000000000FA05000801401A
:100BD000400000204300002015040020526561649D
:100BE0002061206E657720534D530A00DD0A0020F6
:100BF00020000020B40600207C020020A1F80001A3
:100C000038480078012814D137480078022810D1DC
:100C100034490870354836A10A6802604A68426063
:100C2000098901813548407820F00300801C334950
:100C3000487005F094FB324890F84000022804D038
:100C40002F4890F84100022801D10AF099FD2D4863
:100C5000807C01280FD12C480AF04CFB07F0C5FE20
:100C600008F096FA284809F0C7F92748006810B933
:100C7000002024498874C2E610B5224840692349FF
:100C8000884208D306E022A00BF0D0FA4FF47A7025
:100C900003F06CFBF7E71B4840690A3019494861CB
:100CA0000846406968B1084640691F49B0FBF1F247
:100CB00001FB120028B91349143141F2723007F0D8
:100CC00077FD10BD70B504460D46E1B2174803F03C
:100CD000FEF800BF4021154803F067F90028F9D05D
:100CE000204670BD4100002018000020DD0A0020D1
:100CF0006174642A313031230D000000B4060020F5
:100D0000500900208403002088000020801C9E33AE
:100D100052756E2074696D652069732065787069FD
:100D20007265642121210A0080EE360000380140FE
:100D300010B5FE480068B0F57A7F03D10120FB4969
:100D4000086004E0F9480068401CF8490860F84869
:100D5000007828280FD1F5480068F5490978B0FBDC
:100D6000F1F201FB120048B9F248007880F001006E
:100D7000F049087002E00020EE490870ED48007864
:100D8000012804D14021EC4801F071FC03E040212E
:100D9000E94801F06EFCE948007850280FD1E3489B
:100DA0000068E6490978B0FBF1F201FB120048B98E
:100DB000E348007880F00100E149087002E001207A
:100DC000DF490870DE480078012804D18021DA4824
:100DD00001F04DFC03E08021D74801F04AFC0A20D5
:100DE00003F0E0FC0A2009F0BFFED6490A2003F018
:100DF00070FAD54890F84000022804D0D24890F804
:100E00004100022802D10A200AF0E5FCCF48006820
:100E1000002804DDCD4800680A38CC490860CC4879
:100E2000807C38B1CB48006820B1CA4800680A38D5
:100E3000C8490860C8480088401CC749088010BDE0
:100E400010B50121C54802F0EEFE00287ED0012138
:100E5000C24802F0F9FEBC4890F84000012812D1C7
:100E6000B94890F8240028B1B748C06A401CB64978
:100E7000C86208E0B44890F8250020B1B248006B81
:100E8000401CB1490863B04890F84100012812D1D4
:100E9000AD4890F8260028B1AB48806B401CAA49A9
:100EA000886308E0A84890F8270020B1A648C06BE6
:100EB000401CA549C863AA4890F82E02012805D114
:100EC000A84AA949A64803F025FE03E00220A44948
:100ED00081F82E02A54890F87000012803D1A4499A
:100EE000A24804F0F7FEA34890F87800022804D046
:100EF000A04A9F49A04805F0F4F89D4890F82800C2
:100F0000122809D09A4890F82800132804D098484D
:100F100090F82800142804D194497031944805F0C1
:100F2000D9FD96489649097850F821209549864878
:100F3000904795480088642809D18A4A8E4991488B
:100F400008F0E4FF00209049088005E024E08E4886
:100F50000088401C8C4908807F48008840F6B831E2
:100F6000884217DB7A48807CA0B988A003F0A8FAF1
:100F700089A00BF05BF900BF9148006800F4E060C5
:100F800090490843001D8E490860BFF3408F00BFA1
:100F900000BFFEE7FFF770FE10BD2DE9F0414FF4F2
:100FA000004001F03FFA002857D04FF4004001F014
:100FB0004AFA654890F8400002284FD181038248E0
:100FC00001F03BFB78B90121880702F029FE0021DE
:100FD0004FF0804002F0F2FD0121880702F064FB2F
:100FE0000020594908704FF40041774801F025FB73
:100FF0000028D9D000214FF0804002F055FB524824
:101000000078F8B94FF0804002F0FBFD80460AF00E
:1010100003FE07466D490AF073FC06466C490AF068
:10102000A5FC05460AF01BFE0446224669A16B4852
:101030000BF00CF9534869490A68C0F817208988F1
:10104000A0F81B100120404908700021800702F021
:10105000B5FD0121880702F0E3FDE8E06048007873
:1010600008B1BDE8F0810A205D4908704FF40041E5
:10107000554801F0E2FA0028EFD11021594801F05B
:10108000F8FA314890F84000012848D12E4890F8ED
:101090004200401C2C4981F8420000212A4880F877
:1010A000431090F84200012811DD00202649086312
:1010B000C862084690F8280080F0010081F82800F6
:1010C0002348807A082802D147A00BF0AFF81E48C9
:1010D00090F82400B8B901201B4981F82400084683
:1010E000C06A096B884204D20020174981F82800A1
:1010F00009E01548C06A1449096B884203D90120E8
:10110000114981F82800104890F8250018B10020F6
:101110000D4981F8250000200B49C86208630A4880
:101120004068354988426DD9002068E0B000002051
:1011300042000020AC000020000C014043000020D1
:10114000AD0000207C030020500900207800002022
:101150008403002088000020440000200004004098
:10116000C00600207C00002019000020150400208B
:10117000530200209C030020B4060020AC01002094
:101180001F000020F0080020B400002061742B63D1
:10119000706F77643D300D0053797374656D20690D
:1011A000732073757370656E6465642C207265734B
:1011B000657420696E207365636F6E64730A000046
:1011C0000CED00E00000FA0500080140000020419D
:1011D00000006842253036750000000090000020B5
:1011E0008C00002000100140446F75626C6520493E
:1011F0004E54310A000000003F420F0002E0FE4959
:10120000486011E0FC4890F8280028B9FA48406886
:10121000401CF949486007E0F748406820B1F648AB
:101220004068401EF44948600120F34908704FF4BB
:10123000806001F0F7F8002855D04FF4806001F08D
:1012400002F9ED4890F8400002284DD14102EB48E8
:1012500001F0F3F970B90121E94802F0E1FC002145
:10126000E74802F0ABFC0121E54802F01DFA00203E
:10127000E14948704FF48061E04801F0DEF9002850
:10128000DAD00021DE4802F00FFADB484078F8B9E6
:10129000DB4802F0B6FC80460AF0BEFC0746D9499E
:1012A0000AF02EFB0646D8490AF060FB05460AF014
:1012B000D6FC04462246AFF2E401D4480AF0C6FF49
:1012C000D348D2490A68C0F81D208988A0F82110A7
:1012D0000120C94948700021C94802F06FFC012172
:1012E000C74802F09DFC63E0CA48007800B1B8E648
:1012F0000A20C84908704FF48061C04801F09DF988
:10130000002855D12021BD4801F0B3F9BA4890F822
:10131000400001282ED1B84890F84300401CC1B2CB
:10132000B54880F843100020B34981F842000846D0
:1013300090F8430001280DDD084690F8280080F061
:10134000010081F82800B448807A082802D1B3A0AF
:101350000AF06CFFA84890F8240018B10020A649B4
:1013600081F82400A44890F8250018B90120A2496A
:1013700081F82500A0488068AC49884203D9002044
:101380009D49886011E09C4890F8280028B99A4847
:101390008068401C9849886007E09748806820B1C1
:1013A00095488068401E94498860012092494870A1
:1013B0004FF4006001F036F8002855D04FF400607B
:1013C00001F041F88C4890F8410002284DD181028B
:1013D0008A4801F032F970B90121954802F020FCE9
:1013E0000021934802F0EAFB0121914802F05CF9E8
:1013F0000020814988704FF40061804801F01DF998
:101400000028DAD000218A4802F04EF97A48807824
:10141000F8B9874802F0F5FB80460AF0FDFB074665
:1014200078490AF06DFA064677490AF09FFA0546B0
:101430000AF015FC04462246AFF268217D480AF006
:1014400005FF73487B490A68C0F823208988A0F803
:1014500027100120684988700021754802F0AEFB12
:101460000121734802F0DCFB7DE07348007800B195
:10147000F7E50A20704908704FF400615F4801F0F9
:10148000DCF800286FD101216C4801F0F2F85A48CD
:1014900090F84100012848D1574890F84400401C7A
:1014A000C1B2554880F84410002180F8451090F8EA
:1014B0004400012811DD00204F498863C8630846B5
:1014C00090F8340080F0010081F834005248807AAE
:1014D000082802D15AA00AF0A9FE474890F8260031
:1014E000B8B90120444981F826000846806BC96BD1
:1014F000884204D20020404981F8340009E03E4887
:10150000806B3D49C96B884203D901203A4981F873
:101510003400394890F8270018B10020364981F886
:10152000270000203449886388633348C0683F49F6
:10153000884203D900203049C86011E02E4890F855
:10154000340028B92C48C068401C2B49C86007E00B
:101550002948C06820B12848C068401E2649C86094
:101560000120254988704FF4805000F05BFF00286F
:1015700041D04FF4805000F066FF1F4890F84100C2
:1015800002287FD1C1021D4801F057F870B901212E
:101590002F4802F045FB00212D4802F00FFB0121EE
:1015A0002B4802F081F800201349C8704FF4805195
:1015B000124801F042F800281DD00021244802F012
:1015C00073F80D48C078A8B9214802F01AFB80468C
:1015D0000AF022FB07460B490AF092F906460A492F
:1015E0000AF0C4F905460AF03AFB04462246AFF277
:1015F0001C4130E03AE091E0500900200010014029
:1016000000080040000020410000684297000020D0
:10161000F00800208D00002084030020446F7562D4
:101620006C6520494E54320A000000003F420F0012
:10163000000C00409E0000208E000020000C0140A5
:10164000446F75626C6520494E54330A00000000F7
:101650000034014016E090480AF0F8FD8F488E49AA
:101660000A68C0F829208988A0F82D1001208C492B
:10167000C87000218B4802F0A1FA0121894802F0CC
:10168000CFFA63E08848007800B1EAE40A2086498E
:1016900008704FF48051854800F0CFFFF0BB022165
:1016A000834800F0E6FF7E4890F8410001282DD1E4
:1016B0007B4890F84500401CC1B2794880F845103D
:1016C000002180F8441090F8450001280EDD744890
:1016D00090F8340080F00100714981F834007548B9
:1016E000807A082802D174A00AF0A0FD6C4890F816
:1016F000260018B100206A4981F82600684890F851
:10170000270018B90120664981F82700644800695C
:101710006D49884205D90020614900E016E0086162
:1017200011E05F4890F8340028B95D480069401C1A
:101730005B49086107E05A48006920B158480069D0
:10174000401E5749086101205549C87000BF88E410
:1017500010B540F225515D4802F03DFC60B140F209
:1017600025515A4802F061FC584802F0B4FBC4B25B
:101770005749204602F03CFD10BD10B540F22551FE
:10178000544802F028FC60B140F22551514802F063
:101790004CFC504802F09FFBC4B24F49204604F075
:1017A000BFF810BD10B540F225514C4802F013FCB3
:1017B00060B140F22551494802F037FC474802F039
:1017C0008AFBC4B24649204602F06AFD10BD70474C
:1017D00008B5044625686668A768D4F80C80D4F874
:1017E0001090D4F814A0D4F818B0E06900903DA08F
:1017F0000AF01CFD294641A00AF018FD314642A01E
:101800000AF014FD394643A00AF010FD414644A0F9
:101810000AF00CFD494645A00AF008FD514646A0D5
:101820000AF004FD594647A00AF000FD48A00099BF
:101830000AF0FCFC4948016849A00AF0F7FC474857
:101840001038016849A00AF0F1FC44480C380168DE
:1018500049A00AF0EBFC41480838016849A00AF0A9
:10186000E5FC3E48001D016849A00AF0DFFC00BF0E
:10187000FEE74AA00AF0DAFC00BFFEE74CA00AF03F
:10188000D5FC00BFFEE74FA00AF0D0FC00BFFEE78A
:101890007047704770477047A5000020F00800208F
:1018A00050090020003401408F000020001001404A
:1018B000000C014084030020446F75626C65204970
:1018C0004E54340A000000003F420F00003801402F
:1018D0005302002000440040C006002000480040A1
:1018E0007C0200205B48617264206661756C742024
:1018F00068616E646C65725D0A00000052302020E1
:10190000203D2025780A000052312020203D20254E
:10191000780A000052322020203D2025780A00005D
:1019200052332020203D2025780A000052313220F9
:10193000203D2025780A00004C522020203D202503
:10194000780A000050432020203D2025780A00001E
:1019500050535220203D2025780A000038ED00E049
:1019600042464152203D2025780A0000434653520A
:10197000203D2025780A000048465352203D20256E
:10198000780A000044465352203D2025780A000082
:1019900041465352203D2025780A00004D656D4D8B
:1019A000616E6167655F48616E646C65720A000014
:1019B0004275734661756C745F48616E646C6572E4
:1019C0000A00000055736167654661756C745F4875
:1019D000616E646C65720A000A4880470A480047D5
:1019E000FEE71EF0040F0CBFEFF30880EFF3098051
:1019F000FFF7EEBEFEE7FEE7FEE7FEE7FEE7FEE7E7
:101A0000FEE7FEE7D51A000831010008002100209A
:101A1000674A126842F48032654B1A6000BF644A1C
:101A2000126802F40030491C10B9B1F5A06FF6D16C
:101A30005F4A126812F4003F01D0012000E000204C
:101A4000012842D15B4A126842F01002594B1A60D9
:101A50001A46126822F003021A601A46126842F00F
:101A600002021A60524A5268514B5A601A46526832
:101A70005A601A46526842F480625A601A465268A6
:101A800022F47C125A601A46526842F4E8125A60F4
:101A90001A46126842F080721A6000BF444A126807
:101AA00012F0007FFAD0424A526822F00302404B03
:101AB0005A601A46526842F002025A6000BF3C4A1D
:101AC000526802F00C02082AF9D1704710B5FFF7EE
:101AD0009DFF10BD10B53648006840F00100344944
:101AE0000860084640683449084031494860084663
:101AF0000068324908402E4908600846006820F412
:101B0000802008600846406820F4FE0048604FF4DA
:101B10001F008860FFF7DAFF4FF000602849086077
:101B200010BD10B5002100200022214B5B6803F09E
:101B30000C0121B1042906D0082928D107E0214B46
:101B4000214C236027E01F4B1F4C236023E0184BE0
:101B50005B6803F47010164B5B6803F48032022359
:101B600003EB904022B9194B4343174C23600DE01F
:101B70000F4B5B6813F4003F04D0144B4343124CEB
:101B8000236003E00F4B43430F4C236003E00D4BF6
:101B90000D4C236000BF00BF054B5B68C3F303130C
:101BA0000B4CE15C084B1B68CB40074C236010BD1D
:101BB00000100240002002400000FFF8FFFFF6FE88
:101BC00008ED00E000127A00B800002000093D0096
:101BD000BC00002031490143314A1160704770B5A3
:101BE000002100230F22C4780CB32D4C246804F488
:101BF000E064C4F5E064210AC1F10403CA404478FA
:101C000004FA03F18478144021430901254C067835
:101C1000A155047804F01F050124AC4005786D112E
:101C20004FF0E02606EB8505C5F8004109E0047891
:101C300004F01F050124AC401B4D0678761145F8D1
:101C4000264070BD194A0A400243154B1B1F1A60FB
:101C5000704739B1124A121D12680243104B1B1D06
:101C60001A6006E00E4A121D126882430C4B1B1DBF
:101C70001A607047042808D14FF0E021096941F04B
:101C800004014FF0E022116107E04FF0E021096903
:101C900021F004014FF0E022116170470000FA05C5
:101CA0000CED00E000E400E080E100E080FFFF1FB9
:101CB00010B50446F948844208D10121401500F0CE
:101CC00019FF0021601500F015FF17E0F448844269
:101CD00008D10121001500F00DFF0021201500F0B2
:101CE00009FF0BE0EF48844208D10121C80300F04E
:101CF00001FF00214FF4004000F0FCFE10BD30B5A4
:101D00000246002000235068E74C20400D790C6803
:101D100044EA0524204350609068E44C2040D1E917
:101D200002542C434D7944EA450420439060D06A24
:101D300020F470000C7C641EE4B2234340EA03509C
:101D4000D06230BD00210160017141718160C160CC
:101D500001210174704721B1826842F00102826062
:101D600003E0826822F001028260704721B182683C
:101D700042F48072826003E0826822F480728260A2
:101D8000704710B50023CBB21AB144681C434460BD
:101D900002E044689C43446010BD816841F0080142
:101DA00081607047014600208A6812F0080F01D058
:101DB000012000E000207047816841F0040181604B
:101DC0007047014600208A6812F0040F01D00120FC
:101DD00000E00020704721B1826842F4A0028260D6
:101DE00003E0826822F4A00282607047014600206E
:101DF0008A6812F4800F01D0012000E000207047B3
:101E000010B50A4600210023416821F46041531EA9
:101E100041EA4331416010BD21B1426842F40062A1
:101E2000426003E0426822F4006242607047F0B50D
:101E300004460D4600200021092D11DDE068A5F1C2
:101E40000A0606EB4607072606FA07F18843A5F1BE
:101E50000A0606EB460603FA06F10843E0600CE0CA
:101E6000206905EB4507072606FA07F1884305EBCD
:101E7000450603FA06F108432061072A0FDA606B72
:101E8000561E06EB86071F2606FA07F18843561EE4
:101E900006EB860605FA06F10843606322E00D2A88
:101EA0000FDA206BD61F06EB86071F2606FA07F10E
:101EB0008843D61F06EB860605FA06F10843206321
:101EC00010E0E06AA2F10D0606EB86071F2606FA6F
:101ED00007F18843A2F10D0606EB860605FA06F126
:101EE0000843E062F0BD21B1826842F48012826052
:101EF00003E0826822F48012826070470146C86C59
:101F000080B2704765484C300068704721B1426824
:101F100042F48062426003E0426822F480624260E0
:101F2000704721B1426842F48052426003E0426847
:101F300022F48052426070470A460021816821F4F1
:101F4000E04111438160704721B1826842F4004250
:101F5000826003E0826822F400428260704721B10F
:101F6000826842F40212826003E0826822F4021264
:101F700082607047014600208A6812F4001F01D079
:101F8000012000E000207047F0B50446154600200F
:101F900000220026092911DDE068A1F10A0707EBFC
:101FA000470C072707FA0CF29043A1F10A0707EB49
:101FB000470703FA07F21043E0600CE0206901EBE9
:101FC000410C072707FA0CF2904301EB410703FA93
:101FD00007F210432061A06BC0F30156EF1C06F11D
:101FE000010CA7EB0C0707EB870C1F2707FA0CF275
:101FF0009043EF1C06F1010CA7EB0C0707EB8707DA
:1020000001FA07F21043A063F0BD10B50A460021A3
:102010000023816B21F44011531E41EA0351816377
:1020200010BD10B5002303460B441A6010BD0246D4
:102030000023134601F128000344186880B270475A
:102040000A46002141681A4B19401143416070470C
:102050004162826270470A460021416821F01F01F7
:1020600011434160704740B10C490831096841F49F
:1020700000010A4A0832116007E00849083109687E
:1020800021F40001054A0832116070470246002021
:1020900013680B420ED001200DE000000024014027
:1020A00000280140003C0140FFFEF0FFFDF7F1FF7A
:1020B000FFFD3FFF00207047CA430260704770B5C4
:1020C00002460020002300240B125568CEB205EA18
:1020D000060415681D4202D00CB1012000E000206A
:1020E00070BD00220A12D3430360704701684FF6A7
:1020F000FE72114001600021016041608160C16099
:102100008C49884208D18B490839496841F00F0150
:10211000884A083A51608AE086491431884208D1D9
:1021200084490839496841F0F001824A083A51600F
:102130007DE080492831884208D17E4908394968C4
:1021400041F470617B4A083A516070E079493C3152
:10215000884208D177490839496841F47041754A85
:10216000083A516063E073495031884208D171499F
:102170000839496841F470216E4A083A516056E0C6
:102180006C496431884208D16A490839496841F488
:102190007001684A083A516049E0664978318842DE
:1021A00008D164490839496841F07061614A083AC8
:1021B00051603CE06049884206D1011F096841F046
:1021C0000F01021F116032E05B491431884208D1CF
:1021D0005949091F096841F0F001574A121F11605F
:1021E00025E055492831884208D15349091F09681B
:1021F00041F47061504A121F116018E04E493C31A1
:10220000884208D14C49091F096841F470414A4A83
:10221000121F11600BE048495031884207D14649EE
:10222000091F096841F47021434A121F1160704769
:1022300010B50022026847F6F0739A430C6A8B6867
:1022400023430C6923434C6923438C692343CC69A2
:1022500023434C6A23438C6A23431A430260CB68AE
:1022600043600B6883604B68C36010BD0021016050
:1022700041608160C160016141618161C161016250
:1022800041628162704721B1026842F0010202603E
:1022900004E002684FF6FE731A40026070471AB1FC
:1022A00003680B43036002E003688B4303607047DD
:1022B000416070470146486880B27047014600207F
:1022C000002211F0805F03D01B4B083B1A6802E02C
:1022D000184B083B1A680A4201D0012000E0002098
:1022E000704710F0805F03D01349091F086002E0B7
:1022F000104908394860704701460020002211F05B
:10230000805F03D00C4B083B1A6802E0094B083B86
:102310001A680A4201D0012000E00020704710F046
:10232000805F03D00449091F086002E001490839B1
:1023300048607047080002400804024000204449F9
:102340000860091D0860091D0860091D08604148F2
:102350003F4914310860704700213D498279002AC5
:102360003AD00A46126803689A430B461A600A1D5F
:10237000126803689A430B1D1A60027911440A68B7
:1023800003681A430A60324A0832126803689A43A3
:102390002F4B08331A601A1D126803689A432C4B9E
:1023A0000C331A604279102A0ED11A1F1268036882
:1023B0001A43274B08331A601A1D126803681A4320
:1023C000234B0C331A600DE02149427911440A680D
:1023D00003681A430A6005E0027911440A68036839
:1023E0009A430A6070470021016001710C2141711C
:1023F0000021817170471649103109680143144A60
:1024000010321160704701460020114A14321268E0
:102410000A4201D0012000E0002070470C4914312D
:1024200008607047014600200022094B1B6803EA40
:102430000102074B14331B680B4202D00AB1012082
:1024400000E0002070470249143108607047000026
:1024500000040140FFFF0F0010B50446CA48844243
:1024600008D10121042000F045FB0021042000F0E8
:1024700041FB46E0C548844208D10121082000F014
:1024800039FB0021082000F035FB3AE0C0488442C7
:1024900008D10121102000F02DFB0021102000F0B8
:1024A00029FB2EE0BB48844208D10121202000F006
:1024B00021FB0021202000F01DFB22E0B6488442D1
:1024C00008D10121402000F015FB0021402000F040
:1024D00011FB16E0B148844208D10121802000F0B0
:1024E00009FB0021802000F005FB0AE0AC48844293
:1024F00007D10121801500F0FDFA0021A01500F0A0
:10250000F9FA10BD10B50121084600F0F3FA0021D8
:10251000012000F0EFFA10BD2DE9F0410246002540
:102520000026002000230024002791F803C00CF0AF
:102530000F0591F803C01CF0100F03D091F802C0F2
:102540004CEA0505B1F800C01CF0FF0F31D014684B
:1025500000202BE04FF0010C0CFA00F3B1F800C0A2
:102560000CEA03069E4220D183004FF00F0C0CFAB8
:1025700003F7BC4305FA03FC4CEA040491F803C0DA
:10258000BCF1280F06D14FF0010C0CFA00FCC2F888
:1025900014C00AE091F803C0BCF1480F05D14FF018
:1025A000010C0CFA00FCC2F810C0401C0828D1D362
:1025B0001460B1F800C0BCF1FF0F34DD5468002096
:1025C0002EE000F1080C4FF0010808FA0CF3B1F806
:1025D00000C00CEA03069E4221D183004FF00F0C8D
:1025E0000CFA03F7BC4305FA03FC4CEA040491F827
:1025F00003C0BCF1280F05D100F1080C08FA0CF853
:10260000C2F8148091F803C0BCF1480F07D100F163
:10261000080C4FF0010808FA0CF8C2F81080401CB2
:102620000828CED35460BDE8F0814FF6FF710180D9
:10263000022181700421C170704702460020936816
:102640000B4201D0012000E000207047014688685D
:1026500080B2704702460020D3680B4201D00120AF
:1026600000E0002070470146C86880B270470161F1
:102670007047416170470AB1016100E041617047F4
:10268000C16070474FF480320A4382618161826188
:1026900082698269704702460020424B18684FF6F3
:1026A0008073184040EA021008433E4B18607047A0
:1026B0003D49C8617047F0B50A4600230024002157
:1026C000002500F00046B6F1004F02D1354EF16909
:1026D00001E0344E7168C0F3034583B200F4401644
:1026E000B6F5401F08D121F070612E4E766826F0B5
:1026F00070662C4F7E6012E000F48016B6F5801FE5
:1027000006D1032606FA05F4A14341F0706106E004
:10271000460D360103FA06F6B14341F0706122B16D
:10272000460D360103FA06F6314300F00046B6F1D5
:10273000004F02D11B4EF16101E01A4E7160F0BDF5
:1027400030B500228B071C0F0F2303FA04F2154B40
:1027500008338C1053F824309343124C08348D10F6
:1027600044F8253023468C1053F824308C07240F6E
:1027700000FA04F423430B4C08348D1044F8253040
:1027800030BD0A490860704700080140000C014054
:10279000001001400014014000180140001C0140DD
:1027A000002001400000014000002042DC002042E7
:1027B0000E49086070470D49486070470B498860B2
:1027C00070474AF6AA200949086070474CF6CC4089
:1027D00006490860704701460020044AD2680A4250
:1027E00001D0012000E000207047000000300040D0
:1027F000DC48006840F00100DA490860084640689B
:10280000D9490840D749486008460068D749084078
:10281000D44908600846006820F480200860084613
:10282000406820F4FE0048604FF41F008860704745
:10283000CC49096821F48031CA4A116011460968FF
:1028400021F480211160B0F5803F03D0B0F5802FD6
:102850000ED106E0C349096841F48031C14A1160D4
:1028600007E0C049096841F4A021BE4A116000E0B8
:1028700000BF00BF704710B50146002200230020B2
:102880004A11012A02D1B74C236806E0022A02D17C
:10289000B44C236A01E0B34C636A01F01F020124C7
:1028A00094401C4201D0012000E0002010BD70B512
:1028B00000240025002600BF3120FFF7DCFF06467C
:1028C000641CB4F5A06F01D0002EF5D03120FFF7C5
:1028D000D2FF08B1012500E00025284670BD014661
:1028E0000020A04A106820F0F80040EAC100106003
:1028F00070479F490860704702460020994B58680E
:1029000020F47C1042EA01031843964B586070474C
:1029100097490866704701460020924A506820F0A7
:1029200003000843506070478E48406800F00C0078
:102930007047014600208B4A506820F0F0000843A1
:102940005060704701460020864A506820F4E060DD
:1029500008435060704701460020824A506820F4C6
:10296000605040EAC1005060704729B17D4A527AF8
:1029700002437C4B5A7206E07A4A527AC343DBB276
:102980001A40784B5A7270477A490860704701467E
:102990000020744A506820F440400843506070475B
:1029A0000021754A11706F4A82F82010012802D068
:1029B000042808D103E001216F4A117004E00521C9
:1029C0006D4A117000E000BF00BF70476B4908609E
:1029D00070476449096A0143624A11627047674956
:1029E00044390860704730B50021002200240023DC
:1029F0005C4D6D6805F00C0121B1042905D0082952
:102A000023D105E05E4D056022E05D4D05601FE0CD
:102A1000544D6D6805F47012524D6D6805F48034A4
:102A2000022505EB92421CB9564D554305600BE05B
:102A30004C4D6D6815F4003F03D0524D5543056071
:102A400002E04F4D5543056002E04D4D056000BF6B
:102A500000BF444D6D6805F0F00109094A4D6B5CFB
:102A60000568DD4045603F4D6D6805F4E061090A89
:102A7000454D6B5C4568DD4085603A4D6D6805F4F9
:102A80006051C90A404D6B5C4568DD40C560354DFD
:102A90006D6805F44041890B3C4D6B5CC568B5FB26
:102AA000F3F5056130BD29B12E4A526902432D4B21
:102AB0005A6104E02B4A526982432A4B5A6170479B
:102AC00029B1284A92690243264B9A6104E0254ABB
:102AD00092698243234B9A61704729B1214AD26996
:102AE0000243204BDA6104E01E4AD26982431D4B47
:102AF000DA61704729B11B4AD2680243194BDA6088
:102B000004E0184AD2688243164BDA60704729B154
:102B1000144A12690243134B1A6104E0114A126904
:102B20008243104B1A61704714494039086070475E
:102B30000F49C86470470B49C87170470948406A1B
:102B400040F0807007494862704701460020054AFE
:102B500092680A4201D0012000E00020704701493C
:102B600088727047001002400000FFF8FFFFF6FE79
:102B700000004242D80042422010024080044242FB
:102B800000127A0000093D00CC000020DC0000208B
:102B900010B50446BF48844208D101218014FFF7D4
:102BA000A9FF0021A014FFF7A5FF16E0BA48844250
:102BB00008D101210014FFF7AAFF00212014FFF71C
:102BC000A6FF0AE0B548844207D10121C013FFF7F0
:102BD0009EFF0021E013FFF79AFF10BD10B5002201
:102BE000028802F441520B884C8823438C8823438B
:102BF000CC8823430C8923434C8923438C8923436A
:102C0000CC8923431A430280838B4FF2FF74234005
:102C100083830B8A038210BD2DE9F04F85B00546F2
:102C20000C464FF0000902274FF000084FF0010B4F
:102C30000026B246A88B4FF240010840A88302202C
:102C40002884B5F81C90A068022801D100BF36E0A6
:102C5000A08810B94FF0010B01E04FF0020B8E4835
:102C6000854200D100E000BF6846FFF7BCFEDDF8FA
:102C700000A0E088B0F5007F0AD14FEA1A2000EBEF
:102C800080004000A168B0FBF1F0401D86B20BE06F
:102C90004FEA4B10BAFBF0F000EB80004000A16857
:102CA000B0FBF1F0401D86B20A20B6FBF0F606F04C
:102CB0000108A6EB0800C0F34F074FEA0828022FCF
:102CC00001DBFF2F02DD02274FF00008E08840EA19
:102CD000080038432884A088A189084361880843F4
:102CE0002188084340F4006040EA0909A5F81C90D7
:102CF00005B0BDE8F08F0021018041808180C18056
:102D0000018141818181C1810721018270470021B8
:102D1000018041808180C180022181600021818108
:102D2000704721B1028842F04002028004E002882C
:102D30004FF6BF731A400280704721B1828B42F474
:102D40008062828304E0828B4FF6FF331A408283D5
:102D5000704770B5002400230C110125A540ABB2CB
:102D60001AB185881D43858004E08588DE43B6B2AC
:102D70003540858070BD10B51AB183880B438380C0
:102D800004E08388CC43A4B22340838010BD8181BA
:102D90007047014688897047A1F57E42FF3A04D00A
:102DA000028842F48072028004E002884FF6FF63DA
:102DB0001A400280704721B1828842F0040282806A
:102DC00004E082884FF6FB731A40828070470288C5
:102DD0004FF2FF731A40028002880A430280704754
:102DE000018841F480510180704721B1028842F48A
:102DF0000052028004E002884DF6FF731A40028000
:102E0000704702460020012901D0108B00E0908A13
:102E100070470146088A7047B1F5804F04D1028897
:102E200042F48042028004E002884BF6FF731A40AD
:102E3000028070470246002013890B4201D0012016
:102E400000E000207047CA4302817047F0B5024697
:102E5000002000240023002501F00F070126BE40BA
:102E6000B4B20B1101269E40B3B2968806EA030560
:102E70001689264202D00DB1012000E00020F0BDED
:102E800010B5002201F00F040123A3409AB2D343EE
:102E9000038110BD0030014000380040003C00407C
:102EA00010B50446FE48844208D10121C014FFF742
:102EB00021FE0021E014FFF71DFEC4E0B4F1804FB5
:102EC00008D101210846FFF722FE00210120FFF76B
:102ED0001EFEB8E0F348844208D101210220FFF72A
:102EE00016FE00210220FFF712FEACE0EE488442FD
:102EF00008D101210420FFF70AFE00210420FFF77A
:102F000006FEA0E0E948844208D101210820FFF72D
:102F1000FEFD00210820FFF7FAFD94E0E44884421A
:102F200008D101211020FFF7F2FD00211020FFF74A
:102F3000EEFD88E0DF48844208D101212020FFF720
:102F4000E6FD00212020FFF7E2FD7CE0DA48844224
:102F500008D101214014FFF7CDFD00216014FFF7D7
:102F6000C9FD70E0D548844209D10121C804FFF7AA
:102F7000C1FD00214FF40020FFF7BCFD63E0D04805
:102F8000844209D101210805FFF7B4FD00214FF467
:102F90008010FFF7AFFD56E0CA48844209D10121F5
:102FA0004805FFF7A7FD00214FF40010FFF7A2FD31
:102FB00049E0C548844208D101214020FFF7A7FD20
:102FC00000214020FFF7A3FD3DE0C048844208D126
:102FD00001218020FFF79BFD00218020FFF797FD56
:102FE00031E0BB48844208D101218015FFF78FFDF5
:102FF0000021A015FFF78BFD25E0B648844209D1DA
:1030000001210804FFF776FD00214FF48030FFF71F
:1030100071FD18E0B048844209D101214804FFF74E
:1030200069FD00214FF40030FFF764FD0BE0AB4871
:10303000844208D101218804FFF75CFD00214FF490
:103040008020FFF757FD10BD00220288944B984264
:103050000ED0994B98420BD0B0F1804F08D0914BD5
:10306000984205D0904B984202D0904B984204D1A0
:103070004FF68F731A404B881A438D4B984207D0F6
:103080008C4B984204D04FF6FF431A40CB881A432A
:1030900002808B8883850B880385814B98420BD0F7
:1030A000854B984208D08B4B984205D08A4B98426A
:1030B00002D08A4B984201D10B7A03860123838286
:1030C000704770B5002400220023058C4FF6FE7671
:1030D00035400584028C8388048B4FF68F752C4015
:1030E000B51E2C400D882C43751E2A400D892A439D
:1030F0004D882A436A4DA8420BD06F4DA84208D094
:10310000744DA84205D0744DA84202D0734DA84218
:1031100013D14FF6F7752A404D892A434FF6FB75B8
:103120002A408D882A434FF6FF652B404FF6FF5506
:103130002B408D892B43CD892B4383800483CD88FD
:103140008586028470BD70B5002400220023058CA2
:103150004FF6EF7635400584028C8388048B48F661
:10316000FF752C404FF6FF452C400D882D0644EA94
:1031700015444FF6DF752A400D892D0542EA1542A8
:103180004D882D0542EA1542454DA84202D04A4DD0
:10319000A8421BD14FF67F752A404D892D0542EA82
:1031A00015424FF6BF752A408D882D0542EA15421B
:1031B0004FF6FF352B404FF2FF752B408D89AD0444
:1031C00043EA1543CD89AD0443EA15438380048364
:1031D000CD880587028470BD70B5002400220023CD
:1031E000058C4FF6FF6635400584028C8388848BFE
:1031F0004FF68F752C404FF6FC752C400D882C43F4
:103200004FF6FF552A400D892D0642EA15424D889A
:103210002D0642EA1542224DA84202D0264DA84270
:103220001BD14FF2FF752A404D892D0642EA154207
:103230004FF6FF352A408D882D0642EA15424EF69C
:10324000FF752B404DF6FF752B408D892D0543EA08
:103250001543CD892D0543EA154383808483CD88AA
:103260008587028470BD70B5002200230024058C80
:103270004EF6FF7635400584038C8488828B48F6B1
:10328000FF752A404FF6FF452A400D882D0642EA79
:1032900015424DF6FF752B400D892D0720E00000EB
:1032A000002C01400004004000080040000C0040D9
:1032B000001000400014004000340140004C014068
:1032C000005001400054014000180040001C004024
:1032D00000200040004001400044014000480140FF
:1032E00043EA15434D882D0743EA1543F84DA8429C
:1032F00002D0F84DA84206D14BF6FF752C408D89BF
:10330000AD0544EA154484808283CD88A0F84050FE
:10331000038470BD828B4FF2FF331A408283828B0D
:103320000B0642EA134282837047F0B50C461546FD
:10333000002200210026078C4EF6FF7C07EA0C07CE
:103340000784828B018C27073E0C40F6FF473A40EA
:103350002F0642EA17421F0742EA1742DC4FB842E3
:103360000ED0DC4FB8420BD0B0F1804F08D0DA4F0E
:10337000B84205D0D94FB84202D0D94FB84206D191
:103380004DF6FF77394046F48057394305E047F65C
:10339000FF57394044F48057394382830184F0BD9C
:1033A000828B4FF6F3731A408283828B0A438283A7
:1033B0007047F0B50C461546002200210026078C08
:1033C0004FF6FF6C07EA0C070784828B018C2706F7
:1033D0003E0C4FF60C773A401F0545EA17473A4333
:1033E000BB4FB8420ED0BB4FB8420BD0B0F1804FAC
:1033F00008D0B94FB84205D0B84FB84202D0B84F44
:10340000B84206D14FF6FF57394046F4807739432A
:1034100005E04FF2FF57394044F480773943828307
:103420000184F0BD028B4FF2FF331A400283028BFE
:103430000B0642EA134202837047F0B50C4615466C
:10344000002200210026078C4FF6EF7C07EA0C07CC
:103450000784028B018C27053E0C40F6FF473A405B
:103460001F0742EA17422F0642EA1742984FB84216
:103470000ED0984FB8420BD0B0F1804F08D0964F85
:10348000B84205D0954FB84202D0954FB84206D108
:103490004FF6DF77394046F01007394305E04FF625
:1034A0005F77394044F01007394302830184F0BD4F
:1034B000028B4FF6F3731A400283028B0A43028396
:1034C0007047F0B50C46154600220021068C4FF6D9
:1034D000FE773E400684028B018C4FF60C7632401C
:1034E0001E0545EA16463243794EB0420ED0794E5B
:1034F000B0420BD0B0F1804F08D0774EB04205D02B
:10350000764EB04202D0764EB04206D14FF6FD76EE
:10351000314044F00106314305E04FF6F576314085
:1035200044F00106314302830184F0BD70B50546C5
:103530000C46674885420ED0664885420BD0B5F1EF
:10354000804F08D06448854205D06448854202D047
:103550006348854200D100E000BF208850B923892C
:10356000A28861882846FFF7ACFFE1882846FFF76C
:103570009FFF25E0208804280AD12389A28861883A
:103580002846FFF75AFFE1882846FFF74BFF17E070
:10359000208808280AD12389A28861882846FFF755
:1035A00008FFE1882846FFF7FBFE09E02389A2888F
:1035B00061882846FFF7B9FEE1882846FFF7AAFE92
:1035C00070BD2DE9F04105460C46002601276088B4
:1035D00008B9022600E00026A088012801D10227B0
:1035E00000E001272088A0B92389A28861882846A5
:1035F000FFF767FFE1882846FFF75AFF23893A461D
:1036000031462846FFF719FFE1882846FFF70AFFF1
:1036100013E02389A28861882846FFF70EFFE1881E
:103620002846FFF7FFFE23893A4631462846FFF732
:1036300048FFE1882846FFF73BFFBDE8F0810A8894
:103640004B881A438B881A43CB881A430B891A4339
:103650004B891A438B891A43A0F8442070474FF6D0
:10366000FF71818000210180C1804180017270471B
:103670000021018041808180C1800181418181815F
:10368000C18170470021018041800121818000219A
:10369000C180018170470021018041808180C1800B
:1036A000018141818181704721B1028842F001028C
:1036B000028004E002884FF6FE731A4002807047D1
:1036C00081B1B0F8442042F40042A0F844200FE059
:1036D000002C01400034014000040040000800407C
:1036E000000C0040B0F84420C2F30E02A0F84420C1
:1036F000704710B51AB183890B43838104E0838935
:10370000CC43A4B22340838110BD8182704741EA3B
:103710000203A0F84830704710B51AB183890B43F3
:10372000838104E08389CC43A4B22340838110BD0C
:1037300001894FF6F8721140018170470A46002155
:1037400001894FF68F73194011430181704730B5DD
:1037500004460D4629462046FFF7F0FF208940F039
:103760000700208130BD2DE9F04104460D46164684
:103770001F46602D06D13B46012231462046FFF709
:103780005CFE05E03B46012231462046FFF799FEEC
:1037900029462046FFF7D2FF208940F0070020810C
:1037A000BDE8F08130B50C4600210189C9B21D0683
:1037B00042EA154525432943018130BD2DE9F041F9
:1037C00005460E4617469846002443463A4631467B
:1037D0002846FFF7E7FF2C894FF6F870044044F0C5
:1037E00007044FF68F70044044F070042C81BDE84C
:1037F000F081F0B504460D4616461F463B4632465C
:1038000029462046FFF7CEFF208940F480402081E2
:10381000F0BD0185828270470A46002101884FF67B
:103820008F731940114301807047F0B50C4615465F
:103830001E460021002200230189028B038C4FF6D3
:10384000F877394021434FF6FC473A4040F20117E0
:103850003A434FF6DD773B40370545EA17473B4390
:10386000018102830384F0BD0A460021018B4FF6DB
:103870008F7319401143018370470A460021018B61
:1038800048F6FF731940130641EA1341018370475C
:103890000A460021818B4FF68F73194011438183B3
:1038A00070470A460021818B48F6FF7319401306C2
:1038B00041EA13418183704721B1028842F08002BE
:1038C000028004E002884FF67F731A40028070473E
:1038D00021B1828842F00402828004E082884FF69F
:1038E000FB731A408280704721B1828842F008023F
:1038F000828004E082884FF6F7731A408280704716
:1039000021B1828842F00102828004E082884FF671
:10391000FE731A40828070470A460021018B4FF6E1
:10392000F77319401143018370470A460021018B48
:103930004FF2FF731940130641EA134101837047A8
:103940000A460021818B4FF6F7731940114381839A
:1039500070470A460021818B4FF2FF73194013060E
:1039600041EA1341818370470A460021018B4FF6DB
:10397000FB7319401143018370470A460021018BF4
:103980004FF6FF331940130641EA13410183704794
:103990000A460021818B4FF6FB7319401143818346
:1039A00070470A460021818B4FF6FF3319401306FA
:1039B00041EA1341818370470A460021018B4FF68B
:1039C0007F7319401143018370470A460021018B20
:1039D000C1F30E01130641EA1341018370470A4601
:1039E0000021818B4FF67F7319401143818370470B
:1039F0000A460021818BC1F30E01130641EA1341EF
:103A0000818370470A460021018C4FF6FD731940EF
:103A10001143018470470A460021018C4FF6F77369
:103A200019401143018470470A460021018C4FF66A
:103A3000DF731940130541EA1341018470470A46B8
:103A40000021018C4FF67F731940130541EA1341A1
:103A5000018470470A460021018C4FF6FF5319403C
:103A6000130641EA1341018470470A460021018C84
:103A70004FF2FF731940130641EA13410184704766
:103A80000A460021018C4DF6FF731940130741EAE5
:103A900013410184704730B5002301248C40A3B248
:103AA000048CDD43ADB22C400484048C02FA01F591
:103AB000ADB22C43048430BD30B5002304248C40C7
:103AC000A3B2048CDD43ADB22C400484048C02FA12
:103AD00001F5ADB22C43048430BD70B5034600201F
:103AE00000241846183001258D40ACB21D8CE643E9
:103AF000B6B235401D8409B1082909D100EB610037
:103B0000056825F0700505600568154305600CE043
:103B10000D1FADB200EB6500056825F4E0450560BA
:103B20000568160645EA1645056070BD21B1028894
:103B300042F00202028004E002884FF6FD731A4050
:103B40000280704721B1028842F00402028004E042
:103B500002884FF6FB731A400280704721B18288B9
:103B600042F08002828004E082884FF67F731A4020
:103B70008280704702884FF6F7731A4002800288ED
:103B80000A430280704782884FF68F731A40828002
:103B900082880A438280704702894FF6F8731A4080
:103BA000028102890A430281704702894FF67F73BE
:103BB0001A40028102890A4302817047818470475A
:103BC000818570478186704701877047818770477C
:103BD000A0F84010704702884FF6FF431A40028059
:103BE00002880A43028070470146888E704701466A
:103BF000088F70470146888F70470146B1F8400032
:103C000070470146888C70470146088D7047024610
:103C10000020138A0B4201D0012000E000207047F1
:103C2000CA430282704730B50246002000230024B8
:103C3000158A05EA0103958905EA010413B10CB15F
:103C4000012000E0002030BDCA430282704700001E
:103C500010B50446FC48844209D101218803FEF7CF
:103C600049FF00214FF48040FEF744FF32E0F7485F
:103C7000844209D101214804FEF749FF00214FF495
:103C80000030FEF744FF25E0F148844209D10121CC
:103C90008804FEF73CFF00214FF48020FEF737FF39
:103CA00018E0EC48844209D10121C804FEF72FFF37
:103CB00000214FF40020FEF72AFF0BE0E648844283
:103CC00008D101210805FEF722FF00214FF48010E2
:103CD000FEF71DFF10BD2DE9F04786B005460E46E4
:103CE0000024A24600BFA1460027B08900B100BF52
:103CF0002F462C8A4CF6FF700440F08804432C8237
:103D0000AC894EF6F3100440B088318908437189BC
:103D100008430443AC81AC8A4FF6FF400440B089AD
:103D20000443AC8201A8FEF75EFEC748874202D179
:103D3000DDF810A001E0DDF80CA0A88910F4004F18
:103D400008D00AEBCA0000EB0A1031684900B0FB4A
:103D5000F1F807E00AEBCA0000EB0A1031688900AD
:103D6000B0FBF1F86420B8FBF0F0040120096421F5
:103D700001FB1089A88910F4004F08D0322000EB15
:103D8000C900B0FBF1F000F00700044308E0322066
:103D900000EB09106421B0FBF1F000F00F000443C8
:103DA0002C8106B0BDE8F0874FF416510160002168
:103DB0008180C18001810C21418100218181704776
:103DC00010B502460020108A4FF2FF0318400B88FE
:103DD0004C8823438C882343CC8823431843108288
:103DE00010BD0021018041808180C180704721B1D8
:103DF000828942F40052828104E082894DF6FF7389
:103E00001A4082817047F0B5034600240026002541
:103E10000020A1F510676A3F00D100BF1846C1F32A
:103E2000421401F01F06012707FA06F5012C01D103
:103E30000C3004E0022C01D1103000E014301AB133
:103E400007682F43076002E00768AF430760F0BDD3
:103E500010B51AB1838A0B43838204E0838ACC4372
:103E6000A4B22340838210BD028A4FF6F0731A4039
:103E70000282028A0A430282704782894FF2FF73EC
:103E80001A40828182890A438281704721B18289E6
:103E900042F00202828104E082894FF6FD731A40EB
:103EA00082817047028A4FF6DF731A400282028ACB
:103EB0000A430282704721B1028A42F480420282A0
:103EC00004E0028A4BF6FF731A4002827047C1F386
:103ED00008028280704701468888C0F30800704756
:103EE000818941F0010181817047028BD2B2028346
:103EF000028B42EA012202837047028B02F47F4266
:103F00000283028B0A430283704721B1828A42F006
:103F10002002828204E0828A4FF6DF731A40828296
:103F2000704721B1828A42F01002828204E0828AC4
:103F30004FF6EF731A408282704721B1828A42F0B5
:103F40000802828204E0828A4FF6F7731A40828266
:103F5000704721B1828942F40042828103E0828964
:103F6000C2F30E028281704721B1828A42F400625C
:103F7000828204E0828A4FF2FF731A408282704785
:103F8000828A4FF6FB731A408282828A0A438282B7
:103F9000704721B1828A42F00202828204E0828A62
:103FA0004FF6FD731A408282704702460020B1F539
:103FB000007F00D100BF13880B4201D0012000E038
:103FC0000020704701F40072B2F5007F00D100BFFD
:103FD000CA430280704770B50246002400230025C2
:103FE0000020A1F510666A3E00D100BFC1F3421562
:103FF00001F01F03012606FA03F3012D02D1968971
:10400000334006E0022D02D1168A334001E0968A41
:1040100033400C12012606FA04F41688344013B11A
:104020000CB1012000E0002070BD10B5002200237B
:10403000A1F510646A3C00D100BF0A12012494402B
:10404000A3B2DC43048010BD0038014000440040AE
:1040500000480040004C00400050004010B586B0C1
:10406000044601210820FEF72BFD01210820FEF760
:1040700027FDB348FFF7ECFD4FF48060ADF8140066
:1040800018208DF8170003208DF8160005A9AD48FB
:10409000FEF742FA4FF40060ADF8140004208DF8EA
:1040A000170003208DF8160005A9A648FEF734FA7C
:1040B00001940020ADF80800ADF80A00ADF80C003E
:1040C000ADF810000C20ADF80E0001A99C48FFF7D8
:1040D00002FE012240F225519948FFF794FE40F27A
:1040E00026619748FFF7A1FF01219548FFF77FFE62
:1040F0004FF44070FDF76EFD27208DF8000004207E
:104100008DF8010000208DF8020001208DF80300D9
:104110006846FDF764FD06B010BD10B504460220E8
:10412000894981F8280089480068FFF797FF4FF018
:10413000FF30208010BD00B587B001210420FEF7BC
:10414000BFFC01218803FEF7BBFC4FF40070ADF803
:10415000180018208DF81B0003208DF81A0006A9FE
:104160007B48FEF7D9F94FF48060ADF818000420C1
:104170008DF81B0003208DF81A0006A97448FEF77D
:10418000CBF94FF4E13002900020ADF80C00ADF80F
:104190000E00ADF81000ADF814000C20ADF81200C0
:1041A00002A96C48FFF797FD012240F225516948AA
:1041B000FFF729FE40F226616648FFF736FF01212E
:1041C0006448FFF714FE4FF44070FDF703FD25200F
:1041D0008DF8040003208DF8050000208DF80600FE
:1041E00001208DF8070001A8FDF7F9FC07B000BD1C
:1041F00010B591F82820022A00D010BD564A127836
:1042000012B1012A49D10CE0232809D10122534BD4
:104210001A700022524B1A70087001224E4B1A700D
:104220003BE04E4A1278052A03DA4C4A1278885449
:104230002DE04B4A127842B12A2806D1484A12781A
:10424000521E4B1D9A5C2E2A03D0454A1278232A0F
:1042500015DB0022404B1A70414A1278232A0ADAF1
:104260003F4A13781278521C3D4C22704A1DD0549C
:10427000002324781355132281F828200DE0384AB2
:1042800013781278521C364C22704A1DD054334A8F
:104290001278521C314B1A7000BF00BF00BFACE750
:1042A000B1F80221FF2A0DDAB1F80221531CA1F85E
:1042B0000231885441F28832A1F80021002281F8AD
:1042C000052105E00022A1F80021012281F8052145
:1042D0007047B1F90020824202D200220A8007E032
:1042E000B1F90020002A03DD0A88121A12B20A80EE
:1042F00070472DE9F04105460E4600242F4600BFC9
:1043000005E0395D17A007F091FF601CC4B2B4420C
:10431000F7DBBDE8F0812DE9F04105460E460024AB
:104320002F4600BF05E0395D0EA007F07FFF601C3F
:10433000C4B2B442F7DB0CA007F078FFBDE8F0810F
:1043400000480040000C014053020020840000207F
:104350000008014000380140E0000020E10000209A
:10436000E2000020256300000A00000000BF00BF3B
:104370004FF4E15300FB03F2002100E0491C91429D
:10438000FCD3704700210022C0EBC00200BF00E058
:10439000491C9142FCD3704770B503460C46184641
:1043A000511E10E00A25B0FBF5F605FB1605303569
:1043B00065540A25B0FBF5F605FB1605451B0A26D4
:1043C000B5FBF6F0491E0029ECDA70BD10B50246C7
:1043D0000120002300BF01E050435B1C8B42FBD354
:1043E00010BD2DE9F04780460D4616460024A14633
:1043F0000027A24630223146284607F02BFAB4B2F5
:104400001AE0611E0A20FFF7E1FFA8EB0A01B1FBE9
:10441000F0F087B2611E0A20FFF7D8FF07FB00A06B
:104420001FFA80FA07F1300005F8090009F10100D0
:104430001FFA80F9601E84B2012CE2DABDE8F08731
:104440002DE9F04780460D4616460024A146002778
:10445000A24630223146284607F0FCF9344614E0E3
:10446000611E0A20FFF7B2FFA8EB0A01B1FBF0F7CB
:10447000611E0A20FFF7AAFF07FB00AA07F1300020
:1044800005F8090009F10109641E002CE8D1BDE816
:10449000F0871FB5014606A41DCC8DE81D0010292C
:1044A00003DA1DF8010004B010BD0020FBE7000096
:1044B000303132333435363738394142434445465A
:1044C00070B50446002541F28830FE49088010E0AE
:1044D000615DFD48FFF7FBFC00BF4021FA48FFF794
:1044E00064FD0028F9D0605D0D2800D170BD681C06
:1044F000C5B2605D18B1F34800880028E8D10020FB
:10450000F049088000BFF1E710B50446BCB9EFA040
:1045100007F08CFE0221F348FEF7ABF84FF47A70F7
:10452000FFF724FF0221EF48FEF7A1F84FF4FA60ED
:10453000FFF71CFF0221EB48FEF79BF810BD012C92
:104540001ED1E9A007F072FEECA0FFF7B9FF4FF40F
:10455000FA60FFF70BFF0221E248FEF78AF84FF4FA
:104560007A70FFF703FF0221DE48FEF780F84FF470
:10457000FA60FFF7FBFE0221DA48FEF77AF8DDE782
:10458000022C0AD1E0A007F051FEDCA0FFF798FF53
:104590004FF44870FFF7EAFED0E7032C37D1E0A0D4
:1045A00007F044FEE8A0FFF78BFF4FF49660FFF79B
:1045B000DDFEE6A0FFF784FF4FF49660FFF7D6FE1E
:1045C000E3A0FFF77DFF4FF49670FFF7CFFEE1A069
:1045D000FFF776FF4FF49670FFF7C8FEE1A0FFF7F4
:1045E0006FFF4FF49670FFF7C1FEE1A0FFF768FF81
:1045F0004FF49670FFF7BAFEE0A0FFF761FF4FF4AB
:104600009670FFF7B3FEDFA007F010FE96E7BBA0A1
:10461000FFF756FF4FF4FA60FFF7A8FE0221B148FA
:10462000FEF727F84FF47A70FFF7A0FE0221AD489D
:10463000FEF71DF84FF4FA60FFF798FE0221A94833
:10464000FEF717F800BF79E710B50020CF490870D2
:10465000CF490880CF4908601420CF490870002056
:10466000CE490860CE490870CE48CF4908600A207C
:10467000CE490870CB48C74908600220CC4981F870
:104680002E020020CB490870022081F87000CA4930
:1046900081F87800C94A0F214FF4857003F0DFFFDD
:1046A000C74A0F2140F2191003F0D9FFC54A05216E
:1046B0004FF4977003F0D3FFC34A05214FF49C7069
:1046C00003F0CDFF0020FFF71FFF10BD00B587B03E
:1046D00001210420FEF7F4F901214804FEF7FDF959
:1046E0000420ADF8180018208DF81B0003208DF869
:1046F0001A0006A97B48FDF70FFF0820ADF8180047
:1047000004208DF81B0003208DF81A0006A97548B7
:10471000FDF702FF4FF4E13002900020ADF80C00ED
:10472000ADF80E00ADF81000ADF814000C20ADF897
:10473000120002A96448FFF7CEFA012240F2255187
:104740006148FFF760FB40F226615F48FFF76DFCB0
:1047500001215D48FFF74BFB0220ADF81800032054
:104760008DF81A0010208DF81B0006A95D48FDF792
:10477000D3FE02215B48FDF77CFF4FF44070FDF74C
:1047800029FA26208DF8040002208DF8050000206B
:104790008DF8060001208DF8070001A8FDF71FFA2B
:1047A00007B000BD47490988814203D20021454A2C
:1047B000118007E04349098821B142490988091A53
:1047C000404A118071490978202904D1704909882B
:1047D0000A316F4A118071490968814203D2002170
:1047E0006E4A116007E06D49096821B16B4909689B
:1047F000091A6A4A11606C490968814203D2002192
:10480000694A116007E06849096821B16649096889
:10481000091A654A116065490978814203D200216D
:10482000624A117007E06149097821B15F4909784E
:10483000091A5E4A117057490968814203D2002162
:10484000544A116007E05349096821B15149096888
:10485000091A504A1160704710B55CA0FFF730FE8E
:104860004FF49670FFF782FD5AA0FFF729FE4FF430
:104870009670FFF77BFD5AA0FFF722FE4FF496706B
:10488000FFF774FD3AA0FFF71BFE4FF49670FFF799
:104890006DFD57A0FFF714FE4FF49670FFF766FD0D
:1048A00058A0FFF70DFE4FF49670FFF75FFD59A07B
:1048B000FFF706FE4FF49670FFF758FD59A0FFF77B
:1048C000FFFDB5E0E600002000440040506F776532
:1048D000722075702073696D206D6F64756C650A48
:1048E000000000000008014052657374617274207A
:1048F00073696D206D6F64756C650A0061742B635C
:10490000706F77643D300D005475726E2073696D61
:10491000206D6F64756C65206F66660A000000008C
:1049200053796E6368726F6E697A6520626175642F
:104930007261746520776974682047534D204D6F0C
:1049400064756C650A00000041000000410D000024
:1049500041540D0041542B4950523D3131353230D4
:10496000300D000041542B43475245473D310D0067
:1049700041542B434D47463D310D000041542657CD
:104980000D00000046696E6973680A001800002077
:10499000E8000020EC00002042000020F40000208D
:1049A000E5000020A0BB0D00F0000020E400002086
:1049B000C0060020150400209C03002033020020C4
:1049C000430200200C0000201200002061742B67BD
:1049D000736E0D0041542B4346554E3D310D000082
:1049E00041542B435343533D2247534D220D000066
:1049F00041542B434E4D493D312C312C302C302C21
:104A0000300D000041542B434D47443D312C340DB3
:104A10000000000041542B434D47443D312C330DE1
:104A20000000000041542B434C49503D310D000023
:104A30004FF49670FFF79AFCFEA0FFF741FD4FF48C
:104A40009670FFF793FCFDA0FFF73AFD4FF49670C8
:104A5000FFF78CFCAFF2F400FFF732FD4FF49670D5
:104A6000FFF784FCAFF2EC00FFF72AFD4FF49670DD
:104A7000FFF77CFCF5A0FFF723FD4FF49670FFF7DE
:104A800075FCF5A0FFF71CFD4FF49670FFF76EFC68
:104A900010BD00B585B01422F149684606F0C8FE85
:104AA000F0A0FFF70DFD4FF49670FFF75FFCF0A04C
:104AB000FFF706FD4FF49670FFF758FCF04840787A
:104AC00030B1EF494978491E5DF82100FFF7F8FC45
:104AD0004FF4FA70FFF74AFCEAA0FFF7F1FC4FF43D
:104AE0009670FFF743FC2C22EAA1F64806F0A0FEE0
:104AF000F448F5490A68C0F82520097980F829109A
:104B00000F22F249133006F093FEEE48FFF7D8FC6F
:104B100005B000BD2DE9F84304460D4617460026B2
:104B2000B04694F82E02012840F0F586E848E9499D
:104B300008600222E8A1204606F0B5FE80B90220F6
:104B400084F82E021E20E87007203870E348807A2F
:104B5000012802D1E2A007F069FB1E20BDE8F8831E
:104B60000722E2A1204606F09EFEE8B9022084F862
:104B70002E021C20E870082038706420DD4908707F
:104B80000020DD490860DD490870D148DC49086033
:104B90000A20DC490870D148807A012802D1DAA0C5
:104BA00007F044FB1C20D9E70922DCA1204606F0CF
:104BB0007AFE88B9022084F82E021D20E8700920B0
:104BC00038700220D84908702820CA490870D7A038
:104BD00007F02CFB1C20C1E70722D7A1204606F0D6
:104BE00062FEE8B9022084F82E022020E8700A2034
:104BF00038702820BF490870CB48007820F080002A
:104C0000C94908700846007840F002000870B348AF
:104C1000807A012802D1CAA007F008FB20209DE776
:104C20001122CBA1204606F03EFEC0B9022084F836
:104C30002E021420E870BC48007820F08000BA49A9
:104C400008700846007840F002000870A348807A97
:104C5000012802D1C3A007F0E9FA14207EE7102250
:104C6000C4A1204606F01FFEB8B9022084F82E0227
:104C70001520E870AC480078802805D0AA48007854
:104C800040F00200A84908709448807A012802D1B7
:104C9000BDA007F0CBFA152060E70F22BEA1204689
:104CA00006F001FEB0B9022084F82E021620E8704A
:104CB0009D48007800F00200022802D0BAA0FFF759
:104CC000FFFB8648807A012802D1BAA007F0AEFA2D
:104CD000162043E71022BBA1204606F0E4FD28B1D0
:104CE0000B22BDA1204606F0DEFD20B9022084F88B
:104CF0002E020B2038701122BAA1204606F0D3FDF7
:104D000028B10622BCA1204606F0CDFD60BB0220E2
:104D100084F82E022820774908701920E8701320A3
:104D200038708148007820F080007F490870B448CE
:104D3000B4A10A6802604A6842600A890281897ADD
:104D40008172B348407820F00300801CB04948705D
:104D50006248807A18B9AFA007F068FA02E0AFA005
:104D600007F064FA1920F9E61522B0A1204606F0F2
:104D70009AFD78B9022084F82E021820E8700620E7
:104D800038705648807A012802D1AEA007F04EFA5A
:104D90001820E3E60C22AFA1204606F084FD68BB94
:104DA000022084F82E021A20E8700A203870282089
:104DB000504908705C48007820F080005A4908701B
:104DC0008F4890A10A6802604A6842600A8902819D
:104DD000897A81728E48407820F00300801C8C49CB
:104DE000487046480078401C444908703B48807A27
:104DF00010B19CA007F01AFA1A20AFE60A229EA171
:104E0000204606F050FD58B10A229EA1204606F029
:104E10004AFD28B10922A0A1E01D06F044FD38B9E1
:104E2000022084F82E021B20E8700520387039E13A
:104E300053E10000617465300D00000041542B43C4
:104E40004950535052543D310D00000041542B4302
:104E50005341533D310D000061742B6373710D009C
:104E6000A4D2000861742B636970736875740D00B7
:104E700061742B6369706D75783D300D0000000022
:104E80001900002061742B636970686561643D31AD
:104E90000D00000061742B63697073746172743D5E
:104EA00022746370222C222A2A2A2E2A2A2A2E2AA7
:104EB0002A2A2E2A2A2A222C222A2A2A2A2A220D81
:104EC00000000000F80000200C0000203302002049
:104ED000A0BB0D00EC0000203E2000008403002059
:104EE00020207C5F446174613E20000053454E44A5
:104EF000204F4B0042000020F4000020E50000207D
:104F0000F0000020E400002020207C5F5245535F29
:104F100053454E445F4F4B0A0000000053454E443A
:104F2000204641494C0000001800002053454E44E3
:104F30005F4641494C0A000053485554204F4B00EE
:104F400020207C5F534855545F4F4B0A00000000FF
:104F500053544154453A20495020494E49544941FF
:104F60004C00000020207C5F49505F494E49544965
:104F7000414C0A0053544154453A2049502053545F
:104F8000415455530000000020207C5F49505F537E
:104F900054415455530A000053544154453A204952
:104FA000502053544152540061742B6369696372F9
:104FB0000D00000020207C5F49505F535441525443
:104FC0000A00000053544154453A205044502044B4
:104FD00045414354000000002B5044503A204445C2
:104FE0004143540053544154453A205443502043C4
:104FF0004C4F534544000000434C4F534544000080
:10500000DD0A002041542B434950534855540D00AC
:10501000B40600202E2E2E2E2E0A000020207C5FAB
:105020005443505F434C4F5345440A00535441543A
:10503000453A2054435020434F4E4E454354494E29
:105040004700000020207C5F434F4E4E45435449AB
:105050004E470A00434F4E4E454354204641494C6B
:105060000000000020207C5F434F4E4E4543545FBC
:105070004641494C0A000000434F4E4E45435420E0
:105080004F4B000053544154453A20434F4E4E4538
:105090004354204F4B000000434F4E4E4543544570
:1050A00044000000FD48FE4908600A20FD490870E0
:1050B0000020FD4908808020FC4908706420FC49DC
:1050C0000870FC48807A18B1FBA007F0AFF802E046
:1050D000FDA007F0ABF81B2040E51122FCA1204603
:1050E00006F0E1FB40BB022084F82E021720E87096
:1050F0002820EF490870ED48007820F08000EB4947
:105100000870F848AFF204110A6802604A68426009
:105110000A890281897A8172F348407820F003007D
:10512000801CF1494870E348807A012802D1EFA041
:1051300007F07CF81B2011E50922F0A1204606F0BB
:10514000B2FB68B9022084F82E0210202870D948DA
:10515000807A012802D1ECA007F068F81020FDE465
:105160000922EFA1204606F09EFB80B9022084F8B8
:105170002E020D2028702820CD490870CD48807A55
:10518000012802D1E9A007F051F80D20E6E4092238
:10519000EBA1204606F087FB70B9022084F82E02AE
:1051A000EAA0FFF78DF9C348807A012802D1EAA06E
:1051B00007F03CF80E20D1E40922EBA1204606F0CE
:1051C00072FB80B9022084F82E020F20287028205C
:1051D000B7490870B748807A012802D1E5A007F0E6
:1051E00025F80F20BAE40A22E9A1204606F05BFB6D
:1051F00028B10A22E9A1204606F055FB98B9022001
:1052000084F82E020A20A870A848007840F0010017
:10521000A6490870A748807A012802D1E2A007F0C9
:1052200005F80A209AE40522E3A1204606F03BFB9C
:1052300018BB022084F82E02A0798DF80000E079D6
:105240008DF80100684606F04EFB68716879052804
:1052500005DA0220387028209549087001E0032003
:1052600038702420E8709348807A012803D1697946
:10527000D3A006F0DBFF0B2070E40622D5A1204668
:1052800006F011FB00283FD1022084F82E020E20E8
:1052900028708648007840F0020084490870CFA149
:1052A000204606F0EAFA30B102206870CDA006F080
:1052B000BDFF022052E4D1A1204606F0DEFA30B153
:1052C00001206870D0A006F0B1FF012046E4D4A10F
:1052D000204606F0D2FA20B9D4A1204606F0CDFA35
:1052E00030B103206870D4A006F0A0FF032035E49D
:1052F000D7A1204606F0C1FA30B105206870D7A0CA
:1053000006F094FF052029E40B22DAA1204606F0DE
:10531000CAFAF0B9217B04F50670DA4A1278815492
:10532000D8490978405CD8490872D6480078401CB2
:10533000D44908700720A8700220D44981F8700071
:1053400084F82E0201200870D1A006F06FFF07201C
:1053500004E41822D3A1204606F0A5FA90BB02204F
:1053600084F82E0230220B21D54806F073FA00266D
:1053700005E02021C548401C8155701CC6B26E2E28
:10538000F7DB0026B0460AE006F11800215CCC4AA3
:10539000701C1154C6B208F1010000F0FF0806F1BC
:1053A0001800205C222801D00B2EEDDB182601E02E
:1053B000701CC6B2A05D0A28FAD14FF00008701C1C
:1053C000C6B20BE01DE03046711CCEB2225C4046F6
:1053D000411C01F0FF08AD49491C0A54A05D0D288D
:1053E000F1D10120A94981F870003248807A30B1AA
:1053F00008464378421CB249B2A006F017FF0720C6
:105400000DE40722B7A1204606F04DFAB8B9B7A0BF
:1054100006F00CFF022084F82E023248AFF61C2161
:105420000A6802604A684260896881602E48407854
:1054300020F00300801C2C49487011200EE4072244
:10544000AEA1204606F02FFA70B904F10A026421D9
:105450004FF4AA7003F0D9F80020AA49087002207E
:1054600084F82E02002017E40A22A7A1204606F0A5
:105470001AFA88B9022084F82E021120A87019485F
:10548000AFF280410A6802604A6842600A8902817C
:10549000897A817214483DE144E10000A0BB0D000F
:1054A000F0000020E4000020E800002018000020A8
:1054B000420000208403002020207C5F434F4E4E9A
:1054C0004543545F4F4B0A002E2E2E2E0A0000003B
:1054D00053544154453A2049502047505253414378
:1054E00054000000DD0A0020B406002020207C5F6C
:1054F000475052535F4143540A0000002B43475228
:1055000045473A203300000020207C5F5245474940
:10551000535445525F44454E4945440A000000003B
:105520002B43475245473A203000000020207C5F43
:105530004E4F545F52454749535445440A000000BA
:105540002B43475245473A203100000061742B63DA
:105550006F70733F0D00000020207C5F524547496B
:10556000535445440A0000002B43475245473A2014
:105570003500000020207C5F4E575F52454749535D
:105580005445445F524F414D494E470A00000000C8
:1055900043616C6C205265616479000043414C4C5E
:1055A000205245414459000020207C5F43414C4C2F
:1055B00052454144590A00002B4353513A20000000
:1055C00020207C5F47534D205349474E414C3A20A1
:1055D00025640A002B434F50533A00005649455466
:1055E00054454C0020207C5F5649455454454C207E
:1055F0004E6574776F726B0A0000000056494E4189
:1056000050484F4E4500000020207C5F56494E41D7
:1056100050484F4E45204E6574776F726B0A0000FC
:105620004D4F4249464F4E45000000004D6F6269A4
:10563000666F6E650000000020207C5F4D4F424980
:1056400050484F4E45204E6574776F726B0A0000CC
:105650004265656C696E6520564E000020207C5FB7
:105660004265656C696E65204E6574776F726B0A72
:10567000000000002B434D54493A2022534D222C68
:105680000000000049010020200000201504002037
:1056900020207C5F534D5320696E636F6D696E6788
:1056A0000A0000002B434D47523A20225245432026
:1056B000554E52454144222C222B38340000000024
:1056C0003D01002020207C5F534D5320636F6D65AA
:1056D0002066726F6D3A2025733A2025733B202592
:1056E000640A00002B434D47533A200044656C6523
:1056F00074652053656E74534D530A002B43555304
:10570000443A2000410000204E4F2043415252496C
:1057100045520000407820F00300801CFE4948708C
:105720001120D9E40722FDA1204606F0BCF810BBE9
:10573000022084F82E0208264FF0000809E0A05D40
:10574000F84901F80800701CC6B208F1010000F029
:10575000FF08A05D2228F2D1F348F4A10968016096
:10576000ED48407820F00300801CEB494870002091
:10577000A8700820B0E4EF4890F87800022855D1CE
:105780000422EDA1204606F08EF870BB022084F8BA
:105790002E02EB484078102839D1002601E0701C19
:1057A000C6B2FF2E02DAA05D3A28F8D106F1080051
:1057B000205C062807D1701C21184FF40672E148BE
:1057C00006F036F805E0701C21181122DD4806F0BD
:1057D0002FF80120DB4911390874B4F82C02A0F528
:1057E0000071163902D0012001E01FE00020D549E8
:1057F0001139097E062901D1012100E0002108426A
:1058000012D00021CF4811388176C1760CE00C20EF
:1058100038700120C74981F8780078222146C548B0
:1058200006F006F82220E870002055E420783028A1
:1058300022DB207839281FDC607830281CDB607878
:10584000392819DCA078302816DBA078392813DC39
:10585000E078302810DBE07839280DDC207930281A
:105860000ADB2079392807DC22460F2140F23F105D
:1058700002F0CBFE00202FE40222AFF2FC712046A2
:1058800006F011F858B9022084F82E02AC48807A4C
:10589000012802D1ACA006F0C9FC06201CE40522B8
:1058A000ABA1204605F0FFFF58B9022084F82E0274
:1058B000A348807A012802D1A7A006F0B7FC1320E4
:1058C0000AE41222A7A1204605F0EDFF38B9022014
:1058D00084F82E02A8A006F0A9FC13202BE41122C4
:1058E000A9A1204605F0DFFF88B9ACA006F09EFC18
:1058F0000020AE490870022084F82E0242F2107097
:10590000FEF734FD0020FEF7FFFD092013E42146D9
:10591000A7A006F08BFC022084F82E0200200AE4E7
:105920002DE9F04788B0814688464FF0000AA44828
:10593000007858B9B9F10D0F08D10020A1490880AD
:1059400001209F49087008B0BDE8F0879C480078A6
:10595000012809D1B9F10A0F06D100209949088020
:10596000022097490870EEE796480088042825DA57
:10597000944801880088401C924A108008F2212037
:1059800000F8019098F821023E2833D140F22220FD
:1059900010F8080020282DD10020114608808849E1
:1059A00008703E2088F80000202088F801000020C0
:1059B00088F80200012088F82E02C4E78148018897
:1059C0000088401C7F4A108008F80190104600882B
:1059D000B0F5067F08D1002011460880784908708C
:1059E000012088F82E0205E0002176480088401C3E
:1059F00008F800107248007802282AD171480088FF
:105A0000042826D1042270A108F2212005F04BFFC2
:105A100028B900206B4908806949087018E098F897
:105A2000210288F8000040F2222010F8080088F8CF
:105A3000010040F2232010F8080088F802004FF41B
:105A4000097010F8080088F8030003205C4908700A
:105A500079E75B480078032848D1B9F10A0F1AD1D9
:105A600058480088801E18F800000D2813D1002126
:105A700054480088401E08F8001052480088801ED4
:105A800008F8001000204F4908804D490870012097
:105A900088F82E0229E04B480088052818D10522F5
:105AA0004BA1404605F0FFFE18B904204449087098
:105AB0001BE0052220A1404605F0F5FEA8B9002014
:105AC000A8F82C024449088005203D4908700CE0E4
:105AD0003C4800880D2808D10D2240A1404605F021
