:020000040800F2
:1000000098250020490100088B16000825160008D5
:1000100089160008090F0008A51B00080000000051
:10002000000000000000000000000000611A00084D
:100030005112000800000000AD160008651A000803
:100040006301000863010008630100086301000800
:1000500063010008630100085512000859130008E5
:1000600063010008991300089B130008630100084E
:1000700063010008630100086301000863010008D0
:1000800063010008630100086301000863010008C0
:100090006301000863010008630100089D13000864
:1000A00063010008630100086301000863010008A0
:1000B000D11A000863010008630100086301000809
:1000C0006301000863010008630100086301000880
:1000D00063010008511B0008630100086301000868
:1000E000951200086301000863010008630100081D
:1000F0006301000863010008630100086301000850
:10010000630100086301000863010008630100083F
:100110006301000863010008F91A0008251B0008A4
:10012000630100086301000863010008630100081F
:10013000DFF810D000F08CFA004800474932000880
:10014000AFF3008098250020064880470648004706
:10015000FEE7FEE7FEE7FEE7FEE7FEE7FEE7FEE777
:10016000FEE7FEE7751A00083101000810B500220D
:1001700000E0521C835C8C5CA34201D1002BF8D1BF
:10018000D8B2E1B2401A10BD30B504460020034693
:1001900000E05B1C934203D2E05CCD5C401BF8D0D6
:1001A00030BD70B5064601F019FD046805460A2207
:1001B0000021304600F05CF82C6070BD00F0004279
:1001C00030F000400AD0C10D01F56071C0F3160097
:1001D00042EA0151C208400711437047002001461E
:1001E000704730B50B46014600202022012409E06B
:1001F00021FA02F59D4205D303FA02F5491B04FAE0
:1002000002F52844151EA2F10102F1DC30BD2DE9F2
:10021000F05F0546002092469B468846064681468A
:1002200040241BE0284641464746224600F031FA6A
:1002300053465A46C01A914110D3114618462246D9
:1002400000F018FA2D1A67EB01084F4622460120EC
:10025000002100F00FFA17EB00094E41201EA4F117
:100260000104DFDC484631462A464346BDE8F09F9C
:100270002DE9F04791460F4680460446002614F8C3
:10028000015B2DB100F028FA0068405DC007F6D18F
:100290002B2D02D02D2D18D0641E4A4639462046FB
:1002A00000F01EFA27B13968A14201D1C7F80080D9
:1002B00071054FF002040BD54042002803DD01F028
:1002C0008DFC0460A007BDE8F08746F48066E4E793
:1002D0000028F8DA01F082FC04606FF00040F2E7D9
:1002E0002DE9FE4F804681EA0300C00F0C460090C6
:1002F00021F0004123F00045B8EB0200A94105D2EE
:100300004046214690461C460B46024623F00040DC
:10031000104347D0270DC7F30A00C3F30A510290D8
:10032000401A019040286BDAC3F3130040F4801B9D
:100330000098924620B10023D2EB030A63EB0B0B2B
:1003400001985946C0F14002504600F093F9064624
:100350000D4650465946019A00F0ABF910EB0800E3
:100360006141002487EA115284EAE7731A4340D0BE
:10037000009A62B3019A012A4FEA075215DC001B6A
:1003800061EB02014FF0004202EA0752CDE9004260
:10039000001C41F5801132462B4600F0FFF903B0F6
:1003A000BDE8F08F40462146F9E7001B61EB0201F2
:1003B000001C41F5801300185B412018A2F50017BE
:1003C00047EB030140EAD570B6196D4111E06D08A5
:1003D0004FEA360645EAC0754FEA0752001B61EB4B
:1003E0000201001C41F5801149084FEA3000001954
:1003F000514132462B4603B0BDE8F04F00F0BFB983
:100400000098012240000023D0EB020263EBE0736E
:10041000009821464FEAE074B8EB000061EB04015C
:10042000E9E783F000435BE781F0004158E72DE9FD
:10043000FE4F81EA030404F0004421F000410094DF
:100440004FF0000B23F0004350EA01045ED052EA63
:1004500003045BD0C3F30A54C1F30A552C44A4F23D
:10046000F3340194A0FB0254C1F3130141F4801151
:10047000C3F3130343F4801301FB024400FB034E58
:10048000840A970A44EA815447EA8357A4FB076821
:1004900002958D0A05FB07854FEA932C04FB0C544B
:1004A0002705029D4FEA065847EA1637B5EB0805BF
:1004B0006EEB070C870E920E47EA811742EA831211
:1004C000A7FB0201B6EB0B0164EB00042B0D43EA22
:1004D0000C335E1844EB1C50DA465146E7FB020130
:1004E000C5F313044FEA0B3343EA14534FEA0432C3
:1004F000019C43EA0603A4F10C040294009CCDE99C
:1005000000B400F04BF903B0BDE8F08F00200146C5
:10051000F9E72DE9F04D81EA030404F0004B21F0E6
:10052000004514464FF0000A23F0004150EA05024E
:1005300020D054EA01021DD0C5F30A570246C5F384
:100540001303C1F31300C1F30A5640F4801543F4BA
:100550008013A7EB0608101BD64608F2FD3873EB94
:10056000050002D308F1010801E092185B41B8F1DF
:10057000000F03DA00200146BDE8F08D00204FF4A3
:100580008011064684460EE0171B73EB050705D362
:10059000121B63EB050306434CEA010C49084FEAC2
:1005A000300092185B4150EA0107EDD152EA030096
:1005B00012D082EA040083EA0501084305D0101B2B
:1005C000AB4106D20122002306E000224FF0004397
:1005D00002E06FF0010253101AEB06004CEB0851D9
:1005E00010EB0A0041EB0B01BDE8F04D00F0C7B87D
:1005F000C1F30A52C1F3130140F2FF3341F48011F9
:100600009A4202DA00200146704740F233439A4290
:10061000A2F2334202DC524200F03BB800F02AB8AA
:1006200030B5041E71F1000404DB4FF00044404279
:1006300064EB0101141E73F1000405DB1C464FF04E
:100640000043524263EB0403994208BF904230BD1D
:10065000064C074D06E0E06840F0010394E807000F
:1006600098471034AC42F6D3FFF766FD44500008BB
:1006700064500008202A04DB203A00FA02F100202E
:1006800070479140C2F1200320FA03F319439040D0
:100690007047202A04DB203A21FA02F0002170473B
:1006A00021FA02F3D040C2F12002914008431946DA
:1006B0007047202A06DBCB17203A41FA02F043EAC2
:1006C000E07306E041FA02F3D040C2F1200291400B
:1006D000084319467047000000487047F44E000870
:1006E0002DE9F05F82460078002715468B460AF117
:1006F0000104B946302801D09DB113E014F8010B74
:100700000127782803D0582801D045B10AE00DB15F
:10071000102D07D10027102514F8010B02E0082541
:1007200000E00A250026B0460EE005FB080005FBA8
:1007300006F1012701EB10461FFA80F8B6F5803F5D
:1007400000D3B94614F8010B294600F075F80028CB
:10075000EBDABBF1000F05D00FB1641E00E0544688
:10076000CBF80040B9F1000F06D001F037FA0221B2
:100770000160C81EBDE8F09F48EA0640FAE710B5E0
:10078000141E73F1000408DA401C41F100019218B4
:100790005B411A4301D120F0010010BD2DE9F04D5D
:1007A00092469B4611B1B1FA81F202E0B0FA80F2B2
:1007B00020329046FFF75EFF04460F4640EA0A00EB
:1007C00041EA0B0153465A46084313D0114653EAF7
:1007D000010019D0C8F140025046FFF75AFF054604
:1007E0000E46504659464246FFF744FF084305D09F
:1007F000012004E020463946BDE8F08D0020054385
:1008000046EAE0762C4337430A986305E40AA0EBF6
:1008100008000022FD0A44EA47540A3002D50020AD
:100820000146E9E7010510196941DDE908450019AC
:100830006941BDE8F04DA2E73A2800D2303820F0F7
:100840002002412A01D3A2F13700884201D34FF0A0
:10085000FF3070470FB410B5094C607800F01EFCF3
:1008600003AB4FF480610748029A01F09DF982B210
:100870000449607800F0BEFB10BC5DF814FB00007A
:100880000C000020B40800200FB410B5104C6078A4
:1008900000F004FC0F480D2103AB01700A214170E8
:1008A00020218170C170017141718171C17101722A
:1008B0004172817249010B30029A01F075F90B30D7
:1008C00082B20449607800F095FB10BC5DF814FB1F
:1008D0000C000020B408002070B5204D4FF47A7150
:1008E0002868B0FBF1F0401EB0F1807F34D24FF0A9
:1008F000E024606166170F21304600F0C7FE00203B
:10090000A061072020610021304600F0BFFE0020DA
:1009100002F078FD124C60602868A060022002F0AE
:1009200071FD2061032002F06DFDA06140F20260C4
:1009300002F070FE40F2036002F06CFE40F20460D0
:1009400002F068FE40F2076002F064FEBDE870400D
:100950004FF4A06002F05EBEFEE70000040000203D
:10096000D41400202DE9F041104A1149022000F072
:10097000EBFB00240F4E274604EB840006F82070A2
:1009800006EB80050023D5E90310012200F088FB67
:10099000D5E9031002F0AEFB641CE4B2022CEBD3E9
:1009A000BDE8F0410F21022000F01EBCB90900088B
:1009B000A08601002400002010B5044800F046FE87
:1009C0000248BDE81040143000F040BE2400002072
:1009D0002DE9F0410228069E21D2124C00EB800541
:1009E00053EA060704EB850002D0FF2B06D007E090
:1009F000D0E9031002F07EFB00200EE0FF2E0BD0AA
:100A000000290CD0002A0AD0002B08D0002E06D0D6
:100A100001724272022000E0012004F82500BDE8C6
:100A2000F08100002400002010B5022813D200EB52
:100A30008001094800EB8104D4E9031002F0BAFBFD
:100A4000012801D0012200E00022D4E90310BDE812
:100A5000104002F051BB10BD2400002010B54FF42F
:100A60001064204602F05EFD204602F069FD012878
:100A7000FAD1052140F6DD7002F002FBBDE810401E
:100A800002F02EBB02F024BB02488168491C816041
:100A900080687047B4140020034840680349C0F3DD
:100AA000425051F820007047B4140020143A000856
:100AB00010B502460C4B4FF0FF30002153F8214097
:100AC00094420DD10948426822F4600242604268B3
:100AD0004FF4600303EA41510A434260002010BD15
:100AE000491C0829EAD910BD143A0008B4140020A2
:100AF00005490128486803D020F08070486070479D
:100B000040F08070FAE70000B41400200549012885
:100B1000486803D020F000704860704740F00070D3
:100B2000FAE70000B4140020034900204968890155
:100B300000D5012070470000B4140020094800B51A
:100B4000002141608160C160016001214161022199
:100B500081610321C1614FF4E130FFF7A9FF00205B
:100B600000BD0000B41400202DE9F047274C0746D3
:100B7000A06878B326484168C9020FD54168C1F31F
:100B80001301B1F5805F09D34168C1F31301B1F5D9
:100B90004C3F03D84068C0F3130500E000256FB355
:100BA000002626704FF48068DFF868A0B1461EE08A
:100BB0004246394606F5004000F052FE00205146FC
:100BC000CC463A5C2378CB5C9A4204D12278521C02
:100BD000227002E013E084F800C02278102A01D3CA
:100BE0002E4602E0401C4045EBD306F58066AE423F
:100BF000DED31DB12078102805D0012503E00025A3
:100C0000284600F009F82846BDE8F08714000020C7
:100C1000B4140020343A000810B5134A134B0100F5
:100C200019D09868B8B16FF48050114C0844A042B4
:100C30000ED21878102802D06FF0010011E054682D
:100C40000020C1F3130141F480110C43546008E00B
:100C50006FF0020005E051684FF0FF306FF31401B0
:100C600051600021197010BDB41400201400002040
:100C7000FF1F0300064B10B59B682BB100F5004029
:100C800000F0EEFD002010BD4FF0FF3010BD000061
:100C90001400002010B51248002404708068D0B100
:100CA00010484168C90210D54168C1F31301B1F57C
:100CB000805F0AD34168C1F31301B1F54C3F04D8FA
:100CC0004068000301D0E41E07E00020FFF7A4FF06
:100CD00000F0D8F801E04FF0FF34204610BD0000CE
:100CE00014000020B41400202DE9F0411E4C0E46E3
:100CF0001546A168002931D000F5004031468046F4
:100D000000F057FEA9B2304602F092F807462A4694
:100D10003146404600F0A4FDA9B2304602F088F802
:100D200087421DD121780020102917D200230F49B6
:100D30001A4611E0F75C94F800C011F80CC0674542
:100D400003D127787F1C277000E022702778102FAE
:100D500000D3ABB25B1C9BB2AB42EBD3BDE8F081DE
:100D60006FF00100FAE7000014000020343A000898
:100D70000649054848600168A1F531428A3A01D028
:100D80000020704700687047C07F002014000020DA
:100D90000349496808B14BF28A1008600020704787
:100DA000140000202DE9F04126480088264CA06060
:100DB00000F09AF901466068416041680026042904
:100DC00001D10660C6602149816000F05DFDA06030
:100DD000A06850B3E6601E4D4FF40047A8464BF2A2
:100DE0008A1614221A49E06800F03AFD2888B042B9
:100DF0001FD1E0681030B8420AD2D8F81000401C69
:100E000006D0288AB04211D1E0681030E060E8E7EF
:100E1000D8F804100125C8F81410D8F80810C8F83C
:100E20001810D8F80C10C8F81C1007E04FF0FF3568
:100E300003E06FF00105FFF781FEE7602846BDE89B
:100E4000F08100008600002014000020443A0008D1
:100E5000B414002002484068406800F00F0070475A
:100E6000140000200549CA680244CA60044A526856
:100E7000D3681844D060C86870470000B4140020DC
:100E80001400002070B51E4CA068B8B31D4801695D
:100E90000268914207D141694268914203D1816958
:100EA000826891422AD04168416181688161C1684C
:100EB000C16114484BF28A1101804188491C41806C
:100EC000E0681030E060E0684FF400460025103024
:100ED000B04200D3E560E06838B10AE0E06800F0B5
:100EE00081FCE06800F58050E060E068B042F5D336
:100EF000E56010220349E06800F074FD002070BD39
:100F000014000020B4140020FEE7000030B50F49A3
:100F10004A884FF40064521C92B2A24200D30022CD
:100F20008D880023AA4206D18A88521C8A808A882A
:100F3000A24200D38B80064A4D8850554888401CF9
:100F400048804888A04200D34B8030BD0C00002070
:100F5000B40C00202DE9F04104464FF000080228AF
:100F60003ED2214DB4BB214E40F202602E6002F011
:100F700051FB40F20E6002F04DFB1D4F7315032232
:100F80001821384602F0BEF83315032204213846F2
:100F900002F0B8F8304602F0B7FC4FF4E1313046C9
:100FA00002F07EFC0421304602F021FD082130468B
:100FB00002F023FD0021304602F0E2FC0021304621
:100FC00002F0E4FC304602F0CBFC00221146252062
:100FD00002F0C4F955F8240040F2053102F0DCFCBF
:100FE0004046BDE8F0810000740000200038014058
:100FF000000801402DE9F047DFF8889016460F46BB
:101000000446DFF87C80A9F1080535E0D8F8002017
:1010100049F8242021E000BF59F82410D8F8000036
:10102000401A642819D955F82400174902F0BEFC6B
:1010300055F82400154902F0B9FC55F8240014496C
:1010400002F0B4FC55F82400124902F0AFFC55F848
:101050002400114902F0AAFC06E055F824000721FB
:1010600002F083FC0028D7D017F8011B55F82400A4
:1010700002F046FC761EB6B2002EC7D1BDE8F0875E
:10108000080000207C00002005030500070307007E
:101090000005030000050200000501007047000084
:1010A00010B5072A10D2DFE802F004170F0F0F1B4C
:1010B0001B00012B0AD0022B0B464FF0030209D074
:1010C0005FF0040102F01EF8002010BD0B46032261
:1010D0004821F7E72821F5E70B4603221021F1E725
:1010E0000B4603220021EDE710B5072440F61F1040
:1010F00002F008FA08B1002421E040F61E1002F0C8
:1011000001FA08B101241AE040F61D1002F0FAF9C4
:1011100008B1022413E040F61C1002F0F3F908B104
:1011200003240CE040F61B1002F0ECF908B1042493
:1011300005E040F61A1002F0E5F900B1052420465A
:1011400010BDFFF79FBC00002DE9FF414FF0FF33BA
:1011500003283DD2214D041E45F82020204A42F2AA
:10116000107552F820701F4A9268B2FBF5F54FF4E3
:101170007A72B1FBF2F101EB810103EB4106A5F1BB
:10118000010504D0012805D0022C06D009E04FF457
:10119000E06004E040F2047001E040F2057002F00B
:1011A00039FA384602F0DAFA0020ADF80050ADF80E
:1011B0000400ADF80200ADF806008DF80C000296B0
:1011C0006946384602F00CFB384602F003FB00E0AB
:1011D0001C4604B02046BDE8F081000080150020C8
:1011E0005C4E0008D414002070B50E460446032857
:1011F00012D20B48012150F82450284602F042FB3D
:101200000748F1B208380022005D02F0A7F801217A
:10121000284602F033FB01E04FF0FF34204670BD5A
:101220005C4E000870B503280CD20849044651F8FA
:1012300020500839085D02F085F80121284602F0A7
:1012400019FB01E04FF0FF34204670BD5C4E0008F2
:101250007047000010B5012001F006FE002815D0EF
:10126000012001F0FBFD0A480121006801F09DFF0B
:10127000012809D000210648054A4030403A00784C
:101280005268BDE8104010470121F4E710BD00008E
:10129000301500202DE9F0414FF48057384601F019
:1012A000E3FD2C4C04F14005A4F1400660B1384642
:1012B00001F0D4FD3946206B01F077FF01283FD0C3
:1012C0000021326B287B90474FF40057384601F0DD
:1012D000CBFD60B1384601F0C1FD3946606B01F0CD
:1012E00064FF01282ED00021726B687B90474FF479
:1012F0008047384601F0B8FD60B1384601F0AEFDD8
:101300003946A06B01F051FF01281DD00021B26BBE
:10131000A87B90474FF40047384601F0A5FD002810
:1013200016D0384601F09AFD3946E06B01F03DFFDA
:1013300001280BD00021E87BF26BBDE8F04110479B
:101340000121BEE70121CFE70121E0E70121F2E71A
:10135000BDE8F0813015002010B5022001F084FDB9
:10136000002815D0022001F079FD0A4802214068CA
:1013700001F01BFF012809D000210648054A403032
:10138000403A40785268BDE8104010470121F4E728
:1013900010BD0000301500207047704770B5402028
:1013A00001F062FD154C04F14005A4F1400660B166
:1013B000402001F053FD4021A06901F0F6FE012814
:1013C00017D00021B269A8799047802001F04CFD28
:1013D000002812D0802001F041FD8021E06901F059
:1013E000E4FE012807D00021E879F269BDE87040E9
:1013F00010470121E6E70121F6E770BD3015002016
:101400002DE9F05F6FF0704425464FF00066002232
:1014100006EBC223984204D303F50067B84200D21A
:101420001446994204D303F50063994200D215464D
:10143000521C802AECD3802C21D2802D1FD22F1B4E
:1014400040F2053A4FF4417B6FF002087F1C13E035
:1014500006EBC42001F0B4FD8146504601F056FD74
:10146000584601F053FD40F2023001F04FFDB9F152
:10147000000F00D04746641CAC42E9D901E06FF090
:1014800001073846BDE8F09F01F086BD2DE9F05F09
:10149000044640F2053A17460D460026504601F034
:1014A00035FD4FF4417B584601F030FD40F20230EB
:1014B00001F02CFDDFF88090274435E00026D9F8B4
:1014C000008007E0D9F80010A1EB0801A1F59850C1
:1014D00088381BD001F0E6FC18B101F003FD0028AC
:1014E000F0D12988204601F01FFD8046504601F0CA
:1014F0000DFD584601F00AFD40F2023001F006FDF4
:10150000B8F1000F07D04FF0FF360DE00B490CA0EB
:10151000FFF7A0F9E5E728882188884202D06FF01C
:10152000010601E0A41CAD1CA74201D9002EC5D0C4
:101530003046BDE8F09F000008000020063A000891
:101540000D0A25733A20466C6173682054696D65F5
:101550006F75740D0A0000002DE9F041054616462E
:10156000884600204FF4806717E03C46A64200D82A
:101570003446690504D105F137012846FFF740FFDD
:10158000002811DB224641462846FFF77FFF00284E
:1015900007DB361B2544A044401C002EE5D1BDE8E6
:1015A000F0816FF00100FAE74FF0FF30F7E701F04C
:1015B0004BBD000010B5FFF7DBFB002817D0002063
:1015C000FFF7E6FB0A4972B600204FF0E0221061F7
:1015D00050619061012080F3108808684A68054BCB
:1015E000196080F3088862B6BDE81040104710BD4E
:1015F00000C8000808ED00E010B10748FFF7C8FB7D
:10160000BFF34F8F05480168054A01F4E0611143BB
:101610000160BFF34F8FFEE70CA8259B0CED00E0A7
:101620000400FA05EFF3088101A0FFF72DF9FEE7AA
:101630002D2D2D2D3E20486172644661756C745FBE
:1016400048616E646C6572202578000010B5044610
:101650000078022817D16078217A884204D1D4E931
:10166000031001F047FD0BE0207A617A08446178AD
:10167000884205D8D4E9031001F03AFD00206070DB
:101680006078401C607010BDFEE770470907090EC6
:10169000002806DA00F00F0000F1E02080F8141DA9
:1016A000704700F1E02080F8001470477047000098
:1016B0001021014801F01EBD000801401021014821
:1016C00001F016BD0008014030B51F4C87B01D4821
:1016D000206040F2026001F09DFF40F20C6001F0DA
:1016E00099FF4FF4C06001F095FF0121174801F008
:1016F00067FD174D402303220421284601F002FD17
:10170000A02303221821284601F0FCFC1023032209
:101710001946284601F0F6FC00204FF48271CDE90D
:1017200000100290691505900690CDE903106946F6
:10173000206801F0A8FF206801F096FF07B00020A4
:1017400030BD0000003001408C000020000230005D
:101750000008014070B50D46044603E000F006F8AD
:1017600004F8010B28466D1EF8D270BD002000F071
:101770000DB870B50D46044603E0207800F006F879
:10178000641C28466D1EF8D270BD000070B50B4C6D
:1017900005460221206801F071FF0028F9D0294692
:1017A000206801F069FF0121206801F067FF00282F
:1017B000F9D0206801F05DFFC0B270BD8C00002040
:1017C00010B500F028F900F065F8FFF777FFC720A3
:1017D000FFF7DCFFFFF76CFF01490120087010BD27
:1017E0008400002010B5044600F054F800F013F90E
:1017F000FFF764FF2146202000F0CBF8FFF758FFE9
:1018000001490220087010BD8400002008B5FFF7D0
:101810004FFFFFF759FFFFF751FF0021902000F025
:10182000B8F802216846FFF795FFFFF741FF0B4824
:10183000002141809DF801109DF8002001EB02235A
:101840008380521EFD2A05D8122903D3202901D8EE
:10185000818841807B210170408808BD8400002080
:1018600070B515460E46044600F014F8FFF726FF43
:101870002146032000F08DF829463046FFF76AFF25
:10188000BDE87040FFF714BF014840887047000072
:101890008400002070B50D4C2078002815D00C4D28
:1018A0006D1EFFF70BFF0520FFF770FFFFF75EFFD0
:1018B0002070FFF7FDFE207800F0010020702078F6
:1018C00008B1002DECD10020207070BD84000020F4
:1018D000006CDCF22DE9F04104460F461546000588
:1018E00015D0C4F30B0041196019B1F5805F13D90D
:1018F000C0F30B06951B2A463946204600F096F8A1
:101900002C442046FFF76EFF7919204612E020464E
:10191000FFF768FF2A460FE055FA84F1B1F5807FA2
:101920000AD9C6B2951B2A463946204600F07EF8F1
:1019300079196019324601E039462046BDE8F04188
:1019400000F074B82DE9F04104460E46000509D0B8
:10195000C4F30B008118A018B1F5805F04D9C0F35F
:101960000B0507E020460EE052FA84F1B1F5807FC6
:101970000DD9C5B2571B3A463146204600F056F8FD
:10198000F119E0192A46BDE8F04100F04FB83146A0
:10199000E8E71CB58DF80000080C8DF80100080A76
:1019A0008DF802008DF8031004216846FFF7E1FE70
:1019B0001CBD2DE9F04114460E4607464FF48078D1
:1019C0000CE0FF2C01D8254600E045462A4631466A
:1019D0003846FFF77FFF641B2F442E44002CF0D1C4
:1019E000BDE8F0812DE9F04114460E4607464FF45C
:1019F00080780CE0FF2C01D8254600E045462A46B9
:101A000031463846FFF79EFF641B2F442E44002CBE
:101A1000F0D1BDE8F08110B5FFF750FE0620FFF7CA
:101A2000B5FEBDE81040FFF743BE000070B5154697
:101A30000E460446FFF72EFFFFF7EDFFFFF73EFED1
:101A400021460220FFF7A5FF29463046FFF791FE09
:101A5000FFF72EFE01490320087070BD84000020AE
:101A60007047000002480168491C0160704700008F
:101A700008000020134882B0016841F47001016041
:101A80001148016841F001010160416841F08001A5
:101A90004160002144F620620091009B5B1C009392
:101AA0009342FAD34160C1620168084A1140016063
:101AB0004FF41F018160016821F48021016002B0B0
:101AC00001F0F8BD88ED00E000100240FFFFF6FED7
:101AD00010B501218C07204601F0D7FE002808D060
:101AE0000448016888472046BDE81040012101F004
:101AF000C9BE10BD8015002010B5084C012120463C
:101B000001F0C3FE002808D00548416888472046F8
:101B1000BDE81040012101F0B5BE10BD001000402D
:101B20008015002010B5084C0121204601F0ADFEC3
:101B3000002808D00548816888472046BDE8104045
:101B4000012101F09FBE10BD00140040801500204F
:101B500070B5104E104C3146204601F031FF0F4D4C
:101B600048B13146284601F021FF204601F0C4FE6D
:101B7000C0B2FFF7CBF90A4E2046314601F020FFF4
:101B8000002805D031462846BDE8704001F00EBF60
:101B900070BD00000503050000380140004400400E
:101BA00007030700FEE700007CB50C001D46164643
:101BB000014601D0601E00E00020CDE90010064B78
:101BC0006A462946304600F0DFF8002C02D0009A21
:101BD000002111707CBD00008F2400080048704770
:101BE0009000002002E008C8121F08C1002AFAD1A4
:101BF00070477047002001E001C1121F002AFBD18D
:101C0000704700002DE9FF5F82B00021DDE904305C
:101C1000020DDDF840B0034318D044F61050A2F294
:101C2000FF3242431514119801281FD0A5EB0B0079
:101C3000401C5FEA000A4FF000064E4FDFF8389173
:101C4000B046504615D5CAF1000413E0119801249E
:101C50004AA3012801D16FEA0B010298119AC0E949
:101C60000031C0E9024206B0BDE8F09FCBF10000B0
:101C7000DFE704460021404A491842EB0450CDE911
:101C8000001012E0E00707D032463B464046494686
:101C9000FEF7CDFB8046894632463B461046194644
:101CA000FEF7C5FB06460F466410002CEAD1DDE9BD
:101CB0000401DDE90023BAF1000F06DAFEF7B7FBF5
:101CC00042464B46FEF7B3FB05E0FEF722FC4246D8
:101CD0004B46FEF71EFC04460E460022284BFEF73C
:101CE0009FFC03D84FF0FF30014607E00022254B50
:101CF00020463146FEF7F4FAFEF77AFC102409E09C
:101D0000002C0ADB0A220023FEF781FA039B303203
:101D10001A55641E50EA0102F2D1641C039AC4F100
:101D200011031444119A012A03D0012208430DD152
:101D30000AE0084304D000204FF0110B119072E725
:101D4000A3EB0B056D1E0DE05B4504DD4FF00002BB
:101D500005F1010504E003DA4FF00002A5F10105E9
:101D6000002AECD002981199C0E90231C0E900457F
:101D700079E70000000014400000F03F3000000050
:101D80000000F0430000E03F2DE9FF4F95B09A4678
:101D9000884606460025EEE1252877D1002427460F
:101DA000F94A0121039400E0044316F8013F203B67
:101DB00001FA03F01042F7D130782A2811D06FF0E1
:101DC0002F033078A0F13002092A16D8039A44F084
:101DD000020402EB820203EB42021044761C0390E1
:101DE000EFE758F8042B0392002A03DA504244F438
:101DF0000054039044F00204761C30782E2816D14B
:101E000016F8010F44F004042A280DD06FF02F02B9
:101E10003078A0F13003092B09D807EB870302EBD8
:101E20004303C718761CF3E758F8047B761C307818
:101E30006C280FD006DC4C2817D068280DD06A28F3
:101E400014D104E0742810D07A280FD10DE044F4A6
:101E500000140AE044F4801401E044F44014727861
:101E6000824202D104F58014761C761C30786628F4
:101E70000BD013DC582877D009DC002875D0452812
:101E8000F6D04628F4D047281AD193E118E0632809
:101E900035D0642879D0652812D18BE1702873D0B1
:101EA00008DC6728F1D069286FD06E280DD06F2824
:101EB00006D1ACE073282CD0752874D0782853D084
:101EC0005246179990476D1C54E1C4F30250022802
:101ED00009D003280DD0D8F8001004280DD00D60CB
:101EE00008F1040846E1D8F80010EA17C1E90052E9
:101EF000F6E7D8F800100D80F2E70D70F0E718F85B
:101F0000041B8DF8001000208DF80100EB46012025
:101F100003E058F804BB4FF0FF3061074FF00001B9
:101F200002D40DE009F101018946B9420FDA814579
:101F3000F8DB1BF809100029F4D108E009F10101D0
:101F400089468142FADB1BF809100029F6D1039873
:101F50005346A0EB090721463846179A00F080FA4D
:101F6000284400EB090507E044E008E10DE01BF818
:101F7000010B524617999047B9F10109F7D2534620
:101F800021463846179AF2E039E00A21C4F302529A
:101F90004FF0000B0091022A06D058F8040BC1172D
:101FA000032A09D00AE023E008F1070020F0070225
:101FB000F2E80201904605E000B2C117042A01D1FF
:101FC00040B2C117002906DA0A460021404261EBFF
:101FD00002012D2202E0220504D52B228DF80420D7
:101FE000012203E0E20701D02022F7E7914657E003
:101FF0000A2100E010214FF0000B00910BE01021AE
:102000004FF0000B44F004040827009103E008207F
:102010004FF0000B0090C4F30252022A05D058F88A
:10202000040B0021032A08D008E008F1070020F083
:102030000702F2E80201904603E080B2042A00D1D0
:10204000C0B24FF0000922072AD53278702A07D093
:10205000DDF800C08CF0100C5CEA0B0C05D00EE033
:1020600040228DF80420012208E050EA010306D046
:1020700030238DF804308DF8052002229146009B14
:1020800083F0080353EA0B030AD150EA010201D19D
:10209000620705D530228DF804204FF001097F1E1C
:1020A0003278582A04D039A20C920CAA02920BE082
:1020B0003BA2F9E75B46009AFEF7A9F80C9B9B5CF4
:1020C000029A521E0292137050EA0102F2D1029853
:1020D00004A9081A00F1200B600702D524F480340B
:1020E00000E001275F4502DDA7EB0B0000E00020C8
:1020F00000EB0B01009003984944401A0390E00361
:1021000006D453462146179A039800F0A9F90544CE
:10211000002706E001A85246C05D179990476D1C44
:102120007F1C4F45F6DBE0030CD553462146179A3A
:10213000039800F095F9054404E0302052461799C1
:1021400090476D1C0099481E00900029F5DC08E0BE
:102150000298029952460078491C029117999047BB
:102160006D1CBBF10001ABF1010BF1DC5BE100F098
:1021700065F90544761C307800287FF40DAE19B05F
:102180002846BDE8F08F00000928010030313233C5
:1021900034353637383961626364656600000000A3
:1021A000303132333435363738394142434445468D
:1021B00000000000600700D4062708F1070020F0A7
:1021C0000700F0E80223804603F0004C5FEA0C00B1
:1021D00001D097A009E0200501D596A005E0E00711
:1021E00001D095A001E0AFF24C001390307823F0BD
:1021F000004365280CD006DC452809D046281DD0B0
:1022000047287FD13BE0662818D067287AD136E08E
:102210000021112F01DB112000E0781CCDE9000125
:1022200004A90CA8FFF7EEFCDDE90D010C9A4FF0B4
:10223000000B07F10109109200914EE04FF00040B1
:102240000097CDE9011004A90CA8FFF7DBFCDDE93C
:102250000D020C9B0F994FF0000B914610930092CA
:1022600011B9791C00EB0109B7EB090003D4C0F1E7
:10227000FF3B07F10109A9EB0700019042E0012FA4
:1022800000DA01270021112F01DD112000E038467E
:10229000CDE9000104A90CA8FFF7B4FCDDE90D01AC
:1022A0000C9A00914FF0000BB946109221070FD401
:1022B000009A4A4503DA914601E0A9F10109B9F112
:1022C000010F05DD109AA9F10101515C3029F4D00C
:1022D000B84202DA10F1040F03DA0121CDE901104E
:1022E00010E0002803DC8344A9EB000102E0411C5C
:1022F000494500DD8946A0EB0B00401C01904FF0E2
:1023000000400290200705D40198484502DB4FF0B9
:10231000FF30019000208DF84B0002980DF14B0723
:10232000B0F1004F25D002200C902B200D90029888
:1023300000280CDA404202902D200D9007E00A217F
:102340000298FDF74EFF3031029007F8011D0C99FD
:10235000481E0C900029F2DC02980028EFD1791E6B
:102360000D980870307800F0200040F0450007F824
:10237000020D11A8C01BC01D02901398007800B177
:10238000012000EB0901019801EBE0710298014482
:102390000398401A401E0390E00306D4534621469A
:1023A000179A039800F05CF805441398007818B168
:1023B0005246179990476D1CE00323D5534621469A
:1023C000179A039800F04CF805441BE0BBF1000F8E
:1023D00007DB0098584504DD1098179910F80B009A
:1023E00001E0179930205246904701980BF1010BFC
:1023F000401E05F10105019004D12E205246179987
:1024000090476D1CB9F10001A9F10109DEDC05E07E
:1024100017F8010B5246179990476D1C0299481EF8
:1024200002900029F4DC53462146179A03989EE651
:102430002D0000002B000000200000002DE9F041DD
:10244000044600251E461746880404D405E0394694
:102450002020B0476D1C641EF9D52846BDE8F081E8
:102460002DE9F041044600251E469046C80301D5DB
:10247000302700E02027880404D505E0414638468F
:10248000B0476D1C641EF9D52846BDE8F0814A6846
:10249000002A06D00A68531C0B6010704868401E62
:1024A000486070472DE9F84FFF254648FEF75CFB72
:1024B0000646012828D04FF4806A56457ED9DFF8B9
:1024C0000891D9F800704FF0000844464346424650
:1024D00041464046CDF80080FEF77AFA00231A46BE
:1024E000194601200094FEF773FADFF8E0B0314698
:1024F0005A4637A0FEF7AEF9FFF759F8294643A030
:10250000FEF7A8F9002421E04BA0FEF7A3F955E05F
:102510000020FEF789FA0120FEF786FAA002554650
:1025200052462849FEF7A6FB0BEB84202A46254994
:10253000FFF712F8050029D4E00603D114B14AA030
:10254000FEF788F94DA0FEF785F9641CB4EB962FD1
:10255000DED9002D1ADBD9F80000C01B00EE100AEE
:10256000F8EE400A9FED461A80EE810A10EE100A3E
:10257000FDF724FE41EC100B42A053EC102BFEF7AC
:1025800069F90020FEF748FB002505E0294647A031
:10259000FEF760F96FF00205FEF776FF01200346B3
:1025A0000146009002220020FEF712FA00231A468C
:1025B00019460120CDF80080FEF70AFA2846BDE84A
:1025C000F88F0000940000200800002000C80008D8
:1025D0000D0A5B46575D204170706C6963617469D8
:1025E0006F6E206669726D776172652075706461C7
:1025F00074652025646279746520746F2061646459
:102600007220307825303878000000000D0A5B46D3
:10261000575D20457261736564202564207365638E
:10262000746F72200D0A202020202050726F677274
:10263000616D696E672000000D0A5B46575D20469C
:1026400069726D77617265206572726F72206F7248
:10265000206E6F7420666F722074686973206465E1
:1026600076696365000000000D0A202020202020EC
:102670002020202020202020202000002E000000EC
:1026800000007A440D0A5B46575D2050726F6772F6
:10269000616D20737563636573732C2074696D6558
:1026A0002025312E32667321000000000D0A5B46A2
:1026B000575D2050726F6772616D206661696C2092
:1026C00025642100064A10B50B4600211170507098
:1026D00000F052F85078BDE810401946FEF73ABCB9
:1026E0000C0000200B4910B502464B884FF0FF301C
:1026F0008C88A3420DD08888074B0344401C8880F7
:10270000187810708888B0F5006F01D30020888099
:10271000002010BD0C000020B40C00202DE9F04377
:10272000124A044613684FF0FF350B441049114F0D
:102730004FF400694FF0000C12E04E882846B1F8C3
:10274000048046450CD000208E880346BE5D26706E
:102750008E88761C8E808E884E4501D3A1F804C0E9
:102760001668B342E9D8BDE8F083000008000020F5
:102770000C000020B40C0020024800214180818020
:10278000704700000C00002031B5054C6078FEF762
:1027900085FC012269466078FEF72CFC38BD0000FC
:1027A0000C0000202DE9F84F82480024A34606685B
:1027B00040F6B838B246804DF1E000BF02684FF0F5
:1027C0000109A2EB0A01B1F57A7F22D9002420E0A9
:1027D0007848D0F800A017F8010C2E2802D1285D07
:1027E0002A2803D0285D232806D010E0022CEDD93A
:1027F000002007F8010C02E0022C08D9002028551F
:102800002146284600F008FD4FF0000901E0641C55
:10281000E4B228190746FFF765FF10B9B9F1000FB8
:10282000D6D1B9F1000FC7D164A12846FDF79EFCAF
:10283000002840D064A12846FDF798FC00283AD033
:10284000042264A12846FDF79FFC00284DD0BBF16F
:10285000000F49D0574F3E6860A12846FDF786FC1F
:10286000002846D004225BA12846FDF78DFC0028F5
:102870004BD009225BA12846FDF786FC002849D0F1
:102880000E225BA12846FDF77FFC002850D00622CF
:102890005BA12846FDF778FC00284CD05AA12846B9
:1028A000FDF764FC00286FD059A12846FDF75EFCB7
:1028B000002869D07BE0BBF1000F04D00026B346AE
:1028C00040F6B8301FE05448FDF7C4FF39480668A9
:1028D0004FF0010BDFF844815B465A46022100208D
:1028E000CDF800B0FEF774F858E0284600F0B6F8CE
:1028F00054E0FFF7D7FD002859D149A0FDF7AAFF02
:102900000026B3463046804648E0284600F0A6F848
:102910003E6843E0FEF754FF43490120002608705B
:10292000B346B04641A0FDF795FFFEF7B3FF35E093
:10293000FEF704F932E0062C03D0A8792C2807D042
:1029400035E0FEF7F1F80446FEF7A6F8024615E07A
:10295000EC79302C2BD3312C29D8287A2C2826D16D
:1029600005F10900303CFDF71CFC0746FEF7A0F816
:1029700000281CDBE0B2FEF7C9F83A46214630A039
:10298000FDF768FF0AE0FFE7012027490026B3466C
:102990000870B04622A000BFFDF75CFF0024054888
:1029A00001688A1B4245FFF409AFBDE8F88F28A0F3
:1029B000F2E7000008000020940000204143434556
:1029C000535346494C450000414343455353464900
:1029D0004C45230023573231000000005245535428
:1029E0004F5245004D454D455241534500000000B2
:1029F000504152414D4252494447454445460000EA
:102A0000434F4D4950520000235730300000000022
:102A100052455345540000009C4F0008C0D40100AB
:102A20000D0A4F4B0D0A00000C0000200D0A204635
:102A30006C6173682065726173696E6720000000C5
:102A40000D0A434F4D4950522C25642C2564230018
:102A50000D0A4552524F520D0A0000002DE9F84F61
:102A6000DFF860B205460026DBF800903046FEF73E
:102A700011F9044600200346024601460090FDF786
:102A8000A7FFFF2001220346009011461046FDF7E4
:102A90009FFF05F10B0319461A468B48FDF7DAFE36
:102AA000002C70DB002501204FF04308874C4FF4C9
:102AB000966A009003E000BFB8F1000F04D0FFF762
:102AC0005BFE4046FFF760FE51462046FFF726FEBC
:102AD00030B92078022813D0042871D018286ED07D
:102AE0006D1CEDB2102DE7D31820FFF74DFE182016
:102AF000FFF74AFE1820FFF747FE6FF001049DE044
:102B00000025A8460127E0194FF47A71FFF706FE69
:102B1000002805DA1520FFF737FE6FF002048DE07C
:102B20007F1CBFB240F205408742ECD3471F3946B5
:102B3000E01C00F07DF96178A2780A44FF2A36D1C2
:102B4000009A914233D194F8041494F8032401EBD1
:102B5000022181422BD1B6F54C3F15D20020FDF762
:102B600063FF0120FDF760FF3A46E11C3046FEF7A7
:102B7000BBF807460620FFF707FE002F10DA3F1FBD
:102B80003C002CD55AE083E01820FFF7FDFD18200B
:102B9000FFF7FAFD1820FFF7F7FD6FF003044DE093
:102BA000009806F58066401CC0B200908CE76D1C52
:102BB000FFF7E2FD1520FFF7E7FD93E700E030E0C7
:102BC0000620FFF7E1FD40F2024002E0401E80B225
:102BD000761E215C1A29F9D00620FFF7D5FD304674
:102BE000FEF71AF8DBF800100446A1EB090000EE2E
:102BF000100A9FED371AF8EE400A80EE810A10EEB7
:102C0000100AFDF7DBFA41EC100B314653EC102BA8
:102C100030A0FDF71FFEC4B1A01C18D0E41C18D0D2
:102C20003CE04FF47A712046FFF778FD20781828B1
:102C3000C3D10620FFF7A8FD4FF0FF34214634A092
:102C4000FDF708FE601C06D008E037A01DE037A0A5
:102C50001BE040A019E044A0FDF7FCFDA01C02D140
:102C600046A0FDF7F7FDE01C02D147A0FDF7F2FDFD
:102C7000201D02D148A0FDF7EDFD601D02D14CA042
:102C8000FDF7E8FDA41D09D14EA0FDF7E3FD05E029
:102C9000641C15D050A153A0FDF7DCFD01200346B4
:102CA0000246009002210020FDF792FE002003461C
:102CB0000246014600900120FDF78AFEBDE8F88F2C
:102CC0004FA1E8E708000020F84E0008940100201A
:102CD00000007A440D0A5265636569766564207464
:102CE00068652066696C65202564627974652C20AE
:102CF00074696D652025312E326673203D3E206655
:102D000069726D776172652066696C6520000000EC
:102D10000D0A52656365697665206661696C2025D8
:102D200064202D3E200000006F6B00006661696C1E
:102D30003A2066696C65206572726F72206F72202E
:102D40006E6F7420666F7220746869732064657694
:102D5000696365006661696C3A20696E76616C69C9
:102D6000642073697A65000063616E63656C6564F5
:102D70002062792072656D6F7465000073796E63EF
:102D8000206572726F7200006765742062797465E5
:102D9000206661696C00000066696C652073697A61
:102DA0006520697320746F6F206C61726765000025
:102DB0006D656D6D6F7279206572617365206661F6
:102DC000696C00006D656D6D6F7279207772697442
:102DD00065206661696C000073697A6520666169C7
:102DE0006C0000000D0A46696C65207265636569B8
:102DF0007665206661696C2C2025732E000000002A
:102E00006D656D6F7279206661696C0010B5FEF7B3
:102E100021F8014604A0FDF71DFDFFF7C3FCBDE846
:102E20001040FFF73FBB000023732D7225640D0097
:102E300030B5034600200246074C0AE013F8015B58
:102E4000521C85EA102592B234F8155085EA00200C
:102E500080B28A42F2D330BD543A0008014908607A
:102E6000704700001404014006490968064A0142FF
:102E7000126802EA000202D00AB101207047002065
:102E800070470000140401400004014000B50346EF
:102E900000F008F85B1E012802D1002BF8D10420B5
:102EA00000BD000008490020CA68D20701D00120F7
:102EB0007047CA68D20601D503207047C968490720
:102EC000FBD50220704700000020024000B50346F9
:102ED00000F008F85B1E012802D1002BF8D1042075
:102EE00000BD000008490020CA6CD20701D00120B3
:102EF0007047CA6CD20601D503207047C96C4907D8
:102F0000FBD502207047000000200240054901EB7C
:102F100090110A6800F01F030120984002430A60E4
:102F20007047000000200240F0B505461748184CD5
:102F30000E4600884FF47027B0F5007F02D915487F
:102F4000854211D23846FFF7A1FF00280BD1206936
:102F500040F0010020612E803846FFF797FF21697D
:102F600021F001012161F0BD3846FFF7AFFF0028D5
:102F7000F9D1206D40F0010020652E803846FFF722
:102F8000A5FF216D21F001012165F0BDE0F7FF1FD4
:102F900000200240FFFF07080748016941F0800157
:102FA000016106490988B1F5007F03D9016D41F03F
:102FB000800101657047000000200240E0F7FF1F1C
:102FC00070B505461D481E4C4FF470260088B0F5BC
:102FD000007F02D91B48854215D23046FFF756FFC5
:102FE00000280FD1206940F002002061656120694E
:102FF00040F0400020613046FFF748FF216921F092
:103000000201216170BD3046FFF760FF0028F9D151
:10301000206D40F0020020656565E069800700D5FD
:103020006561206D40F0400020653046FFF74EFF9F
:10303000216D21F00201216570BD0000E0F7FF1F46
:1030400000200240FFFF070809480169094A0B06F2
:10305000094901D542604160084B1B88B3F5007FE8
:1030600004D9036D1B0601D542644164704700001A
:103070000020024023016745AB89EFCDE0F7FF1F39
:1030800030B5124A104B45F255551C461560D568AF
:10309000641E05F0010502D0002DF8D100E04DB905
:1030A0005160D1685B1E01F0020102D00029F8D105
:1030B00002E009B1002030BDC0F30B0090604AF679
:1030C000AA201060012030BDFFFF0F00003000403B
:1030D00002494AF6AA20086070470000003000400C
:1030E00002494CF6CC4008607047000000300040B8
:1030F00041617047016170470AB1016170474161E8
:10310000704700002DE9F04301F00F04CD0602D511
:10311000042A19D0144300254FF00F095FF0010273
:1031200002FA05F61E401AD007684FEA850C09FA24
:103130000CF827EA080704FA0CF848EA07082829D7
:1031400008D0482908D008E0C26B44F003041A43B1
:10315000C263E0E7466100E00661C0F800806D1CD4
:10316000ADB2082DDCD3082502FA05F61E4016D0B4
:1031700047684FEA8508A8F1200809FA08FC27EA01
:103180000C0704FA08FC4CEA070C282902D048294D
:1031900002D002E0466100E00661C0F804C06D1C88
:1031A000ADB2102DE0D3BDE8F0838068084000D0B8
:1031B00001207047C068084000D00120704700001F
:1031C000F0B5144C002801DAE36900E06368420DB1
:1031D000120185B2C0F301579540C0F30346032F97
:1031E00005D0C2020AD50322B240934307E023F080
:1031F000E062636823F0E063636002E0AB4343F0A6
:10320000E06201B12A43002801DAE261F0BD6260A8
:10321000F0BD00000000014010B50246012903DAAC
:103220004FF6FF71002009E0002005E0613B1A2BFA
:1032300000D21470401C521C884204DA1378A3F1A7
:1032400020045F2CF2D310BD38B5FDF707FCFEF764
:10325000B1F9FDF741FBFDF715FCFEF7D7FAFDF7D5
:10326000A1FD2A4C00202070FDF7F4FD28490860DC
:10327000FDF708FCFDF776FB01252B462A4629467B
:1032800000200095FDF7A4FB01231A4619461846B5
:103290000095FDF79DFB4FF4E1310020FFF712FA96
:1032A0001C4A1D490120FDF74FFF01210846FDF78B
:1032B0009BFF1A48008820B91948018819A0FDF71A
:1032C000C9FAFFF7A3FD0120FDF7ACFF0120FDF7D0
:1032D0000FFCFDF7D7FBFDF7D7FB0020FDF79CFCAB
:1032E000174800684FF47A71B0FBF1F0FDF7BAFDB2
:1032F000FDF7C8FDFDF7C6FB2078012801D00120AD
:1033000000E00020FEF778F9002038BD0C00002016
:103310000000002043110008A08601008600002064
:10332000880000200D0A464C41534820455854203F
:103330004552524F5220253034580D0A00000000EB
:103340000800002000F01F02012191404009800088
:1033500000F1E020C0F8801170470000F0B5234B69
:103360000646002518680F462C46C0F302200728A1
:103370001AD01868C0F30220062817D01868C0F3C6
:10338000022005280DD01868C0F30220042810D0B0
:103390001868C0F3022003280ED04FF4A06000F09C
:1033A00027F802252C4608E0042406E00125032422
:1033B00003E00325012400E00425C5F10400874053
:1033C000C4F104010F20C8401040384306F1E02149
:1033D000000181F8000406F01F01012088407109F6
:1033E000890001F1E021C1F80001F0BD0CED00E021
:1033F0000249084302490860704700000000FA05CE
:103400000CED00E070B537A588B02ECD8DE82E000C
:1034100035A20446D2E90012CDE9041232A20020FE
:10342000D2E90012CDE90612324A5168324BC1F39B
:10343000810119B1012901D0022901D019462BE0DF
:10344000516801F480352D49B5F5803F0AD1D56A20
:1034500015F0804F00D02A4B556805F40035B5F5BE
:10346000003F00D10B4651685568C1F383412D01DF
:1034700001D541F0100155686D0001D541F02001E2
:103480000F2901D2891C06E0A1F10F052F2D01D8CB
:10349000491C00E03F2159435368C3F303131DF84F
:1034A000035021FA05F3556804AEC5F302255268AE
:1034B000755D23FA05F5C2F3C22206AEB25C23FAAB
:1034C00002F244B1012C08D0022C08D0032C00D108
:1034D000104608B070BD0846FBE71846F9E72846D5
:1034E000F7E70000000000000000000001020304F4
:1034F000060708090010024000127A0000093D008A
:10350000006CDC02064A02EB9011096800F01F0211
:1035100001209040014201D00120704700207047F7
:1035200000100240054901EB90110A6800F01F03EA
:103530000120984002430A607047000000100240DA
:1035400070B50023324D1C46B0F5006F22D005DC6B
:1035500078B3102811D0182857D14AE0B0F5106F71
:1035600044D000F57F60B0F5804F4ED132E011209D
:10357000FFF7C8FF5B1C18B104E04FF6FF75F6E7D4
:10358000AB42F4D111203CE03046FFF7BBFF5B1C9F
:1035900028B106E06FF07C4540F60106F4E7AB4247
:1035A000F2D130462DE00120FFF7ACFF5B1C20B1CB
:1035B00005E0FFE74FF4A065F5E7AB42F3D101204A
:1035C0001FE03046FFF79EFF5B1C0028E9D1AB42AD
:1035D000F7D1E6E743F21106F3E73046FFF792FF33
:1035E0005B1C0028DDD1AB42F7D1DAE740F60116CB
:1035F000F3E71920FFF786FF5B1C08B9AB42F8D14F
:103600001920FFF77FFF00B10124204670BD0000A4
:10361000FFFF0F00054901EB90110A6800F01F033E
:103620000120984002430A607047000000100240E9
:10363000054901EB90110A6800F01F030120984032
:1036400082430A607047000000100240054901EB08
:1036500090110A6800F01F030120984002430A609D
:103660007047000000100240016841F04001016015
:103670007047C06880B27047C1607047806808407A
:1036800000D001207047026802F441530A681A43CF
:103690004B6813438A681A43CB6813430A691A4379
:1036A0004B698969134319430160C16921F40061C1
:1036B000C161704726480021026842F001020260A1
:1036C0004FF4A0630268491C12F0020F01D1994225
:1036D000F8D10168890700D4FEE7C16941F0805143
:1036E000C1611C490A6842F440420A604268426073
:1036F00042684260426842F4806242604268164B0F
:103700001A404260426842F480124260026842F00D
:103710008072026002689201FCD50A6842F480322D
:103720000A604A68D203FCD50A6842F400320A6093
:103730004A689203FCD5416821F003014160416869
:1037400041F00201416041680907FCD57047000063
:103750000010024000700040FFFFC3B71B4A10B5C5
:10376000811A1415904229D00DDCB0F1804F14D08D
:10377000174940181CD0A0421DD0B0F5006F23D1CE
:1037800040F2034409E0A1421BD0B1F58E3F0CD0BA
:10379000B1F5923F18D140F20D342046FFF756FFA5
:1037A0002046BDE81040FFF743BF40F20B34F4E77A
:1037B00040F20144F1E740F20244EEE740F20444F3
:1037C000EBE740F20544E8E710BD000000100040C0
:1037D00000FCFFBF016841F001010160704700007B
:1037E00030B50A8882621C4A1C4B90420DD0B0F161
:1037F000804F0AD01A4CA04207D01A4CA04204D0E5
:10380000194CA04201D098420BD1046824F07004F6
:10381000046004684D882C43046004688D882C4340
:1038200004608C68C462114CA0420CD0104CA042C1
:103830000DD0046824F4407404600468CD882C43DF
:103840000460904201D0984201D1097B0163416933
:1038500041F00101416130BD002C014000340140C4
:103860000004004000080040000C00400010004030
:1038700000140040C2688A43C2607047C2680A43AD
:10388000C2607047C94301617047C26800690A405D
:10389000084202D00AB101207047002070470000A2
:1038A00070B5134B04460D460020E11A1A159C42D0
:1038B0001BD005DC0F49611817D0914208D114E0E4
:1038C000914212D0B1F56C4F02D10320FFF79AFD5F
:1038D00000EB5500B0FBF5F14FF6F07201EA020083
:1038E00001F00F010843A06070BD0220EEE7000068
:1038F000004C004000BCFFBF4068C0F308007047A8
:10390000C1F3080141607047134B10B5C21A191575
:10391000984213D007DC114A80180CD088421AD183
:1039200040F212440FE08A420BD0B2F56C4F12D134
:1039300040F20E3407E040F2114404E040F2134438
:1039400001E040F214442046FFF780FE2046BDE827
:103950001040FFF76DBE10BD004C004000BCFFBF23
:10396000C16841F40051C160704700EB91100068DC
:1039700001F01F0201219140084000D00120704752
:10398000426922F400720A4342617047426922F49C
:1039900080720A434261704700EB9110026801F0A7
:1039A0001F03012199400A430260704700EB9150C8
:1039B0000268C1F30443012199408A4302607047C1
:1039C00010B5C1F38912835800EB915001F01F0428
:1039D000012202FA04F400682340C1F304418A4042
:1039E000104202D00BB1012010BD002010BDC268F2
:1039F00022F004020A43C2607047C26822F0080243
:103A00000A43C2607047464C5F50726F6772616DC7
:103A100000000000C012000080250000004B0000E4
:103A20000096000000C2010000E803000008070043
:103A300000100E00210801404047342D454C323023
:103A4000314754000102051508010E050048616F59
:103A50004E54303800002110422063308440A5507D
:103A6000C660E770088129914AA16BB18CC1ADD1C4
:103A7000CEE1EFF13112100273325222B55294426C
:103A8000F772D662399318837BB35AA3BDD39CC314
:103A9000FFF3DEE36224433420040114E664C774B8
:103AA000A44485546AA54BB528850995EEE5CFF564
:103AB000ACC58DD55336722611163006D776F6660C
:103AC0009556B4465BB77AA719973887DFF7FEE7B4
:103AD0009DD7BCC7C448E5588668A77840086118D8
:103AE00002282338CCC9EDD98EE9AFF94889699904
:103AF0000AA92BB9F55AD44AB77A966A711A500AAC
:103B0000333A122AFDDBDCCBBFFB9EEB799B588B53
:103B10003BBB1AABA66C877CE44CC55C222C033CF7
:103B2000600C411CAEED8FFDECCDCDDD2AAD0BBDA3
:103B3000688D499D977EB66ED55EF44E133E322E4B
:103B4000511E700E9FFFBEEFDDDFFCCF1BBF3AAFF3
:103B5000599F788F8891A981CAB1EBA10CD12DC151
:103B60004EF16FE18010A100C230E32004502540E7
:103B700046706760B9839893FBA3DAB33DC31CD347
:103B80007FE35EF3B1029012F322D2323542145237
:103B900077625672EAB5CBA5A89589856EF54FE593
:103BA0002CD50DC5E234C324A01481046674476487
:103BB00024540544DBA7FAB79987B8975FE77EF7E7
:103BC0001DC73CD7D326F2369106B01657667676D7
:103BD000154634564CD96DC90EF92FE9C899E989B3
:103BE0008AB9ABA94458654806782768C018E10827
:103BF0008238A3287DCB5CDB3FEB1EFBF98BD89B87
:103C0000BBAB9ABB754A545A376A167AF10AD01A76
:103C1000B32A923A2EFD0FED6CDD4DCDAABD8BADD2
:103C2000E89DC98D267C076C645C454CA23C832CC6
:103C3000E01CC10C1FEF3EFF5DCF7CDF9BAFBABF26
:103C4000D98FF89F176E367E554E745E932EB23E16
:103C5000D10EF01E000005800F800A001B801E00A0
:103C600014001180338036003C00398028002D80FC
:103C700027802200638066006C00698078007D8068
:103C800077807200500055805F805A004B804E0054
:103C900044004180C380C600CC00C980D800DD80CC
:103CA000D780D200F000F580FF80FA00EB80EE00B4
:103CB000E400E180A000A580AF80AA00BB80BE0028
:103CC000B400B180938096009C00998088008D801C
:103CD00087808200838186018C01898198019D8182
:103CE00097819201B001B581BF81BA01AB81AE016C
:103CF000A401A181E001E581EF81EA01FB81FE01E0
:103D0000F401F181D381D601DC01D981C801CD81D3
:103D1000C781C201400145814F814A015B815E013B
:103D200054015181738176017C01798168016D8133
:103D300067816201238126012C01298138013D819F
:103D400037813201100115811F811A010B810E018B
:103D500004010181038306030C03098318031D83F7
:103D600017831203300335833F833A032B832E03DB
:103D700024032183600365836F836A037B837E034F
:103D800074037183538356035C03598348034D8343
:103D900047834203C003C583CF83CA03DB83DE03AB
:103DA000D403D183F383F603FC03F983E803ED83A3
:103DB000E783E203A383A603AC03A983B803BD830F
:103DC000B783B203900395839F839A038B838E03FB
:103DD00084038183800285828F828A029B829E0275
:103DE00094029182B382B602BC02B982A802AD826B
:103DF000A782A202E382E602EC02E982F802FD82D7
:103E0000F782F202D002D582DF82DA02CB82CE02C2
:103E1000C402C182438246024C02498258025D823A
:103E200057825202700275827F827A026B826E0222
:103E300064026182200225822F822A023B823E0296
:103E400034023182138216021C02198208020D828A
:103E5000078202020000891112239B322446AD57CB
:103E60003665BF74488CC19D5AAFD3BE6CCAE5DBC2
:103E70007EE9F7F88110080193331A22A5562C47E2
:103E8000B7753E64C99C408DDBBF52AEEDDA64CBA2
:103E9000FFF976E802218B30100299132667AF767E
:103EA0003444BD554AADC3BC588ED19F6EEBE7FA82
:103EB0007CC8F5D983310A2091121803A7772E66A2
:103EC000B5543C45CBBD42ACD99E508FEFFB66EA62
:103ED000FDD874C904428D5316619F702004A91542
:103EE0003227BB364CCEC5DF5EEDD7FC6888E19942
:103EF0007AABF3BA85520C4397711E60A114280562
:103F0000B3373A26CDDE44CFDFFD56ECE998608921
:103F1000FBBB72AA06638F7214409D512225AB34FD
:103F20003006B9174EEFC7FE5CCCD5DD6AA9E3B801
:103F3000788AF19B87730E6295501C41A3352A2421
:103F4000B1163807CFFF46EEDDDC54CDEBB962A8E1
:103F5000F99A708B088481951AA793B62CC2A5D3C1
:103F60003EE1B7F04008C919522BDB3A644EED5FD1
:103F7000766DFF7C899400859BB712A6ADD224C3D1
:103F8000BFF136E0C1184809D33B5A2AE55E6C4FB1
:103F9000F77D7E6C0AA583B4188691972EE3A7F26D
:103FA0003CC0B5D14229CB38500AD91B666FEF7E91
:103FB000744CFD5D8BB502A499961087AFF326E291
:103FC000BDD034C1C3394A28D11A580BE77F6E6E71
:103FD000F55C7C4D0CC685D71EE597F42880A19131
:103FE0003AA3B3B2444ACD5B5669DF78600CE91D51
:103FF000722FFB3E8DD604C79FF516E4A990208151
:10400000BBB332A2C55A4C4BD7795E68E11C680D30
:10401000F33F7A2E0EE787F61CC495D52AA1A3B0EC
:104020003882B193466BCF7A5448DD59622DEB3C10
:10403000700EF91F8FF706E69DD414C5ABB122A010
:10404000B9923083C77B4E6AD5585C49E33D6A2CF0
:10405000F11E780F0000C1C081C1400101C3C0033F
:10406000800241C201C6C006800741C70005C1C524
:1040700081C4400401CCC00C800D41CD000FC1CFE4
:1040800081CE400E000AC1CA81CB400B01C9C009D4
:10409000800841C801D8C018801941D9001BC1DB74
:1040A00081DA401A001EC1DE81DF401F01DDC01D24
:1040B000801C41DC0014C1D481D5401501D7C01744
:1040C000801641D601D2C012801341D30011C1D154
:1040D00081D0401001F0C030803141F10033C1F394
:1040E00081F240320036C1F681F7403701F5C03524
:1040F000803441F4003CC1FC81FD403D01FFC03FE4
:10410000803E41FE01FAC03A803B41FB0039C1F9D3
:1041100081F840380028C1E881E9402901EBC02B33
:10412000802A41EA01EEC02E802F41EF002DC1ED23
:1041300081EC402C01E4C024802541E50027C1E743
:1041400081E640260022C1E281E3402301E1C02153
:10415000802041E001A0C060806141A10063C1A353
:1041600081A240620066C1A681A7406701A5C06523
:10417000806441A4006CC1AC81AD406D01AFC06FE3
:10418000806E41AE01AAC06A806B41AB0069C1A9D3
:1041900081A840680078C1B881B9407901BBC07B73
:1041A000807A41BA01BEC07E807F41BF007DC1BD23
:1041B00081BC407C01B4C074807541B50077C1B743
:1041C00081B640760072C1B281B3407301B1C07153
:1041D000807041B00050C190819140510193C05313
:1041E000805241920196C056805741970055C19523
:1041F00081944054019CC05C805D419D005FC19FE3
:10420000819E405E005AC19A819B405B0199C059D2
:10421000805841980188C04880494189004BC18B32
:10422000818A404A004EC18E818F404F018DC04D22
:10423000804C418C0044C184818540450187C04742
:10424000804641860182C042804341830041C18152
:104250008180404000000000963007772C610EEE10
:10426000BA51099919C46D078FF46A7035A563E9CD
:10427000A395649E3288DB0EA4B8DC791EE9D5E0F4
:1042800088D9D2972B4CB609BD7CB17E072DB8E7F3
:10429000911DBF906410B71DF220B06A4871B9F348
:1042A000DE41BE847DD4DA1AEBE4DD6D51B5D4F481
:1042B000C785D38356986C13C0A86B647AF962FDE6
:1042C000ECC9658A4F5C0114D96C0663633D0FFA33
:1042D000F50D088DC8206E3B5E10694CE44160D539
:1042E000727167A2D1E4033C47D4044BFD850DD223
:1042F0006BB50AA5FAA8B5356C98B242D6C9BBDB36
:1043000040F9BCACE36CD832755CDF45CF0DD6DC30
:10431000593DD1ABAC30D9263A00DE518051D7C8D7
:104320001661D0BFB5F4B42123C4B3569995BACF62
:104330000FA5BDB89EB802280888055FB2D90CC683
:1043400024E90BB1877C6F2F114C6858AB1D61C1FC
:104350003D2D66B69041DC760671DB01BC20D2981B
:104360002A10D5EF8985B1711FB5B606A5E4BF9FA8
:1043700033D4B8E8A2C9077834F9000F8EA809969B
:1043800018980EE1BB0D6A7F2D3D6D08976C649106
:10439000015C63E6F4516B6B62616C1CD83065851F
:1043A0004E0062F2ED95066C7BA5011BC1F40882FC
:1043B00057C40FF5C6D9B06550E9B712EAB8BE8B3D
:1043C0007C88B9FCDF1DDD62492DDA15F37CD38CC6
:1043D000654CD4FB5861B24DCE51B53A7400BCA3C4
:1043E000E230BBD441A5DF4AD795D83D6DC4D1A4F6
:1043F000FBF4D6D36AE96943FCD96E34468867ADCD
:10440000D0B860DA732D0444E51D03335F4C0AAA6B
:10441000C97C0DDD3C710550AA41022710100BBE6E
:1044200086200CC925B56857B3856F2009D466B9B5
:104430009FE461CE0EF9DE5E98C9D9292298D0B0EA
:10444000B4A8D7C7173DB359810DB42E3B5CBDB797
:10445000AD6CBAC02083B8EDB6B3BF9A0CE2B60318
:104460009AD2B1743947D5EAAF77D29D1526DB04CD
:104470008316DC73120B63E3843B64943E6A6D0D18
:10448000A85A6A7A0BCF0EE49DFF099327AE000A63
:10449000B19E077D44930FF0D2A3088768F2011EF6
:1044A000FEC206695D5762F7CB67658071366C198D
:1044B000E7066B6E761BD4FEE02BD3895A7ADA10AE
:1044C000CC4ADD676FDFB9F9F9EFBE8E43BEB7178F
:1044D000D58EB060E8A3D6D67E93D1A1C4C2D83819
:1044E00052F2DF4FF167BBD16757BCA6DD06B53F7F
:1044F0004B36B248DA2B0DD84C1B0AAFF64A0336BE
:10450000607A0441C3EF60DF55DF67A8EF8E6E313C
:1045100079BE69468CB361CB1A8366BCA0D26F2585
:1045200036E2685295770CCC03470BBBB9160222D2
:104530002F260555BE3BBAC5280BBDB2925AB42BE7
:10454000046AB35CA7FFD7C231CFD0B58B9ED92CFC
:104550001DAEDE5BB0C2649B26F263EC9CA36A7561
:104560000A936D02A906099C3F360EEB8567077218
:1045700013570005824ABF95147AB8E2AE2BB17B7F
:10458000381BB60C9B8ED2920DBED5E5B7EFDC7C06
:1045900021DFDB0BD4D2D38642E2D4F1F8B3DD685D
:1045A0006E83DA1FCD16BE815B26B9F6E177B06F58
:1045B0007747B718E65A0888706A0FFFCA3B066645
:1045C0005C0B0111FF9E658F69AE62F8D3FF6B61D2
:1045D00045CF6C1678E20AA0EED20DD75483044E74
:1045E000C2B30339612667A7F71660D04D47694902
:1045F000DB776E3E4A6AD1AEDC5AD6D9660BDF4015
:10460000F03BD83753AEBCA9C59EBBDE7FCFB247C7
:10461000E9FFB5301CF2BDBD8AC2BACA3093B353AC
:10462000A6A3B4240536D0BA9306D7CD2957DE54B5
:10463000BF67D9232E7A66B3B84A61C4021B685D8E
:10464000942B6F2A37BE0BB4A18E0CC31BDF055A07
:104650008DEF022D0000000003836BF2F7703BE149
:10466000F4F350131F979AC71C14F135E8E7A126FD
:10467000EB64CAD4CF58D98ACCDBB2783828E26B45
:104680003BAB8999D0CF434DD34C28BF27BF78ACE3
:10469000243C135E6FC75E106C4435E298B765F139
:1046A0009B340E037050C4D773D3AF258720FF36D9
:1046B00084A394C4A09F879AA31CEC6857EFBC7B8B
:1046C000546CD789BF081D5DBC8B76AF487826BC7B
:1046D0004BFB4D4EDE8EBD20DD0DD6D229FE86C1B0
:1046E0002A7DED33C11927E7C29A4C1536691C069D
:1046F00035EA77F411D664AA12550F58E6A65F4B37
:10470000E52534B90E41FE6D0DC2959FF931C58C7A
:10471000FAB2AE7EB149E330B2CA88C24639D8D1C6
:1047200045BAB323AEDE79F7AD5D120559AE421638
:104730005A2D29E47E113ABA7D9251488961015B74
:104740008AE26AA96186A07D6205CB8F96F69B9C62
:104750009575F06EBC1D7B41BF9E10B34B6D40A0A4
:1047600048EE2B52A38AE186A0098A7454FADA67CC
:104770005779B1957345A2CB70C6C9398435992A4A
:1047800087B6F2D86CD2380C6F5153FE9BA203ED62
:104790009821681FD3DA2551D0594EA324AA1EB000
:1047A00027297542CC4DBF96CFCED4643B3D84774C
:1047B00038BEEF851C82FCDB1F019729EBF2C73A5C
:1047C000E871ACC80315661C00960DEEF4655DFD3E
:1047D000F7E6360F6293C6616110AD9395E3FD80F5
:1047E000966096727D045CA67E8737548A7467470C
:1047F00089F70CB5ADCB1FEBAE4874195ABB240A30
:1048000059384FF8B25C852CB1DFEEDE452CBECDB9
:1048100046AFD53F0D5498710ED7F383FA24A39079
:10482000F9A7C86212C302B611406944E5B339570B
:10483000E63052A5C20C41FBC18F2A09357C7A1A99
:1048400036FF11E8DD9BDB3CDE18B0CE2AEBE0DD65
:1048500029688B2F783BF6827BB89D708F4BCD6398
:104860008CC8A69167AC6C45642F07B790DC57A441
:10487000935F3C56B7632F08B4E044FA401314E941
:1048800043907F1BA8F4B5CFAB77DE3D5F848E2EBF
:104890005C07E5DC17FCA892147FC360E08C93737F
:1048A000E30FF881086B32550BE859A7FF1B09B4D9
:1048B000FC986246D8A47118DB271AEA2FD44AF96B
:1048C0002C57210BC733EBDFC4B0802D3043D03ED3
:1048D00033C0BBCCA6B54BA2A536205051C5704302
:1048E00052461BB1B922D165BAA1BA974E52EA8499
:1048F0004DD1817669ED92286A6EF9DA9E9DA9C93B
:104900009D1EC23B767A08EF75F9631D810A330E4E
:10491000828958FCC97215B2CAF17E403E022E53FC
:104920003D8145A1D6E58F75D566E4872195B49480
:104930002216DF66062ACC3805A9A7CAF15AF7D98C
:10494000F2D99C2B19BD56FF1A3E3D0DEECD6D1EC2
:10495000ED4E06ECC4268DC3C7A5E6313356B6220C
:1049600030D5DDD0DBB11704D8327CF62CC12CE574
:104970002F4247170B7E544908FD3FBBFC0E6FA822
:10498000FF8D045A14E9CE8E176AA57CE399F56F62
:10499000E01A9E9DABE1D3D3A862B8215C91E832C6
:1049A0005F1283C0B4764914B7F522E6430672F568
:1049B0004085190764B90A59673A61AB93C931B8A0
:1049C000904A5A4A7B2E909E78ADFB6C8C5EAB7FF2
:1049D0008FDDC08D1AA830E3192B5B11EDD80B02C7
:1049E000EE5B60F0053FAA2406BCC1D6F24F91C52C
:1049F000F1CCFA37D5F0E969D673829B2280D28850
:104A00002103B97ACA6773AEC9E4185C3D17484FF1
:104A10003E9423BD756F6EF376EC0501821F55122F
:104A2000819C3EE06AF8F434697B9FC69D88CFD5AF
:104A30009E0BA427BA37B779B9B4DC8B4D478C9855
:104A40004EC4E76AA5A02DBEA623464C52D0165FE1
:104A500051537DAD000000004FD0DD2B9EA0BB5711
:104A6000D170667C3C4177AF7391AA84A2E1CCF807
:104A7000ED3111D3531ADDF61CCA00DDCDBA66A1A3
:104A8000826ABB8A6F5BAA59208B7772F1FB110E89
:104A9000BE2BCC258DAC8945C27C546E130C3212D2
:104AA0005CDCEF39B1EDFEEAFE3D23C12F4D45BD83
:104AB000609D9896DEB654B3916689984016EFE4EF
:104AC0000FC632CFE2F7231CAD27FE377C57984B39
:104AD000338745601A59138B5589CEA084F9A8DC19
:104AE000CB2975F72618642469C8B90FB8B8DF73E5
:104AF000F76802584943CE7D06931356D7E3752ACB
:104B00009833A8017502B9D23AD264F9EBA20285B2
:104B1000A472DFAE97F59ACED82547E509552199BD
:104B20004685FCB2ABB4ED61E464304A35145636C8
:104B30007AC48B1DC4EF47388B3F9A135A4FFC6FD2
:104B4000159F2144F8AE3097B77EEDBC660E8BC042
:104B500029DE56EB1F2A15BE50FAC895818AAEE9A8
:104B6000CE5A73C2236B62116CBBBF3ABDCBD94620
:104B7000F21B046D4C30C84803E01563D290731FDC
:104B80009D40AE347071BFE73FA162CCEED104B05E
:104B9000A101D99B92869CFBDD5641D00C2627AC07
:104BA00043F6FA87AEC7EB54E117367F3067500300
:104BB0007FB78D28C19C410D8E4C9C265F3CFA5AD4
:104BC00010EC2771FDDD36A2B20DEB89637D8DF50A
:104BD0002CAD50DE057306354AA3DB1E9BD3BD62A8
:104BE000D40360493932719A76E2ACB1A792CACD4A
:104BF000E84217E65669DBC319B906E8C8C96094EC
:104C00008719BDBF6A28AC6C25F87147F488173B3B
:104C1000BB58CA1088DF8F70C70F525B167F3427CE
:104C200059AFE90CB49EF8DFFB4E25F42A3E4388C9
:104C300065EE9EA3DBC5528694158FAD4565E9D11F
:104C40000AB534FAE7842529A854F80279249E7E0F
:104C500036F4435515CC19D45A1CC4FF8B6CA2836F
:104C6000C4BC7FA8298D6E7B665DB350B72DD52C53
:104C7000F8FD080746D6C42209061909D8767F75BB
:104C800097A6A25E7A97B38D35476EA6E43708DA09
:104C9000ABE7D5F198609091D7B04DBA06C02BC65E
:104CA0004910F6EDA421E73EEBF13A153A815C6933
:104CB00075518142CB7A4D6784AA904C55DAF63013
:104CC0001A0A2B1BF73B3AC8B8EBE7E3699B819FB5
:104CD000264B5CB40F950A5F4045D7749135B108F7
:104CE000DEE56C2333D47DF07C04A0DBAD74C6A775
:104CF000E2A41B8C5C8FD7A9135F0A82C22F6CFEC3
:104D00008DFFB1D560CEA0062F1E7D2DFE6E1B51EE
:104D1000B1BEC67A8239831ACDE95E311C99384D0D
:104D20005349E566BE78F4B5F1A8299E20D84FE234
:104D30006F0892C9D1235EEC9EF383C74F83E5BB16
:104D400000533890ED622943A2B2F46873C2921402
:104D50003C124F3F0AE60C6A4536D1419446B73DB6
:104D6000DB966A1636A77BC57977A6EEA807C092B0
:104D7000E7D71DB959FCD19C162C0CB7C75C6ACB80
:104D8000888CB7E065BDA6332A6D7B18FB1D1D64BA
:104D9000B4CDC04F874A852FC89A580419EA3E7887
:104DA000563AE353BB0BF280F4DB2FAB25AB49D76C
:104DB0006A7B94FCD45058D99B8085F24AF0E38EEC
:104DC00005203EA5E8112F76A7C1F25D76B19421AA
:104DD0003961490A10BF1FE15F6FC2CA8E1FA4B6B6
:104DE000C1CF799D2CFE684E632EB565B25ED31996
:104DF000FD8E0E3243A5C2170C751F3CDD057940B0
:104E000092D5A46B7FE4B5B830346893E1440EEFDB
:104E1000AE94D3C49D1396A4D2C34B8F03B32DF38A
:104E20004C63F0D8A152E10BEE823C203FF25A5C79
:104E300070228777CE094B5281D9967950A9F00517
:104E40001F792D2EF2483CFDBD98E1D66CE887AA6B
:104E500023385A811C36371C1C000000000000401B
:104E6000001000400014004000000040000000401E
:104E7000004040404040404040404141414141406D
:104E80004040404040404040404040404040404022
:104E900040050202020202020202020202020202B1
:104EA00002202020202020202020200202020202B6
:104EB000020290909090909010101010101010100E
:104EC000101010101010101010101010020202021A
:104ED000020288888888888808080808080808085E
:104EE000080808080808080808080808020202025A
:104EF00040000000714E00084469736B436D642EDE
:104F0000434D44203D204F4E4D454D4354524C5F40
:104F1000524543454956455F46494C450A3E53571D
:104F20004954434820544F20414343455353204D57
:104F3000454D4F52590A23573231204372656174EF
:104F400065206120222573222066696C65206F6EC2
:104F5000206469736B20746F2077726974652E4FBB
:104F60004B2E2A0A23573231204F70656E6564201C
:104F700025732066696C653A20283029204F4B0A3A
:104F800025733A204030783136303030302C205282
:104F90006567696F6E3A20310A0000000D0A3E20F5
:104FA00053574954434820544F204143434553539A
:104FB000204D454D4F52590D0A20203E20596F7506
:104FC0002063616E2075706461746520746865206B
:104FD0006E6577206669726D7761726520666F72A3
:104FE000207468652064657669636520686572650C
:104FF0002E0D0A20203E20546865207472616E7365
:105000006D697373696F6E206F7065726174696F1B
:105010006E206F6620746865206E65772066697201
:105020006D7761726520697320646F6E65207468A6
:10503000726F75676820782D6D6F64656D6E2031B5
:105040006B21000064500008000000209400000064
:10505000E41B0008F850000894000020042500001C
:10506000F41B00080000000000366E010000000084
:10507000000000000000000000000000C07F0020D1
:105080000000000000000000000000000000000020
:105090000000000020000000000C014000000000A3
:1050A000000000000000000040000000000C014073
:1050B0000000000000000000000000008000000070
:1050C000000C014000000000000000000000000093
:1050D000010000000010014000000000000000007E
:1050E00000000000000000000000000000000000C0
:0850F0000000000000000000B8
:0400000508000131BD
:00000001FF
