:020000040800F2
:10000000002000200D0E0008850A0008870A00085D
:1000100000000000000000000000000000000000E0
:10002000000000000000000000000000890A000835
:1000300000000000000000008B0A00088D0A000884
:100040005D0E0008000000005D0E00085D0E000857
:100050005D0E00085D0E00085D0E00085D0E0008D4
:10006000000000005D0E00085D0E00085D0E000837
:100070005D0E00085D0E00085D0E00080000000027
:100080005D0E000800000000000000005D0E00088A
:10009000000000005D0E0008AD0A00085D0E0008BB
:1000A0005D0E0008BD0A00085D0E0008C10A0008C8
:0800B000E10A00080000000055
:1000B80010B5064C2378002B07D1054B002B02D036
:1000C800044800E000BF0123237010BD8000002019
:1000D80000000000FC350008044B10B5002B03D0CD
:1000E8000349044800E000BF10BDC04600000000FE
:1000F80084000020FC35000803B47146490840001C
:100108004900095E49008E4403BC70470022430839
:100118008B4274D303098B425FD3030A8B4244D3C7
:10012800030B8B4228D3030C8B420DD3FF22090209
:1001380012BA030C8B4202D31212090265D0030BC8
:100148008B4219D300E0090AC30B8B4201D3CB03BE
:10015800C01A5241830B8B4201D38B03C01A524100
:10016800430B8B4201D34B03C01A5241030B8B4202
:1001780001D30B03C01A5241C30A8B4201D3CB02ED
:10018800C01A5241830A8B4201D38B02C01A5241D2
:10019800430A8B4201D34B02C01A5241030A8B42D5
:1001A80001D30B02C01A5241CDD2C3098B4201D3ED
:1001B800CB01C01A524183098B4201D38B01C01A6B
:1001C800524143098B4201D34B01C01A52410309E2
:1001D8008B4201D30B01C01A5241C3088B4201D391
:1001E800CB00C01A524183088B4201D38B00C01A3E
:1001F800524143088B4201D34B00C01A5241411A65
:1002080000D20146524110467047FFE701B5002071
:1002180000F006F802BDC0460029F7D076E770471F
:100228007047C046F7B500910221040001920025ED
:1002380002F010FA019B0135023BAB4204DC0321BA
:10024800200002F007FAF7BD009B074F5E5D200013
:100258003309F95C02F0FEF90F231E402000B95D56
:1002680002F0F8F9E6E7C046143600080022130049
:1002780010B594B2A14201D8D8B210BD845C013245
:100288001B199BB2F5E7000084B0F8B50F270500ED
:10029800174E184C0791089201003A003000099354
:1002A80002F0ABFB390030002600FFF7DFFF290022
:1002B8002B2511362A0020741031300002F09DFBE6
:1002C80029003000FFF7D2FF23003C3318702100CB
:1002D8003F220948FFF7A6FF3F2221000748FFF702
:1002E800A1FF012002F030F9F8BC08BC04B018479F
:1002F800ED080020EC0800200038014000440040D0
:10030800F0B5082293B08B49040002F0E9FA0028FE
:100318000ED008222000884902F0E2FA002807D00F
:1003280008222000854902F0DBFA002800D07DE091
:1003380020002C21083001F005FEC5B2C0B20930FA
:100348002E21201801F0FEFD6B1E2A2B68D8C6B29C
:10035800731E0E2B64D802F0A9F8002858D00F227B
:10036800002103A8AE1902F0B3FA09362B220021A6
:1003780007A802F0ADFAF3B22E0009360193F6B2DF
:1003880003AF019AF3B29A4236D86D4E082730006F
:1003980002F038FA0835EDB2E05D05ABD855013703
:1003A80002F040FAFBB29D42F6D80024300002F079
:1003B80029FA2600A30003AAE0B2D11801F00AFF27
:1003C80001348619F6B2042CF4D107AD29002000B7
:1003D80001F000FF01348619E4B2F6B204350E2CA0
:1003E800F4D1002E0FD1052002F0AEF855490F22A6
:1003F800554802F035F911E0A05D0136387002F079
:1004080011FA0137BDE7012002F09EF84F49EEE7E7
:100418004F4802F0F7F9012002F096F813B0F0BD4A
:10042800022002F091F835224A49E1E7072220002C
:10043800494902F055FA00280DD007222000474903
:1004480002F04EFA002806D007222000444902F0A4
:1004580047FA002867D12C21E01D01F073FDC5B2D1
:10046800C0B208302321201801F06CFD6B1E2A2B26
:1004780053D8C6B2731E0E2B4FD802F017F80028B7
:10048800C6D00F22002103A8AE1902F021FA0836BF
:100498002B22002107A802F01BFAF3B22E0008361F
:1004A8000193F6B203AF019AF3B293422ED3244ECE
:1004B8000727300002F0A6F90735EDB20D23E05DFD
:1004C80002AA9B18D855013702F0ACF9FBB2AB422F
:1004D800F4D30024300002F095F92600A30003AA03
:1004E800E0B2D11801F076FE01348619F6B2042C78
:1004F800F4D107AD2900200001F06CFE0134861903
:10050800E4B2F6B204350E2CF4D16AE7A05D0136E8
:10051800387002F087F90137C5E7022002F014F8B5
:100528003222104964E7022002F00EF818220E4920
:100538005EE7C046243600082D3600083636000827
:100548005E3600083F360008004400405136000877
:100558006136000879360008253600082E3600086E
:1005680037360008A9360008D736000870B5802548
:10057800AD000400435B2A290DD1C218013A127854
:100588002E2A08D1002B03D00022C254FFF7B8FE50
:100598000023635370BD5A1C92B26253E154FF2387
:1005A8005B009A42F4D8F5E78022002110B592004A
:1005B800815202F08DF910BD642110B5080001F0D8
:1005C8007BFF0B48FFF7F0FF0A48FFF7EDFF02201B
:1005D80001F0BAFF3221080001F0C6FF022001F045
:1005E800FFFFA02001221021C00500F097FD10BDDB
:1005F800DC040020CC000020F0B58FB000F074FCC3
:1006080005005348436802689A4241D1FA22514B87
:100618009200196891420CD380214F4C8900615A8D
:10062800002906D020001A60FFF76AFE2000FFF7B5
:10063800BBFF4A48436802689A4235D1FA22484BC0
:100648009200196891420CD38021464C8900615A66
:10065800002906D020001A60FFF752FE2000FFF79D
:10066800A3FF414C2368AB4210D26433236001F0EE
:10067800DFFE051E24D1636A0133636201F0E4FEE4
:10068800636A092B02D9656201F0E8FE0FB0F0BD7C
:1006980001F063FC04000100344801F0DBFF210095
:1006A8002D48FFF763FFACE701F057FC0400010099
:1006B8002F4801F0CFFF21002A48FFF757FFB8E77E
:1006C80001F0B6FE012802D101F066FCDEE701F078
:1006D800AFFE022835D101F0CDFC01F0CDFE012896
:1006E800D4D101F0D5FE0700224968464A780B7834
:1006F80012021A438B78CE781B04134336064A79C4
:100708001E430B7912021A438B79CD791B041343CC
:100718002D064A7A1D430B7A12021A438B7ACC7A39
:100728001B04134324061C4333220C3102F065F9E1
:1007380031002A0023003800FFF7A6FD01F0A2FED1
:10074800A4E701F075FE0328A0D101F077FE9DE72C
:10075800E0060020A0000020DC040020D0020020D9
:100768009C000020CC000020A40000200044004091
:1007780000380140EC08002010B5034B01001800B8
:1007880001F0FCFB10BDC046E006002010B5034B8D
:100798000100180001F0F2FB10BDC046D002002095
:1007A80070B588B01422002103A802F091F8022144
:1007B8000124A025104B114E5A6BED050A435A63CC
:1007C8005A6B28000A400192019A5A6B3100224361
:1007D8005A635B6B002223400293029B00F09EFC4D
:1007E8000023280003A9039604940593069300F0B8
:1007F800E3FB08B070BDC0460010024013100000B3
:100808000848094B10B5036005234360074BC360D4
:10081800FA239B00836000F08FFC002801D000F0D1
:10082800A1F810BD2C09002000300040FF0F000087
:1008380010B592B03422002105A802F049F8102220
:10084800002101A802F044F88020800000F0AEFCEE
:100858000A230593F6330893002309930E9308336C
:100868000F9380239B0240221093802302240A9234
:100878009B053F3A05A80B920C940D94119300F038
:10088800C1FC002801D072B6FEE70723039004904C
:10089800210001A80193029400F018FF002801D05C
:1008A80072B6FEE712B010BD10B500F0FDFAFFF702
:1008B800BFFFFFF775FF00F057F800F09BF900F055
:1008C80063F900F033FAFFF79BFFEFF3108401217F
:1008D80081F310882023174802681A43026084F3C2
:1008E8001088EFF3108081F31088134A11680B43C6
:1008F800136080F31088114801F040F84023104A33
:10090800A0201168C0050B43802113604901002213
:1009180000F004FCFA20800000F0ECFAFFF74CFE2F
:10092800C821080001F020FE064800F037FCFFF758
:1009380063FEF9E700380140004400404009002008
:10094800003001402C090020054B02681B6810B5D7
:100958009A4203D101F0CAFD01F01AFE10BDC0464B
:100968004009002072B6FEE7F0B5282593B02A00AA
:10097800002108A801F0ACFF8021304B49011A6C16
:10098800A0260A431A641A6C00240A400121019225
:10099800019A5A6B02270A435A635B6BF6050B40B0
:1009A8000093009B202302A930000293039704942C
:1009B80005940694079401F032F9402302A9300007
:1009C80002930397049405940694079401F027F979
:1009D800802302A930000293039704940594069497
:1009E800079401F01CF9C621154B89005A5815487F
:1009F80002405A50802292041A6082235B000993B5
:100A0800E023DB000A93802308940B940C940F9442
:100A180010949B000C4C0D93FA3BFF3B200008A957
:100A280011930E9501F0E2F9102263689343636015
:100A3800082362681343636013B0F0BD00100240DE
:100A480000E100E0FF00FFFF0030014001210A4BF8
:100A580082B01A6C0A431A641A6C0A408021009208
:100A6800009ADA6B49050A43DA63DB6B0B400193A2
:100A7800019B02B07047C04600100240FEE7FEE747
:100A88007047704710B500F023FA044A1368013321
:100A98001360034A13680133136010BDA0000020DF
:100AA8009C00002010B5024800F098FF10BDC04619
:100AB8004009002070470000054B10B5DA69586AF4
:100AC800C0B2FFF759FE0022024B1A6010BDC046A3
:100AD80000380140A0000020054B10B5DA69586ABB
:100AE800C0B2FFF753FE0022024B1A6010BDC04689
:100AF800004400409C00002070B50E001400002542
:100B0800A54201DB200070BD00E000BF7055013533
:100B1800F6E770B50E0014000025A54201DB2000A1
:100B280070BD705D01F08CFD0135F6E70120404293
:100B3800704780239B0100204B607047012070475D
:100B4800002070470B490C4A0300521A0B4910B594
:100B58000868002801D10A4808600868C318934249
:100B680006D901F01DFF0C2303600120404210BD8F
:100B78000B60FCE700040000002000203C09002076
:100B8800700B00207047000009480A4B10B503603D
:100B98000023094A43608360C26003614361836143
:100BA80001F010F8002801D0FFF7DCFE10BDC046A8
:100BB8004009002000480140FFF9000007B50B4B31
:100BC80002689A4211D18021094BC9021A6C162079
:100BD8000A431A6400221B6C0B4001931100019B0D
:100BE80000F09AF9162000F0C1F907BD004801404D
:100BF8000010024030B597B0202200210EA801F065
:100C080067FE1822002102A801F062FE14220021CA
:100C180009A801F05DFE012308A8089300F004FE6E
:100C2800002801D0FFF79EFE80210225384BC9011C
:100C38001A6C00240A431A641A6C36480A40019256
:100C4800019A5A6B02A92A435A635B6B03952B409E
:100C58000093009B802304940293059406940794C0
:100C680000F0DDFF402302A92A480293039504946B
:100C780005940694079400F0D2FFC621264A8900FD
:100C880053581B021B0A535080231B051360E12392
:100C98005B020F930C230E941094119412941494E5
:100CA80015941E4C0EA92000139301F0DFF8EFF302
:100CB8001081012383F31088A268D200D208A260B1
:100CC80081F31088EFF3108183F310881448A26829
:100CD8000240A26081F31088124922680A4022600B
:100CE800626811490A402A216260A2688A43A260A8
:100CF800226880211343236080238903DB03E26990
:100D08000A42FCD0E2691A42F9D017B030BDC04699
:100D1800001002400004005000E100E000380140EB
:100D2800FFFFFFF1FFFFFFDFFFB7FFFF70B590B0D8
:100D38002022002108A801F0CBFD802101252D4BA0
:100D48008902DA6BA0200A43DA63DA6B00240A40CE
:100D58000192019A5A6B02262A435A635B6B02A9D5
:100D68002B400093009B0423C00502930396049430
:100D780005940694079500F052FFA020082302A9C5
:100D8800C00502930396049405940694079500F011
:100D980046FFC721FF20184B89005A5882435A50F2
:100DA800802252051A60E1235B0209930C23089400
:100DB8000A940B940C940E940F94104C08A92000DC
:100DC8000D9301F053F863680D4A802113402A22DD
:100DD8006360A36889039343A36023681D4380234A
:100DE8002560DB03E2690A42FCD0E2691A42F9D0C5
:100DF80010B070BD0010024000E100E00044004067
:100E0800FFB7FFFF0D488546FFF7BCFE0C480D49AC
:100E18000D4A002302E0D458C4500433C4188C424D
:100E2800F9D30A4A0A4C002301E013600432A242B3
:100E3800FBD301F0BBFDFFF737FDFEE700200020E4
:100E480000000020800000201038000880000020EA
:100E58006C0B0020FEE7000070B5104B05001978F8
:100E6800002901D1012070BDFA208000FFF74EF95A
:100E78000B4C01002068FFF749F900F083F8041EC5
:100E8800F0D1032DEED8020001202900404200F0E5
:100E980043F8044B20001D60E5E7C046040000202D
:100EA80000000020080000208023084A5B00116829
:100EB80010B50B4303201360FFF7CEFF041E03D1C8
:100EC800FFF7C4FD200010BD0124FBE7002002400D
:100ED800034A044B11681B785B1813607047C046BF
:100EE8008C09002004000020014B18687047C04698
:100EF8008C09002070B50400FFF7F6FF0500631C9D
:100F080002D0044B1B78E418FFF7EEFF401BA04209
:100F1800FAD370BD0400002010B5FF2403220B0093
:100F280021000240D20091409B012340C9439340D5
:100F380000280ADBC0240B4A800880008018A4001F
:100F480002590A401343035110BD0F2210400838BC
:100F5800054A800880008018C26911401943C161A0
:100F6800F2E7C04600E100E000ED00E0002805DB04
:100F78001F2318401E3B8340014A13607047C04638
:100F880000E100E08022431E5204012093420DD26A
:100F9800C021074A07485360036A09061B021B0A57
:100FA8000B43036200200723906013607047C0461C
:100FB80010E000E000ED00E00023F0B585B00A681D
:100FC8001400DC4001D105B0F0BD012514009D409E
:100FD8002C4000942A4200D191E04A685F00944670
:100FE8000322644622400324BC40E4430194541E77
:100FF800012C2ED88668019C2640CC68BC4034431E
:10100800846044680126AC432500644624093440C2
:101018009C402C434460C568019C25408C68BC40BA
:101028002C43C460022A16D107250F261D40AD00A7
:10103800AE40DC08A40004190294246A0396260032
:10104800039CA64334000E69AE402643029C2662E8
:1010580001E0032ADFD1BA400468019D25402A43F4
:10106800C02402606246A402224248D0254A0325D1
:101078009C08A400A4180F221D40ED00AA40A02738
:10108800266EFF0596430022B8420CD01E4F01324F
:10109800B84208D01D4F0132B84204D01C4F033269
:1010A800B84200D1023AAA40674632432266194A3A
:1010B800009CD66F009DE4433543FF0301D43500FF
:1010C80025406746D567144D009EEA6F1643BF0357
:1010D80001D42240160067460A4AEE671668009D4A
:1010E8003543FF0201D43500254067461560556831
:1010F800009E2E43BF0201D425402E0056600133C6
:101108005DE7C04600180240000400500008005087
:10111800000C00500418024008180240002A01D0B0
:10112800816170478162FCE7426913000B401B0430
:1011380091430B438361704770B504000120002C74
:1011480016D02368124A07261A60124A1A60626883
:101158005A60A2689A60FFF7C7FE05002368DA683C
:10116800324206D11969E26891420DD01A61002015
:1011780070BDFFF7B9FE401B3128EFD92368DB6843
:101188003342EBD00320F3E7034A1A60EFE7C04687
:10119800CCCC000055550000AAAA00000368024AFA
:1011A80000201A607047C046AAAA000010B5114C6A
:1011B8001149236802000B40034323608023002069
:1011C8009B009A420ED10D4B0D49186806235843CF
:1011D800FEF79CFF8022431CD20061690800104082
:1011E800114200D110BD002B01D0013BF5E70320CF
:1011F800F8E7C04600700040FFF9FFFF000000203C
:1012080040420F00F0B5040085B0002802D101204B
:1012180005B0F0BD0368DB0710D423689B075CD4D6
:1012280023681B0700D5C1E023685B0700D5F2E0FF
:10123800E369002B00D079E10020E9E73822AF4DBF
:10124800AB681340EA68102B09D1D3439B0708D138
:101258002B689B03E1D56368002BDED1D7E7082B09
:10126800F6D0802263685202934211D12A68134350
:101278002B60FFF739FE80270600BF022B683B4230
:10128800CBD1FFF731FE801B6428F7D90320BFE7D5
:10129800A021C9028B4208D180232968DB020B43B5
:1012A8002B602B681A432A60E3E72A6894490A40AE
:1012B8002A602A6893490A402A60002BD9D1FFF78F
:1012C80013FE80270600BF022B683B42A5D0FFF71C
:1012D8000BFE801B6428F7D9D8E73822874DAB6806
:1012E8001340EA68102B28D103210A40022A26D18C
:1012F8002A68520503D5E268002A00D187E76968A1
:1013080062698148120201400A436A60002B0CD1CD
:101318002B687E4A7E491340226913432B602B6851
:101328007C4A9B045B0FDA400A607B4B1868FFF726
:1013380093FD002800D173E769E7002BD8D0E36854
:10134800002B20D02B68714A802713402269FF00A8
:1013580013432B6080232A685B0013432B60FFF73D
:10136800C3FD06002B683B4207D06A68636966497B
:101378001B020A4013436B6052E7FFF7B5FD801B61
:101388000228EFD982E72B68644A802713402B6034
:10139800FFF7AAFD0600FF002B683B4200D13FE79C
:1013A800FFF7A2FD801B0228F6D96FE73822534DBC
:1013B800AB681340182B08D12B6E9B0700D433E77A
:1013C800A369002B00D02FE721E7A2690123002A97
:1013D80010D02A6E022713432B66FFF785FD0600FF
:1013E8002B6E3B4200D01FE7FFF77EFD801B0228D3
:1013F800F6D94BE72A6E02279A432A66FFF774FD4F
:1014080006002B6E3B4200D10EE7FFF76DFD801BF7
:101418000228F6D93AE73822384DAB681340202B1A
:1014280008D1EB6D9B0700D402E7A368002B00D01E
:10143800FEE6ECE680220021EB6B52050091134298
:1014480008D1EB6B1343EB63EB6B13400393039BE4
:10145800012300938027324E7F0033683B4215D02A
:10146800A368012B22D1EA6D1343EB65FFF73CFD1E
:1014780002270600EB6D3B4238D0009B012B00D0C1
:10148800D6E6EB6B274A1340EB63D1E633683B4360
:101498003360FFF729FD019033683B42E0D1FFF745
:1014A80023FD019BC01A0228F6D9EFE6EA6D052B49
:1014B80005D1013B1343EB65EA6D0123D4E7012114
:1014C8008A43EA65EA6D03318A43EA65002BCDD188
:1014D800FFF70AFD02270600EB6D3B42CDD0FFF770
:1014E80003FD114B801B9842F6D9CFE6FFF7FCFCB1
:1014F8000D4B801B9842BDD9C8E6C046001002407B
:10150800FFFFFEFFFFFFFBFFFF80FFFFFFC7FFFF9F
:10151800000000200024F40008000020FFFEFFFF68
:1015280000700040FFFFFFEF881300003821414D95
:10153800AA680A40102A55D03F4A022B38D12B6896
:10154800802713402B60FFF7CFFC0600BF042B68F1
:101558003B4227D1616A236AEA680B4337498026F0
:101568000A401343E26AB6041343226B1343A26A88
:1015780012021343EB6080232A685B0413432B6039
:101588008023EA685B051343EB60FFF7ADFC0400BA
:101598002B68334200D04FE6FFF7A6FC001B022859
:1015A800F6D973E6FFF7A0FC801B0228CFD96DE6B9
:1015B8002B688026134003222B60EB68B604934304
:1015C800EB60EB681E4A1340EB60FFF78DFC0400EC
:1015D8002B68334200D12FE6FFF786FC001B022858
:1015E800F6D953E6012B00D111E60322E868216AF7
:1015F80002408A4200D00AE67022616A02408A42AA
:1016080000D004E6FE21A26AC901014012029142FB
:1016180000D0FCE5F822E16A920302408A4200D039
:10162800F5E5236B400F4007C01A431E9841C0B22E
:10163800EEE5C04600100240FFFFFFFE8C80C11F90
:10164800FFFFFEEF382370B51D4CA2681A4205D182
:1016580023681C489B045B0FD84070BDA2681A40E1
:10166800082A27D0A2681A40102A17D1E368E1682F
:10167800DB43E5684906490F6F322D0A01311540F1
:101688009B0709D11048FEF741FDE1686843490FFF
:101698000131FEF73BFDE0E70A48F4E7A2681A408B
:1016A800202A09D0A26800201340182BD5D1FA208F
:1016B800C001D2E70448D0E780200002CDE7C04649
:1016C800001002400024F40000127A00F7B504006C
:1016D8000D00002801D10120FEBD07274A4E3368BE
:1016E8003B408B422AD3226893073BD4D20748D485
:1016F800072733683B40AB420AD93368BB432B43C7
:101708003360FFF7F1FB019033683B40AB426BD18C
:1017180023683E4D5B076FD4FFF794FFAB683C49E5
:101728001B051B0F9B005B581F210B40D840394AF3
:10173800394B10601868FFF78FFBCDE73368BB4360
:101748000B433360FFF7D0FB019033683B40AB425B
:10175800C9D0FFF7C9FB019BC01A304B9842F4D996
:101768000320B9E72949530704D5E0238868DB013A
:1017780003438B608B682A480340A06803438B604F
:10178800B4E76268214F012A19D13B689B03A2D5AF
:101798000721BB688B431343BB60FFF7A5FB019090
:1017A8003823BA681A406368DB009A42A0D0FFF772
:1017B8009BFB019BC01A194B9842F1D9D0E7022A2A
:1017C80003D13B689B01E3D485E7002A03D13B683A
:1017D8005B05DDD47FE70223032A03D1396E194262
:1017E800D6D178E7F96DFAE7FFF77EFB019BC01ABF
:1017F8000A4B984288D9B3E7AB680A4A1340E268B3
:101808001343AB6088E7C046002002400010024046
:10181800143700080000002008000020881300008A
:10182800FFF0FFFFFF8FFFFFF0B50368050085B0ED
:1018380000209B0351D58022484C5205E36B009051
:10184800134208D1E36B1343E363E36B1340039341
:10185800039B012300938027414E7F0033683B435D
:101868003360FFF741FB019033683B4227D0E16DBD
:10187800C022080092006B691040114217D09842AC
:101888000CD0E36D374AE16D1340802252020A43BF
:10189800E265E26D34490A40E265E365DB0706D597
:1018A800FFF722FB02270600E36D3B424ED0E36DB3
:1018B8002C4A002013406A691343E36506E0FFF7EA
:1018C80013FB019BC01A0228CED90320009B012BD1
:1018D80003D1E36B254A1340E3632A68D30706D58F
:1018E80003241E494B6DA3436C6823434B65930641
:1018F80006D51A491E4C4B6D2340AC6823434B65F3
:1019080053040FD515492C694B6D9B009B08234345
:101918004B658023DB059C4204D18023CC685B02A5
:101928002343CB6012050FD50C4A124C536DE9685E
:1019380023400B4353658023DB01994204D1802364
:10194800D1685B020B43D36005B0F0BDFFF7CCFA5A
:10195800094B801B9842A7D9B7E7C0460010024040
:1019680000700040FFFCFFFFFFFFFEFFFFFFFFEFDF
:10197800FFCFFFFFFF3FFFFF8813000001000300B8
:10198800012010B53D310C78E2B2844218D100181C
:1019980008701B68D9681143D9600B498B4202D083
:1019A8000A498B420DD19A6809490A40062A06D08D
:1019B80007398A4203D0012219680A431A600020B5
:1019C80010BD1968F9E7C046002C0140000400402A
:1019D800070001007047704770477047022203688C
:1019E80010B51969040011420ED0D96811420BD004
:1019F800053A1A61043202779B699B0700D186E099
:101A0800FFF7E9FF002323770422236819691142AD
:101A180011D0D96811420ED0093A1A6107322277DB
:101A28009A69C0239B0020001A4200D175E0FFF795
:101A3800D2FF0023237708222368196911420ED0A8
:101A4800D96811420BD0113A1A610D322277DB693D
:101A580020009B0767D0FFF7BEFF002323771022E3
:101A680023681969114210D0D96811420DD0213A62
:101A78001A6119322277DA69C0239B0020001A42C2
:101A880057D0FFF7A8FF002323770122236819699D
:101A9800114207D0D968114204D0033A20001A61D4
:101AA800FEF752FF802223681969114208D0D968CD
:101AB800114205D0023AFF3A20001A6100F0ADF851
:101AC80023681A69D20507D5DA68120604D51C4AB4
:101AD80020001A6100F0A2F8402223681969114217
:101AE80007D0D968114204D0813A20001A61FFF763
:101AF80074FF202223681969114207D0D96811425E
:101B080004D0413A20001A6100F086F810BDFFF7B2
:101B180061FF2000FFF760FF74E7FFF75BFF20001D
:101B2800FFF75AFF85E7FFF755FF2000FFF754FF3F
:101B380093E7FFF74FFF2000FFF74EFFA3E7C046EC
:101B4800FFFEFFFF194A10B50368904202D0184CF7
:101B5800A04208D17024A3434C68234390420BD081
:101B6800134CA04208D0134CA04205D0124CA042FE
:101B780002D0124CA04203D1114C1C40CB68234325
:101B88008024A3434C69234303608B68C3620B68BA
:101B98008362904205D0084B984202D0074B984286
:101BA80001D10B6903630123436110BD002C01407F
:101BB800000400400020004000440140004801406B
:101BC800FFFCFFFF70B504000120002C23D0250086
:101BD8003D352B78DAB2002B05D123003C332000A9
:101BE8001A70FEF7EBFF02232B702068211DFFF708
:101BF800A9FF2200012300204832137047340A3A13
:101C0800137053709370D370137153719371D371B0
:101C1800137223702B7070BD704770477047F7B50B
:101C2800020000260C682000F04000D1FEBD012013
:101C38002300B0400340044233D048680324009096
:101C4800180058434443009DE443013D012D0BD83F
:101C58008D689768454327403D43CF6895605F434B
:101C680055689D433D4355600D69D76845432740F6
:101C78003D43D560009D022D0DD14D690195FF2B87
:101C880011D805000F2745436F43136ABB43019FD3
:101C98006F433B43136213682340009C6043034334
:101CA80013600136BEE70F271B0A5B435B435F43A4
:101CB800556ABD43019F5F433D435562EBE7000012
:101CC800054B064A9B681B051B0F9B009B581F2250
:101CD8001340D8407047C04600100240143700082F
:101CE800054B064A9B685B045B0F9B009B581F22B1
:101CF8001340D8407047C04600100240F436000830
:101D08003821154B10B59A680A40082A22D0102AA3
:101D18001AD1D8680D3A10400338424250410F4A50
:101D2800404210400E4A8018DA68D968DC684906D3
:101D380053045B0E490F01315843FEF7E7F9610F71
:101D48000131FEF7E3F910BD1B6805489B045B0FE2
:101D5800D840F8E70348F6E70010024000EE85FF98
:101D68000024F40000127A0010B50400FFF7C8FF41
:101D78002060FFF7A5FF6060FFF7B2FFA06010BD0D
:101D8800030010B50020032B10D1C020124A800296
:101D9800516D0B401843114B984208D0104B984294
:101DA8000ED0104B984210D1FFF7AAFF10BD126851
:101DB80080231000DB0018401A42F7D00A48F5E7E4
:101DC800D06D8007C00FC003F0E7FFF799FFFFF75A
:101DD80077FFFFF785FFE9E70010024002000300E4
:101DE80003000300010003000024F400036802005C
:101DF80070B501205B0629D44E680B6848693343E7
:101E0800CE68156833430E690C6A33438E69034301
:101E18003343CE69000C3343114E234335402B43E3
:101E2800136053688D680F4E28433340184380234E
:101E380050601B019D4204D2802053684001034337
:101E4800536080239B019C4205D00020D36906493A
:101E58000B40D36170BD4B6A9BB21361F5E7C04676
:101E68004000FFFFFBF0FFFFFFF7FFFF7FB5040017
:101E7800036801200D00034248D18B680969226874
:101E88000B4369690B43E9690B4327490A4013432C
:101E980023606368254A1340EA6813436360A368B4
:101EA800234A1340AA691343A360224B9C4222D1C0
:101EB8000230FFF765FF2B6800281FD06E68002EE0
:101EC8001CD00B2B15D81C4A9B009958FEF71EF9FD
:101ED8008022E9697308120291421ED14000C0189D
:101EE8003100FEF713F9154B03400007400F184364
:101EF800E060002003E0124B9C4209D001200F2132
:101F0800E26A2B688A439BB21343E36204B070BD54
:101F180001A8FFF729FF0398CDE731001818FEF74D
:101F2800F5F880B2E4E7C046F369FFEFFFCFFFFFA3
:101F3800FFFCFFFF0038014054370008F0FF0000A5
:101F4800004400400023C25C8A4204D00133FF2BC6
:101F5800F9D100207047D8B2FCE741680268030055
:101F68000020914209D0511C19609A18107A8022D9
:101F78009200914201D300221A60704743685A1CAC
:101F8800C31842601972802342689B009A4201D3A9
:101F9800002343607047000037B5FEF7A5FF0190A6
:101FA800A02000221021C005FFF7B8F800242C4B10
:101FB800185D013400F034FB052CF8D1A020012273
:101FC8001021C005FFF7AAF8A02000221021FA2549
:101FD800C005FFF7A3F8AD000334FEF785FF019BAA
:101FE800C01AA8422AD8032000F01AFB2042F4D0D5
:101FF800A02001221021C005FFF790F8A0200022A0
:102008001021C005FFF78AF8022000F009FB002024
:1020180000F006FB0400002000F002FB0500A020F1
:102028002C4301221021C005E4B2FFF777F80D4ACE
:102038000D4B002C03D1146002221A7037BD002109
:102048001970136801331360632BF7D9BFF34F8FEF
:10205800064B074ADA60BFF34F8FC046FDE7C0461C
:102068001D000020B80900200C00002000ED00E051
:102078000400FA057FB50024A0204D4D2200102150
:10208800C0052C70FFF74AF84A4B185D013400F080
:10209800C7FA062CF8D1A02001221021C005FFF7AD
:1020A8003DF80120FEF726FFFEF71EFF0090A02056
:1020B80000221021FA26C005FFF730F8B6000234D6
:1020C800FEF712FF009BC01AB04205D93A4800F04B
:1020D80099FB002004B070BD032000F0A1FA204253
:1020E800EED0A02001221021C005FFF717F801202B
:1020F800FEF700FFA02000221021C005FFF70EF810
:10210800022000F08DFA002000F08AFA0600002074
:1021180000F086FA002468706B78A3422ED8A020BD
:1021280001221021C005FEF7F9FF0223802E31D1CC
:10213800224901A86A78033A9A4227DC0122204BF7
:102148001A7000F065FA00231A001E491E48CD5C7B
:10215800C45CA54201D00132D2B20133082BF6D1BA
:102168000023082A02D100F048FC0123174A137003
:102178000322174B1A70124B1878ABE7002000F0B7
:102188004FFA01AB18550134E4B2C5E71A5CCA54DA
:102198000133CFE700210A4B14220B48197000F0D5
:1021A80097FB01220A4B1A7000F02AFAE3E7C046AF
:1021B800A209002017000020843700089009002099
:1021C80090090020920900209A0900209109002016
:1021D8000C000020484B73B504225871050047488D
:1021E8000C0000F00AFCA02000221021C005FEF718
:1021F80095FF002000F014FA042000F011FA0720DF
:1022080000F00EFA022000F00BFA212000F008FA84
:10221800280000F005FA207800F002FA607800F053
:10222800FFF9A07800F0FCF9E07800F0F9F9A020B7
:10223800002501221021C005FEF770FF304C08264A
:102248002570FEF751FE0190A0202A001021FA25E2
:10225800C005FEF763FFAD002378082B2ED1A02020
:1022680001221021C005FEF759FF0120FEF742FEAA
:10227800A02000221021C005FEF750FF022000F028
:10228800CFF9002000F0CCF92070002000F0C8F948
:10229800002560706378AB4222D8A020012210216B
:1022A800C005FEF73BFF2378802B21D0154800F0AE
:1022B800A9FA01231800144A137008E0FEF714FE67
:1022C800019BC01AA84203D9104800F09BFA76BDBA
:1022D800032000F0A5F92070237833402370BBE772
:1022E800002000F09DF9AE1C0135A055EDB2D1E7F4
:1022F80003230020DFE7C0460D0000201300002064
:10230800A2090020B23700080C0000209A37000804
:10231800F7B50500A02000221021C005FEF7FEFE3B
:10232800002000F07DF9042000F07AF9032000F085
:1023380077F9022000F074F9202000F071F92800E4
:1023480000F06EF9A020002601221021C005FEF73A
:10235800E5FE0120FEF7CEFD314C08272670FEF77A
:10236800C3FD0190A02032001021FA26C005FEF717
:10237800D5FEB6002378082B35D1A02001221021E4
:10238800C005FEF7CBFE0120FEF7B4FDA020002219
:102398001021C005FEF7C2FE022000F041F900201E
:1023A80000F03EF92070002000F03AF90026607035
:1023B8006378B34229D8A02001221021C005FEF776
:1023C800ADFE2378174A802B27D1E178164BAD0054
:1023D800595521795D1969706379AB70A379EB70F0
:1023E8000323137008E0FEF77FFD019BC01AB0427B
:1023F80003D90E4800F006FAF7BD032000F010F9E3
:10240800207023783B402370B4E7002000F008F9DF
:10241800B71C0136E055F6B2CAE70123E1E7C0462A
:10242800A20900200C000020BC0900209A370008EF
:10243800014B18787047C0460C0000200122014B60
:102448001A7070470C0000208021A02010B50122CE
:102458004901C005FEF762FE10BD00008021A020E2
:10246800002210B54901C005FEF758FE0122014BB4
:102478001A7010BD0C000020014B18787047C04638
:10248800910900200022014B1A7070479109002021
:1024980010B50024200001340021E4B2FFF738FF12
:1024A800142CF7D1004810BDBC090020014B187846
:1024B8007047C04690090020074A084B1060196011
:1024C8000021074B1960074B1960136812689B18A5
:1024D800054A13607047C0460C0A0020080A00200D
:1024E800040A0020000A0020FC09002070B5124DE3
:1024F8002B68002B18D0114C236801332360104B34
:1025080021681A68914210D80122A0200221C00532
:10251800FEF704FE0B4B22681B689A4204D3002383
:1025280023602B68013B2B6070BD22681B689A42B0
:10253800F0D90022E9E7C046040A0020000A00207A
:102548000C0A0020FC090020642110B504000800D2
:10255800FFF7B2FF0022024B1C60024B1A6010BD4D
:10256800040A0020000A00200022054B1860054BD1
:1025780040001A60044B1A60044B18607047C0464C
:102588001C0A0020180A0020140A0020100A002043
:102598000F4B10B51B68002B16D00E4C2368013367
:1025A8002360002B09D00C4A126893420DD80122EF
:1025B8001100A020C005FEF7B1FD084B22681B687A
:1025C8009A4201D10023236010BD00220121F0E7C7
:1025D800180A0020140A00201C0A0020100A0020F3
:1025E8003221054B10B518600800FFF7BDFF002227
:1025F800024B1A6010BDC046180A0020140A0020B9
:102608000122A02010B51100C005FEF787FD10BDFE
:10261800A02010B50121C005FEF786FD10BD000001
:102628000222064B99681142FCD01873C0468022DA
:1026380099681142FCD1187BC0B270470030014044
:102648008022034BD9691142FCD098627047C0467A
:10265800004400408023C2691A42FCD0816270475E
:1026680070B506000C008D18AC4200D170BD217801
:102678003000FFF7EFFF0134F6E70000002310B544
:10268800040003604360836081814366C281036103
:1026980043618361190008225C3000F019F90B4B83
:1026A800246263620A4BA3620A4BE3620A4B236308
:1026B8000A4B9C4205D00A4B9C4202D0094B9C42D3
:1026C80003D12000583000F095F910BD41280008CA
:1026D80069280008A1280008CD280008200A002041
:1026E800880A0020F00A002010B5034A034904486C
:1026F80000F06CF810BDC046240000209D32000890
:102708003400002041680B4B10B50400994201D0F9
:1027180000F0C0FDA168084B994202D0200000F0EB
:10272800B9FDE168054B994202D0200000F0B2FDE6
:1027380010BDC046200A0020880A0020F00A0020A8
:1027480010B5094B094A04211A6009480022FFF70D
:1027580095FF012209210748FFF790FF0222122165
:102768000548FFF78BFF10BD580B0020F126000825
:10277800200A0020880A0020F00A002010B502482C
:1027880000F039F910BDC046610B002010B50248B1
:1027980000F032F910BDC046610B002010B50400EE
:1027A800FFF7ECFF236A002B02D0FFF7EFFF10BD05
:1027B800044B2362044B1B68002BF6D1FFF7C0FFC4
:1027C800F3E7C0460D270008580B0020F7B51400A2
:1027D800002600900191A5686768013F04D5246828
:1027E800002CF8D13000FEBDAB89012B08D90E2290
:1027F800AB5E013304D029000098019B984706433B
:102808006835EAE70FB407B5054904AB086804CB97
:102818008168019300F01EFA03B008BC04B01847A1
:102828003000002010B5034B01001868826800F0E2
:102838005CFD10BD3000002070B50C000E25495F0E
:1028480000F086F8002803DB636D1B18636570BD14
:10285800A389024A1340A381F9E7C046FFEFFFFFAF
:10286800F8B51F008B8905000C001600DB0505D59F
:102878000E23C95E0022022300F056F8A389054AF8
:1028880028001340A38132000E23E15E3B0000F0D4
:1028980073F8F8BDFFEFFFFF70B50C000E25495F18
:1028A80000F042F8A389421C03D1054A1340A381D2
:1028B80070BD802252011343A3816065F8E7C046CA
:1028C800FFEFFFFF10B50E23C95E00F01BF810BD27
:1028D80003008218934200D1704719700133F9E759
:1028E80030B50500101E0BD00024013A2B5D085DA1
:1028F800834204D1A24202D00134002BF6D1181A27
:1029080030BD0000002370B5064D040008002B60A0
:10291800FEF70CF9431C03D12B68002B00D0236071
:1029280070BDC0465C0B002070B5040008001100A3
:102938001A000023054D2B60FEF702F9431C03D152
:102948002B68002B00D0236070BDC0465C0B0020B4
:1029580070B50400080011001A000023054D2B6013
:10296800FEF7CAF8431C03D12B68002B00D0236064
:1029780070BDC0465C0B002070B504000800110053
:102988001A000023054D2B60FEF7C3F8431C03D142
:102998002B68002B00D0236070BDC0465C0B002064
:1029A800014B18687047C0463000002070B50026FB
:1029B8000C4C0D4D641BA410A64209D1002600F052
:1029C80019FE0A4C0A4D641BA410A64205D170BD1D
:1029D800B300EB5898470136EEE7B300EB58984739
:1029E8000136F2E708380008083800080C380008F3
:1029F80008380008704770477047002310B59A429E
:102A080000D110BDCC5CC4540133F8E770B50500A3
:102A18000C1E10D0043C2368002B00DAE4182800B0
:102A280000F0E0F81D4A1368002B05D163601460BC
:102A3800280000F0DFF870BDA34208D920682118EB
:102A48008B42F3D119685B6809182160EEE71A0018
:102A58005B68002B01D0A342F9D911685018A04235
:102A68000BD120680918501811608342E0D118680A
:102A78005B68411811605360DAE7A04202D90C2361
:102A88002B60D5E7206821188B4203D119685B6851
:102A98000918216063605460CAE7C046680B0020CB
:102AA80070B50F4E0D0031680400002902D100F006
:102AB800F3FC30602900200000F0EEFC431C03D139
:102AC80001256D42280070BD0323C51C9D43A84203
:102AD800F8D0291A200000F0DFFC0130F2D1EFE72E
:102AE800640B0020F7B50322CB1C93430833050081
:102AF8001F000C2B34D20C27B94233D8280000F021
:102B080071F8374E33681C00002C2FD1390028008B
:102B1800FFF7C6FF0400431C5FD134680094009B94
:102B2800002B4AD1002C52D023682800E3180099C2
:102B3800019300F0B1FC019B834248D1236828002F
:102B4800FF1A3900FFF7ACFF013040D02368DB19CA
:102B5800236033685A68002A33D1009B336019E038
:102B6800002BC9DA0C232B600020FEBD2168C91B8D
:102B780020D40B290AD9E2192760A34204D1326074
:102B880063681160536005E05A60F9E76268A34220
:102B98000ED13260280000F02DF8200007220B30FB
:102BA800231D9043C21A9842DFD01B1AA350DCE7BA
:102BB8005A60EFE723006468A6E7009C6368009307
:102BC800ADE71A005B68A342FBD10023DAE70C23C8
:102BD80028002B6000F00EF8C6E70760DAE7C04669
:102BE800680B002010B50248FFF705FF10BDC0466E
:102BF800600B002010B50248FFF7FEFE10BDC0466E
:102C0800600B0020936810B5013B9360002B04DA39
:102C18009469A34207DB0A2905D01368581C106081
:102C28001970080010BD00F096FB0100F9E7F8B52F
:102C380006000F001400D518AC4201D1002007E0AF
:102C480021783A003000FFF7DDFF0134431CF3D14F
:102C5800F8BD0000F0B5A1B00F0015001E000390EC
:102C6800002804D0036A002B01D1FFF797FD7B6E83
:102C7800DB0705D4BB899B0502D4B86DFFF7BBFE03
:102C8800BB891B0702D53B69002B13D13900039878
:102C980000F0A4FB00280DD07B6EDB0703D50120D4
:102CA800404221B0F0BDBB899B05F8D4B86DFFF751
:102CB800A3FEF4E7002308AC636120336376103386
:102CC800A37607962E003378002B01D0252B48D108
:102CD800731B0593AE420BD02A0039000398FFF707
:102CE800A6FF013000D1AEE06369059A9B186361C5
:102CF8003378002B00D1A6E0012200235242626003
:102D080004A954325218751C2360E360A360137041
:102D1800A365594B052218002978059300F0CEFBCE
:102D28006E1C00281FD12268D30604D5532304A99A
:102D38005B1820211970130704D5532304A95B18C5
:102D48002B2119702B782A2B16D02E0000210A204F
:102D5800E3683278751C303A092A50D9002911D114
:102D680017E00136AFE7059B2268C01A01238340AC
:102D7800134335002360CCE7079B191D1B68079197
:102D8800002B01DB0B9304E05B42E3600223134357
:102D9800236033782E2B0CD173782A2B34D1079BE0
:102DA80002361A1D1B680792002B01DA01235B42C9
:102DB8000993324D03222800317800F07FFB002868
:102DC80006D04023401B834022680136134323600A
:102DD800317806222A48751C217600F06FFB0028FE
:102DE80040D0284B002B22D10722079B073393435F
:102DF800083307936369049A9B18636162E7434346
:102E08002E0001219B18A4E700230A20190001368F
:102E180063603278751C303A092A03D9002BC8D070
:102E28000991C6E741432E0001238918F1E707AA53
:102E3800009221003A00144B039800E000BF049070
:102E4800049B0133D6D17B6EDB0705D4BB899B0578
:102E580002D4B86DFFF7D0FDBB895B0600D51EE72D
:102E68000D981EE707AA009221003A00064B039826
:102E780000F07CF8E3E7C046D5370008DB370008E8
:102E8800DF37000800000000372C0008F7B51600EF
:102E980001938A680B690C000090934200DA1300D2
:102EA8002200336043321278002A01D001333360A4
:102EB80023689B0602D533680233336022680623F1
:102EC80015001D401A4227D0230043331B785A1E91
:102ED80093412268920630D4220001990098089DF7
:102EE8004332A847013025D0062223680025134025
:102EF800042B05D13368E568ED1AEB43DB171D4059
:102F0800A3682269934201DD9B1AED180026B54299
:102F180020D1002010E00135E36832689B1AAB42EB
:102F2800D2DD2200012301990098089F1932B84781
:102F38000130F0D101204042FEBD3020E11843317C
:102F4800087021005A1C45310978A218433202330F
:102F58001170C1E72200012301990098089F1A32D5
:102F6800B8470130E6D00136D1E70000F0B58BB0A4
:102F780006920A0043320793059003920A7E0C00DA
:102F8800109B782A09D8622A0BD8002A00D1BCE005
:102F98007B490491582A00D190E0250042352A70D7
:102FA80022E0100063381528F7D8FDF7A5F81600B9
:102FB8001F00F6FFF6FFF6FFF6FF1F00F6FFF6FF0D
:102FC800F6FFF6FFA10036008000F6FFF6FFB2001C
:102FD800F6FF3600F6FFF6FF840025001A68423532
:102FE800111D196013682B700123A0E01868096887
:102FF800021D0D060BD506681A60002E03DA2D2374
:10300800039A764213705E4B0A27049318E0066809
:103018001A604906F1D536B2EFE70868196840C961
:10302800050602D4400600D5B6B21960544B0A27EB
:1030380004936F2A00D1023F2300002243331A7001
:103048006368A360002B03DB042122688A432260A3
:10305800002E02D1039D002B0CD0039D30003900B7
:10306800FDF7DAF8049B013D5B5C2B70330006002A
:103078009F42F3D9082F09D12368DB0706D5626878
:1030880023699A4202DC3023013D2B70039B5B1BB2
:103098002361079B210000930598069B09AAFFF767
:1030A800F5FE013048D1012040420BB0F0BD20228E
:1030B80009680A4322607822324904912100453187
:1030C8000A701968226840C9100602D4500600D553
:1030D800B6B21960D30702D5202313432360002E0C
:1030E80001D01027A8E72022236893432360F8E73C
:1030F8001A680D68101D4969186013682E0601D5F5
:10310800196002E06D06FBD519800023039D236139
:10311800BFE71A68111D1960156800212800626848
:1031280000F0CCF9002801D0401B6060636823617F
:103138000023039A1370ACE72A00236906990598BF
:10314800079DA8470130AED023689B0715D4099B7B
:10315800E0689842A9DA1800A7E722000123069937
:103168000598079E1932B04701309CD00135E368B5
:10317800099A9B1AAB42F0DCE9E70025F7E7C0465D
:10318800E6370008F7370008F7B50C228B5E050014
:103198000C001A0756D44A68002A02DC0A6C002A76
:1031A8004EDDE76A002F4BD0002280202E682A606F
:1031B8001A004001216A0240034233D0626DA3899C
:1031C8005B0706D56368D21A636B002B01D0236CAA
:1031D800D21A00232800E76A216AB847A289431C4B
:1031E80006D129681D2946D8294B0B41DB0742D453
:1031F8000023636023692360D20405D5431C02D1F0
:103208002B68002B00D16065616B2E60002917D0F8
:1032180023004433994202D02800FFF7F7FB00232C
:1032280063630DE001232800B8470200431CC6D1A0
:103238002B68002BC3D01D2B01D0162B1AD12E6062
:1032480000201EE00E69002EFAD00F680E60BA1B2F
:10325800019200229B0700D14A69A260019B002BC2
:10326800EEDDA36A32001F002800019B216AB847DF
:10327800002807DCA2894023012013431BB2A38145
:103288004042FEBD019B36181B1A0193E6E7C04673
:10329800FEFFBFDF0B6970B505000C00002B02D1E3
:1032A8000025280070BD002804D0036A002B01D136
:1032B800FFF774FA0C22A35E002BF1D0626ED207DE
:1032C80004D49B0502D4A06DFFF795FB28002100CC
:1032D800FFF75AFF636E0500DB07E2D4A3899B055D
:1032E800DFD4A06DFFF788FBDBE770B506000D00A3
:1032F8001400002804D0036A002B01D1FFF74EFA0E
:10330800636EDB0705D4A3899B0502D4A06DFFF784
:1033180072FBA368013BA360002B05DAA269934204
:1033280012DBEBB20A2B0FD023685A1C22601D70E7
:10333800EDB2636EDB0705D4A3899B0502D4A06DAB
:10334800FFF75AFB280070BD29002200300000F06A
:1033580002F80500EDE7F8B506000D001400002896
:1033680004D0036A002B01D1FFF718FAA369A36000
:10337800A3891B0702D52369002B09D1210030003E
:1033880000F02CF8002803D001256D422800F8BD74
:1033980023692068EFB2C01A6369EDB2834205DC85
:1033A80021003000FFF776FF0028EDD1A368013037
:1033B800013BA36023685A1C22601F706369834223
:1033C80004D0A389DB07E1D50A2DDFD12100300025
:1033D800FFF760FF0028D9D0D6E700002D4B70B565
:1033E800050018680C00002804D0036A002B01D1DE
:1033F800FFF7D4F90C23E25E130723D4D30607D4CE
:1034080009232B60402301201343A38140423AE063
:10341800520713D5616B002908D023004433994221
:1034280002D02800FFF7F2FA002363632422A3895D
:103438009343A38100236360236923600823A2893F
:103448001343A3812369002B0BD1A0218022A389D8
:10345800890092000B40934203D02100280000F01D
:1034680063F80C23E25E012113000B400A420BD0E3
:103478000023A36063695B42A36100202369834240
:1034880001D11306BED470BD910700D46369A3604F
:10349800F3E7C04630000020002370B5064D040055
:1034A80008002B60FDF74EFB431C03D12B68002B53
:1034B80000D0236070BDC0465C0B0020C9B28218E2
:1034C800904201D10020704703788B42FBD0013035
:1034D800F6E7000070B50E001D000E23C95E14004B
:1034E80096B000290CDAB2898023110019401A42DB
:1034F80014D18023DB0000202960236016B070BD42
:103508006A4600F053F80028EDDBF02301991B020E
:103518001940044BC9184B425941EAE7002140239E
:10352800E9E7C04600E0FFFFF0B502268B890500F9
:103538000C0085B0334207D0230047332360236152
:103548000123636105B0F0BD03AB02AAFFF7C2FF18
:10355800029F019039002800FFF7C4FA002808D11B
:103568000C22A35E9A05EDD4032293431E43A68141
:10357800E2E78023A28920601343A381039B206193
:103588006761002B0CD028000E23E15E00F020F8C4
:10359800002805D00323A2899A43023B1343A38141
:1035A800A389019A1343A381CCE70000002370B5D7
:1035B800064D0400080011002B60FDF7BAFA431C01
:1035C80003D12B68002B00D0236070BD5C0B00205A
:1035D800002370B5064D040008002B60FDF7AEFA15
:1035E800431C03D12B68002B00D0236070BDC0465C
:1035F8005C0B0020F8B5C046F8BC08BC9E46704776
:0C360800F8B5C046F8BC08BC9E467047F0
:103614003031323334353637383941424344454604
:10362400236472697665723A0023445249564552BE
:103634003A00234472697665723A00577269746578
:10364400205375636365737321200A0D00577269F3
:103654007465204572726F7221200A0D0020546136
:103664006720646F6573206E6F7420657869737466
:1036740021200A0D004661696C75726520666F72BF
:103684006D61742122236472697665723A6E616D8C
:10369400655F34332C6C6963656E73655F31352EF9
:1036A4002A220A0D004661696C75726520666F7284
:1036B4006D617421226472697665723A6E616D651A
:1036C4005F34332C6C6963656E73655F3135232217
:1036D4000A0D004661696C75726520666F726D61D2
:1036E40074206D657373616765210A0D0000000025
:1036F40000000000000000000000000000000000C6
:1037040001000000020000000300000004000000AB
:1037140000000000000000000000000000000000A5
:103724000000000000000000000000000000000095
:10373400010000000200000003000000040000007B
:103744000600000007000000080000000900000057
:103754000100000002000000040000000600000058
:10376400080000000A0000000C0000001000000027
:103774002000000040000000800000000001000064
:103784002074696D656F757420696E76656E746FEB
:103794007279200A0D0020577269746553696E6747
:1037A4006C652074696D656F7574200A0D0057721D
:1037B400697465204D656D6F727920426C6F636B1F
:1037C40020436F6D6D616E64204641494C200A0DA3
:1037D40000232D302B2000686C4C0065666745463D
:1037E4004700303132333435363738394142434477
:1037F4004546003031323334353637383961626307
:043804006465660091
:04380800E1000008D3
:04380C00B9000008F7
:103810000024F4000100000004000000010004077F
:103820000221000000000000040326010000020243
:10383000010D00000000000003000000200A00202D
:103840003400002000000000200A0020880A002028
:10385000F00A00200000000000000000000000004E
:103860000000000000000000000000000000000058
:103870000000000000000000000000000000000048
:103880000000000000000000000000000000000038
:0400000508000E0DD4
:00000001FF
