:020000040000FA
:1000000050240020C1000000B9100000A910000019
:10001000FFFFFFFFFFFFFFFFFFFFFFFFFFFFFFFFF0
:10002000FFFFFFFFFFFFFFFFFFFFFFFF5114000077
:10003000FFFFFFFFFFFFFFFFD11000000D150000C5
:1000400035010000350100003501000035010000D8
:1000500035010000350100003501000035010000C8
:1000600017080000350100003501000035010000CF
:1000700035010000350100003501000035010000A8
:100080003501000035010000350100003501000098
:100090003501000035010000350100003501000088
:1000A000ED160000350100003501000035010000AB
:1000B0003501000035010000350100003501000068
:1000C0001D4880471D4880471D4800471D4801695D
:1000D000002908D14169002905D18169002902D18F
:1000E000C169002909D01848C1680901090D002912
:1000F0000ED005290CD006290AD0BFF34F8F134824
:100100001349016013491248C860BFF34F8FFEE7DF
:100110000E4801680E48884200D070470E480F49CB
:1001200001600A480E4901607047FEE7FEE7FEE7FE
:10013000FEE7FEE7FEE70000CD0000002D15000001
:100140006501000000030840800108400000002015
:100150000400FA0500ED00E0008108400100000005
:10016000000000000448854600F0B0FA004800474F
:10017000252A0000C046C0465024002030B50B465A
:10018000014600202022012409E00D46D5409D4271
:1001900005D31D469540491B2546954040191546F7
:1001A000521E002DF1DC30BD70B502464A40D50F1D
:1001B00040004A00ED0740085208002814D0002AE9
:1001C00012D0C40DD30D41020120C0055202490ACC
:1001D000520AE41A091812187D34914201D3641CA2
:1001E00000E04900002C01DA002070BD002391429C
:1001F00001D3891A0343400849000028F7D1002998
:100200000AD0914202D10121C90705E0914201D2F1
:10021000012101E00121C943E005C018401900F0A7
:100220004CF870BD10B500229623114600F04DF831
:1002300010BDC20FD207400040080BD0C10D0723EC
:10024000DB01C91840020905400A1143C2084007F2
:1002500011437047002001467047F0B51FB40646B1
:10026000002082B005464024019100901BE00199D6
:1002700022460F46304600F04BFA049A059B801A3E
:10028000994110D310461946224600F031FA361A29
:100290008F410197224601200021009F00F028FA9B
:1002A00038184D4100902046641E0028DFDC019B79
:1002B00000982946324607B0F0BD002904DA401CF8
:1002C000490001D140084000704770B40024050C7B
:1002D00005D11024000402D1002921D01124050EDB
:1002E00001D100020834050F01D10001241D850F42
:1002F00001D18000A41C002801DB4000641C0029FF
:1003000008D020252E1B0D46F540A14000D001212C
:100310002943084301061B1B000ADB1D02D50020F0
:1003200070BC7047DB05181880180029F8DA401CEB
:100330004900F5D170BC400840007047F0B5074651
:100340000846584087B0C00F049048000E46590038
:1003500040084908BC1A884105D2384631461E4635
:1003600017460B4602465800400810434DD0300D4A
:10037000039040055900400D490D0590401A029028
:10038000402873DA18030121000B09050843019086
:1003900004980092002806D01146019A4942002094
:1003A000904100910190029840210A1A0199009809
:1003B00000F09EF905460C466B4607CB00F0B9F9F4
:1003C000C0197141039A0E0D0023D71756401A46E3
:1003D0007A40164344D0049A002A2DD0029A012A6A
:1003E000039A15DC1205C01A914101263605001C3E
:1003F0007141D20F059ED2070093019202962A46C0
:10040000234600F0B6F907B0F0BD38463146FAE7AA
:100410001605234A0F46B218C01AB7410121090533
:10042000001C4F4100187F41114618187941E20F16
:1004300010436D19644113E0E2076D081543640829
:10044000C2071443039A01261205C01A91413605CA
:10045000001C7141CE07400830434908C018514183
:100460002A46234600F078F9CDE7FFE704980122F9
:100470004000C117121A00238B4104983146C4175B
:10048000381AA141EEE730B40124E407634030BCE0
:1004900054E730B40124E407614030BC4EE700006B
:1004A0000000E0FFF0B51FB488B00B990998002454
:1004B00048400999C00F490049080991C0070B99A4
:1004C0000090490049080B9109990898A6460843ED
:1004D0001CD00B990A98084318D0099801244000B1
:1004E000420D4800410D099824050003000B2043EC
:1004F00009900B980003000B20430B9050181C49E7
:100500004018002201901446104605E000200146E4
:100510000DB0F0BD032801DA034600E003239C463A
:10052000C11A0AAE0AE05F0008ADED5B4F00F75B51
:100530007D430027AA187C41491C5B1E6145F2DD02
:10054000410004AB5A522104120C0A43240C401CF3
:100550000828DFDB01980290009970460191009015
:10056000059B049A0799069800F003F9D0E700006C
:100570000DFCFFFFF0B50C465C4085B0E40FE407CE
:1005800003944C000026640859009446490802462A
:100590000296224321D062460A431ED06200570DC4
:1005A0004A000E032303550D012402462C4924055D
:1005B000781B1B0B360B40182343264361460090E3
:1005C0001C46501AB44103D30098401C009002E02E
:1005D000921800985B41002803DA0020014605B01C
:1005E000F0BD0020012109050746864611E064465A
:1005F0001D46141BB54106D36546521BB3417446D4
:1006000007430C43A646CD074008490828439218E3
:100610005B4105460D43EAD11046184313D06046AE
:10062000194650407140084306D06046101AB34145
:1006300006D20122002306E000220123DB0702E0AC
:100640000122D2435310009874460105381C6141C1
:10065000029C039D0019694100F07EF8BFE700008D
:10066000FD0300004A0009030123090B1B05194380
:100670000A4B10B5520D9A4202DA0020014610BD15
:10068000064B34339A4203DC9A1A00F041F810BD4D
:10069000034BD21800F02CF810BD0000FF0300003F
:1006A000CDFBFFFF10B5002904DB0124E407404225
:1006B0008C412146002B04DB1C460123DB07524200
:1006C000A341994200D1904210BD0000064C012583
:1006D000064E05E0E36807CC2B430C3C98471034EA
:1006E000B442F7D3FFF742FD043F0000243F00006F
:1006F00010B5202A04DB0146203A9140002010BDAD
:10070000914020239C1A0346E3401943904010BDBA
:1007100010B5202A04DB0846203AD040002110BD45
:100720000B46D340D0402024A21A914008431946DA
:1007300010BD10B5202A06DBCB170846203A104121
:10074000C1170B4306E00B461341D0402024A21AE8
:1007500091400843194610BD10B5002B08DA00245B
:10076000401C614192185B411A4301D1400840008E
:1007700010BDF0B51FB482B005460C0003D008468A
:1007800001F06CF802E001F069F8203002460090B8
:1007900021462846FFF7ACFF049B059A04460F4606
:1007A00018431143084314D0184610431BD0009837
:1007B00040210A1A18460599FFF7AAFF05460E467A
:1007C000009A05990498FFF793FF084305D001208C
:1007D00004E02046394607B0F0BD0020C1170543AC
:1007E0000E432C43374300990E986305401A790550
:1007F000E40A00220C43FD0A0A3002D5002001461B
:10080000E9E70105101969410C9C0D9D001969412A
:10081000FFF7A2FFDFE77047F7B50B46009DED003D
:10082000154EAA19002000240027002120E00024F2
:100830000027FF258D401D40002D17D000200FE020
:100840001D46C54001268E403540002D07D086004C
:100850000F25B5402C438600029DB5402F43401C18
:100860000828EDD31568A5433D431560121D0831D6
:100870000829DCDDFEBD0000202002400FB438B5A1
:1008800005A80090012189020748009B049A00F006
:10089000CDFF044600200090A1B2034800F06EFA9C
:1008A00038BC08BC04B0184754080020F8B5054609
:1008B00020480068002837D01F480468002D37D032
:1008C000002600201D49087024E00121090370184A
:1008D0002A46891000F0E2FC002716E0E85D18497E
:1008E000164A1278895C884205D114480078401C69
:1008F0001249087002E00020104908700F48007883
:100900001C2801DB0F4F26467F1C012080028742F6
:10091000E4D33618A642D8D3002C09D00748007873
:100920001C2805D0012403E00024002000F00CF86E
:100930002046F8BD10000020541800200C000020B4
:10094000C02A0000D204000070B5054600201349FB
:100950000860002D01D1002418E01148006800282B
:1009600013D00120000385420DD9332000038542B6
:1009700009D20C4800781C2803D1084805600024DF
:1009800004E0022402E0032400E0012400F0CCF89B
:10099000002004490870204670BD00005418002053
:1009A000100000200C000020F8B505460E46174642
:1009B00007480068002808D001210903681832465A
:1009C000394600F06BFC002400E001242046F8BD0D
:1009D0001000002070B5054600200749087000246B
:1009E0000649086006480068002802D000F09CF81C
:1009F00000E00124204670BD0C00002054180020A7
:100A000010000020F7B582B00E4614462948006851
:100A1000002849D001221203029988183246214643
:100A200000F094FCA1B2304601F0E4FF0546002737
:100A300003E00020F055781C87B2A742F9D30122C9
:100A40001203029988183246214600F027FCA1B211
:100A5000304601F0CFFF0746BD4221D10020019072
:100A6000154800781C2821DA002516E0705D13492E
:100A7000114A1278895C884205D10F480078401CE1
:100A80000D49087002E000200B4908700A48007800
:100A90001C2800DBA5B2681C85B2A542E6D305E0A0
:100AA0000120C043019001E001200190019805B0B0
:100AB000F0BD0000100000200C000020C02A000043
:100AC00010B500F0ABFB15490860154A1021002055
:100AD00000F0E4FB1248006833210903884202D980
:100AE00000200F4908600E4840680E49884202D92C
:100AF00000200B4948600A480068094949684018C5
:100B00000749896840180649C968884204D000200E
:100B10000349086048608860204610BD100000202E
:100B2000541800207856341210B50A480068094954
:100B3000496840180749896844180648C068A042B7
:100B400006D00448C46002461021002000F0FEFBDD
:100B5000002010BD541800200EB500200090019018
:100B600002900021084600F0A9FA002000900190B0
:100B70000290012109040098884340180090490020
:100B80000098884340180090490000988843401816
:100B90000090490000988843401800902021019857
:100BA0008843203001900901019888434018019042
:100BB0004901019888434018019010210298884308
:100BC000103002900123684607C800F079F90EBD85
:100BD0007047000001480249086070470100A05FAB
:100BE0000080064010B500241BE06200164B995AA5
:100BF000164A105D0122FFF70FFE6200144B995A4E
:100C0000A200144B9858012200F028FA6200104B01
:100C1000995AA2000F4B9858012200F015FA601C57
:100C2000C4B2042CE1DB012251030020FFF7F4FDE4
:100C300001225103084800F011FA0122510306482D
:100C400000F002FA10BD0000EC2A0000E02A0000CB
:100C5000E42A00001400002000000B404100034A79
:100C6000515A8200024B9A5891627047EC2A000058
:100C7000140000204100034A515A8200024B9A5846
:100C800051627047EC2A00001400002081000F4AD6
:100C90005158096A42000E4B9A5A1140002901D05E
:100CA000012100E00021002907D04100084A515AE3
:100CB0008200064B9A58916206E04100044A515A5C
:100CC0008200024B9A5851627047000014000020C5
:100CD000EC2A000010B50420C04300F0BBFB0A4919
:100CE0000968C8087D21C900FFF748FA044600F0EA
:100CF000EDFB012000F0D8FB002000F0BDFB01203F
:100D000000F0BAFB10BD0000440000201FB50446EF
:100D1000062210210020FFF77FFD0622202100205F
:100D2000FFF77AFDE12040020090FF210131684683
:100D300081800021C18001810020039069460D4817
:100D400000F002FD182000F0AFFD01221146094815
:100D500000F04EFD01220021064800F057FD01225F
:100D60001146044800F052FD012103A000F006F8EE
:100D70001FBD0000000004400A00000010B502463C
:100D800000200CE0135C074C236000BF054B1B697F
:100D9000FF2401342340002BF8D0431C98B2884232
:100DA000F0DB10BD0000044070B504461748406BEE
:100DB0004607760F00F02EF82060330000F065FD46
:100DC000081605080B16160E12162068606010E053
:100DD0000F4860600DE00E4860600AE00120C0032B
:100DE000606006E07D200002606002E0002060603C
:100DF00000BF00BF0548056A052D02D360684009A1
:100E000001E06068E840A06070BD0000008008401C
:100E100000127A00F0B51B480068FF270137384000
:100E2000040A1848C069C50F164840687F0038405A
:100E3000460A002E01D10020F0BD002C01D112483D
:100E400000E0114802460F4FBF69FF00F80F174638
:100E5000C7403A46012D01D11046EDE709488069A7
:100E60000F27FF053840C10D002900D1102105488A
:100E7000806903277F053840430D10464843D8401A
:100E8000DAE700000080084000127A007EB50446D0
:100E9000002560118000094946182E2C00D102253A
:100EA000E406E40E0321A14030680840E040451903
:100EB0006846FFF779FF0298E8407EBD3880084019
:100EC0003FB50E4C606AE16A226B0446009DAC435C
:100ED00020460C46019DAC4321461446029DAC437E
:100EE0002246002B05D0009C2043019C2143029CFC
:100EF0002243024C6062E16222633FBD00800840F1
:100F000010B504460348046008200249C86000F098
:100F100011F810BD0000084030B504460D460448E5
:100F20000460456004200249C86000F003F830BD49
:100F300000000840174A1848406902231843164B1E
:100F400058611420186106E0134800690C2318400A
:100F50000C2800D103E01046521E0028F4D100BF37
:100F60000D4881698069022398430B4B98610120E9
:100F700040040840002801D00220704702200840A9
:100F8000002801D00120F8E7002A01D10320F4E76E
:100F90000020F2E7FFFF0F0000000840F8B505460B
:100FA0000C46002700200090FF2D08D910488542EC
:100FB00005D8FF2C03D9844201D8AC4202D80027BF
:100FC000FF4312E000272E460DE07F1C3046FFF75E
:100FD00097FF00900098002802D00127FF43E61CED
:100FE000012080023618A642EFD93846F8BD00002D
:100FF000FFFF03007047F7B582B005460F4600209B
:101000000190009001903E46002416E028193168B6
:10101000FFF782FF00900098002809D12959306815
:10102000884203D00020C0430190C409361D03E06C
:101030000120C0430190C409241D04988442E5D3D3
:10104000019805B0F0BD7047002A03D003680B4338
:10105000036002E003688B430360704730B51446B9
:101060008268C36815468D432A461D468D432B462C
:10107000002C04D0012C06D0022C09D107E0154623
:101080000D432A4605E01D460D432B4601E000E0D6
:1010900000BF00BF8260C36030BD002A01D0416242
:1010A00000E081627047000000BF0248006800282D
:1010B000FBD070474800002070470000024A0A40F9
:1010C0000243024B9A60704780FFFF1F00ED00E073
:1010D00070470000102001494862704700400B40F3
:1010E000102001498862704700400B40002100E059
:1010F000491C7D22D20042438A42F9D87047000041
:1011000000B58BB0012210210220FFF785FB0022E1
:1011100010212048FFF7A2FF012210211D48FFF7F0
:10112000BCFF012210211B48FFF78EFF0522202162
:101130000220FFF771FB0522FF2101310220FFF79A
:101140006BFB0522012149020220FFF765FB01200C
:1011500080030090002001900820029080020390FC
:1011600000200490079005900690089009900220B6
:101170000A906946084800F039F90121064800F054
:101180005BF90121044800F025F9FFF7A3FF0020D7
:101190000BB000BD00400B400040044030B5044699
:1011A0000D46002304E0002000F096F9E0545B1C9B
:1011B000AB42F8D3002030BD00B5002000F08CF920
:1011C00000BD30B504460D46002303E0E05C00F0AE
:1011D00083F95B1CAB42F9D3002030BD00B5034658
:1011E000184600F079F9002000BD000010B5044653
:1011F00000F06EF800F0CAF8FFF772FF21462020D9
:1012000000F092F8FFF766FF0520FFF76FFF02205E
:101210000149087010BD00005000002008B5FFF71C
:1012200059FFFFF76DFFFFF75BFF0021902000F0F3
:101230007BF802216846FFF7B1FFFFF74BFF002064
:10124000134908806846007801026846407808180B
:10125000104908806846007801280FDB684600784E
:10126000FE280BDC68464078122807DB6846407889
:10127000202803DC084600880549088005480088C6
:10128000034908807B20044908700148008808BD94
:101290004C0000204E0000205000002070B5044695
:1012A0000E46154600F014F8FFF71AFF21460320FA
:1012B00000F03AF831462846FFF770FFFFF70AFFC3
:1012C00070BD000001480088704700004C000020FD
:1012D00010B51248007800281FD000241AE0FFF74C
:1012E000FFFE0520FFF77AFFFFF766FF0B49087046
:1012F000FFF7F0FE09480078C007C00F07490870E3
:1013000008460078002801D1054C02E00520FFF7CF
:10131000EDFE641C03488442E1D310BD5000002060
:101320000F270000CF0700007CB505460C46684635
:1013300005702002010E684641702004010E6846C7
:101340008170C4700421FFF73CFF7CBDF7B50746F0
:101350003D46019E17E02805000D002802D12846D1
:10136000FFF744FFE8B2FF2101310C1AB44200D963
:10137000344621462846029A00F012F802980019D5
:1013800002902D19361B002EE5D1FEBD10B5FFF7DA
:10139000A7FE0620FFF722FFFFF79CFE10BD00000E
:1013A00070B504460E461546FFF792FFFFF7EEFFB5
:1013B000FFF796FE21460220FFF7B6FF314628468A
:1013C000FFF7FFFEFFF786FE03200149087070BD9E
:1013D00050000020002904D0026801231A43026053
:1013E00003E00268520852000260704710B54A6973
:1013F000002A05D10C7EFF230133A3401A4304E0E9
:101400000C7E01235B0223411A438C680B68234343
:10141000CC6823430C692343CC69234313434360C3
:101420004C6A4B6823430C6A2401234383618B6A13
:101430005B085B1EC36010BD002904D0026808234E
:101440001A43026003E0026808239A43026070476F
:1014500070470000042806D1064909690422114397
:10146000044A116105E00349096904229143014AD4
:101470001161704700E000E0002803D10021094A13
:1014800091610EE0012806D1064909690122114344
:10149000044A116105E00349096949084900014A04
:1014A0001161704700E000E0002806D00649096994
:1014B00002221143044A116105E00349096902222D
:1014C0009143014A1161704700E000E00149486121
:1014D0007047000000E000E001460B48426901E06F
:1014E00009484269D007C00F0028F9D006480161B9
:1014F000426901E004484269042010400028F9D004
:1015000001480069C0B270470040044005480068C7
:10151000401C0449086004480068401C02490860F7
:101520007047000000000020040000206748006BA6
:101530001021084365490863654866490861002031
:101540004860084680680005000D032149034018E3
:101550006049886060484860604808605B48006B8C
:10156000402108435949086300BF5D488068272827
:10157000FBD15648406A0321890288435349486297
:10158000084640680121C90208435049486000BF2D
:101590004E4880680007C00F0028F9D04B484068CB
:1015A000C008C000C01C4949486000BF4748406BA4
:1015B0004007400F0328F9D14A480068C008C0001E
:1015C000401C4849086000204049086208464068BD
:1015D000491588433D494860084600688915084315
:1015E0003A490860084640680821884337494860FE
:1015F00008460068491508433449086008464068B1
:10160000091508433149486000BF304880684007E9
:10161000C00F0028F9D000BF334880680821084374
:1016200031498860084680680007C00F0028F3D061
:1016300000BF26488068C006C00F0028F9D02348A4
:10164000006B40218843214908633D2040058861A3
:1016500008468069490308431C49886108460068B8
:1016600089158843194908600846406849150843A8
:101670001649486000BF154880688007C00F0028E1
:10168000F9D018480068C008C000801C15490860DF
:1016900000200E49086208464068C008C000401C8F
:1016A000486000BF0948406B4007400F0128F9D14E
:1016B0000C480068102108430A4908600846006881
:1016C000012109030843074908607047008008406A
:1016D000CA3500000080064080AD01000100A05F17
:1016E00000A106400002084000A0064010B52021DD
:1016F0000C4800F01FF8002813D00B48006889211F
:10170000C90088420DD2002008490860054800F051
:1017100079F8C1B204480468601C034A10600448A8
:10172000015510BD00000440080000200400002006
:1017300054100020024610690840002801D0012002
:1017400070470020FCE70000F8B504460D4600276E
:101750002646606823490840E9880843A988084369
:1017600029890843E968084360601F49701A8E425E
:1017700017D00ADC1D48301800280DD001210903BC
:10178000401A13D0401A25D11AE001210903401A4A
:1017900011D0401A1ED118E01820FFF777FB07463A
:1017A00018E01A20FFF772FB074613E01C20FFF732
:1017B0006DFB07460EE01E20FFF768FB074609E0B9
:1017C0000820FFF763FB074604E00A20FFF75EFBF3
:1017D000074600BF00BF38462968FEF7CFFC6062AD
:1017E000F8BD0000FCE0FFFF00000440000000C066
:1017F000002A03D0C3680B43C36002E0C3688B4375
:10180000C36070470146086880B2704710B5002A6F
:1018100005D0436810248C402343436004E04368B0
:1018200010248C40A343436010BD00007CB51D46CE
:1018300016460C0001D0611E00E0002101910090CD
:10184000054B6A462946304600F008F9002C02D0C4
:10185000009A002111707CBD992100002021020C0A
:1018600001D010211046020A01D0104608390209A1
:1018700001D01046091F820801D01046891E420877
:1018800001D0881E7047081A704730B47446641E31
:101890002578641CAB4204D3635D5B00E31830BC65
:1018A00018471D46F8E70000002809DB00BF00BF0D
:1018B000C206D20E01219140024A116000BF00BF52
:1018C0007047000000E100E002E008C8121F08C1F4
:1018D000002AFAD170477047002001E001C1121FB1
:1018E000002AFBD170470000F0B51FB486B00998FC
:1018F000089A030D0021024314D05148514A181888
:10190000504305141198012810981AD0281A401C29
:1019100000264D4F4D49009601910490002812DA9F
:10192000444211E01198012449A3012801D11098E3
:10193000C1430698119A84600360C26041600BB095
:10194000F0BD4042E4E70446210500203F4A001C68
:1019500051410391029012E0E00707D032463B4626
:1019600001990098FEF79EFD0191009032463B469A
:1019700010461946FEF796FD06460F466410002CE9
:10198000EAD10498039B0028029A0999089806DA7C
:10199000FEF788FD019B009AFEF784FD05E0FEF747
:1019A000E9FD019B009AFEF7E5FD04460E46002284
:1019B000284BFEF777FE03D80020C043014607E01E
:1019C0000022254B20463146FEF7B8FCFEF74AFEC2
:1019D000102409E0002C0ADB0A220023FEF73DFC5C
:1019E000079B30321A55641E02460A43F2D1112277
:1019F000641C079B121B1C19119B012B03D0012394
:101A000008430ED10AE0084304D0112010900020B2
:101A1000119077E71098151A6D1E0BE0109882420E
:101A200002DD00236D1C03E0824201DA00236D1EFB
:101A3000002BEED0069811998260C16030C07EE71D
:101A400001FCFFFF104D0000000014400000F03FBB
:101A5000300000000000F0430000E03FFFB597B009
:101A6000064600251BE2252876D100242746F749A3
:101A7000049400E00443761C32780120203A904020
:101A80000842F7D130782A280ED002223078014659
:101A90003039092916D804990A2359433039401896
:101AA0001443761C0490F1E7189802C8049118902A
:101AB000002904DA01204003044348420490022034
:101AC0000443761C30782E2814D104200443707807
:101AD000761C2A2809D11898761C80C8189009E02D
:101AE0000A214F43303FC719761C30780146303900
:101AF0000929F5D930786C2810D006DC4C281AD08A
:101B000068280ED06A2817D104E0742813D07A28E8
:101B100012D110E00120400504430CE00121090529
:101B200001E0032109050C437178814203D10120B2
:101B300000052418761C761C307866280BD013DC40
:101B400058287DD009DC00287BD04528F6D04628CF
:101B5000F4D047281AD1A9E118E0632835D06428C9
:101B600070D0652812D1A1E170286CD008DC6728FC
:101B7000F1D069287DD06E280DD06F2806D1BCE049
:101B800073282ED0752873D0782859D01A9A1999AD
:101B900090476D1C82E16002400F022809D00328A3
:101BA0000DD00428189801680DD00D60001D189004
:101BB00074E11898EA1701680D604A60F6E7189812
:101BC00001680D80F2E70D70F0E718986A46017819
:101BD0001172001D18900020507202A80090012080
:101BE00005E0189802C8189000200091C0436107D2
:101BF0000ED5002101E00199491C0191B94213DA87
:101C00008142F8DB019A0099895C0029F3D10BE04D
:101C1000002101E00199491C01918142FADB019AFE
:101C20000099895C0029F5D1019904981A9B471AFB
:101C300021463846199A00F099FA4019019903E0B3
:101C400051E030E115E050E0451807E000980099B8
:101C50000078491C00911A9A199990470198401EE2
:101C60000190401CF2D1214638461A9B199A12E184
:101C700037E00A200021009001916002410F022903
:101C800007D0189A01CA1892C2179446032908D09F
:101C90000AE01898C01DC108C90005C918919446EA
:101CA00007E000B2C2179446042902D140B2C1171E
:101CB0008C4600226146944506DA0A4600214042DD
:101CC00091418C462D2102E0210504D52B216A4645
:101CD0001173012103E0E10701D02021F7E7029110
:101CE00056E00A200AE0102008E0102000900021B1
:101CF000042004430191082703E0082000210191FA
:101D000000906002410F022907D0189A01CA189268
:101D100000229446032908D008E01898C01DC10885
:101D2000C90005C91891944603E080B2042900D186
:101D3000C0B20021029121072AD531780D91702976
:101D400006D0009A1021019B4A401A4305D00EE0AC
:101D500040216A461173012108E06146014306D023
:101D600030216A4611730D99517302210291009A34
:101D70000821019B4A401A430AD16146014301D11F
:101D8000610705D530216A46117301217F1E02913A
:101D90003178582904D02EA10E910DA90D910DE096
:101DA00030A1F9E76146019B009AFEF756FA0E9BB7
:101DB0008C469B5C0D9A521E0D9213706146014336
:101DC000F0D10D9805A9081A20300190600703D5BD
:101DD00001200004844300E001270198874201DDCF
:101DE000381A00E000200199009041180298091863
:101DF0000498401A0490E00306D421461A9B199ACD
:101E0000049800F0B3F94519002706E003A81A9AD0
:101E1000C05D199990476D1C7F1C02988742F5DBC5
:101E2000E0030CD521461A9B199A049800F09EF9FC
:101E3000451904E01A9A3020199990476D1C0099B1
:101E4000481E00900029F5DC1FE000000928010071
:101E50003031323334353637383961626364656620
:101E600000000000303132333435363738394142E2
:101E700043444546000000000D980D990078491C28
:101E80000D911A9A199990476D1C0199481E01905D
:101E90000029F1DC4DE100F059F94519761C307844
:101EA000002800D0DFE528461BB0F0BD600700D455
:101EB00006271898C01DC108C90048680A6808317B
:101EC000C30FDB071891190001D09CA108E0210580
:101ED00001D59BA104E0E10701D09AA100E09AA1FD
:101EE0004300109130785B0865280CD006DC45284B
:101EF00009D046281DD0472841D141E0662818D096
:101F000067283CD13CE00021112F01DB112000E0CB
:101F1000781C0191009008A911A8FFF7E5FC13991E
:101F200005910021119A15927F1C1298019700913A
:101F300050E00120C00703900120019008A90097FC
:101F400011A8FFF7D1FC139A149905920022119B56
:101F5000009212981593059A0192002901D010461B
:101F600002E0791C40180190381A01D5019804E06C
:101F70004042401E0090781C0190C01B029043E03C
:101F8000012F00DA01270021112F01DD112000E0CF
:101F900038460191009008A911A8FFF7A5FC1399F4
:101FA0000591119A0021129815920091019721072D
:101FB0000CD40599B94201DB019900E00191012996
:101FC00004DD159A491E515C302906D0B84201DA69
:101FD000011D05DA0121029115E00199491EEDE785
:101FE000002805DC0099411800910199091A03E0C5
:101FF000019A411C914200DD01910099401A401C58
:1020000002900120C0070390200706D4029901988E
:10201000814202DB0020C043029000206946C8775D
:1020200007AF012103980337C907884224D0022053
:1020300011902B201290039800280CDA4042039054
:102040002D20129007E00A210398FEF797F830310F
:102050007F1E039039701199481E11900029F2DCFF
:1020600003980028EFD1791E12980870307820214B
:1020700008404530BF1E387006A8C01BC01D039025
:1020800010980078002800D001200199411802988A
:10209000C0170918039809180498401A401E0490A4
:1020A000E00306D421461A9B199A049800F05EF8C2
:1020B000451910980078002803D01A9A199990476A
:1020C0006D1CE00324D521461A9B199A049800F050
:1020D0004DF845191CE00098002807DB0099059889
:1020E000884203DD1598405C199901E01999302068
:1020F0001A9A904700986D1C401C00900298401E50
:102100000290002804D11A9A2E20199990476D1C2C
:102110000199481E01900029DDDC05E038781A9A03
:102120007F1C199990476D1C0399481E0390002944
:10213000F4DC21461A9B199A0498ACE62D000000A5
:102140002B0000002000000000000000F8B504464D
:1021500000251E461746880404D405E03946202091
:10216000B0476D1C641EF9D52846F8BDFFB504467E
:10217000002581B01E46C80301D5302700E0202786
:10218000880404D505E038460399B0476D1C641EE9
:10219000F9D5284605B0F0BD4A68002A06D00A687D
:1021A000531C0B6010704868401E48607047000068
:1021B000F0B587B009240020F7490860F7490860A6
:1021C0000025F7480068F749401804900020FEF702
:1021D00051FD0120FEF74EFD9BE0F048006800280D
:1021E00073D0ED480068C82803D8EF48007823284A
:1021F00004D00020E8490860E8490860E748006822
:10220000042876D9E8480078232872D1E34800688A
:10221000801EE549085C2E286BD1E0480068401E0E
:10222000085C2A2865D1DD480068801EDB4908600B
:102230000020DD49D94A1268885401250DE0DA48AA
:10224000405D602808DDD848405D7B2804DAD64828
:10225000405D2038D44948556D1CD04800688542FF
:10226000EDD3D148407857283ED1CF4880783228E6
:102270003AD1CD48C078312836D1CB4800792028D2
:1022800032D1C9484079572833D1C748807952287C
:102290002FD1C548C07949282BD1C348007A54288A
:1022A00027D1C148407A452823D1BF48807A3A28AF
:1022B0001FD10020B94908600490FEF78BFB04464B
:1022C000002C0DD1B8490B3100E012E0B7A0FEF7A9
:1022D000D5FAB54A0B321146C0A0FEF7CFFA08E096
:1022E000CCA0FEF7CBFA04E00020AB490860AB4974
:1022F0000860AB48006885420BD2A94800680546D3
:1023000064350020FEF7C2FC0120FEF7BFFCFEF79B
:1023100061FCA34904980968884200D95DE7002C54
:102320007ED100262EE0701CC6B200209A490860BB
:102330009A4908600121BFA0FEF720FD00E06D1C56
:10234000954800687D21C900884203D293480068FF
:102350000028F4D091480068002806D09248007800
:10236000022802D100247B260CE0052E0ADD092478
:102370007B26182000F09AFB182000F097FB18200D
:1023800000F094FB632ECEDB002C06D1002600204B
:10239000FEF770FC0120FEF761FC00207E4908601A
:1023A000012700259FE07D480068002870D07E4806
:1023B0000078022861D100260EE0774800687D2170
:1023C000C900884208D90224E4439B487349086045
:1023D0007B26152000F06AFB704800689749884208
:1023E000EBD3491F7048C01C00F004FB05906E48F9
:1023F00040786D4989784018FF2838D16A4840787C
:10240000B84234D18E48C07800028D49097941180C
:10241000059881422BD133200003854216D200E07B
:1024200090E00020FEF732FC0120FEF72FFC012295
:1024300092025D49C91C2846FEF7E4FA04460620CC
:1024400000F034FB002C0CD07B260AE0182000F0B2
:102450002DFB182000F02AFB182000F027FB052494
:102460007B26781CC7B2012080022D182AE0701C40
:10247000C6B2152000F01AFB24E04B48007804286F
:1024800017D1062000F012FB6C48C01E059005E035
:1024900020E00598401E80B205906D1E42490598C7
:1024A000085C1A28F5D0062000F000FB00247B26EB
:1024B00008E03D480078182802D107247B2601E077
:1024C000701CC6B200203449086034490860FEF729
:1024D00081FB08E0304800687D210901884202D96B
:1024E0000824701CC6B2082E00DA5CE7002C2AD142
:1024F0002846FEF729FA044629490A680499501A21
:10250000FDF790FE4F490090FDF74EFE0190FDF75C
:1025100090FE02460B460391029029464AA0FEF720
:10252000ADF9002C03D157A0FEF7A8F932E0022C38
:1025300003D155A0FEF7A2F92CE0032C2AD15CA010
:10254000FEF79CF926E021465EA0FEF797F9092CDC
:1025500002D162A0FEF792F9072C02D162A0FEF729
:102560008DF9022C02D165A0FEF788F9032C02D167
:1025700065A0FEF783F9052C02D167A0FEF77EF96E
:10258000052C02D16AA0FEF779F9062C02D16DA0C4
:10259000FEF774F907B0F0BD040000200800002029
:1025A00000000020B80B00005410002023573231E7
:1025B00020437265617465206120222573222066A4
:1025C000696C65206F6E206469736B20746F20776F
:1025D000726974652E4F4B2E2A0A00002357323140
:1025E000204F70656E65642025732066696C653ABE
:1025F00020283029204F4B0A25733A20403078316B
:1026000036303030302C20526567696F6E3A203199
:102610000A000000202D2D3E204572723A204465AC
:1026200076696365206D656D6F7279206572726F72
:1026300072000000430000000F27000005040000A6
:102640005414002000007A440D0A526563656976CF
:102650006564207468652066696C6520256462790C
:1026600074652C2074696D652025312E32667320C7
:102670003D3E206669726D776172652066696C65A2
:10268000200000006F6B00006661696C3A2066698B
:102690006C65206572726F72206F72206E6F74208D
:1026A000666F72207468697320646576696365007B
:1026B0006661696C3A20696E76616C696420736941
:1026C0007A6500000D0A526563656976652066616A
:1026D000696C202564202D3E200000006E6F207262
:1026E000657073202743270063616E63656C6564C2
:1026F0002062792072656D6F7465000073796E6376
:10270000206572726F72000067657420627974656B
:10271000206661696C00000066696C652073697AE7
:102720006520697320746F6F206C617267650000AB
:102730006D656D6D6F72792065726173652066617C
:10274000696C00006D656D6D6F72792077726974C8
:1027500065206661696C0000F0B585B0FF265248BF
:10276000FEF7A4F80446012C03D150A0FEF786F82A
:1027700097E0012080028442FAD900200490574853
:1027800007680020FEF776FA0120FEF767FA0220BC
:10279000FEF770FA0320FEF761FA1922D2022146F1
:1027A0004FA0FEF76BF8FEF74EFC1920C00221186F
:1027B000FEF7F4FB0646002E6BDB48490968C81B90
:1027C000FDF730FD55490090FDF7EEFC0190FDF757
:1027D00030FD02460B4603910290314650A0FEF7B1
:1027E0004DF8002532E00498401CC0B2049001224C
:1027F00092022D492846FEF7D7F81921C902681818
:10280000012292022849FEF7F6FB0646002E01DA65
:10281000254607E00498202804DD012004904EA0FE
:10282000FEF72CF851A0FEF729F80020FEF72EFA4B
:102830000120FEF72BFA0220FEF728FA0320FEF70C
:1028400025FAFEF7C7F9012080022D18A542CAD348
:10285000002E17DB21490968C81BFDF7E3FC2F494F
:102860000090FDF7A1FC0190FDF7E3FC02460B464A
:10287000039102903EA0FEF701F80020FEF764F8F5
:1028800000260CE0314644A0FDF7F8FF0226F6438F
:1028900005E0314646A0FDF7F1FF0126F643FEF7BD
:1028A000A9FB05B0F0BD0000540000200D0A5B46F6
:1028B000575D204669726D77617265206572726F2F
:1028C00072206F72206E6F7420666F722074686958
:1028D00073206465766963650000000000000020D5
:1028E0000D0A5B46575D204170706C6963617469C5
:1028F0006F6E206669726D776172652075706461B4
:1029000074652025646279746520746F2061646445
:1029100072203078253038780000000000007A44BA
:102920000D0A5B46575D204572617365642025641E
:1029300020736563746F722C2074696D6520253176
:102940002E326673210D0A202020202050726F67DE
:1029500072616D696E6720000D0A20202020202002
:102960002020202020202020202000002E000000F9
:102970000D0A5B46575D2050726F6772616D207360
:102980007563636573732C2074696D652025312E22
:10299000326673210A0000000D0A5B46575D205025
:1029A000726F6772616D206661696C202564210019
:1029B0000D0A5B46575D2045726173652053656360
:1029C000746F72206661696C20202564210000000C
:1029D00070B507A0FDF752FF1920C00244682546D4
:1029E0000146086880F3088800BFA84770BD000052
:1029F0000D0A000030B50246002000230CE01478D8
:102A0000521C05126C402406E40D054D2C5B05029A
:102A10006C40A0B25C1CA3B28B42F0DB30BD000066
:102A2000042B0000002015490860FEF795F8FEF71A
:102A300051F9FEF7D7F8FEF7CBF8E1204002FEF798
:102A400065F9FEF73DF838210DA0FDF717FFFEF7F9
:102A500039FCFF211031884202D20BA0FDF70EFF96
:102A6000FFF7A6FBFFF778FEFEF75EF8FFF7B0FF73
:102A700002E0002001490860FBE7000000000020A0
:102A800023732D7225640D000A20202D2D3E204E2B
:102A90006F7220466C617368206D656D6F7279206E
:102AA0006572726F722120200D00000010B504467F
:102AB000024804700121FEF761F910BD540800209E
:102AC0005F68616F6E74303840676D61696C2E634A
:102AD0006F6D5F4C45785F6678797A5F0000000023
:102AE000020202010200040008004000020004008B
:102AF00008004000800040000800020000000000C4
:102B00000000000000002110422063308440A550E6
:102B1000C660E770088129914AA16BB18CC1ADD123
:102B2000CEE1EFF13112100273325222B5529442CB
:102B3000F772D662399318837BB35AA3BDD39CC373
:102B4000FFF3DEE36224433420040114E664C77417
:102B5000A44485546AA54BB528850995EEE5CFF5C3
:102B6000ACC58DD55336722611163006D776F6666B
:102B70009556B4465BB77AA719973887DFF7FEE713
:102B80009DD7BCC7C448E5588668A7784008611837
:102B900002282338CCC9EDD98EE9AFF94889699963
:102BA0000AA92BB9F55AD44AB77A966A711A500A0B
:102BB000333A122AFDDBDCCBBFFB9EEB799B588BB3
:102BC0003BBB1AABA66C877CE44CC55C222C033C57
:102BD000600C411CAEED8FFDECCDCDDD2AAD0BBD03
:102BE000688D499D977EB66ED55EF44E133E322EAB
:102BF000511E700E9FFFBEEFDDDFFCCF1BBF3AAF53
:102C0000599F788F8891A981CAB1EBA10CD12DC1B0
:102C10004EF16FE18010A100C230E3200450254046
:102C200046706760B9839893FBA3DAB33DC31CD3A6
:102C30007FE35EF3B1029012F322D2323542145296
:102C400077625672EAB5CBA5A89589856EF54FE5F2
:102C50002CD50DC5E234C324A014810466744764E6
:102C600024540544DBA7FAB79987B8975FE77EF746
:102C70001DC73CD7D326F2369106B0165766767636
:102C8000154634564CD96DC90EF92FE9C899E98912
:102C90008AB9ABA94458654806782768C018E10886
:102CA0008238A3287DCB5CDB3FEB1EFBF98BD89BE6
:102CB000BBAB9ABB754A545A376A167AF10AD01AD6
:102CC000B32A923A2EFD0FED6CDD4DCDAABD8BAD32
:102CD000E89DC98D267C076C645C454CA23C832C26
:102CE000E01CC10C1FEF3EFF5DCF7CDF9BAFBABF86
:102CF000D98FF89F176E367E554E745E932EB23E76
:102D0000D10EF01E000005800F800A001B801E00FF
:102D100014001180338036003C00398028002D805B
:102D200027802200638066006C00698078007D80C7
:102D300077807200500055805F805A004B804E00B3
:102D400044004180C380C600CC00C980D800DD802B
:102D5000D780D200F000F580FF80FA00EB80EE0013
:102D6000E400E180A000A580AF80AA00BB80BE0087
:102D7000B400B180938096009C00998088008D807B
:102D800087808200838186018C01898198019D81E1
:102D900097819201B001B581BF81BA01AB81AE01CB
:102DA000A401A181E001E581EF81EA01FB81FE013F
:102DB000F401F181D381D601DC01D981C801CD8133
:102DC000C781C201400145814F814A015B815E019B
:102DD00054015181738176017C01798168016D8193
:102DE00067816201238126012C01298138013D81FF
:102DF00037813201100115811F811A010B810E01EB
:102E000004010181038306030C03098318031D8356
:102E100017831203300335833F833A032B832E033A
:102E200024032183600365836F836A037B837E03AE
:102E300074037183538356035C03598348034D83A2
:102E400047834203C003C583CF83CA03DB83DE030A
:102E5000D403D183F383F603FC03F983E803ED8302
:102E6000E783E203A383A603AC03A983B803BD836E
:102E7000B783B203900395839F839A038B838E035A
:102E800084038183800285828F828A029B829E02D4
:102E900094029182B382B602BC02B982A802AD82CA
:102EA000A782A202E382E602EC02E982F802FD8236
:102EB000F782F202D002D582DF82DA02CB82CE0222
:102EC000C402C182438246024C02498258025D829A
:102ED00057825202700275827F827A026B826E0282
:102EE00064026182200225822F822A023B823E02F6
:102EF00034023182138216021C02198208020D82EA
:102F0000078202020000891112239B322446AD572A
:102F10003665BF74488CC19D5AAFD3BE6CCAE5DB21
:102F20007EE9F7F88110080193331A22A5562C4741
:102F3000B7753E64C99C408DDBBF52AEEDDA64CB01
:102F4000FFF976E802218B30100299132667AF76DD
:102F50003444BD554AADC3BC588ED19F6EEBE7FAE1
:102F60007CC8F5D983310A2091121803A7772E6601
:102F7000B5543C45CBBD42ACD99E508FEFFB66EAC1
:102F8000FDD874C904428D5316619F702004A915A1
:102F90003227BB364CCEC5DF5EEDD7FC6888E199A1
:102FA0007AABF3BA85520C4397711E60A1142805C1
:102FB000B3373A26CDDE44CFDFFD56ECE998608981
:102FC000FBBB72AA06638F7214409D512225AB345D
:102FD0003006B9174EEFC7FE5CCCD5DD6AA9E3B861
:102FE000788AF19B87730E6295501C41A3352A2481
:102FF000B1163807CFFF46EEDDDC54CDEBB962A841
:10300000F99A708B088481951AA793B62CC2A5D320
:103010003EE1B7F04008C919522BDB3A644EED5F30
:10302000766DFF7C899400859BB712A6ADD224C330
:10303000BFF136E0C1184809D33B5A2AE55E6C4F10
:10304000F77D7E6C0AA583B4188691972EE3A7F2CC
:103050003CC0B5D14229CB38500AD91B666FEF7EF0
:10306000744CFD5D8BB502A499961087AFF326E2F0
:10307000BDD034C1C3394A28D11A580BE77F6E6ED0
:10308000F55C7C4D0CC685D71EE597F42880A19190
:103090003AA3B3B2444ACD5B5669DF78600CE91DB0
:1030A000722FFB3E8DD604C79FF516E4A9902081B0
:1030B000BBB332A2C55A4C4BD7795E68E11C680D90
:1030C000F33F7A2E0EE787F61CC495D52AA1A3B04C
:1030D0003882B193466BCF7A5448DD59622DEB3C70
:1030E000700EF91F8FF706E69DD414C5ABB122A070
:1030F000B9923083C77B4E6AD5585C49E33D6A2C50
:10310000F11E780F0000C1C081C1400101C3C0039E
:10311000800241C201C6C006800741C70005C1C583
:1031200081C4400401CCC00C800D41CD000FC1CF43
:1031300081CE400E000AC1CA81CB400B01C9C00933
:10314000800841C801D8C018801941D9001BC1DBD3
:1031500081DA401A001EC1DE81DF401F01DDC01D83
:10316000801C41DC0014C1D481D5401501D7C017A3
:10317000801641D601D2C012801341D30011C1D1B3
:1031800081D0401001F0C030803141F10033C1F3F3
:1031900081F240320036C1F681F7403701F5C03583
:1031A000803441F4003CC1FC81FD403D01FFC03F43
:1031B000803E41FE01FAC03A803B41FB0039C1F933
:1031C00081F840380028C1E881E9402901EBC02B93
:1031D000802A41EA01EEC02E802F41EF002DC1ED83
:1031E00081EC402C01E4C024802541E50027C1E7A3
:1031F00081E640260022C1E281E3402301E1C021B3
:10320000802041E001A0C060806141A10063C1A3B2
:1032100081A240620066C1A681A7406701A5C06582
:10322000806441A4006CC1AC81AD406D01AFC06F42
:10323000806E41AE01AAC06A806B41AB0069C1A932
:1032400081A840680078C1B881B9407901BBC07BD2
:10325000807A41BA01BEC07E807F41BF007DC1BD82
:1032600081BC407C01B4C074807541B50077C1B7A2
:1032700081B640760072C1B281B3407301B1C071B2
:10328000807041B00050C190819140510193C05372
:10329000805241920196C056805741970055C19582
:1032A00081944054019CC05C805D419D005FC19F42
:1032B000819E405E005AC19A819B405B0199C05932
:1032C000805841980188C04880494189004BC18B92
:1032D000818A404A004EC18E818F404F018DC04D82
:1032E000804C418C0044C184818540450187C047A2
:1032F000804641860182C042804341830041C181B2
:103300008180404000000000963007772C610EEE6F
:10331000BA51099919C46D078FF46A7035A563E92C
:10332000A395649E3288DB0EA4B8DC791EE9D5E053
:1033300088D9D2972B4CB609BD7CB17E072DB8E752
:10334000911DBF906410B71DF220B06A4871B9F3A7
:10335000DE41BE847DD4DA1AEBE4DD6D51B5D4F4E0
:10336000C785D38356986C13C0A86B647AF962FD45
:10337000ECC9658A4F5C0114D96C0663633D0FFA92
:10338000F50D088DC8206E3B5E10694CE44160D598
:10339000727167A2D1E4033C47D4044BFD850DD282
:1033A0006BB50AA5FAA8B5356C98B242D6C9BBDB95
:1033B00040F9BCACE36CD832755CDF45CF0DD6DC90
:1033C000593DD1ABAC30D9263A00DE518051D7C837
:1033D0001661D0BFB5F4B42123C4B3569995BACFC2
:1033E0000FA5BDB89EB802280888055FB2D90CC6E3
:1033F00024E90BB1877C6F2F114C6858AB1D61C15C
:103400003D2D66B69041DC760671DB01BC20D2987A
:103410002A10D5EF8985B1711FB5B606A5E4BF9F07
:1034200033D4B8E8A2C9077834F9000F8EA80996FA
:1034300018980EE1BB0D6A7F2D3D6D08976C649165
:10344000015C63E6F4516B6B62616C1CD83065857E
:103450004E0062F2ED95066C7BA5011BC1F408825B
:1034600057C40FF5C6D9B06550E9B712EAB8BE8B9C
:103470007C88B9FCDF1DDD62492DDA15F37CD38C25
:10348000654CD4FB5861B24DCE51B53A7400BCA323
:10349000E230BBD441A5DF4AD795D83D6DC4D1A455
:1034A000FBF4D6D36AE96943FCD96E34468867AD2C
:1034B000D0B860DA732D0444E51D03335F4C0AAACB
:1034C000C97C0DDD3C710550AA41022710100BBECE
:1034D00086200CC925B56857B3856F2009D466B915
:1034E0009FE461CE0EF9DE5E98C9D9292298D0B04A
:1034F000B4A8D7C7173DB359810DB42E3B5CBDB7F7
:10350000AD6CBAC02083B8EDB6B3BF9A0CE2B60377
:103510009AD2B1743947D5EAAF77D29D1526DB042C
:103520008316DC73120B63E3843B64943E6A6D0D77
:10353000A85A6A7A0BCF0EE49DFF099327AE000AC2
:10354000B19E077D44930FF0D2A3088768F2011E55
:10355000FEC206695D5762F7CB67658071366C19EC
:10356000E7066B6E761BD4FEE02BD3895A7ADA100D
:10357000CC4ADD676FDFB9F9F9EFBE8E43BEB717EE
:10358000D58EB060E8A3D6D67E93D1A1C4C2D83878
:1035900052F2DF4FF167BBD16757BCA6DD06B53FDE
:1035A0004B36B248DA2B0DD84C1B0AAFF64A03361D
:1035B000607A0441C3EF60DF55DF67A8EF8E6E319C
:1035C00079BE69468CB361CB1A8366BCA0D26F25E5
:1035D00036E2685295770CCC03470BBBB916022232
:1035E0002F260555BE3BBAC5280BBDB2925AB42B47
:1035F000046AB35CA7FFD7C231CFD0B58B9ED92C5C
:103600001DAEDE5BB0C2649B26F263EC9CA36A75C0
:103610000A936D02A906099C3F360EEB8567077277
:1036200013570005824ABF95147AB8E2AE2BB17BDE
:10363000381BB60C9B8ED2920DBED5E5B7EFDC7C65
:1036400021DFDB0BD4D2D38642E2D4F1F8B3DD68BC
:103650006E83DA1FCD16BE815B26B9F6E177B06FB7
:103660007747B718E65A0888706A0FFFCA3B0666A4
:103670005C0B0111FF9E658F69AE62F8D3FF6B6131
:1036800045CF6C1678E20AA0EED20DD75483044ED3
:10369000C2B30339612667A7F71660D04D47694961
:1036A000DB776E3E4A6AD1AEDC5AD6D9660BDF4074
:1036B000F03BD83753AEBCA9C59EBBDE7FCFB24727
:1036C000E9FFB5301CF2BDBD8AC2BACA3093B3530C
:1036D000A6A3B4240536D0BA9306D7CD2957DE5415
:1036E000BF67D9232E7A66B3B84A61C4021B685DEE
:1036F000942B6F2A37BE0BB4A18E0CC31BDF055A67
:103700008DEF022D0000000003836BF2F7703BE1A8
:10371000F4F350131F979AC71C14F135E8E7A1265C
:10372000EB64CAD4CF58D98ACCDBB2783828E26BA4
:103730003BAB8999D0CF434DD34C28BF27BF78AC42
:10374000243C135E6FC75E106C4435E298B765F198
:103750009B340E037050C4D773D3AF258720FF3638
:1037600084A394C4A09F879AA31CEC6857EFBC7BEA
:10377000546CD789BF081D5DBC8B76AF487826BCDA
:103780004BFB4D4EDE8EBD20DD0DD6D229FE86C10F
:103790002A7DED33C11927E7C29A4C1536691C06FC
:1037A00035EA77F411D664AA12550F58E6A65F4B96
:1037B000E52534B90E41FE6D0DC2959FF931C58CDA
:1037C000FAB2AE7EB149E330B2CA88C24639D8D126
:1037D00045BAB323AEDE79F7AD5D120559AE421698
:1037E0005A2D29E47E113ABA7D9251488961015BD4
:1037F0008AE26AA96186A07D6205CB8F96F69B9CC2
:103800009575F06EBC1D7B41BF9E10B34B6D40A003
:1038100048EE2B52A38AE186A0098A7454FADA672B
:103820005779B1957345A2CB70C6C9398435992AA9
:1038300087B6F2D86CD2380C6F5153FE9BA203EDC1
:103840009821681FD3DA2551D0594EA324AA1EB05F
:1038500027297542CC4DBF96CFCED4643B3D8477AB
:1038600038BEEF851C82FCDB1F019729EBF2C73ABB
:10387000E871ACC80315661C00960DEEF4655DFD9D
:10388000F7E6360F6293C6616110AD9395E3FD8054
:10389000966096727D045CA67E8737548A7467476B
:1038A00089F70CB5ADCB1FEBAE4874195ABB240A8F
:1038B00059384FF8B25C852CB1DFEEDE452CBECD19
:1038C00046AFD53F0D5498710ED7F383FA24A390D9
:1038D000F9A7C86212C302B611406944E5B339576B
:1038E000E63052A5C20C41FBC18F2A09357C7A1AF9
:1038F00036FF11E8DD9BDB3CDE18B0CE2AEBE0DDC5
:1039000029688B2F783BF6827BB89D708F4BCD63F7
:103910008CC8A69167AC6C45642F07B790DC57A4A0
:10392000935F3C56B7632F08B4E044FA401314E9A0
:1039300043907F1BA8F4B5CFAB77DE3D5F848E2E1E
:103940005C07E5DC17FCA892147FC360E08C9373DE
:10395000E30FF881086B32550BE859A7FF1B09B438
:10396000FC986246D8A47118DB271AEA2FD44AF9CA
:103970002C57210BC733EBDFC4B0802D3043D03E32
:1039800033C0BBCCA6B54BA2A536205051C5704361
:1039900052461BB1B922D165BAA1BA974E52EA84F8
:1039A0004DD1817669ED92286A6EF9DA9E9DA9C99A
:1039B0009D1EC23B767A08EF75F9631D810A330EAE
:1039C000828958FCC97215B2CAF17E403E022E535C
:1039D0003D8145A1D6E58F75D566E4872195B494E0
:1039E0002216DF66062ACC3805A9A7CAF15AF7D9EC
:1039F000F2D99C2B19BD56FF1A3E3D0DEECD6D1E22
:103A0000ED4E06ECC4268DC3C7A5E6313356B6226B
:103A100030D5DDD0DBB11704D8327CF62CC12CE5D3
:103A20002F4247170B7E544908FD3FBBFC0E6FA881
:103A3000FF8D045A14E9CE8E176AA57CE399F56FC1
:103A4000E01A9E9DABE1D3D3A862B8215C91E83225
:103A50005F1283C0B4764914B7F522E6430672F5C7
:103A60004085190764B90A59673A61AB93C931B8FF
:103A7000904A5A4A7B2E909E78ADFB6C8C5EAB7F51
:103A80008FDDC08D1AA830E3192B5B11EDD80B0226
:103A9000EE5B60F0053FAA2406BCC1D6F24F91C58B
:103AA000F1CCFA37D5F0E969D673829B2280D288AF
:103AB0002103B97ACA6773AEC9E4185C3D17484F51
:103AC0003E9423BD756F6EF376EC0501821F55128F
:103AD000819C3EE06AF8F434697B9FC69D88CFD50F
:103AE0009E0BA427BA37B779B9B4DC8B4D478C98B5
:103AF0004EC4E76AA5A02DBEA623464C52D0165F41
:103B000051537DAD000000004FD0DD2B9EA0BB5770
:103B1000D170667C3C4177AF7391AA84A2E1CCF866
:103B2000ED3111D3531ADDF61CCA00DDCDBA66A102
:103B3000826ABB8A6F5BAA59208B7772F1FB110EE8
:103B4000BE2BCC258DAC8945C27C546E130C321231
:103B50005CDCEF39B1EDFEEAFE3D23C12F4D45BDE2
:103B6000609D9896DEB654B3916689984016EFE44E
:103B70000FC632CFE2F7231CAD27FE377C57984B98
:103B8000338745601A59138B5589CEA084F9A8DC78
:103B9000CB2975F72618642469C8B90FB8B8DF7344
:103BA000F76802584943CE7D06931356D7E3752A2A
:103BB0009833A8017502B9D23AD264F9EBA2028512
:103BC000A472DFAE97F59ACED82547E5095521991D
:103BD0004685FCB2ABB4ED61E464304A3514563628
:103BE0007AC48B1DC4EF47388B3F9A135A4FFC6F32
:103BF000159F2144F8AE3097B77EEDBC660E8BC0A2
:103C000029DE56EB1F2A15BE50FAC895818AAEE907
:103C1000CE5A73C2236B62116CBBBF3ABDCBD9467F
:103C2000F21B046D4C30C84803E01563D290731F3B
:103C30009D40AE347071BFE73FA162CCEED104B0BD
:103C4000A101D99B92869CFBDD5641D00C2627AC66
:103C500043F6FA87AEC7EB54E117367F306750035F
:103C60007FB78D28C19C410D8E4C9C265F3CFA5A33
:103C700010EC2771FDDD36A2B20DEB89637D8DF569
:103C80002CAD50DE057306354AA3DB1E9BD3BD6207
:103C9000D40360493932719A76E2ACB1A792CACDA9
:103CA000E84217E65669DBC319B906E8C8C960944B
:103CB0008719BDBF6A28AC6C25F87147F488173B9B
:103CC000BB58CA1088DF8F70C70F525B167F34272E
:103CD00059AFE90CB49EF8DFFB4E25F42A3E438829
:103CE00065EE9EA3DBC5528694158FAD4565E9D17F
:103CF0000AB534FAE7842529A854F80279249E7E6F
:103D000036F4435515CC19D45A1CC4FF8B6CA283CE
:103D1000C4BC7FA8298D6E7B665DB350B72DD52CB2
:103D2000F8FD080746D6C42209061909D8767F751A
:103D300097A6A25E7A97B38D35476EA6E43708DA68
:103D4000ABE7D5F198609091D7B04DBA06C02BC6BD
:103D50004910F6EDA421E73EEBF13A153A815C6992
:103D600075518142CB7A4D6784AA904C55DAF63072
:103D70001A0A2B1BF73B3AC8B8EBE7E3699B819F14
:103D8000264B5CB40F950A5F4045D7749135B10856
:103D9000DEE56C2333D47DF07C04A0DBAD74C6A7D4
:103DA000E2A41B8C5C8FD7A9135F0A82C22F6CFE22
:103DB0008DFFB1D560CEA0062F1E7D2DFE6E1B514E
:103DC000B1BEC67A8239831ACDE95E311C99384D6D
:103DD0005349E566BE78F4B5F1A8299E20D84FE294
:103DE0006F0892C9D1235EEC9EF383C74F83E5BB76
:103DF00000533890ED622943A2B2F46873C2921462
:103E00003C124F3F0AE60C6A4536D1419446B73D15
:103E1000DB966A1636A77BC57977A6EEA807C0920F
:103E2000E7D71DB959FCD19C162C0CB7C75C6ACBDF
:103E3000888CB7E065BDA6332A6D7B18FB1D1D6419
:103E4000B4CDC04F874A852FC89A580419EA3E78E6
:103E5000563AE353BB0BF280F4DB2FAB25AB49D7CB
:103E60006A7B94FCD45058D99B8085F24AF0E38E4B
:103E700005203EA5E8112F76A7C1F25D76B1942109
:103E80003961490A10BF1FE15F6FC2CA8E1FA4B615
:103E9000C1CF799D2CFE684E632EB565B25ED319F5
:103EA000FD8E0E3243A5C2170C751F3CDD0579400F
:103EB00092D5A46B7FE4B5B830346893E1440EEF3B
:103EC000AE94D3C49D1396A4D2C34B8F03B32DF3EA
:103ED0004C63F0D8A152E10BEE823C203FF25A5CD9
:103EE00070228777CE094B5281D9967950A9F00577
:103EF0001F792D2EF2483CFDBD98E1D66CE887AACB
:103F000023385A81243F00000000002054000000A4
:103F1000C8180000783F000054000020FC23000077
:103F2000D8180000000000000000000000000000A1
:103F3000000000000000000000400B4000400B406B
:103F400000400B4000200B4000200B4000200B40A5
:103F500000400B4000200B4000000000000000006B
:103F6000000000000000000080C3C9010000000044
:083F7000000000000000000049
:04000005000000C136
:00000001FF
