:020000040800F2
:10C80000587F0020CDC800086153020855C90308AD
:10C810000000000000000000000000000000000018
:10C82000000000000000000000000000FDCF020832
:10C830000000000000000000B56302089DFE020831
:10C84000FDC8000800000000FDC80008FDC8000881
:10C85000FDC80008FDC80008FDC80008FDC80008A4
:10C8600000000000FDC8000879710108FDC800083B
:10C87000FDC80008FDC80008FDC800080000000051
:10C88000FDC80008FDC80008FDC80008FDC8000874
:10C89000FDC80008FDC80008FDC80008E11D020829
:10C8A000FDC80008FDC80008FDC80008CD4B0308FE
:10C8B000F54B03081D4C03080348854601F06EFA4A
:10C8C00000480047F1D10308587F00200C4880F34E
:10C8D00008880C480168090E0B4A914205D10B48A3
:10C8E0000B4901600B480C4901600C4880470C481B
:10C8F0000047FEE7FEE7FEE7FEE7FEE7FEE7000093
:10C90000587F0020040000001F00000018100240A3
:10C9100001000000000001400000000049FF020883
:10C92000B9C8000830B50B4601460020202201247A
:10C9300009E00D46D5409D4205D31D469540491B53
:10C940002546954040191546521E002DF1DC30BD9C
:10C9500070B500242546002801DA01244042002950
:10C9600001DA01254942FFF7DDFFAC4200D0404229
:10C97000002C00D0494270BD10B5202A04DB0846C7
:10C98000203AD040002110BD0B46D340D040202497
:10C99000A21A91400843194610BD01466139192970
:10C9A00000D820387047000038B50446C068182108
:10C9B000401E4843A16840183C2148436168401824
:10C9C0003C2148432168451860690C21484321698E
:10C9D00040186921C900401A3021FFF7B9FF114AF8
:10C9E00050434219084600921A2902DB0E49511899
:10C9F00000910C21FFF7ACFF0C4A5043009A8018BD
:10CA000000900B4806E0491E425C074B5A43009BCE
:10CA1000D21800920029F6DC2146684600F068FF33
:10CA2000009838BD801F8607805101008033E101E6
:10CA300060DD030803460B439B0703D009E008C9E8
:10CA4000121F08C0042AFAD203E00B780370401CBE
:10CA5000491C521EF9D27047D2B201E00270401C4C
:10CA6000491EFBD270470022F6E710B513460A466E
:10CA700004461946FFF7F0FF204610BD30B50546C5
:10CA80002A460B4610781C78521C5B1C002801D0EB
:10CA9000A042F7D0002C03D0002802D06D1CEFE795
:10CAA000284630BD421C0178401C0029FBD1801A69
:10CAB000704730B504460020034600E05B1C9342FB
:10CAC00003D2E05CCD5C401BF8D030BD30B50546EC
:10CAD0000020034600E05B1C934205D2EC5CC85C7E
:10CAE000201A01D1002CF6D130BD000070B5104DD8
:10CAF000002800D12868002414E00A4602E09E4283
:10CB000003D0521C1378002BF9D1DAB2224307D09C
:10CB1000002B06D0002C04D000210170401C04E042
:10CB20000446401C0678002EE7D12860204670BDE0
:10CB3000600D00200FB400B58DB009900B9010A9C6
:10CB400000200091C0430A9000200C9006480690F7
:10CB5000064807906A4609A80F9900F019FF0DB022
:10CB600008BC04B018470000B1D90008D1D90008AA
:10CB7000FFB50027FF4383B000205C6801909E68EA
:10CB80001D46A9697F1C049888470090296A884738
:10CB90000028F6D10098401C0CD0032040028443AA
:10CBA000002E19DD600614D500982B2809D02D28F9
:10CBB0000FD103E00020C04307B0F0BD0120800288
:10CBC0000443A9697F1C04988847761E0090002EB4
:10CBD00002DD0098302803D00598002825D035E0E4
:10CBE000012040020443A969761E7F1C04988847EF
:10CBF0000090002E03DD782805D0582803D0059832
:10CC0000002810D022E00598002801D010281DD15E
:10CC1000012040028443A969761E7F1C049888473E
:10CC20000090102002E0082000E00A2005900DE0AE
:10CC3000012149020C43059A0199761E51430818B7
:10CC40000190A9697F1C049888470090002E05DD9B
:10CC50000599009800F086FE0028E9DAE969049851
:10CC60008847A00502D40120C043A5E7E00722D1F0
:10CC7000600611D56005019800D5404229680A1D5B
:10CC80002A600968220501D5087014E0220701D541
:10CC9000088010E008600EE02868011D2960006827
:10CCA000210502D50199017005E02107019901D5FF
:10CCB000018000E0016038467EE7FFB5002083B0C8
:10CCC0000090506801909169144600269768049876
:10CCD000884705460C990698084305D009E0A169E4
:10CCE000761C049888470546216A2846884700280C
:10CCF000F5D1681C03D00198C00704D017E00020CC
:10CD0000C04307B0F0BD2068011D2160006800909D
:10CD10000DE00198C00704D1009805700098401CF0
:10CD20000090A169761C7F1E049888470546002F55
:10CD30001CDD681C1AD0069800280FD0E817C00E1A
:10CD4000401941118A0006994009511840012A1AD8
:10CD50000968012090400142DBD107E00C980028CF
:10CD6000D7D1216A284688470028D2D0E1690498A3
:10CD700088470C98002807D1002E05DD0198C007D0
:10CD800002D1009800210170A068B84204DD0C981F
:10CD9000002804D0002F02D00120C043B1E7304664
:10CDA000AFE70000FFB5087885B01546FF2805D02D
:10CDB000491C2D2804D00022002407E000240BE0A9
:10CDC0000122F9E70A235C430419491C0878FF286B
:10CDD000F8D1002A00D06442002001902A78014650
:10CDE0002D2A01D02B2A04D16D1C2D2A0DD0002212
:10CDF000019200262F78FF2F09D00A2200236D1CF4
:10CE000000F00EFD38187141F4E70122F0E7089AAE
:10CE1000A218039202460A430DD00024B24AB14D33
:10CE20002646009200F078FF0490039802910028B3
:10CE300007DA47421AE0002105980A4606C009B001
:10CE4000F0BD074612E0F80707D022462B463046D1
:10CE5000009900F0EDFA0646009122462B46104656
:10CE6000194600F0E5FA04460D467F10002FEAD17E
:10CE70000398009B002802990498324602DA00F0D9
:10CE80003FFB01E000F0D4FA019A002A02D001220F
:10CE9000D2075140059A03C2D1E7FFB591B00020F7
:10CEA00009900025ED432E209E685C681F46019086
:10CEB000B9696D1C129888470090396A8847002824
:10CEC000F6D10098401C0AD00D20C0018443002EEA
:10CED00012DD00982B2809D02D280DD103E0002069
:10CEE000C04315B0F0BD012080020443B9696D1C38
:10CEF00012988847761E009003A9600501D52D2061
:10CF000000E02B206A461073491C0CA80F91029078
:10CF10000AE0B9696D1C1298884700900120400210
:10CF200004431398761E0560002E02DD0098302819
:10CF3000EFD001990098884246D18020044308E050
:10CF40000998401E09900120400204431399681C6F
:10CF50000860B9696D1C761E1298884700903028C9
:10CF6000EED031E00199884205D1200603D480201B
:10CF70000443761E1EE000982CF056FE002826D0B2
:10CF800001204002044307A90F980331761E88420E
:10CF90000BD200980F99303808700F98401C0F90F2
:10CFA000200607D50998401E03E0200602D4099800
:10CFB000401C0990A00502D51399681C0860B96946
:10CFC0006D1C129888470090002ECBDC59E0002E93
:10CFD00057DD0098652801D0452852D1A00550D5CD
:10CFE000032000028443B9696D1C761E129888479D
:10CFF0000090002E0CDD2B2804D02D2808D1FF2016
:10D0000001300443B9696D1C12988847761E009060
:10D01000E00501D52D2100E02B2102980170029836
:10D02000401C0290019025E00120400204430EA91B
:10D0300002980131761E88420ED20098029930384B
:10D040000006000E087003D10299019881420AD9A6
:10D050000298401C029006E0E00501D5234801E05B
:10D06000224840420990B9696D1C12988847009087
:10D0700013980560002E04DD00982CF0D5FD0028E3
:10D08000D2D1F969129888470F99FF200870029948
:10D0900003AA087000200A900B900CA90AA8099B0B
:10D0A000FFF780FEA00502D40120C04319E7242029
:10D0B000044209D0E00713D138680B9A0A99031D7E
:10D0C0003B60006806C00BE00B990A9800F048FB33
:10D0D0000146E00704D13868021D3A60006801602B
:10D0E0002846FEE6000024400000F03FF1D8FFFF94
:10D0F00070B506462CF066FC046805460A2200213D
:10D10000304600F0C9FC2C6070BDF8B502464A40BC
:10D11000D40F42004B0052085B089A4202D20246EA
:10D12000084611464A0023D0C30D4A00DDB2120E54
:10D13000AD1A202D35DA49020126490AF6058A1969
:10D14000002C00D0524220214F1B1146B9402A41E9
:10D150001018C20D9A4221D0002C17D0012D08DCE6
:10D16000DA05801AD20F8019D207DBB200F0D4FCA6
:10D17000F8BDDA05801A012340001B06C01880188C
:10D180005A428018CA0F1043490007E04908C207F5
:10D190001143DA05801A80194008801800F0B4FCA9
:10D1A000F8BD61000122511A001BF7E70122D207E6
:10D1B0005140AAE70122D2075040A6E7024670B5C7
:10D1C0004A40D30FDB0740002DD04A002AD0010E81
:10D1D000140E000212020919400A520A8418E501CD
:10D1E00004465443000A120A2E045043A41942195B
:10D1F000200CC543AA18120C0125AD03521C52196C
:10D2000012047F39240400D0521C104301D4400082
:10D21000491EC2B20C06C0092018401C4008802AD2
:10D2200002D003E0002070BD40084000002900DA71
:10D230000020184370BD70B502464A40D50F40002B
:10D240004A00ED0740085208002814D0002A12D0E6
:10D25000C40DD30D41020120C0055202490A520AF1
:10D26000E41A091812187D34914201D3641C00E0BD
:10D270004900002C01DA002070BD0023914201D347
:10D28000891A0343400849000028F7D100290AD031
:10D29000914202D10121C90705E0914201D2012149
:10D2A00001E00121C943E005C018401900F02CFC41
:10D2B00070BD420005D04200120E52428A4201DB8C
:10D2C00000207047C905081870470000F0B50746F0
:10D2D0000846584087B0C00F049048000E465900D9
:10D2E00040084908BC1A884105D2384631461E46D6
:10D2F00017460B4602465800400810434CD0300DEC
:10D30000039040055900400D490D0590401A0290C8
:10D31000402872DA18030121000B09050843019027
:10D3200004980092002805D00199524200208841BB
:10D3300000920190029840210A1A0199009800F089
:10D34000ACFA05460C466B4607CB00F0B6FAC0199E
:10D350007141039A0E0D0023D71756401A467A40A2
:10D36000164344D0049A002A2DD0029A012A039A27
:10D3700015DC1205C01A914101263605001C7141C9
:10D38000D20F059ED2070093019202962A462346A9
:10D3900000F008FC07B0F0BD38463146FAE7160544
:10D3A000224A0F46B218C01AB74101210905001CD4
:10D3B0004F4100187F41114618187941E20F104380
:10D3C0006D19644113E0E2076D0815436408C20754
:10D3D0001443039A01261205C01A91413605001C18
:10D3E0007141CE07400830434908C01851412A46D0
:10D3F000234600F0CAFBCDE7FFE704980122400076
:10D40000C117121A00238B4104983146C417381AE9
:10D41000A141EEE730B40124E407634030BC55E796
:10D4200030B40124E407614030BC4FE70000E0FF66
:10D43000F0B51FB488B00B990998002448400999A9
:10D44000C00F490049080991C0070B990090490095
:10D4500049080B9109990898A64608431CD00B99D6
:10D460000A98084318D0099801244000420D48004A
:10D47000410D099824050003000B204309900B98E7
:10D480000003000B20430B9050181C494018002249
:10D4900001901446104605E0002001460DB0F0BD95
:10D4A000032801DA034600E003239C46C11A0AAEB2
:10D4B0000AE05F0008ADED5B4F00F75B7D4300279E
:10D4C000AA187C41491C5B1E6145F2DD410004AB9A
:10D4D0005A522104120C0A43240C401C0828DFDB9A
:10D4E000019802900099704601910090059B049A62
:10D4F0000799069800F056FBD0E700000DFCFFFFEF
:10D50000F0B50C465C4085B0E40FE40703944C0092
:10D5100000266408590094464908024602962243B0
:10D5200021D062460A431ED06200570D4A000E0306
:10D530002303550D012402462C492405781B1B0B9F
:10D54000360B401823432643614600901C46501A70
:10D55000B44103D30098401C009002E09218009858
:10D560005B41002803DA0020014605B0F0BD002031
:10D57000012109050746864611E064461D46141B35
:10D58000B54106D36546521BB341744607430C436D
:10D59000A646CD0740084908284392185B41054636
:10D5A0000D43EAD11046184313D060461946504047
:10D5B0007140084306D06046101AB34106D20122DA
:10D5C000002306E000220123DB0702E00122D24310
:10D5D0005310009874460105381C6141029C039D5C
:10D5E0000019694100F0D1FABFE70000FD03000017
:10D5F000C217C10F504010B54018CA07962300212A
:10D6000000F08AFA10BD10B500229623114600F0F2
:10D6100083FA10BD0EB505490291002100910A461A
:10D620000B46019100F0BEFA03B000BD33040000C8
:10D63000C20F410040020123400ADB05D207090E58
:10D64000C0187F2901DA00207047962903DC962351
:10D65000591AC84001E096398840002AF4D0404267
:10D660007047410040020122400AD205090E80188D
:10D670007F2901DA00207047962903DC9622511A8F
:10D68000C8407047963988407047000070B5CD0F8C
:10D690004A0009030123090B1B0519430B4BED0736
:10D6A0000024520D9A4201DA002070BD074B34333A
:10D6B0009A4203DC9A1AFFF75FF902E00449511815
:10D6C00088402C43F1D0404270BD0000FF030000B1
:10D6D000CDFBFFFF4A0009030123090B1B0519437A
:10D6E000094B10B5520D9A4201DA002010BD064BCD
:10D6F00034339A4203DC9A1AFFF73EF910BD03490E
:10D700005118884010BD0000FF030000CDFBFFFF53
:10D71000C20FD207400040080BD0C10D0723DB0128
:10D72000C91840020905400A1143C20840071143C5
:10D73000704700200146704710B5002904DB012422
:10D74000E40740428C412146002B04DB1C460123A8
:10D75000DB075242A3418B4200D1824210BD000040
:10D76000CB0FDB07490010B5490802460A4307D032
:10D770000A0D07240903E401090B121B002A01DC2E
:10D78000002010BDC900440F0C43C100E018D205B1
:10D79000801800F0B9F910BD0122D207002800DB83
:10D7A000101A002900DB511A814270470122D2076A
:10D7B000002800DB101A002900DB511A884270474C
:10D7C000F0B51FB40646002082B005464024019102
:10D7D00000901BE0019922460F463046FFF7CCF837
:10D7E000049A059B801A994110D310461946224687
:10D7F00000F053F8361A8F4101972246012000218C
:10D80000009F00F04AF838184D4100902046641EF1
:10D810000028DFDC019B00982946324607B0F0BDA6
:10D82000F0B51FB486B000200090019002900698D9
:10D83000069980B204900798090C02040014114361
:10D8400007900027089D099806913E463C460390A4
:10D850000398A9B20204000C039004982D0C154300
:10D8600048430021224600F018F8C71971411034CE
:10D870000E46402CECDB3846029A00F00EF8009A77
:10D88000019B80180090594102980191103002903C
:10D890004028CCDB00980BB0F0BD10B5202A04DB8B
:10D8A0000146203A9140002010BD914020239C1A4F
:10D8B0000346E3401943904010BD10B5202A06DB13
:10D8C000CB170846203A1041C1170B4306E00B4620
:10D8D0001341D0402024A21A91400843194610BD9C
:10D8E00010B5024900F004F810BD00002C660020BD
:10D8F00070B50C4600683C21FFF714F821603C210C
:10D90000FFF710F861601821FFF70CF80546A160D9
:10D910000721001DFFF706F8A1610F48A9000818AC
:10D920000E49FEF7FFFF0246443288086261E0615B
:10D930003B2802D3910700D0401C0021084B0A4627
:10D940002161995C814203D8401A521C2261F8E798
:10D95000401CE060204670BD6C0B0000B505000067
:10D960006CDD03083A2800D23038202302469A435F
:10D97000412A01D310463738884201D30020C043E2
:10D98000704700000268137851180160184670470C
:10D9900010B5D1600449516104491162002111613F
:10D9A000114600F01BFA10BD85D90008C9DD00083A
:10D9B0004268002A08D001680B78491C002B03D06C
:10D9C000521E06C0184670470121C160881E70476C
:10D9D0004268002A0BD0C3680168002B07D1836816
:10D9E0008B4204D0491E521C06C000207047002004
:10D9F000C04370470FB400B589B00CA900910B99D2
:10DA00000023CB60204B214A069307920422019207
:10DA10001F4A02921F4A089202466B460020FFF7F7
:10DA20003CFA09B008BC04B0184770B586B0064689
:10DA30000020C0430190002015460C460091029141
:10DA400004903246694604A8FFF7D4FF03460498C1
:10DA50002118002D05D0002801D00A4600E02246FA
:10DA60002A6000280DD0002B02DD0098884208D0E3
:10DA7000081B0190009432466946029404A8FFF7FF
:10DA8000B9FF06B070BD0000B1D90008D1D90008B7
:10DA9000FFFFFF7FC9DD0008F7B5009C0F46002699
:10DAA0002578641C002D05D000F08AF90068405DDF
:10DAB000C007F5D12B2D02D02D2D18D0641E39466C
:10DAC0002046029A00F026FB002F04D03968A142BC
:10DAD00001D1009939607105022400290BDA404216
:10DAE000002803DD2BF06EFF0460A007FEBD0120BF
:10DAF00080020643E3E70028F8DA2BF063FF0460B6
:10DB00000048FEBDFFFFFF7F002904DA401C4900EA
:10DB100001D140084000704770B40024050C05D1C5
:10DB20001024000402D1002921D01124050E01D1B6
:10DB300000020834050F01D10001241D850F01D119
:10DB40008000A41C002801DB4000641C002908D0D0
:10DB500020252E1B0D46F540A14000D00121294370
:10DB6000084301061B1B000ADB1D02D5002070BC08
:10DB70007047DB05181880180029F8DA401C4900A6
:10DB8000F5D170BC40084000704710B5002B08DA92
:10DB90000024401C614192185B411A4301D14008A6
:10DBA000400010BDF0B51FB482B005460C0003D094
:10DBB00008462BF0CDFE02E02BF0CAFE20300246D4
:10DBC000009021462846FFF768FE049B059A04460C
:10DBD0000F4618431143084314D0184610431BD076
:10DBE000009840210A1A18460599FEF7C5FE054619
:10DBF0000E46009A05990498FFF74FFE084305D09A
:10DC0000012004E02046394607B0F0BD0020C117CE
:10DC100005430E432C43374300990E986305401A81
:10DC20007905E40A00220C43FD0A0A3002D50020DF
:10DC30000146E9E70105101969410C9C0D9D001989
:10DC40006941FFF7A2FFDFE770B54B005B080343B4
:10DC50000BD04B005C0D002633466542B341D41710
:10DC6000AD1AA34102DB0020014670BD1205301839
:10DC7000514170BDFEB500231A461B1A8A4103DBD1
:10DC80000020014603B0F0BD4A000D0301212D0B19
:10DC90000905520D0D43D10702D100186D41521EE6
:10DCA0005110FF31FF310131002704463E4638460E
:10DCB000009701910246012100200905FEF75CFE54
:10DCC000C3197141F818324684468E464A4161466E
:10DCD0002846611A904104D36046241A954176463D
:10DCE0001F46241900986D41401C00903428E1DD46
:10DCF000F91930467041091BA84103D20022D243D2
:10DD0000134601E00022134601980105381C7141B9
:10DD1000FFF73BFFB6E700000EB5054A029200226E
:10DD2000009213460192FFF73DFF03B000BD0000D3
:10DD3000330400004A0009030123090B1B051943A2
:10DD40000A4B10B5520D9A4202DA0020014610BD6E
:10DD5000064B34339A4203DC9A1AFEF70DFE10BDCF
:10DD6000034BD218FFF799FD10BD0000FF03000020
:10DD7000CDFBFFFF10B5002904DB0124E40740427E
:10DD80008C412146002B04DB1C460123DB07524259
:10DD9000A341994200D1904210BD0000064C0125DC
:10DDA000064E05E0E36807CC2B430C3C9847103443
:10DDB000B442F7D3FEF784FD28F9030848F90308B5
:10DDC00000487047FCDD030810B50446FFF7F8FF74
:10DDD0000068005DC007C00F10BD0000F3B58DB036
:10DDE00000200A9001200B90002608460C300C46BB
:10DDF0000990626901210998904705002ED0252DD0
:10DE00002DD0216A8847002818D06269012109981D
:10DE10009047216A88470028F7D1411E6269099816
:10DE2000904700E0761CA1690D988847216A8847D1
:10DE30000028F7D1E1690D988847DAE7A1690D98C4
:10DE400088470746A84201D1761CD2E7E1690D98C0
:10DE500088477F1C02D10A98002877D049E1002723
:10DE600062693D463946099890472A280CD1626973
:10DE7000012109989047012506E00A214F433F18E8
:10DE8000303FEBD410200543626901210998904787
:10DE9000014630390A2903D29B498F42DEDCECE788
:10DEA000E90600D4994F6C280AD04C2810D0682875
:10DEB00024D06A282ED074280CD07A280AD00DE0FD
:10DEC00062690121099890476C2823D004211CE045
:10DED000202005436269012109989047A760656089
:10DEE00065284FD026DC582839D01ADC452849D07F
:10DEF00012DC252834D04128B0D143E062690121E9
:10DF000009989047682802D008210D43E6E70120D0
:10DF1000C002DEE70220DCE7462833D047282CD1B8
:10DF200030E05B2870D061282CD063286CD0642846
:10DF300023D161E06F284FD009DC662822D0672802
:10DF400020D0692826D06E2817D12EE0CDE0702889
:10DF50004DD073286FD075284ED078280DD154E05D
:10DF6000A1690D9888470546252800D16CE7E1692D
:10DF70000D9888476D1C00D16DE7BAE00A224CE08D
:10DF80000A2252E0012023466A46C0430D99FEF75B
:10DF900084FFA3E02846402108436060A807234689
:10DFA00001D5002239E000223FE0E80700D020E759
:10DFB0002068011D21600068290501D5067018E759
:10DFC000290701D5068014E7A90703D5F1170660D4
:10DFD00041600EE706600CE7284640210843606078
:10DFE000A807234601D5082217E008221DE048496A
:10DFF00028460840606016E02846402108436060DB
:10E00000A8072346BCD5B9E715E0284640210843B8
:10E010006060A80707D5234610220120C0430D9950
:10E02000C046C0465AE0234610220120C0430D9945
:10E03000FEF79EFD52E000210C910B4600916328F3
:10E0400002D05B2807D043E0E80601D40120A0609D
:10E05000012000903CE062690121099890475E2808
:10E0600005D101200C900146626909989047216909
:10E07000002906D10B4601AA8F00491CD35108295B
:10E08000FADB002835D0216900290ED1C117C90E4D
:10E0900009184A11930001AA9A1849094901411A1D
:10E0A00001201368884003431360626901210998C5
:10E0B00090475D28E5D10C98002808D0002001ABDE
:10E0C00081005A58401CD2435A500828F8DB01AB53
:10E0D00001202246C0430D99FEF7EFFD00280ADA21
:10E0E000401C06D10B98002803D00020C0430FB07D
:10E0F000F0BD0A98FBE7E90702D10A99491C0A9189
:10E10000361800200B9074E6CCCCCC0CFFFFFF7FC0
:10E11000F1F7FFFFF7B582B0029C00272078641C5E
:10E1200015460197302802D0002D15D015E0207833
:10E130000127641C782804D0582802D0002D09D06B
:10E140000BE0002D01D0102D07D1002710252078DD
:10E15000641C02E0082500E00A250026009610E075
:10E160000099012769430818020C294680B27143BF
:10E1700000908E183804864201D301200190207847
:10E18000641C2946FFF7EEFB0028E9DA0398002813
:10E1900005D0002F01D0641E00E0029C04600198AD
:10E1A000002806D02BF00EFC02210160C81E05B02D
:10E1B000F0BD009930040843F9E770B58C18057874
:10E1C000401C6B075B0F01D10378401C2A1106D15C
:10E1D0000278401C03E006780E70401C491C5B1E50
:10E1E000F9D12B0705D40023521E0DD40B70491C06
:10E1F000FAE70378401CCB1A921C03E01D780D70DF
:10E20000491C5B1C521EF9D5A142D8D3002070BD19
:10E21000F1B5C2B014212AA8FEF725FC14212FA8BD
:10E22000FEF721FCFE4C002520690146FEF7C6FFE3
:10E230000646E0680146FEF7C1FF3146FEF765FF7E
:10E24000FFF766FA2FF094FA0091A7680646384661
:10E25000FFF75EFA3246009BFFF752F92CF08EF87A
:10E26000F04AF14BFFF7E4F8FFF77AFA0B902069D8
:10E270000146FEF7A3FF064639460846FEF79EFF15
:10E280003146FEF742FFFFF743FA2FF071FA029092
:10E29000E7680E463846FFF73BFA3346029AFFF727
:10E2A0002FF92CF06BF8DF4ADF4BFFF7C1F8FFF7CF
:10E2B00057FA0A902069FFF72BFA0E46394602906A
:10E2C0000846FEF77BFF0746A0680146FEF776FF8B
:10E2D0003946FEF71AFFFFF71BFA2FF049FA3346CB
:10E2E000029AFFF70DF92CF049F8CE4ACE4BFFF712
:10E2F0009FF8FFF735FACD4C0990E0782071204661
:10E300000C30017842782AAE89188278C0781018CB
:10E310000818C7B2207905210490FEF703FBC04816
:10E320008900E0380818C26BA8003250BC4A6D1C46
:10E33000903A8918C96B2FAA11500498EDB2401C6D
:10E340002071052DE6D34298B94D00287ED0339830
:10E35000FFF7DEF9064607913298FFF7D9F90690E4
:10E3600005913198FFF7D4F904900C913098FFF79C
:10E37000CFF9029003912F98FFF7CAF900900D9101
:10E380002E98FFF7C5F90F910E902D98FFF7C0F961
:10E39000109011912C98FFF7BBF9129013912B98C4
:10E3A000FFF7B6F9149015912A98FFF7B1F9169076
:10E3B00017910998FFF7ACF9349009910A98FFF783
:10E3C000A7F90A9035910B98FFF7A2F90B913690B7
:10E3D0007D21C9006069FEF7A5FA4190E8684068B0
:10E3E000FFF796F98E4D379138906869FFF790F9ED
:10E3F00039913A902869FFF78BF93B913C90E86896
:10E40000FFF786F93D913E90A868FFF781F9079BD9
:10E410002993069B02462896059826930C9B2593E4
:10E420002790039B049823932490029822900D9B9D
:10E430000098219320900F9B0E981F931E90119B84
:10E4400010981D931C90139B129800E041E01A90C5
:10E450001B931498159B18901993099B1593349846
:10E46000359B149013930A9812900B9B369810903A
:10E47000419811930E90389B37980C930D906B48F0
:10E480006A4B20301C33C078DB78256908930990EB
:10E490000B953A9B39980A97069307903C9B3B98BB
:10E4A00005903E98049302903D9B5D480393009233
:10E4B00001912038037F2A2B7CD0332B7BD05DA2A7
:10E4C000614942982BF030FAA0680A21484343B0D2
:10E4D000F0BD2069009052482038037F2A2B6BD072
:10E4E000332B6AD059A21D2141565BA02BF00CFAA8
:10E4F0004B4E042302220021F35EB25E715E5DA0EA
:10E500002BF002FAE8684068FFF702F905910490E1
:10E510007069FFF7FDF8054603913069FFF7F8F8D9
:10E520000D911090F068FFF7F3F800910C90B0682F
:10E53000FFF7EEF80B4605990791024608970498F5
:10E540000399069005910D991098039102900099F6
:10E550000C980090049501914CA02BF0D5F935460C
:10E56000303DE868FFF7D4F806460591A868FFF744
:10E57000CFF8074603916868FFF7CAF80191009049
:10E580002868FFF7C5F802460B464CA00297049690
:10E590002BF0BAF90998FFF7BBF8074603910A98E0
:10E5A000FFF7B6F805460E460B98FFF7B1F80B4695
:10E5B000024603E0E3E0E4E0DDE0DEE06946E0C1DE
:10E5C00047A02BF0A1F919482030C278001FC1786C
:10E5D0004AA02BF099F93398FFF79AF80A900B911B
:10E5E0003298FFF795F808900F463198FFF790F8AA
:10E5F000064607913098FFF78BF8049005912F9805
:10E60000FFF786F8054603912E98FFF781F80090F2
:10E6100001912D98FFF77CF8139112902C9877E0D8
:10E62000CC1C0020D28C45D3D9A54C4048070020F3
:10E630005C510020414343454C45524F5F4C495388
:10E640003344534800000000FCE803084143435FA3
:10E650004C495333445348005374617475733A20E2
:10E6600025642825735B25785D292C2072756E3A08
:10E6700025640A00436F756E74203A2535642020A6
:10E6800025356420202535640A0000004163636558
:10E690006C653A25312E33662025312E33662025D0
:10E6A000312E3366202D3E2025312E33665B2531F9
:10E6B0002E33665D5B25645D0A000000202020206B
:10E6C00020203A25312E33662025312E3366202531
:10E6D000312E3366202D3E2025312E33660A000070
:10E6E00054696C7420203A25332E31662025332E50
:10E6F00031662025332E31660A00000057696E64AA
:10E700006F773A256420636E742025640A00000048
:10E71000FEF7FEFF149015912B98FEF7F9FF169067
:10E7200017912A98FEF7F4FF0B9B0A9A1092119307
:10E73000089A0E920F97079A059B0D92049A0A92D7
:10E74000039A0B930992019B0C96009A07930692E9
:10E75000139B0895129A05930492149A159B0292A2
:10E760000393169A179B0092019302460B460648A4
:10E770002BF0CAF8A8E605A2B5E608A2B3E604A203
:10E780009EE609A29CE60000B0E803084143435F0F
:10E790004D4D413834353251000000004143435F54
:10E7A0004C49533344480000414343454C45524F84
:10E7B0005F4C495333444800F8B5154C0025A07808
:10E7C000A26981005350182802D2401CA070F8BDE5
:10E7D000104801680B790168CA78006881780EA03A
:10E7E0002BF092F80026A069AF00C059FEF790FF09
:10E7F00002460B460EA02BF087F8A0696D1CEDB207
:10E80000C651192DEFD30CA02BF07EF8A670F8BDE1
:10E81000480700205C510020234163636D657465E7
:10E82000722C253032642530326425303264000089
:10E830002C25312E336600000A000000836A0B434A
:10E840008362426170470029816801D0012200E0A3
:10E8500002221143816070470029C16802D0012261
:10E86000114301E049084900C1607047C2680223B2
:10E870009A43C260C2680A43C2607047826800213E
:10E880000123DB071A4382600F231B038268491CA4
:10E89000D20FD207994201D0002AF7D1816800290E
:10E8A00001DB006C70470020704702460020CB015E
:10E8B00004D5926801231B069A4300E012680A42BD
:10E8C00000D001207047000030B5C368084A8C684A
:10E8D00013400A680D792243CC686D032C43224310
:10E8E0000C69496922430A431A43C26030BD0000E3
:10E8F00003D2FFFF81680422114381607047002129
:10E90000016001718160C160016141617047000077
:10E9100001220549D2050028886801D0104300E093
:10E92000904388607047000000270140012205499C
:10E9300092050028886801D0104300E09043886069
:10E94000704700000027014070B50D46097800248B
:10E95000012900D00524572806D0772804D0522852
:10E9600070D07228FCD078E0288A082875D9A86968
:10E97000042279A1401DFEF7A9F80028784EA86965
:10E9800027D0042277A1401DFEF7A0F80028A8692F
:10E9900033D0042275A1401DFEF798F80028A8691D
:10E9A00035D0042273A1401DFEF790F80028A86915
:10E9B0003BD0042271A1401DFEF788F80028A86909
:10E9C00038D005226FA1401DFEF780F800283CD00A
:10E9D00043E0407A2D2804D02B2804D0782804D096
:10E9E0003BE06AA202E06AA200E06AA20221336868
:10E9F000622098472C82622070BD407A2D2802D078
:10EA00002B2802D029E064A2F0E764A2EEE7407A66
:10EA10002D2804D02B2804D0782804D01DE060A233
:10EA2000E4E760A2E2E760A2E0E7407A2B2814D195
:10EA30005EA2DBE7407A2D2802D02B2803D00CE021
:10EA40005BA2D3E711E05BA2D0E7A869807A2B280C
:10EA500005D02D2805D0782805D0002070BD56A2FD
:10EA6000C4E756A2C2E756A2C0E7A869554B0219EF
:10EA700002211B6862209847A869015D42290CD0D9
:10EA8000532919D0412926D0492933D045293BD0D3
:10EA9000442948D000194CA150E0611C415C2D294B
:10EAA00004D02B2905D000194AA147E000194BA139
:10EAB00044E000194BA141E0611C415C2D2904D0C8
:10EAC0002B2905D0001949A138E0001949A135E0EA
:10EAD00000194AA132E0611C415C2D2904D02B2988
:10EAE00005D0001947A129E0001948A126E0001926
:10EAF00048A123E0611C415C2B2902D0001947A1E9
:10EB00001CE0001947A119E0611C415C2D2904D0CB
:10EB10002B2905D0001945A110E0001945A10DE0F1
:10EB2000001946A10AE0611C415C2B2904D02D2963
:10EB30000ED0001943A101E0001944A12AF0F4FE0F
:10EB4000A8690019FDF7AEFF00192882012070BDE9
:10EB5000001940A1F2E7000062656E3A0000000073
:10EB600094020020736F733A000000006169723AEA
:10EB70000000000069676E3A00000000656E673AA9
:10EB800000000000646F6F723A000000422D000028
:10EB9000422B000042780000532D0000532B000050
:10EBA000412D0000412B000041780000492B00005E
:10EBB000452D0000452B0000442B0000442D000093
:10EBC000447800009C020020414C542D494F3A5893
:10EBD0000000000062656E3A5800000062656E3AFF
:10EBE0002D00000062656E3A2B000000736F733ACF
:10EBF00058000000736F733A2D000000736F733A72
:10EC00002B0000006169723A580000006169723A95
:10EC10002D0000006169723A2B00000069676E3AAE
:10EC20005800000069676E3A2B000000656E673A75
:10EC300058000000656E673A2D000000656E673A67
:10EC40002B000000646F6F723A580000646F6F729F
:10EC50003A2B0000646F6F723A2D000070B5FF26EA
:10EC6000CE360C46572806D0772804D0522823D019
:10EC7000722821D02FE0208A07282CD9174DA869A7
:10EC8000406A1421FDF7EFFEA869426A144D142171
:10EC90002B6830469847228AA069002180182038C6
:10ECA0008177218AA269C91F2B683046521D984777
:10ECB00005202082304670BD0A4BA26914211B68D2
:10ECC0003046521D9847A069401DFDF7EBFE401DE0
:10ECD0002082012070BD002070BD0000380B002094
:10ECE000940200209C02002070B5204D0C4657284D
:10ECF00006D0772804D0522826D0722824D032E0BB
:10ED0000208A07282FD91A4EB069406A142115307D
:10ED1000FDF7A9FEB069426A2E462846154D14211A
:10ED20002B6815329847228AA06900218018203864
:10ED30008177218AA269C91F2B683046521D9847E6
:10ED400005202082304670BD0B4BA26914211B6840
:10ED50002846521D9847A069401DFDF7A3FE401D9F
:10ED60002082012070BD002070BD0000FB02000069
:10ED7000380B0020940200209C020020F0B59BB0CC
:10ED80000446002069460885EF49EE4D0870886901
:10ED90006C21095C152927D101680B790168CA78B3
:10EDA00000688178E9A02AF0AFFD2178F3A02AF06D
:10EDB000ABFDE17CF4A02AF0A7FDA17CF5A02AF030
:10EDC000A3FDA18AF6A02AF09FFD207802280FD08B
:10EDD000611CF6A02AF098FD218AF7A02AF094FD84
:10EDE000F8A0A1692AF090FD2078012803D0D3E093
:10EDF0006178F7A0EEE730210BA8FDF734FE052679
:10EE00000320002106910790099602900490059630
:10EE100009200421089602270091019003970823F6
:10EE20002B22EEA10BA82AF07FFD092006210790D6
:10EE30000691099000200897049008220391092068
:10EE40000597042101900292134600910EA82B22EF
:10EE5000E2A103302AF068FD032007900620059008
:10EE6000069604210920089609960723002201909E
:10EE7000049302920391009112A808232B22D7A198
:10EE800002302AF051FD00201AF08EFFAE4E07909E
:10EE90007068FF1E00281FDD04F0B6FFD64A7168B7
:10EEA0008918884218D21C216846FDF7DCFDD34B37
:10EEB000D3A1A26907982AF037FD0320694608709C
:10EEC0000798FDF7EFFD69460882079806906846A7
:10EED00005F07AFD7760ADE07760621CCCA1A36994
:10EEE00007982AF021FDB0696030007B152806D113
:10EEF00000201AF059FF0146C8A02AF005FDFF21A5
:10EF0000F53108201AF04CFA0BAFF81CFDF7CAFDDA
:10EF10000246F91C201DFDF7D9FD00281CD00FA8C2
:10EF200002300746FDF7BEFD02463946201DFDF7BB
:10EF3000CDFD002810D013A801300746FDF7B2FD23
:10EF400002463946201DFDF7C1FD002804D07E4849
:10EF50000078002803D01FE0022030701CE001265A
:10EF600017AF0F2117A8FDF77EFD0B20AE49AF4B61
:10EF7000704340181B6817AA0B219847781CFDF7AF
:10EF800091FD0246791C201DFDF7A0FD002807D049
:10EF9000761CB6B2052EE4D3207802280DD01FE0EF
:10EFA00069480121017080696030007B1528F3D128
:10EFB000611C9FA02AF0A8FCEEE72346218A1433A7
:10EFC0000AAAA0691AF06EFF002809DD6946098DBA
:10EFD00002292FD10121E174A1690C31A1612082A4
:10EFE00059484078002809D1A069017823290ED01A
:10EFF000218A40182038C07F2A281BD0204600F0E4
:10F0000067FD002816D0A0690078232812D1A269D4
:10F010005078522805D0722803D0572801D077287D
:10F0200008D1218A5318203BDE7F2A2E02D19B7FF4
:10F030002E2B02D043481BB0F0BD93780A27303BFB
:10F04000D6787B43303BF318DFB200233E4E142FBB
:10F05000B36068D27E4E3B002AF091FC140B1E3246
:10F060002A722E71706F39396E39396D3939396CB0
:10F070006B39572801D0772829D12078012803D16E
:10F08000501D74A12AF050FCA069FDF70BFD2082F1
:10F090002D480125866004E2572805D0772803D043
:10F0A00021462DF091FA09E221462EF063F905E29E
:10F0B00021460FF0D1FA01E2214607F08FFEFDE173
:10F0C0002078022804D0032802D001280AD06DE15C
:10F0D0001D4989696031097FC90701D00228F6D02E
:10F0E00062A00AE1052265A16648FDF7EFFC002851
:10F0F0001AD00B2264A16348FDF7E8FC002814D065
:10F10000062264A15F48FDF7E1FC00280ED00C2226
:10F1100062A15C48FDF7DAFC002808D00A480078B4
:10F12000022805D042E15AE1C0E0CDE0EDE00CE17B
:10F1300022E150E14BE146E128E138E11EE13AE10C
:10F1400020E10000F0FF0000380B00202530326481
:10F150003A253032643A253032643A20434D4453E4
:10F1600059535F416E616C697365436F6E74656E70
:10F17000742D53746172740A00000000737263206E
:10F1800020203A2025640A00466F726D61743A208F
:10F1900025640A005265762020203A2025640A0062
:10F1A000536E202020203A2025640A006164647296
:10F1B00020203A2025730A006C656E2020203A201A
:10F1C00025640A006461742020203A2025730A0017
:10F1D0006164647220203A2025640A002563256456
:10F1E00025642564256425642564256425642564D7
:10F1F000256425640000000030750000B048002040
:10F20000237732372025733B25732E2A0A0000000E
:10F21000534D533A25732C25730A00004C6F673AFF
:10F220002025730A00000000810200009C020020DB
:10F230002D2D3E43656E74657220686173206120D8
:10F24000726571756573743A2025730A00000000B9
:10F25000312303087761697420666F7220726562DA
:10F260006F6F7420617768696C650A00414C4C20AF
:10F27000646576696365730A0000000044484131A3
:10F28000380000003C5100205447303037582D449E
:10F290004C3031005447303037580000544731303B
:10F2A000324C452D564E505400000000F8A1201D50
:10F2B000FDF7E4FB002805D1F8A1201DFDF7DEFBDA
:10F2C000002873D0F8A018E0FAA1201DFDF7D6FBA6
:10F2D000002811D1FAA1201DFDF7D0FB00280BD189
:10F2E000FAA1201DFDF7CAFB002805D1FAA1201DB7
:10F2F000FDF7C4FB0028E4D0FAA02AF005FBA069C2
:10F300002146407820F086FB5AE3FBA1201DFDF743
:10F31000B5FB002817D1EAA1201DFDF7AFFB00289F
:10F3200011D1E4A1201DFDF7A9FB00280BD1F5A107
:10F33000201DFDF7A3FB002805D1F5A1201DFDF739
:10F340009DFB0028BDD0F5A0D7E70C22F7A1201D1A
:10F35000FDF7BCFB00280DD00C22F7A1201DFDF706
:10F36000B5FB002806D00C22F6A1201DFDF7AEFB50
:10F3700000281BD1F6A0C0E7F9A0BEE721462EF079
:10F380008FF81DE321462CF071FE19E3237800214C
:10F39000012B00D00521522801D07228E9D1501844
:10F3A0000BF0D2FFA069FDF77DFB42E00EE22146A3
:10F3B00015F040FA04E3214617F02AFB050070D14E
:10F3C000EB4886600AE3214628F0F2FAF8E221468B
:10F3D0002EF03EFAF4E221460EF0EEFBF0E2E54EAE
:10F3E000242F6FD2153F3B002AF0C9FA0F09255B85
:10F3F00047430D5779532C35655C5B695B002146AB
:10F4000009F05EF9DCE2FF259C35572806D0772805
:10F4100004D0522806D0722804D028E30A29FCD34D
:10F4200007218EE2D44B07211B682846521D9847BE
:10F430000C202082D2E2522801D07228EDD10EF0A9
:10F44000FFFECBE2572801D07728E6D105202082A5
:10F4500006F09AFFB4E2572801D07728DDD1891E43
:10F4600089B2501D16F03EF80146C4A02AF04CFAAD
:10F470004FE221462DF068F8A2E2522801D072280E
:10F48000CBD1BD4B0F211B68C148521D984714209A
:10F49000CFE721462EF038F892E221460AF034FFF9
:10F4A0008EE251E0214615F015FFBA490546884223
:10F4B0007ED108468FE2214628F0A4FE80E2FF2597
:10F4C0008835C6E00FE0772873D0522804D0722820
:10F4D00002D0CCE2012134E2012128461DE221467E
:10F4E0001CF01EFA6CE23C2F79D2243F3B002AF03C
:10F4F00046FA180D182F48777F912BAEB77BCB2B90
:10F50000CAC9C8C7C62BC5C4C311C22B214609F03E
:10F5100095F855E22146FFF717FA05466228C7D14C
:10F5200059E2572806D0772804D052280DD07228E7
:10F530000BD09CE21829CCD11121E4203368521D54
:10F54000984705202082E4254CE21121E42078E050
:10F55000FF230133572806D0772804D052280DD036
:10F5600072280BD083E20F29B3D1184608213368E3
:10F57000521D984705202082F62533E208211846BF
:10F5800029E12178022926D053796E2B1DD1937958
:10F59000742B1AD1D379722B17D1137A622B14D111
:10F5A000537A612B11D1937A632B0ED1D37A01E078
:10F5B00007E251E0322B08D1137B302B05D1537B6E
:10F5C000312B02D1927B352A05D00129B1D168496E
:10F5D00009780229ADD1214614F048FCF0E13DE163
:10F5E000214625F0D5FEEBE12146FFF737FBE7E1A9
:10F5F000FF253335572801D0772846D1102998D1D7
:10F60000092115E05C4B09211B682846521D9847CB
:10F610000E200EE7FF253C35572806D0772804D06A
:10F6200052280CD072280AD021E218299AD111212F
:10F6300033682846521D984705202082CAE11121CF
:10F6400028464D4B521D1B6898471620F1E6FF25B2
:10F650005735572800D036E7082900D13AE706E2A7
:10F66000FF255835572811D077280FD052280ED0B3
:10F6700072280CD0FBE1EDE0C3E0D5E0C5E0BCE0D2
:10F68000B7E0B2E0ADE097E092E0C3E084E087E06D
:10F6900039303436353632323700000039383232BC
:10F6A00035363232370000004448413138206F6E21
:10F6B0006C790A0039343531393630363000000083
:10F6C000393435383536303630000000393336328B
:10F6D0003335313535000000393032323436323886
:10F6E000320000005447303037582D444C30312020
:10F6F0006F6E6C790A00000039383338343638348C
:10F7000038000000393435393136303630000000E9
:10F710003934353836363036300000005447303012
:10F7200037582D3031206F6E6C790A0039313932FB
:10F73000323439353300000039313435343435331F
:10F7400030000000393139313036393331000000B2
:10F7500054473130324C452D564E50540A0000006B
:10F7600052656D617020544731304C450A000000ED
:10F77000380B0020940200209C0200205B43484587
:10F78000434B53554D203D20307825785D0A0000CD
:10F790000E040000EA020000282917D12121D0E040
:10F7A000B44B21211B682846521D9847262040E66D
:10F7B000214606F0D5F903E1FF257B3557283ED0D9
:10F7C00077283CD0522804D0722802D04FE108217B
:10F7D000B7E008212846A74B521D1B6898470D200B
:10F7E00027E621461DF02AFCEAE0214604F064FCED
:10F7F000E6E0214605F0EEFEE2E021461EF06AFC5E
:10F80000DEE02146FFF770FADAE09B4D572807D07B
:10F81000772805D0522800D1F4E67228FCD026E1E2
:10F8200010290BD109218CE0934D0935572806D0BA
:10F83000772804D0522805D0722803D017E10F2969
:10F84000C5D014E18B4B0B211B682846521D9847ED
:10F850001020EEE521461CF02DFEB1E0462F77D2B8
:10F860003C3F3B002AF08BF80A060ABEBEBE0E5F84
:10F870003E4246BE214625F04BFDA1E0214627F041
:10F88000DFFC9DE02378022B28D07C498E6940362E
:10F89000F67E002E22D056796E2E1AD19679742ECD
:10F8A00017D1D679722E14D1167A622E11D1567ACA
:10F8B000612E0ED1967A632E0BD1D67A322E08D1D4
:10F8C000167B302E05D1567B312E02D1927B352A04
:10F8D00004D0012B3BD10978002938D0214606F00D
:10F8E0008FFD6DE0214611F0D7FF69E021461EF043
:10F8F00043F965E0624B572806D0772804D0522898
:10F9000009D0722807D0B2E0184601213368521D91
:10F91000984705208DE501211846564B521D1B685E
:10F920009847062085E5544D1D3D572806D0772879
:10F9300004D052280DD072280BD098E014297CD125
:10F940000D2133682846521D98470520208249E042
:10F9500007E0484B0D211B682846521D984712208E
:10F9600067E5642F3ED2512F23D009DC462F10D0FB
:10F97000482F12D04C2F00D12DE5502F32D114E05A
:10F98000522F1AD05B2F0CD0622F1BD0632F29D19E
:10F9900024E021461EF0F2F912E0214612F09CFD0F
:10F9A0000EE021462CF064FD0AE0214615F0DAFC59
:10F9B00006E0214625F002FC02E0214625F076FC17
:10F9C00005460DE0214624F0F1FF05462A483B306C
:10F9D000854205D1284620F0B9FB03E0012501E06E
:10F9E000002D44D0254E6C21B069095C152930D119
:10F9F00001680B790168CA780068817821A029F034
:10FA000083FF21782A4829F07FFF2948E17C0C30C8
:10FA100029F07AFF2648A17C183029F075FF244888
:10FA2000A18A243029F070FF2148611C303029F070
:10FA30006BFF1F48218A3C3000E018E029F064FF8A
:10FA40001B48A169483029F05FFF317819A029F0DF
:10FA50005BFF1B48854201D1FFF7EDFA18480F38CC
:10FA60008542F9D0002D02D001201BB0F0BD00204E
:10FA7000FBE700009C020020D6020000380B0020AB
:10FA80005C0D0000253032643A253032643A25306E
:10FA900032643A20434D445359535F416E616C695F
:10FAA0007365436F6E74656E742D456E640A000055
:10FAB0007CF10008497343656E4E3A2025640A00C4
:10FAC000FFFF00000148806870470000380B0020ED
:10FAD000F0B59BB00446642101A8FCF7C4FFFE4DBD
:10FAE000A8696030007B152803D1FCA0A16929F02A
:10FAF0000BFF0A22FDA1A069FCF7E8FF0028687847
:10FB000020D00026002838D0684606700422FAA1CA
:10FB1000A069FCF7DBFF002822D00422F8A1A0692D
:10FB2000FCF7D4FF00281DD00422F7A1A069FCF740
:10FB3000CDFF00281AD068460078002818D001218F
:10FB4000684617E001214840687005D0F0A029F010
:10FB5000DBFE6878002802D1FAA029F0D5FE44E344
:10FB60000D2000E00A2069460870E8E71A20FAE74D
:10FB7000218AA06911F0F4FAF1E70422F7A1A06943
:10FB8000FCF7A4FF00280DD0A0690422F5A1401CB9
:10FB9000FCF79CFF002805D0A8696030007E04288F
:10FBA00048D05CE0A7690A22387979793038504327
:10FBB00030380818C0B2ED4C0628207038D20E211B
:10FBC000601CFCF750FF0B22E9A1601CFCF732FF20
:10FBD0002246BB7A5370FB7A93703B7AD3707B7A60
:10FBE000501C1371BA790271F979417138460C30A1
:10FBF0000422E2A1FCF76AFF00280BD0E673A86993
:10FC00006030007B022802D0002015F057FA012056
:10FC10002074C4E30120E073A86921466030007BB2
:10FC20000228F4D10A78611CD6A029F06DFEEEE717
:10FC30002670B4E30222DEA1A069FCF747FF00288A
:10FC40007ED00222DBA1A069FCF740FF0028F7D09C
:10FC50000222D9A1A069FCF739FF0028F0D00A22BE
:10FC6000D6A1A069FCF732FF00286AD00A22D6A1EB
:10FC7000A069FCF72BFF0028F7D00722D5A1A069C7
:10FC8000FCF724FF00287BD00722D4A1A069FCF751
:10FC90001DFF0028F7D00722D2A1A069FCF716FFAC
:10FCA00000286ED00722D1A1A069FCF70FFF002821
:10FCB000F7D00622CFA1A069FCF708FF0028A069B1
:10FCC0007ED00C22CDA1FCF701FF0028A06978D0DE
:10FCD0000822CEA1FCF7FAFE002873D00822CEA19C
:10FCE000A069FCF7F3FE0028F7D00622CDA1A06999
:10FCF000FCF7ECFE0028F0D00622CCA1A069FCF7AE
:10FD0000E5FE0028E9D00B22CAA1A069FCF7DEFEBF
:10FD100000287DD00B22CAA1A069FCF7D7FE0028DD
:10FD2000F7D00B22C9A1A069FCF7D0FE0028F0D0C3
:10FD30000822C9A1A069FCF7C9FE002869D001E02A
:10FD400054E27CE20822C7A1A069FCF7BFFE0028AC
:10FD5000F4D00722C6A1A069FCF7B8FE00287BD02A
:10FD60000722C5A1A069FCF7B1FE0028F7D0072241
:10FD7000C3A1A069FCF7AAFE0028F0D0042201E08C
:10FD80006FE281E2C0A1A069FCF7A0FE00287AD052
:10FD90000422BFA1A069FCF799FE0028F7D0042235
:10FDA000BDA1A069FCF792FE0028F0D00722BCA1FB
:10FDB000A069FCF78BFE002866D00722BAA102E0FA
:10FDC00081E28EE290E2A069FCF780FE0028F3D089
:10FDD0000722B7A1A069FCF779FE0028ECD0062223
:10FDE000B5A1A069FCF772FE00286DD00622B4A16F
:10FDF000A069FCF76BFE0028F7D00722B2A1A0692A
:10FE0000FCF764FE002860D00722B1A1A06901E0E0
:10FE10006EE271E2FCF75AFE0028F4D00722AEA190
:10FE2000A069FCF753FE0028EDD00422ACA1A06924
:10FE3000FCF74CFE002849D00422ABA1A069FCF7D6
:10FE400045FE0028F7D00422A9A1A069FCF73EFED8
:10FE50000028F0D0082200E052E2A7A1A069FCF738
:10FE600035FE002833D00822A6A1A069FCF72EFE9B
:10FE70000028F7D00822A6A1A069FCF727FE0028D9
:10FE800026D0082201E03FE242E2A4A1A069FCF7EB
:10FE90001DFE0028F4D00422A3A1A069FCF716FEE1
:10FEA000002816D00422A2A1A069FCF70FFE0028AA
:10FEB000F7D00522A0A1A069FCF708FE002809D010
:10FEC00005229FA1A0693FE126E229E22CE22FE270
:10FED00032E235E2ACE10000380B0020436D643AB9
:10FEE000202D2D3E25733C2D2D0A0000222B2B2B7F
:10FEF00041542B2B2B2200002230642200000000F2
:10FF00002230612200000000223161220000000046
:10FF1000456E746572206120636F6D6D756E6963E7
:10FF20006174696F6E20776974682047534D204D66
:10FF30006F64756C652076696120415420636D643F
:10FF40000A000000457869742074686520636F6D4D
:10FF50006D756E69636174696F6E0A005245414444
:10FF60000000000045414430000000002052002005
:10FF700079796D6D64642E54585400002D7463704B
:10FF8000000000005143564E3331207265616420F9
:10FF900066696C653A20257320616E6420636D6428
:10FFA0003A202564206F766572207463700A000021
:10FFB00041540000617400004174000023446C69E6
:10FFC00063656E73653A000023646C6963656E73E4
:10FFD000653A000023446E616D653A0023646E61EA
:10FFE0006D653A004472697665723A0064726976AA
:10FFF00065723A007365746B6579000067657464B7
:020000040801F1
:1000000072697665726B6579000000005245535441
:1000100041525423000000007265737461727423AE
:10002000000000005245534554230000726573657B
:100030007423000073657464656661756C742300D5
:1000400053455444454641554C540000536574642F
:10005000656661756C7423004341505455524523C5
:100060000000000063617074757265230000000079
:10007000524553544F524500726573746F72650058
:10008000526573746F7265004E5450230000000077
:100090006E747023000000004E7470230000000096
:1000A00055504441544523007570646174652300C4
:1000B00055706461746523004241434B55502300E1
:1000C0006261636B75702300535441545553230090
:1000D00073746174757323005374617475732300B2
:1000E00055524C230000000075726C230000000084
:1000F00055726C230000000075726C206C627323D3
:100100000000000055726C206C6273230000000038
:1001100075726C20677073230000000055726C20AC
:10012000677073230000000042555A5A0000000017
:1001300062757A7A000000004355534423000000A2
:100140006375736423000000FCF7C0FC00286FD0C7
:100150000F22CBA1A069FCF7B9FC002869D00F22BF
:10016000CBA1A069FCF7B2FC0028F7D00A22CCA1F1
:10017000A069FCF7ABFC002872D00A22CBA1A069D1
:10018000FCF7A4FC0028F7D00822CBA1A069FCF75B
:100190009DFC002876D00822CAA1A069FCF796FC35
:1001A0000028F7D01022CAA1A069FCF78FFC002814
:1001B00069D01022CBA1A069FCF788FC0028F7D0F9
:1001C0000B22CDA1A069FCF781FC00287AD00B227C
:1001D000CCA1A069FCF77AFC0028F7D00B22CCA1B7
:1001E000A069FCF773FC0028F0D0D8E0207C232223
:1001F000401CC1B2A0692CF0F5F80128A06919D003
:10020000218A40182038C677A669002EEDD03046E6
:10021000FCF748FC6428E8D23246C0A101A829F0C6
:1002200083FB01A8FCF73EFC024601A9A069F4E0AB
:10023000BBE0BEE0BCA1FCF759FC0646E5E7BBA16C
:10024000A069FCF753FCBAA10020FCF74FFC0600A4
:10025000CBD0442101A8FCF706FC3246B5A11FE033
:10026000B3E0B2A1A069FCF741FCB1A10020FCF70A
:100270003DFC0600B9D0442101A8FCF7F4FB32464E
:10028000B1A10DE0ADE0B8E0A7A1A069FCF72EFC9C
:10029000002871D0582101A8FCF7E5FBA269AEA1A6
:1002A00001A829F041FB01AAAEA1A06929F03CFBFD
:1002B000A8696030007B002803D001A9AAA029F01A
:1002C00023FBACE0A6E0801DFCF712FF82B2A06920
:1002D0008179232903D0A8A129F026FB9FE0A9A1B9
:1002E00095E00822A9A198E00822ABA1A06994E0BA
:1002F0000822ACA1A06990E00822ADA1A0698CE021
:100300001022AEA1A06988E00B22B1A1A06984E00F
:100310000F22B3A1A06980E00F22B5A1A0697CE003
:100320000822B7A1A06978E00722B8A1A06974E00B
:100330000B22B8A1A06970E00B22B9A1A0696CE002
:10034000A06901793F2905D041794F290ED078293C
:1003500022D024E023212CF01DF8A269014610468A
:10036000FCF781FB0722B1A1A06956E081794E29F3
:1003700003D0462907D012E012E0C17923290ED11B
:100380000A22ACA149E0C179462908D1017A232982
:1003900005D10A22AAA140E08179232902D00020B8
:1003A0001BB0F0BD0A22A9A137E00822AAA1A069CA
:1003B00033E02321A0692BF0EDFFA269014610462E
:1003C000FCF751FBA7A1A06921E02321A0692BF034
:1003D000E1FFA26901461046FCF745FBA7A1A06911
:1003E00015E02321A0692BF0D5FFA2690146104634
:1003F000FCF739FBA6A1A06909E02321A0692BF035
:10040000C9FF0146A069FCF72EFBA5A1A06929F050
:100410008BFA04E00B22A8A1A069FCF70BFBA069F2
:10042000FCF740FB2082A8696C21095C002924D0DC
:1004300001680B790168CA7800688178A1A029F069
:1004400063FA2178A8A029F05FFAE17CA9A029F03D
:100450005BFAA17CAAA029F057FAA18AABA029F0E7
:1004600053FA611CACA029F04FFA218AADA029F003
:100470004BFAAFA0A16929F047FA012090E70000EC
:10048000515549434B464F524D41544449534B00FB
:10049000717569636B666F726D61746469736B000B
:1004A000464F524D41544449534B0000666F726DA4
:1004B00061746469736B00004449524449534B238F
:1004C000000000006469726469736B23000000001F
:1004D0004449524449534B4C4F574C4556454C2385
:1004E000000000006469726469736B6C6F776C65FF
:1004F00076656C23000000004D6F6E69746F72208A
:100500006F6666006D6F6E69746F72206F6666004D
:100510004D4F4E49544F52204F46460023773037B7
:100520002025732E2A000000230000003A0000005E
:100530002E2A00002377373020646C6963656E7360
:10054000653A25732E2A00002377373020646E61C8
:100550006D653A25732E2A00237737302025732EB8
:100560002A000000257300002D2D3E546275663A66
:100570002025730A00000000235736382025642EFA
:100580002A000000235736382E2A0000235236381E
:100590002E2A000000000000235730302E2A0000D1
:1005A00000000000235730352E2A00000000000014
:1005B000235733302E2A0000000000002357303626
:1005C00020524553544F52452E2A0000000000008F
:1005D00023573533204E54502E2A000000000000CF
:1005E00023573036205550444154452E2A000000F0
:1005F00023573036204241434B55502E2A000000ED
:10060000235230312E2A00000000000023523235E0
:100610002E2A000023523235206C62732E2A0000ED
:1006200023523235206770732E2A00002352353151
:100630002E2A00002357353120312E2A00000000D9
:100640002357353120302E2A000000002357353142
:1006500020782E2A00000000235232322E2A000079
:10066000000000002357323120717569636B666F9B
:10067000726D61746469736B2E2A000023573231E6
:1006800020666F726D61746469736B2E2A000000BE
:1006900023573231206469726469736B2E2A00001B
:1006A00023573231206469726469736B6C6F776CA5
:1006B0006576656C2E2A000023723038206F6666DE
:1006C0002E2A0000253032643A253032643A253033
:1006D00032643A20434D445359535F45786368610F
:1006E0006E6765436D640A00737263203A20256467
:1006F0000A000000466F726D61743A2025640A009A
:10070000526576203A2025640A000000536E2020AE
:100710003A2025640A000000616464723A2025735F
:100720000A0000006C656E203A2025640A00000073
:10073000646174203A2025730A000000044AD060E6
:100740008B695B6853619161C069106170470000FB
:10075000380B0020F3B5F64983B0C97E012946D095
:10076000F44EF18C814204D9081AF084012005B0BE
:10077000F0BD7D20C000F0840498002802D00078ED
:100780000128F4D0EB4C203C607BA17B2546E03572
:10079000884211D0AA6C1278012A0BD1E27A009219
:1007A00001910290E86C00680379C2788178E2A038
:1007B00029F0AAF8607BA073ED48627BDD4F01460B
:1007C0001E314037130029F0DAF80906136712A02A
:1007D000E6FDFCFB12000121A17500202075786761
:1007E000E073E44AFA66A074E074607461730DE328
:1007F000F28CF96E914232D9017800290AD0417801
:10080000002907D0A17D012909D0C078002801D096
:1008100002206073F18CF86E401AF866F6E200214F
:1008200003200FF073F878670028F3D00720607377
:1008300001202074D04830850020A0750320E0738B
:10084000A86C00780128E5D1CC480090E86C0068DD
:100850000379C2788178CAA029F056F8DAE7C54949
:10086000F966A96C097801290DD1C1784278007820
:10087000019202910090E86C00680379C278817857
:10088000CCA029F041F8607C002803D101206074DD
:10089000052010E006200EE00878012808D0052881
:1008A00006D0718DF08C814207D9081A7085ADE2AF
:1008B0000020A07404206073A8E2686C007800280F
:1008C00001D0CC4800E0CC487085A07C092816D027
:1008D000182110200FF01AF87867002887D0072019
:1008E000607302202074C5483085A07C401CA07431
:1008F0001020E073A86C0078012803D086E2002065
:10090000A074C7E79D48C33022E04079E17C0143F1
:1009100008D0002832D008206073A86C0078012825
:100920001ED073E2002104200EF0F0FF786700284B
:10093000BDD00720607304202074B04931850121A7
:10094000E174E073A86C00780128B0D18B480F30B7
:100950000090E86C00680379C2788178A8A05FE015
:100960008348801D182100910190E86C006803798C
:10097000C2788178ADA028F0C7FF47E206206073F7
:10098000A86C0078012892D1E86C00680379C278DD
:100990008178B14838E21D2110200EF0B7FF78674A
:1009A000002884D00720607301202074934830858C
:1009B0001020E073A86C007801289FD1E86C02E059
:1009C0006DE030E005E000680379C2788178A3A08B
:1009D0001AE2207D022801D2162100E0082102201F
:1009E0000EF094FF7867002888D0207D022801D37C
:1009F000002000E0401C2075072060730020207458
:100A0000A54830850220E073A86C0078012888D1C1
:100A1000207D0090E86C00680379C27881789FA0FF
:100A200028F072FFF2E1E07B0101091A53482D38EA
:100A30000918786F0DF048FC607515202056401C91
:100A400008D0607D012802D0207C607321E0062060
:100A5000607321E0318DF08C814202D9081A308513
:100A600017E0207C6073E07B0EF0D6F8A86C00786D
:100A700001280ED1E07B0101091A40482D380818E1
:100A80000090E86C00680379C278817891A028F022
:100A90003BFF607B0728C5D000207867B6E1227B4A
:100AA000002A14D0E07A0021401CC0B2E072217309
:100AB000A96C0978012908D10090E86C00680379D5
:100AC000C27881788FA028F01FFF00204FE642797E
:100AD000002A0BD00978012927D0052925D0022129
:100AE0006173A96C0978012913D079E10021617340
:100AF000A96C0978012919D1C1784278007801924E
:100B000002910090E86C00680379C27881788BA02C
:100B100033E1C17842780078019202910090E86C4C
:100B200000680379C278817826E129E140E100007C
:100B30005C13002050040020253032643A25303206
:100B4000643A253032643A204170705F53656172B7
:100B500063684E6574776F726B5B25645D3A2073D2
:100B600074617465205B25642D3E25645D0A000078
:100B700074170020C0D40100A86100009505002072
:100B8000253032643A253032643A253032643A20D6
:100B90004150505F4465766963655365617263686F
:100BA0004E6574776F726B3A2050757368202573A9
:100BB0000A000000253032643A253032643A25308C
:100BC00032643A204150505F4465766963655365ED
:100BD000617263684E6574776F726B3A204E6F7402
:100BE0002052656164793A2025642D25642D2564A1
:100BF0000A0000001027000060EA0000983A000098
:100C0000253032643A253032643A253032643A2055
:100C10004170705F5365617263684E6574776F727F
:100C20006B3A20507573682025730A0025303264B2
:100C30003A253032643A253032643A204170705F90
:100C40005365617263684E6574776F726B3A2025E5
:100C50002E2A730A0000000060E503082530326484
:100C60003A253032643A253032643A204170705F60
:100C70005365617263684E6574776F726B3A207367
:100C800065742046756C6C2046756E6374696F6E72
:100C9000616C6974790A0000C8AF000025303264C5
:100CA0003A253032643A253032643A204170705F20
:100CB0005365617263684E6574776F726B3A205248
:100CC000657374617274206D6F64756C655B256407
:100CD0005D0A0000253032643A253032643A25300E
:100CE00032643A204170705F5365617263684E658B
:100CF00074776F726B3A2025732074696D656F7518
:100D0000740A0000253032643A253032643A2530C6
:100D100032643A204170705F5365617263684E655A
:100D200074776F726B3A202D2D3E46696E69736839
:100D3000204150505B25645D0A000000253032647C
:100D40003A253032643A253032643A204170705F7F
:100D50005365617263684E6574776F726B3A204DAC
:100D60006F64756C6520646F776E3A2025642D255D
:100D7000642D25640A00000026A028F0C5FD2FE0A0
:100D8000C078002806D0F08C396F814211D9081A3A
:100D9000386725E001206073A86C007801281FD116
:100DA000E86C00680379C278817829A028F0ACFD4E
:100DB00016E00F2110200EF0A9FD786700280FD053
:100DC0000720607308202074686C0078002801D028
:100DD0002C4800E02C4838672C4830851020E07300
:100DE0000498002812D0007800280FD1607304996D
:100DF000401E0870A86C0078012807D1E86C0068D4
:100E00000379C278817822A028F07EFD0020C043BB
:100E1000ADE40000253032643A253032643A2530A2
:100E200032643A204170705F5365617263684E6549
:100E300074776F726B3A204E6574776F726B2064B3
:100E40006F776E3A2025642D25642D25640A0000F5
:100E5000253032643A253032643A253032643A2003
:100E60004170705F5365617263684E6574776F722D
:100E70006B3A204E6574776F726B20646F776E0AE1
:100E80000000000060EA0000905F0100B8880000E8
:100E9000253032643A253032643A253032643A20C3
:100EA0004170705F5365617263684E6574776F72ED
:100EB0006B3A2072657374617274206170700A00FD
:100EC000F0B5C7498BB0C97E01296DD0C54CA18E44
:100ED000814204D9081AA08601200BB0F0BDFF2082
:100EE000F530A086C04DA17A2846B1300290BD4FA2
:100EF000A4380026C037C0350190002909D0E07918
:100F0000617A884204D06072B96C097801297BD07B
:100F1000CCE0A079217A88420DD02072B96C097892
:100F2000012908D10090F86C00680379C2788178B3
:100F3000AEA028F0E9FCA079002804D0012836D022
:100F4000022831D161E0A8480B210C22415682567B
:100F5000914219DA491C49B2C172431CCB5C03703F
:100F60000120A071AC483863B86C00780128E8D142
:100F7000009302920191F86C00680379C27881783D
:100F8000A6A028F0C1FC84E000296EDB0021C94343
:100F9000C1720173B86C0078012866D1F86C0068E2
:100FA0000379C278817800E010E1AAA029E000214D
:100FB00009200EF0ABFCB863002810D00120687047
:100FC0000220A071AC483863B86C00780128B8D111
:100FD000F86C00680379C2788178A8A011E0A18E2E
:100FE000386B884202D9401A386352E0A671B86C57
:100FF00000780128D1D1F86C00680379C278817833
:10100000ADA028F081FC44E047E0B8A1B86B0DF03A
:101010005BF9401C22D01C2103A8BE63FBF723FD13
:1010200001206946087303A80F2201300299FBF7DB
:1010300001FD2878694688830198099003A803F088
:10104000C3FC002822D0B86C007801281ED1F86CAF
:1010500000680379C2788178A74815E0A08E396BC3
:10106000814203D9081A386310E0B1E00920BE6359
:101070000DF0D2FDB86C0078012807D1F86C00683B
:101080000379C27881789DA028F03EFCB86B0028D7
:1010900001D0A07998E0A6719AE00090F86C006801
:1010A0000379C2788178A2A028F02EFCE07900288C
:1010B00004D001280CD0022889D162E04948403888
:1010C000C0790028E8D06C4878630120E07183E0A3
:1010D00000210A200EF01AFC4249C0310F46803F21
:1010E000C86300282DD0B86CFBF7DCFCC2B22A70B4
:1010F000B96C0198FBF79EFC0F22F96C0298FBF784
:1011000099FC01206870B86C2BF088F9F86C2BF012
:1011100085F938468038C6710220E07138468F491B
:1011200080304163816C0978012955D1297800917B
:10113000C06C00680379C278817889A028F0E4FB4C
:1011400041E0284DA18EC035686B884202D9401A13
:10115000686338E0B86C2BF061F9F86C2BF05EF93D
:1011600020484038C671E671A86C007801282FD15C
:10117000E86C00680379C27881784FA028F0C4FB3E
:1011800021E086A1F86B0DF09FF8401C01D0FE63B2
:101190001DE0A08E796B814202D9081A78630FE0B6
:1011A0000A20FE630DF038FDB86C0078012807D1E5
:1011B000F86C00680379C27881787BA028F0A4FBE2
:1011C000F86B002803D0E079002801D004E0E67134
:1011D000A07A01214840A0720020C0437DE60000B3
:1011E0005C1300205004002080160020253032645B
:1011F0003A253032643A253032643A204170705FCB
:10120000534D5352656164696E673A20737461741B
:1012100065205B25645D0A0060EA000025303264C9
:101220003A253032643A253032643A20534D532DFA
:101230006E756D6265723A2025643B2050656E6460
:10124000696E672D496E6465783A2025642F2564A0
:101250000A000000253032643A253032643A2530E5
:1012600032643A20526573657420534D5320496EA1
:101270006465780A000000007011010025303264B6
:101280003A253032643A253032643A204170705F3A
:10129000534D5352656164696E673A2057616974B2
:1012A00020666F722072656164696E672061206ECE
:1012B000657720736D730A00253032643A25303229
:1012C000643A253032643A204170705F534D535375
:1012D000656E64696E673A20526571756573742036
:1012E00053762074696D656F75740A005265616488
:1012F000534D535F73760000CCE40308253032640D
:101300003A253032643A253032643A204170705FB9
:10131000534D5352656164696E673A20526561644A
:10132000534D535F73762074696D656F75740A0051
:10133000253032643A253032643A253032643A201E
:101340004170705F534D5353656E64696E673A2008
:101350007374617465205B25645D0A001873010075
:10136000253032643A253032643A253032643A20EE
:101370004170705F534D5353656E64696E673A20D8
:101380005761697420666F722073656E64696E6759
:1013900020534D535B25645D0A00000053656E6465
:1013A000534D535F73760000253032643A25303256
:1013B000643A253032643A204170705F534D535384
:1013C000656E64696E673A2053656E64534D535F72
:1013D00073762074696D656F75740A00FEB5E64911
:1013E000C97E01297ED0E54DA98D814203D9081A15
:1013F000A8850120FEBD7D20E04CC000A885203CD2
:10140000217E607E814212D02046E030826C1278CC
:10141000012A0AD1E27D00920191C06C0068037933
:10142000C2788178D6A028F06FFA207E6076E348F3
:10143000002780780090002809D0E04841780029F2
:1014400005D0C078002802D0CC48403015E0CB4809
:10145000DB4A4030C16F914206D18268D94B9A4233
:1014600010D20822A2770AE0D74A914207D1C16878
:10147000D64A914206D21621A177C76702E0AA8D0B
:101480008918C167207E01260622030028F077FA1A
:101490000B071A733F2A98CF2AFEFDFC2A002676F6
:1014A00000206776C043B549A776E07640318F6764
:1014B000E8850846803007608760C7604760277707
:1014C000677758E2A07F082816D0A07F162813D08F
:1014D000BA481E384079002884D00099B7480029BE
:1014E0000ED000E0AAE14178002909D06777C078E2
:1014F000002803D0277706E00A2019E0052017E02E
:101500000079002801D0227636E2022010E0A17E88
:101510000801411AAE4806460918583E30690CF0D9
:10152000D3FE401C08D01B2037612056411C01D03F
:10153000207621E20920FBE79048AA8D4030816F98
:10154000914202D9891A816716E2A07E0DF064FBF0
:1015500009202076B06C00780128D5D1A07E010149
:10156000091A9B4808180090F06C00680379C2784B
:10157000817898A058E0964FA98D583FB868884266
:1015800002D9401AB860F7E1002105200EF0BEF93B
:10159000386100287BD0032020767849E676994888
:1015A000403188679848B860607F401C60770520AC
:1015B000A076B86C00780128A6D185484B302CE085
:1015C000834FA98D583FF868884202D9401AF860C5
:1015D000D2E1207F032803D20021A276062002E078
:1015E0000C20A076FF210EF091F938610028D1D0AF
:1015F000207F401C2077032020766049E6768148D2
:10160000403188678048F860B86C0078012890D134
:10161000A07E0101091A6E4808180090F86C006855
:101620000379C278817879A028F06EF9A4E1634843
:101630000179002910D1217F03290DD0C07800281D
:10164000A8D0E88D401CE8852E20285E042806DB03
:101650000020C043E8858FE1FF20E8856AE72E215E
:10166000695E6820414355481A300918203189794C
:101670002E22AA5E68235A43121820325279002A79
:1016800013D02E22AA5E03E051E112E1D9E00FE16E
:101690005A43121820329279002A06D12E22AA5ECD
:1016A0009300654AD258002A09D02E22AA5E6823E8
:1016B0005A43121820325279002A15D027E02E22E0
:1016C000AA5E68235A43121893692E22AA5E9600D6
:1016D000594A935103222E23EB5E682673431B184D
:1016E00020339A71082211E02E22AA5E68235A4301
:1016F000121820329279012A09D104232E22AA5EDF
:1017000068267243121820329371092222762E2203
:10171000AA5E68235A43121820329279022A0CD109
:101720002E22AA5E5A431218D269002A05D12E220F
:10173000AA5E5A431218203297712E22AA5E68239D
:101740005A431218203292798A4284D0204958395B
:101750008A6C1278012A71D12E22AA5E5A4310187F
:10176000203080792E22AA5E00920190C86C006819
:101770000379C278817862E05C1300205004002075
:10178000253032643A253032643A253032643A20CA
:101790004170705F544350436F6E6E656374696F40
:1017A0006E5B25645D3A204368616E6765207374E3
:1017B000617465205B25645D0A00000092170020BB
:1017C000A0BB0D0090B2080040771B00804F1200B4
:1017D00068050020253032643A253032643A2530DD
:1017E00032643A204170705F544350436F6E6E65AF
:1017F0006374696F6E3A2025732074696D656F7527
:10180000740A0000905F01008813000025303264E4
:101810003A253032643A253032643A204170705FA4
:10182000544350436F6E6E656374696F6E3A205017
:101830007573682025730A00941A002041E050A0B7
:1018400070E05F480168A88D814203D95C4A081A9C
:10185000106091E0E88DC1B207200EF057F85849AA
:101860000028086113D0032020760A46E676554802
:10187000803A9067544808600720A076886C00780A
:10188000012879D12E22AA5E0846C13042E02E21DD
:10189000695E682041434D48091820318979032940
:1018A00043D12E21695E6822514308182030877188
:1018B0003BE043484168A88D814203D9404A081A59
:1018C000506059E0E88DC1B20C200EF01FF83C4981
:1018D0000028086129D0032020760A46E676394898
:1018E000803A906738484860E88DFF2805D137482E
:1018F0001A380279002A00D00771207F032800D30C
:1019000027770C20A076886C0078012834D12E220D
:10191000AA5E2F4801920090C86C00680379C278D3
:1019200081782CA027F0F0FF26E0267624E0A17F26
:1019300002200DF0EBFF2249002808611AD0032095
:1019400020760846E676304A803882670220A07604
:10195000886C007801280ED1A27F0846763001926B
:101960000090C86C00680379C278817819A027F0CC
:10197000CBFF00E02676A7770020C043FEBD000025
:10198000253032643A253032643A253032643A20C8
:101990004170705F544350436F6E6E656374696F3E
:1019A0006E3A206368616E676520436F6E6E537494
:1019B0006174655B25645D20746F2025640A0000F6
:1019C00010050020C0D4010088130000AC170020CF
:1019D0001C060020253032643A253032643A253026
:1019E00032643A204170705F544350436F6E6E65AD
:1019F0006374696F6E3A2050757368202573205B9D
:101A000025645D0A0000000060EA0000F8B5CF4FD1
:101A10000026F97EF64301297ED0CD4C618E8142AD
:101A200003D9081A60860120F8BD7D20C0006086B9
:101A3000C74DA078E178C03588420DD0E070A96C20
:101A40000978012908D10090E86C00680379C27810
:101A50008178C0A027F058FFA078012802D0022882
:101A60005AD143E16079002811D1B94840380321A7
:101A70004156491C0BD0C17802200DF047FFE862A7
:101A8000002804D002202071B1484038C670607927
:101A9000012811D1AE48403804214156491C0BD0D1
:101AA000002101200DF032FFE862002804D0A84890
:101AB00040380671012020716079022815D1B048A4
:101AC000C078002811D0A248403800214156491C56
:101AD0000BD001780E200DF019FFE862002804D029
:101AE0009B48403806700E2020716079032811D180
:101AF0009748403806214156491C0BD02021102020
:101B00000DF004FFE862002804D091484038867147
:101B100010202071607900E0D8E004281DD1984899
:101B20001E384079002818D089484030406C618EBA
:101B3000884205D986484030426C511A41640CE015
:101B400000210D200DF0E2FEE862002805D080485B
:101B50008C49403041640D2020717D484038C07A66
:101B6000032807D37A4900204039C8720146012072
:101B70000CF06EFB3A7F002A22D01621795668209D
:101B800041437F481A3008182621095C012917D1E2
:101B9000016A002906D17C4901626D4940390B7BFD
:101BA0005B1C0B73408E00280AD169484038017BCA
:101BB0008A4205D100210173B97D74A00CF0EEFCBE
:101BC0006F489A30817B01290CD18168774A914214
:101BD00008D8418B002905D151008160012174A0F2
:101BE0000CF0DCFC6079052839D10C20205E401C0B
:101BF00035D00C20205E042802DBA089FF282ED1DE
:101C00000C20205E0C2704281CDAE15F6820414389
:101C10005B481A30091820318979012907D0E15F22
:101C200068225143091820318979042917D10422E7
:101C30000C21615E68235943081820308271A08905
:101C4000C1B204E04E48C078002808D0FF210C2023
:101C50000DF05CFEE862002801D0A6812771607952
:101C600006280FD13A4F403F01203856401C09D07A
:101C7000797810200DF04AFEE862002802D07E70CC
:101C800010202071607907280FD1314F403F052087
:101C90003856401C09D0132110200DF037FEE862A1
:101CA000002802D07E7110202071607907280ED0A4
:101CB0006079401C6071E86A002845D00220A0705D
:101CC0004348A862A86C0078012802D03CE00020BC
:101CD000F0E720790101091A3E4808180090E86CE5
:101CE00000680379C27881783BA02BE02179394FD5
:101CF0000801401AC119E86A0CF0E6FA401C04D049
:101D00000020E8620120A0701EE0608EA96A814276
:101D100002D9081AA86217E00020E86220790CF0C6
:101D20007BFF0120A070A86C007801280CD12079DD
:101D30000101081AC0190090E86C00680379C278A4
:101D400081782FA027F0E0FD3046F8BD5C1300201D
:101D500050040020253032643A253032643A253070
:101D600032643A204170705F5574696C6974793AD5
:101D7000207374617465205B25645D0A00000000B7
:101D800092170020002E930280EE3600496E746593
:101D9000722D5265667265736820446174612043D8
:101DA0006F6E6E656374696F6E00000040771B0094
:101DB000496E7465722D5265667265736820564E61
:101DC000455420436F6E6E656374696F6E0000004A
:101DD000F049020068050020253032643A2530328F
:101DE000643A253032643A204170705F5574696CF2
:101DF0006974793A20507573682025730A000000D1
:101E0000253032643A253032643A253032643A2043
:101E10004170705F5574696C6974793A202573203C
:101E200074696D656F75740A00000000F8B50E00E6
:101E3000054602D03078012871D0834CA179E07931
:101E400081420FD02046E171E030826C1278012A85
:101E500008D10091C06C00680379C27881787BA0BA
:101E600027F052FDA179784F824820370B0027F0E8
:101E700086FD05041E598EBEE70001206071A07129
:101E8000714900206031421E08666272A072886645
:101E900008468030816C0978012907D1C06C006840
:101EA0000379C278817874A027F02EFDC8E0807B8A
:101EB000002835D1B88CA84202D9401BB884BFE0B5
:101EC000A07A02281ED0092102200DF01FFD5E49D4
:101ED000603188660846816E0029E7D0A17A022920
:101EE00012D0491CA1726F4A0221A17153000366EE
:101EF00042665548BA842172E030816C0978012924
:101F000004D09DE01621DFE70021EBE7A17A0091E4
:101F1000C06C00680379C278817863A064E07FE0D8
:101F2000032087E0207A6C4F0101081A3E46C11950
:101F3000D83EB06E0CF0C8F9401C06D00020B06648
:101F400009202056411CEBD074E0306EA84202D923
:101F5000401B306674E00420A07100253566207AAD
:101F60000CF05AFEB06E05705B48B5665838816C4F
:101F70000978012964D1217A0A01511AC9190091FD
:101F8000C06C00680379C278817854A02CE0807B13
:101F9000002801D004204DE02B4E6036706EA84220
:101FA00002D9401B70664BE00B2110200DF0AEFCF7
:101FB000B066002844D00220A07104206072394825
:101FC000410031667066B88410202072424858384B
:101FD000816C0978012933D1A17A0091C06C006825
:101FE0000379C278817847A027F08EFC28E06179D8
:101FF000002916D02079401CC1B2217100206071E7
:1020000035485838826C1278012A08D10091C06C8A
:1020100000680379C278817847A027F075FC00201A
:10202000F8BD807B002805D0002E09D0307800282C
:1020300002D005E0A07103E00020A071401E3070C6
:102040000020C043F8BD0000300400202530326479
:102050003A253032643A253032643A204170705F5C
:10206000626F6F743A2073746174655B25645D0AF6
:10207000000000005C130020253032643A25303225
:10208000643A253032643A204170705F626F6F7439
:102090003A202D2D3E526573746172742041505068
:1020A0000A00000030750000253032643A253032D5
:1020B000643A253032643A204170705F626F6F7409
:1020C0003A202D2D3E506572666F6D20626F6F74E1
:1020D0005B25645D0A00000068050020253032643D
:1020E0003A253032643A253032643A204170705FCC
:1020F000626F6F743A2025732074696D656F757413
:102100000A000000253032643A253032643A253026
:1021100032643A204170705F626F6F743A202D2DE7
:102120003E436865636B20526573706F6E73655BC9
:1021300025645D0A00000000253032643A25303203
:10214000643A253032643A204170705F626F6F7478
:102150003A202D2D3E46696E697368204150505BD0
:1021600025645D0A00000000F0B585B00746002038
:102170006946888121F0BAFB7F4C804D20782E463D
:102180006036002806D002284AD004287ED00528D0
:102190002DD1DDE0606900282DD080790BF0ECFCBA
:1021A000002824D0606982888368016880790BF0F8
:1021B0003FFC0146A0600220002919D0C11E6170B9
:1021C0006F49E160002161602070307B1428DFD10D
:1021D00060696B46C2798179808807C32868037972
:1021E0002868C27828688178664827F08DFBBCE0B3
:1021F00003216170AAE003A80BF0F2FB0128F6D1DD
:10220000307B1428F3D168468089009028680379D0
:102210002868C278286881785BA027F075FBA4E065
:1022200067A1A0680CF050F86070401C0CD0307BA7
:10223000142825D160680090286803792868C2783E
:102240002868817863A015E0E068B84202D9C01B15
:10225000E0608AE0042060700020E060307B142899
:102260000AD160680090286803792868C2782868D5
:10227000817865A027F048FB01202056401C74D0CF
:102280006069C168002904D0012000E02EE02056DA
:1022900088476078002803D0307B14281CD054E095
:1022A0006069816800290ED004212170C17900295C
:1022B00006D07D22D200514321610021C17154E03A
:1022C0007D20C0001BE0C07900283ED00421217091
