:020000040800F2
:10C80000F04800209DC900080152010803520108A8
:10C8100005520108075201080952010800000000F2
:10C820000000000000000000000000000B520108A2
:10C830000D520108000000000F520108BD50010810
:10C84000B7C90008B7C90008B7C90008B7C90008C8
:10C85000B7C90008B7C90008294F0108B7C90008BF
:10C86000B7C90008B7C90008B7C90008B7C90008A8
:10C87000B7C90008B7C90008B7C90008B7C9000898
:10C88000B7C90008B7C90008B7C90008B7C9000888
:10C89000B7C90008B7C90008B7C90008B7C9000878
:10C8A000B7C90008B7C90008B7C90008B7C9000868
:10C8B000794E0108B7C90008B7C90008B7C9000810
:10C8C000B7C90008B7C90008B7C90008B7C9000848
:10C8D000B7C9000885500108EB4F01084D50010809
:10C8E000B7C90008B7C90008B7C90008B7C9000828
:10C8F000B7C90008B7C90008B7C90008B7C9000818
:10C90000000000000000000000000000B7C900089F
:10C91000BF4F010817500108B7C90008B7C9000880
:10C92000B7C90008B7C90008B7C90008B7C90008E7
:10C93000B7C90008B7C900080000000000000000E7
:10C94000B7C90008B7C90008B7C90008000000004F
:10C9500000000000000000000000000000000000D7
:10C960000000000000000000B7C90008B7C90008B7
:10C97000B7C900080000000000000000000000002F
:10C9800000000000B7C90008DFF80CD025F0FCFA61
:10C9900000480047A9470108F048002006488047A2
:10C9A00006480047FEE7FEE7FEE7FEE7FEE7FEE794
:10C9B000FEE7FEE7FEE7FEE753CA000889C9000864
:10C9C0000CB50022019200925248016841F4803176
:10C9D00001604FF4A043016801F400310091019916
:10C9E000491C0191009911B901999942F3D101684B
:10C9F000890302D50121009100E0009200990129EC
:10CA000026D1454A12211160416841604168416068
:10CA1000416841F480614160416821F47C114160CA
:10CA2000416841F4E8114160016841F080710160A2
:10CA300001688901FCD5416821F00301416041682A
:10CA400041F0020141604168C1F381010229FAD13C
:10CA50000CBD10B53148016841F4700101602D48EA
:10CA6000016841F00101016041682D4A11404160B7
:10CA700001682C4A11400160016821F480210160A5
:10CA8000416821F4FE014160C16A21F00F01C162D9
:10CA9000016B254A1140016300218160FFF790FF7F
:10CAA0001E494FF000608039086010BD30B5194B49
:10CAB000586800F00C001D4A1D4900280ED00428BB
:10CAC0000ED008280ED00A605868194AC0F3031027
:10CAD000121D105C0A68C2400A6030BD0A60F3E7AC
:10CAE0000A60F1E7586800F470105C6804F4803460
:10CAF000022505EB904044B1DC6A04F00F04641C8D
:10CB0000B2FBF4F242430A60DEE70A4A504308608F
:10CB1000DAE70000001002400020024088ED00E04B
:10CB20000CC07FF8FFFFF6FECCFC00FF00127A007D
:10CB30000000002000093D0010B5B0F1A04F02D068
:10CB4000F94988420AD101210C07204601F0D6F9A3
:10CB50002046BDE81040002101F0D0B9F3498842D9
:10CB600002D0F34988420AD101214C07204601F046
:10CB7000C5F92046BDE81040002101F0BFB910BD45
:10CB800030B5C368EB4A1340D1E900242243D1E910
:10CB900002452C4322430C6922434C6922438C6991
:10CBA00022431A43C260026B22F00F02097F491E22
:10CBB0001143016330BD0021016041608160C160AB
:10CBC00001614161816101210177704710B5C26C3B
:10CBD000D1E900231A430B7ACC685B1E43EA042395
:10CBE0001A430B6942EA83328B8A097E42EA035276
:10CBF00042EA8161C16410BD0021016041600121F0
:10CC00000172C1600161416181617047F0B54FF00F
:10CC1000A043C94DC44CC94E984201D0A04203D193
:10CC2000D3F808232A4001E032682A40D1E90057AE
:10CC30003D43D1E9027C47EA0C37097C3D4345EA94
:10CC400001211143984201D0A04202D1C3F8081338
:10CC5000F0BD3160F0BD0021016041608160C160C4
:10CC600001747047002904D0816841F0010181609E
:10CC70007047816841F0020181607047816841F02E
:10CC8000004181607047D0F8B4007047C0F8B4101C
:10CC90007047826822F08042826082680A43826024
:10CCA0007047014600208968002900DA012070479A
:10CCB000816841F002018160704701460020896867
:10CCC000890700D501207047826822F040528260B7
:10CCD000002904D0816841F08051816070478168EB
:10CCE00041F000518160704701238B40002A04D03D
:10CCF00050F8B01F19430160704750F8B01F9943B6
:10CD000001607047002904D0C16841F40011C1607E
:10CD10007047C16821F40011C1607047002904D038
:10CD2000C16841F48041C1607047C16821F480410D
:10CD3000C1607047C26822F0E0720A43C260704767
:10CD400010B5036A7E4C23400362036A43EA014143
:10CD50000162016A6FF30B010162016A1143016212
:10CD600010BD436A23F47F034362436A43EA0141EF
:10CD70004162416A21F0FF014162416A114341620F
:10CD80007047836A23F47F038362836A43EA014125
:10CD90008162816A21F0FF018162816A11438162AF
:10CDA0007047C26822F0F84242EA8161C160704770
:10CDB00050F8A02F634B1A4001238B4013430168A6
:10CDC00019430160704750F8A42F5E4B1A400123AD
:10CDD0008B40134301681943016070474FF0A04036
:10CDE000002906D0D0F8081341F40001C0F8081358
:10CDF0007047D0F8081321F40001C0F808137047F9
:10CE00004FF0A042904202D0474B98420ED131B130
:10CE1000D2F8080340F48000C2F808037047D2F843
:10CE2000080320F48000C2F808037047434821B18A
:10CE3000016841F4800101607047016821F48001BC
:10CE4000016070474FF0A040002906D0D0F80813C9
:10CE500041F08071C0F808137047D0F8081321F032
:10CE60008071C0F80813704730B51F24052A0AD214
:10CE7000056B02EB420252009440A54301FA02F412
:10CE80002543056326E00A2A0BD2456B521F02EBAD
:10CE9000420252009440A54301FA02F4254345633F
:10CEA00018E00F2A0BD2856B0A3A02EB42025200BD
:10CEB0009440A54301FA02F4254385630AE0C56B5B
:10CEC0000F3A02EB420252009440A54301FA02F4E9
:10CED0002543C56309290DD982690A3901EB41014E
:10CEE00007228A4084699443846182698B401A4393
:10CEF000826130BD42694A1E02EB42043822A240E0
:10CF0000446994434461426901EB41018B401A43F7
:10CF1000426130BD026B22F00F020263026B491EB8
:10CF20000A430263704700000001005000040050F3
:10CF30000005005007C0FFFDE010FCFF080700508F
:10CF4000FFFF00F00100F8FFC36823F47C63C360B7
:10CF5000C3680A431343C360E4E7816841F00401F6
:10CF60008160DFE70146002089684907DAD50120A2
:10CF7000D8E7816841F010018160D3E7C26822F4EC
:10CF80006022491E42EA4141C160CBE7002904D03A
:10CF9000C16841F48031C160C4E7C16821F48031C7
:10CFA000C160BFE7006C80B2BCE74FF0A04188428F
:10CFB00002D0954A904202D1D1F80C03B2E79348CF
:10CFC0000068AFE7036E23F0F8430366036E43EA9D
:10CFD00081610166016E6FF30B010166016E114301
:10CFE00001669FE7436E23F0F8434366436E43EACE
:10CFF00081614166416E6FF30B014166416E1143E1
:10D0000041668FE7836E23F0F8438366836E43EABD
:10D0100081618166816E6FF30B018166816E1143C0
:10D0200081667FE7C36E23F0F843C366C36E43EAAD
:10D030008161C166C16E6FF30B01C166C16E1143A0
:10D04000C1666FE7002904D0016E41F0004101661E
:10D0500068E7016E21F00041016663E7002904D012
:10D06000416E41F0004141665CE7416E21F00041B4
:10D07000416657E7002904D0816E41F00041816686
:10D0800050E7816E21F0004181664BE7002904D012
:10D09000C16E41F00041C16644E7C16E21F000411C
:10D0A000C1663FE7002904D0C16841F00101C160B9
:10D0B00038E7C16821F00101C16033E7C26822F09E
:10D0C0000202C260C2680A43C2602BE710B5092998
:10D0D0000CD90A3901EB410107238B4084699C4339
:10D0E000846183698A401343836110BD4B1E03EB47
:10D0F00043043823A34044699C434461436901EBE2
:10D1000041018A401343436110BD816841F0080129
:10D11000816007E7816841F02001816002E70146F4
:10D1200000208968090700D50120FBE6002904D00A
:10D13000C16841F00071C160F4E6C16821F000717E
:10D14000C160EFE6002904D0C16841F48011C160DC
:10D15000E8E6C16821F48011C160E3E608B50090FB
:10D160000098491E00EB8100803000900098006814
:10D1700080B208BD002A03D042680A434260D1E66B
:10D1800042688A434260CDE60246002012680A42A5
:10D1900000D00120C6E60160C4E610B502460020BA
:10D1A0004FF0A0439A4202D0174CA24202D1D3F8CA
:10D1B000002302E0154A0C3A12680A4200D001200E
:10D1C00010BD4FF0A042904202D00F4B984205D1C3
:10D1D000D2F800030843C2F80003A3E60B480C385A
:10D1E00002680A4302609DE602460020136889B285
:10D1F0000B4052680A40002B02D0002A00D00120C8
:10D2000090E601608EE60000000100500C0700501F
:10D2100001684FF6FE72114001600021016041601B
:10D220008160C1607249724A0839904204D14868ED
:10D2300040F00F00486070476D4A1432904204D1AC
:10D24000486840F0F00048607047694A28329042D0
:10D2500004D1486840F4706048607047644A3C32CA
:10D26000904204D1486840F4704048607047604A7A
:10D270005032904204D1486840F4702048607047B2
:10D280005B4A6432904204D1486840F470004860C0
:10D290007047574A7832904204D1486840F0706035
:10D2A00048607047534A111F904204D1086840F00B
:10D2B0000F00086070474F4A1432904204D108684A
:10D2C00040F0F000086070474A4A2832904204D18A
:10D2D000086840F4706008607047464A3C329042EB
:10D2E00004D1086840F4704008607047414A5032E9
:10D2F0009042FAD1086840F470200860704730B559
:10D30000026847F6F0739A430C6A8B682343D1E9AD
:10D3100004452C4323438C692343CC6923434C6A43
:10D3200023438C6A2343134303608A8942600A685B
:10D3300082604968C16030BD002101604160816048
:10D340008181016141618161C161016241628162EA
:10D350007047002904D0016841F001010160704765
:10D3600001684FF6FE7211400160704741607047DE
:10D37000406880B27047002A03D002680A43026006
:10D38000704702688A430260704702460020D1005D
:10D3900003D518490839096802E0154908390968B0
:10D3A000114200D001207047C10003D51149091F67
:10D3B000086070470E4908394860704702460020EF
:10D3C000D10003D50B490839096802E0084908393A
:10D3D0000968114200D001207047C10003D50549FA
:10D3E000091F08607047024908394860704700000B
:10D3F000080002400804024072494FF0FC500860E7
:10D400000020091D0860091D0860091D0860091D2C
:10D4100008606C4A6FF0FC5114321160694A0C21AB
:10D4200020321160111D0860091D0860091D086087
:10D43000091D08600320091D08607047F0B5614AA6
:10D440000368857903F01F04012606FA04F123F02E
:10D450001F03002D64D05C4D2B44D3F800448C4353
:10D46000C3F80044036823F01F014C19D4F80414D6
:10D4700003F01F0306FA03F39943C4F80414046885
:10D48000037924F01F07B9180B44196804F01F042E
:10D4900006FA04F421431960036823F01F014C19B4
:10D4A000D4F8081403F01F0306FA03F39943C4F8F1
:10D4B0000814016821F01F032B44D3F80C4401F039
:10D4C0001F0706FA07F18C43C3F80C444179102971
:10D4D0000BD0036823F01F0010440844016803F0D8
:10D4E0001F02964031430160F0BD016821F01F0228
:10D4F0002A44D2F8083401F01F0134468E403343E9
:10D50000C2F80834016821F01F002844D0F80C2428
:10D5100001F01F0104FA01F63243C0F80C24F0BDFB
:10D5200000791A44104402688A430260F0BD002169
:10D53000016001711022427181717047224920F00F
:10D540001F021144D1F8102400F01F03012098405D
:10D550000243C1F810247047014600201A4B21F005
:10D560001F021A44D2F8142401F01F03012199402C
:10D570000A4200D00120704700F01F0201219140B3
:10D58000114A20F01F001044C0F8141470470146DF
:10D5900000200D4B21F01F021A44D2F8142401F090
:10D5A0001F03012199400A4200D00120704700F07A
:10D5B0001F0201219140044A20F01F001044C0F8CE
:10D5C00014147047000401400000014010B5B0F190
:10D5D000904F0DD07349884215D104020121204695
:10D5E00000F08CFC2046BDE81040002100F086BC15
:10D5F00001214C04204600F081FC2046BDE810408B
:10D60000002100F07BBC684988420AD10402012154
:10D61000204600F073FC2046BDE81040002100F0D9
:10D620006DBC624988420AD101210C05204600F0F8
:10D6300065FC2046BDE81040002100F05FBC5C495D
:10D6400088420AD144020121204600F057FC2046BE
:10D65000BDE81040002100F051BC564988420AD173
:10D6600001218C05204600F049FC2046BDE8104011
:10D67000002100F043BC504988420AD10121CC0569
:10D68000204600F03BFC2046BDE81040002100F0A1
:10D6900035BC4A4988420AD101210C04204600F0D9
:10D6A0002DFC2046BDE81040002100F027BC10BD35
:10D6B000F0B500220127032607FA02F30C681C408C
:10D6C0009C422BD10D79012D01D0022D13D18468FC
:10D6D000550006FA05FC24EA0C0484604C79AC4041
:10D6E00085682C43846084889C43848084888B79FB
:10D6F00093401C4384800568530006FA03F4A54355
:10D7000005600D79D0F800C09D4045EA0C05056024
:10D71000C568A543CC799C402C43C460521C102A98
:10D72000CAD3F0BD4FF6FF710160002101710222E2
:10D7300042718171C171704741F48032C261C1612F
:10D74000C261C169C069704702460020128A0A425C
:10D7500000D001207047008A704702460020928A5C
:10D760000A4200D001207047808A7047816170476B
:10D7700001857047002A01D081617047018570479B
:10D780008182704710B54B07DB0E9A40C90800EB49
:10D790008100016A0F249C40A1430162016A114388
:10D7A000016210BD0004004800080048000C004859
:10D7B000001000480014004800180048001C0048F1
:10D7C0000E49086070470D49486070470B498860F2
:10D7D00070470A494AF6AA2008607047074908615D
:10D7E000704706494CF6CC4008607047014600205F
:10D7F000024AD2680A4200D001207047003000403F
:10D800002A4908432A490860704770B50F23C27837
:10D8100001260178002A1ED0254A126802F4E0622F
:10D82000C2F5E062120AC2F10404D3404578A54073
:10D8300082781A402A43120101F1E02181F8002484
:10D84000007800F01F018E404009800000F1E020C8
:10D85000C0F8006170BD01F01F00864048098000DB
:10D8600000F1E020C0F8806170BD124A1140014310
:10D870000F48001F016070470D4A121D002903D098
:10D88000116801431160704711688143116070474E
:10D890004FF0E021042804D0086920F0040008615A
:10D8A0007047086940F00400086170470000FA05FD
:10D8B0000CED00E080FFFF1FF748016841F0010117
:10D8C00001604168F54A114041600168F44A114025
:10D8D0000160016821F480210160416821F4FE01AA
:10D8E0004160C16A6FF30D01C162016BED4A1140E5
:10D8F0000163002181607047E74900228A708870C7
:10D900007047034600205909E34A00290CD0012939
:10D910000CD004290CD0516A03F01F02012393405C
:10D920000B4200D0012070471168F5E7116AF3E758
:10D930005168F1E718B5002000904FF4A044112081
:10D94000FFF7DFFF0099491C00910099A14201D027
:10D950000028F4D01120FFF7D4FF08B1012018BD32
:10D96000002018BDCC4A116821F0F80141EAC0003E
:10D9700010607047CC4908607047C7490A6A22F0B6
:10D9800001020A620A6A22F004020A620A6A024377
:10D990000A627047C0490A6A22F018020A620A6ADB
:10D9A00002430A627047C14908607047BA4A536827
:10D9B00023F4741353605368084303435360704760
:10D9C000B94908667047B44AD16A21F00F01014392
:10D9D000D1627047B449C8647047AF4A516821F0BA
:10D9E000074141EA006050607047AB4A516821F03E
:10D9F0000301014351607047A748406800F00C00E4
:10DA00007047A54A516821F0F00101435160704709
:10DA1000A14A516821F4E0610143516070479E4A78
:10DA2000516821F4605141EAC000506070472DE90F
:10DA3000F0470021DFF86082D8F8042002F00C02E1
:10DA40009B4E002A3AD0042A3AD0082A3AD00660DF
:10DA5000D8F8042002F0F0021209964CA55C026886
:10DA600022FA05F34360D8F8047007F4E0673F0A30
:10DA700014F807C023FA0CF78760D8F804C00CF438
:10DA8000605C4FEADC2C14F80C40E340C360D8F82B
:10DA90002CC04FEA1C1CDFF81CA20CF00F090AF185
:10DAA000100A3AF819905FEACC6C24D5B9F1000F4E
:10DAB00021D0B1FBF9FCC0F810C01DE00660C7E73B
:10DAC0000660C5E7D8F8041001F47011D8F80420F6
:10DAD00002F48032022303EB91414AB1D8F82C20A2
:10DAE00002F00F02521CB6FBF2F251430160AFE7A5
:10DAF000714A5143FAE70261D8F82CC04FEA5C2C16
:10DB00000CF00F093AF819905FEACC6C07D5B9F11F
:10DB1000000F04D0B1FBF9FCC0F814C000E0426172
:10DB2000D8F830C05FEACC6C01D4866100E0826135
:10DB3000D8F830C05FEA8C6C01D4C66100E0C261E5
:10DB4000D8F830C05FEA4C6C01D4066200E0026293
:10DB5000D8F830C05FEACC5C08D58A4206D1AC4226
:10DB600004D14FEA410CC0F824C000E04362D8F869
:10DB700030C05FEACC4C08D58A4206D1AC4204D111
:10DB80004FEA410CC0F828C000E08362D8F830C0EA
:10DB90005FEA8C5C08D58A4206D1AC4204D14FEAD8
:10DBA000410CC0F82CC000E0C362D8F830C05FEA76
:10DBB0004C5C08D58A4206D1AC4204D14FEA410CF4
:10DBC000C0F84CC000E0C364D8F830C05FEA0C5C19
:10DBD00008D58A4206D1AC4204D14FEA410CC0F8C4
:10DBE00050C000E00365D8F830C05FEA8C4C08D51F
:10DBF0008A4206D1AC4204D14FEA410CC0F854C06D
:10DC000000E00365D8F830C05FEA0C4C06D58A42C4
:10DC100004D1AC4202D14900816500E08365D8F8A7
:10DC200030108C074FF4004111D0D8F8303003F099
:10DC30000303012B0DD0D8F8303003F00303022B7F
:10DC400009D0D8F83030DB439B0706D006E0836369
:10DC500004E0826302E0816300E08663D8F830303C
:10DC600013F4403F12D0D8F83030C3F30143012BF6
:10DC70000ED0D8F83030C3F30143022B0AD0D8F8C5
:10DC80003030C3F30143032B18D018E0C76316E00C
:10DC9000C26314E0C16312E00010024000C0FFF84C
:10DCA000FFFFF6FECCEC000F00004242800442422F
:10DCB00000127A001400002000093D00C663D8F865
:10DCC000303013F4402F12D0D8F83030C3F38143F2
:10DCD000012B0ED0D8F83030C3F38143022B0AD089
:10DCE000D8F83030C3F38143032B06D006E0076435
:10DCF00004E0026402E0016400E00664D8F8303019
:10DD000013F4401F12D0D8F83030C3F30153012B65
:10DD10000ED0D8F83030C3F30153022B0AD0D8F814
:10DD20003030C3F30153032B06D006E0476404E010
:10DD3000426402E0416400E04664D8F8303013F4F5
:10DD4000400F14D0D8F83030C3F38153012B10D0DA
:10DD5000D8F83020C2F38152022A0CD0D8F8301003
:10DD6000C1F38151032900D18664BDE8F08787643F
:10DD7000FBE78264F9E78164F7E7020F7E49002A36
:10DD800004D0CA6A22F47852CA6203E0CA6A22F452
:10DD9000F872CA62CA6A0243CA627047010F764AC1
:10DDA000002904D0012907D002290ED109E0116B06
:10DDB00021F01001116308E0116B21F020011163C3
:10DDC00003E0116B21F040011163116B01431163FA
:10DDD0007047020F6849082A2AD2DFE802F00409D6
:10DDE0000E13181D21250A6B22F480720A631FE0AE
:10DDF0000A6B22F400720A631AE00A6B22F4806252
:10DE00000A6315E00A6B22F400620A6310E00A6BF1
:10DE100022F400520A630BE00A6B22F400420A6308
:10DE20000A6B22F080720A630A6B22F000720A63A6
:10DE30000A6B02430A6370474F490A6B22F480520F
:10DE40000A630A6B02430A637047020F4A49062AB3
:10DE50001CD2DFE802F01B03080D12170A6B22F038
:10DE600003020A6312E00A6B22F440320A630DE0F7
:10DE70000A6B22F440220A6308E00A6B22F4401283
:10DE80000A6303E00A6B22F440020A630A6B02434E
:10DE90000A63704739490860704737490A6A024384
:10DEA0000A6270473549091D0860704734490860A7
:10DEB00070473349091D086070472F4A002903D075
:10DEC0005169014351617047516981435161704704
:10DED000294A002903D091690143916170479169F2
:10DEE000814391617047244A002903D0D1690143DD
:10DEF000D1617047D1698143D16170471E4A0029C1
:10DF000003D0916A014391627047916A81439162A3
:10DF10007047194A002903D0D1680143D160704786
:10DF2000D1688143D1607047134A002903D0116939
:10DF300001431161704711698143116170470E4AB5
:10DF4000002903D0517A014351727047517A8143BD
:10DF5000517270470848416A41F0807141627047D0
:10DF600001460020044A92680A4200D0012070470E
:10DF7000014988727047000000100240D8004242F8
:10DF80003C04424218B500200090F9480068800621
:10DF900001D5012018BDF64BCA201C331860532050
:10DFA0001860F34A121D106820F0A0001060D4130E
:10DFB000106800F020000099491C00910099A142CE
:10DFC00001D00028F4D01068800601D5012000E0BF
:10DFD0000020FF21196018BD08B500200090E44919
:10DFE000091D0868400615D44FF0FF3008604B1437
:10DFF000086800F04000009A521C0092009A9A4271
:10E0000001D00028F4D00868400601D5012008BDE1
:10E01000002008BD012008BD78B50024009400252B
:10E02000D34ECA201C36306053203060FFF7D4FF37
:10E03000E8B3CF4808380460CD4942F20110091F07
:10E0400008600B1D186800F0070018604D14191DBA
:10E05000086800F00400009A521C0092009AAA423C
:10E0600001D00028F4D00868400701D4002523E03F
:10E0700018681C60BE4A4FF6FF700C321060121F09
:10E08000BC481060BA4814300460001D0460B848F1
:10E0900024300460B64834300460B5483C30046035
:10E0A000001D04600C60B2483830046000E003E0FA
:10E0B000FFF768FF20B10125FF203060284678BDBA
:10E0C0000025F9E7AA48001D016821F080010160E0
:10E0D000704770B504460025A54ECA201C36306036
:10E0E00053203060FFF778FFA0B1A148016821F00C
:10E0F0004001016001682268114301609C48A168E9
:10E10000083001600168A28841EA02410160FFF71E
:10E11000D9FF0125FF203060284670BD0021016035
:10E120007F214160FF218160704791491C310028A7
:10E1300002D0FF2008607047CA20086053200860A2
:10E14000704770B506460024894DCA201C352860EA
:10E1500053202860FFF740FF68B1854826B1016869
:10E1600041F01001016003E0016821F0100101603D
:10E17000FFF7A8FF0124FF202860204670BD7C4ADD
:10E18000CA211C321160532111607949002804D042
:10E19000086840F02000086003E0086800F0DF0035
:10E1A0000860FF2010607047002103E0491CC9B2DD
:10E1B0000A38C0B20A28F9D2090740EA116070474C
:10E1C000010901EB8101490000F00F000844C0B2D1
:10E1D00070472DE9F04105460C4600260020644FAB
:10E1E000002D06D03968490608D52078FFF7E8FFEA
:10E1F00005E03968490602D4E07000E0E07055B1EE
:10E20000A078217840EA01456078E178000240EA90
:10E21000014005430FE02078FFF7C6FF0504607852
:10E22000FFF7C2FF45EA0025A078FFF7BDFF0543D1
:10E23000E07845EA00454E4CCA201C34206053204B
:10E240002060FFF7C9FE78B14B48054048480838C0
:10E250000560FFF737FF3868800604D4FFF792FEA9
:10E2600010B1012600E00126FF2020603046BDE805
:10E27000F0810021C170017041708170704710B54C
:10E2800002460C463A48083801683B480140C1F351
:10E2900005402070C1F30623637001F07F03A37073
:10E2A00001F48001090CE170002A0AD1FFF788FF10
:10E2B00020706078FFF784FF6070A078FFF780FF20
:10E2C000A07010BD2A48203000682949091F09683C
:10E2D000704770B505460C460026002D06D16078C3
:10E2E000C10603D520F010000A3060702DB16078AF
:10E2F000FFF766FFA078FFF763FF55B1A078E178DC
:10E3000040EA014560782178000240EA4130054347
:10E310000FE0E078FFF748FF05046078FFF744FF5F
:10E3200045EA0025A078FFF73FFF0543207845EA3E
:10E3300040350F4CCA201C34206053202060FFF76A
:10E340004BFE80B10D4805400948001F0560FFF7EE
:10E35000B9FE07480068800604D4FFF713FE10B129
:10E36000012600E00126FF202060304670BD00003D
:10E3700008280040FF007F007F7F7F003FFFFF00F5
:10E3800001210170817041700021C170704710B58A
:10E3900002460C46FE480168FE480140080CE07049
:10E3A000C1F30423637001F03F03A370C1F3423152
:10E3B0002170002A0AD1FFF703FFE0706078FFF7B1
:10E3C000FFFE6070A078FFF7FBFEA07010BD70B577
:10E3D00005460E461446EE490020091D002D06D0C4
:10E3E0000968490608D52078FFF7EAFE05E00968C4
:10E3F000490607D4E07005E0E070A068A8B1207B72
:10E40000FFF7DEFEADB1A0782178E27840EA014066
:10E410006178090241EA02410843217B40EA016038
:10E42000A1680843616808431CE0207BFFF7C8FE31
:10E43000E8E72078FFF7B8FE05046078FFF7B4FE40
:10E4400045EA0025A078FFF7AFFE0543E07845EAEE
:10E450000045207BFFF7A8FEA16845EA006008435D
:10E4600061680843CA49CA2220310A6053220A60FF
:10E47000B6F5807F04D00A1F1060FF20086075E7A2
:10E48000C34A18321060F8E70021C1700170417072
:10E4900081708160012202734160704710B50346AC
:10E4A0001446B1F5807F2AD0B9481C300168C1F309
:10E4B00005402070C1F30622627001F07F02A27055
:10E4C00001F48002120CE270C1F30562227301F0C4
:10E4D0008042A26001F080316160002B0ED1FFF715
:10E4E0006FFE20706078FFF76BFE6070A078FFF71A
:10E4F00067FEA070207BFFF763FE207310BDA44869
:10E5000018300168D3E738B500220092A04CCA2227
:10E5100020342260532222609D4A121D002904D01B
:10E52000116801431160012015E0116881431160F9
:10E53000974A08325514116801EA1021009B5B1CB0
:10E540000093009BAB4201D00029F4D0116811EA7E
:10E55000102F03D00120FF21216038BD0020FAE7F1
:10E5600010B58B4BCA2420331C6053241C6011430C
:10E57000B0F5807F05D0864844300160FF201860E8
:10E5800010BD834840300160F8E7B0F5807F05D0CA
:10E590007F4844300068C0F30E0070477C4840302C
:10E5A0000068C0F30E007047794ACA21203211601A
:10E5B000532111607649091D0B6823F007030B6096
:10E5C0000B6803430B60FF20106070477049CA223C
:10E5D00020310A6053220A606D4A10321060FF2019
:10E5E000086070476A481030006880B2704718B5FC
:10E5F00000210091664BCA21203319605321196014
:10E600006349091D002805D0086840F4806008604F
:10E61000012017E0086820F4806008605C4A083236
:10E620005414106800F004000099491C00910099EE
:10E63000A14201D00028F4D01068400701D4002086
:10E6400000E00120FF21196018BD10B5504BCA220F
:10E6500020331A6053221A604D4A121D146824F4A4
:10E66000802414601468084304431460FF20186079
:10E6700010BD4748001D006800F48020704710B5A9
:10E68000434BCA2220331A6053221A60404A121D9B
:10E69000146824F4E004146014680843044314600C
:10E6A000FF20186010BD3A4ACA2120321160532160
:10E6B00011603749091D002804D0086840F40000A3
:10E6C000086003E0086820F400000860FF20106084
:10E6D00070472F4ACA2120321160532111602C4902
:10E6E000091D0B6823F400230B600B6803430B60C8
:10E6F000FF2010607047F0B50023254ECA24203655
:10E70000346053243460224C08342568ED0307D567
:10E71000A71400E05B1C2568ED0301D5BB42F9D1CD
:10E720002368DB0306D408431949104338310860D5
:10E73000012000E00020FF213160F0BD10B5144B36
:10E740001B1D1A6840F60804A243002903D00243A7
:10E7500042F4006200E002430D48CA21203001600B
:10E76000532101601A60FF21016010BD70B50C4695
:10E77000154607492C310968074A1140044A3032CE
:10E7800012684FF63F731A40C1F30543237005E04A
:10E79000042800403FFFFF007F7F7F00C1F3062376
:10E7A000637001F07F03A37001F48001090CE17034
:10E7B0000021E970C2F30421697002F03F01A970E1
:10E7C000C2F342312970002817D12078FFF7F8FCF6
:10E7D00020706078FFF7F4FC6070A078FFF7F0FC21
:10E7E000A0706878FFF7ECFC6870A878FFF7E8FC89
:10E7F000A8702878FFF7E4FC2870B7E58248006825
:10E800007047814A0832002904D0116841EA40006B
:10E8100010607047116821EA4000106070477A4A22
:10E820000832002903D01168014311607047116854
:10E83000814311607047744908310A6822F4C0525C
:10E840000A600A6802430A6070476F4908310A6823
:10E8500022F4E0620A600A6802430A6070476A496B
:10E8600008310A6822F4C0420A600A6802430A605A
:10E87000704765490831002804D0086840F08000DE
:10E8800008607047086820F08000086070475E49A3
:10E890000831002804D0086820F400400860704760
:10E8A000086840F400400860704708B5564A1832BE
:10E8B00002EB800000900098016008BD08B5524945
:10E8C000183101EB800000900098006808BD4E49A7
:10E8D00008310A6822F480220A600A6802430A604A
:10E8E000704770B50022484DCA23143D2B60532356
:10E8F0002B60454B2C3B1C68240707D55E1400E0B9
:10E90000521C1C68240701D5B242F9D11A681207BB
:10E9100011D43D4A303A1268D2060AD401433A482B
:10E920000C380160FFF72EFB08B1012004E0002045
:10E9300002E0002000E00020FF21296016E530B54C
:10E94000314DCA22143D2A6053222A602E4C2E4B90
:10E95000303C20F00402083300F00400002906D007
:10E9600021681143216019680143196005E021689D
:10E9700091432160196881431960FF20286030BDF0
:10E980000246002020492C390968204B19401142C9
:10E9900000D001207047C0F3100040F08000C14358
:10E9A00019482C38026802F0800211430160704758
:10E9B00010B50021144A0832126802F00403124A0A
:10E9C000303A1268840C20FA04F4024003EAD4338B
:10E9D0001A430D4B2C3B1B6803EA1010002A03D08E
:10E9E0000004000C00D00121084610BD000980B2CF
:10E9F00040F08000C14304482C38026802F08002D5
:10EA00001143016070470000382800407FFF01007B
:10EA100010B5E94988420AD1841401212046FFF744
:10EA200078FA2046BDE810400021FFF772BAE349AA
:10EA300088420AD1041401212046FFF775FA2046C6
:10EA4000BDE810400021FFF76FBADD49CC138842C2
:10EA500009D101212046FFF767FA2046BDE81040A2
:10EA60000021FFF761BAD749884209D10121204628
:10EA7000FFF74FFA2046BDE810400021FFF749BAE2
:10EA800010BD0021018041804FF4E0628280C1808E
:10EA9000018141818181C18107210182704730B5A7
:10EAA0004A88B2F5827F1ED0828822F470638A88F9
:10EAB0001A438280028802F44153CA880C898D89E6
:10EAC00022434C892C43CD892C4322430C884D880A
:10EAD0002C4322431A430280828B22F400628283F9
:10EAE000098A018230BD028802F44153CA880C8928
:10EAF0008D8922434C892C43CD892C4322430C8899
:10EB000044F4827422431A430280828822F47063A0
:10EB10008A881A438280DFE700210180418081805A
:10EB2000C1800222826081817047F0B597B00546AE
:10EB30000C46022000210126AA8B4FF240031A4006
:10EB4000AA8302222A84AF8BA268022A21D0A0883D
:10EB500000B102266846FEF76AFF0098E188B1F529
:10EB6000007F2CD07101B0FBF1F000EB8000A168B8
:10EB70004000B0FBF1F0401D80B20A21B0FBF1F083
:10EB800000F00101401AC0F34F004FF6FF7202EA95
:10EB90000121821EFE2A01D302200021E2880843BF
:10EBA00002432A8420886188A2890843A1881143EE
:10EBB0000843384340F40060A88317B0F0BD000A52
:10EBC00000EB8000A1684000B0FBF1F0401D80B276
:10EBD000D3E7002904D0018841F04001018070474B
:10EBE000018821F0400101807047002904D081880C
:10EBF00041F0100181807047818821F010018180EF
:10EC00007047002904D0818B41F480618183704773
:10EC1000818B21F4806181837047828822F4706245
:10EC20000A4382807047828822F4805282808288E0
:10EC30000A4382807047B1F5804F04D0018821F4E7
:10EC4000804101807047018841F480410180704714
:10EC5000A1F57E42FF3A04D0018841F48071018021
:10EC60007047018821F480710180704730B500231E
:10EC7000828B4FF240042240828302220284848BE2
:10EC80000A884FF48075B2F5007F00D002B92B4698
:10EC90004A888D8889892A4319430A43224342F4CA
:10ECA0000061818330BD002904D0818841F00401D6
:10ECB00081807047818821F004018180704700299C
:10ECC00004D0818841F0080181807047818821F05B
:10ECD0000801818070470173704781817047007B14
:10ECE000704780897047028822F40062028002889F
:10ECF0000A4302807047002904D0018841F4005182
:10ED000001807047018821F400510180704701881B
:10ED100041F4805101807047012901D0008B704778
:10ED2000808A7047008A7047002A03D082880A438D
:10ED30008280704782888A4382807047828822F46A
:10ED4000C042828082880A43828070470909012379
:10ED50008B4099B2002A03D082880A438280704790
:10ED600082888A4382807047008900F4C0507047CF
:10ED7000008900F4C06070470246002012890A42F0
:10ED800000D001207047C9430181704730B5024669
:10ED9000002001F00F03012505FA03F4A3B20909CD
:10EDA00005FA01F4A4B29188214012891A4202D0D6
:10EDB000002900D0012030BD003001400038004063
:10EDC000003C0040003C01404D48016801F0070153
:10EDD0000160016841F0F8410160002141608160FB
:10EDE000C160016141618161016581647047444A8C
:10EDF000116821F00701014311607047404A002863
:10EE000008DB19B111680143116070471168814333
:10EE10001160704719B1116D014311657047116D93
:10EE2000814311657047364A002808DB19B1116823
:10EE3000014311607047116881431160704719B137
:10EE4000116D014311657047116D81431165704764
:10EE50002B490A6822F440020A600A6802430A60E9
:10EE60007047284948617047254A002903D0116836
:10EE70000143116070471168814311607047204A57
:10EE8000002903D011680143116070471168814364
:10EE90001160704710B58A07120F0F23934021F0BD
:10EEA0000304174921448C689C438C608B68904014
:10EEB00003438B6010BD12498A6902438A6170471F
:10EEC00011490120086070470D4A002903D0916C58
:10EED000014391647047916C814391647047084984
:10EEE0004A6802434A607047002005498969C9059C
:10EEF00000D50120704702498A6902438A61704740
:10EF000000000140000020421003204210B5FE49DD
:10EF100088420AD1C41401212046FEF7FAFF204698
:10EF2000BDE810400021FEF7F4BFB0F1804F0CD0D7
:10EF3000F649884213D101210220FEF7F5FF002196
:10EF4000BDE810400220FEF7EFBF01210846FEF7A2
:10EF5000EBFF0021BDE810400120FEF7E5BFEC49C2
:10EF6000884209D101210420FEF7DEFF0021BDE81F
:10EF700010400420FEF7D8BFE649884209D101219C
:10EF80001020FEF7D1FF0021BDE810401020FEF751
:10EF9000CBBFE149884209D101212020FEF7C4FFFF
:10EFA0000021BDE810402020FEF7BEBFDB498842AB
:10EFB0000AD1441401212046FEF7ABFF2046BDE8EC
:10EFC00010400021FEF7A5BFD54988420AD1012192
:10EFD0000C042046FEF79DFF2046BDE810400021AE
:10EFE000FEF797BFCF4988420AD101214C04204641
:10EFF000FEF78FFF2046BDE810400021FEF789BFD5
:10F00000C94988420AD101218C042046FEF781FFBC
:10F010002046BDE810400021FEF77BBFC34988426F
:10F020000AD101210C052046FEF773FF2046BDE8FA
:10F0300010400021FEF76DBF10BD70B50288B24CC4
:10F04000B64DBA4EA0420CD0A8420AD0B0F1804FC3
:10F0500007D0AE4B984204D0AD4B984201D0B0429D
:10F0600003D122F070034A881A43AA4B984206D073
:10F07000A94B984203D022F440730A891A430280B4
:10F080004A68C2620A880285A0420CD0A8420AD00F
:10F09000A34A904207D0A34A904204D0A24A904289
:10F0A00001D0B04201D1498901860121416170BD81
:10F0B0004FF0FF3141600021018001814180418199
:10F0C0007047018542617047028822F070020A434E
:10F0D0000280704741627047C1627047406A704762
:10F0E000008D7047002904D0018841F002010180A1
:10F0F0007047018821F0020101807047002904D087
:10F10000018841F0040101807047018821F0040169
:10F1100001807047002904D0018841F4006101801A
:10F120007047018821F4006101807047002904D0F4
:10F13000018841F0800101807047018821F0800141
:10F1400001807047028822F00802028002880A4388
:10F1500002807047028822F44072028002880A43CB
:10F1600002807047002904D0018841F0010101802C
:10F170007047018821F001010180704730B5026AB3
:10F1800022F001020262056A43688269684C2240EB
:10F1900022F003020C68144325F002028D89154306
:10F1A0008A882A43584DA8420BD05C4DA84208D00B
:10F1B0005B4DA84205D05B4DA84202D05A4DA842F3
:10F1C0000FD122F00805CA892A4322F00405CA8813
:10F1D0002A4323F4807323F400730D8A1D434B8A62
:10F1E0002B434360846189684163026230BD30B55E
:10F1F000026A22F010020262056A426883694D4C7D
:10F20000234023F440730C6843EA042425F02003D0
:10F210008D8943EA05138D8843EA05133A4DA842C8
:10F2200002D03E4DA84213D123F08003CD8943EA9A
:10F23000051323F04003CD8843EA051322F48062CE
:10F2400022F400620D8A42EA85024D8A42EA850272
:10F250004260846189688163036230BD30B5026AAF
:10F2600022F480720262026A4368C46924F0700466
:10F2700024F003050C682C4322F400728D8942EAC5
:10F2800005228D8842EA05221F4DA84202D0234D57
:10F29000A84213D122F40062CD8942EA052222F469
:10F2A0008062CD8842EA052223F4805323F4005380
:10F2B0000D8A43EA05134D8A43EA05134360C4618E
:10F2C0008968C163026230BD30B5026A22F480529F
:10F2D0000262036A4268C46924F4E04424F440747E
:10F2E0000D6844EA052423F400538D8943EA05336D
:10F2F0008D8843EA0533044DA84202D0074DA84249
:10F300001DD122F4804217E0002C0140000400408F
:10F31000000800400010004000140040003401408C
:10F3200000400140004401400048014000500140BD
:10F330008FFFFEFFFF8FFFFE0D8A42EA85124260BB
:10F34000C46189680164036230BD30B5026A22F489
:10F3500080320262046A4268436D23F070050B68D4
:10F360002B4324F400348D8944EA05448D8844EA13
:10F370000544F84DA84202D0F74DA84204D122F42A
:10F3800080320D8A42EA05424260436589688165A0
:10F39000046230BD30B5026A22F480120262036A50
:10F3A0004268446D24F4E0440D6844EA052423F4E3
:10F3B00000138D8943EA05538D8843EA0553E54DD3
:10F3C000A84202D0E44DA84201D122F400324260AA
:10F3D00044658968C165036230BD002904D0816D30
:10F3E00041F0005181657047816D21F000518165C8
:10F3F0007047002904D0816D41F0804181657047DC
:10F40000816D21F0804181657047002904D0816DB4
:10F4100041F0004181657047816D21F000418165B7
:10F420007047002101608180C18081608181C1813C
:10F4300001824182704730B500F1180301248C40ED
:10F44000056AE443A4B22540056200290DD00829CD
:10F450000BD0091F03EB51000168C04B194001603C
:10F46000016841EA0221016030BD03EB51000168EF
:10F47000BB4B1940016001681143016030BD41631D
:10F48000704781637047C16370470164704781654D
:10F490007047C16570478269B14B1A400A43826167
:10F4A00070478269AD4B1A4042EA01218161704781
:10F4B000C26922F070020A43C2617047C26922F435
:10F4C000E04242EA0121C1617047426D22F07002C0
:10F4D0000A4342657047426D22F4E04242EA01214C
:10F4E00041657047826922F008020A4382617047D1
:10F4F000826922F4006242EA012181617047C26997
:10F5000022F008020A43C2617047C26922F4006215
:10F5100042EA0121C1617047426D22F008020A43AC
:10F5200042657047426D22F4006242EA0121416562
:10F530007047826922F004020A438261704782693F
:10F5400022F4806242EA012181617047C26922F09F
:10F5500004020A43C2617047C26922F4806242EA2F
:10F560000121C1617047826922F080020A438261F1
:10F570007047826922F4004242EA012181617047AA
:10F58000C26922F080020A43C2617047C26922F454
:10F59000004242EA0121C1617047426D22F08002BF
:10F5A0000A4342657047426D22F4004242EA01215B
:10F5B0004165704782684FF6F7731A40826082682F
:10F5C0000A4382607047026A22F002020A43026222
:10F5D0007047026A22F008020A4302627047026A18
:10F5E00022F0200242EA011101627047026A22F011
:10F5F000800242EA011101627047026A22F400723D
:10F6000042EA012101627047026A22F4006242EA82
:10F61000012101627047026A22F4005242EA01317C
:10F6200001627047026A22F4003242EA014101623B
:10F630007047026A22F4001242EA015101627047E7
:10F6400010B501238B40046A9C430462036A8A401C
:10F650001343036210BD10B504238B40046A9C431E
:10F660000462036A8A401343036210BDC2694FF209
:10F67000FF331A40C261C2694FF6FF7303EA0121EA
:10F680000A43C2617047F0B5046A4EF6FF752C401C
:10F690000462C469A7B2046AA5B24FF6FF7404EA13
:10F6A000013627F4734704EA0221394304EA03329E
:10F6B0000A4325F42041314341F48051C261016283
:10F6C000F0BDC2694FF6F3731A40C261C2690A43C2
:10F6D000C2617047F0B5046A4FF6FF652C400462C2
:10F6E000C469A4B2056AAEB24FF6FF7707EA0125F6
:10F6F00024F0F30407EA03111143214326F42062A6
:10F700002A4342F48072C1610262F0BD826922F430
:10F7100040628261826942EA01218161704770B56D
:10F72000046A4FF6EF752C4004628569046A4FF64F
:10F73000FF7606EA011125F4734545EA033343EAEF
:10F7400002224FF65F731C4041F010012143826199
:10F75000016270BD002C014000340140FF8FFFFEAC
:10F760008FFFFEFF826922F00C02826182690A43E8
:10F770008261704730B5046A24F00104046285692F
:10F78000046A25F0F30542EA03122A4324F00A032F
:10F790000B4343F001018261016230BD70B5064642
:10F7A0000C4625886188A2882389002D0BD0042D62
:10F7B00011D0082D17D03046FFF765FFE18830469D
:10F7C000BDE8704052E73046FFF7D4FFE18830468D
:10F7D000BDE87040C6E73046FFF7A1FFE18830463C
:10F7E000BDE8704092E73046FFF774FFE18830468D
:10F7F000BDE8704065E700210180418001228280E0
:10F80000C180018170472DE9F04107460C46002573
:10F8100001266188002900D10225A288012A00D191
:10F8200002262088238988B13846FFF778FFE188CF
:10F830003846FFF76BFF2389324629463846FFF7E3
:10F8400099FFE1883846BDE8F0418BE73846FFF77D
:10F8500091FFE1883846FFF785FF23893246294624
:10F860003846FFF75CFFE1883846BDE8F0414DE7D8
:10F87000406B7047806B7047C06B7047006C70477F
:10F8800010B50A884B88CC881A438B8823431A43C7
:10F890000B891A434B8989891A430A43426410BD74
:10F8A000436C23F472234364436C41EA02410B43EB
:10F8B00043647047436C23F03C734364436C41EAF8
:10F8C00002510B4343647047002904D0416C41F45A
:10F8D000805141647047416C21F48051416470470C
:10F8E000002904D0416C41F0807141647047416C43
:10F8F00021F0807141647047002101804180818046
:10F90000C1800181418181817047002904D0416C0F
:10F9100041F4004141647047416CC1F30E01416400
:10F920007047002904D0416841F0040141607047EC
:10F9300041684FF6FB72114041607047002904D0C6
:10F94000416841F001014160704741684FF6FE7225
:10F95000114041607047002A03D0C2680A43C26068
:10F960007047C268C94389B20A40C26070474161AA
:10F9700070470246002012690A4200D001207047F9
:10F98000C94389B2016170470246002013690B40E8
:10F99000D2680A40002B02D0002A00D00120704714
:10F9A000C94389B2016170471143A0F848107047FC
:10F9B000002A03D0C2680A43C2607047C268C943C4
:10F9C00089B20A40C2607047002904D0416841F002
:10F9D00008014160704741684FF6F772114041607D
:10F9E000704781684FF6F8721140816070478268F5
:10F9F00092B222F070020A438260704700B503465B
:10FA00001846FFF7F4FF986840F00700986000BDC3
:10FA100070B50D4604461146602D0CD001222046DB
:10FA2000FFF7A8FE29462046FFF7E1FFA06840F057
:10FA30000700A0608DE601222046FFF770FEF1E787
:10FA400030B58468E4B24FF6FF7505EA032313432B
:10FA50000B432343836030BD10B504462046FFF7B7
:10FA6000EFFFA06880B220F0070040F0070020F010
:10FA7000700040F07000A06010BD10B50446204634
:10FA8000FFF7DEFFA06840F48040A06010BD426830
:10FA90004FF68F731A40426042680A4342607047D3
:10FAA000426822F47002426042680A434260704732
:10FAB00082681E4B1A40826082680A4382607047E7
:10FAC00082684FF67F731A40826082680A438260C0
:10FAD000704770B58468A5B28469A4B2066AB6B2EC
:10FAE00025F007050D434FF6FC410C4040F2011193
:10FAF0000C4326F022064FF6FF7101EA0311114371
:10FB0000314385608461016223E6002904D04168A5
:10FB100041F080014160704741684FF67F721140AB
:10FB200041607047A0F8501070470000F8FFFEFFDA
:10FB300010B5F74988420AD101218C032046FEF70F
:10FB4000E8F92046BDE810400021FEF7E2B9F1498E
:10FB500088420AD101214C042046FEF7E5F92046EF
:10FB6000BDE810400021FEF7DFB9EB4988420AD119
:10FB700001218C042046FEF7D7F92046BDE810404D
:10FB80000021FEF7D1B9E54988420AD10121CC0410
:10FB90002046FEF7C9F92046BDE810400021FEF7D7
:10FBA000C3B9DF4988420AD101210C052046FEF77E
:10FBB000BBF92046BDE810400021FEF7B5B910BDE5
:10FBC00030B597B004460D46206820F00100206053
:10FBD000606820F44051A86808436060206841F2E2
:10FBE0000C618843EA68696811432A69024311433A
:10FBF0002160A06820F4407069690143A1606846F3
:10FC0000FDF715FFC248844201D10E990FE0C148AB
:10FC1000844201D10F990AE0BF48844201D1109972
:10FC200005E0BE48844201D1119900E01299206894
:10FC3000000408D52A684900B1FBF2F0B1FBF2F3E9
:10FC400002FB131106E02A68B1FBF2F0B1FBF2F3FC
:10FC500002FB13112A68B1EB520F00D3401C21683C
:10FC6000090405D5C0F342014FF6F0721040084375
:10FC7000A08117B030BD4FF41651016000214160E2
:10FC80008160C1600C2202614161704710B5426819
:10FC900022F47062D1E900342343D1E902410C43DC
:10FCA00023431343436010BD002101604160816024
:10FCB000C1607047002904D0016841F00101016072
:10FCC0007047016821F0010101607047002A03D0EC
:10FCD00002680A430260704702688A430260704704
:10FCE000002904D0016841F40041016070470168B7
:10FCF00021F4004101607047002904D0816841F47B
:10FD0000006181607047816821F400618160704703
:10FD1000002904D0416841F40021416070474168E6
:10FD200021F4002141607047002904D0416841F46A
:10FD3000802141607047416821F480214160704713
:10FD4000002A03D042680A434260704742688A43EF
:10FD500042607047002904D0416841F4004141608D
:10FD60007047416821F4004141607047002904D088
:10FD7000416841F4000141607047416821F400018D
:10FD800041607047426902F07F42426142690A4322
:10FD900042617047028A02F47F420282028A0A4369
:10FDA00002827047002904D0016841F0020101601D
:10FDB0007047016821F0020101607047826822F4F7
:10FDC0004012826082680A4382607047002904D032
:10FDD000416841F4801141607047416821F480110D
:10FDE00041607047426822F4C002426042680A43A0
:10FDF00042607047C1F3080101857047808CC0F3F1
:10FE000008007047426822F07F424260426842EA3E
:10FE1000016141607047002904D0016841F400513C
:10FE200001607047016821F4005101607047026869
:10FE300022F40062026002680A430260704742686E
:10FE400022F01002426042680A43426070474268F2
:10FE500022F02002426042680A4342607047002953
:10FE600004D0416841F4804141607047416821F409
:10FE7000804141607047002904D0816841F0080149
:10FE800081607047816821F0080181607047028AB3
:10FE9000D2B20282028A42EA01210182704700291D
:10FEA00004D0816841F0200181607047816821F0B1
:10FEB000200181607047002904D0816841F0100161
:10FEC00081607047816821F010018160704782680D
:10FED00022F460228260826842EA41418160704778
:10FEE000426922F07F424261426942EA0161416116
:10FEF0007047826822F00402826082680A4382604E
:10FF0000704700290ED0816841F00201816070477E
:10FF1000003801400044004000480040004C0040D0
:10FF200000500040816821F002018160EFE7002964
:10FF300004D0816841F480418160E8E7816821F460
:10FF400080418160E3E7826822F400428260826837
:10FF50000A438260DBE7026822F07872026002687E
:10FF600042EA41510160D2E7026822F4F8120260CD
:10FF7000026842EA01410160C9E7002A03D08268B1
:10FF80000A438260C3E782688A438260BFE782686F
:10FF900022F40052826082680A438260B7E710B59B
:10FFA000C1F3072401238B40022C02D0032C02D082
:10FFB00002E0001D00E008301AB101681943016039
:10FFC00010BD01689943016010BD002A03D0028B67
:10FFD0000A4302839BE7028B8A43028397E7826886
:10FFE00022F48052826082680A4382608FE7024670
:10FFF0000020D2690A428AD0012088E7016286E7A0
:020000040801F1
:1000000030B50024C1F30723012505FA01F2012BC5
:100010000CD0022B0DD083681340090C8D40C069B1
:1000200028400BB100B10124204630BD03681340C5
:10003000F3E743681340F0E7090C01228A400262AB
:1000400065E7000010B501210C072046FDF76CFFA5
:100050002046BDE810400021FDF766BF294908622F
:100060007047294A116821F0E0010143116070478F
:10007000244908617047244A002903D0516801438C
:100080005160704751688143516070471F490A6849
:1000900022F004020A60012803D040BF20BF20BF25
:1000A000704730BF7047184B1A6822F003020243B2
:1000B0001A601648026842F004020260012905D065
:1000C00020BF016821F004010160704730BFF8E7EC
:1000D0000D48016841F0020101600C48016841F0DF
:1000E0000401016030BF704701460020064A526893
:1000F0000A4200D00120704703490A6842EA8000A2
:100100000860704700000E420070004010ED00E0F3
:1001100070477FB501210846FDF7E5FE4FF08045A9
:100120002846FEF7F3FE40F2CF71029140F26711CC
:10013000ADF804100024ADF80C40ADF8064001A95C
:100140002846FEF77AFF01212846FFF719FC012215
:1001500011462846FFF7FFFB01212846FFF702F86A
:100160004FF44070FDF74CFB1C208DF8000005207B
:100170008DF801008DF8024001208DF803006846DB
:10018000FDF743FB7FBD3EB501210420FDF7ABFE2B
:10019000BB4C2046FEF7BAFE44F61F61019140F6C3
:1001A0000F61ADF800100021ADF80810ADF8021095
:1001B00069462046FEF741FF00212046FEF7D2FFA8
:1001C00000212046FEF786FF01212046FFF7D8FBDD
:1001D00001212046FEF7C6FF3EBD10B5FFF7D3FF55
:1001E000BDE8104014F0DEB910B5044645F2555094
:1001F000FDF7E6FA0620FDF7E6FA40F6FF70FDF798
:10020000E5FAFDF7E6FAFDF7ECFA9E49216010BD2C
:100210002DE9F0412DED028B84B000249A4D95F824
:100220003900000701D599A300E09EA3686990F802
:100230002E00052859D0686990F82E00012856D064
:10024000686990F82E00032853D0686990F82E0052
:10025000022850D0686990F82E0004284DD096A24C
:10026000DFF85C82D8F8001096A022F0FDF8A04BD1
:10027000A0A09A1F02F10E0122F0F6F85035297A5B
:10028000A4A022F0F1F8A97AA9A022F0EDF8E97A69
:10029000AEA022F0E9F8A8F5B671B3A022F0E4F818
:1002A0002968B8A022F0E0F8E879503D012826D06E
:1002B000BCA1BEA022F0D8F8D8F82000818DB022D1
:1002C000C1A022F0D1F895F8350000061DD5D8F868
:1002D000200090F82E00400613D5286FE96E2A6F93
:1002E000411AC0A022F0C0F816E0C8A2B8E7CAA21E
:1002F000B6E7CBA2B4E7CCA2B2E7CDA2B0E7D2A1D9
:10030000D7E7D3A022F0B0F806E0286FE96E2A6F95
:10031000411AB4A022F0A8F8D8F82800006821F00B
:1003200082FB41EC100BE868C079009053EC102B75
:10033000CEA022F099F8A868806821F074FB0646E8
:10034000A8680F46406821F06EFB41EC100BD8F80E
:100350002800407A04285FD0D8F82800407A032883
:100360005CD0D8F82800407A012859D0D8F8280065
:10037000407A022856D0C6A20292CDE9006753EC1B
:10038000102BC7A022F070F8D8F82800406821F0A0
:100390004AFB41EC100BE868007A009053EC102BFC
:1003A000CBA022F061F8D8F82800007A04283BD0CE
:1003B000D8F82800007A032838D0D8F82800007A26
:1003C000012835D0D8F82800007A022832D0B0A30E
:1003D000A868427BA868017BC6A022F045F895F882
:1003E000690020B195F86910CCA022F03DF895F88D
:1003F0003500000720D5D0A022F036F828694079D2
:1004000010B1D5A022F030F828690079002816D064
:10041000D8A022F029F812E0DDA2ADE7DFA2ABE719
:10042000E1A2A9E7E6A2A7E7D9A3D1E7EAA3CFE72C
:10043000DDA3CDE7E2A3CBE7ECA022F015F8B5F8F9
:100440004820A868C189F1A022F00EF8E96CF6A056
:1004500022F00AF895F8380010F00C0F0CD0FAA032
:1004600022F002F895F8380010F0300F05D095F81A
:100470003800400602D5F9E1FAE101E2FCE10000B2
:1004800000080040D3D700088006002072756E2057
:1004900061732061646D696E6973747261746F72E7
:1004A0000000000072756E206173206E6F726D61C6
:1004B0006C20757365720000554E4B4E4F574E00C1
:1004C000480800205B564E2D455420475053205479
:1004D0007261636B65722054473130325345202579
:1004E00073202D202573202D2025735D0A00000028
:1004F0007E00002056657273696F6E2020202020D8
:10050000202020202020203A20257325732E2573BB
:100510000A00000052657374617274206E756D621A
:10052000657220202020203A2025640A0000000067
:100530004175746F2072657374617274202020207D
:100540002020203A2025640A0000000057616B65D6
:100550005570496E74657276616C20202020203AB7
:100560002025640A000000004C61737420726573DA
:1005700074617274202020202020203A2025730AE4
:100580000000000052756E6E696E672074696D65BB
:10059000202020202020203A202564202868290AB5
:1005A00000000000756E7361666500004465766941
:1005B0006365207374617475732020202020203AB5
:1005C0002025730A0000000054656D706572617427
:1005D00075726520202020202020203A20256425C7
:1005E00063430A004D656D6F7279287573616765A5
:1005F0002F43617061636974792920203A20256452
:100600002F256420284B42290A000000534F494CF3
:10061000442053544F50000052455354494E470014
:1006200053544F505045440052554E4E494E47008A
:1006300052554E4E494E4720494E204F5645525333
:1006400050454544000000007361666500000000ED
:1006500053442063617264206973206E6F74206953
:100660006E736572746564210A00000042617474DF
:1006700065727920506F7765722020202020203A03
:100680002025322E336620285629282564290A0081
:10069000564F4C5F494E5F52414E474500000000A7
:1006A00020204F7065726174696F6E2052616E67B1
:1006B0006520203A2025322E336620746F202532A3
:1006C0002E3366202856292D3E2025730A0000006F
:1006D0004D61696E20506F776572202020202020A8
:1006E0002020203A2025322E316620285629282520
:1006F00064290A0020204F7065726174696F6E2052
:1007000052616E676520203A20256420746F202591
:1007100064202856292D3E2025730A004D4F4E494E
:10072000544F52494E472020202020202020203A9C
:100730002025640A0000000042757A7A6572202044
:1007400020202020202020202020203A20696E20F8
:100750007573650A00000000416C61726D20436F83
:100760006E74692044726976696E673A204F6E0A2A
:1007700000000000416C61726D204F76657220733D
:10078000706565642020203A204F6E0A000000004A
:10079000564F4C5F554E4B4E4F570000564F4C5FD7
:1007A000444F574E00000000564F4C5F4C45465496
:1007B0005F4F55545F4F465F52414E474500000022
:1007C000564F4C5F52494748545F4F55545F4F4610
:1007D0005F52414E47450000564F4C5F44495343DA
:1007E0004F4E4E45435445440000000042757A7A0E
:1007F0006572202020202020202020202020203A48
:10080000206E6F74207573650A000000534D5320ED
:10081000636F756E74657220202020202020203A9E
:100820002025642F25640A0042797465436F6E7534
:1008300074657220202020202020203A202564206A
:100840002862797465290A004D65617375726520A7
:1008500076656C6F636974792020203A2042617359
:100860006564206F6E204750530A00007DA104E0AC
:100870007FA021F0F9FD03E086A189A021F0F4FD1D
:1008800095F8340000F0070002280CD095F83400E9
:1008900000F00700012810D095F8340000F00700A0
:1008A000032814D026E085A021F0DEFDD8F8200032
:1008B000016B8CA021F0D8FD1CE091A021F0D4FDAB
:1008C000D8F82000016B87A021F0CEFD12E096A0A1
:1008D00021F0CAFDD8F82000016B82A021F0C4FDF0
:1008E0009D48818D9DA021F0BFFD95F84A10A2A0E2
:1008F00021F0BAFDA748C17A11B1A7A021F0B4FD3B
:10090000D8F8200090F82E00400703D5A9A021F0C8
:10091000ABFD02E0AEA021F0A7FDD8F820000068F2
:10092000407C18B1B1A021F09FFD02E0B6A021F0FB
:100930009BFDD8F81C00418DBAA021F095FDD8F898
:100940002000C189BFA021F08FFDD8F82000818947
:10095000C3A021F089FDD8F82000008921F03DF8DE
:100960009FEDC68B53EC182B20F0C5FF41EC100B0C
:10097000D8F82000018953EC102BC2A021F074FD9F
:10098000D8F82000408921F028F853EC182B20F0EB
:10099000B2FF41EC100BD8F82000418953EC102B2A
:1009A000C2A021F061FDD8F82000828CD8F8200088
:1009B0004169C8A021F058FDCDA021F055FD0AF0F5
:1009C000E0F908B1D1A100E0D2A1D5A021F04CFD01
:1009D0007049DAA0573921F047FD6E49DEA033395E
:1009E00021F042FD6B49E3A02C3921F03DFD69491E
:1009F000E7A0083921F038FDD8F80810EBA05231F3
:100A000021F032FDD8F8080090F8630070B1D8F8F2
:100A1000080090F86310ECA021F026FDD8F808003B
:100A200090F86210EFA021F01FFD02E0F4A021F089
:100A30001BFDD8F8080040680078002810D0FAA004
:100A400021F012FDD8F808004168FFA0491C21F0F0
:100A50000BFDD8F808004068007E022801D001E2B2
:100A600015E20CE220436C65616E657200000000C7
:100A70004D6561737572652076656C6F6369747915
:100A80002020203A2050756C7365207369676E6171
:100A90006C0A00006F757420436C65616E657200AE
:100AA00050756C736520636F756E7465722077691D
:100AB000746828257329200A00000000525332333D
:100AC000325F312020202020202020202020203AAA
:100AD00020496E7374616C6C6564205A4D63616D5E
:100AE0000A00000042617564526174652020202074
:100AF000202020202020203A2025640A0000000029
:100B000052533233325F31202020202020202020F9
:100B10002020203A20496E7374616C6C6564204615
:100B20003530300A0000000052533233325F31203A
:100B300020202020202020202020203A20496E73D1
:100B400074616C6C6564206C6576656C2073656E91
:100B5000736F720A000000004C070020496E746534
:100B60007276616C20726571756573742020203A0D
:100B70002025640A00000000455854525332333295
:100B80005F315F53746174757320203A2025640AC5
:100B90000000000060090020546F74616C20436104
:100BA0006D657261202020202020203A2025640AD3
:100BB000000000004143432020202020202020204E
:100BC000202020202020203A204F6E0A0000000024
:100BD00041434320202020202020202020202020AE
:100BE0002020203A204F66660A000000444F4F52F2
:100BF0002020202020202020202020202020203ADB
:100C0000204F70656E0A0000444F4F522020202074
:100C100020202020202020202020203A20436C6FFC
:100C200073650A004675656C2056616C2020202093
:100C3000202020202020203A202564286D6D290ABC
:100C40000000000041444342617420202020202005
:100C5000202020202020203A2025640A00000000C7
:100C60004144435057522020202020202020202083
:100C70002020203A2025640A0000000056F146E6B4
:100C8000913F683F414443203120202020202020F4
:100C9000202020202020203A202564203C2D3E20AA
:100CA00025322E336620560A0000000041444320BE
:100CB0003220202020202020202020202020203A08
:100CC000202564203C2D3E2025322E336620560AF6
:100CD0000000000050756C736520312F46312020D4
:100CE000202020202020203A2025642F25640A007F
:100CF00050756C736520322F463220202020202032
:100D00002020203A204E2F410A000000446F6D61E0
:100D1000696E00004950206164647265737300005D
:100D200052656D6F7465206D6F64652020202020F2
:100D30002020203A2025730A0000000053657276B7
:100D40006572204950206164647220202020203A7E
:100D50002025730A000000005365727665722050EA
:100D60006F7274206E756D626572203A2025730A69
:100D70000000000055736572204950206164647260
:100D8000202020202020203A2025730A0000000087
:100D90005573657220506F7274206E756D62657246
:100DA0002020203A2025730A0000000047534D20E0
:100DB000494D454920202020202020202020203A75
:100DC0002025730A0000000047534D206E6574779C
:100DD0006F726B206E616D652020203A2025640AB9
:100DE0000000000047534D207369676E616C2073EB
:100DF0007472656E6774683A2025640A000000000A
:100E000047534D206E6574776F726B206E616D6510
:100E10002020203A204E6F742072656769737465D4
:100E20007265640A000000004750525320202020C1
:100E300020202020202020202020203A20617661C0
:100E4000696C61626C650A004C6F63616C2049508B
:100E500020202020202020202020203A2025730A36
:100E6000000000006AA021F0FFFAD8F808004068EE
:100E7000407E022807D06FA021F0F6FA0AE076A0A3
:100E800021F0F2FAF1E77CA021F0EEFA02E082A074
:100E900021F0EAFAD8F80400007E18B187A021F00A
:100EA000E3FA02E08CA021F0DFFAD8F80400017D1B
:100EB00091A021F0D9FA686940680078002867D0CD
:100EC00068694068017893A021F0CEFA98A021F0DB
:100ED000CBFA6869416804F10800095C9AA021F026
:100EE000C3FA641CE4B2082CF3D3AFF20C4021F037
:100EF000BBFA6869416896A0243121F0B5FA6869A7
:100F0000406890F83D106869406890F83C006A6954
:100F1000526892F83B20CDE9002002916869406850
:100F200090F83A306869406890F8392068694068FC
:100F300090F838108DA021F097FA6869406890F811
:100F400043106869406890F842006A69526892F8F4
:100F50004120CDE9002002916869406890F8403056
:100F60006869406890F83F206869406890F83E10D2
:100F700088A021F079FA68694068C18E8FA021F0BD
:100F800073FA68694068818E94A021F06DFA02E0DE
:100F90009AA021F069FA6869018CA1A021F064FA95
:100FA0006869816A04B0A6A0BDEC028BBDE8F0417F
:100FB00021F05ABA10B5AAA021F056FA3B21AFA0F1
:100FC00021F052FA6421B7A021F04EFA3021BFA0DF
:100FD00021F04AFA5C21C7A021F046FA2021D0A0D6
:100FE00021F042FA2421D9A021F03EFA2421E2A0E6
:100FF00021F03AFA9321EBA021F036FA0C21F3A06C
:1010000021F032FA0C21FBA021F02EFA282105E272
:10101000436F6E6E656374696F6E203020202020F0
:101020002020203A206E6F7420636F6E6E656374AB
:1010300065640A00436F6E6E656374696F6E20317C
:10104000202020202020203A206E6F7420636F6EB5
:101050006E65637465640A00436F6E6E65637469E0
:101060006F6E2030202020202020203A20636F6ED9
:101070006E65637465640A00436F6E6E65637469C0
:101080006F6E2031202020202020203A20636F6EB8
:101090006E65637465640A00475052532020202017
:1010A00020202020202020202020203A206E6F7435
:1010B00020617661696C61626C650A00475053205B
:1010C0007369676E616C2020202020202020203A48
:1010D00020476F6F640A0000475053207369676EA2
:1010E000616C2020202020202020203A206E6F7468
:1010F00020676F6F640A0000536174656C6C6974DB
:101100006573206E756D62657220203A2025640A31
:1011100000000000447269766572204F7264657247
:10112000202020202020203A2025640A00000000F2
:101130004472697665722054616720202020202047
:101140002020203A200000002530327800000000E6
:10115000447269766572204C6963656E7365202000
:101160002020203A2025730A000000005374617289
:101170007420547269702020202020202020203AE2
:1011800020256325633A256325633A256325630A91
:101190000000000046696E6973682054726970200F
:1011A000202020202020203A20256325633A256333
:1011B00025633A256325630A00000000546F7461BB
:1011C0006C2044726976696E672074696D65203A97
:1011D00020256420286D696E290A0000436F6E7413
:1011E0002044726976696E672074696D6520203AC3
:1011F00020256420286D696E290A000044726976F2
:101200006572205461672020202020202020203A71
:10121000206E6F7420617661696C61626C650A0092
:101220005265737465642020202020202020202017
:101230002020203A20256420286D696E290A0000AC
:1012400044697374616E6365202020202020202073
:101250002020203A20256420286D290A0000000063
:10126000434845434B2053495A45204F462044416B
:1012700054412054595045530A0000002D20536911
:101280007A65206F662074673130327061636B61FC
:1012900067655F6465662020202020203A20256451
:1012A0000A0000002D2053697A65206F6620447281
:1012B000697665725F6465662020202020202020EA
:1012C000202020203A2025640A0000002D205369A8
:1012D0007A65206F662056656869636C655F646532
:1012E0006620202020202020202020203A20256455
:1012F0000A0000002D2053697A65206F6620447231
:10130000697665724D73675F6465662020202020D2
:10131000202020203A2025642B31390A00000000CB
:101320002D2053697A65206F662053746F704D735A
:10133000675F646566202020202020202020202058
:101340003A2025642B31390A000000002D20536912
:101350007A65206F6620446F6F724D73675F6465B6
:101360006620202020202020202020203A202564D4
:101370002B31390A000000002D2053697A65206F57
:10138000662053686966744D73675F6465662020E4
:1013900020202020202020203A2025642B31390ACB
:1013A000000000002D2053697A65206F662053509D
:1013B0006565644D73675F6465662020202020208A
:1013C000202020203A2025640A0A00002D2053699D
:1013D0007A65206F662054696D655F6465662020BC
:1013E0002020202020202020202020203A2025649A
:1013F0000A0000002D2053697A65206F6620446141
:1014000074655F6465662020202020202020202035
:10141000202020203A2025640A0000007FA021F02F
:1014200023F8782187A021F01FF864218FA021F0F4
:101430001BF8402197A021F017F80C219FA021F064
:1014400013F8BDE810400621A6A021F00DB8FEB5A6
:101450000024AE4DAEA021F007F8B4A021F004F8AE
:10146000B94BBAA09A1F02F10E0120F0FDFFD5E999
:101470000032BDA0A96820F0F7FFC34D95F83900F0
:10148000000702D5AFF6FC7101E0AFF6E871BFA02E
:1014900020F0EAFFC34E706800680079716809683F
:1014A000C978726812689278CDE90021029070685C
:1014B0004068037970684068C278706840688178D5
:1014C000B9A020F0D1FF95F85810C5A020F0CCFFAE
:1014D000A6F5B671C8A020F0C7FF06F1900000F194
:1014E0000D01027BCAA020F0BFFF97483A3841792E
:1014F000E9B901214171A6F5B67000210160416092
:1015000081607168496851F8052F0260898881807F
:101510007168096851F8052FC0F806208988418153
:10152000C34B994A78211B684FF49160984795F80E
:10153000690000283ED0BFA020F096FFC048FCF70D
:1015400076FABF4EBFA0316820F08EFFC4A071684C
:1015500020F08AFFC9A0B16820F086FFCEA0F16814
:1015600020F082FFD3A0316B20F07EFFD8A020F0C6
:101570007BFF95F8690001283FD095F869000228A3
:101580003FD095F8690003283FD095F869000428FA
:101590003CD095F869000A2839D095F869000828E8
:1015A00036D095F869000B2833D095F86910CCA097
:1015B00020F05AFFB5F84830A868C28995F839007C
:1015C000C0F34001D0A020F04FFF95F8380010F094
:1015D0000C0F1FD0D7A020F047FF95F8550000282A
:1015E00019D068698068006A016BDEA020F03CFFBA
:1015F00095F8550002280FD041E2E1A020F034FF19
:10160000D8E7EAA020F030FFD4E7E7E1EAE1EDE136
:10161000F0E1F3E1F6E131E2F8E100002D20536959
:101620007A65206F6620526571756573744D616EC1
:101630006167656D656E745F646566203A20256438
:101640000A0000002D2053697A65206F66205379C7
:101650007374656D4D616E616765725F6465662068
:10166000202020203A2025640A0000002D20536904
:101670007A65206F662046696C654D616E616765AD
:101680006D656E745F646566202020203A202564B5
:101690000A0000002D2053697A65206F6620546689
:1016A000696C655F64656620202020202020202052
:1016B000202020203A2025640A0000002D205369B4
:1016C0007A65206F66205466696C6553797374651A
:1016D0006D5F646566202020202020203A2025644C
:1016E0000A0000002D2053697A65206F662073740C
:1016F000617469737469635F7461626C655F64656A
:10170000662020203A2025640A0A0000E8F7FF1F1F
:101710000A0D5B564E2D455420545241434B494EC1
:10172000472053595354454D5D0A00004D6F646581
:101730006C2020202020202020202020203A20540F
:101740004731303253450A007E0000204669726DF1
:10175000776172652056657220202020203A20256E
:101760007325732E25730A0053657269616C2020FE
:101770002020202020202020203A2025782D257888
:101780002D25780A0000000080060020536563754F
:10179000726974792020202020202020203A2025E2
:1017A000730A000048080020446174652F74696D55
:1017B0006520202020202020203A20253032642F50
:1017C000253032642F323025303264202D202530F0
:1017D00032643A253032643A253032640A0000001F
:1017E0004E554D424552204F46205245535441528A
:1017F000543A2025640A00004C61737420726573AA
:101800007461727420202020203A2025730A000081
:101810004361707475726520706F77657220202047
:10182000203A2025735B307825785D0A000000009F
:1018300078010020434C4F434B205359530A00007A
:10184000B43300202D20535953434C4B5F467265EF
:101850007175656E6379203A2025640A00000000E6
:101860002D2048434C4B5F4672657175656E6379F8
:101870002020203A2025640A000000002D2050433B
:101880004C4B315F4672657175656E637920203A05
:101890002025640A000000002D2050434C4B325F8D
:1018A0004672657175656E637920203A2025640A59
:1018B000000000002D2054494D32434C4B5F4672CE
:1018C000657175656E63793A2025640A0000000031
:1018D000434845434B204D4F4E49544F520A000058
:1018E0002D204D4F4E49544F5220202020202020A3
:1018F00020202020202020202020202020202020E8
:101900003A2025640A0000002D20534D53285265CB
:1019100073706F6E73652F5468726573686F6C6453
:101920002F757365642920203A2025642F25642FA4
:1019300025640A002D204D656173757265207665FA
:101940006C6F6369747920202020202020202020C3
:10195000202020203A204261736564206F6E20476A
:1019600050530A00434845434B20525332333220F0
:10197000534552564943453A2025640A0000000069
:101980002D204D4F4E49544F522020202020202002
:101990002020202020202020202020202020202047
:1019A0003A2047534D207461736B0A002D204D4F30
:1019B0004E49544F5220202020202020202020203B
:1019C0002020202020202020202020203A205143A9
:1019D000564E3331207461736B0A000077A020F0FB
:1019E00043FDE7E582A020F03FFDE3E58EA020F077
:1019F0003BFDDFE59CA020F037FDDBE5A9A020F052
:101A000033FDD7E5B3A020F02FFDE6E5C04EF07A18
:101A1000002834D0BFA020F027FDF17ABFA020F02D
:101A200023FDF07A012801D9022100E00121C5A09F
:101A300020F01AFDB17ACDA020F016FDF17ED5A0E0
:101A400020F012FD717FDDA020F00EFD96F824102D
:101A5000E4A020F009FD708C3C21B0FBF1F2B0FB5A
:101A6000F1F301FB1207308C0097B0FBF1F201FBA0
:101A70001202B0FBF1F1E5A020F0F6FC0FE095F8C2
:101A80005510EE4803296ED095F8551005296BD0F6
:101A900095F85510012968D0E9A020F0E5FC6869A7
:101AA0004068007800287DD0E9A020F0DDFC68695E
:101AB000406890F85C00012875D06869406890F82B
:101AC0005C00022870D06869406890F85C000328C8
:101AD0006BD0E3A1E5A020F0C7FC6869406890F8EE
:101AE0005C00012866D0EBA26869406890F833007A
:101AF000022860D06869406890F8330001285BD004
:101B0000E5A1EAA020F0B0FCF3A020F0ADFC6869EC
:101B1000416804F10800095CAFF6D41020F0A4FC81
:101B2000641CE4B2082CF2D330A020F09DFC68695C
:101B3000406890F83D006969496891F83C106A690D
:101B4000526892F83B20CDE9002102906869406814
:101B500090F83A306869406890F8392068694068C0
:101B600090F8381002E0E7E1EBE1EFE1E3A020F0CC
:101B70007BFC6869406890F843006969496891F89E
:101B800042106A69526892F84120CDE90021029022
:101B90006869406890F840306869406890F83F2074
:101BA000686903E0C7E1D6E1D7E1D8E1406890F881
:101BB0003E10BDE1D5E1D6E1D7E100002D204D4F2B
:101BC0004E49544F52202020202020202020202029
:101BD0002020202020202020202020203A2050617A
:101BE000636B6167696E67207461736B0A00000044
:101BF0002D204D4F4E49544F522020202020202090
:101C000020202020202020202020202020202020D4
:101C10003A20537461746520636865636B696E670D
:101C2000207461736B0A00002D204D4F4E49544FB4
:101C30005220202020202020202020202020202072
:101C400020202020202020203A20416363657373E8
:101C5000696E672054473130322773206D656D20DF
:101C60007461736B0A0000002D204D4F4E49544F94
:101C70005220202020202020202020202020202032
:101C800020202020202020203A20446F776E6C6F87
:101C90006164206669726D77617265207461736B2F
:101CA0000A0000002D204D4F4E49544F5220202055
:101CB0002020202020202020202020202020202024
:101CC000202020203A2043616D6572612074617389
:101CD0006B0A00002D204D65617375726520766575
:101CE0006C6F636974792020202020202020202020
:101CF000202020203A204261736564206F6E20709E
:101D0000756C7365207369676E616C0A0000000072
:101D10006009002043414D4552410A002D20546F77
:101D200074616C2043616D6572612072756E6E69BD
:101D30006E67202020202020202020203A202564AB
:101D40000A0000002D204B696E64206F6620484C0D
:101D50002043616D657261202020202020202020FA
:101D6000202020203A20253031640A002020207CC9
:101D70005F54696D6520496E74657276616C2028C8
:101D80006D696E7574657329202020203A202564C2
:101D90000A0000002020207C5F466F722065766577
:101DA0006E7473202020202020202020202020203E
:101DB000202020203A20307825780A002020207C1E
:101DC0005F54696D65206C6174656E6379202028AD
:101DD0007365636F6E647329202020203A20256488
:101DE0000A0000002020207C5F537461746520434A
:101DF000616D6572612044726976657220202020D1
:101E0000202020203A2025640A0000002020207C89
:101E10005F616C6C6F7765642066726F6D20253032
:101E200032643A253032643A303020746F202530E5
:101E300032643A253032643A30300A004C070020D0
:101E40002D204E6F207365766963650A00000000DF
:101E5000434845434B204452495645520A0000002E
:101E6000445F554E4B4E4F57000000002D205472DA
:101E700069702020202020202020202020202020C9
:101E800020202020202020202020203A2025730AF6
:101E9000000000003000000053544154455F44529C
:101EA000495645525F554E4B4E4F57002D204472B8
:101EB00069766572202020202020202020202020EC
:101EC00020202020202020202020203A2025732898
:101ED0002573290A000000002D204472697665727E
:101EE0002054616720202020202020202020202036
:101EF000202020202020203A200000002D20537494
:101F000061727420547269702020202020202020CB
:101F100020202020202020202020203A202563255A
:101F2000633A256325633A256325630A00000000B0
:101F300068A020F099FAFEBD818D73A020F094FA7C
:101F4000ADE5818D7BA020F08FFAA8E5818D84A07E
:101F500020F08AFAA3E58DA1BCE590A1BAE593A192
:101F6000B8E596A2C0E596A1CBE59BA1C9E5F0B581
:101F70002DED028B83B000249D4D686990F82E00F2
:101F8000052862D0686990F82E0001285FD0686942
:101F900090F82E0003285DD0686990F82E00022882
:101FA0005BD0686990F82E00042859D0914A924E6F
:101FB000B16892A0523120F057FA9B4FF9899BA04B
:101FC00020F052FA398AA1A020F04EFA95F8690063
:101FD000122848D0A5A1A6A020F046FA296CACA0F2
:101FE00020F042FAB06890F86210B1A020F03CFAFC
:101FF000B7A020F039FAB0684168BFA0491C20F0B2
:1020000033FAB0684068C18BC3A020F02DFAB068E5
:102010004068018CC8A020F027FAB0684068007EB4
:10202000022822D0CCA020F01FFAB0684068407E81
:1020300002281ED0D3A020F017FA7068007E002876
:102040001BD0DBA020F010FA1AE0E14AAFE7E04A2B
:102050000C32ACE7DE4A1432A9E7DD4A1C32A6E7AF
:10206000DB4A2432A3E7DBA1B5E7DCA020F0FCF9D2
:10207000DBE7E4A020F0F8F9DFE7ECA020F0F4F9CA
:102080007068017DF2A020F0EFF970688068006848
:1020900088B11AF00AFF02787068806800680378D7
:1020A00095F8380010F00C0F01D0F1A100E0F2A17A
:1020B000F3A020F0D9F995F85500032808D14C4831
:1020C000CC30418DF6A020F0CFF995F84A10F7E119
:1020D000F9E100002D2046696E6973682054726929
:1020E00070202020202020202020202020202020A0
:1020F0002020203A20256325633A256325633A256D
:102100006325630A000000002D204675656C204C95
:102110006576656C53656E736F72202020202020D9
:1021200020202020202020203A2025642873290AFE
:10213000000000002D204675656C204C6576656CAE
:1021400053656E736F7220464C532D537472656CD9
:10215000612020203A2025642873290A000000000D
:102160002D204675656C20556C747261536F6E69D5
:102170006353656E736F7220202020202020202062
:102180003A2025642873290A00000000445F535454
:102190004152545F415F545249500000445F5041E6
:1021A0005553455F415F545249500000445F4649D2
:1021B0004E4953485F415F5452495000310000007E
:1021C00053544154455F4452495645525F44524925
:1021D00056494E470000000053544154455F445255
:1021E000495645525F52455354494E47000000003E
:1021F00080060020B8040108480800205B544731DD
:1022000030322D547261636B65722C20496E737489
:10221000616E7420766965776572202D20257320A4
:102220002D2025735D0A000044000020537469636B
:102230006B31205461736B2072756E6E696E67200E
:10224000202020203A2025640A000000537469638E
:102250006B32205461736B2072756E6E696E6720ED
:10226000202020203A2025640A0000006F666600C6
:1022700044617461206C6F676765722020202020A4
:1022800020202020202020203A2025730A00000052
:1022900053797374656D4D616E616765722E537508
:1022A0007370656E642020203A20307825780A000B
:1022B00047534D207369676E616C20737472656E4D
:1022C00067746820202020203A2025640A0000003E
